:020000040000FA
:0600000002011A021D8F2F
:03002B000222CCE2
:03004B000222F599
:03005300021E0288
:03007B000222A3BB
:10008300021C43E5C754F84401F5C7790122000077
:100093000080FB120086B90003020104E4791B7897
:1000A30002B800028004F709D8FCE4791D7802B88D
:1000B30000028004F709D8FCE4900281782D790EC0
:1000C3008002F0A3D8FCD9FA781A90014A7A01BACF
:1000D30000028007E493A3F608DAF97AAD7B0F9068
:1000E300014B782179028015E493A3AD82AE838A14
:1000F300828B83F0A3AA82AB838D828E83D8E9D9C6
:10010300E77582747583FF740212012C75829175F1
:100113008300740012012C75D00075817F751881DE
:10012300751902759F00020096C09FF59FE473D076
:100133009F22D083D082C09FE493C0E0740193C018
:10014300E0740293F59F2201E503F7032104EB0317
:10015300FF0000B4000028002800283075A000A08C
:1001630000A000A00000080008E001F0001000104B
:10017300001000100010001000500050005000103C
:10018300001000D0070000000000000F0001000570
:1001930000307507001000010081FF0000FF02021C
:1001A300020482010000F78102FE810100000310B6
:1001B30002FA81010000B10202FE81010000041075
:1001C300020282010000C702FFFF0100FF200204B8
:1001D30082010000F48102FE810100003210020C52
:1001E30082000000000002FC81030000A4035F0BF7
:1001F3005F0B5F0B5F0B5F0B5F0B5F0B5F0B5F0BAC
:100203005F0B5F0B5F0B5F0B3F0D5D0D390D01E85E
:1002130003053F1002FFFFFF0001504953434553BD
:100223002D425431303047656D696E692D4241313D
:10023300303001030507FFFE7788129932411424F9
:100243002536FEFF00000000000000000000000053
:10025300000000000000014F4BCCCCCC010000009B
:100263006D4EC64139300000120135CCB403120182
:1002730035E2B4031201350FB5031201353FB5035F
:1002830012013560B50312013591B503120135E250
:10029300B503120135F9B503120135A7B1031201F4
:1002A30035BEB103120135EDB10312013526B20398
:1002B3001201354EB2031201357CB203120135939C
:1002C300B203120135AAB203120135C0B2031201FF
:1002D30035E7B203120135FAB20312013510B30345
:1002E30012013538B30312013593B7021201359267
:1002F300B802120135BCB80212013511B90212015C
:100303003532B9021201354BB9021201354DB9022A
:100313001201356EB90212013571BA021201352E7E
:10032300BB02120135FBBB021201355FBC02120195
:1003330035F6BC02120135F9BC021201357FBD024C
:10034300120135C2BD0212013514BE021201354B32
:10035300BE02120135D1BE021201355ABF0212018B
:1003630035A3BF02120135B0BF02120135B3BF027C
:1003730012013511C00212013529C002120135A341
:10038300C002120135A6C002120135C9C002120112
:1003930035CCC00212013573C10212013596C10278
:1003A300120135AEC102120135DEC102120135EB75
:1003B300C102120135EEC1021201355AC202120105
:1003C3003548C302120135FEC30212013569C40266
:1003D30012013544C50212013572C502120135F20C
:1003E300C50212013512C60212013550C6021201AE
:1003F30035A3C6021201350BC7021201359CC70291
:1004030012013567C80212013576CB02120135E2BB
:10041300CC0212013505CD02120135729D03120182
:1004230035039F03120135549F03120135B39F0314
:10043300120135C19F03120135EA9F0312013552A0
:10044300FA021201357AFA02120135A8FA021201F0
:1004530035DFFA0212013547FB0212013590FB0228
:10046300120135DBFB0212013519FC02120135566C
:10047300FC0212013584FC021201352BFD0212012C
:100483003535FD0212013542FD0212013575FD02BB
:1004930012013537FE0212013543FE021201355BAC
:1004A300FE0212013565FE02120135E3FE0212015E
:1004B300350CBB031201351ABB0312013532BB03E2
:1004C3001201354ABB0312013562BB031201354CDD
:1004D3008E02120135EA8E02120135628F02120179
:1004E30035779002120135B190021201355A91020B
:1004F3001201352F9202120135939302120135EA4C
:1005030093021201357194021201355895021201BA
:1005130035A595021201353396021201355796021D
:100523001201352C98021201356D98021201358F94
:1005330098021201355499021201351A9A021201D6
:10054300354F9C021201350496031201351A9603A6
:100553001201354096031201356897031201357273
:100563009703120135CB9803120135CB990312017E
:1005730035478903120135E989031201351C8A03C2
:10058300120135668A03120135208C031201351DD1
:10059300AB011201359BAB01120135ABAB0112016B
:1005A300358EAC01120135BCAC01120135C7AC016B
:1005B300120135B1AD011201354DAE0112013551B4
:1005C300B00112013508B20112013584B2011201E2
:1005D3003561B3011201358FB6011201352DB70113
:1005E3001201358AB801120135FDB901120135A690
:1005F300BA01120135EFBA0112013526BB0112010E
:1006030035CBBB0112013549BC0112013528DC0190
:100613001201357DDC01120135C2DD01120135D233
:10062300DD01120135F5DD0112013540DE01120154
:1006330035E5DE01120135DBDF01120135A5E001ED
:100643001201351DE2011201355FE201120135FD90
:10065300E20112013523E30112013511E501120113
:100663003516E501120135F7E6011201354BE701B5
:10067300120135ADE701120135D5E70112013579D4
:10068300E8011201353BE9011201356CE901120160
:10069300356FE901120135B7E901120135F9E901B5
:1006A30012013560EA011201356CA7031201357F8F
:1006B300A70312013588A703120135A1A70312016D
:1006C30035ECA703120135C7A80312013556A90358
:1006D300120135A1A903120135025D001201351281
:1006E3005D00120135755D00120135BA5D0012011E
:1006F300356A5E00120135435F001201356C5F00FD
:100703001201359C5F00120135B061001201358C76
:1007130063001201356C6500120135A466001201F5
:10072300351D6900120135096A001201354F6B004E
:100733001201355C6C001201359E6C00120135D636
:100743006C00120135F06C00120135586D00120176
:1007530035F27100120135937200120135E7720010
:100763001201350E73001201354C73001201356B03
:100773007300120135BF7300120135C774001201F3
:1007830035507500120135CCE902120135D6E90264
:1007930012013572EA021201353DEB021201355C9A
:1007A300EB0212013582EB02120135C1EB02120199
:1007B30035F9EB0212013522EC021201355CEC0231
:1007C30012013571EC021201353EED021201356161
:1007D300ED0212013583ED0212013598ED0212018B
:1007E3003522EE021201355CEE02120135D0EE0223
:1007F30012013519EF0212013543EF021201356878
:10080300EF02120135189203120135E2920312012D
:1008130035C593031201353B94031201357D9403CF
:10082300120135AA95031201355E9C021201358728
:100833009C02120135A09C02120135E59D021201B2
:1008430035C39E02120135E29E021201356F9F02EB
:10085300120135B29F02120135EAA0021201355688
:10086300A1021201354CA302120135DAA5021201CD
:10087300356DA60212013541A702120135E4A70224
:10088300120135F7A8021201358DA90212013510A4
:10089300B60312013579B603120135CDB603120141
:1008A30035FCB603120135C38D03120135308E03B7
:1008B3001201357B8E03120135708F031201356CE3
:1008C30090031201355691031201353FDD021201E7
:1008D3003586DD021201355FDE021201355ADF0271
:1008E30012013539E002120135A5E002120135C1CA
:1008F300E10212013528E2021201352BE202120154
:100903003556E202120135C7E2021201356AE302EB
:100913001201357FE302120135C7E302120135E00C
:10092300E302120135E3E30212013502A1031201CE
:10093300353EA1031201357CA10312013546A20302
:10094300120135B9A203120135F4A20312013532A3
:10095300A30312013562A30312013589A303120114
:1009630035F4A30312013536A403120135118201B4
:100973001201352F8401120135DE85011201358EF6
:100983008601120135D9860112013524870112012E
:1009930035368701120135768701120135AB8701A0
:1009A300120135F7870112013526880112013549F5
:1009B3008801120135D08801120135BC8901120169
:1009C30035FA8A01120135FC8B01120135D88D01EC
:1009D300120135FC92011201354293011201358057
:1009E3009301120135B59501120135CE970112011C
:1009F30035F8AD0312013598AF031201351C2300FE
:100A0300120135B32300120135E02300120135260C
:100A130024001201355C2500120135F32600120172
:100A2300356B2700120135AD2700120135FD270074
:100A3300120135682900120135D32B00120135AF9D
:100A43002C00120135CE2C00120135ED2C001201C1
:100A530035F02C00120135762E001201356B2F0074
:100A6300120135673000120135D7300012013549C4
:100A73003100120135C83100120135A332001201D1
:100A830035AA3300120135893400120135143500BB
:100A9300120135823500120135F635001201351F7A
:100AA3003600120135DE3600120135ED3900120130
:100AB30035363A00120135793A00120135FC3A0015
:100AC300120135A03B00120135313C0012013556AD
:100AD3003C00120135A03C00120135CA3C00120152
:100AE300350F3D001201358A3D00120135E43D000A
:100AF300120135383F00120135F53F00120135C8A8
:100B030040001201350080021201355080021201AB
:100B1300355C800212013539810212013569810287
:100B2300120135A181021201351B82021201359D8A
:100B33008202120135D58202120135278302120186
:100B430035648302120135898502120135B58702A6
:100B5300120135B089021201358B8B021201351156
:100B6300230012013507E40212013539E8021201AC
:100B73003589E90212013596CC0112013568D3019A
:100B83001201356ED3011201351ED601120135153E
:100B9300F502120135C1F5021201358FF602120179
:100BA30035B9F60212013507F902120135F6400094
:100BB300120135404100120135F24D001201357327
:100BC3004F001201356B5000120135CA5600120155
:100BD30035C557001201350258001201352558005A
:100BE3001201356758001201357158001201355D45
:100BF3005900120135515A00120135EA5A00120107
:100C030035D599031201356B9A03120135819A0385
:100C1300120135FB9A03120135519B031201358FE3
:100C23009B03120135EC9B03120135699C031201EE
:100C330035729C031201357E9C03120135919C038E
:100C4300120135CD9C03120135E39C031201354299
:100C53009D03120135A8F901120135B5F9011201FD
:100C630035CFF9011201350EFA011201354CFA01A3
:100C7300120135B1FA01120135C6FA01120135DD4F
:100C8300FA01120135EBFA01120135FAFA011201E8
:100C9300350FFB0112013524FB011201352FFB0136
:100CA3001201353BFB0112013548FB011201355797
:100CB300FB0112013562FB0112013587FB011201B1
:100CC3003530FC0112013545FC011201355AFC0196
:100CD30012013574FC011201358FFC01120135AC90
:100CE300FC01120135B7FC0112013573FD0112013C
:100CF300355FFE0112013584FE011201358EFE01BE
:100D0300120135A2FE01120135C1FE011201352285
:100D1300FF0112013528FF011201352EFF011201D7
:100D23003534FF0112013540FF0112013573FF0114
:100D3300120135B77500120135E37500120135C78D
:100D43007600120135617900120135777A001201BC
:100D530035947B00120135377C00120135DD7C00B0
:100D630012013509AA021201358BAA021201353488
:100D7300AB021201357CAC021201358AAE021201BC
:100D83003570AF02120135A5AF02120135C7AF02AC
:100D930012013570B00212013540B20212013569F9
:100DA300B202120135E1B20212013513B30212018C
:100DB3003520B3021201356BB3021201358FB30232
:100DC300120135E0B502120135EAB60212013546C9
:100DD300B7021201352AEB011201353BEC01120176
:100DE300351FED0112013529ED011201354BED01DE
:100DF30012013557ED01120135FBEE0112013528C1
:100E0300EF011201353EF00112013593F001120199
:100E130035E2F101120135B7F20112013513F30185
:100E23001201357EF301120135B3F301120135F6D8
:100E3300F301120135C0F601120135D8F601120192
:100E43003569F70112013577F701120135C4F7014E
:100E5300120135D2F7011201353EF801120135B9FD
:100E6300F80112013510F901120135EEAF03120139
:100E73003513B00312013589B00312013550D60280
:100E830012013559D60212013562D6021201353AE2
:100E9300D702120135EBD8021201351BD902120118
:100EA3003546D90212013576D902120135A1D9028C
:100EB300120135D5D90212013501DA021201354486
:100EC300DA021201356FDA02120135B6DA021201C3
:100ED300350BDB021201354DDB02120135A7DB02B4
:100EE300120135D2DB0212013521DC021201355128
:100EF300DC021201357CDC021201359FDC02120197
:100F03003570BD031201359CBD03120135C9BD0304
:100F1300120135D3BD03120135E3BD0312013500C0
:100F230080031201353F8003120135C8800312018B
:100F330035DB8003120135268103120135658103F8
:100F4300120135748103120135CD81031201351C61
:100F530082031201356C820312013560830312018F
:100F6300355584031201359284031201354CBE03B7
:100F7300120135039801120135FA990112013589DD
:100F83009B011201357B9C01120135029D01120167
:100F9300357C9D01120135AD9D0112013566A1011C
:100FA300120135E2A101120135CEA201120135066B
:100FB300A30112013549A30112013580A4011201D5
:100FC30035B1A40112013506A5011201353DA50174
:100FD300120135AFA501120135D5A501120135EF77
:100FE300A501120135E1A601120135F1A601120195
:100FF3003586A801120135A9A801120135DBA80124
:1010030012013567AA01120135DEAA011201350A60
:10101300C003120135A9BE03120135E8BE03120154
:10102300351BC003120135FBBB031201350BBC0397
:101033001201351DBC03120135CFBC031201351D4E
:10104300B703120135A1B70312013507B803120123
:101053003520B8031201353CB80312013595B803A6
:10106300120135A0B803120135EAB8031201351590
:10107300B90312013518B903120135E2BF03120196
:1010830035F2BF03120135F5BF03120135F87F00B6
:10109300120135CBA9031201354CAB03120135AD57
:1010A300AB03120135F3AB03120135F8BF03120191
:1010B3003503C00312013508C0031201351BBA03FF
:1010C30012013544BA031201356DBA031201358595
:1010D300BA03120135C7BA0312013590EF021201A8
:1010E300359AEF02120135DAEF0212013523F002CD
:1010F3001201355DF002120135B7F002120135D647
:10110300F002120135DFF00212013530F102120153
:101113003559F10212013563F102120135CFF102A3
:101123001201355DF202120135B6F202120135E405
:10113300F20212013564F302120135A7F302120120
:1011430035E2F302120135F4F30212013513F4020E
:101153001201351CF402120135E9F4021201354A79
:10116300B3031201359DB30312013509B403120110
:101173003571B4031201357EA403120135A8A4030B
:101183001201357DA50312013571A603120135F451
:10119300A60312013521B903120135F6AB0312017F
:1011A300352CAC0312013565AC03120135BEAD031A
:1011B300120135D5BC03120135EBBC03120135F521
:1011C300BC031201353FBD03120135EDBD0312010E
:1011D300353DCE02120135FACE0212013535CF026A
:1011E3001201355DCF02120135BFCF021201350B5B
:1011F300D0021201356FD002120135E9D00212017B
:1012030035EBD1021201359ED30212013520D402EF
:1012130012013585D4021201359CD402120135A581
:10122300D502120135E3D502120135CA8403120136
:1012330035E38403120135848503120135C4850324
:10124300120135DD85031201351086031201355D68
:101253008603120135918603120135D386031201E9
:1012630035DD880312013539BF0312013544BF034D
:101273001201356BBF03120135FDBC01120135515B
:10128300BD011201359DBD0112013532BE011201AE
:10129300358FBE01120135AEBF0112013564C301A2
:1012A30012013539C60112013537C9011201350F53
:1012B300CB01120135AFCB0112013544CC01120130
:1012C30035EE7F0012013580BF03120135F2BE03F4
:1012D300120135CABF03120135ACBF03E0667010BB
:1012E30008A3E066700A08A3E066700408A3E0663A
:1012F30022C3E7960809E7960809E7960809E796DF
:1013030022C3E09608A3E09608A3E09608A3E0961C
:1013130022C008C3E096F50808A3E096420808A394
:10132300E096420808A3E09645087001D3D008224E
:10133300080808EAC0E0EBC0E086F0E7A4FA180961
:1013430086F0E7A42AFA180986F0E7A42AFA18090E
:1013530086F0E7A42AFA1986F0E7A4FBE5F02AFA57
:10136300190886F0E7A42BFBE5F03AFA190886F092
:10137300E7A42BFBE5F03AFA18180986F0E7A4C5B1
:10138300F02BFBE43AFA1908E7C5F0C6A426F6E504
:10139300F03BFBE43AFA1886F0E7A4F6E5F00826FA
:1013A300F6E43B08F6E43A08F6D0E0FBD0E0FA2294
:1013B300E4CFC0E0E4CEC0E0E4CDC0E0E4CCC0E0E4
:1013C30075F020E626F608E633F608E633F608E677
:1013D30033F6181818EC33FCED33FDEE33FEEF3320
:1013E300FFC3EC9709ED9709EE9709EF97191919C0
:1013F300400FFFEC97FC09ED97FD09EE97FE1919D5
:1014030006D5F0BFECF709EDF709EEF709EFF71989
:101413001919D0E0FCD0E0FDD0E0FED0E0FF22605F
:1014230016080808C6C313C618C613C618C613C6BB
:1014330018C613C6D5E0EA22700908080822601608
:10144300181818C6C333C608C633C608C633C60839
:10145300C633C6D5E0EA22E627F60809E637F608DA
:1014630009E637F60809E637F622E026F608A3E090
:1014730036F608A3E036F608A3E036F622E026F0B7
:1014830008A3E036F008A3E036F008A3E036F02224
:10149300C3E697F60809E697F60809E697F60809FA
:1014A300E697F622C3E096F008A3E096F008A3E0DF
:1014B30096F008A3E096F022E657F60809E657F6F9
:1014C3000809E657F60809E657F622E056F608A398
:1014D300E056F608A3E056F608A3E056F622E056D7
:1014E300F008A3E056F008A3E056F008A3E056F096
:1014F30022E066F608A3E066F608A3E066F608A312
:10150300E066F622E0F608A3E0F608A3E0F608A3F7
:10151300E0F622E6F008A3E6F008A3E6F008A3E667
:10152300F022E0FAA3E0FBA3E0FCA3E0FD22EAF053
:10153300A3EBF0A3ECF0A3EDF022E0F8A3E0F9A312
:10154300E0FAA3E0FB22E8F0A3E9F0A3EAF0A3EBBF
:10155300F022CAC0E0E6F0A308DAFAD0E0FA22CA21
:10156300C0E0E0A3C582CCC582C583CDC583F0A30B
:10157300C582CCC582C583CDC583DAE6D0E0CA2255
:10158300C3E498F8E499F91215C48026C3E49AFADF
:10159300E49BFBE920E7E91215C4E498F8E499F920
:1015A30022C3E498F8E499F91215C4E498F8E4998D
:1015B300F9C3E49AFAE49BFB22EB20E7CFE920E7A7
:1015C300E0B90010BB0008E88AF084F8AAF022E42E
:1015D300FBC8FA22EB70227B10C833C8C933C93366
:1015E3005007C39AC3DBF280069A50012ADBEAC88C
:1015F30033F4C8C933F4C9FA2275F008E4C833C810
:10160300C933C933C99AC99B5004C92AC93BD5F008
:10161300ECFBC833F4C8E4C9FA22600D08C6A2E79C
:1016230013C618C613C6D5E0F322600C08C6C3134D
:10163300C618C613C6D5E0F422700422600D18C67E
:10164300C333C608C633C6D5E0F41822251810AF35
:1016530008F518400C15198008F51840021519D221
:10166300AF2200C0D0251810AF08F518500C05198B
:101673008008F51850020519D2AFD0D0222518F5ED
:101683008210AF08F518400C15198008F5184002B0
:101693001519D2AF851983222518F582E43519F57A
:1016A30083222518F8E43519F9222518FAE43519A7
:1016B300FB222518FCE43519FD22E4732518C582A5
:1016C300C0E0E51934FFC583C0E0E518C395822463
:1016D300F810AF08858319858218800885831985DA
:1016E3008218D2AFCEF0A3E520F0A37808E608F085
:1016F300A3DEFAEFF0A3E58124FAF8E608F0A3E607
:1017030008F0A3E608F0A30808E608F0A3E608F04B
:10171300A315811581D0E0FED0E0F8158115811560
:1017230081E8C0E0EEC0E0222518C582C0E0E519DB
:1017330034FFC583C0E0E518C3958224F910AF08D0
:101743008583198582188008858319858218D2AF0D
:10175300CEF0A3E520F0A37808E608F0A3DEFAEFC5
:10176300F0A3E58124FBF8E608F0A3E608F0A3085C
:1017730008E608F0A3E608F0A315811581D0E0FE82
:10178300D0E0F815811581E8C0E0EEC0E0228519AC
:1017930083851882E0A3FEE0A3F5207808E0A3F692
:1017A30008DFFAE0A3FFE0A3C0E0E0A3C0E0E0A30A
:1017B300C0E0E0A3C0E0E0A3C0E010AF088582185A
:1017C3008583198008858218858319D2AFD083D089
:1017D30082020132851983851882E0A3FEE0A3F516
:1017E300207808E0A3F608DFFAE0A3FFE0A3C0E057
:1017F300E0A3C0E0E0A3C0E0E0A3C0E010AF088531
:1018030082188583198008858218858319D2AFD001
:1018130083D08222C0D02518C582C0E0E51934FFE9
:10182300C583C0E0E518C3958224F310AF08858310
:10183300198582188008858319858218D2AFC8F06C
:10184300A3E9F0A3EAF0A3EBF0A37908E709F0A377
:10185300D8FAECF0A3EDF0A3EEF0A3EFF0A3D0E001
:10186300F0A3D0E0F0A3D0E0F0A3E520F0A3E5F0EF
:10187300F0A322851983851882E0C0E0A3E0F9A3D1
:10188300E0FAA3E0FBA37808E0F608A3DFFAE0FCA4
:10189300A3E0FDA3E0FEA3E0FFA3E0C0E0A3E0C05C
:1018A300E0A3E0F5D0A3E0F520A3E0A3F5F010AFAB
:1018B300088583198582188008858319858218D243
:1018C300AFD082D083D0E0F8D0E0327404800674C5
:1018D3000280027401C0E0F404121680D0E01215F5
:1018E30055227404800474028000CCC0E0EDC0E093
:1018F300E518C39CCCAD1950011D10AF068C188D93
:101903001980068C188D19D2AF121562D0E0FDD064
:10191300E0FC22D083D082E9C0E0E493A3C386F045
:10192300C5F095F0F908E493A386F0C5F095F0703F
:101933000BE493A3C3994005E9048002A3E475F083
:1019430002A42582F582E5F03583F583D0E0F9E43E
:1019530093A3C0E0E493C0E022D083D082ECC0E044
:10196300EDC0E0E493A3FCE493A3FDED4C600D1202
:1019730019A8EC24FFFCED34FFFD80EFE493A3FCF6
:10198300E493A3FDED4C600D1219E7EC24FFFCED8D
:1019930034FFFD80EFD0E0FDD0E0FCE493A3C0E092
:1019A300E493C0E022C0E0C3E493960874019396E5
:1019B30018400FE49366700808740193661870006A
:1019C3007019A3A3C3E49396087401939618A3A371
:1019D300400DD0E0D0E0D0E0021998A3A3A3A3A3C5
:1019E300A3D0E022C0E0C0F088F0E493667008085A
:1019F30074019366187000A8F0A3A3700BD0F0D005
:0F1A0300E0D0E0D0E0021998A3A3D0F0D0E02209
:101A140074F512172BEAFEEBFFEE2434F8EF3400D2
:101A2400F988088909EE2435F582EF3400F583E05E
:101A3400F8EE2437F582EF3400F583E0F50AEC85FF
:101A44000AF0A4FCAAF0850AF0EDA42AFDE82CF81B
:101A5400E43DF97A257B001215C4EA8508828509DC
:101A640083F05407F87401B800028004C333D8FC2F
:101A7400C0E0E0131313541FF8EE28F8EF3400F914
:101A8400E8245DF582E93400F583D0E0F8E058609D
:101A940008EE2434F582EF801EEE2436F582EF340E
:101AA40000F583E0F5F0EA84A8F0EE28F8EF3400BE
:101AB400F9E82438F582E93400F583E0F97F04027B
:101AC40017D774F512172BEAFEEBFFEE2434F582D8
:101AD400EF3400F583E0C0E0EE2435F582EF340006
:101AE400F583D0E0F08E828F83A3A3A3A3A3A3A343
:101AF400C082C0838E828F83A3A3A3A3A3E0F8A391
:101B0400E0F9D083D082E0C398F508A3E099F50901
:101B1400EE2480F582EF3400F583E064017069EE11
:101B24002481F582EF3400F583E0F8A3E0F98E8296
:101B34008F83A3A3A3A3A3A3A3E0FCA3E0FD8E82AE
:101B44008F83A3A3A3A3A3E0FAA3E0FBC3EA9CEBC4
:101B54009D5027C3EC98ED99402EC3EA98EB995019
:101B6400277CE27D07EEFAEFFB120A9FEE2480F554
:101B740082EF3400F583E4F0800EC3EA98EB9940D9
:101B8400E0C3EC98ED9950D9EE2434F8EF3400F921
:101B9400E8FCE9FDEE2435F582EF3400F583E0F846
:101BA400EE2437F582EF3400F583E0F50AE5088585
:101BB4000AF0A4F508AAF0850AF0E509A42AF509B3
:101BC400E82508F8E43509F97A257B001215C4EAFA
:101BD4008C828D83F05407F87401B800028004C32A
:101BE40033D8FCC0E0E0131313541FF8EE28F8EFC9
:101BF4003400F9E8245DF582E93400F583D0E0F897
:101C0400E0586008EE2434F582EF801EEE2436F5A9
:101C140082EF3400F583E0F5F0EA84A8F0EE28F8CA
:101C2400EF3400F9E82438F582E93400F583E0F96B
:101C3400122295021AC10000851B87851CC622C08A
:101C4400E0C0D0E8C0E0E9C0E0EAC0E0EBC0E0EC0E
:101C5400C0E0EDC0E0C008C009C00AC00BC082C02B
:101C640083C0F0759B00906182E0A2E64003021DF0
:101C740021E591A2E64003021D217591BF900499CC
:101C8400E064057008120C2B120C378003120C311F
:101C9400751B00120C97E990049AF07900120C79E4
:101CA400120A0F7A017B00900498E0F91211359022
:101CB4007803E064426003021D6A900817E014F0A0
:101CC4006003021D6AC2AF121CCE00781ED0E0F67B
:101CD40018D0E0F6E59F5407F9700590814C800315
:101CE4009081507808121507E9C4C0E0781DE655C4
:101CF40008F50808E65509F509740B780812162D3D
:101D0400D0E02508F8906270E0A2E740F8E8C33319
:101D1400906272F0906270E0D2E0F08049E0A2E557
:101D24005024E591A2E5501E7591DF900499E0647A
:101D34000D70139004BBE004F064287002E4F07AA0
:101D440000E0F9120D27906181E0A2E35009E5E972
:101D5400A2E3500375E9F7A3E0A2E75009E591A2D5
:101D6400E7500375917FD0F0D083D082D00BD00A96
:101D7400D009D008D0E0FDD0E0FCD0E0FBD0E0FA00
:101D8400D0E0F9D0E0F8D0D0D0E032C0E0C0D0C08C
:101D940082C083906183E0A2E05009E5BFA2E050D5
:101DA4000375BFFEE0A2E15009E5BFA2E15003754F
:101DB400BFFDE0A2E25009E5BFA2E2500375BFFBFC
:101DC400E0A2E35009E5BFA2E3500375BFF7E0A228
:101DD400E45009E5BFA2E4500375BFEFE0A2E5506B
:101DE40009E5BFA2E5500375BFDFE0A2E65009E5AF
:101DF400BFA2E6500375BFBFD083D0828088C0E005
:101E0400C0D0E8C0E0E9C0E0EAC0E0EBC0E0ECC06C
:101E1400E0EDC0E0C0F0E5A7A2E6500FE5A1A2E620
:101E2400500953A7BF75A1BF121E67E5A7A2E550CD
:101E34000CE5A1A2E5500653A7DF75A1DFE5A7A233
:101E4400E15009E5A1A2E1500375A1FDE5A7A2E2D5
:101E5400500CE5A1A2E2500653A7FB75A1FBD0F0FC
:101E6400021D7874F812172B751B01900499E06415
:101E7400067015120BD78A828B83A3A3A3A3A3A3F3
:101E8400E0FAA3E0FB120C19A2AFE433FED2AF9048
:101E9400049FE0640170187A207B00900498E0F9B4
:101EA40012124F7A207B00900498E0F912113B90B3
:101EB4006182E0D2E6F0900816E0602185C61C80BD
:101EC4001690049EE064017008E5C654F84405F5D4
:101ED400C653BEFC121C3C7401651B60E4EEA2E018
:101EE40092AF7F010217D774EB12172B74FA1216F4
:101EF4004F8A088B098C148D15900499E024F7C33C
:101F0400940550069081AC02204D120BD78A0A8B9F
:101F14000BAE0AAF0BEE4F700302204AAC08AD09BA
:101F2400851882851983AA82AB83120C498E828F0D
:101F340083A3A3780812150790818C78081214CE15
:101F4400851882851983780C12150790818C780C7A
:101F54001214CE7808790C1212F4501F7808790CF8
:101F64001214939081EC78081213144047850810DA
:101F7400850911850A12850B138041850C10850D86
:101F840011850E12850F137810790812149390811D
:101F9400EC7810121314501C751000751100751292
:101FA400007513017810790C1214937810790812C3
:101FB400145A80089081AC781012150774097810AF
:101FC40012143B9081C07808121507781079081212
:101FD40013B38E828F83A3A3A3A3A3A3E0F8A3E0E8
:101FE400F97AD07B031215C488088909E4F50AF547
:101FF4000B7810790812145A740412169BE0F8A393
:10200400E0F97AD07B031215C4E8FA8A08E4F509EA
:10201400781079081212F450077810790812149382
:10202400900499E06408600AE064066005E06405D1
:10203400701C908174781012131450129081787867
:102044001012146D80089081A87810121507851459
:1020540082851583781012151674061216657F0E84
:102064000217D774F712172B120C5B900814E06454
:10207400017010906245E4F0A3F053F4F343FE0CB6
:102084005390F3120C07E5C654804449F5C6E59E07
:10209400547F644970F8906185740FF0900812E0E1
:1020A400F47002A3E0604E900813E0600814601B13
:1020B40014602E8040750801750900900812E078BC
:1020C4000812163CE508F45280802A750801750947
:1020D40000900812E0780812163CE508F45290804B
:1020E40014750801750900900812E0780812163C6E
:1020F400E508F452A079007F020217D774F712178B
:102104002BE9FEEAFF74016E700C7A807B00900468
:1021140098E0F9121135902314E493F46008E493E1
:10212400F9120A03800953C680E59E547F70FA129F
:102134000C0D900814E064017003120A1B9008123D
:10214400E0F47002A3E0604B900813E060081460B0
:102154001A14602C803D750801750900900812E07E
:10216400780812163CE50842808028750801750934
:1021740000900812E0780812163CE508429080139B
:10218400750801750900900812E0780812163CE5FC
:102194000842A0120C5B120BD78A088B09A808A965
:1021A40009E8496015E5E170FCE82414F582E93496
:1021B40000F583E0F46003E0F5E174016F700A7ADE
:1021C40001900498E0F91211BF0220FB74F1121778
:1021D4002B8A088B098C0A8D0B740F12169B780CB2
:1021E40012150790818C78081214CE90818C780C8B
:1021F4001214CE7808790C1212F450157808790C60
:102204001214939081EC780812131440157901800C
:1022140013780C79081214939081EC780C1213142F
:1022240040EB79007F080217D774ED12172B8A0848
:102234008B098C0A8D0B741312169B780C121507DC
:1022440090818C78081214CE90818C780C1214CE64
:10225400780C79081212F440117808790C1214934E
:10226400AA08AB09AC0AAD0B8022751000751100E9
:102274007512007513017810790C12149378107983
:102284000812145AAA10AB11AC12AD137F0C02172A
:10229400D7C082C083E9906000F0D083D08222C08E
:1022A400E074F2121817A2AFE433FED2AFE58AA2AB
:1022B400E45003121069758A00C2EB751A00EEA28D
:1022C400E092AF7F01021876C0E0C0D0E8C0E0E938
:1022D400C0E0A9A8D2AFC2C7751A00E9A2E7E433E7
:1022E400F8E9A2E792AFD0E0F9D0E0F8D0D0D0E09E
:1022F40032C0E0C0D0E8C0E0A8AFE8A2E050037567
:10230400E200F4F5AFD0E0F8D0D0D0E032020132F0
:10231400FFFFFFFFFFFFFFFFC082C0839061907447
:1023240004F0A37448F0A37402F09061807440F048
:102334009061BC7403F09061877419F090626574C5
:102344001BF090619C740DF090619A7433F0A37447
:1023540055F09061A0743AF0900814E0640170099B
:10236400C29190049D7467800590049D7461F090FF
:10237400231AE493906186F0902314E493F4602785
:10238400E493540FF8906185E0686012E5C65480C8
:102394004449F5C6E59E547F644970F8E8F053C695
:1023A40080E59E547F70FA7905120D090227A6C0B4
:1023B40082C083E9540FF9906185E0696012E5C633
:1023C40054804449F5C6E59E547F644970F8E9F0A9
:1023D40053C680E59E547F70FA0227A6C082C0834C
:1023E400E5A8F853A87E906181E4F0A3F0A3F0C2BD
:1023F400BA539AFEC289759B00C2C275E9007591F1
:102404000075BF0075A91175B905906181F0A374B9
:10241400C0F0A3E4F0D2BA439A0174805842A802EF
:1024240027A6C082C08374F812164F90049BE0F86C
:10243400A3E0F9E849700302255490049BE054405A
:1024440060237908851882851983AA82AB83120BCD
:1024540011851882851983AA82AB831207ED900433
:102464009BE054BFF0E054806010790C7A387B080C
:10247400120B1190049BE0547FF0E0A2E0503190E5
:10248400619A7433F0A37455F09061A0743AF0909B
:102494000814E064017009C29190049D746780057A
:1024A40090049D7461F01207F390049BE054FEF0D5
:1024B400E05402603190619A743FF0A3745AF09032
:1024C40061A0747FF0900814E064017009D29190C7
:1024D400049D7471800590049D746AF01207F39052
:1024E400049BE054FDF0E054046013902318E4933B
:1024F400906186F01207F990049BE054FBF0E054DD
:10250400086013902319E493906186F01207F99000
:10251400049BE054F7F0E05410601390231AE49302
:10252400906186F01207F990049BE054EFF0E054B8
:1025340020600A1207F990049BE054DFF0A3E054F2
:1025440001600D120A1B1207FF90049CE054FEF078
:1025540074081216650227A674EC1216BF74F412DE
:10256400164F851882851983AC82AD837583817576
:102574008288740412156290231893F4600302266F
:10258400E9907808E0C3940250030226C974041247
:10259400169BAC82AD8375838175821674081215FF
:1025A40062851882851983858212858313740412C7
:1025B400169BAC82AD83750EFF750FFF7FFF7E0007
:1025C400750C48750D78801574086E700302265CCE
:1025D40074096E700302265C740A6E607B850C823B
:1025E400850D8378081215078C828D83A909E50A65
:1025F400C9F8881074187808121422E5104508F8F0
:10260400C3E098A3E099850C82850D8378081215A0
:102614000740188C828D8374187808121422E510F0
:102624004508F8E0C398F8A3E0801C7418780812F1
:102634001422E5104508FAE9FB8C828D83E0F8A3A7
:10264400E0F9EAC398F8EB99F9C3E8950EE9950F18
:102654005006880E890FEEFF0EE50C2404F50CE5F8
:102664000D3400F50DEEC3941350030225CC74FF12
:10267400650E700474FF650F60238F087402780878
:1026840012163C74482508F58274783509F5837868
:1026940008121507851282851383E508F0EC2402DD
:1026A4000C0CED3400FD851282851383A385821200
:1026B400858313740C12169BE5826C7003E5836D9D
:1026C40060030225BA75080175090078081218D24A
:1026D400740212169BAC82AD837AC67B0812104535
:1026E4007402121665740C1216657F0C021791C0E1
:1026F40082C0839061AE7468F0A3746AF0906245FE
:1027040074FBF0A304F053F4FD43FE029008147428
:1027140001F09061A0E0643A90619A70237433F000
:10272400A37455F09061A0743AF0740164017009C7
:10273400C29190049D7467802890049D74618021E7
:10274400743FF0A3745AF09061A0747FF074016434
:10275400017009D29190049D7471800590049D7458
:102764006A8000F00227A6C082C0839007F2E0646A
:102774000170159007F8E064016009E0700AA3E0B5
:1027840064017004790C8012900809E064017008F7
:1027940090080FE0640160EC79000227A6E0F912CA
:1027A4002295D083D082020132C082C0839007FC7C
:1027B4007425F09007FA7401F0A3E4F07A01FB1297
:1027C4000C859007E8E02416F8A3E03400F9888229
:1027D4008983743FF0A3740AF09007F9E0640170F0
:1027E400169007F8E070107901120CE5120CB5127E
:1027F4000CDF7900120CF180A9C082C08374FA1234
:10280400164F9007F1E064017008120A279007F14F
:10281400E4F075E1F19007E8E02415F8A3E0340052
:10282400F9888289837401F09007F3E0640170767B
:10283400908136C082851882851983AC82AD8375F8
:102844008381D082740612156275D90D9007EAE06F
:10285400C4333354C04403F5D978E87907888289AE
:1028640083A3A3A3E0F5D988828983A3A882A9833B
:10287400E864EE7003E9640770E3851882851983C0
:10288400A882A98388828983E0F5D9A3A882A98331
:10289400740612169BE582687003E5836970E5751A
:1028A400E195790180027900120C8B901053748F9A
:1028B400F0A3740BF0A37495F0A3740BF0A3748FBE
:1028C400F0A3740BF0A3748FF0A3740BF0A3745FE4
:1028D400F0A3740BF0A3745FF0A3740BF0A3749BC8
:1028E400F0A3740BF0901061745FF0A3740BF0A369
:1028F400745FF0A3740BF0A3745FF0A3740BF0A3E4
:10290400745FF0A3740BF0A3745FF0A3740BF0A3D3
:10291400745FF0A3740BF09007EAE0F97AEB7B079D
:10292400120C679007FCE0F91222957901120C91C0
:1029340090819C121525120CA99081B412152512B0
:102944000C737900120CFD9007E8E02414F8A3E05E
:102954003400F9888289837416F09004997405F020
:102964000402255674F71216BF8908A808E875F002
:1029740006A4C8AAF02AF974C928FE740439FF9081
:102984000801E0F97A027B08120C6790080FE070E6
:102994001A7900120CC79007DBE0700B79007ADC1F
:1029A4007B07120C6D8009790180F37901120CC741
:1029B40075E1F175D923900801E0C4333354C04460
:1029C40005F5D978FF790788828983A3A3A3E0F565
:1029D400D988828983A3A882A983E864057003E95E
:1029E400640870E375D90075D90075D90075D900EC
:1029F40075D90075D900EEF8EFF9E82404FAE93442
:102A040000FBE82422F582E93400F583E0F5D98857
:102A1400828983A3A882A983EA687002EB6970E2C1
:102A2400EEF8EFF9E824031AE93400FBE82426F56C
:102A340082E93400F583E0F5D988828983A3A882EA
:102A4400A983EA687002EB6970E2EE242BF582EF49
:102A54003400F583E0F5D9EEF8EFF9E824021AE939
:102A64003400FBE8242CF582E93400F583E0F5D941
:102A740088828983A3A882A983EA687002EB6970BB
:102A8400E2EEF8EFF9E8242EF582E93400F583E06C
:102A9400F5D988828983A3A882A983EA687002EBA6
:102AA4006970E2EEF8EFF9E82430F582E93400F5D4
:102AB40083E0F5D988828983A3A882A983EA687010
:102AC40002EB6970E2EEF8EFF9E82432F582E934BA
:102AD40000F583E0F5D988828983A3A882A983EAD3
:102AE400687002EB6970E2EEF8EFF9E824050A0A6F
:102AF4000AE93400FBE8245DF582E93400F583E05B
:102B0400F5D988828983A3A882A983EA687002EB35
:102B14006970E2EE2437F582EF3400F583E0541F48
:102B2400F8EE242AF582EF3400F583E0C43354E050
:102B340048F5D975E1959010537465F0A3740BF0C2
:102B4400A3746BF0A3740BF0A3745FF0A3740BF085
:102B5400A3745FF0A3740BF0A3745FF0A3740BF081
:102B6400A3745FF0A3740BF0A37471F0A3740BF05F
:102B7400901061745FF0A3740BF0A3745FF0A374FE
:102B84000BF0A3745FF0A3740BF0A3745FF0A37451
:102B94000BF0A3745FF0A3740BF0A3745FF0A37441
:102BA4000BF090080EE0F912229590819C121525E5
:102BB400120CA99081B4121525120C7390600DE4C7
:102BC400F07901120CFD9004997406F00231C3747B
:102BD400EC1216BF9007FFE0F8A3E0F5838882A308
:102BE400A37810121507900810E0FAF875F006A4FF
:102BF400C8ACF02CF974F728F582740439F583E035
:102C0400FEA3E0FFEEC333FEEF33FF8E0CF50D752C
:102C14000E00750F0085100885110985120A8513A9
:102C24000B908184780812146D78081218CE8510E0
:102C34000885110985120A85130B7808790C12147A
:102C44005A7810790C1213B3E4F50EF50F7808795D
:102C54000C1214938A0C750D007403780C12163C34
:102C64007808790C12145A90818C78081214CEAA20
:102C740008AB09AC0AAD0B12222D74041216658A36
:102C8400088B09A808A909C3EE98EF995006E82E05
:102C9400F8E93FF9E890600EF0E9A3F0EEA3F0EF55
:102CA400A3F090600D74C1F00226EEC082C0839040
:102CB40007E8E0F8A3E0F5838882A3A3A3A3A3A372
:102CC400E4F0A3F09007FC0227A1C082C083900720
:102CD400FFE0F8A3E0F5838882A3A3A3A3A3A3E45E
:102CE400F0A3F090080E0227A102013274F6121626
:102CF400BF9061D0E0F87480C398FCEA2483F58225
:102D0400EB3400F583E06004780480027800E82462
:102D14000EF8ECC3985003022E717E0C900818E450
:102D2400F0EA2477F582EB3400F583E0900819F09B
:102D3400EA2478FCEB3400FD781A79087F028C824F
:102D44008D83E088828983F08C828D83A3AC82ADED
:102D54008388828983A3A882A9831FEF70E0EA2471
:102D64007AFCEB3400FD7F028C828D83E0888289BB
:102D740083F08C828D83A3AC82AD8388828983A304
:102D8400A882A9831FEF70E0EA247CFCEB3400FDE9
:102D94007F028C828D83E088828983F08C828D838C
:102DA400A3AC82AD8388828983A3A882A9831FEF01
:102DB40070E0EA247EFCEB3400FD7F028C828D837C
:102DC400E088828983F08C828D83A3AC82AD838872
:102DD400828983A3A882A9831FEF70E0EA2475FC8B
:102DE400EB3400FD8A828B83A3A3A3A3A3E0F5089D
:102DF400A3E0F5098C828D83E02508F0A3E0350972
:102E0400F07F028C828D83E088828983F08C828DAE
:102E140083A3AC82AD8388828983A3A882A9831FFC
:102E2400EF70E0EA2483F582EB3400F583E0601967
:102E340075081875090878081218D27C0C790312E1
:102E44000B5374021216657E1074012EF5D975D9D0
:102E540003758218758308EEFFE0F5D9A31FEF70A0
:102E6400F875E1957904120CAF79018002790002BA
:102E740033A574F61216BF9061D0E0F87480C3983D
:102E8400FCEA2483F582EB3400F583E060047804E3
:102E940080027800E8240AF8ECC3985003022F66F5
:102EA4007508089008187401F07CE27D0778197998
:102EB400087E058C828D83E088828983F08C828DE4
:102EC40083A3AC82AD8388828983A3A882A9831E4D
:102ED400EE70E0EA2481FCEB3400FD8A828B83A34C
:102EE400A3A3A3A3E0FEA3E0FF8C828D83E02EF0D6
:102EF400A3E03FF07E028C828D83E088828983F098
:102F04008C828D83A3AC82AD8388828983A3A882BB
:102F1400A9831EEE70E0EA2483F582EB3400F58386
:102F2400E0601A75081875090878081218D27C0828
:102F34007903120B53740212166575080C7401257B
:102F440008F5D975D903758218758308AE08E0F5BC
:102F5400D9A31EEE70F875E1957904120CAF7901CE
:102F6400800279000233A574F71216BFEAFEEBFF64
:102F74009061D0E0600302306275D91875D9037589
:102F8400D903EEF8EFF9E82408FAE93400FBE82461
:102F94009CF582E93400F583E0F5D988828983A31E
:102FA400A882A983EA687002EB6970E2EEF8EFF98F
:102FB400E82402FAE93400FBE824A4F582E93400A9
:102FC400F583E0F5D988828983A3A882A983EA6876
:102FD4007002EB6970E2EE2494F582EF3400F5831D
:102FE400E5822408F8E5833400F9E0F5D9A3E8651F
:102FF400827003E9658370F2EE2488F582EF340071
:10300400F583E5822404F8E5833400F9E0F5D9A3D7
:10301400E865827003E9658370F275E1957908EEDD
:103024002494FAEF3400FB120B057904EE2488FA99
:10303400EF3400FB120B057904120CAFEE2470F58B
:1030440082EF3400F583E0F8A3E0F9EE2472F58210
:10305400EF3400F583E8F0A3E9F079018002790008
:103064000231C374F61216BFEAFEEBFF900818741F
:1030740006F075081875090878081218D27C0179C9
:1030840003120B53740212166575D90675D90375AC
:103094008218758308E0F5D9A3E582641D7004E500
:1030A40083640870F075E195900499E06408701EDB
:1030B400EE2470F582EF3400F583E0F8A3E0F9EE36
:1030C4002472F582EF3400F583E8F0A3E9F0790186
:1030D4000233A574F61216BFEAFEEBFF9061D0E04E
:1030E400705E900818740AF0750818750908780855
:1030F4001218D27C017903120B53740212166575EF
:10310400D90675D903758218758308E0F5D9A3E546
:1031140082641D7004E583640870F075E195EE2403
:1031240070F582EF3400F583E0F8A3E0F9EE247241
:10313400F582EF3400F583E8F0A3E9F07901800229
:1031440079000233A574F61216BFEAFEEBFF906114
:10315400D0E070667801900818740BF0900499E040
:103164006407701975081875090878081218D27C54
:10317400017903120B537402121665780574012841
:10318400F5D975D903758218758308E8FAE0F5D97D
:10319400A31AEA70F875E195EE2470F582EF340015
:1031A400F583E0F8A3E0F9EE2472F582EF3400F53C
:1031B40083E8F0A3E9F07901800279000233A57F66
:1031C4000102179174F61216BFEAFEEBFF9061D06C
:1031D400E0F87480C398FAEE2483F582EF3400F5A6
:1031E40083E06004780480027800E8240BF8EAC3E2
:1031F40098500302329E7D099008187408F0EE245A
:10320400E5F8EF3400F97A197B087C088882898311
:10321400E08A828B83F088828983A3A882A9838A27
:10322400828B83A3AA82AB831CEC70E0EE2483F52B
:1032340082EF3400F583E0601D750818750908787D
:10324400081218D27C097903EEFAEFFB120B5374BF
:10325400021216657D0D74012DF5D975D903758299
:10326400187583088D08E0F5D9A31508E50870F6EC
:1032740075E1957904120CAFEE2470F582EF3400F9
:10328400F583E0F8A3E0F9EE2472F582EF3400F55B
:1032940083E8F0A3E9F07901800279000233A57490
:1032A400F61216BFEAFEEBFF9061D0E0F87480C31B
:1032B40098FAEE2483F582EF3400F583E060047815
:1032C4000480027800E82408F8EAC3985003023323
:1032D400A37D06900818740CF09004B6E0900819C9
:1032E400F07AB77B04781A79087C028A828B83E0AF
:1032F40088828983F08A828B83A3AA82AB838882A3
:103304008983A3A882A9831CEC70E07AB97B047C2E
:10331400028A828B83E088828983F08A828B83A3EA
:10332400AA82AB8388828983A3A882A9831CEC70B8
:10333400E0EE2483F582EF3400F583E0601D750828
:103344001875090878081218D27C067903EEFAEF8A
:10335400FB120B5374021216657D0A74012DF5D904
:1033640075D9037582187583088D08E0F5D9A315FE
:1033740008E50870F675E1957904120CAFEE247037
:10338400F582EF3400F583E0F8A3E0F9EE2472F55A
:1033940082EF3400F583E8F0A3E9F0790180027943
:1033A400007F0202179174F61216BFEAFEEBFF903B
:1033B40061D0E0F87480C398FAEE2483F582EF3488
:1033C40000F583E06004780480027800E82404F8BF
:1033D400EAC39850030234847802900818E8F0EEA7
:1033E40024F7F582EF3400F583E0900819F0EE2419
:1033F40083F582EF3400F583E0601B7508187509C6
:103404000878081218D27C027903EEFA120B53746E
:10341400021216657806740128F5D975D9037582E8
:10342400187583088808E0F5D9A31508E50870F62F
:1034340075E195EE2474F582EF3400F583E4F0EE43
:103444002480F582EF3400F583E4F0EE241DF58248
:10345400EF3400F583E4F0A3F07904120CAFEE240A
:103464000DF582EF3400F583E0F8A3E0F9EE247261
:10347400F582EF3400F583E8F0A3E9F079018002E6
:1034840079000233A574F61216BF9061D0E0F87487
:1034940080C398FCEA2483F582EB3400F583E06072
:1034A40004780480027800E82404F8ECC398405BB4
:1034B40079029008187407F0EA24F8F582EB3400D6
:1034C400F583E0900819F0EA2483F582EB3400F5E3
:1034D40083E0601875081875090878081218D27CFA
:1034E4000209120B5374021216657906740129F548
:1034F400D975D903758218758308E9F8E0F5D9A35D
:1035040018E870F875E1957901800279000233A515
:1035140074F51216BFE9FCA2AFE433F50AC2AF7D1D
:103524000080010DEA246FF582EB3400F583E0F8A6
:10353400EDC398501A8D08EA2508F8EB3400F9E831
:10354400246BF582E93400F583E06C70D68024EABC
:10355400246FF8EB3400F9E0FEEA2EFAEB3400FBBA
:10356400EA246BF582EB3400F583ECF088828983DE
:10357400E004F0E50AA2E092AF7F0302179174F62B
:103584001216BFA2AFE433FDC2AFEA246FF582EB9B
:103594003400F583E014F07C0060368C08EA2508DA
:1035A400F8EB3400F9E8246CF582E93400F583E0A3
:1035B400C0E0E8246BF582E93400F583D0E0F00C38
:1035C400EA246FF582EB3400F583E0F8ECC398400D
:1035D400CAEA246EF582EB3400F58374FFF0EA2422
:1035E4006AF582EB3400F583E4F0EDA2E092AF02D9
:1035F40033A5C082C083E5A8F8C2AFEA246BF58284
:10360400EB3400F583E9F0EA246AF582EB3400F543
:1036140083E4F0E8A2E792AF0227A674F31216BF80
:10362400EAFEEBFFECFAEDFB8A828B83A3A3A3A350
:10363400E0541FF0EE2436F582EF3400F583E4F015
:10364400F50AEEFCEFFD8A828B83E0C0E0EC245D9A
:10365400F582ED3400F583D0E0F0750B00E50A3314
:10366400333354F8F50C8A828B83E0F5087509002E
:10367400E50B780812161DE508A2E0502FEE24365B
:10368400F8EF3400F988828983E0F508EE2508F51F
:1036940008EF3400F509E5082438F582E50934001B
:1036A400F583E50CF088828983E004F0050B050CB2
:1036B400E50BC3940840AF050A8A828B83A3AA82D0
:1036C400AB838C828D83A3AC82AD83E50AC394055E
:1036D400500302364A7F0502179174F71216BF9001
:1036E40004C5E0640370077A007B000231C37B00E9
:1036F40078C5790488828983A3A3A3A3A3A3E060E4
:10370400030239D8EBF875F006A4C8AAF02AF974B4
:10371400C928F8740439F988828983A3A37401F051
:1037240088828983A3A3A3E4F0EB88828983A3A37B
:10373400A3A3F0E82462F582E93400F5837401F070
:10374400E82465F582E93400F583E4F0A3F0E82485
:1037540068F582E93400F5837401F088828983A3D3
:10376400A3A3A3A3E4F0A3F088828983A3A3A3A3C0
:10377400A3A3A3F0A3F0E8240FF582E93400F583B2
:103784007401F0E82435F582E93400F583E4F0901F
:1037940081A8121525E82418F582E93400F583126E
:1037A4001531E8241CF582E93400F583E4F0E824BB
:1037B4001DF582E93400F583E4F0A3F0E82480F5F4
:1037C40082E93400F583E4F0E82474F582E93400F6
:1037D400F583E4F0E82469F582E93400F583748024
:1037E400F0E8246AF582E93400F583E4F0E8246F14
:1037F400F582E93400F583E4F0E82467F582E934DE
:1038040000F583E4F0E824EDF582E93400F583E47F
:10381400F0E824EEF582E93400F583E4F0E824EFDF
:10382400F582E93400F583E4F0E824F0F582E93424
:1038340000F583E4F0E824F1F582E93400F583E44B
:10384400F0A3F0E824F3F582E93400F583E4F0A36F
:10385400F0E824F6F582E93400F583E4F0E8248303
:10386400F582E93400F583E4F0E824D3F582E93401
:1038740000F583E4F0E824D4F582E93400F583E428
:10388400F09081A8121525E824D5F582E93400F5D5
:10389400831215319081A8121525E824D9F582E9FF
:1038A4003400F583121531E824DFF582E93400F59C
:1038B40083E4F0E824E1F582E93400F583E4F0E8F8
:1038C40024DDF582E93400F583E4F0E824E2F582AE
:1038D400E93400F583E4F0E824E3F582E93400F503
:1038E40083E4F0E824F9F582E93400F583E4F0A3F5
:1038F400F0E824FBF582E93400F583E4F0A3F0E872
:1039040024FDF582E93400F583E4F0A3F0E824FF14
:10391400F582E93400F583E4F0A3F0E8FAE9FBEA80
:103924002404FCEB3400FDEA246BF582EB3400F54F
:103934008374FFF08A828B83A3AA82AB83EC6A70C0
:1039440002ED6B70E2E8FAE9FB7CE27D078C828D84
:1039540083E0C0E0EA245DF582EB3400F583D0E037
:10396400F08C828D83A3AC82AD838A828B83A3AADD
:1039740082AB83EC64E77003ED640770D0E8FAE986
:10398400FB7CAC7D048C828D83A3E0C0E0EA24E55B
:10399400F582EB3400F583D0E0F08C828D83A3AC08
:1039A40082AD838A828B83A3AA82AB83EC64B470D6
:1039B40003ED640470CF9004C5E004F06401700D5D
:1039C40088828983A3A3A3A3E09004C7F0E8FAE95B
:1039D400FB0236EF0BE82406F8E93401F9EBC39453
:1039E4000340030236EB0236F8C082C0838A828B1E
:1039F40083A3A3A3E0600F8A828B83A3A3A3E4F031
:103A04009004C6E014F09004C5E014F0700690042D
:103A1400C774FFF08A828B83A3A3E4F09007E7E0E6
:103A2400700D9004C6E0640170057900120C7902EF
:103A340027A6C082C08378C5790488828983A3A31A
:103A4400A3A3A3A3A3E4F088828983A3A3A3A3A32A
:103A5400A3F0E82406F8E93401F9E864D77003E92F
:103A6400640770D69004C5E4F0A3F0A374FFF07566
:103A7400E1F10227A674F31216BF75080075090058
:103A8400750C00750AC9750B04AE0AAF0B8E828FD4
:103A940083A3A3A3E0603FE5084509700AEEF8EFAD
:103AA400F988088909802F850882850983E0F8A3AD
:103AB400E0F5838882A3A31218E58E828F83E0F851
:103AC400A3E0F5838882A3A31215251221D07404E0
:103AD400121665E960C7050CEE2406F50AEF3401F9
:103AE400F50BE50CC3940340A0850882850983A3E4
:103AF400A3A3A3E0F90236D974F61216BF78FF79AE
:103B0400FF7508007EC97F04EEFCEFFD8C828D8377
:103B1400A3A3A3E0606474FF68700374FF69702555
:103B2400EC2474F582ED3400F583E064017011EC4B
:103B3400247AF582ED3400F583E0F8A3E0F9803AC5
:103B4400EC242E80EDEC2474F582ED3400F583E052
:103B540064017014EC247AF582ED3400F583C3E03B
:103B640098A3E099501480C7EC242EF582ED34001C
:103B7400F583C3E098A3E09940C60508EE2406FE49
:103B8400EF3401FFE508C394035003023B0CC3EA7E
:103B940098EB994004E8FAE9FB0233A574F612168F
:103BA400BFEAFEEBFF8E828F83A3A3A3E0600F8E98
:103BB400828F83A3A3A3E4F09004C6E014F09004DE
:103BC400C5E014F070069004C774FFF08E828F83F2
:103BD400A3A3E4F09007E7E0700D9004C6E064014D
:103BE40070057900120C79EE2465F582EF3400F546
:103BF40083E0F8A3E0F9E8496029EE2465F8EF349E
:103C040000F9880889098882F583E0FCA3E0FD9027
:103C140004C7E0FA7B00120823850882850983E43F
:103C2400F0A3F0EEFAEFFB120BD10233A574F712F6
:103C340016BFEAFEEBFF8E828F83A3A3A3A3E0FA51
:103C44007B0012086BEEFAEFFB120AC3120BB302ED
:103C540031C3C082C0837C007AC97B04EAF8EBF9E3
:103C640088828983A3A3A3E0601EE8246FF582E918
:103C74003400F583E06011E8246BF582E93400F543
:103C840083E07004790180110CEA2406FAEB340114
:103C9400FBECC3940340C579000227A6C082C0830D
:103CA40078AC790488828983A3E4F088828983A329
:103CB400A882A983E864B47003E9640470E69004FC
:103CC400AD7401022767C082C08374FC12164F9042
:103CD40081A8121525851882851983121531120BB6
:103CE4000BE9851882851983F0120B0B74011216E7
:103CF4009BE9F0120B0B740212169BE9F0851882F3
:103D0400851983121525740402255674F61216BFFC
:103D1400EAFEEBFFEC2403F8ED3400F98808890986
:103D2400EC2407F8ED3400F9E8FCE9FD8C828D837E
:103D3400E0F8A3E0F9850882850983E0FAA3E0FBB3
:103D44001215C4EE240DF582EF3400F583E8F0A3D8
:103D5400E9F08C828D83E0F8A3E0F9850882850977
:103D640083E0FAA3E0FB1215C48B09EA450960134A
:103D7400EE240DF582EF3400F583E02401F0A3E096
:103D84003400F00233A574F61216BFEAFEEBFFEE20
:103D9400242EF582EF3400F583E0FCA3E0FD7800E7
:103DA40079FAECFAEDFB1215C4EE2470F582EF34C7
:103DB40000F583E8F0A3E9F0780079FAECFAEDFB7A
:103DC4001215C48B09EA45096013EE2470F582EFDD
:103DD4003400F583E02401F0A3E03400F00233A5BD
:103DE40074F01216BFEAFEEBFF741012169B7808EB
:103DF400121507120C438A0C8B0D8C0E8D0F9081BB
:103E040070780C12146D90818C780C1214CE780C8E
:103E14001218CE8E828F83E0F8A3E0F5838882A304
:103E2400A31215251221D07404121665E960030249
:103E34003F318E828F83E02402F8A3E03400F9E856
:103E4400FAE9FB8A828B83780812148090818C783B
:103E5400081215078A828B8378081214E1EE240B6A
:103E6400F582EF3400F583C082C0838E828F83A3F2
:103E7400A3A3A3A3E02401F8A3E03400F9D083D0E2
:103E840082E0687003A3E06970057901023F338E14
:103E9400828F83A3A3A3A3A3A3A3E02401F0A3E09D
:103EA4003400F0EE2474F582EF3400F583E064010D
:103EB4007036EE2475F582EF3400F583E0F8A3E064
:103EC400F98E828F83A3A3A3A3A3A3A3E0687003A3
:103ED400A3E0697013EE2475F582EF3400F583E0F6
:103EE4002401F0A3E03400F0EE2480F582EF3400E6
:103EF400F583E064017036EE2481F582EF3400F539
:103F040083E0F8A3E0F98E828F83A3A3A3A3A3A3E2
:103F1400A3E0687003A3E0697013EE2481F582EFD7
:103F24003400F583E02401F0A3E03400F079007F4D
:103F34000802179174F71216BF9004C7E0F875F0E1
:103F440006A4C8AAF02AF974C928FE740439FF80AB
:103F540028EE2465F8EF3400F988828983E0FCA315
:103F6400E0FD88828983E4F0A3F08E828F83A3A38B
:103F7400A3A3E0FA7B00120823EE2465F582EF3454
:103F840000F583E0F8A3E0F9E849604FEE2464F516
:103F940082EF3400F583E0F50878081218D6EE2491
:103FA40063F582EF3400F583E0F9EE2465F582EFE2
:103FB4003400F583E0FCA3E0FDEEFAEFFB120AF90E
:103FC4007401121665E96089EE2465F582EF340008
:103FD400F583E0F8A3E0F9E84970137C007D008ED6
:103FE400828F83A3A3A3A3E0FA7B001208230231E8
:103FF400C374F21216BFEAFEEBFF890A740E12169E
:104004009BE0FAEE2462F582EF3400F583E064016C
:1040140060030240C19061D0E0F87480C398F50C4D
:10402400EE2483F582EF3400F583E06004780480A5
:104034000278008908E928F8E43400F9E824020841
:1040440008E93400F9E50C98E499A2D265D033402C
:1040540068EA7005750B028003750B01E060397521
:10406400090078081218D27A187B08120B357402EA
:1040740012166575081875090878081218D2AC0A62
:10408400A90BEEFAEFFB120B5374021216657404BB
:10409400250AF50A7C187D087401250AF5D9850BD3
:1040A400D9E50A600D8C828D83F8E0F5D9A318E870
:1040B40070F875E195790080067907800279FF7FB1
:1040C40006021791C082C083E960208C828D83E050
:1040D4008A828B83F08C828D83A3AC82AD838A82A7
:1040E4008B83A3AA82AB8319E970E0ECFAEDFB029F
:1040F40027A6C082C0837869790888828983A3A3AC
:10410400A3A3A3A3E4F088828983A3A3A3A3A37492
:10411400FFF0E82418F8E93400F9E864C97003E909
:10412400640870D690086B74FFF090086AE4F0900D
:104134000869F090086CF0A3F002581E74EC121693
:10414400BF90086CE0F508A3E0F509E5084509709F
:1041540006120A0F024DED850882850983E014607A
:104164001814601524FE601124C470030248AF249F
:10417400C070030248AF024DEDE0F9120BC58A0A84
:104184008B0BAE0AAF0B9004C6E0700302452D12F0
:104194000AB7E9F875F006A4C8AAF02AF974C92880
:1041A400F50C740439F50D850C82F583E0F50AA34A
:1041B400E0F50BAC0AFDEEFAEFFB120BBFE9F50ECE
:1041C4007402650E70030244EC8E828F83E024FE39
:1041D400600A24FE70030243E4024DEDEE650870AC
:1041E40003EF65096021120A2D9007F9E06401705C
:1041F400169007F8E070107901120CE5120CB51254
:104204000CDF7900120CEBE50E6021E5082415F5AE
:1042140082E5093400F583E060129007F4E0F8A326
:10422400E0F9A3E0687003A3E0697026120C438AE6
:104234000C8B0D8C0E8D0F908158780C12146D9090
:10424400818C780C1214CE8E828F83A3A3780C12E7
:104254001516E5082415F582E5093400F583E064B4
:1042640001600302430A850A82850B83A3A3780CA9
:1042740012150790815C780C12146D780C1218CE0C
:104284008E828F83A3A3C082C0839007F6E0F508D3
:10429400A3E085080CF50DE4F50EF50FD083D0826C
:1042A400780C12146DAA0CAB0DAC0EAD0F1221D00C
:1042B4007404121665E9703C8E828F83A3A3C082B6
:1042C400C0839007F6E0F508A3E0F509E4F50AF5E4
:1042D4000BD083D082780812146D90818C780812E8
:1042E40014CEEE240EF582EF3400F583780812150F
:1042F400160243DC850A82850B83A3A37808121572
:104304000790815C80CFEE240EF582EF3400F583B4
:104314001218E58E828F83A3A31215251221D0745F
:1043240004121665E9640160030243DC850A828590
:104334000B83A3A3780C12150790815C780C1214DC
:104344006D780C1218CE8E828F83A3A3C082C08393
:104354009007F6E0F508A3E085080CF50DE4F50EEA
:10436400F50FD083D082780C12146DAA0CAB0DAC6F
:104374000EAD0F1221D07404121665E9701F8E82DF
:104384008F83A3A3C082C0839007F6E0F508A3E05F
:10439400F509E4F50AF50BD083D0828010850A82F2
:1043A400850B83A3A3780812150790815C78081203
:1043B400146D90818C78081214CEEE240EF582EFE1
:1043C4003400F58378081215169007FCE064277012
:1043D4000474258002E004F090086B7402024DE539
:1043E400EE65087003EF65096031900810E0F9127A
:1043F4000A33850882850983E06402701E9007F9F8
:10440400E0640170169007F8E070107900120CE572
:10441400120CB5120CDF7901120CEBE50E60129050
:10442400080AE0F8A3E0F9A3E0687003A3E0697068
:1044340026120C438A0C8B0D8C0E8D0F90815878AC
:104444000C12146D90818C780C1214CE8E828F8392
:10445400A3A3780C121516850A82850B83A3A3786F
:104464000C12150790815C780C12146D780C1218DC
:10447400CE8E828F83A3A3C082C08390080CE0F504
:1044840008A3E085080CF50DE4F50EF50FD083D0F4
:1044940082780C12146DAA0CAB0DAC0EAD0F122168
:1044A400D07404121665E9701F8E828F83A3A3C093
:1044B40082C08390080CE0F508A3E0F509E4F50A4E
:1044C400F50BD083D0828010850A82850B83A3A349
:1044D400780812150790815C780812146D90818C0D
:1044E40078081214CE024DCE850882850983E064D3
:1044F4000270139007F9E06401700B9007F8E07004
:10450400057900120CE5E50C2404FEE50D3400FFEA
:104514008E828F83E0F9120BFB8E828F83E09004EE
:10452400C7F0AA0AAB0B024DEAEE65087003EF650B
:10453400098E828F836003024711E024FE600A24FF
:10454400FE700302466C024DE6EE2415F582EF344C
:1045540000F583E060419007F4E0F8A3E0F9A3E0FC
:10456400687003A3E069602F120C438A088B098CDE
:104574000A8D0B9081A4780812146D78081218CE55
:104584008E828F83A3A31215251221D074041216D0
:1045940065E96003024DE6120C438A088B098C0A14
:1045A4008D0B908158780812146D90818C780812C4
:1045B40014CE8E828F83A3A37808121516EE2415C9
:1045C400F582EF3400F583E0640170348E828F83CA
:1045D400A3A3C082C0839007F6E0F508A3E0F50921
:1045E400E4F50AF50BD083D082780812146DEE241A
:1045F4000EF582EF3400F5837808121516024DE6A5
:10460400EE240EF582EF3400F5831218E58E828FC6
:1046140083A3A31215251221D07404121665E9642C
:10462400016003024DE68E828F83A3A3C082C08300
:104634009007F6E0F508A3E0F509E4F50AF50BD0D8
:1046440083D082780812146DEE240EF582EF3400C4
:10465400F58378081215169007FCE064277005743A
:1046640025024DE5E00480F990080AE0F8A3E0F99A
:10467400A3E0687003A3E069602C120C438A088BE2
:10468400098C0A8D0B9081A4780812146D78081295
:1046940018CE8E828F83A3A31215251221D0740401
:1046A400121665E97064EE2402F508EF3400F5098A
:1046B400120C438A0C8B0D8C0E8D0F908158780C44
:1046C40012146D90818C780C1214CE8508828509A1
:1046D40083780C121516850882850983C082C083ED
:1046E40090080CE0F508A3E0F509E4F50AF50BD011
:1046F40083D082780812146DEE240EF582EF340014
:10470400F5837808121516120A39024DE6E024FEE4
:10471400600A24FE70030247D7024DED120A2D9061
:1047240007F9E0640170169007F8E070107901123F
:104734000CE5120CB5120CDF7900120CEB9007F4A7
:10474400E0F8A3E0F9A3E0687003A3E069602F1226
:104754000C438A088B098C0A8D0B9081A47808126B
:10476400146D78081218CE8E828F83A3A312152598
:104774001221D07404121665E960030243DCEE24AE
:1047840002F508EF3400F509120C438A0C8B0D8CEA
:104794000E8D0F908158780C12146D90818C780CCA
:1047A4001214CE850882850983780C1215168508A3
:1047B40082850983C082C0839007F6E0F508A3E0F0
:1047C400F509E4F50AF50BD083D082780812146D4C
:1047D4000242E6900810E0F9120A3385088285093E
:1047E40083E06402701E9007F9E06401701690077C
:1047F400F8E070107900120CE5120CB5120CDF7998
:1048040001120CEB90080AE0F8A3E0F9A3E0687049
:1048140003A3E069602C120C438A088B098C0A8D6F
:104824000B9081A4780812146D78081218CE8E8229
:104834008F83A3A31215251221D07404121665E9DF
:104844007066EE2402F8EF3400F988088909120C26
:10485400438A0C8B0D8C0E8D0F908158780C12149A
:104864006D90818C780C1214CE850882850983782A
:104874000C121516850882850983C082C0839008AE
:104884000CE0F508A3E0F509E4F50AF50BD083D0B4
:1048940082780812146DEE240EF582EF3400F5834D
:1048A4007808121516120A39024DE09004C6E07019
:1048B40003024C45120AB7E9F875F006A4C8AAF039
:1048C4002AF974C928F510740439F511851082F594
:1048D40083E0F508A3E0F5099004C7E0F875F00655
:1048E400A4C8AAF02AF974C928F50C740439F50D82
:1048F40090086AE054077003024B6EA3E0F9120BB0
:10490400C58A0A8B0BAE0AAF0BAC08AD09120BBFFC
:10491400E9F50E7402650E7003024B6E850C8285F8
:104924000D83A3A3A3A3E0F875F08AA4C8AAF02A70
:10493400F974CE28F50A740839F50BAA0AFB120B90
:10494400EFAA0AAB0B120BE97512807513007812EB
:104954001218D27C007D60E50A2406FAE50B3401C6
:10496400FB120B357402121665A80AA90B90619507
:10497400E0C0E0E82486F582E93401F583D0E0F074
:10498400906196E0C0E0E82487F582E93401F5837C
:10499400D0E0F0906197E0C0E0E82488F582E93443
:1049A40001F583D0E0F0906198E0C0E0E82489F557
:1049B40082E93401F583D0E0F08E828F83E024FE17
:1049C400600A24FE7003024AA9024B6E120A2D905B
:1049D40007F9E0640170119007F8E0700B120CB550
:1049E400120CDF7900120CEBE50E60129007F4E074
:1049F400F8A3E0F9A3E0687003A3E0697026120C41
:104A0400438A0C8B0D8C0E8D0F908158780C1214E8
:104A14006D90818C780C1214CE8E828F83A3A37830
:104A24000C121516850882850983A3A3780C121528
:104A34000790815C780C12146D780C1218CE8E825B
:104A44008F83A3A3C082C0839007F6E0F50CA3E094
:104A5400F50DE4F50EF50FD083D082780C12146DA9
:104A6400AA0CAB0DAC0EAD0F1221D0740412166556
:104A7400E9701F8E828F83A3A3C082C0839007F640
:104A8400E0F508A3E0F509E4F50AF50BD083D0823C
:104A94008010850882850983A3A3780812150790DE
:104AA400815C0242D9900810E0F9120A33E50E60E5
:104AB4001290080AE0F8A3E0F9A3E0687003A3E009
:104AC400697026120C438A0C8B0D8C0E8D0F90810D
:104AD40058780C12146D90818C780C1214CE8E823E
:104AE4008F83A3A3780C121516850882850983A3E6
:104AF400A3780C12150790815C780C12146D780C55
:104B04001218CE8E828F83A3A3C082C08390080C18
:104B1400E0F50CA3E0F50DE4F50EF50FD083D0829B
:104B2400780C12146DAA0CAB0DAC0EAD0F1221D083
:104B34007404121665E9701F8E828F83A3A3C0824A
:104B4400C08390080CE0F508A3E0F509E4F50AF544
:104B54000BD083D0828010850882850983A3A37833
:104B64000812150790815C0244DCE510650C7004A2
:104B7400E511650D7003024C3E850C82850D83A3FF
:104B8400A3A3E07003024C22850C82850D83A3A3AA
:104B9400A3A3E0F875F08AA4C8AAF02AF974CE2871
:104BA400FE740839FFEEFAEFFB120BEFEEFAEFFB9F
:104BB400120BE9750A80750B00780A1218D27C0072
:104BC4007D60EE2406FAEF3401FB120B35740212F9
:104BD4001665906195E0C0E0EE2486F582EF34011D
:104BE400F583D0E0F0906196E0C0E0EE2487F58292
:104BF400EF3401F583D0E0F0906197E0C0E0EE245B
:104C040088F582EF3401F583D0E0F0906198E0C03C
:104C1400E0EE2489F582EF3401F583D0E0F0E5106D
:104C24002404FEE5113400FF8E828F83E0F9120B19
:104C3400FB8E828F83E09004C7F0AA08AB09024D73
:104C4400EA90086AE054077003024DEDA3E0F912FC
:104C54000BC58A088B09AE08AF098E828F83E024C6
:104C6400FE600A24FE7003024D34024DED120A2D3B
:104C74009007F9E0640170169007F8E0701079016C
:104C8400120CE5120CB5120CDF7900120CEB900734
:104C9400F4E0F8A3E0F9A3E0687003A3E069602CF2
:104CA400120C438A088B098C0A8D0B9081A4780816
:104CB40012146D78081218CE8E828F83A3A3121556
:104CC400251221D07404121665E97061EE2402F5F0
:104CD40008EF3400F509120C438A0C8B0D8C0E8DF1
:104CE4000F908158780C12146D90818C780C1214EA
:104CF400CE850882850983780C121516850882856D
:104D04000983C082C0839007F6E0F508A3E0F509A3
:104D1400E4F50AF50BD083D082780812146DEE24E2
:104D24000EF582EF3400F58378081215160243DC81
:104D3400900810E0F9120A3390080AE0F8A3E0F9A9
:104D4400A3E0687003A3E069602C120C438A088B0B
:104D5400098C0A8D0B9081A4780812146D780812BE
:104D640018CE8E828F83A3A31215251221D074042A
:104D7400121665E97063EE2402F8EF3400F988082E
:104D84008909120C438A0C8B0D8C0E8D0F9081585F
:104D9400780C12146D90818C780C1214CE850882D4
:104DA400850983780C121516850882850983C082CB
:104DB400C08390080CE0F508A3E0F509E4F50AF5D2
:104DC4000BD083D082780812146DEE240EF582EF96
:104DD4003400F5837808121516120A3990086B749A
:104DE40004F0EEFAEFFB120BB97F0C02179174F08A
:104DF4001216BFEAFEEBFFEE2402F8EF3400F98846
:104E0400088909EE2406F8EF3400F9880A890B882A
:104E140082F5831218E98508828509831215251203
:104E24000C1F7402121665850A82850B831218E919
:104E3400850882850983121525120C137402121633
:104E440065EE240EF582EF3400F583121525120C5D
:104E5400258E828F83E06440701CEE2412F8EF34B8
:104E640000F988828983E0906064F088828983A352
:104E7400E09060658006906064E4F0A3F090086CB4
:104E8400EEF0A3EFF0EE2416F582EF3400F583E0A4
:104E9400F8A3E0F58388821216BD906054E4F0A371
:104EA400F0A3F0A3F0A3F0A3F0A3F0A3F0A3F0A366
:104EB400F0A3F0A3F0906182E0C2E6F07591BFEE3A
:104EC4002415F582EF3400F583E064017003120CBD
:104ED4005BE5E170FCEE2414F582EF3400F583E029
:104EE400F46003E0F5E1EE2415F582EF3400F58378
:104EF4007401F090049FE06401706F120C438A08FF
:104F04008B098C0A8D0B78081218CE8E828F83A39E
:104F1400A312152512222D74041216658A088B0912
:104F24008C0A8D0B908160780C1215077808790C27
:104F340012133374037808121422E50824F4F508D4
:104F4400E5093401F509900816E06003121195E4AF
:104F5400F50AF50B78081218CE7A207B0090049895
:104F6400E0F912124374041216657F080217917453
:104F7400EC1216BFEAFEEBFF8C088D09EE4F7005AC
:104F84007902025068120C438A0C8B0D8C0E8D0F23
:104F94009081AC780C12146D90818C780C1214CE24
:104FA4008E828F83E06402701F9007F4E0F8A3E020
:104FB400F9A3E0687003A3E06970248E828F83A351
:104FC400A3780C1215168017E06404701290080A76
:104FD400E0F8A3E0F9A3E0687003A3E06960DC787B
:104FE4000C1218CE850882850983A3A312152512F5
:104FF400222D74041216658A108B118C128D139055
:10500400816478101213144003024F84850882854A
:105014000983A3A378081215079081D8780812147D
:105024006D78081218CE8E828F83A3A312152512D1
:1050340021D07404121665E96003024F84908168DC
:10504400780C12146D780C1218CE8E828F83A3A361
:105054001215251221D07404121665E97004790022
:1050640080027901024DED74F01216BF890874FFB5
:10507400650860030251F790086AE0540770030260
:1050840056C37A007869790888828983A3A3A3A385
:10509400A3E064047050EA75F018A4F8A9F0746FE2
:1050A40028F582740839F583E0640170487A007841
:1050B40069790888828983A3A3A3A3A3E064046015
:1050C4000302514F88828983A3A3A3A3A3A3E0640B
:1050D400017078EA75F018A4F8A9F0746E28FA74CF
:1050E4000839FB0256C70AE82418F8E93400F9EA3B
:1050F400C3940440937A007869790888828983A3E9
:10510400A3A3A3A3E064017057EA75F018A4F8A957
:10511400F0746F28F582740839F583E06401704FE8
:105124007A007869790888828983A3A3A3A3A3E07A
:10513400640160030251D388828983A3A3A3A3A338
:10514400A3E0640160030251D380880AE82418F8BC
:10515400E93400F9EAC3940450030250B70256C379
:105164000AE82418F8E93400F9EAC39404408C7A74
:10517400007869790888828983A3A3A3A3A3E06440
:10518400027061EA75F018A4F8A9F0746F28F5822A
:10519400740839F583E0640170597A0078697908F4
:1051A40088828983A3A3A3A3A3E06402707A88827C
:1051B4008983A3A3A3A3A3A3E06401706BEA75F09E
:1051C40018A4F8A9F0746E28FA740839FB806F0AE1
:1051D400E82418F8E93400F9EAC3940450030251AE
:1051E4002A0256C30AE82418F8E93400F9EAC394F9
:1051F4000440827A007869790888828983A3A3A30A
:10520400A3A3E06508703D88828983A3A3A3A3A315
:10521400A3E06401702EEA75F018A4F8A9F0746E86
:1052240028FE740839FF802F0AE82418F8E93400AE
:10523400F9EAC3940450030251A47A007B00025695
:10524400C70256C30AE82418F8E93400F9EAC394FB
:105254000440A67E007F007A0078697908888289F4
:1052640083A3A3A3A3A3E06508701BEA75F018A4A5
:10527400F8A9F0746F28F582740839F583E06401A5
:1052840070137A0180110AE82418F8E93400F9EA65
:10529400C3940440C87A00E50814600F1470030234
:1052A400546024FE70030255BA80967B00786979B5
:1052B4000888828983A3A3A3A3A3E064027055EBA7
:1052C40075F018A4F8A9F0746F28F582740839F5FC
:1052D40083E06401704D7B00786979088882898352
:1052E400A3A3A3A3A3E06402600302539688828964
:1052F40083A3A3A3A3A3A3E064016003025396EBD7
:1053040075F018A4F8A9F0746E28F50A740839F534
:105314000B0253AE0BE82418F8E93400F9EBC394FC
:1053240004408E7B007869790888828983A3A3A3CB
:10533400A3A3E0640460030253EAEB75F018A4F835
:10534400A9F0746F28F582740839F583E06401606C
:10535400030253FC7B007869790888828983A3A3BC
:10536400A3A3A3E06404600302540788828983A38F
:10537400A3A3A3A3A3E064016003025407EB75F0A5
:1053840018A4F8A9F0746E28F50A740839F50B020C
:10539400541F0BE82418F8E93400F9EBC3940450C3
:1053A400030252E0750A00750B00EAA2E040030212
:1053B4005452850A82850B83A3A3780C1215079097
:1053C400816C780C12146D780C1218CE8E828F8337
:1053D400A3A31215251221D07404121665E9706E68
:1053E400EEFAEF0250E60BE82418F8E93400F9EB82
:1053F400C39404500302532DEAA2E05058EEFAEF8E
:10540400FB80560BE82418F8E93400F9EBC3940444
:10541400500302535E750A00750B00EAA2E0502E99
:10542400850A82850B83A3A3780C12150790816CDF
:10543400780C12146D780C1218CE8E828F83A3A36D
:105444001215251221D07404121665E96092AA0A75
:10545400AB0B0256C77A007B000256C77B00786903
:10546400790888828983A3A3A3A3A3E06404705268
:10547400EB75F018A4F8A9F0746F28F58274083954
:10548400F583E06401704A7B007869790888828931
:1054940083A3A3A3A3A3E06404600302552E88821C
:1054A4008983A3A3A3A3A3A3E06401707DEB75F098
:1054B40018A4F8A9F0746E28F50A740839F50B02DB
:1054C40055460BE82418F8E93400F9EBC39404407A
:1054D400917B007869790888828983A3A3A3A3A315
:1054E400E064016003025582EB75F018A4F8A9F09A
:1054F400746F28F582740839F583E064016003024F
:1055040055947B007869790888828983A3A3A3A32F
:10551400A3E06401600302559F88828983A3A3A347
:10552400A3A3A3E06401707380830BE82418F8E953
:105534003400F9EBC394045003025491750A0075C6
:105544000B00EAA2E04003025452850A82850B83D1
:10555400A3A3780C12150790816C780C12146D7843
:105564000C1218CE8E828F83A3A31215251221D07C
:105574007404121665E960030254520253E40BE802
:105584002418F8E93400F9EBC3940450030254DB03
:10559400EAA2E0501AEEFAEFFB80180BE82418F8A0
:1055A400E93400F9EBC39404500302550C808D7A5E
:1055B400007B000256C77B0078697908888289835A
:1055C400A3A3A3A3A3E064017040EB75F018A4F8AF
:1055D400A9F0746F28F582740839F583E0640170CA
:1055E400387B007869790888828983A3A3A3A3A35D
:1055F400E06401600302567F88828983A3A3A3A386
:10560400A3A3E0640170740254B10BE82418F8E910
:105614003400F9EBC3940440A37B007869790888CB
:10562400828983A3A3A3A3A3E064027063EB75F050
:1056340018A4F8A9F0746F28F582740839F583E08A
:105644006401705B7B007869790888828983A3A3ED
:10565400A3A3A3E06402704F88828983A3A3A3A3B6
:10566400A3A3E064017040EB75F018A4F8A9F074EA
:105674006E28F50A740839F50B80410BE82418F8F4
:10568400E93400F9EBC3940450030255EB0255408E
:105694000BE82418F8E93400F9EBC394044080EAD9
:1056A400A2E0501B0253E40BE82418F8E93400F993
:1056B400EBC394044094750A00750B000255467AB6
:1056C400007B00024F6E74F61216BF89097508003C
:1056D4007869790888828983A3A3A3A3A3A3E0603C
:1056E400030257A6E50875F018A4F8A9F0746E280B
:1056F400FE740839FF8E828F83A37401F08E828F2B
:1057040083E509F0120C438E828F83A3A312153113
:105714008E828F83A3A3A3A3A3A3E4F0A3F0908119
:10572400E8121525EE240EF582EF3400F5831215E8
:1057340031EE2414F582EF3400F5837401F0EE2485
:1057440015F582EF3400F5837401F0EE2416F5822A
:10575400EF3400F583E4F0A3F090086AE04509F023
:10576400900869E004F06401600C748065096006C7
:10577400744065097019E50875F018A4F8A9F07467
:105784006E28F8740839F990086CE8F0A3E9F0E59C
:105794000875F018A4F8A9F0746E28FA740839FB97
:1057A40080180508E82418F8E93400F9E508C394DA
:1057B4000450030256D87A007B0080007F0202174F
:1057C40091C082C0838A828B83E0F8A3E0F98A8245
:1057D4008B83E4F0A3F088828983A3F08882898391
:1057E400E0F4F890086AE058F0900869E014F0706A
:1057F4000B90086CE4F0A3F0900499F0801CC08234
:10580400C083900869E0600A90086CE0FAA3E0FBAA
:1058140080047A007B008002E0F9D083D082020108
:1058240032C082C083E9FB7A00786979088882896A
:1058340083A3A3A3A3A3E06B7016EA75F018A4F8DE
:10584400A9F0746F28F582740839F583E0F98011A2
:105854000AE82418F8E93400F9EAC3940440CE793C
:105864000080B7C082C08390086902581C74F61285
:1058740016BFEAFEEBFF9061D0E0C0E0EE2400F535
:1058840082EF3401F583D0E0F09061D7E0FA9061C3
:10589400D5E0C39A547FC0E0EE2401F582EF3401D1
:1058A400F583D0E0F0EE2402F8EF3401F99061D6EC
:1058B400E0C39A547F88828983F0701A9061C5E0AE
:1058C400A2E45012E0A2E7500DEE2402F582EF3478
:1058D40001F5837480F0120D0FEE2401F582EF348C
:1058E40001F583E07034EE2402F582EF3401F58390
:1058F400E070279061C5E0A2E4501FE0A2E7501ACF
:10590400EE2402F582EF3401F5837480F0EE240175
:10591400F582EF3401F5837480F075E1957800EE3B
:105924002400F582EF3401F583E060279061D3E031
:10593400C0E08808EE2508F582EF3400F583D0E056
:10594400F008EE2400F582EF3401F583E0F9E8C3B2
:105954009940D975E1910257C074F61216BFEAFE58
:10596400EBFF9061C8E0C0E0EE2403F582EF340160
:10597400F583D0E0F09061CFE0FA9061CDE0C39A76
:10598400547FC0E0EE2404F582EF3401F583D0E0C7
:10599400F0EE2405F8EF3401F99061CEE0C39A5497
:1059A4007F88828983F0701A9061C5E0A2E050126A
:1059B400E0A2E3500DEE2405F582EF3401F5837483
:1059C40080F0120D15EE2404F582EF3401F583E026
:1059D4007034EE2405F582EF3401F583E0702790EE
:1059E40061C5E0A2E0501FE0A2E3501AEE2405F5E1
:1059F40082EF3401F5837480F0EE2404F582EF34F1
:105A040001F5837480F0120D1B7A00EE2403F582F5
:105A1400EF3401F583E0602F9061CBE0C0E08A08A9
:105A2400EE2508F8EF3400F9E82480F582E9340023
:105A3400F583D0E0F00AEE2403F582EF3401F58318
:105A4400E0F8EAC39840D175E1810257C074F412BA
:105A540016BF8908A808E875F08AA4C8AAF02AF92C
:105A640074CE28FE740839FFEEFAEFFB120BEFEE4A
:105A7400FAEFFB120BE9750A80750B00780A12180D
:105A8400D27C007D60EE2406FAEF3401FB120B3564
:105A94007402121665906195E0C0E0EE2486F582EA
:105AA400EF3401F583D0E0F0906196E0C0E0EE249D
:105AB40087F582EF3401F583D0E0F0906197E0C080
:105AC400E0EE2488F582EF3401F583D0E0F09061B4
:105AD40098E0C0E0EE2489F582EF3401F583D0E04C
:105AE400F07F0402179174F21216BF8908A808E81F
:105AF40075F08AA4C8AAF02AF974CE28F874083973
:105B0400F99061C6E0FDE054F0F075E1817C00E8B5
:105B14002403F582E93401F583E0602B8C0AE8253F
:105B24000AFAE93400FBEA2480F582EB3400F583B9
:105B3400E09061CAF00CE82403F582E93401F583AE
