:020000040000FA
:0600000002011A02236F49
:03002B00022B0D98
:030053000223E2A3
:03006B00022A9DC9
:03007B00022AE96D
:100083000221DBE5C754F84401F5C77901220000DA
:100093000080FB120086B90003020104E479217891
:1000A30008B800028004F709D8FCE479297802B87B
:1000B30000028004F709D8FCE490030178F5790B7A
:1000C3008002F0A3D8FCD9FA781A90014A7A01BACF
:1000D30000028007E493A3F608DAF97AF57B0D9022
:1000E300014B78CB79038015E493A3AD82AE838A69
:1000F300828B83F0A3AA82AB838D828E83D8E9D9C6
:10010300E77582597583FB740312012C758291750F
:100113008300740012012C75D00075817F7518015E
:10012300751903759F00020096C09FF59FE473D075
:100133009F22D083D082C09FE493C0E0740193C018
:10014300E0740293F59F220101030507FFFE778800
:100153001299324114242536010201060302E0FFFD
:100163002A2A5049534345532D42543130302A2AC9
:100173000000000000570400005D040D09504953BE
:100183004345532D4254313030051202534A004F38
:100193004B00000000000000000000000000000011
:1001A300534A0000000000000000000000000000AF
:1001B30043570000000000000000000000000000A2
:1001C3004357000000000000000000000000003062
:1001D30030303030303030FF0000B40000280028C9
:1001E30000283075A000A000A000A00000080008AF
:1001F300E001F000100010001000100010001000CB
:1002030050005000500010001000D0070000000004
:1002130000000F0001000500307507001000010009
:1002230081FF00000000FF6D068B067306FF0202CC
:100233000208025000A0000000E80302309501000C
:10024300001095022E95010000DB0E022A95010095
:10025300005E03022E95010000DC0E0228950100CA
:10026300007403022E95010000DD0E0226950100A5
:10027300007603022E95010000DE0E02249508008D
:10028300007703022E95010000DF0E022295010084
:1002930000E00EFF0100FF200230950100001395DE
:1002A300022E95010000440F023295000000000069
:1002B300022C95030000C4036D0C6D0C6D0C6D0CCA
:1002C3006D0C6D0C6D0C6D0C6D0C6D0C6D0C6D0C63
:1002D3006D0C010F190FFB0E020202020202020251
:1002E30002010D0000001001023095010000169577
:1002F300022E95010000850F024A95010000EB07CD
:10030300022E95010000860F0248950100002F94EC
:10031300022E95010000870F0246950100001394F9
:10032300022E95010000880F0244950100003E92C1
:10033300022E95010000890F0242950100001A92D6
:10034300022E950100008A0F0240950100000892D9
:10035300022E950100008B0F023E950100002C92A6
:10036300022E950100008C0F023C950100002194A0
:10037300022E950100008D0F023A950100008E0FA9
:1003830001E803053F100A0A160A0A023095010024
:10039300001995022E9501000034100252950300B6
:1003A300000309022E950100003510025095030049
:1003B300001309022C950300002409022E95010065
:1003C300003610024E950300002A09022E95010003
:1003D3000037100238950300003A09FFFFFF0001C0
:1003E3003075030201060000000000000000000059
:1003F30000000000000000000000000000000000FA
:100403000000FFFF0600800CE8033030303030304E
:100413003030120135CCFF02120135E0FF02120128
:1004230035E2FF02120135E7FF02120135442B00CA
:10043300120135902B001201359E2B001201354914
:100443002C00120135F42F00120135A431001201E2
:1004530035A242001201351E4B00120135614C00DA
:10046300120135505800120135935800120135FC22
:10047300F20312013513F30312013544F30312019E
:10048300357FF303120135A9F303120135D3F303C7
:10049300120135EAF30312013501F4031201351891
:1004A300F40312013541F40312013554F40312012C
:1004B300356AF4031201357DF403120135A4F40304
:1004C3001201350080031201350481031201353C0A
:1004D30081031201355F81031201356A8103120121
:1004E300358D81031201359C82031201357183031B
:1004F300120135EC8303120135748403120135AF05
:100503008403120135E68403120135748503120155
:10051300354D8603120135AD8603120135B88603C6
:100523001201353787031201353A87031201353D2E
:100533008703120135CC8703120135CF87031201DC
:1005430035FF870312013529880312013517890303
:10055300120135C989031201355DB90312013585CD
:10056300B903120135B3B903120135EAB903120114
:100573003548BA0312013593BA03120135DEBA03C3
:100583001201351EBB0312013564BB031201359200
:10059300BB031201354FBC0312013559BC031201D1
:1005A3003566BC0312013599BC0312013565BD03E1
:1005B30012013571BD0312013589BD031201359353
:1005C300BD0312013530FE031201353EFE03120155
:1005D3003556FE031201356EFE03120135C09F022C
:1005E3001201356CA002120135E7A0021201350891
:1005F300A20212013544A202120135EDA202120138
:1006030035D4A30212013538A5021201358FA50294
:1006130012013510A60212013500A7021201354D51
:10062300A702120135D3A70212013505A802120150
:100633003519AA021201355BAA0212013579AA0201
:10064300120135FCAA02120135D0AB021201359812
:10065300AC0212013530A20312013503A3031201C8
:1006630035ACA303120135FFA303120135AFA40375
:100673001201353BA50312013527A6031201355696
:10068300A60312013569A703120135B1A7031201AD
:100693003586A803120135C2A803120135DEA8036B
:1006A300120135F18104120135DCD603120135F252
:1006B300D60312013518D70312013534D8031201BA
:1006C300353ED80312013573D9031201356BDA03B2
:1006D30012013536B40312013566B503120135999B
:1006E300B503120135E3B503120135AAB7031201AD
:1006F300350080021201356A8002120135C9810278
:10070300120135D981021201350682021201355DCB
:1007130082021201350683021201350D8402120191
:1007230035D784021201353786021201357A8602E3
:100733001201351F87021201356C870212013592AF
:100743008702120135A08902120135A5890212011F
:1007530035AA8B02120135F78B021201356A8C021E
:100763001201359D8C021201353F8D02120135E8CD
:100773008D02120135208E02120135238E021201E1
:10078300356B8E02120135AB8E02120135028F02D8
:1007930012013512E7031201352AE70312013572FC
:1007A300E70312013588E703120135CFE70312018E
:1007B30035E3E80312013570E903120135BBE903A0
:1007C300120135CF5900120135DB590012013516DC
:1007D3005A001201355B5A001201351B5B001201EE
:1007E30035A15B00120135CD5B00120135065C00BB
:1007F300120135445E001201352860001201350EE6
:1008030062001201355163001201359F6500120128
:1008130035B16600120135FC67001201350C690021
:100823001201352969001201356469001201358608
:100833006900120135E96900120135AA6E0012013F
:10084300353F6F00120135906F00120135B76F000D
:10085300120135097000120135277000120135812C
:10086300700012013580710012013504720012010B
:1008730035D8AE03120135E2AE0312013525AF03BD
:1008830012013540AF03120135D0AF03120135F821
:10089300AF0312013535B0031201356CB0031201F9
:1008A3003595B0031201350AB1031201351FB103A7
:1008B30012013534B10312013565B10312013579E3
:1008C300B1031201359EB103120135D8B1031201F0
:1008D3003504B2031201353CB2031201359BB20356
:1008E3001201351AB30312013545B30312013570F2
:1008F300B303120135B9B303120135E3B303120194
:10090300350EB4031201353DF90312013582E702B6
:10091300120135B0E702120135FEE802120135DE9D
:10092300E902120135FDE9021201357AEA021201E8
:1009330035BDEA0212013513EC02120135D4EC0283
:100943001201355BEF02120135FCEF02120135F2A1
:10095300F002120135EFF10212013549F3021201DF
:1009630035D4F302120135E2F7031201354BF803D4
:100973001201359FF803120135C6F803120135F74A
:10098300F8031201351ABE0312013587BE031201A3
:1009930035CEBE03120135E6BF03120135E2C003B3
:1009A300120135C5C1031201353A8A031201357CA0
:1009B3008A031201354E8B03120135278C03120172
:1009C30035218D03120135038E031201356C8E031D
:1009D300120135228F03120135968F03120135025E
:1009E30090031201352B9003120135A590031201D8
:1009F300353E9103120135A39103120135B89103DA
:100A0300120135FE91031201351792031201357C51
:100A130092031201357F920312013519E403120187
:100A23003541E4031201357FE4031201353DE5034B
:100A3300120135A4E503120135C0E503120135E8BF
:100A4300E50312013518E60312013527E603120107
:100A530035A4E603120135CAE60312013599EA010A
:100A630012013577EC01120135A9EE01120135E5CA
:100A7300EE0112013512EF01120135FCEF011201F3
:100A83003547F00112013592F001120135A4F0014E
:100A9300120135E4F00112013519F1011201356734
:100AA300F10112013596F101120135B9F10112017B
:100AB3003506F2011201358BF201120135A5F4015D
:100AC300120135E4F60112013525F701120135C78C
:100AD300F80112013508F9011201357BF901120100
:100AE30035CCF901120135A7FA01120135D1FA010A
:100AF30012013506FB0112013531FB011201356B81
:100B03007200120135697300120135027A00120175
:100B130035237C00120135EE7D00120135567F002E
:100B23001201356095011201350F96011201353C12
:100B33009601120135829601120135B8970112010F
:100B430035E697011201357C9901120135F69901B9
:100B5300120135119A011201358C9A01120135E601
:100B63009B01120135469D011201354C9E01120174
:100B730035AD9F01120135C69F0112013524A00135
:100B830012013512A10112013545A101120135B53A
:100B9300A1011201352FA20112013579A20112011F
:100BA3003543A30112013518A401120135F7A4013D
:100BB30012013582A501120135F0A5011201356438
:100BC300A6011201358FA6011201354EA7011201AC
:100BD30035B3A801120135D0A801120135EFA801E0
:100BE300120135E0A90112013505AA011201352FC1
:100BF300AA01120135AAAA0112013504AB0112019F
:100C0300356DAC011201351BAD011201355CAD012F
:100C13001201351DBD021201356BBD02120135777C
:100C2300BD0212013555BE0212013586BE02120104
:100C330035B7BE0212013537BF02120135B5BF0207
:100C4300120135EDBF021201353FC0021201357C9E
:100C5300C00212013599C202120135BFC40212014A
:100C630035AAC60212013594C802120135FCFF01F0
:100C73001201359BC201120135CBC201120135A409
:100C8300C90112013529CB0112013526D101120107
:100C9300350ED2011201354BD2011201356ED2014C
:100CA3001201359FD201120135A8D201120135B2CA
:100CB300D201120135A0D30112013596D4011201DC
:100CC300358CAD011201358BB10112013591B101A2
:100CD300120135CCB801120135E5BD011201350E03
:100CE300D303120135A4D303120135BAD30312017E
:100CF3003530D403120135A4D403120135E2D403F1
:100D030012013556D503120135CFD503120135D85B
:100D1300D503120135E4D503120135F9D5031201C8
:100D23003537D6031201354DD603120135ACD60340
:100D330012013587C20312013594C203120135AE85
:100D4300C203120135EDC2031201352BC303120195
:100D53003590C303120135A5C303120135B0C30394
:100D6300120135BDC303120135D4C303120135E2A9
:100D7300C303120135EDC303120135F9C303120195
:100D83003508C40312013513C40312013536C403F5
:100D9300120135DDC403120135EDC4031201350719
:100DA300C50312013524C50312013540C5031201E1
:100DB3003565C50312013570C50312013585C503B9
:100DC30012013599C503120135FAC5031201350025
:100DD300C60312013506C6031201350CC603120100
:100DE3003524C60312013557C60312013574CB02ED
:100DF300120135F8CB02120135A7CC0212013506D8
:100E0300CE0212013527D00212013513D10212018D
:100E13003548D1021201356AD10212013519D202C5
:100E230012013511D4021201353AD402120135CC24
:100E3300D402120135FED4021201350BD502120180
:100E43003562D50212013588D502120135F5D70274
:100E5300120135F8D80212013550D902120135B109
:100E6300AE02120135BBAF02120135A2B00212016C
:100E730035ACB002120135CEB002120135DAB00240
:100E830012013573B202120135A2B202120135BE4C
:100E9300B30212013517B4021201357DB5021201F6
:100EA300355CB602120135B8B60212013525B70218
:100EB30012013560B7021201359FB702120135588E
:100EC300BA0212013572BA02120135FEBA021201D8
:100ED300350CBB0212013565BB0212013573BB022F
:100EE300120135E6BB021201354ABC0212013594E8
:100EF300BC0212013555F40212013577F4021201D6
:100F0300359DF602120135B2F902120135CAFA0211
:100F13001201357DFB021201355FFC02120135B669
:100F2300F403120135DBF4031201354DF50312010D
:100F330035B69A03120135BF9A03120135C89A03D5
:100F43001201359F9B03120135509D031201358613
:100F53009D03120135C09D03120135F69D03120155
:100F630035309E03120135649E03120135909E03B2
:100F7300120135D99E03120135139F031201355C0B
:100F83009F03120135B49F03120135E99F03120138
:100F93003544A0031201357EA003120135CFA0030F
:100FA30012013505A1031201353FA1031201356D6D
:100FB300A10312013590A10312013500800412012F
:100FC300352C800412013587800412013591800489
:100FD300120135A1800412013505E1031201352AFE
:100FE300E10312013554E103120135D4DD0312018B
:100FF30035EFDD031201351EDE0312013524DE0356
:101003001201352ADE0312013557DE031201357C46
:10101300DE0312013593DE03120135A8DE0312014C
:1010230035FCDE0312013575DF0312013595DF034D
:10103300120135758204120135AED601120135064F
:10104300D901120135C2DA01120135AFDB011201F8
:10105300353DDC01120135BDDC01120135E2DC0155
:10106300120135F3DF011201356FE0011201355E24
:10107300E10112013596E101120135D9E1011201B5
:101083003585E301120135DAE30112013527E40165
:1010930012013599E401120135BFE401120135D97A
:1010A300E401120135EEE501120135FEE5011201FD
:1010B3003525E70112013547E7011201357DE701C7
:1010C30012013509E90112013548E90112013574AC
:1010D300EA01120135B380041201354B8104120178
:1010E3003583FF02120135C2FF02120135F7820474
:1010F30012013507FF0312013517FF0312013526CD
:10110300FF03120135D8FF0312013556FA0312010A
:1011130035DAFA0312013540FB031201350ACB031A
:1011230012013541CB031201354BCB031201355369
:10113300CB03120135BFCB0312013521CD031201BD
:1011430035E5E90312013534EA0312013509EB03EE
:1011530012013550EB03120135D7EB031201355061
:10116300EC0312013553EC03120135F17F00120138
:1011730035F47F0012013575DA03120135C8DA033D
:1011830012013517DB0312013524DB031201353954
:10119300DB0312013578DB03120135B7DB031201E0
:1011A3003541DC031201358EDC031201354FDD03BB
:1011B300120135F87F00120135C8EE0312013550D4
:1011C300F003120135B1F003120135F7F0031201F8
:1011D30035D4C60312013519C70312013536C703C7
:1011E30012013509C8031201356FC80312013548CE
:1011F300C903120135D1CA03120135BA820412019F
:1012030035CD8204120135D18204120135D3820413
:10121300120135DC8204120135E58204120135F036
:101223008204120135F58204120135EF8F02120197
:10123300350E9002120135E5900212013539910203
:10124300120135C19102120135499202120135AAE8
:101253009202120135259302120135AD9302120158
:10126300351B940212013550940212013585940204
:101273001201351795021201359F95021201352788
:1012830096021201359596021201351D970212013D
:1012930035A797021201352F980212013583980260
:1012A3001201350D9902120135959902120135107B
:1012B3009A02120135A79A02120135FB9A02120112
:1012C30035769B02120135089C021201355C9C02A3
:1012D300120135B09C02120135539D021201357281
:1012E3009D02120135949D02120135CE9D02120119
:1012F30035229E02120135839E02120135F19E02B0
:10130300120135459F0212013550FD03120135725A
:10131300FD031201359BFD03120135B3FD031201D9
:1013230035F5FD0312013553A9031201355DA903F8
:101333001201359DA903120135E6A90312013520D7
:10134300AA031201357AAA0312013599AA031201DD
:1013530035A2AA03120135F3AA031201351CAB030C
:1013630012013526AB0312013592AB03120135206E
:10137300AC0312013579AC03120135A7AC0312019A
:101383003527AD031201356AAD03120135A5AD034F
:10139300120135B7AD03120135D6AD03120135DFA6
:1013A300AD03120135ACAE03120135807F0012018B
:1013B300355BF603120135B0F6031201351EF70350
:1013C3001201358EF7031201355DEC0312013587E7
:1013D300EC031201355CED0312013550EE031201EB
:1013E3003556FC03120135FAF00312013530F103CF
:1013F30012013569F103120135C2F20312013556A8
:1014030081041201356C81041201357681041201C5
:1014130035C08104120135A3920312013560930391
:101423001201359B9303120135C393031201352532
:101433009403120135719403120135D594031201FB
:10144300354F950312013551960312013504980364
:10145300120135869803120135EB98031201350208
:1014630099031201350B9A03120135499A031201AC
:101473003553FB011201356CFB011201350DFC01E3
:101483001201354DFC0112013566FC01120135993B
:10149300FC01120135E6FC011201351AFD011201AE
:1014A300355CFD0112013566FF011201359ED9023B
:1014B30012013527DD02120135AFDE0212013506B6
:1014C300DF0212013525DF02120135A3DF0212010B
:1014D3003541E10212013525E2021201350FE60220
:1014E300120135DFE60212013534CF031201357DD7
:1014F300CF0312013533D0031201355BD003120140
:1015030035DED0031201354FD10312013539D20331
:1015130012013574D203120135DF7F00120135E861
:101523007F00120135D0FF01120135DEFF03E066B3
:10153300701008A3E066700A08A3E066700408A3AD
:10154300E06622C3E7960809E7960809E7960809C3
:10155300E79622C3E09608A3E09608A3E09608A3C3
:10156300E09622C008C3E096F50808A3E096420877
:1015730008A3E096420808A3E09645087001D3D07B
:101583000822080808EAC0E0EBC0E086F0E7A4FA06
:10159300180986F0E7A42AFA180986F0E7A42AFABC
:1015A300180986F0E7A42AFA1986F0E7A4FBE5F008
:1015B3002AFA190886F0E7A42BFBE5F03AFA190892
:1015C30086F0E7A42BFBE5F03AFA18180986F0E752
:1015D300A4C5F02BFBE43AFA1908E7C5F0C6A42624
:1015E300F6E5F03BFBE43AFA1886F0E7A4F6E5F0FB
:1015F3000826F6E43B08F6E43A08F6D0E0FBD0E030
:10160300FA22E4CFC0E0E4CEC0E0E4CDC0E0E4CC15
:10161300C0E075F020E626F608E633F608E633F672
:1016230008E633F6181818EC33FCED33FDEE33FE01
:10163300EF33FFC3EC9709ED9709EE9709EF97197D
:101643001919400FFFEC97FC09ED97FD09EE97FE82
:10165300191906D5F0BFECF709EDF709EEF709EF15
:10166300F7191919D0E0FCD0E0FDD0E0FED0E0FF7F
:10167300226016080808C6C313C618C613C618C6C0
:1016830013C618C613C6D5E0EA2270090808082253
:101693006016181818C6C333C608C633C608C6333F
:1016A300C608C633C6D5E0EA22E627F60809E637B8
:1016B300F60809E637F60809E637F622E026F608C3
:1016C300A3E036F608A3E036F608A3E036F622E0F8
:1016D30026F008A3E036F008A3E036F008A3E036CE
:1016E300F022C3E697F60809E697F60809E697F6A7
:1016F3000809E697F622C3E096F008A3E096F008FF
:10170300A3E096F008A3E096F022E657F60809E670
:1017130057F60809E657F60809E657F622E056F6A3
:1017230008A3E056F608A3E056F608A3E056F6220F
:10173300E056F008A3E056F008A3E056F008A3E053
:1017430056F022E0F608A3E0F608A3E0F608A3E0CB
:10175300F622E6F008A3E6F008A3E6F008A3E6F015
:1017630022E0FAA3E0FBA3E0FCA3E0FD22EAF0A35E
:10177300EBF0A3ECF0A3EDF022E0F8A3E0F9A3E093
:10178300FAA3E0FB22E8F0A3E9F0A3EAF0A3EBF06D
:1017930022CAC0E0E6F0A308DAFAD0E0FA22CAC00F
:1017A300E0E0A3C582CCC582C583CDC583F0A3C5C4
:1017B30082CCC582C583CDC583DAE6D0E0CA22C315
:1017C300E498F8E499F91218038026C3E49AFAE43A
:1017D3009BFBE920E7E9121803E498F8E499F9225E
:1017E300C3E498F8E499F9121803E498F8E499F932
:1017F300C3E49AFAE49BFB22EB20E7CFE920E7E07E
:10180300B90010BB0008E88AF084F8AAF022E4FBD0
:10181300C8FA22EB70227B10C833C8C933C93350CE
:1018230007C39AC3DBF280069A50012ADBEAC83366
:10183300F4C8C933F4C9FA2275F008E4C833C8C937
:1018430033C933C99AC99B5004C92AC93BD5F0ECA3
:10185300FBC833F4C8E4C9FA22600D08C6A2E71333
:10186300C618C613C6D5E0F322600C08C6C313C658
:1018730018C613C6D5E0F422700422600D18C6C33F
:1018830033C608C633C6D5E0F41822251810AF08AE
:10189300F518400C15198008F51840021519D2AF38
:1018A3002200C0D0251810AF08F518500C05198078
:1018B30008F51850020519D2AFD0D0222518F582A9
:1018C30010AF08F518400C15198008F518400215DB
:1018D30019D2AF851983222518F582E43519F583CA
:1018E300222518F8E43519F9222518FAE43519FBED
:1018F300222518FCE43519FD22E4732518C582C09E
:10190300E0E51934FFC583C0E0E518C3958224F8E8
:1019130010AF08858319858218800885831985820D
:1019230018D2AFCEF0A3E520F0A37808E608F0A321
:10193300DEFAEFF0A3E58124FAF8E608F0A3E6085F
:10194300F0A3E608F0A30808E608F0A3E608F0A36E
:1019530015811581D0E0FED0E0F815811581158140
:10196300E8C0E0EEC0E0222518C582C0E0E51934E6
:10197300FFC583C0E0E518C3958224F910AF08853D
:1019830083198582188008858319858218D2AFCE82
:10199300F0A3E520F0A37808E608F0A3DEFAEFF061
:1019A300A3E58124FBF8E608F0A3E608F0A3080802
:1019B300E608F0A3E608F0A315811581D0E0FED078
:1019C300E0F815811581E8C0E0EEC0E022851983B7
:1019D300851882E0A3FEE0A3F5207808E0A3F608CB
:1019E300DFFAE0A3FFE0A3C0E0E0A3C0E0E0A3C010
:1019F300E0E0A3C0E0E0A3C0E010AF088582188553
:101A030083198008858218858319D2AFD083D08249
:101A1300020132851983851882E0A3FEE0A3F52035
:101A23007808E0A3F608DFFAE0A3FFE0A3C0E0E054
:101A3300A3C0E0E0A3C0E0E0A3C0E010AF0885824C
:101A4300188583198008858218858319D2AFD083BE
:101A5300D08222C0D02518C582C0E0E51934FFC565
:101A630083C0E0E518C3958224F310AF088583197A
:101A73008582188008858319858218D2AFC8F0A3A0
:101A8300E9F0A3EAF0A3EBF0A37908E709F0A3D800
:101A9300FAECF0A3EDF0A3EEF0A3EFF0A3D0E0F0A7
:101AA300A3D0E0F0A3D0E0F0A3E520F0A3E5F0F0AD
:101AB300A322851983851882E0C0E0A3E0F9A3E09F
:101AC300FAA3E0FBA37808E0F608A3DFFAE0FCA39F
:101AD300E0FDA3E0FEA3E0FFA3E0C0E0A3E0C0E0DD
:101AE300A3E0F5D0A3E0F520A3E0A3F5F010AF0841
:101AF3008583198582188008858319858218D2AF5A
:101B0300D082D083D0E0F8D0E0327404800674022F
:101B130080027401C0E0F4041218BFD0E0121794DD
:101B2300227404800474028000CCC0E0EDC0E0E5C0
:101B330018C39CCCAD1950011D10AF068C188D191C
:101B430080068C188D19D2AF1217A1D0E0FDD0E01A
:101B5300FC22D083D082E9C0E0E493A3C386F0C51E
:101B6300F095F0F908E493A386F0C5F095F0700BB7
:101B7300E493A3C3994005E9048002A3E475F0024A
:101B8300A42582F582E5F03583F583D0E0F9E4936B
:101B9300A3C0E0E493C0E022D083D082ECC0E0EDA8
:101BA300C0E0E493A3FCE493A3FDED4C600D121B92
:101BB300E7EC24FFFCED34FFFD80EFE493A3FCE4AA
:101BC30093A3FDED4C600D121C26EC24FFFCED34B9
:101BD300FFFD80EFD0E0FDD0E0FCE493A3C0E0E4A0
:101BE30093C0E022C0E0C3E493960874019396186F
:101BF300400FE493667008087401936618700070D0
:101C030019A3A3C3E49396087401939618A3A3405E
:101C13000DD0E0D0E0D0E0021BD7A3A3A3A3A3A3DE
:101C2300D0E022C0E0C0F088F0E493667008087446
:101C3300019366187000A8F0A3A3700BD0F0D0E056
:0E1C4300D0E0D0E0021BD7A3A3D0F0D0E02267
:101C540074F512196AEAFEEBFFEE2434F8EF34004F
:101C6400F988088909EE2435F582EF3400F583E01C
:101C7400F8EE2437F582EF3400F583E0F50AEC85BD
:101C84000AF0A4FCAAF0850AF0EDA42AFDE82CF8D9
:101C9400E43DF97A257B00121803EA850882850958
:101CA40083F0F8740758F97401B900028004C3334F
:101CB400D9FCFAE8131313541FF8EE28F8EF340094
:101CC400F9E8245DF582E93400F583E05A6008EE12
:101CD4002434F582EF802CEE2434F582EF3400F5C1
:101CE40083E0C0E0EE2436F582EF3400F583E0F5BE
:101CF400F0D0E084A8F0EE28F8EF3400F9E82438B6
:101D0400F582E93400F583E0F97F04021A1674F5CC
:101D140012196AEAFEEBFFEE2434F582EF3400F583
:101D240083E0C0E0EE2435F582EF3400F583D0E0A3
:101D3400F08E828F83A3A3A3A3A3A3A3C082C08393
:101D44008E828F83A3A3A3A3A3E0F8A3E0F9D08397
:101D5400D082E0C398F508A3E099F509EE247FF555
:101D640082EF3400F583E064017069EE2480F5822B
:101D7400EF3400F583E0F8A3E0F98E828F83A3A308
:101D8400A3A3A3A3A3E0FCA3E0FD8E828F83A3A35C
:101D9400A3A3A3E0FAA3E0FBC3EA9CEB9D5010C30A
:101DA400EC98ED99402EC3EA98EB995027800EC326
:101DB400EA98EB994007C3EC98ED9940177C877D2E
:101DC40005EEFAEFFB120BC5EE247FF582EF34002B
:101DD400F583E4F0EE2434F8EF3400F9E8FCE9FD8F
:101DE400EE2435F582EF3400F583E0F8EE2437F580
:101DF40082EF3400F583E0F50AE508850AF0A4F5DE
:101E040008AAF0850AF0E509A42AF509E82508F8E6
:101E1400E43509F97A257B00121803EA8C828D8354
:101E2400F0F8740758F97401B900028004C333D977
:101E3400FCFAE8131313541FF8EE28F8EF3400F9F2
:101E4400E8245DF582E93400F583E05A6008EE2465
:101E540034F582EF802CEE2434F582EF3400F583E0
:101E6400E0C0E0EE2436F582EF3400F583E0F5F0CF
:101E7400D0E084A8F0EE28F8EF3400F9E82438F52F
:101E840082E93400F583E0F9122A8F021D0DC08225
:101E9400C083851882851983E0F8A3E0F9C3EA9C1E
:101EA400EB9D5010C3EC98ED99401BC3EA98EB9955
:101EB4005014800EC3EA98EB994007C3EC98ED994F
:101EC4004004790180027900D083D08222EAC39C45
:101ED400FAEB9DFB2274EF12196A90044DE064083A
:101EE4006005E06407702A9061C8E0602490047B78
:101EF400E0F4601DE0F875F003A4C8AAF02AF974B0
:101F04007D28FE740439FF8E828F83A3A3A3E0701F
:101F140003022009906060E0C0E0EE2468F582EFDF
:101F24003400F583D0E0F0750CF0750D05750800EC
:101F3400750900E5D914F50AE5D95403F50E6017BF
:101F44007403650E605CE50A6010EE2467F582EFA9
:101F54003400F583E07003021FEE9005EBE06401AA
:101F6400602AEE2482F582EF3400F583E060047881
:101F74000480027800850A08E508C398FA95E0FB16
:101F8400120A6F8A088B09EA45097005120DCF8081
:101F940074EE2482F582EF3400F583E070048A0C39
:101FA4008B0DE50A6012850C82850D83F50BE5D94E
:101FB400F0A3150BE50B70F6EE2482F582EF3400E6
:101FC400F583E0604474FC250AF50A780C121B11B1
:101FD400AC0AA90EEEFAEFFB120C6774021218A4F5
:101FE400E97026AA08AB091213B7793D8E828F8354
:101FF400A3A3A3A3E0FA7B00120943EEFAEFFB12BA
:102004000BDD120C79790080747403650E605685BB
:102014000A107511007810121B11AC0CAD0DAA0832
:10202400AB09120C4374021218A4EE2468F582EF73
:102034003400F583E064807004747F8001E0F50C63
:10204400780C121B15E50EF50C780C121B15A90A59
:10205400AC08AD0990047BE0FA7B00120907740216
:102064001218A4801390044DE06408600BAC0CAD0E
:102074000DEEFAEFFB120CD3120DDB79017F0A028D
:102084001A1674F512196A74FC12188EEAFEEBFF24
:102094008908A2AFE433F509C2AF806AEE2463F87D
:1020A400EF3400F97A007B00A2AFE433F50AC2AF43
:1020B40088828983E0FCA3E0FDEC4D603A88828944
:1020C40083E0FAA3E0FB8A828B83E0FCA3E0FD8833
:1020D400828983ECF0A3EDF08A828B83E4F0A3F091
:1020E40088828983E0FCA3E0FDEC4D700A88828934
:1020F40083A3A3E4F0A3F0E50AA2E092AF1213B71E
:1021040090058EE004F0EE2463F582EF3400F5834D
:10211400E0F8A3E0F9E849603DEE2463F582EF348A
:1021240000F583E02402FAA3E03400FBEA2402F57C
:102134000AEB3400F50B780A121B118A828B83E0B8
:10214400FCA3E0F9EEFAEFFB120C0174021218A4DE
:10215400E970030220A090058EE0606390058FE093
:10216400F890058EE0C398500C7402650870509086
:102174000590E0604A8E828F83A3A3A3A3E0851811
:1021840082851983F0A3E4F090058EE0F8740212BE
:1021940018DAE8F0A3E4F090058EE0F890058DE0FD
:1021A40028F074021218DAAC82AD8385188285197E
:1021B40083AA82AB83790112091390058EE4F0E5BA
:1021C40009A2E092AF74041218A4021D0D000000CD
:1021D4008521878522C622C0E0C0D0E8C0E0E9C0DE
:1021E400E0EAC0E0EBC0E0ECC0E0EDC0E0EEC0E04F
:1021F400C008C009C00AC00BC082C083C0F0A2AF2F
:10220400E433FEC2AF759B00906182E0A2E05012FD
:10221400E591A2E0500C7591FE74016521700312E2
:102224001ED9E0A2E55051E591A2E5504B7591DF2E
:1022340090044DE064076005E06408702374016550
:10224400217035790190047BE0FA75F003A4CAA8E3
:10225400F028FB747D2AFA74043BFB122086801854
:10226400E0640D701390046FE004F064287002E4DD
:10227400F07A00E0F9120DE1906182E0A2E64003F9
:10228400022322E591A2E640030223227591BF9026
:10229400044DE064057008120D09120D1580031237
:1022A4000D0F752100120D6FE990044EF0790012A4
:1022B4000D63120B357A017B0090044CE0F9121384
:1022C40081907803E0644270559005EFE014F0705B
:1022D4004DC2AF1222DA00782AD0E0F618D0E0F628
:1022E400E59F540770057509FF800375097FC4C015
:1022F400E07829E6F50808E65509F509740B78082D
:1023040012186CD0E02508F8906270E0A2E740F85B
:10231400E8C333906272F0906270E0D2E0F09061B2
:1023240081E0A2E35009E5E9A2E3500375E9F7A3CC
:10233400E0A2E75009E591A2E7500375917FEEA270
:10234400E092AFD0F0D083D082D00BD00AD009D0A5
:1023540008D0E0FED0E0FDD0E0FCD0E0FBD0E0FA15
:10236400D0E0F9D0E0F8D0D0D0E032C0E0C0D0C0A6
:1023740082C083906183E0A2E05009E5BFA2E050EF
:102384000375BFFEE0A2E15009E5BFA2E150037569
:10239400BFFDE0A2E25009E5BFA2E2500375BFFB16
:1023A400E0A2E35009E5BFA2E3500375BFF7E0A242
:1023B400E45009E5BFA2E4500375BFEFE0A2E55085
:1023C40009E5BFA2E5500375BFDFE0A2E65009E5C9
:1023D400BFA2E6500375BFBFD083D0828088C0E01F
:1023E400C0D0E8C0E0E9C0E0EAC0E0EBC0E0ECC087
:1023F400E0EDC0E0C0F0E5A7A2E6500FE5A1A2E63B
:10240400500953A7BF75A1BF122447E5A7A2E55001
:102414000CE5A1A2E5500653A7DF75A1DFE5A7A24D
:10242400E15009E5A1A2E1500375A1FDE5A7A2E2EF
:10243400500CE5A1A2E2500653A7FB75A1FBD0F016
:1024440002235874F812196A75210190044DE0644E
:10245400067015120C978A828B83A3A3A3A3A3A34C
:10246400E0FAA3E0FB120CF7A2AFE433FED2AF9084
:102474000453E0640170187A207B0090044CE0F966
:102484001214957A207B0090044CE0F91213879083
:102494006182E0D2E6F09005ECE0602185C62280FE
:1024A40016900452E064017008E5C654F84405F53A
:1024B400C653BEFC1221D47401652160E4EEA2E08F
:1024C40092AF7F01021A16008E238F2485822885FD
:1024D4008327851882851983E0CEA3E0CF852882DF
:1024E400852783EBC9EAC8EDCBECCA75F010C3E8C5
:1024F40033C8E933C9EA33CAEB33CBC3EA9EF526C2
:10250400EB9FF525B35004AB25AA26EC33CCED3371
:10251400CDD5F0DAAE23AF242274E912196A74F827
:1025240012188E851882851983ECF0A3EDF08A08C1
:102534008B0990044DE024F7C394055006750801F7
:102544000226B4120C978A0A8B0BAE0AAF0BEE4F1D
:1025540070030226B1AC08AD0974021218DAAA821B
:10256400AB83120D278E828F83A3A3750CFF750D89
:10257400FF750EFF750F00780C12172074021218E5
:10258400DA7510FF7511FF7512FF751300781012BC
:102594001720780C7910121546502A780C791012ED
:1025A40016E57508017509C8750A00750B007808E9
:1025B400790C1215465052850C08850D09850E0AB2
:1025C400850F0B80507514017515C87516007517A5
:1025D4000085100885110985120A85130B7808797E
:1025E4000C1216E578147908121546401C7508007B
:1025F400750900750A00750B01780879101216E543
:102604007808790C1216AC800C75080175090075F0
:102614000A00750B007409780812168D750C19F5EB
:102624000DF50EF50F7808790C1216058E828F833E
:10263400A3A3A3A3A3A3E0F8A3E0F97AD07B031296
:102644001803880C890DE4F50EF50F7808790C123F
:1026540016AC74061218DAE0F8A3E0F97AD07B031A
:10266400121803E8FA8A0CE4F50D7808790C1215AF
:102674004650077808790C1216E590044DE064087A
:10268400600AE064066005E06405702D750C0D7841
:102694000C79081215464021750CF4750DFF750E62
:1026A400FF750FFF7808790C1216AC800C750800C2
:1026B400750900750A00750B00851882851983E079
:1026C400F8A3E0F583888278081217557408121865
:1026D400A47F10021A1674F712196A120D399005A4
:1026E400EAE064017010906245E4F0A3F053F4F35F
:1026F40043FE0C5390F3120CE5E5C654804449F5AF
:10270400C6E59E547F644970F8906185740FF0901B
:1027140005E8E0F47002A3E0604E9005E9E060088B
:1027240014601B14602E8040750801750900900523
:10273400E8E0780812187BE508F45280802A7508CE
:10274400017509009005E8E0780812187BE508F4A3
:10275400529080147508017509009005E8E0780826
:1027640012187BE508F452A079007F02021A16744D
:10277400F712196AE9FEEAFF74016E700C7A807B25
:102784000090044CE0F9121381902B3CE493F46024
:1027940008E493F9120B29800953C680E59E547FFF
:1027A40070FA120CEB9005EAE064017003120B4717
:1027B4009005E8E0F47002A3E0604B9005E9E06066
:1027C4000814601A14602C803D7508017509009086
:1027D40005E8E0780812187BE5084280802875082F
:1027E400017509009005E8E0780812187BE50842B5
:1027F4009080137508017509009005E8E0780812C7
:10280400187BE50842A0120D39120C978A088B092F
:10281400A808A909E8496015E5E170FCE82414F565
:1028240082E93400F583E0F46003E0F5E174016FBC
:10283400700A7A0190044CE0F912140B02276E74AA
:10284400ED12196A8A088B098C0A8D0B74131218FD
:10285400DA780C1217467808790C121546751001AF
:102864007511C875120075130050127808790C128E
:1028740016E57810790812154650168010780C79F0
:10288400081216E57810790C121546400479018077
:102894000279007F0C021A1674ED12196A8A088BE9
:1028A400098C0A8D0B74131218DA780C12174678F7
:1028B4000C790812154640117808790C1216E5AA0D
:1028C40008AB09AC0AAD0B802275100075110075B8
:1028D40012007513017810790C1216E57810790836
:1028E4001216ACAA10AB11AC12AD1380A68A828B5F
:1028F400837508FF7509FF750AFF750B00780812C8
:1029040017337F04021A1674F512196A8C828D83A8
:1029140078081217468A828B8378081216F9EA24FB
:1029240004F8EB3400F98C828D83A3A3A3A3E0FC09
:10293400A3E0FD88828983C3E09CF0A3E09DF08836
:10294400828983C3E09420A3E0944E40268A828B3C
:10295400837508FF7509FF750AFF750BFF78081268
:1029640016D28A828B83A3A3A3A3E02420F0A3E03E
:10297400344EF00228F174F512196AE9FE9005A2AA
:10298400E0FAA3E0FBEEC333F8E433F974E528F589
:1029940082749339F583E02AF508A3E03BF50978BE
:1029A40008121B117A407B427C0F7D001224CC74E8
:1029B400021218A48A088B098C0A8D0B74107808EB
:1029C400121674AA08AB097F04021A1674F11219BC
:1029D4006A8A0C8B0D8C0E8D0F740F1218DAE0FAC4
:1029E400A3E0FB74111218DAE0F508A3E0F5097806
:1029F40008121B11EA2401F508EB3400F509E4F58B
:102A04000AF50B780C790812158575087175090299
:102A1400780C7908121585AA0CAB0DAC0EAD0F120B
:102A240024CC74021218A48B09EA450960047A01C3
:102A340080027A00EC2AFCED3400FD74131218DADB
:102A4400E0F8A3E0F9E8FEE9FFECF8EDF97A717B30
:102A540002121803880889098E828F837808121756
:102A640055ECF8EDF97A717B021218038A088B0988
:102A74007405780812187B8E828F83A3A3A3A3E521
:102A840008F0A3E509F07F08021A16C082C083E9A2
:102A9400906000F0D083D08222C0E074F2121A5603
:102AA400A2AFE433FED2AFE589A2E04012E589A2E9
:102AB400E1400CE589A2E24006E589A2E350031255
:102AC4001159900305E064017009E589A2E55003FA
:102AD400121159758900C2C5751A00EEA2E092AFB1
:102AE4007F01021AB5C0E074F2121A56A2AFE433A1
:102AF400FED2AFE58AA2E44006E58AA2E5500312BD
:102B04001159758A00C2EB80CFC0E0C0D0E8C0E0A4
:102B1400E9C0E0A9A8D2AFC2C7751A00E9A2E7E4E8
:102B240033F8E9A2E792AFD0E0F9D0E0F8D0D0D002
:102B3400E032C2AF02000022FFFFFFFFFFFFFFFFF2
:102B4400C082C08390780E122B86A3F090780F1267
:102B54002B86F0907810122B7FA3A3F0907811129B
:102B64002B7FA3F0907812122B7FF0907813E08AD9
:102B7400828B83F0D083D082020132E08A828B83FD
:102B8400A322E08A828B83A3A3A3A322AABDA8BC09
:102B940075B437EAFBE8FA02013274F41218FE8ABB
:102BA400088B097A107B001213F38A0A8B0BAE0A86
:102BB400AF0B12042D8E828F83A3A3A3A3A3A374AC
:102BC40010122C377407122C37A37413122C43746D
:102BD4000A122C43A37432F0EE240BF582E43FF581
:102BE400837414F0EE240CF582E43FF5837402F050
:102BF400EE240DF582E43FF5837442F0EE240EF5E5
:102C040082E43FF583744AF0EE240FF582E43FF545
:102C1400837443F07808121B11EEFCEFFD7AF57B08
:102C24000D120A9374021218A4EEFAEFFB1213F9B0
:102C3400024C49122C3B22124245A3A3A3A3221205
:102C44002C3BA3A32274F41218FE74D712188EE935
:102C5400FE7A107B001213F38A088B097808121B82
:102C6400117C287D0E7AF57B0D120A9374021218DA
:102C7400A49091F1740E1218F474171217A1850818
:102C840082850983E0C0E0740E1218DAD0E012578E
:102C940092E0C0E0740F1218DAD0E0122F67C0E09F
:102CA40074101218DAD0E0122F6CC0E074111218EC
:102CB400DAD0E0122F71C0E074121218DAD0E012E8
:102CC4002FBBC0E074131218DAD0E0122FC0C0E09A
:102CD40074141218DAD0E0122FCCC0E07415121854
:102CE400DAD0E0122FD1C0E074161218DAD0E01254
:102CF4002FE3C0E074171218DAD0E0122FE8C0E016
:102D040074181218DAD0E0122FB2C0E07419121835
:102D1400DAD0E0122FA9C0E0741A1218DAD0E01247
:102D24002F97C0E0741B1218DAD0E0122F8EC0E087
:102D3400741C1218DAD0E0122F85C0E0741D12182A
:102D4400DAD0E0F0AA08AB091213F9EE900301F00F
:102D54007C017D007A1F7B00120559851882851934
:102D6400837401F0740C1218DAE4F0A3F00412185E
:102D7400DAE4F0740A1218DA7408F0A3E4F07408C0
:102D84001218DA740AF0A3E4F074061218DAE4F004
:102D9400A3F074041218DA74E8F0A37403F0AC1806
:102DA400AD1979017A05FB1214AD740C1218F4797B
:102DB400027A067B031214AD740E1218F479177A92
:102DC400087B031214AD7C067D0E79077A077B031A
:102DD4001214AD74011218F479017A107B031214E1
:102DE400AD740A1218F479027A117B031214AD74CB
:102DF400081218F479027A127B031214AD740612C5
:102E040018F479027A137B031214AD74041218F4C3
:102E140079027A147B031214AD7C0D7D0E7A157938
:102E2400001206D37CA07D007A067B001205597C33
:102E3400A07D007A077B001205597CA07D007A08EA
:102E44007B001205597CA07D007A097B001205598C
:102E540074251218DA124AD1041218DA74011242D3
:102E64004E74031218DAE4F074021218DA7401F0E2
:102E740074251218F479047A087B04121039740149
:102E84001218F479017A007B04121039AC18AD19C8
:102E940079017A027B0412103974031218F479014F
:102EA4007A037B0412103974021218F479017A0639
:102EB4007B041210399094CF1217641206D990949F
:102EC400CF1217641207E1120FD99094CF1217642E
:102ED4001211D1900301E0F91213151215191204FD
:102EE4001512041B1211FB121213120FEB120FF125
:102EF40012121990955CAC18AD1974011217A1A89F
:102F040018A919880889097808121B117C017D0009
:102F14007AF07B1F12113574021218A48518828569
:102F24001983E064AA600312046912119B790012E8
:102F3400122B7A267B0E1211D779011208DD790241
:102F44001208D779001208E379011208E97A017BA3
:102F540000900301E0F91213817901121405742918
:102F6400024C4612578DE022122F77E022122F775F
:102F7400A3E022122F7B22122F7F22125796A3A3A3
:102F840022F0E508240F122FA022F0E508240E12E7
:102F94002FA022F0E508240D122FA022F582E4359B
:102FA40009F583E022F0E508240C122FA022F0E5B5
:102FB40008240B122FA022122FC6E022122FC6A320
:102FC400E022122F7BA3A322122FD7E022122FD7A5
:102FD400A3E022122FDB22122F7FA3A3A3A322128A
:102FE4002FEEE022122FEEA3E022122FDBA3A32266
:102FF40074F11218FE74FD12188E890E90951CAC93
:1030040018AD1974031217A17A10FB1213F38A0A6C
:103014008B0BC2AFA818A919880889097808121B54
:10302400117C017D007AFE7B1F1211357402121887
:10303400A474011218DA8582088583097808121BA2
:10304400117C017D007AFF7B1F1211357402121866
:10305400A474021218DA8582088583097808121B81
:10306400117C017D007AF07B1F1211357402121855
:10307400A4D2AF1204278A088B091204278A0C8B66
:103084000DAE0CAF0D1204278A0C8B0DA80CA90DE4
:10309400C3E5089EE5099F5033C3EE98EF9940338A
:1030A400C3E50898E509994004AA08AB09900AE524
:1030B400EAF0A3EBF0851882851983E06026F89086
:1030C4000AE5C3E098F0A3E09400802BC3E89EE9EE
:1030D4009F5006EEFAEFFB80D4C3E89508E9950902
:1030E40050C780C974011218DAE0F8600B900AE541
:1030F400E028F0A3E03400F0900AE5E0F8A3E0F95A
:10310400C3E894ABE994054022E82456F8E934FA7C
:10311400F9E875F064A4F8AAF075F064E9A42AF952
:103124007ABB7B01121803E8A38002A3E4F09003A6
:1031340002E0640570577401650E7051850A82853A
:103144000B837431F0E50A2402F8E4350BF9A3AAE1
:1031540082AB8375F00A900AE7E084940A8A828B32
:1031640083400A7401F088828983E4801AE4F09031
:103174000AE7E0FA75F00A84ABF075F00AEA84C451
:1031840054F02B888289831257E81211DDAA0AAB06
:103194000B1213F9796474031218A47F070219D06F
:1031A40074F01218FE74F912188E74011218DAEA07
:1031B400F0A3EBF074011218DAA3E054806041909C
:1031C4000301E0F91213698A088B09AE08AF09EE0E
:1031D4004F60208E828F83E064C07010A3A3A3E0AD
:1031E400FA8E828F83A3A3E0F9120451EEFAEFFB67
:1031F40012135774011218DA12428D648002423697
:1032040074011218DAE0A2E050257A227B0E12141F
:10321400B97A077B031210577A407B00900301E0D0
:10322400F912138174011218DAE064010240765431
:103234000260539094CB121B247A027B009003010A
:10324400E0F912148974041218A4A285501B900387
:1032540005E064017013121207900305E4F01212E2
:1032640031121213900AB1E4F0900AABE0600C1230
:1032740042571213819003057401F074011218DA95
:10328400E06402024076E0544070030234A7900EDA
:1032940005E0600302333F7401F0790012140579EC
:1032A400AF12118F1213037C3D7D0A7A6E7980125E
:1032B4001465900AECE06037C2AF75082C75090BF1
:1032C4007808121B11124AFC12113574021218A448
:1032D40075086A75090D7808121B117C8B7D0090A6
:1032E4000AA7124B0312113574021218A4D2AF129A
:1032F40010217A027B00900301E0F912138190946B
:10330400C7121B247A007B01900301E0F91214898F
:1033140074041218A47A007B40900301E0F912139C
:10332400819094C3121B247A407B00900301E0F93E
:1033340012148974041218A402349CE412424E122A
:1033440014BFAC18AD1979017A057B031214AD9042
:103354000306E4F0F912122B900AECE06036900AAE
:10336400C6E4124262E4F0900AEAF0900AE904F03A
:10337400900AB1E4F0900AEBF0900AEEF07C08FDBC
:1033840079BB7AC87B0A1214F5900AABE4F0900A70
:10339400ADF08003121513121207121213120FEB61
:1033A400900AECE06069900AE1E07008900AE3E0BA
:1033B40064017015C2AF7C3D7D0A7A6E7980121467
:1033C4005FD2AF900AE1E07008900AE3E064027013
:1033D4003EC2AF75082C75090B7808121B11124AEE
:1033E400FC12113B74021218A47A0A7B00121177A2
:1033F40075086A75090D7808121B117C8B7D009085
:103404000AA7124B0312113B74021218A4D2AF7A0A
:10341400087B00900301E0F91214957A047B009074
:103424000301E0F91214957A007B02900301E0F99C
:103434001214957A007B04900301E0F91214957A32
:10344400007B10900301E0F91214957A007B089038
:103454000301E0F91214957A007B01900301E0F96D
:103464001214957A107B00900301E0F91214957AF6
:10347400007B40900301E0F91214957A027B0090DE
:103484000301E0F91214957A407B00900301E0F9FE
:10349400121495790112140574011218DAE06440CB
:1034A400024076A3E0540270030235617A007B0285
:1034B400900301E0F91214957A007B04900301E073
:1034C400F9121495900AB3E0700474018001E4F0D9
:1034D400900303E4F0900AC7F0900AC6124262E037
:1034E4008518828519836024E4F01214BFAC18ADEA
:1034F4001979017A057B031214AD12123D7C0F7DFC
:103504000079FF7AB67B0A1214F580447401F01234
:1035140014BFAC18AD1979017A057B031214AD9070
:1035240094CB121B247A027B00900301E0F912145D
:103534008974041218A412124F9094BF121B247A97
:10354400007B20900301E0F912148974041218A47A
:1035540074011218DA12428D6402024236740112A6
:1035640018DAA3E054047003023A59900AC7E4F04D
:10357400FA7B04900301E0F9121495900AC6E06006
:103584002714700302360F14700302370F147003EC
:1035940002382E14700302388E14700302393A1460
:1035A40070030239C5023A0E7508087509007808D7
:1035B400121B117CB67D0A7A3D7B0A1214EF740249
:1035C4001218A4E96014121249900AE8E0F91212E0
:1035D400E5900AC67401F0023A3B900AC6E4F01280
:1035E4001243124AE094065003023A0E1210217A52
:1035F400F37B0712102D900ADB1217707A407B00C0
:10360400900301E0F9121381023A0E900CF0E0F9F4
:10361400A3E0F8900AE8E024FE601814604B1460FC
:103624005414606E1470030236CB14700302370313
:10363400023A0EE9C3940A400574BB6970428518C6
:10364400828519837401F0900AADF01214BFAC188E
:10365400AD1979017A057B031214AD12125B1212B3
:1036640067900AC6740202370B900AC67403F012FC
:103674001279023A0EE8C3940A400B74BB686006E0
:103684001212EB0239F7900AC67404F01212970270
:103694003A0E74BB696037900AC67405F0790189E3
:1036A400087509007403780812187B124AAD600B80
:1036B400E9900AE9F01212AF023A0E09E9C3940A3A
:1036C4004003023A1780D87A0074BB68700612125D
:1036D400F10239F7900AC67406F0EA75F009A4F805
:1036E400A9F0124B10600CEA900AEAF0F91212C128
:1036F400023A0E0AEAC3940A4003023A1780DB1224
:1037040012D3900AC67408F0023A177A107B00129A
:1037140013F38A088B09AE08AF09750800900302F9
:10372400E0640560030238078002050885080A750D
:103734000B007403780A12187B743D250AFA740A84
:10374400350BFBEA2408F8E43BF988828983E0F42A
:1037540070D8E508900AD7700AE044111257DED2F7
:10376400E78008E044211257DE4441F088828983CF
:10377400E508F0750A07750B00780A121B117CD155
:103784007D0AEA2409FA50010B12132D740212184F
:10379400A47C0679007AD17B0A120463E9F50990C6
:1037A4000AEB7401F0A90812126D9094BF121B2445
:1037B4007A007B20900301E0F91214897404121832
:1037C400A4900CF0E064BB700474018002E004F087
:1037D4008E828F83742FF0A3E508F0900AD7E08ED1
:1037E400828F83A3A3124245E509124C4E1211DDC8
:1037F4007C077D0079007AD17B0A1214F5900AC601
:103804007401F0851882851983E4F01214BFAC1892
:10381400AD1979017A057B031214ADEEFAEFFB12B0
:1038240013F9900AADE4F0023A0E75080875090020
:103834007808121B117CC87D0A7AB67B0A1214EF31
:1038440074021218A4E960217808121B117CC87D47
:103854000A7A3D7B0A12132D74021218A4121285DF
:10386400900AE1E04441F0800312128B9094BB1261
:103874001B247A007B20900301E0F912148974045C
:103884001218A4900AEB740180427E007508088E19
:10389400097808121B117CC87D0A7AB67B0A1214B7
:1038A400EF74021218A4E970391212A39094BB1297
:1038B4001B247A007B20900301E0F912148974041C
:1038C4001218A4900AE97401F0900AEBF0900AC669
:1038D400F07C087D0079BB7AC87B0A1214F5023AA1
:1038E4000E0EEE75F009A4F8A9F0742C28F8740BE8
:1038F40039F9E8FAE9FB8A828B83A3E064BB70E1BF
:10390400EEF07808121B117CC87D0AEA2402FA50F2
:10391400010B12132D74021218A4EEF912129D90C9
:103924000CF1E064BB700474018002E0041257DE01
:103934004444F00238B0900AE9124AF112187B7438
:103944003D2508F8740A3509F9E8FAE9FB8A828BFF
:1039540083A3A3A3A3A3A3A3A374FFF07C077D0065
:103964007900EA2409FA50010B1214F5900CF0E0E6
:1039740014F07508067509007808121B11900AE9FD
:10398400E0F5087403780812187B74462508FC7463
:103994000A350912581712132D74021218A4900B29
:1039A4002B124AE394094002E4F0900CF0E0700317
:1039B40074BBF0900AE1E0444212426D1212B580E9
:1039C400327C097D00900AEAE08CF0A4F8A9F07436
:1039D4002D28FA740B39FB79BB1214F5900CF1E025
:1039E40014F0700374BBF0900AE1E0444412426D99
:1039F4001212C79094BB121B247A007B20900301FF
:103A0400E0F912148974041218A4900AC6E0C3944D
:103A1400024024900AADE0640170059094B38003E1
:103A24009094AB121B247A007B10900301E0F912EE
:103A3400148974041218A4900AC7E4F07C0FFD7969
:103A4400FF7AB67B0A1214F574011218DA12428D49
:103A5400640402423674011218DAE05408604B9090
:103A64000AABE064017038900302E06405703090A2
:103A74000AE1E0602A900AB3E07024900AE1E0A22F
:103A8400E7401CD2E61257807A387B0E120463E9B1
:103A9400900AD8F07C387D0E7A0379011211DD7416
:103AA400011218DAE06408024076A3E054087003B7
:103AB400023C617A007B08900301E0F912149590AE
:103AC4000AECE07003023C447E00EE75F009A4F8B1
:103AD400A9F0742C28F508740B39F509E508245D60
:103AE400F50AE43509F50B750C08750D00780C1210
:103AF4001B117CB67D0AAA0AAB0B1214EF740212D6
:103B040018A4E9602E9003057401F012120D900DB3
:103B14006B7404F0EEA3F0E508245CF582E4350947
:103B2400F583E4F07C10FD79BBAA0AAB0B1214F503
:103B3400023BF6750A08750B00780A121B117CB655
:103B44007D0AE5082402FAE43509FB1214EF740235
:103B54001218A4E960119003057401F012120D907B
:103B64000D6B7401023BF2780A121B117CB67D0ABC
:103B7400E50824B7FAE43509FB1214EF74021218AD
:103B8400A4E960109003057401F012120D900D6BFE
:103B94007405805A780A121B117CB67D0AE5082444
:103BA40011FAE5093401FB1214EF74021218A4E9A6
:103BB40060109003057401F012120D900D6B7406E1
:103BC400802C780A121B117CB67D0AE508246BFA56
:103BD400E5093401FB1214EF74021218A4E9602001
:103BE4009003057401F012120D900D6B7407F0EE42
:103BF400A3F07A107B00900301E0F9121381804353
:103C040074096E702E124AE0940640241210217A30
:103C1400F37B0712102DEAF8EBF9ECFAEDFB900AAE
:103C2400DB1217887A407B00900301E0F9121381BC
:103C340012124312151F0EEEC3940A5006023ACE16
:103C44001212437C0F7D0079FF7AB67B0A1214F5B9
:103C540074011218DA12428D640802423674011299
:103C640018DAA3E054017003023DC01210217AF364
:103C74007B0712102D8A088B098C0A8D0B851882FC
:103C8400851983E4F0E0FA8A0C750D007402780C4F
:103C940012187B742C250CF8740B350DF97405126D
:103CA40018DAE8F0A3E9F074051218DAE024C6F88B
:103CB400A3E03401F9E8FCE9FDEA75F009A4FAABE4
:103CC400F0742C2AF8740B3BF974031218DAE8F038
:103CD400A3E9F08C828D83780C1217469094977820
:103CE4000C1216BF780C7908121546402C750C007E
:103CF400750D00750E00750F008C828D83780C1283
:103D040017557C097D0079BB74031218DAE024B6D8
:103D1400FAA3E03400FB1214F574051218DAE02457
:103D2400EEF8A3E03401F9E8FAE9FB8A828B8378A0
:103D34000C12174690949B780C1216BF780C7908D5
:103D440012154640121242791218DAE02410FAA32E
:103D5400E03401FB1214F574051218DAE02416F8A5
:103D6400A3E03402F9E8FAE9FB8A828B83780C1227
:103D740017469094A3780C1216BF780C7908121584
:103D84004640121242791218DAE0246AFAA3E034A7
:103D940001FB1214F5851882851983124ADA50033F
:103DA400023C897A007B01900301E0F912149574B6
:103DB400011218DA12428D6401024236740112189B
:103DC400DAE05404601A1214BF7A047B00900301F1
:103DD400E0F912149574011218DAE06404024076D2
:103DE400E054207003023EAD7A207B00900301E092
:103DF400F912149590955EAC18AD1974011217A1BF
:103E040012121F12151312150712150D121501C2E5
:103E1400AF7C3D7D0A7A6E798012145F75082C752B
:103E2400090B7808121B11124AFC12113B7402127E
:103E340018A47A0A7B0012117775086A75090D783F
:103E440008121B117C8B7D00900AA7124B031211E0
:103E54003B74021218A4A818A919880889097808BB
:103E6400121B117C017D007AF07B1F12113B74023E
:103E74001218A47808121B117C017D007AFE7B1FA6
:103E840012113B74021218A47808121B117C017DD4
:103E9400007AFF7B1F12113B74021218A4D2AFC226
:103EA400AF75C9AB75C95B80FEE054107003024066
:103EB4007C900AB1E004F014601814607214606716
:103EC40014606C14607614606E14607014607B026D
:103ED400406E1212011212F712121F12151F7A00ED
:103EE4007B02900301E0F91214957A007B10900391
:103EF40001E0F91214957A007B20900301E0F91295
:103F040014959094C3121B247A407B00900301E023
:103F1400F912148974041218A47A027B0090030124
:103F2400E0F9121495800312121F9094CB8013129F
:103F3400122512151F8008121225800312121F90D9
:103F440094C7121B247A1002405F1212251210210A
:103F5400900AE1E04450F0900DF4E0C39410400A5C
:103F6400740FF0900D6AF01214E9900D6AE0C0E04D
:103F740075F009A4F8A9F0746428F582740D39F574
:103F840083D0E0F0900D6BE0C0E01242927465289B
:103F9400F582740D39F583D0E0F0900D6CE0C0E04B
:103FA400124292746628F582740D39F583D0E0F0DC
:103FB4009007F3E0C0E0124292746728F582740D12
:103FC40039F583D0E0F09007F4E0C0E01242927437
:103FD4006828F582740D39F583D0E0F09007F5E098
:103FE400C0E0124292746928F582740D39F583D0C9
:103FF400E0F09007F6E0C0E0124292746A28F5827D
:10400400740D39F583D0E0F09007F7E0C0E0124278
:1040140092746B28F582740D39F583D0E0F0900723
:10402400F8E0C0E0124292746C28F582740D39F500
:1040340083D0E0F0900DF4E004F0900D6AF0900A63
:10404400DA1242571214957A027B00900301E0F9C8
:104054001213819094A7121B247A407B00900301D1
:10406400E0F912148974041218A474011218DAE025
:104074006410FAA3E0024236A3E05410605E85188F
:1040840082851983E4F0FA7B10900301E0F912149D
:1040940095900AB3E0700B900AC6E07005121231D5
:1040A4008029900AC6E0640270101214BFAC18ADE7
:1040B4001979017A057B031214AD124AC01214F562
:1040C400121249900AE8E0F91212E5900AC7E4F0E6
:1040D400041218DA12428D64100242367401121866
:1040E400DAA3E0544070030241DE900AE4E004F0F5
:1040F400F874011218DAE0FEA3E06440FF74FC28AF
:10410400C3940650687AAE7B0A1214FBE9F50812D0
:10411400041BE508C39402502D900AE4E0A2E04099
:104124000812121F1212FD80031212259094D3124A
:104134001B247A007B40900301E0F9121489740473
:104144001218A40241D98518828519837401F0F9E3
:1041540012122B1214BFAC18AD1979017A057B0326
:104164001214AD900AE4E4F0900AED8050E8C39490
:1041740004E85027605F1204217900120445900A74
:10418400E7E0C0E0900AE4E0F874AD28F582E43496
:104194000AF583D0E0F09094D78094C3940A403514
:1041A4008518828519837401F01214BFAC18AD19F7
:1041B40079017A057B031214AD900AE4E4F07C03E0
:1041C400FDF97AAE7B0A1214F57A007B4090030164
:1041D400E0F9121495EEFAEF805874011218DAA37C
:1041E400E054207A00604E7B20900301E0F9121421
:1041F40095900AB3E0700B900AC6E0700512123174
:104204008026900AEBE4F0900AC604F0121249905A
:104214000AE8E0F91212E57A007B10900301E0F954
:10422400121495900AC7E4F074011218DA12428D40
:104234006420FB80027B0074071218A47F08021913
:10424400D0F08E828F83A3A3A322F08518828519D0
:1042540083F022E4F07A10FB900301E0F922F0905D
:104264000AE87402F0900AB322F0900AEB7401F0A9
:10427400900AC6F0228A828B83E4F0A3F0A3F0A311
:10428400F07C09FD79BB740322E0FAA3E022900DCF
:104294006A12429922E075F009A4F8A9F02274F098
:1042A4001218FE74FF12188EEA851882851983F09D
:1042B400900306E0700474018001E4F0900E05E0C0
:1042C40064016003024A3E9094C3121B247A407B2B
:1042D40000900301E0F912148974041218A48518DB
:1042E40082851983E014601514601924FE602A2461
:1042F400FC601F24F8601424F060258029900303D7
:10430400740A80219003037430801A900303740BA1
:1043140080139003037433800C900303743280057C
:104324009003037431F07A007B10900301E0F912DA
:104334001495900AB1E06003024A33900AE4E06005
:1043440003024A33900303E06012900AB3E0700C56
:104354007A007B20900301E0F91214958518828578
:104364001983E0A2E450199094BF121B247A007BB5
:1043740002900301E0F912148974041218A4800C49
:104384007A007B02900301E0F9121495900303E094
:104394007003024AA8900306E06003024AA890034F
:1043A40003E0C0E0900AC7E0F874B628F582E4346C
:1043B4000AF583D0E0F0900AC7E004F0900AB3E075
:1043C40060030244649094AB121B247A007B109027
:1043D4000301E0F912148974041218A4900AC7E0C6
:1043E40064017010900303E0640B604279021211BF
:1043F400A1121237900AC7E0F8900303E0640B603F
:1044040027E0640A7019900AC7E4F079021211A136
:104414007C0F7D0079FF7AB67B0A1214F58025742F
:10442400FF28F91212D9801CE8C39409500612120D
:10443400430244E8900AC7E4F0FA7B08900301E0E1
:10444400F9121381900AC7E0C3940F50030244ED9C
:10445400E4F0FA7B08900301E0F91213810244EDC1
:10446400900AEBE060030244ED900AC7E0F874FFA1
:1044740028F9900AC6E0602F146075147003024591
:104484005A1470030245A41470030245A414700363
:104494000246431470030246BC14700302475814C6
:1044A40070030249BD80421212D9900AC7E0FA741F
:1044B400B52AF582E4340AF583E0640B70030245FF
:1044C40072EAC3940F4003024572900303E0640A46
:1044D400701779021211A17C0F7D0079FF7AB67BE7
:1044E4000A1214F5900AC7E4F0900303E4024A3B6D
:1044F400900303E06430700E900AE8124AE39408D3
:10450400401774028012E06432701D900AE8E014CF
:10451400F0C3940250037407F0900AC7E4F0900AC1
:10452400E8E0F91212E58011E0640B700C7A007B6C
:1045340004900301E0F9121381900AB6E0640A7052
:10454400A8A3E0640A70A2900AC7E06403709A907A
:104554000AC674078092900303E0640B70179003FB
:1045640002E064057083900CF0E0F912126D7A0099
:104574007B04024459E0640A60030244ED121249C8
:10458400900AE8E0F91212E5900AC67401F0A3E477
:10459400F07C0FFD79FF7AB67B0A1214F50244ED24
:1045A400900303E0640A701A121249900AE8E0F9D1
:1045B4001212E57C087D0079BB7AC87B0A1214F5D7
:1045C40080C6E0640B7060E8C39408402D900ACF65
:1045D400E064BB709912127F900AC7E4F075080872
:1045E400F5097808121B117CB67D0A7AC87B0A1279
:1045F400132D74021218A40244ED900AC67401F03B
:104604001212A39094BB121B247A007B2090030106
:10461400E0F912148974041218A47C087D0079BB93
:104624007AC87B0A0244E5E8C394094008900AC7A3
:1046340074090244ECE024D0FA1212DF0244ED9033
:104644000AE9124AE8702FE8851882851983124A0C
:10465400BA40030244E8900AE9124ADA40037401BA
:10466400F0124AF112187B124AAD70418518828506
:104674001983E00480D8E064326003024728E885A7
:1046840018828519838008851882851983E00412AD
:104694004ABA40030244E8900AE9E014F070037453
:1046A40009F0124AF112187B124AAD60DA900AE955
:1046B400E0F91212AF0244E8900AEA124AE87028BC
:1046C400E8851882851983124ABA40030244E890A7
:1046D4000AEA124ADA4002E4F0124B09703B8518E8
:1046E40082851983E00480DFE064327037E885183E
:1046F400828519838008851882851983E004124A0B
:10470400BA40030244E8900AEAE014F0C3940A4071
:10471400037409F0124B0960DD900AEAE0F9121201
:10472400C10244E8E0640B700F7A007B049003013B
:10473400E0F91213810244E8E0640A60030244E8E9
:10474400121249900AE8E0F91212E5900AC67401BF
:10475400F00244DB7A107B001213F38A088B09AE53
:1047640008AF0990955FAC18AD1974011217A190A8
:104774000303E0640B6003024990900AB8E0F87404
:1047840033687022A3E0643160030249A1A3E064AA
:104794003260030249A1900AC7E4F0F912122B7A9D
:1047A400207B0002445974316860030249A1A3E0EC
:1047B400643160030249A1A3E0643060030249A1AB
:1047C4007A087B00900301E0F91214957A047B00C7
:1047D400900301E0F91214957A027B00900301E042
:1047E400F91214957A407B00900301E0F9121495B4
:1047F4007A007B02900301E0F91214957A007B049D
:10480400900301E0F91214957A007B10900301E003
:10481400F91214957A007B08900301E0F9121495BB
:104824007A007B01900301E0F91214957A107B0061
:10483400900301E0F91214957A007B40900301E0A3
:10484400F91214957A027B00900301E0F912149591
:104854007A407B00900301E0F9121495900AC7E4B2
:10486400F0F912122B121513121501121507121555
:104874000DEEFAEFFB12043975081075090078087B
:10488400121B11EEFCEFFD7A957B0A12132D7402B4
:104894001218A4EEFAEFFB1213F9C2AF1204338A12
:1048A400088B09E50824CAFEE5093402FFC3EE9427
:1048B400F1EF941F50E6900AA5E508F0A3E509F08E
:1048C400120433EA24F4F8E43BF9C3E50898E50953
:1048D4009940EDC3E5089AE5099B5007C3EA9EEBAE
:1048E4009F40DDC3E894F1E9941F50D4900AA7EAED
:1048F400F0A3EBF07C3D7D0A7A6E798012145F752B
:10490400082C75090B7808121B11124AFC12113B72
:1049140074021218A47A0A7B0012117775086A755A
:10492400090D7808121B117C8B7D00900AA7124B8D
:104934000312113B74021218A4A818A91988088933
:10494400097808121B117C017D007AF07B1F12117B
:104954003B74021218A47808121B117C017D007AA2
:10496400FE7B1F12113B74021218A47808121B114B
:104974007C017D007AFF7B1F12113B74021218A484
:10498400D2AFC2AF75C9AB75C95B80FEE0640A6083
:104994000C900AC7E0C3940650030244ED900AC782
:1049A400E4F0900AC604F0121249900AE8E0F91201
:1049B40012E57C0F7D00024598900AAA124AE8602D
:1049C40005E064327018E8900AAA7004740180014A
:1049D400E4F01212D3900AEEE004F00244E8E0643A
:1049E4000B7028E8900AA9600474FF8001E4F09039
:1049F4000AEEE4F0121249900AE8E0F91212E51204
:104A04004AC01214F5900AC7E480CFE0640A600338
:104A14000244E8900AEEE0A2E0500CE8900AAA7082
:104A24000474018001E4F0900AEEE4F0024744903B
:104A34000AC7E4F0900303F0806A900AC7E4F09098
:104A44000303F0900ADAE0C39406404C1210217A72
:104A5400F37B0712102D8A088B098C0A8D0B900AA0
:104A6400DB780C1217469094DF780C1216BF780C82
:104A74007908121546402D900ADA124AD1A3F09013
:104A840094D3121B247A407B00900301E0F91214A2
:104A94008974041218A4800C7A407B00900301E00E
:104AA400F9121381740102423D74452508F582749C
:104AB4000A122FA3F422F0E0C3941422900AC674BD
:104AC40001F07C0F7D0079FF7AB67B0A22E4F0A323
:104AD400F0A3F0A3F022124AE3940A22900ADAE047
:104AE40004F0C322E0F8900303E0643022E0F50808
:104AF40075090074037808227C3E7D02900AA5E0C3
:104B0400FAA3E0FB22124299124B1022742D28F5CD
:104B140082740B39F583E064BB2274F41218FE74BA
:104B2400F212188E8908E9146016147003024C39C5
:104B3400147003024C3924FE7003024BC3024C3E32
:104B440074081218F47A047B031214B3740812184C
:104B5400DA124C5874091218DAE0C0E07401121821
:104B6400DAD0E0F0740A1218DAE0C0E07402121825
:104B7400DAD0E0F074041218DAE4F074031218DAEC
:104B8400E4F0740D1218DAE0C0E074071218DAD0F9
:104B9400E0F0740C1218DAE0C0E074061218DAD0EF
:104BA400E0F0740B1218DAE0C0E074051218DAD0E1
:104BB400E0F0AC18AD197A087900120FDF807B9011
:104BC4000AADE06401703B7A107B001213F38A0A89
:104BD4008B0BAE0AAF0B8E828F837401F0A3744FDC
:104BE400F08E828F83A3A3744B124C4E1211DD7A84
:104BF400047B00900301E0F9121495EEFAEFFB1226
:104C040013F9900AABE0701F900AADE0701990940C
:104C1400BB121B247A047B00900301E0F91214896F
:104C240074041218A480137A047B00900301E0F941
:104C34001214958005900AABE4F0E508900302F0A5
:104C4400740E1218A47F040219D0F0EEFCEFFD7A62
:104C540010790122E0851882851983F02274F012FC
:104C640018FE74FE12188E74011218DAE9F07A1024
:104C74007B001213F38A088B0974011218DAE060BE
:104C84000A24FE700302528E0257677A1B7B037953
:104C9400001211E3750A0B750B03780A121B117CC1
:104CA4001B7D037AF57B0D120AED74021218A47CA5
:104CB4003D7D0A7A6E798012146590030BE01460CE
:104CC4001D147003024E9A14700302503024FB70BA
:104CD4000302521E24F87003025268025767750AD1
:104CE40000AE0A8E0C750D007403780C12187B74D8
:104CF4003D250CF50E740A350DF50F750C06750D72
:104D040000780C121B117C0C7D03E50E2409FAE4D7
:104D1400350FFB1214EF74021218A4E97003024E4B
:104D2400179003047401F0900D6B04F0EEA3F07A75
:104D3400047B00900301E0F9121495EE900AAB7025
:104D440004740180027402F0E50E240FF8E4350FB8
:104D5400F9E8FAE9FB900312E0FE540FFC8A828B17
:104D640083E0540F6C7001E46002EEF0740F5EF89F
:104D7400740168700B900AAC7401F0900AB2800A56
:104D84007402687006900AAC7402F074F05EF870F5
:104D9400548508828509837421F0E50AA37004749C
:104DA40011800274211257C31211DD900AADE06420
:104DB400016003025767900AC67401F0A3E4F0127D
:104DC4001249900AE8E0F91212E5851882851983E0
:104DD400E4F01214BFAC18AD1979017A057B031203
:104DE40014AD0257677430686003025767850E82FA
:104DF400850F83A3A3A3A3A3A3A3A374FFF07C079A
:104E04007D007900E50E2409FAE4350FFB1214F550
:104E1400025767EEC394094023900AADE064017021
:104E24001B750C07780C121B117C0C7D037AD17B4B
:104E34000A12132D74021218A4121261EE75F006F0
:104E4400A4FEAFF074EF2EFE740A3FFF750C0678D3
:104E54000C121B117C0C7D03EEFAEFFB1214EF74A1
:104E6400021218A4E9602085088285098374CCF0B5
:104E7400A31257891257C31211DD7C067D007900F5
:104E8400EEFAEFFB1214F5050AE50AC3940A40038F
:104E9400025767024CE57A107B001213F37A107BF9
:104EA400001213F37A107B001213F3900AE2E01459
:104EB400601514601E24FE602624FC602E24F86015
:104EC4003624F0603E8047900E5C74411257DED267
:104ED400E0803A900E5C74421257DED2E1802E904C
:104EE4000E5C74431257DED2E28022900E5C74444E
:104EF4001257DED2E38016900E5C74451257DED250
:104F0400E4800A900E5C74461257DED2E5F0900AF3
:104F1400E1E090032BF0900AD8E0900E3E1257F790
:104F24006003025767750A03750B00780A121B1198
:104F34007C0C7D037A3C7B0E1214EF74021218A4CD
:104F4400E97003024FD1900AD8E4F07E0090032B5D
:104F5400E0A2E05065EE601414601814601C146044
:104F64002014602414602814602C804E900E4C741D
:104F740041802D900E4C74428026900E4C744380D8
:104F84001F900E4C74448018900E4C744580119000
:104F94000E4C7446800A900E4C7447F0900AD0E48C
:104FA4001257807A4C7B0E120463E9900AD8F07C85
:104FB4004C7D0E7A1079011211DD90032BE0C3139E
:104FC400F00EEEC3940740030257678080900AE214
:104FD400E0F87003025767900AD8E4F0E81460110F
:104FE40014601524FE601824F4601B24F0601E80F5
:104FF40022900E5C7441801A900E5C74428013906F
:105004000E5C7443800C900E5C74458005900E5CBD
:105014007446F07C5C7D0E7A1079011211DD7C03FC
:10502400900AD8E0F97A5C7B0E025214750A027574
:105034000B00780A121B117C0C7D037A3C7B0E1248
:1050440014EF74021218A4E97003025767900AABB4
:10505400E06401600302576790030EE0F8A3E024C4
:10506400BF602414607314700302511A1470030295
:10507400515C14700302515C14700302519D14704E
:10508400030251E3025767900AD8E0687043E4F0E2
:105094007E017C08900AD8E0F97A4D7B0A120463F9
:1050A400E9900AD8F08E0A750B007403780A121876
:1050B4007B7445250AFC740A350BFD7A10790112BC
:1050C40011DD0EEEC3940A40C9900AE2740102573E
:1050D4006612577A74410251FD900AD8E068702E26
:1050E400900AE1E0C2E1F0900AD8E4F07C08F97A91
:1050F4003D7B0A120463E9900AD8F07C3D7D0A7A6C
:105104001079011211DD900AE274020257661257F7
:105114007A74420251FD900AD8E0687033900AE133
:10512400E0C2E01257ABEE75F009A4F8A9F0742DB3
:1051340028F50A740B1258081204631257E412116A
:10514400DD0EEEC3940A40DE900AE2740402576650
:1051540012577A74430251FD900AD8E06870339074
:105164000AE1E0C2E31257ABEE75F009A4F8A9F026
:10517400746D28F50A740D1258081204631257E46A
:105184001211DD0EEEC3941440DE900AE274100294
:10519400576612577A74458060900AD8E068703870
:1051A400900AE1E0C2E41257ABEE75F009A4F8A945
:1051B400F0748828F50A740B39F50B7C0712580D26
:1051C4001204631257E41211DD0EEEC3940A40D99F
:1051D400900AE2742002576612577A7446801A9035
:1051E4000AD8E068700EE4F0900AE1F0A3F012151A
:1051F4000D02576712577A7447F07C6C7D0E7A1053
:1052040079011211DD7C03900AD8E0F97A6C7B0EE7
:10521400120463E9900AD802576612102190030C15
:10522400E09007F3F090030DE09007F4F090030E84
:10523400E09007F5F090030FE09007F6F09003106C
:10524400E09007F7F0900311E09007F8F012101BBC
:105254008508828509837416F0A3744B12578974E8
:105264004F025754A3E0644F6003025767A3E064FE
:10527400506003025767900AB27402F0FA7B009000
:105284000301E0F9121381025767121021900AD921
:10529400E4F07A1B7B0379021211E3750A0B750B98
:1052A40003780A121B117C1B7D037AF57B0D120A0D
:1052B400ED74021218A490030CE0FF8F0A750B0022
:1052C400A3E0FE90030BE01460341470030253B6A1
:1052D40014700302541824FE7003025496147003CD
:1052E4000254E11470030255391470030256761403
:1052F400700302575C147003025762025767740309
:10530400780A12187B743D250AF50A740A350BF5E0
:105314000B900AD9E0F97C08E50A2CFAE4350BFB7A
:105324001204631257F2707FEE68707B900AE37484
:1053340001F0750C06750D00780C121B11E50A249A
:1053440009FCE4350B12581712132D74021218A419
:10535400900B2B124AE394094002E4F07C087D0090
:10536400790090030CE0F50A890B7403780A12188B
:105374007B7445250AFA740A350BFB1214F5900365
:105384000CE0F50A750B007403780A12187B744557
:10539400125775740A350BF58374FFF085088285FE
:1053A4000983740302547985088285098374500241
:1053B4005750900AD9E0F97C087A3D7B0A120463BD
:1053C4001257F27044EF687040900AE37401F07C65
:1053D400087D0079007A3D7B0A1214F5750A087875
:1053E4000A121B117C7C7D0E7A3D7B0A12132D74EC
:1053F400021218A48508828509837404F0900AD9DE
:10540400E0850882850983807A850882850983740A
:1054140051025750EF75F009A4F50AE5F0F50B7445
:105424002C250AF50C740B350BF50D850C82F583D0
:10543400A385820A85830B900AD9E0F97C09AA0A1C
:10544400AB0B1204631257F2703DEE687039900A88
:10545400E37402F0850A82850B83E4F07C09FD790C
:10546400BBE50C2402FAE4350DFB1214F585088221
:105474008509837405F090030C1257FFF0900AD944
:105484001257FFA302575485088285098374520278
:105494005750900AD9E0F97C087A0C7B0312046314
:1054A4001257F2702D900314E0687026900AE3748A
:1054B400011257BC121B117C0C7D037A3D7B0A122E
:1054C400132D74021218A4850882850983740702B7
:1054D40057428508828509837454025750900AD92B
:1054E400E0F97C097A0C7B031204631257F2703AD8
:1054F400900315E0687033900AE37402F0750A09AA
:10550400780A121B117C0C7D0390030C12429574D3
:105514002D28FA740B39FB12132D74021218A4856A
:1055240008828509837408025742850882850983A5
:105534007455025750900AD9E0F97C0A7A0C7B031F
:105544001204631257F2600302566B900316E0686C
:10555400600302566B90030DE0FC75F009A4F8A9F2
:10556400F0742C28FA740B39FB90030CE024CF6000
:105574000F14603514606C147003025620025767D0
:10558400900AE37402F0EA245CF582E43B1257B912
:10559400121B117C0E7D03EA245DFA50010B1213D9
:1055A4002D74021218A4025660900AE37402F0EA01
:1055B40024B6F582E43B1257B9121B117C0E7D030D
:1055C400EA24B7FA50010B12132D74021218A47AAC
:1055D400F37B0712102D12583D12187B1257737467
:1055E4000C8070900AE37402F0EA24101257B4128B
:1055F4001B117C0E7D03EA2411FAEB3401FB121318
:105604002D74021218A47AF37B0712102D12583D40
:1056140012187B741A125775740D8037900AE3744C
:1056240002F0EA246A1257B4121B117C0E7D03EABD
:10563400246BFAEB3401FB12132D74021218A47AB2
:10564400F37B0712102D12583D12187B7442125727
:1056540075740D350BF583780C1217558508828502
:1056640009837409025742850882850983745602A6
:105674005750900AABE064016003025767EE75F07F
:1056840009A4F8A9F0742C28F8740B39F9EF24CF85
:10569400600C146032146053146073025767E8247A
:1056A4005CFEE43912583012046312579F600302FF
:1056B4005748900AE37402F07C107D0079BBEEFA3F
:1056C400EFFB1214F5806FE824B6FEE4391258306B
:1056D40012046312579F706C1257CD1214F51258AE
:1056E4004512187B125773740C8044E82410125826
:1056F4002C12046312579F704B1257CD1214F512DB
:10570400584512187B741A125775740D8021E824B9
:105714006A12582C12046312579F70281257CD1224
:1057240014F512584512187B7442125775740D35CE
:105734000BF583124AD1850882850983740AF0A384
:10574400744B800C8508828509837457F0A374FF19
:105754001257C31211DD800BEF900ADF8004EF9023
:105764000AE0F0AA08AB091213F9740202423D746C
:10577400F2250AF58222E4F0900E6C22F07C03906C
:105784000AD8E0F92212578D22125792A3221257F7
:105794009622F0850882850983A322E9F8900AD924
:1057A400F090030EE06822F0900AD8E4F07E002224
:1057B400F582EB3401F583ECF0750A08780A22F0DF
:1057C400AC08AD097A10790122900AE37402F07CE6
:1057D400097D0079BBEEFAEFFB22F0900AE1E022AA
:1057E400E9900AD8F0AC0AAD0B7A10790122E9F8F5
:1057F400900AD9F0900AABE0640122E08508828522
:105804000983A32239F50B7C09900AD8E0F9AA0A86
:10581400AB0B22FD900B2BE075F006A4F8A9F074F5
:10582400EF28FA740A39FB22FEE93401FF900AD901
:10583400E0F97C09EEFAEFFB228A0C8B0D8C0E8DBD
:105844000F90030DE0F50A7402780A2274F7121817
:10585400FE7D00800BEFF9E8C313F81EEE70140D03
:10586400EDC39C5025EDFEEA2EF582E43BF583E082
:10587400F87E08E9C313FFE8A2E092F0E9A2E03061
:10588400F001B350D0748C6F80CC7F010219D074B6
:10589400F21218FE74FC12188E90950774011218F7
:1058A400F474031217A1909463AC18AD1904121781
:1058B400A1120421750A031204278A088B09120411
:1058C400278A0C8B0DAE0CAF0D1204278A0C8B0D9E
:1058D400A80CA90DC3E5089EE5099F5050C3EE9896
:1058E400EF994050C3E50898E509994004AA08AB2C
:1058F40009900AE5EAF0A3EBF0900AE5E0F8A3E0EA
:10590400F9C3E894BDE99407E8403A2444C0E0743C
:10591400011218DAD0E0F074011218E48808890939
:105924007808121B117C017D007AFE8047C3E89E33
:10593400E99F5006EEFAEFFB80B7C3E89508E995B6
:105944000950AA80AC245CFAE934F8FBC3EA941841
:10595400EB940074BC5029C398C0E074021218DAA6
:10596400D0E0F08582088583097808121B117C0138
:105974007D007AFF7B1F12113B74021218A4800869
:10598400687003740769700AA818A9198808890936
:10599400800E74031218DA74BBF0858208858309BB
:1059A4007808121B117C017D007AF07B1F12113BD9
:1059B40074021218A4150AE50A60030258BB120403
:1059C4001B74041218A47F060219D0C082C083E994
:1059D400900F43F0025BF974F71218FEE990038C00
:1059E400F07CC47D037AFF7BFF12084D90038D7415
:1059F400FFF0A3F0A3E4F0A3F079051207DB900312
:105A04008CE0F91206FD7A657B08120A217F0102F7
:105A140019D074F41218FE8A088B09EB5480603094
:105A240090038CE0F91213698A0A8B0BAE0AAF0B50
:105A3400EE4F60138E828F83E064B070031207ED23
:105A4400EEFAEFFB121357AA08E5096480FB800401
:105A54007A007B00025BC874F21218FE74FC121800
:105A64008EEAFEEBFFEE4F603874021218DAEEF0A5
:105A7400A3EF125E2DECF0A3ED125E2DAA82AB8390
:105A84001206F7E9F508707374121218DA1269E154
:105A9400E50A450B60658E828F83125B09EE4F70B9
:105AA4000575080280557A067B001213F38A0C8B65
:105AB4000DA80CA90DE8497005750813803D88826E
:105AC4008983E4125B13A3A3EEF0A3EF126E7AE5CD
:105AD4000AF0A3E50BF0900392125B9B9003926093
:105AE40017E0FCA3E08003EAFCEBFD8C828D8312BB
:105AF4005B9B70F38C828D83126906A9087404126F
:105B040018A402707CA3A3A3A3E0FEA3E0FF22F0E9
:105B1400A3F0888289832274F21218FE890AE97537
:105B2400F017A4FEAFF0900391E4F090038F125BA2
:105B34009B600A1213F990038FE4F0A3F0EEFAEFDE
