:020000040000FA
:0600000002011D021D03B8
:03002B0002224965
:03005300021D7615
:03006B0002221757
:10008300021BB7E5C754F84401F5C7790122000004
:100093000080FB120086B90003020107E4791B7894
:1000A30002B800028004F709D8FCE4791D7802B88D
:1000B30000028004F709D8FCE490028178F5790DF9
:1000C3008002F0A3D8FCD9FA781A90014D7A01BACC
:1000D30000028007E493A3F608DAF9900F75AA8269
:1000E300AB8390014E78D479018015E493A3AC825D
:1000F300AD838A828B83F0A3AA82AB838C828D83A8
:10010300D8E9D9E77582957583BB740312012F75FE
:100113008291758300740012012F75D00075813FA1
:10012300751881751902759F00020096C09FF59F8F
:10013300E473D09F22D083D082C09FE493C0E07445
:100143000193C0E0740293F59F2201AD03BF03E95D
:1001530003B303FF0000B400002800280028307513
:10016300A000A000A000A00000080008E001F0002B
:10017300100010001000100010001000500050007C
:10018300500010001000D0070000000000000F0016
:1001930001000500307507001000010081FF000019
:1001A300FF02020298810100008B8102928101000B
:1001B30000CB0F028E81010000B102029281010087
:1001C30000CC0F029481010000C702FFFF0100FF72
:1001D300200298810100008881029281010000FAC7
:1001E3000F02A2810000000000029081030000A41E
:1001F30003270B270B270B270B270B270B270B2774
:100203000B270B270B270B270B270B070D250D019F
:100213000DFFFF01E803053F1002FF00FEFF12017F
:100223003856B2031201386CB20312013899B20383
:10023300120138C9B203120138E0B20312013801C6
:10024300B30312013832B30312013883B30312012B
:10025300389AB303120138A8B003120138BFB003B0
:10026300120138EEB00312013827B1031201384FDF
:10027300B1031201387DB10312013894B1031201A5
:1002830038ABB103120138C1B103120138E8B1032D
:10029300120138FBB10312013811B20312013839CC
:1002A300B20312013804A90212013803AA0212018F
:1002B300382DAA0212013882AA02120138A3AA0217
:1002C300120138BCAA02120138BEAA02120138DF99
:1002D300AA02120138E2AB021201389FAC021201EA
:1002E300386CAD02120138D0AD0212013867AE028C
:1002F3001201386AAE02120138F0AE02120138332D
:10030300AF0212013885AF0212013888AF02120121
:1003130038BFAF02120138E6AF021201387CB002D7
:1003230012013805B1021201384EB1021201385BD5
:10033300B1021201385EB102120138BCB1021201DE
:1003430038D4B1021201384EB20212013851B2024E
:1003530012013874B20212013877B2021201381E48
:10036300B30212013841B30212013859B302120128
:100373003889B30212013896B30212013899B302D5
:1003830012013805B402120138F3B402120138A97C
:10039300B50212013821B602120138FCB60212016D
:1003A300382AB702120138AAB702120138CAB702B3
:1003B30012013808B8021201385BB802120138C3BF
:1003C300B80212013854B9021201381FBA021201DD
:1003D300382EBD021201389ABE02120138BDBE0288
:1003E3001201388E9C031201381F9E0312013870CC
:1003F3009E03120138CF9E03120138DD9E031201C2
:1004030038069F0312013845F9021201386DF902CB
:100413001201389BF902120138D2F9021201383A5B
:10042300FA0212013883FA02120138CEFA021201DB
:10043300380CFB0212013849FB0212013877FB0228
:100443001201381EFC0212013828FC021201383551
:10045300FC0212013868FC021201382AFD02120163
:100463003836FD021201384EFD0212013858FD02E2
:10047300120138D6FD02120138DBB803120138E944
:10048300B80312013801B90312013819B903120173
:100493003831B9031201383BEB01120138D9EB01B2
:1004A30012013851EC0112013866ED01120138A036
:1004B300ED0112013849EE011201381EEF0112015C
:1004C3003882F001120138D9F00112013860F101CC
:1004D30012013847F20112013894F2011201382255
:1004E300F30112013846F3011201381BF501120121
:1004F300385CF5011201387EF50112013843F6012B
:1005030012013809F7011201383EF9011201385E70
:1005130091031201387491031201389A9103120165
:1005230038C29203120138CC920312013825940386
:10053300120138259503120138A1840312013843AF
:100543008503120138768503120138C08503120131
:10055300387A8703120138EEAB011201386CAC0113
:100563001201387CAC011201385FAD011201386908
:10057300AD0112013897AD01120138A2AD0112018C
:10058300387BAE01120138DDAE0112013879AF01BB
:100593001201387DB10112013834B301120138B0B0
:1005A300B3011201388DB401120138BBB701120136
:1005B3003859B801120138B6B90112013829BB0103
:1005C300120138D2BB011201381BBC01120138528F
:1005D300BC01120138F7BC0112013875BD011201CB
:1005E30038BBCD0112013810CE0112013855CF01AD
:1005F30012013865CF0112013888CF01120138D3B7
:10060300CF0112013878D0011201386ED1011201E5
:100613003838D201120138B0D301120138F2D301B4
:1006230012013890D401120138B6D401120138A452
:10063300D601120138A9D6011201388AD801120154
:1006430038DED80112013840D90112013868D901C6
:100653001201380CDA01120138CEDA01120138FF27
:10066300DA0112013802DB011201384ADB011201FF
:10067300388CDB01120138F3DB0112013872A60357
:1006830012013885A6031201388EA603120138A77A
:10069300A603120138F2A603120138CDA7031201F3
:1006A300385CA803120138A7A803120138565C006E
:1006B300120138665C00120138C95C001201380E61
:1006C3005D00120138BE5D00120138975E00120111
:1006D30038C05E00120138F05E0012013804610078
:1006E300120138E06200120138C06400120138F8C8
:1006F30065001201387168001201385D690012014A
:1007030038A36A00120138B06B00120138F26B0093
:100713001201382A6C00120138446C00120138AC03
:100723006C00120138467100120138E771001201A2
:10073300383B7200120138627200120138A0720055
:10074300120138BF72001201381373001201381BF3
:100753007400120138A4740012013812E30212016A
:10076300381CE302120138B8E30212013883E402B1
:10077300120138A2E402120138C8E4021201380758
:10078300E5021201383FE50212013868E502120161
:1007930038A2E502120138B7E50212013884E602F5
:1007A300120138A7E602120138C9E602120138DE47
:1007B300E60212013868E702120138A2E7021201C9
:1007C3003816E8021201385FE80212013889E8029C
:1007D300120138AEE802120138728D031201383C5F
:1007E3008E031201381F8F03120138958F031201F4
:1007F30038D78F03120138049103120138CF8D02C9
:10080300120138F88D02120138118E021201385686
:100813008F021201383490021201385390021201F0
:1008230038E090021201382391021201385B9202E0
:10083300120138C79202120138BD94021201384BDB
:100843009702120138DE9702120138B298021201A0
:1008530038559902120138689A02120138FE9A0239
:10086300120138E0B40312013849B5031201389D6F
:10087300B503120138CCB5031201381D89031201E7
:10088300388A8903120138D58903120138CA8A03C9
:10089300120138C68B03120138B08C03120138855C
:1008A300D602120138CCD602120138A5D7021201A2
:1008B30038A0D8021201387FD902120138EBD902CD
:1008C30012013807DB021201386EDB0212013871A4
:1008D300DB021201389CDB021201380DDC0212012B
:1008E30038B0DC02120138C5DC021201380DDD021A
:1008F30012013826DD0212013829DD021201381EE9
:10090300A0031201385AA00312013898A003120160
:100913003862A103120138D5A10312013810A203D2
:100923001201384EA2031201387EA203120138A528
:10093300A20312013810A30312013852A3031201B8
:1009430038A58101120138C3830112013872850170
:100953001201382286011201386D8601120138B85E
:100963008601120138CA86011201380A8701120171
:10097300383F87011201388B8701120138BA87018A
:10098300120138DD870112013864880112013850E1
:1009930089011201388E8A01120138908B011201EC
:1009A300386C8D01120138909201120138D69201F0
:1009B30012013814930112013849950112013808C4
:1009C300AB03120138A8AC031201387022001201E4
:1009D300380723001201383423001201387A230028
:1009E300120138B02400120138472600120138BF23
:1009F3002600120138012700120138512700120185
:100A030038BC2800120138272B00120138032C00B0
:100A1300120138222C00120138412C0012013844F3
:100A23002C00120138CA2D00120138BF2E0012010A
:100A330038BB2F001201382B30001201389D3000D3
:100A43001201381C3100120138F73100120138FE4F
:100A53003200120138DD330012013868340012010C
:100A630038D634001201384A350012013873350084
:100A73001201383236001201384139001201388A26
:100A83003900120138CD3900120138503A001201F1
:100A930038F43A00120138853B00120138AA3B00B2
:100AA300120138F43B001201381E3C001201386376
:100AB3003C00120138DE3C00120138383D001201BF
:100AC300388C3E00120138493F001201381C4000A7
:100AD3001201380080021201385080021201385C82
:100AE3008002120138398102120138698102120130
:100AF30038A1810212013820820212013858820281
:100B0300120138AA8202120138E782021201380C5C
:100B13008502120138388702120138338902120123
:100B2300380E8B021201386522001201384DDD02A6
:100B33001201387FE102120138CFE2021201382993
:100B4300BE01120138FBC40112013801C5011201B3
:100B530038B1C70112013808F402120138B4F402A3
:100B630012013882F502120138ACF502120138FA8B
:100B7300F7021201384A4000120138944000120172
:100B830038464D00120138C74E00120138BF4F00DE
:100B93001201381E56001201381957001201385637
:100BA3005700120138795700120138BB5700120160
:100BB30038C55700120138B15800120138A5590041
:100BC3001201383E5A00120138F198031201388796
:100BD30099031201389D9903120138179A031201E0
:100BE300386D9A03120138AB9A03120138089B033C
:100BF300120138859B031201388E9B031201389A28
:100C03009B03120138AD9B03120138E99B031201C8
:100C130038FF9B031201385E9C031201384DF90122
:100C23001201385AF90112013874F901120138B36B
:100C3300F901120138F1F90112013856FA011201D2
:100C4300386BFA0112013882FA0112013890FA0165
:100C53001201389FFA01120138B4FA01120138C99E
:100C6300FA01120138D4FA01120138E0FA01120133
:100C730038EDFA01120138FCFA0112013807FB01C1
:100C83001201382CFB01120138D5FB01120138EA9D
:100C9300FB01120138FFFB0112013819FC0112019B
:100CA3003834FC0112013851FC011201385CFC019B
:100CB30012013818FD0112013804FE01120138290E
:100CC300FE0112013833FE0112013847FE01120101
:100CD3003866FE01120138C7FE01120138CDFE014C
:100CE300120138D3FE01120138D9FE01120138E591
:100CF300FE0112013818FF011201380B75001201B1
:100D0300383775001201381B7600120138B57800A8
:100D1300120138CB7900120138E87A001201388BBE
:100D23007B00120138317C001201387A9B021201D8
:100D330038FC9B02120138A59C02120138ED9D027A
:100D4300120138FB9F02120138E1A002120138168A
:100D5300A10212013838A102120138E1A1021201E5
:100D630038B1A302120138DAA30212013852A402E5
:100D730012013884A40212013891A402120138DC52
:100D8300A40212013800A50212013851A702120170
:100D9300385BA802120138B7A802120138BDDC0182
:100DA300120138CEDD01120138B2DE01120138BC66
:100DB300DE01120138DEDE01120138EADE01120122
:100DC300388EE001120138BBE001120138D1E10194
:100DD30012013826E20112013875E3011201384A83
:100DE300E401120138A6E40112013811E5011201F0
:100DF3003846E50112013889E50112013853E8014B
:100E03001201386BE801120138FCE8011201380ABB
:100E1300E90112013857E90112013865E9011201AC
:100E230038D1E9011201384CEA01120138A3EA0171
:100E3300120138EFAE0312013814AF031201388ADE
:100E4300AF0312013896CF021201389FCF0212016D
:100E530038A8CF0212013880D00212013831D202F1
:100E630012013861D2021201388CD202120138BC4D
:100E7300D202120138E7D2021201381BD302120147
:100E83003847D3021201388AD302120138B5D3028C
:100E9300120138FCD30212013851D40212013893E3
:100EA300D402120138EDD40212013818D50212010E
:100EB3003867D50212013897D502120138C2D5021C
:100EC300120138E5D502120138A9BA03120138D547
:100ED300BA0312013802BB031201380CBB0312011F
:100EE300381CBB0312013881EE021201388BEE026B
:100EF300120138CCEE0212013815EF021201384FFD
:100F0300EF02120138A5EF02120138C6EF021201F7
:100F130038CFEF0212013823F0021201384CF002ED
:100F230012013856F002120138C4F002120138548B
:100F3300F102120138AFF102120138DDF1021201A0
:100F43003865F202120138A4F202120138D9F20212
:100F5300120138EBF2021201380AF30212013813BC
:100F6300F302120138DAF302120138EFB603120169
:100F730038FEAC0312013834AD0312013868AD03F7
:100F8300120138B5AE03120138427F0012013858FE
:100F93007F00120138627F00120138AC7F0012011A
:100FA30038008003120138138003120138D4800300
:100FB3001201381381031201383081031201386999
:100FC3008103120138B68103120138E8810312014B
:100FD300381F8203120138288403120138948403D2
:100FE30012013895FF01120138E6B70312013809DF
:100FF300B80312013838B80312013850B80312018C
:101003003892B803120138D6E80212013818E902FF
:1010130012013898E902120138ABE90212013800D3
:10102300EA0212013845EA0212013854EA021201B7
:101033003803EB021201385EEB02120138ADEB020A
:1010430012013807EC0212013814ED021201380CB8
:10105300EE0212013849EE0212013826BB031201D7
:1010630038629701120138609901120138FD9A0123
:10107300120138AA9B011201382A9C01120138ACD3
:101083009C01120138D59C011201380EA1011201F5
:101093003885A1011201389CA201120138D6A201A0
:1010A30012013817A3011201385EA4011201388D11
:1010B300A401120138E3A4011201382CA501120185
:1010C3003898A5011201380CA6011201383AA6017D
:1010D30012013852A6011201386BA7011201387BA5
:1010E300A70112013836A9011201384DA9011201D5
:1010F300387FA9011201381CAB01120138B0AB01D2
:1011030012013863BC03120138EDBB031201382C02
:10111300BC0312013874BC03120138CAB9031201AB
:1011230038DAB903120138EFB903120138A3BA034D
:10113300120138EDB50312013872B603120138D625
:10114300B603120138B1B303120138D3B30312014A
:101153003834B40312013846B40312013896B40389
:10116300120138D4B403120138D7B4031201382F53
:101173009503120138439503120138BD95031201FB
:1011830038A19603120138789803120138DD9803C9
:10119300120138F87F00120138D1A8031201385E1A
:1011A300AA03120138BFAA0312013805AB031201C7
:1011B3003867FE02120138B9FE021201382CFF0211
:1011C30012013899FF021201389AA303120138C49D
:1011D300A30312013893A4031201386FA50312016C
:1011E3003800A603120138F5BF02120138C1C0024C
:1011F30012013802C1021201383CC1021201389AAD
:10120300C102120138EEC1021201384CC2021201AE
:1012130038E2C202120138EAC30212013874C5026D
:1012230012013812C60212013879C6021201388C33
:10123300C60212013880C702120138C9C70212015F
:10124300382BC80212013832C9021201384ACA02C5
:10125300120138A6CB02120138A9CB02120138526F
:10126300CD0212013855CD0212013858CD021201B8
:1012730038F0CE0212013836BC03120138D87F0091
:10128300E066701008A3E066700A08A3E0667004C5
:1012930008A3E06622C3E7960809E7960809E796DC
:1012A3000809E79622C3E09608A3E09608A3E09610
:1012B30008A3E09622C008C3E096F50808A3E096C9
:1012C300420808A3E096420808A3E0964508700187
:1012D300D3D00822080808EAC0E0EBC0E086F0E7B4
:1012E300A4FA180986F0E7A42AFA180986F0E7A4F5
:1012F3002AFA180986F0E7A42AFA1986F0E7A4FB6C
:10130300E5F02AFA190886F0E7A42BFBE5F03AFA90
:10131300190886F0E7A42BFBE5F03AFA18180986BA
:10132300F0E7A4C5F02BFBE43AFA1908E7C5F0C6C9
:10133300A426F6E5F03BFBE43AFA1886F0E7A4F6B8
:10134300E5F00826F6E43B08F6E43A08F6D0E0FBBD
:10135300D0E0FA22E4CFC0E0E4CEC0E0E4CDC0E0C8
:10136300E4CCC0E075F020C3E633F608E633F608B4
:10137300E633F608E633F6181818EC33FCED33FDC4
:10138300EE33FEEF33FFC3EC9709ED9709EE9709B0
:10139300EF97191919400FFFEC97FC09ED97FD0919
:1013A300EE97FE191906D5F0BEECF709EDF709EE35
:1013B300F709EFF7191919D0E0FCD0E0FDD0E0FEF2
:1013C300D0E0FF226016080808C6C313C618C61368
:1013D300C618C613C618C613C6D5E0EA2270090894
:1013E3000808226016181818C6C333C608C633C6C1
:1013F30008C633C608C633C6D5E0EA22E627F60890
:1014030009E637F60809E637F60809E637F622E073
:1014130026F608A3E036F608A3E036F608A3E0367E
:10142300F622E026F008A3E036F008A3E036F00841
:10143300A3E036F022C3E697F60809E697F6080913
:10144300E697F60809E697F622C3E096F008A3E0CC
:1014530096F008A3E096F008A3E096F022E657F68C
:101463000809E657F60809E657F60809E657F6228B
:10147300E056F608A3E056F608A3E056F608A3E004
:1014830056F622E056F008A3E056F008A3E056F023
:1014930008A3E056F022E066F608A3E066F608A388
:1014A300E066F608A3E066F622E0F608A3E0F60895
:1014B300A3E0F608A3E0F622E6F008A3E6F008A30B
:1014C300E6F008A3E6F022E0FAA3E0FBA3E0FCA326
:1014D300E0FD22EAF0A3EBF0A3ECF0A3EDF022CAC7
:1014E300C0E0E6F0A308DAFAD0E0FA22CAC0E0E0EE
:1014F300A3C582CCC582C583CDC583F0A3C582CCE9
:10150300C582C583CDC583DAE6D0E0CA22C3E49899
:10151300F8E499F91215518026C3E49AFAE49BFB87
:10152300E920E7E9121551E498F8E499F922C3E4B4
:1015330098F8E499F9121551E498F8E499F9C3E499
:101543009AFAE49BFB22EB20E7CFE920E7E0B9001E
:1015530010BB0008E88AF084F8AAF022E4FBC8FA7A
:1015630022EB70227B10C833C8C933C9335007C379
:101573009AC3DBF280069A50012ADBEAC833F4C827
:10158300C933F4C9FA2275F008E4C833C8C933C9AA
:1015930033C99AC99B5004C92AC93BD5F0ECFBC88F
:1015A30033F4C8E4C9FA22600D08C6A2E713C618CB
:1015B300C613C6D5E0F322600C08C6C313C618C60B
:1015C30013C6D5E0F422700422600D18C6C333C6D7
:1015D30008C633C6D5E0F41822251810AF08F5184D
:1015E300400215198008F51840021519D2AF22C020
:1015F300D0251810AF08F518500205198008F51802
:1016030050020519D2AFD0D0222518F58210AF08A9
:10161300F518400215198008F51840021519D2AFC4
:10162300851983222518F582E43519F58322E4739D
:101633002518C582C0E0E51934FFC583C0E0E5186D
:10164300C3958224F810AF08858319858218800812
:10165300858319858218D2AFCEF0A3E520F0A37855
:1016630008E608F0A3DEFAEFF0A3E58124FAF8E632
:1016730008F0A3E608F0A3E608F0A30808E608F0DC
:10168300A3E608F0A315811581D0E0FED0E0F8159C
:101693008115811581E8C0E0EEC0E0222518C582DE
:1016A300C0E0E51934FFC583C0E0E518C395822483
:1016B300F910AF08858319858218800885831985F9
:1016C3008218D2AFCEF0A3E520F0A37808E608F0A5
:1016D300A3DEFAEFF0A3E58124FBF8E608F0A3E626
:1016E30008F0A30808E608F0A3E608F0A31581159F
:1016F30081D0E0FED0E0F815811581E8C0E0EEC0AE
:10170300E022851983851882E0A3FEE0A3F5207803
:1017130008E0A3F608DFFAE0A3FFE0A3C0E0E0A33C
:10172300C0E0E0A3C0E0E0A3C0E0E0A3C0E010AFEE
:10173300088582188583198008858218858319D2C4
:10174300AFD083D082020135851983851882E0A347
:10175300FEE0A3F5207808E0A3F608DFFAE0A3FF94
:10176300E0A3C0E0E0A3C0E0E0A3C0E0E0A3C0E0EA
:1017730010AF0885821885831980088582188583B0
:1017830019D2AFD083D08222C0D02518C582C0E041
:10179300E51934FFC583C0E0E518C3958224F3102F
:1017A300AF08858319858218800885831985821877
:1017B300D2AFC8F0A3E9F0A3EAF0A3EBF0A3790852
:1017C300E709F0A3D8FAECF0A3EDF0A3EEF0A3EF52
:1017D300F0A3D0E0F0A3D0E0F0A3D0E0F0A3E520A5
:1017E300F0A3E5F0F0A322851983851882E0C0E019
:1017F300A3E0F9A3E0FAA3E0FBA37808E0F608A3CB
:10180300DFFAE0FCA3E0FDA3E0FEA3E0FFA3E0C05A
:10181300E0A3E0C0E0A3E0F5D0A3E0F520A3E0A3BC
:10182300F5F010AF08858319858218800885831920
:10183300858218D2AFD082D083D0E0F8D0E0327462
:10184300048006740280027401C0E0F40412160CD2
:10185300D0E01214E2227404800474028000CCC02D
:10186300E0EDC0E0E518C39CCCAD1950011D10AFED
:10187300068C188D1980068C188D19D2AF1214EFAF
:10188300D0E0FDD0E0FC22D083D082E9C0E0E49335
:10189300A3C386F0C5F095F0F908E493A386F0C5D9
:1018A300F095F0700BE493A3C3994005E90480021B
:1018B300A3E475F002A42582F582E5F03583F58370
:1018C300D0E0F9E493A3C0E0E493C0E022D083D056
:1018D30082ECC0E0EDC0E0E493A3FCE493A3FDED50
:1018E3004C600D12191CEC24FFFCED34FFFD80EF5E
:1018F300E493A3FCE493A3FDED4C600D12195BECA0
:1019030024FFFCED34FFFD80EFD0E0FDD0E0FCE4EC
:1019130093A3C0E0E493C0E022C0E0C3E49396083D
:101923007401939618400FE493667008087401934A
:10193300661870007019A3A3C3E493960874019307
:101943009618A3A3400DD0E0D0E0D0E002190CA379
:10195300A3A3A3A3A3D0E022C0E0C0F088F0E49344
:101963006670080874019366187000A8F0A3A3704A
:101973000BD0F0D0E0D0E0D0E002190CA3A3D0F05C
:03198300D0E0228F
:1019880074F512169FEAFEEBFFEE2434F8EF3400EC
:10199800F988088909EE2435F582EF3400F583E0EB
:1019A800F8EE2437F582EF3400F583E0F50AEC858C
:1019B8000AF0A4FCAAF0850AF0EDA42AFDE82CF8A8
:1019C800E43DF97A257B00121551EA8508828509DC
:1019D80083F05407F87401B800028004C333D8FCBC
:1019E800C0E0E0131313541FF8EE28F8EF3400F9A1
:1019F800E8245DF582E93400F583D0E0F8E058602A
:101A080008EE2434F582EF801EEE2436F582EF349A
:101A180000F583E0F5F0EA84A8F0EE28F8EF34004A
:101A2800F9E82438F582E93400F583E0F97F040207
:101A3800174B74F512169FEAFEEBFFEE2434F5827D
:101A4800EF3400F583E0C0E0EE2435F582EF340092
:101A5800F583D0E0F08E828F83A3A3A3A3A3A3A3CF
:101A6800C082C0838E828F83A3A3A3A3A3E0F8A31D
:101A7800E0F9D083D082E0C398F508A3E099F5098E
:101A8800EE2480F582EF3400F583E064017069EE9E
:101A98002481F582EF3400F583E0F8A3E0F98E8223
:101AA8008F83A3A3A3A3A3A3A3E0FCA3E0FD8E823B
:101AB8008F83A3A3A3A3A3E0FAA3E0FBC3EA9CEB51
:101AC8009D5027C3EC98ED99402EC3EA98EB9950A6
:101AD800277CE27D07EEFAEFFB120A6DEE2480F513
:101AE80082EF3400F583E4F0800EC3EA98EB994066
:101AF800E0C3EC98ED9950D9EE2434F8EF3400F9AE
:101B0800E8FCE9FDEE2435F582EF3400F583E0F8D2
:101B1800EE2437F582EF3400F583E0F50AE5088511
:101B28000AF0A4F508AAF0850AF0E509A42AF5093F
:101B3800E82508F8E43509F97A257B00121551EAF9
:101B48008C828D83F05407F87401B800028004C3B6
:101B580033D8FCC0E0E0131313541FF8EE28F8EF55
:101B68003400F9E8245DF582E93400F583D0E0F823
:101B7800E0586008EE2434F582EF801EEE2436F536
:101B880082EF3400F583E0F5F0EA84A8F0EE28F857
:101B9800EF3400F9E82438F582E93400F583E0F9F8
:101BA800122209021A350000851B87851CC622C02F
:101BB800E0C0D0E8C0E0E9C0E0EAC0E0EBC0E0EC9B
:101BC800C0E0EDC0E0C008C009C00AC00BC082C0B8
:101BD80083C0F0759B00906182E0A2E64003021C7E
:101BE80095E591A2E64003021C957591BF90049972
:101BF800E064057008120BF3120BFF8003120BF957
:101C0800751B00120C5FE990049AF07900120C41E0
:101C18001209DD7A017B00900498E0F9120F4190D7
:101C28007803E064426003021CDE900817E014F0B9
:101C38006003021CDEC2AF121C4200781ED0E0F620
:101C480018D0E0F6E59F5407F970059080FC8003F2
:101C580090810078081214ACE9C4C0E0781DE655FC
:101C680008F50808E65509F509740B78081215BA3D
:101C7800D0E02508F8906270E0A2E740F8E8C333A6
:101C8800906272F0906270E0D2E0F08049E0A2E5E4
:101C98005024E591A2E5501E7591DF900499E06407
:101CA8000D70139004BBE004F064287002E4F07A2D
:101CB80000E0F9120CEF906181E0A2E35009E5E938
:101CC800A2E3500375E9F7A3E0A2E75009E591A262
:101CD800E7500375917FD0F0D083D082D00BD00A23
:101CE800D009D008D0E0FDD0E0FCD0E0FBD0E0FA8D
:101CF800D0E0F9D0E0F8D0D0D0E032C0E0C0D0C019
:101D080082C083906183E0A2E05009E5BFA2E05061
:101D18000375BFFEE0A2E15009E5BFA2E1500375DB
:101D2800BFFDE0A2E25009E5BFA2E2500375BFFB88
:101D3800E0A2E35009E5BFA2E3500375BFF7E0A2B4
:101D4800E45009E5BFA2E4500375BFEFE0A2E550F7
:101D580009E5BFA2E5500375BFDFE0A2E65009E53B
:101D6800BFA2E6500375BFBFD083D0828088C0E091
:101D7800C0D0E8C0E0E9C0E0EAC0E0EBC0E0ECC0F9
:101D8800E0EDC0E0C0F0E5A7A2E6500FE5A1A2E6AD
:101D9800500953A7BF75A1BF121DDBE5A7A2E550E7
:101DA8000CE5A1A2E5500653A7DF75A1DFE5A7A2C0
:101DB800E15009E5A1A2E1500375A1FDE5A7A2E262
:101DC800500CE5A1A2E2500653A7FB75A1FBD0F089
:101DD800021CEC74F812169F751B01900499E064BC
:101DE800067015120B9F8A828B83A3A3A3A3A3A3B8
:101DF800E0FAA3E0FB120BE1A2AFE433FED2AF900E
:101E0800049FE0640170187A207B00900498E0F940
:101E1800120FC57A207B00900498E0F9120F4790C2
:101E28006182E0D2E6F0900816E0602185C61C8049
:101E38001690049EE064017008E5C654F84405F560
:101E4800C653BEFC121BB07401651B60E4EEA2E031
:101E580092AF7F0102174B74EB12169F74FA12159A
:101E6800DC8A088B098C148D15900499E024F7C33B
:101E78009405500690814C021FC1120B9F8A0A8B51
:101E88000BAE0AAF0BEE4F7003021FBEAC08AD09D4
:101E9800851882851983AA82AB83120C118E828FD2
:101EA80083A3A378081214AC9080E87808121473FE
:101EB800851882851983780C1214AC9080E8780C08
:101EC8001214737808790C121298501F7808790C3C
:101ED80012143890812078081212B84047850810EB
:101EE800850911850A12850B138041850C10850D13
:101EF80011850E12850F1378107908121438908105
:101F08002078101212B8501C751000751100751247
:101F1800007513017810790C1214387810790812AA
:101F280013FF800890814C78101214AC7409781053
:101F38001213E090818478081214AC781079081292
:101F480013578E828F83A3A3A3A3A3A3E0F8A3E0D0
:101F5800F97AD07B0312155188088909E4F50AF546
:101F68000B781079081213FF7404121627E0F8A3EF
:101F7800E0F97AD07B03121551E8FA8A08E4F509EA
:101F880078107908121298500778107908121438C6
:101F9800900499E06408600AE064066005E064055E
:101FA800701C90812478101212B8501290812878F1
:101FB80010121412800890813878101214AC85140D
:101FC8008285158378101214BB74061215F27F0EE1
:101FD80002174B74F712169F120C23900814E06432
:101FE800017010906245E4F0A3F053F4F343FE0C43
:101FF8005390F3120BCFE5C654804449F5C6E59ECD
:10200800547F644970F8906185740FF0900812E06D
:10201800F47002A3E0604E900813E0600814601B9F
:1020280014602E8040750801750900900812E07848
:10203800081215C9E508F45280802A750801750947
:1020480000900812E078081215C9E508F45290804B
:1020580014750801750900900812E078081215C96E
:10206800E508F452A079007F0202174B74F71216A4
:102078009FE9FEEAFF74016E700C7A807B00900481
:1020880098E0F9120F41902268E493F46008E49311
:10209800F91209D1800953C680E59E547F70FA125F
:1020A8000BD5900814E0640170031209E990081236
:1020B800E0F47002A3E0604B900813E0600814603D
:1020C8001A14602C803D750801750900900812E00B
:1020D80078081215C9E50842808028750801750935
:1020E80000900812E078081215C9E508429080139C
:1020F800750801750900900812E078081215C9E5FD
:102108000842A0120C23120B9F8A088B09A808A961
:1021180009E8496015E5E170FCE82414F582E93422
:1021280000F583E0F46003E0F5E174016F700A7A6A
:1021380001900498E0F9120F9502206F74F11216BD
:102148009F8A088B098C0A8D0B740F121627780C3E
:102158001214AC9080E878081214739080E8780C18
:102168001214737808790C12129850157808790CA3
:1021780012143890812078081212B840157901801D
:1021880013780C7908121438908120780C1212B840
:1021980040EB79007F0802174B74ED12169F8A08EE
:1021A8008B098C0A8D0B7413121627780C1214AC39
:1021B8009080E878081214739080E8780C121473F1
:1021C800780C790812129840117808790C12143892
:1021D800AA08AB09AC0AAD0B802275100075110076
:1021E8007512007513017810790C1214387810796B
:1021F800081213FFAA10AB11AC12AD137F0C021713
:102208004BC082C083E9906000F0D083D08222C0A6
:10221800E074F212178BA2AFE433FED2AFE589A2C5
:10222800E04006E589A2E1500312115D7589007549
:102238008900C2C5751A00EEA2E092AF7F010217AD
:10224800EAC0E0C0D0E8C0E0E5A8D2AFC2C7751ABE
:1022580000A2E792AFD0E0F8D0D0D0E0320201354A
:10226800FFFFFFFFFFFFFFFFC082C08390619074F4
:1022780004F0A37448F0A37402F09061807440F0F5
:102288009061BC7403F09061877419F09062657472
:102298001BF090619C740DF090619A7433F0A374F4
:1022A80055F09061A0743AF0900814E06401700948
:1022B800C29190049D7467800590049D7461F090AC
:1022C800226EE493906186F0902268E493F460278C
:1022D800E493540FF8906185E0686012E5C6548075
:1022E8004449F5C6E59E547F644970F8E8F053C642
:1022F80080E59E547F70FA7905120CD10226FAC047
:1023080082C083E9540FF9906185E0696012E5C6DF
:1023180054804449F5C6E59E547F644970F8E9F055
:1023280053C680E59E547F70FA0226FAC082C083A5
:10233800E5A8F853A87E906181E4F0A3F0A3F0C269
:10234800BA539AFEC289759B00C2C275E90075919D
:102358000075BF0075A91175B905906181F0A37466
:10236800C0F0A3E4F0D2BA439A0174805842A8029C
:1023780026FAC082C08374F81215DC90049BE0F83A
:10238800A3E0F9E84970030224A890049BE05440B4
:1023980060237908851882851983AA82AB83120A7B
:1023A800DF851882851983AA82AB831207C190043E
:1023B8009BE054BFF0E054806010790C7A387B08B9
:1023C800120ADF90049BE0547FF0E0A2E0503190C5
:1023D800619A7433F0A37455F09061A0743AF09048
:1023E8000814E064017009C29190049D7467800527
:1023F80090049D7461F01207C790049BE054FEF0AE
:10240800E05402603190619A743FF0A3745AF090DE
:1024180061A0747FF0900814E064017009D2919073
:10242800049D7471800590049D746AF01207C7902A
:10243800049BE054FDF0E05404601390226CE49394
:10244800906186F01207CD90049BE054FBF0E054B5
:1024580008601390226DE493906186F01207CD9086
:10246800049BE054F7F0E05410601390226EE4935C
:10247800906186F01207CD90049BE054EFF0E05491
:1024880020600A1207CD90049BE054DFF0A3E054CB
:1024980001600D1209E91207D390049CE054FEF084
:1024A80074081215F20226FA74EC12163374F41238
:1024B80015DC851882851983AC82AD837583807598
:1024C80082E474041214EF90226C93F460030226E1
:1024D8003D907808E0C39402500302261D7404124C
:1024E8001627AC82AD837583807582B67408121482
:1024F800EF851882851983858212858313740412E7
:102508001627AC82AD83750EFF750FFF7FFF7E0027
:10251800750C48750D78801574086E70030225B027
:1025280074096E70030225B0740A6E607B850C8294
:10253800850D8378081214AC8C828D83A909E50A6D
:10254800C9F88810741878081213C7E5104508F8F8
:10255800C3E098A3E099850C82850D83780812144E
:10256800AC40188C828D83741878081213C7E51054
:102578004508F8E0C398F8A3E0801C74187808129E
:1025880013C7E5104508FAE9FB8C828D83E0F8A3B0
:10259800E0F9EAC398F8EB99F9C3E8950EE9950FC5
:1025A8005006880E890FEEFF0EE50C2404F50CE5A5
:1025B8000D3400F50DEEC39413500302252074FF6B
:1025C800650E700474FF650F60238F087402780825
:1025D8001215C974482508F58274783509F5837889
:1025E800081214AC851282851383E508F0EC2402E6
:1025F8000C0CED3400FD851282851383A3858212AD
:10260800858313740C121627E5826C7003E5836DBD
:10261800600302250E75080175090078081218462E
:102628007402121627AC82AD837A9B7B081211398B
:1026380074021215F2740C1215F27F0C021705C001
:1026480082C0839061AE7468F0A3746AF0906245AA
:1026580074FBF0A304F053F4FD43FE0290081474D5
:1026680001F09061A0E0643A90619A70237433F0AD
:10267800A37455F09061A0743AF074016401700974
:10268800C29190049D7467802890049D7461802194
:10269800743FF0A3745AF09061A0747FF0740164E1
:1026A800017009D29190049D7471800590049D7405
:1026B8006A8000F00226FAC082C0839007F2E064C4
:1026C8000170159007F8E064016009E0700AA3E062
:1026D80064017004790C8012900809E064017008A4
:1026E80090080FE0640160EC79000226FAE0F91224
:1026F8002209D083D082020135C082C0839007FCB2
:102708007425F09007FA7401F0A3E4F07A01FB1243
:102718000C4D9007E8E02416F8A3E03400F988820D
:102728008983740DF0A3740AF09007F9E0640170CE
:10273800169007F8E070107901120CAD120C7D129A
:102748000CA77900120CB980A9C082C08374FA1250
:1027580015DC9007F1E0640170081209F59007F1A3
:10276800E4F075E1F19007E8E02415F8A3E03400FF
:10277800F9888289837401F09007F3E06401707628
:102788009080CAC082851882851983AC82AD837512
:102798008380D08274061214EF75D90D9007EAE091
:1027A800C4333354C04403F5D978E879078882895B
:1027B80083A3A3A3E0F5D988828983A3A882A983E8
:1027C800E864EE7003E9640770E38518828519836D
:1027D800A882A98388828983E0F5D9A3A882A983DE
:1027E8007406121627E582687003E5836970E5753B
:1027F800E195790180027900120C5390101B7457EF
:10280800F0A3740BF0A3745DF0A3740BF0A37457DA
:10281800F0A3740BF0A37457F0A3740BF0A3742700
:10282800F0A3740BF0A37427F0A3740BF0A37463E4
:10283800F0A3740BF09010297427F0A3740BF0A385
:102848007427F0A3740BF0A37427F0A3740BF0A300
:102858007427F0A3740BF0A37427F0A3740BF0A3F0
:102868007427F0A3740BF09007EAE0F97AEB7B0782
:10287800120C2F9007FCE0F91222097901120C5969
:102888009080E01214CA120C719080F81214CA12C7
:102898000C3B7900120CC59007E8E02414F8A3E07B
:1028A8003400F9888289837416F09004997405F0CD
:1028B800040224AA74F71216338908A808E875F0E8
:1028C80006A4C8AAF02AF974C928FE740439FF902E
:1028D8000801E0F97A027B08120C2F90080FE070CB
:1028E8001A7900120C8F9007DBE0700B79007ADC04
:1028F8007B07120C358009790180F37901120C8F5E
:1029080075E1F175D923900801E0C4333354C0440C
:1029180005F5D978FF790788828983A3A3A3E0F511
:10292800D988828983A3A882A983E864057003E90A
:10293800640870E375D90075D90075D90075D90098
:1029480075D90075D900EEF8EFF9E82404FAE934EE
:1029580000FBE82422F582E93400F583E0F5D98804
:10296800828983A3A882A983EA687002EB6970E26E
:10297800EEF8EFF9E824031AE93400FBE82426F519
:1029880082E93400F583E0F5D988828983A3A88297
:10299800A983EA687002EB6970E2EE242BF582EFF6
:1029A8003400F583E0F5D9EEF8EFF9E824021AE9E6
:1029B8003400FBE8242CF582E93400F583E0F5D9EE
:1029C80088828983A3A882A983EA687002EB697068
:1029D800E2EEF8EFF9E8242EF582E93400F583E019
:1029E800F5D988828983A3A882A983EA687002EB53
:1029F8006970E2EEF8EFF9E82430F582E93400F581
:102A080083E0F5D988828983A3A882A983EA6870BC
:102A180002EB6970E2EEF8EFF9E82432F582E93466
:102A280000F583E0F5D988828983A3A882A983EA7F
:102A3800687002EB6970E2EEF8EFF9E824050A0A1B
:102A48000AE93400FBE8245DF582E93400F583E007
:102A5800F5D988828983A3A882A983EA687002EBE2
:102A68006970E2EE2437F582EF3400F583E0541FF5
:102A7800F8EE242AF582EF3400F583E0C43354E0FD
:102A880048F5D975E19590101B742DF0A3740BF0DF
:102A9800A37433F0A3740BF0A37427F0A3740BF0A2
:102AA800A37427F0A3740BF0A37427F0A3740BF09E
:102AB800A37427F0A3740BF0A37439F0A3740BF07C
:102AC8009010297427F0A3740BF0A37427F0A37453
:102AD8000BF0A37427F0A3740BF0A37427F0A3746E
:102AE8000BF0A37427F0A3740BF0A37427F0A3745E
:102AF8000BF090080EE0F91222099080E01214CA37
:102B0800120C719080F81214CA120C3B90600DE4FC
:102B1800F07901120CC59004997406F0023117740B
:102B2800EC1216339007FFE0F8A3E0F5838882A340
:102B3800A378101214AC900810E0FAF875F006A407
:102B4800C8ACF02CF974F728F582740439F583E0E1
:102B5800FEA3E0FFEEC333FEEF33FF8E0CF50D75D9
:102B68000E00750F0085100885110985120A851356
:102B78000B9080F078081214127808121842851009
:102B88000885110985120A85130B7808790C121328
:102B9800FF7810790C121357E4F50EF50F780879C1
:102BA8000C1214388A0C750D007403780C1215C9B0
:102BB8007808790C1213FF9080E87808121473AA29
:102BC80008AB09AC0AAD0B1221A174041215F28AE4
:102BD800088B09A808A909C3EE98EF995006E82EB2
:102BE800F8E93FF9E890600EF0E9A3F0EEA3F0EF02
:102BF800A3F090600D74C1F0022642C082C0839099
:102C080007E8E0F8A3E0F5838882A3A3A3A3A3A31E
:102C1800E4F0A3F09007FC0226F5C082C083900779
:102C2800FFE0F8A3E0F5838882A3A3A3A3A3A3E40A
:102C3800F0A3F090080E0226F502013574F612167C
:102C4800339061D0E0F87480C398FCEA2483F5825D
:102C5800EB3400F583E06004780480027800E8240F
:102C68000EF8ECC3985003022DC57E0C900818E4AA
:102C7800F0EA2477F582EB3400F583E0900819F048
:102C8800EA2478FCEB3400FD781A79087F028C82FC
:102C98008D83E088828983F08C828D83A3AC82AD9A
:102CA8008388828983A3A882A9831FEF70E0EA241E
:102CB8007AFCEB3400FD7F028C828D83E088828968
:102CC80083F08C828D83A3AC82AD8388828983A3B1
:102CD800A882A9831FEF70E0EA247CFCEB3400FD96
:102CE8007F028C828D83E088828983F08C828D8339
:102CF800A3AC82AD8388828983A3A882A9831FEFAE
:102D080070E0EA247EFCEB3400FD7F028C828D8328
:102D1800E088828983F08C828D83A3AC82AD83881E
:102D2800828983A3A882A9831FEF70E0EA2475FC37
:102D3800EB3400FD8A828B83A3A3A3A3A3E0F50849
:102D4800A3E0F5098C828D83E02508F0A3E035091E
:102D5800F07F028C828D83E088828983F08C828D5B
:102D680083A3AC82AD8388828983A3A882A9831FA9
:102D7800EF70E0EA2483F582EB3400F583E0601914
:102D880075081875090878081218467C0C7903121A
:102D98000B1B74021215F27E1074012EF5D975D929
:102DA80003758218758308EEFFE0F5D9A31FEF704D
:102DB800F875E1957904120C77790180027900029F
:102DC80032F974F61216339061D0E0F87480C39823
:102DD800FCEA2483F582EB3400F583E06004780490
:102DE80080027800E8240AF8ECC3985003022EBA4F
:102DF8007508089008187401F07CE27D0778197945
:102E0800087E058C828D83E088828983F08C828D90
:102E180083A3AC82AD8388828983A3A882A9831EF9
:102E2800EE70E0EA2481FCEB3400FD8A828B83A3F8
:102E3800A3A3A3A3E0FEA3E0FF8C828D83E02EF082
:102E4800A3E03FF07E028C828D83E088828983F044
:102E58008C828D83A3AC82AD8388828983A3A88268
:102E6800A9831EEE70E0EA2483F582EB3400F58333
:102E7800E0601A75081875090878081218467C0861
:102E88007903120B1B74021215F275080C740125D4
:102E980008F5D975D903758218758308AE08E0F569
:102EA800D9A31EEE70F875E1957904120C777901B3
:102EB800800279000232F974F7121633EAFEEBFF4A
:102EC8009061D0E06003022FB675D91875D90375E3
:102ED800D903EEF8EFF9E82408FAE93400FBE8240E
:102EE8009CF582E93400F583E0F5D988828983A3CB
:102EF800A882A983EA687002EB6970E2EEF8EFF93C
:102F0800E82402FAE93400FBE824A4F582E9340055
:102F1800F583E0F5D988828983A3A882A983EA6822
:102F28007002EB6970E2EE2494F582EF3400F583C9
:102F3800E5822408F8E5833400F9E0F5D9A3E865CB
:102F4800827003E9658370F2EE2488F582EF34001D
:102F5800F583E5822404F8E5833400F9E0F5D9A384
:102F6800E865827003E9658370F275E1957908EE8A
:102F78002494FAEF3400FB120AD37904EE2488FA79
:102F8800EF3400FB120AD37904120C77EE2470F5A3
:102F980082EF3400F583E0F8A3E0F9EE2472F582BD
:102FA800EF3400F583E8F0A3E9F0790180027900B5
:102FB80002311774F6121633EAFEEBFF9008187404
:102FC80006F075081875090878081218467C017902
:102FD80003120B1B74021215F275D90675D9037505
:102FE8008218758308E0F5D9A3E582641D7004E5AD
:102FF80083640870F075E195900499E06408701E88
:10300800EE2470F582EF3400F583E0F8A3E0F9EEE2
:103018002472F582EF3400F583E8F0A3E9F0790132
:103028000232F974F6121633EAFEEBFF9061D0E033
:10303800705E900818740AF0750818750908780801
:103048001218467C017903120B1B74021215F275D3
:10305800D90675D903758218758308E0F5D9A3E5F3
:1030680082641D7004E583640870F075E195EE24B0
:1030780070F582EF3400F583E0F8A3E0F9EE2472EE
:10308800F582EF3400F583E8F0A3E9F079018002D6
:1030980079000232F974F6121633EAFEEBFF9061FA
:1030A800D0E070667801900818740BF0900499E0ED
:1030B8006407701975081875090878081218467C8D
:1030C800017903120B1B74021215F278057401289A
:1030D800F5D975D903758218758308E8FAE0F5D92A
:1030E800A31AEA70F875E195EE2470F582EF3400C2
:1030F800F583E0F8A3E0F9EE2472F582EF3400F5E9
:1031080083E8F0A3E9F07901800279000232F97FBF
:103118000102170574F6121633EAFEEBFF9061D030
:10312800E0F87480C398FAEE2483F582EF3400F552
:1031380083E06004780480027800E8240BF8EAC38E
:103148009850030231F27D099008187408F0EE24B3
:10315800E5F8EF3400F97A197B087C0888828983BE
:10316800E08A828B83F088828983A3A882A9838AD4
:10317800828B83A3AA82AB831CEC70E0EE2483F5D8
:1031880082EF3400F583E0601D750818750908782A
:10319800081218467C097903EEFAEFFB120B1B7430
:1031A800021215F27D0D74012DF5D975D9037582BA
:1031B800187583088D08E0F5D9A31508E50870F699
:1031C80075E1957904120C77EE2470F582EF3400DE
:1031D800F583E0F8A3E0F9EE2472F582EF3400F508
:1031E80083E8F0A3E9F07901800279000232F974EA
:1031F800F6121633EAFEEBFF9061D0E0F87480C354
:1032080098FAEE2483F582EF3400F583E0600478C1
:103218000480027800E82408F8EAC39850030232D0
:10322800F77D06900818740CF09004B6E090081921
:10323800F07AB77B04781A79087C028A828B83E05B
:1032480088828983F08A828B83A3AA82AB8388824F
:103258008983A3A882A9831CEC70E07AB97B047CDB
:10326800028A828B83E088828983F08A828B83A397
:10327800AA82AB8388828983A3A882A9831CEC7065
:10328800E0EE2483F582EF3400F583E0601D7508D5
:103298001875090878081218467C067903EEFAEFC3
:1032A800FB120B1B74021215F27D0A74012DF5D95D
:1032B80075D9037582187583088D08E0F5D9A315AB
:1032C80008E50870F675E1957904120C77EE24701C
:1032D800F582EF3400F583E0F8A3E0F9EE2472F507
:1032E80082EF3400F583E8F0A3E9F07901800279F0
:1032F800007F0202170574F6121633EAFEEBFF9000
:1033080061D0E0F87480C398FAEE2483F582EF3434
:1033180000F583E06004780480027800E82404F86B
:10332800EAC39850030233D87802900818E8F0EE00
:1033380024F7F582EF3400F583E0900819F0EE24C5
:1033480083F582EF3400F583E0601B750818750972
:103358000878081218467C027903EEFA120B1B74DF
:10336800021215F27806740128F5D975D903758209
:10337800187583088808E0F5D9A31508E50870F6DC
:1033880075E195EE2474F582EF3400F583E4F0EEF0
:103398002480F582EF3400F583E4F0EE241DF582F5
:1033A800EF3400F583E4F0A3F07904120C77EE24EF
:1033B8000DF582EF3400F583E0F8A3E0F9EE24720E
:1033C800F582EF3400F583E8F0A3E9F07901800293
:1033D80079000232F974F61216339061D0E0F8746D
:1033E80080C398FCEA2483F582EB3400F583E0601F
:1033F80004780480027800E82404F8ECC398405B61
:1034080079029008187407F0EA24F8F582EB340082
:10341800F583E0900819F0EA2483F582EB3400F58F
:1034280083E0601875081875090878081218467C32
:103438000209120B1B74021215F27906740129F5A0
:10344800D975D903758218758308E9F8E0F5D9A309
:1034580018E870F875E1957901800279000232F96F
:1034680074F5121633E9FCA2AFE433F50AC2AF7D56
:103478000080010DEA246FF582EB3400F583E0F853
:10348800EDC398501A8D08EA2508F8EB3400F9E8DE
:10349800246BF582E93400F583E06C70D68024EA69
:1034A800246FF8EB3400F9E0FEEA2EFAEB3400FB67
:1034B800EA246BF582EB3400F583ECF0888289838B
:1034C800E004F0E50AA2E092AF7F0302170574F664
:1034D800121633A2AFE433FDC2AFEA246FF582EBD4
:1034E8003400F583E014F07C0060368C08EA250887
:1034F800F8EB3400F9E8246CF582E93400F583E050
:10350800C0E0E8246BF582E93400F583D0E0F00CE4
:10351800EA246FF582EB3400F583E0F8ECC39840B9
:10352800CAEA246EF582EB3400F58374FFF0EA24CE
:103538006AF582EB3400F583E4F0EDA2E092AF0285
:1035480032F9C082C083E5A8F8C2AFEA246BF582DD
:10355800EB3400F583E9F0EA246AF582EB3400F5F0
:1035680083E4F0E8A2E792AF0226FA74F312163366
:10357800EAFEEBFFECFAEDFB8A828B83A3A3A3A3FD
:10358800E0541FF0EE2436F582EF3400F583E4F0C2
:10359800F50AEEFCEFFD8A828B83E0C0E0EC245D47
:1035A800F582ED3400F583D0E0F0750B00E50A33C1
:1035B800333354F8F50C8A828B83E0F508750900DB
:1035C800E50B78081215AAE508A2E0502FEE24367C
:1035D800F8EF3400F988828983E0F508EE2508F5CC
:1035E80008EF3400F509E5082438F582E5093400C8
:1035F800F583E50CF088828983E004F0050B050C5F
:10360800E50BC3940840AF050A8A828B83A3AA827C
:10361800AB838C828D83A3AC82AD83E50AC394050A
:10362800500302359E7F0502170574F71216339072
:1036380004C5E0640370077A007B000231177B0041
:1036480078C5790488828983A3A3A3A3A3A3E06090
:103658000302392CEBF875F006A4C8AAF02AF9740D
:10366800C928F8740439F988828983A3A37401F0FE
:1036780088828983A3A3A3E4F0EB88828983A3A328
:10368800A3A3F0E82462F582E93400F5837401F01D
:10369800E82465F582E93400F583E4F0A3F0E82432
:1036A80068F582E93400F5837401F088828983A380
:1036B800A3A3A3A3E4F0A3F088828983A3A3A3A36D
:1036C800A3A3A3F0A3F0E8240FF582E93400F5835F
:1036D8007401F0E82435F582E93400F583E4F090CC
:1036E80081381214CAE82418F582E93400F58312E7
:1036F80014D6E8241CF582E93400F583E4F0E824C4
:103708001DF582E93400F583E4F0A3F0E82480F5A0
:1037180082E93400F583E4F0E82474F582E93400A2
:10372800F583E4F0E82469F582E93400F5837480D0
:10373800F0E8246AF582E93400F583E4F0E8246FC0
:10374800F582E93400F583E4F0E82467F582E9348A
:1037580000F583E4F0E824EDF582E93400F583E42C
:10376800F0E824EEF582E93400F583E4F0E824EF8C
:10377800F582E93400F583E4F0E824F0F582E934D1
:1037880000F583E4F0E824F1F582E93400F583E4F8
:10379800F0A3F0E824F3F582E93400F583E4F0A31C
:1037A800F0E824F6F582E93400F583E4F0E82483B0
:1037B800F582E93400F583E4F0E824D3F582E934AE
:1037C80000F583E4F0E824D4F582E93400F583E4D5
:1037D800F09081381214CAE824D5F582E93400F54E
:1037E800831214D69081381214CAE824D9F582E9D4
:1037F8003400F5831214D6E824DFF582E93400F5A5
:1038080083E4F0E824E1F582E93400F583E4F0E8A4
:1038180024DDF582E93400F583E4F0E824E2F5825A
:10382800E93400F583E4F0E824E3F582E93400F5AF
:1038380083E4F0E824F9F582E93400F583E4F0A3A1
:10384800F0E824FBF582E93400F583E4F0A3F0E81E
:1038580024FDF582E93400F583E4F0A3F0E824FFC1
:10386800F582E93400F583E4F0A3F0E8FAE9FBEA2D
:103878002404FCEB3400FDEA246BF582EB3400F5FC
:103888008374FFF08A828B83A3AA82AB83EC6A706D
:1038980002ED6B70E2E8FAE9FB7CE27D078C828D31
:1038A80083E0C0E0EA245DF582EB3400F583D0E0E4
:1038B800F08C828D83A3AC82AD838A828B83A3AA8A
:1038C80082AB83EC64E77003ED640770D0E8FAE933
:1038D800FB7CAC7D048C828D83A3E0C0E0EA24E508
:1038E800F582EB3400F583D0E0F08C828D83A3ACB5
:1038F80082AD838A828B83A3AA82AB83EC64B47083
:1039080003ED640470CF9004C5E004F06401700D09
:1039180088828983A3A3A3A3E09004C7F0E8FAE907
:10392800FB0236430BE82406F8E93401F9EBC394AB
:1039380003400302363F02364CC082C0838A828B22
:1039480083A3A3A3E0600F8A828B83A3A3A3E4F0DD
:103958009004C6E014F09004C5E014F070069004DA
:10396800C774FFF08A828B83A3A3E4F09007E7E093
:10397800700D9004C6E0640170057900120C4102D4
:1039880026FAC082C08378C5790488828983A3A374
:10399800A3A3A3A3A3E4F088828983A3A3A3A3A3D7
:1039A800A3F0E82406F8E93401F9E864D77003E9DC
:1039B800640770D69004C5E4F0A3F0A374FFF07513
:1039C800E1F10226FA74F31216337508007509003E
:1039D800750C00750AC9750B04AE0AAF0B8E828F81
:1039E80083A3A3A3E0603FE5084509700AEEF8EF5A
:1039F800F988088909802F850882850983E0F8A35A
:103A0800E0F5838882A3A31218598E828F83E0F889
:103A1800A3E0F5838882A3A31214CA122144740474
:103A28001215F2E960C7050CEE2406F50AEF340119
:103A3800F50BE50CC3940340A0850882850983A390
:103A4800A3A3A3E0F902362D74F612163378FF7992
:103A5800FF7508007EC97F04EEFCEFFD8C828D8324
:103A6800A3A3A3E0606474FF68700374FF69702502
:103A7800EC2474F582ED3400F583E064017011ECF8
:103A8800247AF582ED3400F583E0F8A3E0F9803A72
:103A9800EC242E80EDEC2474F582ED3400F583E0FF
:103AA80064017014EC247AF582ED3400F583C3E0E8
:103AB80098A3E099501480C7EC242EF582ED3400C9
:103AC800F583C3E098A3E09940C60508EE2406FEF6
:103AD800EF3401FFE508C394035003023A60C3EAD8
:103AE80098EB994004E8FAE9FB0232F974F61216E9
:103AF80033EAFEEBFF8E828F83A3A3A3E0600F8ED1
:103B0800828F83A3A3A3E4F09004C6E014F090048A
:103B1800C5E014F070069004C774FFF08E828F839E
:103B2800A3A3E4F09007E7E0700D9004C6E06401F9
:103B380070057900120C41EE2465F582EF3400F52A
:103B480083E0F8A3E0F9E8496029EE2465F8EF344A
:103B580000F9880889098882F583E0FCA3E0FD90D4
:103B680004C7E0FA7B001207F7850882850983E419
:103B7800F0A3F0EEFAEFFB120B990232F974F71288
:103B88001633EAFEEBFF8E828F83A3A3A3A3E0FA8A
:103B98007B0012083FEEFAEFFB120A91120B7B0230
:103BA8003117C082C0837C007AC97B04EAF8EBF93C
:103BB80088828983A3A3A3E0601EE8246FF582E9C5
:103BC8003400F583E06011E8246BF582E93400F5F0
:103BD80083E07004790180110CEA2406FAEB3401C1
:103BE800FBECC3940340C579000226FAC082C08367
:103BF80078AC790488828983A3E4F088828983A3D6
:103C0800A882A983E864B47003E9640470E69004A8
:103C1800AD74010226BBC082C08374FC1215DC900F
:103C280081381214CA8518828519831214D6120A8B
:103C3800D9E9851882851983F0120AD974011216F8
:103C480027E9F0120AD97402121627E9F0851882BA
:103C58008519831214CA74040224AA74F61216333E
:103C6800EAFEEBFFEC2403F8ED3400F98808890933
:103C7800EC2407F8ED3400F9E8FCE9FD8C828D832B
:103C8800E0F8A3E0F9850882850983E0FAA3E0FB60
:103C9800121551EE240DF582EF3400F583E8F0A3F8
:103CA800E9F08C828D83E0F8A3E0F9850882850924
:103CB80083E0FAA3E0FB1215518B09EA450960136A
:103CC800EE240DF582EF3400F583E02401F0A3E043
:103CD8003400F00232F974F6121633EAFEEBFFEE06
:103CE800242EF582EF3400F583E0FCA3E0FD780094
:103CF80079FAECFAEDFB121551EE2470F582EF34E7
:103D080000F583E8F0A3E9F0780079FAECFAEDFB26
:103D18001215518B09EA45096013EE2470F582EFFC
:103D28003400F583E02401F0A3E03400F00232F916
:103D380074F0121633EAFEEBFF7410121627780897
:103D48001214AC120C0B8A0C8B0D8C0E8D0F9080FC
:103D5800F4780C1214129080E8780C121473780C12
:103D68001218428E828F83E0F8A3E0F5838882A33D
:103D7800A31214CA12214474041215F2E960030252
:103D88003E858E828F83E02402F8A3E03400F9E8B0
:103D9800FAE9FB8A828B8378081214259080E878E8
:103DA800081214AC8A828B837808121486EE240BCE
:103DB800F582EF3400F583C082C0838E828F83A39F
:103DC800A3A3A3A3E02401F8A3E03400F9D083D08F
:103DD80082E0687003A3E06970057901023E878E6E
:103DE800828F83A3A3A3A3A3A3A3E02401F0A3E04A
:103DF8003400F0EE2474F582EF3400F583E06401BA
:103E08007036EE2475F582EF3400F583E0F8A3E010
:103E1800F98E828F83A3A3A3A3A3A3A3E06870034F
:103E2800A3E0697013EE2475F582EF3400F583E0A2
:103E38002401F0A3E03400F0EE2480F582EF340092
:103E4800F583E064017036EE2481F582EF3400F5E5
:103E580083E0F8A3E0F98E828F83A3A3A3A3A3A38F
:103E6800A3E0687003A3E0697013EE2481F582EF84
:103E78003400F583E02401F0A3E03400F079007FFA
:103E88000802170574F71216339004C7E0F875F0A6
:103E980006A4C8AAF02AF974C928FE740439FF8058
:103EA80028EE2465F8EF3400F988828983E0FCA3C2
:103EB800E0FD88828983E4F0A3F08E828F83A3A338
:103EC800A3A3E0FA7B001207F7EE2465F582EF342E
:103ED80000F583E0F8A3E0F9E849604FEE2464F5C3
:103EE80082EF3400F583E0F508780812184AEE24CA
:103EF80063F582EF3400F583E0F9EE2465F582EF8F
:103F08003400F583E0FCA3E0FDEEFAEFFB120AC7EC
:103F180074011215F2E96089EE2465F582EF340028
:103F2800F583E0F8A3E0F9E84970137C007D008E82
:103F3800828F83A3A3A3A3E0FA7B001207F70231C1
:103F48001774F2121633EAFEEBFF890A740E121682
:103F580027E0FAEE2462F582EF3400F583E064018D
:103F680060030240159061D0E0F87480C398F50CA6
:103F7800EE2483F582EF3400F583E0600478048052
:103F88000278008908E928F8E43400F9E8240208EE
:103F980008E93400F9E50C98E499A2D265D03340D9
:103FA80068EA7005750B028003750B01E0603975CE
:103FB800090078081218467A187B08120AFD74025C
:103FC8001215F27508187509087808121846AC0A0F
:103FD800A90BEEFAEFFB120B1B74021215F2740414
:103FE800250AF50A7C187D087401250AF5D9850B80
:103FF800D9E50A600D8C828D83F8E0F5D9A318E81D
:1040080070F875E195790080067907800279FF7F5D
:1040180006021705C082C083E960208C828D83E088
:104028008A828B83F08C828D83A3AC82AD838A8253
:104038008B83A3AA82AB8319E970E0ECFAEDFB024B
:1040480026FAC082C0837869790888828983A3A305
:10405800A3A3A3A3E4F088828983A3A3A3A3A3743F
:10406800FFF0E82418F8E93400F9E864C97003E9B6
:10407800640870D690086B74FFF090086AE4F090BA
:104088000869F090086CF0A3F002577274EC1216ED
:104098003390086CE0F508A3E0F509E508450970D8
:1040A800061209DD024D41850882850983E0146006
:1040B8001814601524FE601124C4700302480324F8
:1040C800C07003024803024D41E0F9120B8D8A0AC1
:1040D8008B0BAE0AAF0B9004C6E07003024481124A
:1040E8000A85E9F875F006A4C8AAF02AF974C9285F
:1040F800F50C740439F50D850C82F583E0F50AA3F7
:10410800E0F50BAC0AFDEEFAEFFB120B87E9F50EB2
:104118007402650E70030244408E828F83E024FE91
:10412800600A24FE7003024338024D41EE650870B0
:1041380003EF650960211209FB9007F9E06401703B
:10414800169007F8E070107901120CAD120C7D1270
:104158000CA77900120CB3E50E6021E5082415F5CB
:1041680082E5093400F583E060129007F4E0F8A3D3
:10417800E0F9A3E0687003A3E0697026120C0B8ACB
:104188000C8B0D8C0E8D0F908148780C12141290A8
:1041980080E8780C1214738E828F83A3A3780C1294
:1041A80014BBE5082415F582E5093400F583E064BD
:1041B80001600302425E850A82850B83A3A3780C03
:1041C8001214AC90810C780C121412780C1218424C
:1041D8008E828F83A3A3C082C0839007F6E0F50880
:1041E800A3E085080CF50DE4F50EF50FD083D08219
:1041F800780C121412AA0CAB0DAC0EAD0F122144A0
:1042080074041215F2E9703C8E828F83A3A3C082D6
:10421800C0839007F6E0F508A3E0F509E4F50AF590
:104228000BD083D08278081214129080E878081294
:104238001473EE240EF582EF3400F5837808121417
:10424800BB024330850A82850B83A3A37808121426
:10425800AC90810C80CFEE240EF582EF3400F5830C
:104268001218598E828F83A3A31214CA1221447480
:10427800041215F2E964016003024330850A82855D
:104288000B83A3A3780C1214AC90810C780C121435
:1042980012780C1218428E828F83A3A3C082C08327
:1042A8009007F6E0F508A3E085080CF50DE4F50E97
:1042B800F50FD083D082780C121412AA0CAB0DAC77
:1042C8000EAD0F12214474041215F2E9701F8E828C
:1042D8008F83A3A3C082C0839007F6E0F508A3E00C
:1042E800F509E4F50AF50BD083D0828010850A829F
:1042F800850B83A3A378081214AC90810C7808125C
:1043080014129080E87808121473EE240EF582EFE8
:104318003400F58378081214BB9007FCE06427701A
:104328000474258002E004F090086B7402024D3991
:10433800EE65087003EF65096031900810E0F91226
:104348000A01850882850983E06402701E9007F9D6
:10435800E0640170169007F8E070107900120CAD57
:10436800120C7D120CA77901120CB3E50E601290A5
:10437800080AE0F8A3E0F9A3E0687003A3E0697015
:1043880026120C0B8A0C8B0D8C0E8D0F90814878A1
:104398000C1214129080E8780C1214738E828F839A
:1043A800A3A3780C1214BB850A82850B83A3A37878
:1043B8000C1214AC90810C780C121412780C121890
:1043C800428E828F83A3A3C082C08390080CE0F53D
:1043D80008A3E085080CF50DE4F50EF50FD083D0A1
:1043E80082780C121412AA0CAB0DAC0EAD0F122170
:1043F8004474041215F2E9701F8E828F83A3A3C040
:1044080082C08390080CE0F508A3E0F509E4F50AFA
:10441800F50BD083D0828010850A82850B83A3A3F5
:1044280078081214AC90810C78081214129080E865
:104438007808121473024D22850882850983E06486
:104448000270139007F9E06401700B9007F8E070B0
:10445800057900120CADE50C2404FEE50D3400FFCF
:104468008E828F83E0F9120BC38E828F83E09004D3
:10447800C7F0AA0AAB0B024D3EEE65087003EF6564
:10448800098E828F836003024665E024FE600A2459
:10449800FE70030245C0024D3AEE2415F582EF3452
:1044A80000F583E060419007F4E0F8A3E0F9A3E0A9
:1044B800687003A3E069602F120C0B8A088B098CC3
:1044C8000A8D0B9081347808121412780812184259
:1044D8008E828F83A3A31214CA1221447404121566
:1044E800F2E96003024D3A120C0B8A088B098C0A18
:1044F8008D0B90814878081214129080E878081281
:1045080014738E828F83A3A378081214BBEE24152C
:10451800F582EF3400F583E0640170348E828F8376
:10452800A3A3C082C0839007F6E0F508A3E0F509CD
:10453800E4F50AF50BD083D0827808121412EE2421
:104548000EF582EF3400F58378081214BB024D3A59
:10455800EE240EF582EF3400F5831218598E828FFF
:1045680083A3A31214CA12214474041215F2E96435
:10457800016003024D3A8E828F83A3A3C082C08359
:104588009007F6E0F508A3E0F509E4F50AF50BD085
:1045980083D0827808121412EE240EF582EF3400CC
:1045A800F58378081214BB9007FCE0642770057443
:1045B80025024D39E00480F990080AE0F8A3E0F9F3
:1045C800A3E0687003A3E069602C120C0B8A088BC7
:1045D800098C0A8D0B90813478081214127808120D
:1045E80018428E828F83A3A31214CA122144740422
:1045F8001215F2E97064EE2402F508EF3400F509AB
:10460800120C0B8A0C8B0D8C0E8D0F908148780C38
:104618001214129080E8780C1214738508828509A8
:1046280083780C1214BB850882850983C082C083F5
:1046380090080CE0F508A3E0F509E4F50AF50BD0BD
:1046480083D0827808121412EE240EF582EF34001B
:10465800F58378081214BB120A07024D3AE024FECB
:10466800600A24FE700302472B024D411209FB9099
:1046780007F9E0640170169007F8E07010790112EC
:104688000CAD120C7D120CA77900120CB39007F434
:10469800E0F8A3E0F9A3E0687003A3E069602F12D3
:1046A8000C0B8A088B098C0A8D0B908134780812C0
:1046B800141278081218428E828F83A3A31214CA88
:1046C80012214474041215F2E96003024330EE2407
:1046D80002F508EF3400F509120C0B8A0C8B0D8CCF
:1046E8000E8D0F908148780C1214129080E8780C87
:1046F800121473850882850983780C1214BB850807
:1047080082850983C082C0839007F6E0F508A3E09C
:10471800F509E4F50AF50BD083D082780812141253
:1047280002423A900810E0F9120A018508828509C8
:1047380083E06402701E9007F9E064017016900728
:10474800F8E070107900120CAD120C7D120CA779EC
:1047580001120CB390080AE0F8A3E0F9A3E068702E
:1047680003A3E069602C120C0B8A088B098C0A8D54
:104778000B908134780812141278081218428E822D
:104788008F83A3A31214CA12214474041215F2E9E8
:104798007066EE2402F8EF3400F988088909120CD3
:1047A8000B8A0C8B0D8C0E8D0F908148780C12148F
:1047B800129080E8780C1214738508828509837832
:1047C8000C1214BB850882850983C082C0839008B7
:1047D8000CE0F508A3E0F509E4F50AF50BD083D061
:1047E800827808121412EE240EF582EF3400F58355
:1047F80078081214BB120A07024D349004C6E07000
:1048080003024B99120A85E9F875F006A4C8AAF0C4
:104818002AF974C928F510740439F511851082F540
:1048280083E0F508A3E0F5099004C7E0F875F00601
:10483800A4C8AAF02AF974C928F50C740439F50D2E
:1048480090086AE054077003024AC2A3E0F9120B09
:104858008D8A0A8B0BAE0AAF0BAC08AD09120B8719
:10486800E9F50E7402650E7003024AC2850C828552
:104878000D83A3A3A3A3E0F875F08AA4C8AAF02A1D
:10488800F974CE28F50A740839F50BAA0AFB120B3D
:10489800B7AA0AAB0B120BB1751280751300781208
:1048A8001218467C007D60E50A2406FAE50B3401FF
:1048B800FB120AFD74021215F2A80AA90B90619561
:1048C800E0C0E0E82486F582E93401F583D0E0F021
:1048D800906196E0C0E0E82487F582E93401F58329
:1048E800D0E0F0906197E0C0E0E82488F582E934F0
:1048F80001F583D0E0F0906198E0C0E0E82489F504
:1049080082E93401F583D0E0F08E828F83E024FEC3
:10491800600A24FE70030249FD024AC21209FB9094
:1049280007F9E0640170119007F8E0700B120C7D34
:10493800120CA77900120CB3E50E60129007F4E090
:10494800F8A3E0F9A3E0687003A3E0697026120CED
:104958000B8A0C8B0D8C0E8D0F908148780C1214DD
:10496800129080E8780C1214738E828F83A3A37838
:104978000C1214BB850882850983A3A3780C121432
:10498800AC90810C780C121412780C1218428E829A
:104998008F83A3A3C082C0839007F6E0F50CA3E041
:1049A800F50DE4F50EF50FD083D082780C121412B1
:1049B800AA0CAB0DAC0EAD0F12214474041215F203
:1049C800E9701F8E828F83A3A3C082C0839007F6ED
:1049D800E0F508A3E0F509E4F50AF50BD083D082E9
:1049E8008010850882850983A3A378081214AC90E7
:1049F800810C02422D900810E0F9120A01E50E60C0
:104A08001290080AE0F8A3E0F9A3E0687003A3E0B5
:104A1800697026120C0B8A0C8B0D8C0E8D0F9081F1
:104A280048780C1214129080E8780C1214738E8255
:104A38008F83A3A3780C1214BB850882850983A3EE
:104A4800A3780C1214AC90810C780C121412780C08
:104A58001218428E828F83A3A3C082C08390080C51
:104A6800E0F50CA3E0F50DE4F50EF50FD083D08248
:104A7800780C121412AA0CAB0DAC0EAD0F12214417
:104A880074041215F2E9701F8E828F83A3A3C0826B
:104A9800C08390080CE0F508A3E0F509E4F50AF5F1
:104AA8000BD083D0828010850882850983A3A378E0
:104AB800081214AC90810C024430E510650C7004A7
:104AC800E511650D7003024B92850C82850D83A359
:104AD800A3A3E07003024B76850C82850D83A3A304
:104AE800A3A3E0F875F08AA4C8AAF02AF974CE281E
:104AF800FE740839FFEEFAEFFB120BB7EEFAEFFB84
:104B0800120BB1750A80750B00780A1218467C00E2
:104B18007D60EE2406FAEF3401FB120AFD740212DE
:104B280015F2906195E0C0E0EE2486F582EF34013D
:104B3800F583D0E0F0906196E0C0E0EE2487F5823E
:104B4800EF3401F583D0E0F0906197E0C0E0EE2407
:104B580088F582EF3401F583D0E0F0906198E0C0E9
:104B6800E0EE2489F582EF3401F583D0E0F0E5101A
:104B78002404FEE5113400FF8E828F83E0F9120BC6
:104B8800C38E828F83E09004C7F0AA08AB09024D58
:104B98003E90086AE054077003024D41A3E0F91201
:104BA8000B8D8A088B09AE08AF098E828F83E024AB
:104BB800FE600A24FE7003024C88024D411209FB74
:104BC8009007F9E0640170169007F8E07010790119
:104BD800120CAD120C7D120CA77900120CB39007C1
:104BE800F4E0F8A3E0F9A3E0687003A3E069602C9F
:104BF800120C0B8A088B098C0A8D0B90813478086B
:104C080012141278081218428E828F83A3A31214EA
:104C1800CA12214474041215F2E97061EE2402F5F7
:104C280008EF3400F509120C0B8A0C8B0D8C0E8DD5
:104C38000F908148780C1214129080E8780C1214A6
:104C480073850882850983780C1214BB85088285D0
:104C58000983C082C0839007F6E0F508A3E0F50950
:104C6800E4F50AF50BD083D0827808121412EE24EA
:104C78000EF582EF3400F58378081214BB02433036
:104C8800900810E0F9120A0190080AE0F8A3E0F988
:104C9800A3E0687003A3E069602C120C0B8A088BF0
:104CA800098C0A8D0B908134780812141278081236
:104CB80018428E828F83A3A31214CA12214474044B
:104CC8001215F2E97063EE2402F8EF3400F988084F
:104CD8008909120C0B8A0C8B0D8C0E8D0F90814854
:104CE800780C1214129080E8780C121473850882DC
:104CF800850983780C1214BB850882850983C082D4
:104D0800C08390080CE0F508A3E0F509E4F50AF57E
:104D18000BD083D0827808121412EE240EF582EF9D
:104D28003400F58378081214BB120A0790086B74D4
:104D380004F0EEFAEFFB120B817F0C02170574F0FA
:104D4800121633EAFEEBFFEE2402F8EF3400F9887E
:104D5800088909EE2406F8EF3400F9880A890B88D7
:104D680082F58312185D8508828509831214CA1298
:104D78000BE774021215F2850A82850B8312185DFF
:104D88008508828509831214CA120BDB7402121576
:104D9800F2EE240EF582EF3400F5831214CA120BDA
:104DA800ED8E828F83E06440701CEE2412F8EF349D
:104DB80000F988828983E0906064F088828983A3FF
:104DC800E09060658006906064E4F0A3F090086C61
:104DD800EEF0A3EFF0EE2416F582EF3400F583E051
:104DE800F8A3E0F5838882121631906054E4F0A3AA
:104DF800F0A3F0A3F0A3F0A3F0A3F0A3F0A3F0A313
:104E0800F0A3F0A3F0906182E0C2E6F07591BFEEE6
:104E18002415F582EF3400F583E064017003120C69
:104E280023E5E170FCEE2414F582EF3400F583E00D
:104E3800F46003E0F5E1EE2415F582EF3400F58324
:104E48007401F090049FE06401706F120C0B8A08E3
:104E58008B098C0A8D0B78081218428E828F83A3D7
:104E6800A31214CA1221A174041215F28A088B091C
:104E78008C0A8D0B908110780C1214AC7808790C80
:104E88001212D7740378081213C7E50824F4F5083A
:104E9800E5093401F509900816E06003120F6BE488
:104EA800F50AF50B78081218427A207B00900498CE
:104EB800E0F9120FB974041215F27F08021705748D
:104EC800EC121633EAFEEBFF8C088D09EE4F7005E5
:104ED8007902024FBC120C0B8A0C8B0D8C0E8D0FB5
:104EE80090814C780C1214129080E8780C1214738C
:104EF8008E828F83E06402701F9007F4E0F8A3E0CD
:104F0800F9A3E0687003A3E06970248E828F83A3FD
:104F1800A3780C1214BB8017E06404701290080A7E
:104F2800E0F8A3E0F9A3E0687003A3E06960DC7827
:104F38000C121842850882850983A3A31214CA1289
:104F480021A174041215F28A108B118C128D139002
:104F5800811478101212B84003024ED88508828551
:104F68000983A3A378081214AC90816478081214FA
:104F78001278081218428E828F83A3A31214CA12C1
:104F8800214474041215F2E96003024ED890811886
:104F9800780C121412780C1218428E828F83A3A3F5
:104FA8001214CA12214474041215F2E9700479002B
:104FB80080027901024D4174F0121633890874FF9A
:104FC8006508600302514B90086AE05407700302B9
:104FD80056177A007869790888828983A3A3A3A3DE
:104FE800A3E064047050EA75F018A4F8A9F0746F8F
:104FF80028F582740839F583E0640170487A0078EE
:1050080069790888828983A3A3A3A3A3E0640460C1
:10501800030250A388828983A3A3A3A3A3A3E06464
:10502800017078EA75F018A4F8A9F0746E28FA747B
:105038000839FB02561B0AE82418F8E93400F9EA93
:10504800C3940440937A007869790888828983A395
:10505800A3A3A3A3E064017057EA75F018A4F8A904
:10506800F0746F28F582740839F583E06401704F95
:105078007A007869790888828983A3A3A3A3A3E027
:105088006401600302512788828983A3A3A3A3A391
:10509800A3E06401600302512780880AE82418F815
:1050A800E93400F9EAC39404500302500B0256177E
:1050B8000AE82418F8E93400F9EAC39404408C7A21
:1050C800007869790888828983A3A3A3A3A3E064ED
:1050D800027061EA75F018A4F8A9F0746F28F582D7
:1050E800740839F583E0640170597A0078697908A1
:1050F80088828983A3A3A3A3A3E06402707A888229
:105108008983A3A3A3A3A3A3E06401706BEA75F04A
:1051180018A4F8A9F0746E28FA740839FB806F0A8D
:10512800E82418F8E93400F9EAC39404500302505B
:105138007E0256170AE82418F8E93400F9EAC394FD
:105148000440827A007869790888828983A3A3A3B6
:10515800A3A3E06508703D88828983A3A3A3A3A3C2
:10516800A3E06401702EEA75F018A4F8A9F0746E33
:1051780028FE740839FF802F0AE82418F8E934005B
:10518800F9EAC3940450030250F87A007B000256EF
:105198001B0256170AE82418F8E93400F9EAC39400
:1051A8000440A67E007F007A0078697908888289A1
:1051B80083A3A3A3A3A3E06508701BEA75F018A452
:1051C800F8A9F0746F28F582740839F583E0640152
:1051D80070137A0180110AE82418F8E93400F9EA12
:1051E800C3940440C87A00E50814600F14700302E1
:1051F80053B424FE700302550E80967B00786979BB
:105208000888828983A3A3A3A3A3E064027055EB53
:1052180075F018A4F8A9F0746F28F582740839F5A8
:1052280083E06401704D7B007869790888828983FE
:10523800A3A3A3A3A3E0640260030252EA888289BD
:1052480083A3A3A3A3A3A3E0640160030252EAEB30
:1052580075F018A4F8A9F0746E28F50A740839F5E1
:105268000B0253020BE82418F8E93400F9EBC39455
:1052780004408E7B007869790888828983A3A3A378
:10528800A3A3E06404600302533EEB75F018A4F88E
:10529800A9F0746F28F582740839F583E064016019
:1052A800030253507B007869790888828983A3A315
:1052B800A3A3A3E06404600302535B88828983A3E9
:1052C800A3A3A3A3A3E06401600302535BEB75F0FF
:1052D80018A4F8A9F0746E28F50A740839F50B02B9
:1052E80053730BE82418F8E93400F9EBC39404501D
:1052F80003025234750A00750B00EAA2E04003026B
:1053080053A6850A82850B83A3A3780C1214AC904C
:10531800811C780C121412780C1218428E828F831A
:10532800A3A31214CA12214474041215F2E9706E70
:10533800EEFAEF02503A0BE82418F8E93400F9EBDA
:10534800C394045003025281EAA2E05058EEFAEFE7
:10535800FB80560BE82418F8E93400F9EBC39404F1
:1053680050030252B2750A00750B00EAA2E0502EF3
:10537800850A82850B83A3A3780C1214AC90811C38
:10538800780C121412780C1218428E828F83A3A301
:105398001214CA12214474041215F2E96092AA0A7E
:1053A800AB0B02561B7A007B0002561B7B00786908
:1053B800790888828983A3A3A3A3A3E06404705215
:1053C800EB75F018A4F8A9F0746F28F58274083901
:1053D800F583E06401704A7B0078697908888289DE
:1053E80083A3A3A3A3A3E064046003025482888276
:1053F8008983A3A3A3A3A3A3E06401707DEB75F045
:1054080018A4F8A9F0746E28F50A740839F50B0287
:10541800549A0BE82418F8E93400F9EBC3940440D3
:10542800917B007869790888828983A3A3A3A3A3C1
:10543800E0640160030254D6EB75F018A4F8A9F0F3
:10544800746F28F582740839F583E06401600302FB
:1054580054E87B007869790888828983A3A3A3A389
:10546800A3E0640160030254F388828983A3A3A3A1
:10547800A3A3A3E06401707380830BE82418F8E900
:105488003400F9EBC3940450030253E5750A007520
:105498000B00EAA2E040030253A6850A82850B832B
:1054A800A3A3780C1214AC90811C780C12141278F7
:1054B8000C1218428E828F83A3A31214CA1221449D
:1054C80074041215F2E960030253A60253380BE87C
:1054D8002418F8E93400F9EBC39404500302542F5C
:1054E800EAA2E0501AEEFAEFFB80180BE82418F84D
:1054F800E93400F9EBC394045003025460808D7AB8
:10550800007B0002561B7B007869790888828983B2
:10551800A3A3A3A3A3E064017040EB75F018A4F85B
:10552800A9F0746F28F582740839F583E064017076
:10553800387B007869790888828983A3A3A3A3A309
:10554800E0640160030255D388828983A3A3A3A3DF
:10555800A3A3E0640170740254050BE82418F8E969
:105568003400F9EBC3940440A37B00786979088878
:10557800828983A3A3A3A3A3E064027063EB75F0FD
:1055880018A4F8A9F0746F28F582740839F583E037
:105598006401705B7B007869790888828983A3A39A
:1055A800A3A3A3E06402704F88828983A3A3A3A363
:1055B800A3A3E064017040EB75F018A4F8A9F07497
:1055C8006E28F50A740839F50B80410BE82418F8A1
:1055D800E93400F9EBC39404500302553F02549494
:1055E8000BE82418F8E93400F9EBC394044080EA86
:1055F800A2E0501B0253380BE82418F8E93400F9EC
:10560800EBC394044094750A00750B0002549A7A0F
:10561800007B00024EC274F6121633890975080021
:105628007869790888828983A3A3A3A3A3A3E060E8
:10563800030256FAE50875F018A4F8A9F0746E2864
:10564800FE740839FF8E828F83A37401F08E828FD7
:1056580083E509F0120C0B8E828F83A3A31214D654
:105668008E828F83A3A3A3A3A3A3E4F0A3F09081C6
:10567800541214CAEE240EF582EF3400F583121486
:10568800D6EE2414F582EF3400F5837401F0EE248D
:1056980015F582EF3400F5837401F0EE2416F582D7
:1056A800EF3400F583E4F0A3F090086AE04509F0D0
:1056B800900869E004F06401600C74806509600674
:1056C800744065097019E50875F018A4F8A9F07414
:1056D8006E28F8740839F990086CE8F0A3E9F0E549
:1056E8000875F018A4F8A9F0746E28FA740839FB44
:1056F80080180508E82418F8E93400F9E508C39487
:1057080004500302562C7A007B0080007F020217A7
:1057180005C082C0838A828B83E0F8A3E0F98A827D
:105728008B83E4F0A3F088828983A3F0888289833D
:10573800E0F4F890086AE058F0900869E014F07016
:105748000B90086CE4F0A3F0900499F0801CC082E0
:10575800C083900869E0600A90086CE0FAA3E0FB57
:1057680080047A007B008002E0F9D083D0820201B5
:1057780035C082C083E9FB7A007869790888828914
:1057880083A3A3A3A3A3E06B7016EA75F018A4F88B
:10579800A9F0746F28F582740839F583E0F980114F
:1057A8000AE82418F8E93400F9EAC3940440CE79E9
:1057B8000080B7C082C08390086902577074F612DF
:1057C8001633EAFEEBFF9061D0E0C0E0EE2400F56E
:1057D80082EF3401F583D0E0F09061D7E0FA906170
:1057E800D5E0C39A547FC0E0EE2401F582EF34017E
:1057F800F583D0E0F0EE2402F8EF3401F99061D699
:10580800E0C39A547F88828983F0701A9061C5E05A
:10581800A2E45012E0A2E7500DEE2402F582EF3424
:1058280001F5837480F0120CD7EE2401F582EF3471
:1058380001F583E07034EE2402F582EF3401F5833C
:10584800E070279061C5E0A2E4501FE0A2E7501A7B
:10585800EE2402F582EF3401F5837480F0EE240122
:10586800F582EF3401F5837480F075E1957800EEE8
:105878002400F582EF3401F583E060279061D3E0DE
:10588800C0E08808EE2508F582EF3400F583D0E003
:10589800F008EE2400F582EF3401F583E0F9E8C35F
:1058A8009940D975E19102571474F6121633EAFE3D
:1058B800EBFF9061C8E0C0E0EE2403F582EF34010D
:1058C800F583D0E0F09061CFE0FA9061CDE0C39A23
:1058D800547FC0E0EE2404F582EF3401F583D0E074
:1058E800F0EE2405F8EF3401F99061CEE0C39A5444
:1058F8007F88828983F0701A9061C5E0A2E0501217
:10590800E0A2E3500DEE2405F582EF3401F583742F
:1059180080F0120CDDEE2404F582EF3401F583E00B
:105928007034EE2405F582EF3401F583E07027909A
:1059380061C5E0A2E0501FE0A2E3501AEE2405F58D
:1059480082EF3401F5837480F0EE2404F582EF349D
:1059580001F5837480F0120CE37A00EE2403F582DB
:10596800EF3401F583E0602F9061CBE0C0E08A0856
:10597800EE2508F8EF3400F9E82480F582E93400D0
:10598800F583D0E0F00AEE2403F582EF3401F583C5
:10599800E0F8EAC39840D175E18102571474F41213
:1059A80016338908A808E875F08AA4C8AAF02AF965
:1059B80074CE28FE740839FFEEFAEFFB120BB7EE2F
:1059C800FAEFFB120BB1750A80750B00780A1218F2
:1059D800467C007D60EE2406FAEF3401FB120AFDD6
:1059E80074021215F2906195E0C0E0EE2486F5820B
:1059F800EF3401F583D0E0F0906196E0C0E0EE244A
:105A080087F582EF3401F583D0E0F0906197E0C02C
:105A1800E0EE2488F582EF3401F583D0E0F0906160
:105A280098E0C0E0EE2489F582EF3401F583D0E0F8
:105A3800F07F0402170574F21216338908A808E8E3
:105A480075F08AA4C8AAF02AF974CE28F87408391F
:105A5800F99061C6E0FDE054F0F075E1817C00E862
:105A68002403F582E93401F583E0602B8C0AE825EC
:105A78000AFAE93400FBEA2480F582EB3400F58366
:105A8800E09061CAF00CE82403F582E93401F5835B
:105A9800E0FAECC39A40D5E82405F582E93401F52B
:105AA80083E060049061CEF0E82404F582E93401D3
:105AB800F583E060049061CDF0ED9061C6F0A80830
:105AC800E875F08AA4C8AAF02AF974CE28F87408F0
:105AD80039F9E0FCE0540FF075E1917A00E8240010
:105AE800F582E93401F583E060238A0AE8250AF59E
:105AF80082E93400F583E09061D2F00AE82400F5E9
:105B080082E93401F583E0FBEAC39B40DDE8240227
:105B1800F582E93401F583E060049061D6F0E82469
:105B280001F582E93401F583E060049061D5F0EC79
:105B38009061C6F0850882AE82EEF875F08AA4C836
