:020000040000FA
:0600000002011A02238B2D
:03002B00022B297C
:030053000223FE87
:03006B00022AB9AD
:03007B00022B0550
:100083000221F7E5C754F84401F5C77901220000BE
:100093000080FB120086B90003020104E479217891
:1000A30008B800028004F709D8FCE479297802B87B
:1000B30000028004F709D8FCE490030178D5790B9A
:1000C3008002F0A3D8FCD9FA781A90014A7A01BACF
:1000D30000028007E493A3F608DAF97AD57B0D9042
:1000E300014B78FB79038015E493A3AD82AE838A39
:1000F300828B83F0A3AA82AB838D828E83D8E9D9C6
:10010300E77582C37583E9740312012C75829175B7
:100113008300740012012C75D00075813F7518019E
:10012300751903759F00020096C09FF59FE473D075
:100133009F22D083D082C09FE493C0E0740193C018
:10014300E0740293F59F220101030507FFFE778800
:100153001299324114242536010201060302E0FFFD
:10016300424A4300000000000000000000000000BD
:100173000000000000870400008D040D095049535E
:100183004345532D4254313030051202534A004F38
:100193004B0000534A004357004357303030303050
:1001A300303030FF0000B4000028002800283075EC
:1001B300A000A000A000A00000080008E001F000DB
:1001C300100010001000100010001000500050002C
:1001D300500010001000D0070000000000000F00C6
:1001E30001000500307507001000010081FF0000C9
:1001F3000000FF9D06BB06A306FF02020208025091
:1002030000A0000000E80302AD8C0100009E8C02F8
:10021300B18C010000870E02B78C0100005E03025F
:10022300B18C010000880E02D58C0100007403021A
:10023300B18C010000890E02BB8C01000076030221
:10024300B18C0100008A0E02BD8C08000077030206
:10025300B18C0100008B0E02BF8C0100008C0EFFDD
:100263000100FF2002AD8C010000A18C02B18C01C2
:100273000000F00E02C18C000000000002B58C03E8
:100283000000C4039D0C9D0C9D0C9D0C9D0C9D0CAE
:100293009D0C9D0C9D0C9D0C9D0C9D0C9D0C310F7C
:1002A300490F2B0F020202020202020202010D0099
:1002B3000000100102AD8C010000018C02B18C0121
:1002C3000000310F02C58C010000EB0702B18C0165
:1002D3000000320F02C38C010000EC8B02B18C01D1
:1002E3000000330F02A78C010000DE8B02B18C01EA
:1002F3000000340F02B98C010000588B02B18C014D
:100303000000350F02CD8C0100008E8B02B18C01F1
:100313000000360F02CF8C0100007C8B02B18C01F0
:100323000000370F02D18C0100006A8B02B18C01EF
:100333000000380F02D38C010000D08B02B18C0176
:100343000000390F02E18C0100003A0F01E80305B8
:100353003F100A0A4368617261637465726973745A
:100363006963203100164368617261637465726961
:10037300737469632032000A436861726163746550
:100383007269737469632033000A4368617261633D
:10039300746572697374696320340002AD8C010063
:1003A30000A48C02B18C010000E00F02DB8C03007F
:1003B30000030902B38C010000E10F02B18C0100BC
:1003C30000F20F02DD8C030000130902B58C030059
:1003D30000240902B38C010000F30F02B18C010069
:1003E30000041002DF8C0300002A0902B38C010011
:1003F30000051002B18C010000161002D78C030017
:10040300003A0902B38C0100001710FFFFFF00013F
:100413003075030201060000000000000000000028
:1004230000000000000000000000000000000000C9
:100433000000FFFF0600800CE8033030303030301E
:1004430030301201353CF10312013550F103120132
:100453003552F10312013557F103120135602B00B8
:10046300120135AC2B00120135BA2B001201356A8B
:100473002C00120135F12F00120135A731001201B2
:10048300351F42001201352B4A00120135694B001A
:1004930012013536560012013579560012013566C0
:1004A300E1031201357DE103120135AEE1031201CF
:1004B30035E9E10312013513E2031201353DE2038D
:1004C30012013554E2031201356BE2031201358246
:1004D300E203120135ABE203120135BEE20312015E
:1004E30035D4E203120135E7E2031201350EE303CB
:1004F300120135C1E002120135C5E102120135FDD9
:10050300E10212013520E2021201352BE20212014F
:10051300354EE2021201355DE30212013532E40287
:10052300120135ADE40212013535E50212013570D1
:10053300E502120135A7E50212013535E602120183
:10054300350EE7021201356EE70212013579E70233
:10055300120135F8E702120135FBE702120135FEFD
:10056300E7021201358DE80212013590E80212010B
:1005730035C0E802120135EAE802120135D8E90272
:100583001201358AEA02120135BAA603120135E2D5
:10059300A60312013510A70312013547A703120161
:1005A30035A5A703120135F0A7031201353BA803B4
:1005B3001201357BA803120135C1A803120135EFDF
:1005C300A803120135ACA903120135B6A903120120
:1005D30035C3A903120135F6A903120135C2AA03D3
:1005E300120135CEAA03120135E6AA03120135F032
:1005F300AA031201359AEC03120135A8EC03120188
:1006030035C0EC03120135D8EC03120135517000EB
:10061300120135FD70001201357871001201359910
:100623007200120135D572001201357E730012017A
:1006330035657400120135C9750012013520760045
:10064300120135A17600120135917700120135DED2
:100653007700120135647800120135967800120193
:1006630035AA7A00120135EC7A001201350A7B00B3
:100673001201358D7B00120135617C001201352991
:100683007D001201358D8F03120135609003120135
:10069300350991031201355C91031201350C920364
:1006A300120135989203120135849303120135B375
:1006B3009303120135C694031201350E95031201FB
:1006C30035E395031201351F96031201353B96035B
:1006D3001201358EEF0312013572C80312013588FA
:1006E300C803120135AEC803120135CAC90312018A
:1006F30035D4C90312013509CB0312013501CC03EB
:1007030012013593A103120135C3A203120135F679
:10071300A20312013540A30312013507A5031201F9
:10072300350080021201356A8002120135C9810247
:10073300120135D981021201350682021201355D9B
:1007430082021201350683021201350D8402120161
:1007530035D784021201353786021201357A8602B3
:100763001201351F87021201356C8702120135927F
:100773008702120135A08902120135A589021201EF
:1007830035AA8B02120135F78B021201356A8C02EE
:100793001201359D8C021201353F8D02120135E89D
:1007A3008D02120135208E02120135238E021201B1
:1007B300356B8E02120135AB8E02120135028F02A8
:1007C30012013549D50312013561D503120135A94B
:1007D300D503120135BFD50312013506D603120125
:1007E300351AD703120135A7D703120135F2D70300
:1007F300120135B55700120135C15700120135FCFE
:1008030057001201354158001201350159001201F8
:1008130035875900120135B35900120135EC5900DF
:100823001201352A5C001201350E5E00120135F407
:100833005F00120135376100120135856300120133
:1008430035976400120135E26500120135F2660046
:100853001201350F67001201354A67001201356C2A
:100863006700120135CF6700120135906C00120149
:1008730035256D00120135766D001201359D6D0031
:10088300120135EF6D001201350D6E00120135674F
:100893006E00120135666F00120135EA6F00120116
:1008A30035359C031201353F9C03120135829C03AD
:1008B3001201359D9C031201352D9D0312013555FF
:1008C3009D03120135929D03120135C99D03120147
:1008D30035F29D03120135679E031201357C9E0399
:1008E300120135919E03120135C29E03120135D6C2
:1008F3009E03120135FB9E03120135359F0312013E
:1009030035619F03120135999F03120135F89F0347
:1009130012013577A003120135A2A003120135CDD0
:10092300A00312013516A10312013540A1031201E0
:10093300356BA103120135A7E703120135C0C802C5
:10094300120135EEC8021201353CCA021201351CF0
:10095300CB021201353BCB02120135B8CB02120197
:1009630035FBCB0212013551CD0212013512CE02F5
:1009730012013599D0021201353AD10212013530F4
:10098300D2021201352DD30212013587D40212018E
:100993003512D5021201354CE603120135B5E603D3
:1009A30012013509E70312013530E70312013561FE
:1009B300E703120135F4AF0312013561B0031201ED
:1009C30035A8B003120135C0B103120135BCB2031F
:1009D3001201359FB30312013526F5021201356862
:1009E300F5021201353AF60212013513F70212012C
:1009F300350DF802120135EFF80212013558F902EC
:100A03001201350EFA0212013582FA02120135EE95
:100A1300FA0212013517FB0212013591FB02120192
:100A2300352AFC021201358FFC02120135A4FC02A7
:100A3300120135EAFC0212013503FD021201356889
:100A4300FD021201356BFD0212013550D203120172
:100A53003578D203120135B6D20312013574D303AC
:100A6300120135DBD303120135F7D3031201351F0E
:100A7300D4031201354FD4031201355ED40312019E
:100A830035DBD40312013501D50312013521E2010F
:100A9300120135FFE30112013531E6011201356D13
:100AA300E6011201359AE60112013584E7011201CC
:100AB30035CFE7011201351AE8011201352CE8019F
:100AC3001201356CE801120135A1E801120135EF7D
:100AD300E8011201351EE90112013541E901120154
:100AE300358EE90112013513EA011201352DEC01AE
:100AF3001201356CEE01120135ADEE011201354FD5
:100B0300F00112013590F00112013503F1011201D8
:100B13003554F1011201352FF20112013559F20159
:100B23001201358EF201120135B9F201120135DBE2
:100B3300F201120135D9F30112013572FA011201E2
:100B43003593FC011201355EFE01120135C6FF012A
:100B5300120135E88C01120135978D01120135C45C
:100B63008D011201350A8E01120135408F011201E8
:100B7300356E8F011201350491011201357E910109
:100B83001201359991011201351492011201356E4A
:100B93009301120135CE9401120135D4950112014E
:100BA300353597011201354E9701120135AC970186
:100BB3001201359A9801120135CD98011201353D84
:100BC3009901120135B79901120135019A011201F8
:100BD30035CB9A01120135A09B011201357F9C018F
:100BE3001201350A9D01120135789D01120135EC80
:100BF3009D01120135179E01120135D69E01120186
:100C0300353BA00112013558A00112013577A0012F
:100C130012013568A1011201358DA101120135B709
:100C2300A10112013532A2011201358CA201120178
:100C330035F5A301120135A3A401120135E4A40182
:100C43001201355B9E02120135A99E02120135B5D0
:100C53009E02120135939F02120135C49F021201B5
:100C630035F59F0212013575A002120135F3A0027A
:100C73001201352BA1021201357DA102120135BAF1
:100C8300A102120135D7A302120135FDA5021201FB
:100C930035E8A702120135D2A902120135F37F000C
:100CA30012013523BA0112013553BA011201352C51
:100CB300C101120135B1C201120135AEC8011201E1
:100CC3003596C901120135D3C901120135F6C9019F
:100CD30012013527CA0112013530CA011201353A12
:100CE300CA0112013528CB011201351ECC011201B4
:100CF3003514A50112013513A90112013519A901F2
:100D030012013554B0011201356DB501120135A43C
:100D1300C4031201353AC50312013550C50312014C
:100D230035C6C5031201353AC60312013578C60329
:100D3300120135ECC60312013565C7031201356E86
:100D4300C7031201357AC7031201358FC703120196
:100D530035CDC703120135E3C70312013542C8037A
:100D630012013561B4031201356EB40312013588E3
:100D7300B403120135C7B40312013505B5031201DB
:100D8300356AB5031201357FB5031201358AB50300
:100D930012013597B503120135AEB503120135BC07
:100DA300B503120135C7B503120135D3B5031201DB
:100DB30035E2B503120135EDB50312013510B60363
:100DC300120135B7B603120135C7B603120135E177
:100DD300B603120135FEB6031201351AB703120129
:100DE300353FB7031201354AB7031201355FB70325
:100DF30012013573B703120135D4B703120135DA83
:100E0300B703120135E0B703120135E6B703120148
:100E130035FEB70312013531B803120135B2AC0206
:100E230012013536AD02120135E5AD02120135442A
:100E3300AF0212013565B10212013551B20212013E
:100E43003586B202120135A8B20212013557B30238
:100E53001201354FB50212013578B5021201350A78
:100E6300B6021201353CB60212013549B60212012F
:100E730035A0B602120135C6B60212013533B902E6
:100E830012013536BA021201358EBA02120135EF5C
:100E93008F02120135F99002120135E0910212011D
:100EA30035EA91021201350C9202120135189202B1
:100EB300120135B19302120135E09302120135FCA0
:100EC3009402120135559502120135BB96021201A7
:100ED300359A9702120135F697021201356398028B
:100EE3001201359E9802120135DD980212013596E2
:100EF3009B02120135B09B021201353C9C02120188
:100F0300354A9C02120135A39C02120135B19C02A1
:100F1300120135249D02120135889D02120135D23A
:100F23009D0212013593D502120135B5D502120186
:100F330035DBD702120135F0DA0212013508DC0283
:100F4300120135BBDC021201359DDD021201352091
:100F5300E30312013545E303120135B7E30312013D
:100F6300351388031201351C8803120135258803C4
:100F7300120135FC8803120135AD8A03120135E3F2
:100F83008A031201351D8B03120135538B031201A2
:100F9300358D8B03120135C18B03120135ED8B03A4
:100FA300120135368C03120135708C03120135B9E9
:100FB3008C03120135118D03120135468D03120185
:100FC30035A18D03120135DB8D031201352C8E0300
:100FD300120135628E031201359C8E03120135CA4C
:100FE3008E03120135ED8E03120135427F0012018B
:100FF300356E7F00120135C97F00120135D37F00A2
:10100300120135E37F001201353CCF031201356134
:10101300CF031201358BCF031201350BCC03120121
:101023003526CC0312013555CC031201355BCC03B5
:1010330012013561CC031201358ECC03120135B395
:10104300CC03120135CACC03120135DFCC031201E4
:101053003533CD03120135ACCD03120135CCCD03AD
:10106300120135BAF00312013536CE011201358E65
:10107300D0011201354AD20112013537D3011201D1
:1010830035C5D30112013545D4011201356AD401A6
:101093001201357BD701120135F7D701120135E66D
:1010A300D8011201351ED90112013561D90112018E
:1010B300350DDB0112013562DB01120135AFDB01B6
:1010C30012013521DC0112013547DC0112013561C2
:1010D300DC0112013576DD0112013586DD011201D5
:1010E30035ADDE01120135CFDE0112013505DF0119
:1010F30012013591E001120135D0E001120135FCF6
:10110300E10112013550EE03120135E8EE0312013D
:101113003571F003120135B0F003120135CAF10342
:1011230012013571ED0312013581ED031201359082
:10113300ED0312013542EE03120135C0E80312013B
:101143003544E903120135AAE903120135AEB803A8
:10115300120135E5B803120135EFB803120135F773
:10116300B80312013563B903120135C5BA0312017D
:1011730035BADA0312013509DB03120135DEDB036D
:1011830012013525DC03120135ACDC0312013525D0
:10119300DD0312013528DD03120135ED7F00120155
:1011A30035F07F001201351CD8031201356FD803C7
:1011B300120135BED803120135CBD803120135E035
:1011C300D8031201351FD9031201355ED903120169
:1011D30035E8D90312013535DA03120135F87F00FA
:1011E30012013532DD03120135BADE031201351B5C
:1011F300DF0312013561DF03120135D8BC0312018D
:10120300351DBD031201353ABD03120135D0BD03AF
:1012130012013536BE031201350FBF031201359893
:10122300C003120135FFF00312013512F10312015D
:101233003516F10312013518F10312013521F103BB
:101243001201352AF10312013535F1031201353A42
:10125300F103120135FBEA021201351AEB02120106
:10126300350BEC021201350EEC021201353BEC0298
:10127300120135A9EC02120135F0EC0212013553CB
:10128300ED021201358DED02120135E1ED0212017D
:101293003500EE021201351BEE02120135BEEE02DD
:1012A3001201351FEF021201354CEF0212013555C1
:1012B300EF0212013519F00212013587F002120113
:1012C30035C1F002120135C4F00212013527F102D3
:1012D3001201357BF102120135B5F10212013520FD
:1012E300F2021201355CF20212013596F20212018A
:1012F30035CDF202120135D7F202120135F6F202B0
:1013030012013518F3021201354AF302120135C1F5
:10131300F30212013508F4021201355EF4021201E0
:101323003598F402120135BAEB03120135DCEB03F5
:1013330012013505EC031201351DEC031201355F73
:10134300EC03120135B09603120135BA960312016C
:1013530035FA96031201354397031201357D97033E
:10136300120135D79703120135F69703120135FFA2
:10137300970312013550980312013579980312012E
:1013830035839803120135EF98031201357D9903D4
:10139300120135D69903120135049A0312013584DB
:1013A3009A03120135C79A03120135029B031201F6
:1013B30035149B03120135339B031201353C9B0308
:1013C300120135099C0312013512F003120135C5D0
:1013D300E4031201351AE50312013588E50312010E
:1013E30035F8E5031201358FFD02120135B9FD020F
:1013F3001201358EFE0212013582FF02120135C041
:10140300EA0312013564DF031201359ADF03120187
:1014130035D3DF031201352CE103120135F3EE035B
:1014230012013509EF0312013513EF031201355D84
:10143300EF03120135008003120135BD8003120151
:1014430035F88003120135208103120135828103AF
:10145300120135CE8103120135328203120135ACFC
:101463008203120135AE8303120135618503120134
:1014730035E385031201354886031201355F860380
:10148300120135688703120135A6870312013577E8
:10149300AB0312013590AB0312013531AC031201DA
:1014A3003571AC031201358AAC03120135BDAC03AF
:1014B3001201350AAD031201353EAD031201358029
:1014C300AD031201358AAF03120135DCBA021201F2
:1014D3003565BE02120135EDBF0212013544C0026B
:1014E30012013563C002120135E1C0021201357FDA
:1014F300C20212013563C3021201354DC702120144
:10150300351DC802120135D1C00312013513C103C1
:10151300120135C9C103120135F1C103120135743A
:10152300C203120135E5C203120135CFC303120111
:10153300350AC403120135B8F103120135C1F103B1
:101543001201356EF1031201359AF103E066701052
:1015530008A3E066700A08A3E066700408A3E066C7
:1015630022C3E7960809E7960809E7960809E7966C
:1015730022C3E09608A3E09608A3E09608A3E096AA
:1015830022C008C3E096F50808A3E096420808A322
:10159300E096420808A3E09645087001D3D00822DC
:1015A300080808EAC0E0EBC0E086F0E7A4FA1809EF
:1015B30086F0E7A42AFA180986F0E7A42AFA18099C
:1015C30086F0E7A42AFA1986F0E7A4FBE5F02AFAE5
:1015D300190886F0E7A42BFBE5F03AFA190886F020
:1015E300E7A42BFBE5F03AFA18180986F0E7A4C53F
:1015F300F02BFBE43AFA1908E7C5F0C6A426F6E592
:10160300F03BFBE43AFA1886F0E7A4F6E5F0082687
:10161300F6E43B08F6E43A08F6D0E0FBD0E0FA2221
:10162300E4CFC0E0E4CEC0E0E4CDC0E0E4CCC0E071
:1016330075F020E626F608E633F608E633F608E604
:1016430033F6181818EC33FCED33FDEE33FEEF33AD
:10165300FFC3EC9709ED9709EE9709EF971919194D
:10166300400FFFEC97FC09ED97FD09EE97FE191962
:1016730006D5F0BFECF709EDF709EEF709EFF71917
:101683001919D0E0FCD0E0FDD0E0FED0E0FF2260ED
:1016930016080808C6C313C618C613C618C613C649
:1016A30018C613C6D5E0EA22700908080822601696
:1016B300181818C6C333C608C633C608C633C608C7
:1016C300C633C6D5E0EA22E627F60809E637F60868
:1016D30009E637F60809E637F622E026F608A3E01E
:1016E30036F608A3E036F608A3E036F622E026F045
:1016F30008A3E036F008A3E036F008A3E036F022B2
:10170300C3E697F60809E697F60809E697F6080987
:10171300E697F622C3E096F008A3E096F008A3E06C
:1017230096F008A3E096F022E657F60809E657F686
:101733000809E657F60809E657F622E056F608A325
:10174300E056F608A3E056F608A3E056F622E05664
:10175300F008A3E056F008A3E056F008A3E056F023
:1017630022E0F608A3E0F608A3E0F608A3E0F622D9
:10177300E6F008A3E6F008A3E6F008A3E6F022E00B
:10178300FAA3E0FBA3E0FCA3E0FD22EAF0A3EBF065
:10179300A3ECF0A3EDF022E0F8A3E0F9A3E0FAA3B1
:1017A300E0FB22E8F0A3E9F0A3EAF0A3EBF022CAFE
:1017B300C0E0E6F0A308DAFAD0E0FA22CAC0E0E01B
:1017C300A3C582CCC582C583CDC583F0A3C582CC16
:1017D300C582C583CDC583DAE6D0E0CA22C3E498C7
:1017E300F8E499F91218218026C3E49AFAE49BFBE2
:1017F300E920E7E9121821E498F8E499F922C3E40F
:1018030098F8E499F9121821E498F8E499F9C3E4F3
:101813009AFAE49BFB22EB20E7CFE920E7E0B9004B
:1018230010BB0008E88AF084F8AAF022E4FBC8FAA7
:1018330022EB70227B10C833C8C933C9335007C3A6
:101843009AC3DBF280069A50012ADBEAC833F4C854
:10185300C933F4C9FA2275F008E4C833C8C933C9D7
:1018630033C99AC99B5004C92AC93BD5F0ECFBC8BC
:1018730033F4C8E4C9FA22600D08C6A2E713C618F8
:10188300C613C6D5E0F322600C08C6C313C618C638
:1018930013C6D5E0F422700422600D18C6C333C604
:1018A30008C633C6D5E0F41822251810AF08F5187A
:1018B300400C15198008F51840021519D2AF220003
:1018C300C0D0251810AF08F518500C05198008F57D
:1018D3001850020519D2AFD0D0222518F58210AFC7
:1018E30008F518400C15198008F51840021519D28F
:1018F300AF851983222518F582E43519F58322254E
:1019030018F8E43519F9222518FAE43519FB2225CC
:1019130018FCE43519FD22E4732518C582C0E0E5FF
:101923001934FFC583C0E0E518C3958224F810AFCE
:10193300088583198582188008858319858218D2C2
:10194300AFCEF0A3E520F0A37808E608F0A3DEFA13
:10195300EFF0A3E58124FAF8E608F0A3E608F0A384
:10196300E608F0A30808E608F0A3E608F0A315814B
:101973001581D0E0FED0E0F8158115811581E8C00E
:10198300E0EEC0E0222518C582C0E0E51934FFC5AA
:1019930083C0E0E518C3958224F910AF0885831945
:1019A3008582188008858319858218D2AFCEF0A36B
:1019B300E520F0A37808E608F0A3DEFAEFF0A3E54C
:1019C3008124FBF8E608F0A3E608F0A30808E6087C
:1019D300F0A3E608F0A315811581D0E0FED0E0F86E
:1019E30015811581E8C0E0EEC0E0228519838518D2
:1019F30082E0A3FEE0A3F5207808E0A3F608DFFA6F
:101A0300E0A3FFE0A3C0E0E0A3C0E0E0A3C0E0E008
:101A1300A3C0E0E0A3C0E010AF0885821885831956
:101A23008008858218858319D2AFD083D0820201C2
:101A330032851983851882E0A3FEE0A3F520780898
:101A4300E0A3F608DFFAE0A3FFE0A3C0E0E0A3C051
:101A5300E0E0A3C0E0E0A3C0E010AF0885821885F2
:101A630083198008858218858319D2AFD083D082E9
:101A730022C0D02518C582C0E0E51934FFC583C054
:101A8300E0E518C3958224F310AF08858319858296
:101A9300188008858319858218D2AFC8F0A3E9F0AE
:101AA300A3EAF0A3EBF0A37908E709F0A3D8FAECD3
:101AB300F0A3EDF0A3EEF0A3EFF0A3D0E0F0A3D0FA
:101AC300E0F0A3D0E0F0A3E520F0A3E5F0F0A3223B
:101AD300851983851882E0C0E0A3E0F9A3E0FAA3A7
:101AE300E0FBA37808E0F608A3DFFAE0FCA3E0FD3F
:101AF300A3E0FEA3E0FFA3E0C0E0A3E0C0E0A3E017
:101B0300F5D0A3E0F520A3E0A3F5F010AF0885839B
:101B1300198582188008858319858218D2AFD082EF
:101B2300D083D0E0F8D0E0327404800674028002DF
:101B33007401C0E0F4041218DDD0E01217B222746D
:101B430004800474028000CCC0E0EDC0E0E518C35B
:101B53009CCCAD1950011D10AF068C188D19800651
:101B63008C188D19D2AF1217BFD0E0FDD0E0FC2244
:101B7300D083D082E9C0E0E493A3C386F0C5F09597
:101B8300F0F908E493A386F0C5F095F0700BE493A5
:101B9300A3C3994005E9048002A3E475F002A425D8
:101BA30082F582E5F03583F583D0E0F9E493A3C0B1
:101BB300E0E493C0E022D083D082ECC0E0EDC0E04B
:101BC300E493A3FCE493A3FDED4C600D121C05EC20
:101BD30024FFFCED34FFFD80EFE493A3FCE493A327
:101BE300FDED4C600D121C44EC24FFFCED34FFFDB5
:101BF30080EFD0E0FDD0E0FCE493A3C0E0E493C029
:101C0300E022C0E0C3E49396087401939618400F52
:101C1300E49366700808740193661870007019A342
:101C2300A3C3E49396087401939618A3A3400DD01D
:101C3300E0D0E0D0E0021BF5A3A3A3A3A3A3D0E0CD
:101C430022C0E0C0F088F0E4936670080874019342
:101C530066187000A8F0A3A3700BD0F0D0E0D0E01A
:0C1C6300D0E0021BF5A3A3D0F0D0E022DB
:101C700074F5121988EAFEEBFFEE2434F8EF340015
:101C8000F988088909EE2435F582EF3400F583E000
:101C9000F8EE2437F582EF3400F583E0F50AEC85A1
:101CA0000AF0A4FCAAF0850AF0EDA42AFDE82CF8BD
:101CB000E43DF97A257B00121821EA85088285091E
:101CC00083F0F8740758F97401B900028004C33333
:101CD000D9FCFAE8131313541FF8EE28F8EF340078
:101CE000F9E8245DF582E93400F583E05A6008EEF6
:101CF0002434F582EF802CEE2434F582EF3400F5A5
:101D000083E0C0E0EE2436F582EF3400F583E0F5A1
:101D1000F0D0E084A8F0EE28F8EF3400F9E8243899
:101D2000F582E93400F583E0F97F04021A3474F592
:101D3000121988EAFEEBFFEE2434F582EF3400F549
:101D400083E0C0E0EE2435F582EF3400F583D0E087
:101D5000F08E828F83A3A3A3A3A3A3A3C082C08377
:101D60008E828F83A3A3A3A3A3E0F8A3E0F9D0837B
:101D7000D082E0C398F508A3E099F509EE247FF539
:101D800082EF3400F583E064017069EE2480F5820F
:101D9000EF3400F583E0F8A3E0F98E828F83A3A3EC
:101DA000A3A3A3A3A3E0FCA3E0FD8E828F83A3A340
:101DB000A3A3A3E0FAA3E0FBC3EA9CEB9D5010C3EE
:101DC000EC98ED99402EC3EA98EB995027800EC30A
:101DD000EA98EB994007C3EC98ED9940177C877D12
:101DE00005EEFAEFFB120BF5EE247FF582EF3400DF
:101DF000F583E4F0EE2434F8EF3400F9E8FCE9FD73
:101E0000EE2435F582EF3400F583E0F8EE2437F563
:101E100082EF3400F583E0F50AE508850AF0A4F5C1
:101E200008AAF0850AF0E509A42AF509E82508F8CA
:101E3000E43509F97A257B00121821EA8C828D831A
:101E4000F0F8740758F97401B900028004C333D95B
:101E5000FCFAE8131313541FF8EE28F8EF3400F9D6
:101E6000E8245DF582E93400F583E05A6008EE2449
:101E700034F582EF802CEE2434F582EF3400F583C4
:101E8000E0C0E0EE2436F582EF3400F583E0F5F0B3
:101E9000D0E084A8F0EE28F8EF3400F9E82438F513
:101EA00082E93400F583E0F9122AAB021D29C082D1
:101EB000C083851882851983E0F8A3E0F9C3EA9C02
:101EC000EB9D5010C3EC98ED99401BC3EA98EB9939
:101ED0005014800EC3EA98EB994007C3EC98ED9933
:101EE0004004790180027900D083D08222EAC39C29
:101EF000FAEB9DFB2274EF12198890044DE0640800
:101F00006005E06407702A9061C8E0602490047B5B
:101F1000E0F4601DE0F875F003A4C8AAF02AF97493
:101F20007D28FE740439FF8E828F83A3A3A3E07003
:101F300003022025906060E0C0E0EE2468F582EFA7
:101F40003400F583D0E0F0750CF0750D05750800D0
:101F5000750900E5D914F50AE5D95403F50E6017A3
:101F60007403650E605CE50A6010EE2467F582EF8D
:101F70003400F583E0700302200A9005EBE0640171
:101F8000602AEE2482F582EF3400F583E060047865
:101F90000480027800850A08E508C398FA95E0FBFA
:101FA000120A9F8A088B09EA45097005120DFF8005
:101FB00074EE2482F582EF3400F583E070048A0C1D
:101FC0008B0DE50A6012850C82850D83F50BE5D932
:101FD000F0A3150BE50B70F6EE2482F582EF3400CA
:101FE000F583E0604474FC250AF50A780C121B2F77
:101FF000AC0AA90EEEFAEFFB120C9774021218C28B
:10200000E97026AA08AB091213D5793D8E828F8319
:10201000A3A3A3A3E0FA7B00120973EEFAEFFB126D
:102020000C0D120CA9790080747403650E6056853E
:102030000A107511007810121B2FAC0CAD0DAA08F8
:10204000AB09120C7374021218C2EE2468F582EF09
:102050003400F583E064807004747F8001E0F50C47
:10206000780C121B33E50EF50C780C121B33A90A01
:10207000AC08AD0990047BE0FA7B001209377402CA
:102080001218C2801390044DE06408600BAC0CADD4
:102090000DEEFAEFFB120D03120E0B79017F0A020F
:1020A0001A3474F512198874FC1218ACEAFEEBFFAE
:1020B0008908A2AFE433F509C2AF806AEE2463F861
:1020C000EF3400F97A007B00A2AFE433F50AC2AF27
:1020D00088828983E0FCA3E0FDEC4D603A88828928
:1020E00083E0FAA3E0FB8A828B83E0FCA3E0FD8817
:1020F000828983ECF0A3EDF08A828B83E4F0A3F075
:1021000088828983E0FCA3E0FDEC4D700A88828917
:1021100083A3A3E4F0A3F0E50AA2E092AF1213D5E3
:1021200090058EE004F0EE2463F582EF3400F58331
:10213000E0F8A3E0F9E849603DEE2463F582EF346E
:1021400000F583E02402FAA3E03400FBEA2402F560
:102150000AEB3400F50B780A121B2F8A828B83E07E
:10216000FCA3E0F9EEFAEFFB120C3174021218C274
:10217000E970030220BC90058EE0606390058FE05B
:10218000F890058EE0C398500C740265087050906A
:102190000590E0604A8E828F83A3A3A3A3E08518F5
:1021A00082851983F0A3E4F090058EE0F8740212A2
:1021B00018F8E8F0A3E4F090058EE0F890058DE0C3
:1021C00028F074021218F8AC82AD83851882851944
:1021D00083AA82AB83790112094390058EE4F0E56E
:1021E00009A2E092AF74041218C2021D2900000077
:1021F0008521878522C622C0E0C0D0E8C0E0E9C0C2
:10220000E0EAC0E0EBC0E0ECC0E0EDC0E0EEC0E032
:10221000C008C009C00AC00BC082C083C0F0A2AF12
:10222000E433FEC2AF759B00906182E0A2E05012E1
:10223000E591A2E0500C7591FE74016521700312C6
:102240001EF5E0A2E55051E591A2E5504B7591DFF6
:1022500090044DE064076005E06408702374016534
:10226000217035790190047BE0FA75F003A4CAA8C7
:10227000F028FB747D2AFA74043BFB1220A280181C
:10228000E0640D701390046FE004F064287002E4C1
:10229000F07A00E0F9120E11906182E0A2E64003AC
:1022A00002233EE591A2E6400302233E7591BF90D2
:1022B000044DE064057008120D39120D45800312BB
:1022C0000D3F752100120D9FE990044EF079001228
:1022D0000D93120B657A017B0090044CE0F9121308
:1022E0009F907803E0644270559005EFE014F07021
:1022F0004DC2AF1222F600782AD0E0F618D0E0F6F0
:10230000E59F540770057509FF800375097FC4C0F8
:10231000E07829E6F50808E65509F509740B780810
:1023200012188AD0E02508F8906270E0A2E740F821
:10233000E8C333906272F0906270E0D2E0F0906196
:1023400081E0A2E35009E5E9A2E3500375E9F7A3B0
:10235000E0A2E75009E591A2E7500375917FEEA254
:10236000E092AFD0F0D083D082D00BD00AD009D089
:1023700008D0E0FED0E0FDD0E0FCD0E0FBD0E0FAF9
:10238000D0E0F9D0E0F8D0D0D0E032C0E0C0D0C08A
:1023900082C083906183E0A2E05009E5BFA2E050D3
:1023A0000375BFFEE0A2E15009E5BFA2E15003754D
:1023B000BFFDE0A2E25009E5BFA2E2500375BFFBFA
:1023C000E0A2E35009E5BFA2E3500375BFF7E0A226
:1023D000E45009E5BFA2E4500375BFEFE0A2E55069
:1023E00009E5BFA2E5500375BFDFE0A2E65009E5AD
:1023F000BFA2E6500375BFBFD083D0828088C0E003
:10240000C0D0E8C0E0E9C0E0EAC0E0EBC0E0ECC06A
:10241000E0EDC0E0C0F0E5A7A2E6500FE5A1A2E61E
:10242000500953A7BF75A1BF122463E5A7A2E550C9
:102430000CE5A1A2E5500653A7DF75A1DFE5A7A231
:10244000E15009E5A1A2E1500375A1FDE5A7A2E2D3
:10245000500CE5A1A2E2500653A7FB75A1FBD0F0FA
:1024600002237474F812198875210190044DE064F8
:10247000067015120CC78A828B83A3A3A3A3A3A300
:10248000E0FAA3E0FB120D27A2AFE433FED2AF9037
:102490000453E0640170187A207B0090044CE0F94A
:1024A0001214B37A207B0090044CE0F91213A5902B
:1024B0006182E0D2E6F09005ECE0602185C62280E2
:1024C00016900452E064017008E5C654F84405F51E
:1024D000C653BEFC1221F07401652160E4EEA2E057
:1024E00092AF7F01021A34008E238F2485822885C3
:1024F0008327851882851983E0CEA3E0CF852882C3
:10250000852783EBC9EAC8EDCBECCA75F010C3E8A8
:1025100033C8E933C9EA33CAEB33CBC3EA9EF526A5
:10252000EB9FF525B35004AB25AA26EC33CCED3355
:10253000CDD5F0DAAE23AF242274E912198874F8ED
:102540001218AC851882851983ECF0A3EDF08A0887
:102550008B0990044DE024F7C394055006750801DB
:102560000226D0120CC78A0A8B0BAE0AAF0BEE4FB5
:1025700070030226CDAC08AD0974021218F8AA82C5
:10258000AB83120D578E828F83A3A3750CFF750D3D
:10259000FF750EFF750F00780C12173E74021218AB
:1025A000F87510FF7511FF7512FF75130078101282
:1025B000173E780C7910121564502A780C79101295
:1025C00017037508017509C8750A00750B007808AE
:1025D000790C1215645052850C08850D09850E0A78
:1025E000850F0B80507514017515C8751600751789
:1025F0000085100885110985120A85130B78087962
:102600000C12170378147908121564401C75080021
:10261000750900750A00750B017808791012170307
:102620007808790C1216CA800C75080175090075B6
:102630000A00750B00740978081216AB750C19F5B1
:102640000DF50EF50F7808790C1216238E828F8304
:10265000A3A3A3A3A3A3E0F8A3E0F97AD07B03127A
:102660001821880C890DE4F50EF50F7808790C1205
:1026700016CA74061218F8E0F8A3E0F97AD07B03C2
:10268000121821E8FA8A0CE4F50D7808790C121575
:102690006450077808790C12170390044DE0640821
:1026A000600AE064066005E06405702D750C0D7825
:1026B0000C79081215644021750CF4750DFF750E28
:1026C000FF750FFF7808790C1216CA800C75080088
:1026D000750900750A00750B00851882851983E05D
:1026E000F8A3E0F58388827808121773740812182B
:1026F000C27F10021A3474F7121988120D699005FE
:10270000EAE064017010906245E4F0A3F053F4F342
:1027100043FE0C5390F3120D15E5C654804449F561
:10272000C6E59E547F644970F8906185740FF090FF
:1027300005E8E0F47002A3E0604E9005E9E060086F
:1027400014601B14602E8040750801750900900507
:10275000E8E07808121899E508F45280802A750894
:10276000017509009005E8E07808121899E508F469
:10277000529080147508017509009005E8E078080A
:10278000121899E508F452A079007F02021A3474F5
:10279000F7121988E9FEEAFF74016E700C7A807BEB
:1027A0000090044CE0F912139F902B58E493F460CE
:1027B00008E493F9120B59800953C680E59E547FB3
:1027C00070FA120D1B9005EAE064017003120B779A
:1027D0009005E8E0F47002A3E0604B9005E9E0604A
:1027E0000814601A14602C803D750801750900906A
:1027F00005E8E07808121899E508428080287508F5
:10280000017509009005E8E07808121899E508427A
:102810009080137508017509009005E8E0780812AA
:102820001899E50842A0120D69120CC78A088B0995
:10283000A808A909E8496015E5E170FCE82414F549
:1028400082E93400F583E0F46003E0F5E174016FA0
:10285000700A7A0190044CE0F912142902278A7454
:10286000ED1219888A088B098C0A8D0B74131218C3
:10287000F8780C1217647808790C12156475100139
:102880007511C875120075130050127808790C1272
:1028900017037810790812156450168010780C7997
:1028A000081217037810790C12156440047901801E
:1028B0000279007F0C021A3474ED1219888A088B91
:1028C000098C0A8D0B74131218F8780C121764789F
:1028D0000C790812156440117808790C121703AAB4
:1028E00008AB09AC0AAD0B8022751000751100759C
:1028F00012007513017810790C12170378107908FB
:102900001216CAAA10AB11AC12AD1380A68A828B24
:10291000837508FF7509FF750AFF750B00780812AB
:1029200017517F04021A3474F51219888C828D8332
:1029300078081217648A828B837808121717EA24A2
:1029400004F8EB3400F98C828D83A3A3A3A3E0FCED
:10295000A3E0FD88828983C3E09CF0A3E09DF0881A
:10296000828983C3E09420A3E0944E40268A828B20
:10297000837508FF7509FF750AFF750BFF7808124C
:1029800016F08A828B83A3A3A3A3E02420F0A3E004
:10299000344EF002290D74F5121988E9FE9005A253
:1029A000E0FAA3E0FBEEC333F8E433F974A028F5B2
:1029B00082748B39F583E02AF508A3E03BF50978AA
:1029C00008121B2F7A407B427C0F7D001224E87492
:1029D000021218C28A088B098C0A8D0B74107808B1
:1029E000121692AA08AB097F04021A3474F1121964
:1029F000888A0C8B0D8C0E8D0F740F1218F8E0FA6C
:102A0000A3E0FB74111218F8E0F508A3E0F50978CB
:102A100008121B2FEA2401F508EB3400F509E4F550
:102A20000AF50B780C79081215A37508717509025F
:102A3000780C79081215A3AA0CAB0DAC0EAD0F12D1
:102A400024E874021218C28B09EA450960047A016D
:102A500080027A00EC2AFCED3400FD74131218F8A1
:102A6000E0F8A3E0F9E8FEE9FFECF8EDF97A717B14
:102A700002121821880889098E828F83780812171C
:102A800073ECF8EDF97A717B021218218A088B0930
:102A9000740578081218998E828F83A3A3A3A3E5E7
:102AA00008F0A3E509F07F08021A34C082C083E968
:102AB000906000F0D083D08222C0E074F2121A74C9
:102AC000A2AFE433FED2AFE589A2E04012E589A2CD
:102AD000E1400CE589A2E24006E589A2E350031239
:102AE0001189900305E064017009E589A2E55003AE
:102AF000121189758900C2C5751A00EEA2E092AF65
:102B00007F01021AD3C0E074F2121A74A2AFE43348
:102B1000FED2AFE58AA2E44006E58AA2E5500312A0
:102B20001189758A00C2EB80CFC0E0C0D0E8C0E058
:102B3000E9C0E0A9A8D2AFC2C7751A00E9A2E7E4CC
:102B400033F8E9A2E792AFD0E0F9D0E0F8D0D0D0E6
:102B5000E032C2AF02000022FFFFFFFFFFFFFFFFD6
:102B6000C082C08390780E122BA2A3F090780F122F
:102B70002BA2F0907810122B9BA3A3F09078111247
:102B80002B9BA3F0907812122B9BF0907813E08A85
:102B9000828B83F0D083D082020132E08A828B83E1
:102BA000A322E08A828B83A3A3A3A322AABDA8BCED
:102BB00075B437EAFBE8FA02013274F412191C8A80
:102BC000088B097A107B001214118A0A8B0BAE0A4B
:102BD000AF0B12045D8E828F83A3A3A3A3A3A37460
:102BE00010122C537407122C53A37413122C6474F8
:102BF0000A122C64A37432F0EE240BF582E43FF544
:102C0000837414F0EE240CF582E43FF5837402F033
:102C1000EE240DF582E43FF5837442F0EE240EF5C8
:102C200082E43FF583744AF0EE240FF582E43FF529
:102C3000837443F07808121B2FEEFCEFFD7AD57BEE
:102C40000D120AC374021218C2EEFAEFFB12141727
:102C5000022FB0122C5722F08E828F83A3A3A3A33E
:102C6000A3A3A322122C57A3A32274F412191C7439
:102C7000D71218ACE9FE7A107B001214118A088B67
:102C8000097808121B2F7C087D0E7AD57B0D120A5D
:102C9000C374021218C2908B41740E121912741769
:102CA0001217BF850882850983E0C0E0740E1218F0
:102CB000F8D0E0122FBEE0C0E0740F1218F8D0E098
:102CC000122FBEA3E0C0E074101218F8D0E0122F4B
:102CD000CBE0C0E074111218F8D0E0122FCBA3E0C3
:102CE000C0E074121218F8D0E0122FD9E0C0E074DE
:102CF000131218F8D0E0122FD9A3E0C0E074141218
:102D000018F8D0E0122FDFE0C0E074151218F8D0E8
:102D1000E0122FDFA3E0C0E074161218F8D0E01222
:102D20002FEBE0C0E074171218F8D0E0122FEBA3DD
:102D3000E0C0E074181218F8D0E0F0E508240B1297
:102D40002FB5C0E074191218F8D0E0F0E508240C93
:102D5000122FB5C0E0741A1218F8D0E0F0E508247C
:102D60000D122FB5C0E0741B1218F8D0E0F0E50882
:102D7000240E122FB5C0E0741C1218F8D0E0F0E554
:102D800008240F122FB5C0E0741D1218F8D0E0F01F
:102D9000AA08AB09121417EE900301F07C017D0024
:102DA0007A1F7B001205898518828519837401F0CA
:102DB000740C1218F8E4F0A3F0041218F87401F07F
:102DC000740A1218F87414F0A3E4F074081218F8D6
:102DD0007450F0A3E4F074061218F8E4F0A3F07451
:102DE000041218F874E8F0A37403F0AC18AD197964
:102DF000017A05FB1214CB740C12191279027A06AF
:102E00007B031214CB740E12191279177A087B0304
:102E10001214CB7CE67D0D79077A077B031214CB65
:102E2000740112191279017A107B031214CB740AFF
:102E300012191279027A117B031214CB7408121939
:102E40001279027A127B031214CB740612191279CA
:102E5000027A137B031214CB740412191279027ACA
:102E6000147B031214CB7CED7D0D7A1579001207CB
:102E7000037CA07D007A067B001205897CA07D0082
:102E80007A077B001205897CA07D007A087B0012FE
:102E900005897CA07D007A097B00120589742512C2
:102EA00018F81249E5041218F874011241CE74039F
:102EB0001218F8E4F074021218F87401F074251274
:102EC000191279047A087B0412106974011219121C
:102ED00079017A007B04121069AC18AD1979017A76
:102EE000027B04121069740312191279017A037BB0
:102EF00004121069740212191279017A067B041205
:102F00001069908C58121782120709908C5812176A
:102F100082120811121009908C581217821211FB9C
:102F2000900301E0F912133312153712044512040D
:102F30004B12122512123D12101B121021121243B5
:102F4000908CE4AC18AD1974011217BFA818A91918
:102F5000880889097808121B2F7C017D007AF07B94
:102F60001F12116574021218C2851882851983E038
:102F700064AA60031204991211CB79001212557AD7
:102F8000067B0E121201790112090D79021209074E
:102F9000790012091379011209197A017B00900353
:102FA00001E0F912139F790112142374291218C237
:102FB0007F040219EEF582E43509F583E022122F31
:102FC000C222F0850882850983A322122FCF221204
:102FD0002FD322122FC2A3A322122FCFA3A32212D8
:102FE0002FE322122FD3A3A3A3A322122FE3A3A381
:102FF0002274F112191C74FD1218AC890E908C9B6E
:10300000AC18AD1974031217BF7A03FB1214118A9E
:103010000A8B0BC2AFA818A9198808890978081269
:103020001B2F7C017D007AFE7B1F1211657402123A
:1030300018C274011218F88582088583097808126D
:103040001B2F7C017D007AFF7B1F12116574021219
:1030500018C274021218F88582088583097808124C
:103060001B2F7C017D007AF07B1F12116574021208
:1030700018C2D2AF1204578A088B091204578A0C5F
:103080008B0DAE0CAF0D1204578A0C8B0DA80CA93A
:103090000DC3E5089EE5099F5033C3EE98EF9940B4
:1030A00033C3E50898E509994004AA08AB09900ADA
:1030B000D5EAF0A3EBF0851882851983E06026F845
:1030C000900AD5C3E098F0A3E09400802BC3E89E5B
:1030D000E99F5006EEFAEFFB80D4C3E89508E99526
:1030E0000950C780C974011218F8E0F8600B900A03
:1030F000D5E028F0A3E03400F0900AD5E0F8A3E092
:10310000F9C3E894ABE994054022E82456F8E93481
:10311000FAF9E875F064A4F8AAF075F064E9A42A55
:10312000F97ABB7B01121821E8A38002A3E4F09096
:103130000302E06405705D7401650E7057850A82B4
:10314000850B837431F0E50A2402F8E4350BF9A30A
:10315000AA82AB8375F00A900AD7E084940A8A8227
:103160008B83400A7401F088828983E4801AE4F03A
:10317000900AD7E0FA75F00A84ABF075F00AEA8499
:10318000C454F02B88828983F0AC0AAD0B7A0379A2
:1031900001121207AA0AAB0B1214177964740312F6
:1031A00018C27F070219EE74F012191C74F9121874
:1031B000AC74011218F8EAF0A3EBF074011218F8DD
:1031C000A3E054806041900301E0F91213878A085C
:1031D0008B09AE08AF09EE4F60208E828F83E064CA
:1031E000C07010A3A3A3E0FA8E828F83A3A3E0F99B
:1031F000120481EEFAEFFB12137574011218F81223
:10320000420A64800241BC74011218F8E0A2E05046
:10321000257A027B0E1214D77A077B031210877A65
:10322000407B00900301E0F912139F74011218F81B
:10323000E0640102400D54026053908C48121B421E
:103240007A027B00900301E0F91214A774041218AB
:10325000C2A285501B900305E06401701312123165
:10326000900305E4F012125B12123D900AA1E4F003
:10327000900A9BE0600C1241D712139F90030574D3
:1032800001F074011218F8E0640202400DE05440AD
:1032900070030234A2900DE5E06003023342740132
:1032A000F0790012142379AF1211BF1213217C2D73
:1032B0007D0A7A6E7980121483900ADCE06037C24E
:1032C000AF7508DF75090A7808121B2F1249FE1224
:1032D000116574021218C275081D75090D7808125F
:1032E0001B2F7CB87D00900A97124A051211657455
:1032F000021218C2D2AF1210517A027B0090030161
:10330000E0F912139F908C34121B427A007B0190DB
:103310000301E0F91214A774041218C27A007B406A
:10332000900301E0F912139F908C30121B427A40F7
:103330007B00900301E0F91214A774041218C20272
:103340003497E41241CE1214DDAC18AD1979017A2C
:10335000057B031214CB900306E4F0F9121255908A
:103360000ADCE0602E900AB6E41241E2E4F0900A32
:10337000DAF0900AD904F0900AA1E4F0900ADBF0A8
:103380007C08FD79BB7AB87B0A121513900A9BE47E
:10339000F0800312153112123112123D12101B90DF
:1033A0000ADCE06069900AD1E07008900AD3E0641A
:1033B000017015C2AF7C2D7D0A7A6E798012147D62
:1033C000D2AF900AD1E07008900AD3E06402703E58
:1033D000C2AF7508DF75090A7808121B2F1249FE63
:1033E00012116B74021218C27A0A7B001211A775AF
:1033F000081D75090D7808121B2F7CB87D00900AF6
:1034000097124A0512116B74021218C2D2AF7A08D1
:103410007B00900301E0F91214B37A047B0090035F
:1034200001E0F91214B37A007B02900301E0F91273
:1034300014B37A007B04900301E0F91214B37A000C
:103440007B10900301E0F91214B37A007B0890031B
:1034500001E0F91214B37A007B01900301E0F91244
:1034600014B37A107B00900301E0F91214B37A00D0
:103470007B40900301E0F91214B37A027B009003C1
:1034800001E0F91214B37A407B00900301E0F912D5
:1034900014B3790112142374011218F8E064400285
:1034A000400DA3E05402700302354F7A007B029076
:1034B0000301E0F91214B37A007B04900301E0F9F0
:1034C0001214B3900AA3E0700474018001E4F09038
:1034D0000303E4F0900AB7F0900AB61241E2E085E7
:1034E00018828519836017E4F01214DDAC18AD1949
:1034F00079017A057B031214CB12126780447401A0
:10350000F01214DDAC18AD1979017A057B031214A1
:10351000CB908C48121B427A027B00900301E0F9A9
:103520001214A774041218C2121279908C94121BF0
:10353000427A007B20900301E0F91214A774041270
:1035400018C274011218F812420A64020241BC74D3
:10355000011218F8A3E0540470030239B8900AB7B6
:10356000E4F0FA7B04900301E0F91214B3900AB678
:10357000E060271470030236001470030236ED1465
:1035800070030237F61470030238561470030239C0
:103590000214700302395102399A7508087509003E
:1035A0007808121B2F7CA67D0A7A2D7B0A12150D36
:1035B00074021218C2E96013121273900AD8E0F96B
:1035C000121303900AB674010237F2900AB6E4F0BF
:1035D00012126D900ACAE004F0C394065003023937
:1035E0009A1210517AF37B0712105D900ACB1217D2
:1035F0008E7A407B00900301E0F912139F02399A02
:10360000900CA312420AF8900AD8E024FE6012142B
:10361000604514604E1460681470030236B50239B8
:103620009AEAC3940A400574BB6A70428518828581
:1036300019837401F0900A9DF01214DDAC18AD19D5
:1036400079017A057B031214CB1212851212919024
:103650000AB674020237F2900AB67403F01212A38B
:1036600002399AE8C3940A400B74BB6860061213CF
:1036700009023983900AB67404F01212C102399A11
:10368000790074BB6A6035900AB67405F0890875D4
:103690000900740378081218991249DF600BE99049
:1036A0000AD9F01212D902399A09E9C3940A4003DF
:1036B00002399A80D87A0074BB68700612130F0220
:1036C0003983900AB67406F0EA75F009A4F8A9F0F7
:1036D000124A12600CEA900ADAF0F91212EB02397F
:1036E0009A0AEAC3940A400302399A80DB7A047B7F
:1036F000001214118A088B09AE08AF0975080090F2
:103700000302E0640560030237E7800205088508CC
:103710000A750B007403780A121899742D250AFA99
:10372000740A350BFBEA2408F8E43BF988828983A4
:10373000E0F470D8E508900AC7700AE0D2E41255A8
:10374000B3D2E78008E0D2E51255B34442F0888254
:103750008983E508F0750A07750B00780A121B2F9C
:103760007CC17D0AEA2409FA50010B12134B740242
:103770001218C27C0679007AC17B0A120493E9F51B
:1037800009900ADB7401F0A908121297908C941228
:103790001B427A007B20900301E0F91214A7740405
:1037A0001218C2900CA3E064BB700474018002E0A4
:1037B00004124B5D742FF0A3E508F0900AC7125570
:1037C000E9A3124B5DA3A3A3E509124B637A047925
:1037D000011212077C077D0079007AC17B0A12155D
:1037E00013900AB67401F0EEFAEFFB121417900A68
:1037F0009DE4F002399A7508087509007808121BD3
:103800002F7CB87D0A7AA67B0A12150D7402121855
:10381000C2E960217808121B2F7CB87D0A7A2D7BC3
:103820000A12134B74021218C21212AF900AD1E09E
:103830004441F080031212B5908C90121B427A0022
:103840007B20900301E0F91214A774041218C290AF
:103850000ADB740180427E007508088E0978081220
:103860001B2F7CB87D0A7AA67B0A12150D740212F2
:1038700018C2E970391212CD908C90121B427A0056
:103880007B20900301E0F91214A774041218C2906F
:103890000AD97401F0900ADBF0900AB6F07C087D3A
:1038A0000079BB7AB87B0A12151302399A0EEE75AD
:1038B000F009A4F8A9F074DF28F8740A39F9E8FAD5
:1038C000E9FB8A828B83A3E064BB70E1EEF07808A9
:1038D000121B2F7CB87D0AEA2402FA50010B121346
:1038E0004B74021218C2EEF91212C7900CA4E064D5
:1038F000BB700474018002E0041255B34444F0022A
:103900003878900AD9124A20121899742D2508F88F
:10391000740A3509F9E8FAE9FB8A828B83A3A3A329
:10392000A3A3A3A3A374FFF07C077D007900EA247E
:1039300009FA50010B121513900CA3E014F0700358
:1039400074BBF0900AD1E044421241ED1212DF80C4
:10395000327C097D00900ADAE08CF0A4F8A9F074BA
:10396000E028FA740A39FB79BB121513900CA4E015
:1039700014F0700374BBF0900AD1E044441241ED9E
:103980001212F1908C90121B427A007B209003015E
:10399000E0F91214A774041218C2900AB7E4F07C7C
:1039A0000FFD79FF7AA67B0A12151374011218F81D
:1039B00012420A64040241BC74011218F8E054086F
:1039C0006050900A9BE06401703D900302E0640542
:1039D0007035900AD1E0602F900AA3E07029900A18
:1039E000D1E0A2E74021D2E6F07C03900AC8E0F9DA
:1039F0007A187B0E120493E9900AC8F07C187D0EA9
:103A00007A03790112120774011218F8E0640802AF
:103A1000400DA3E054087003023BCB7A007B089072
:103A20000301E0F91214B3900ADCE07003023BAE2C
:103A30007E00EE75F009A4F8A9F074DF28F508748B
:103A40000A39F509750A08750B00780A121B2F7CD4
:103A5000A67D0AE5082402FAE43509FB12150D7467
:103A6000021218C2E960119003057401F0121237B6
:103A7000900D1E7401023B58E508245DF50AE435FB
:103A800009F50B750C08750D00780C121B2F7CA620
:103A90007D0AAA0AAB0B12150D74021218C2E96056
:103AA0002A9003057401F0121237900D1E7404F071
:103AB000EEA3F0E508245CF582E43509F5831241B4
:103AC000C6AA0AAB0B121513023B5C750A08750BEC
:103AD00000780A121B2F7CA67D0AE50824B7FAE4B9
:103AE0003509FB12150D74021218C2E9601090031B
:103AF000057401F0121237900D1E7405805A780A71
:103B0000121B2F7CA67D0AE5082411FAE509340171
:103B1000FB12150D74021218C2E9601090030574AF
:103B200001F0121237900D1E7406802C780A121BB9
:103B30002F7CA67D0AE508246BFAE5093401FB1207
:103B4000150D74021218C2E960209003057401F08B
:103B5000121237900D1E7407F0EEA3F07A107B005E
:103B6000900301E0F912139F804774096E70329040
:103B70000ACAE004F0C3940640241210517AF37B81
:103B80000712105DEAF8EBF9ECFAEDFB900ACB12A4
:103B900017A67A407B00900301E0F912139F1212DE
:103BA0006D12153D0EEEC3940A5006023A321212FF
:103BB0006D7C0F7D0079FF7AA67B0A1215137401C4
:103BC0001218F812420A64080241BC74011218F873
:103BD000A3E054017003023D2A1210517AF37B07CF
:103BE00012105D8A088B098C0A8D0B851882851945
:103BF00083E4F0E0FA8A0C750D007402780C121858
:103C00009974DF250CF8740A350DF974051218F84B
:103C1000E8F0A3E9F074051218F8E024C6F8A3E070
:103C20003401F9E8FCE9FDEA75F009A4FAABF07497
:103C3000DF2AF8740A3BF974031218F8E8F0A3E9D4
:103C4000F08C828D83780C121764908C8C780C1217
:103C500016DD780C7908121564402C750C00750D72
:103C600000750E00750F008C828D83780C1217730F
:103C70007C097D0079BB74031218F8E024B6FAA31E
:103C8000E03400FB12151374051218F8E024EEF866
:103C9000A3E03401F9E8FAE9FB8A828B83780C12FD
:103CA0001764908C88780C1216DD780C7908121540
:103CB0006440121241F91218F8E02410FAA3E0341B
:103CC00001FB12151374051218F8E02416F8A3E08E
:103CD0003402F9E8FAE9FB8A828B83780C121764C4
:103CE000908C78780C1216DD780C790812156440E7
:103CF000121241F91218F8E0246AFAA3E03401FB29
:103D00001215138518828519831249F75003023B57
:103D1000F37A007B01900301E0F91214B3740112ED
:103D200018F812420A64010241BC74011218F8E04A
:103D30005404604B8518828519837401F01214DDD8
:103D4000AC18AD1979017A057B031214CB7CED7D9B
:103D50000D7B157A00900301E0F912068B908C74AC
:103D6000121B427A047B00900301E0F91214A7743D
:103D7000041218C274011218F8E0640402400DE045
:103D800054207003023E487A207B00900301E0F942
:103D90001214B3908CE7AC18AD1974011217BF124E
:103DA000124912153112152512152B12151FC2AF0B
:103DB0007C2D7D0A7A6E798012147D7508DF750975
:103DC0000A7808121B2F1249FE12116B7402121886
:103DD000C27A0A7B001211A775081D75090D7808B3
:103DE000121B2F7CB87D00900A97124A0512116BA6
:103DF00074021218C2A818A919880889097808122B
:103E00001B2F7C017D007AF07B1F12116B74021254
:103E100018C27808121B2F7C017D007AFE7B1F12CE
:103E2000116B74021218C27808121B2F7C017D00DE
:103E30007AFF7B1F12116B74021218C2D2AFC2AF8D
:103E400075C9AB75C95B80FEE05410700302401366
:103E5000900AA1E004F014601814607214606714F2
:103E6000606C14607614606E14607014607B0240A5
:103E70000512122B12131512124912153D7A007BEE
:103E800002900301E0F91214B37A007B1090030151
:103E9000E0F91214B37A007B20900301E0F91214C8
:103EA000B3908C30121B427A407B00900301E0F902
:103EB0001214A774041218C27A027B00900301E066
:103EC000F91214B38003121249908C488013121215
:103ED0004F12153D800812124F8003121249908C28
:103EE00034121B427A10023FF612124F12105190F8
:103EF0000AD1E04450F0900DD4E0C39415400A7408
:103F000014F0900D1DF0121507900D1DE0C0E07526
:103F1000F009A4F8A9F0741728F582740D39F58317
:103F2000D0E0F0900D1EE0C0E012420F741828F5AA
:103F300082740D39F583D0E0F0900D1FE0C0E012DF
:103F4000420F741928F582740D39F583D0E0F09092
:103F500007F3E0C0E012420F741A28F582740D399D
:103F6000F583D0E0F09007F4E0C0E012420F741B3C
:103F700028F582740D39F583D0E0F09007F5E0C0A4
:103F8000E012420F741C28F582740D39F583D0E0DD
:103F9000F09007F6E0C0E012420F741D28F582741D
:103FA0000D39F583D0E0F09007F7E0C0E012420F42
:103FB000741E28F582740D39F583D0E0F09007F86F
:103FC000E0C0E012420F741F28F582740D39F583AA
:103FD000D0E0F0900D1DE004F0900ACA1241D71213
:103FE00014B37A027B00900301E0F912139F908CC6
:103FF0006C121B427A407B00900301E0F91214A777
:1040000074041218C274011218F8E06410FAA3E0E4
:104010000241BCA3E05410604C7A007B1090030175
:10402000E0F91214B3900AA3E0700B900AB6E070A6
:104030000512125B801E900AB67401F07C0F7D00A1
:1040400079FF7AA67B0A121513121273900AD8E030
:10405000F9121303900AB7E4F0041218F812420A96
:1040600064100241BC74011218F8A3E054407003BC
:10407000024164900AD4E004F0F874011218F8E0E8
:10408000FEA3E06440FF74FC28C3940650697A9E46
:104090007B0A121519E9F50812044BE508C39402CE
:1040A000502D900AD4E0A2E0400812124912131BCE
:1040B000800312124F908C54121B427A007B409066
:1040C0000301E0F91214A774041218C202415F85BB
:1040D00018828519837401F01214DDAC18AD1979BA
:1040E000017A057B031214CB7901121255900AD480
:1040F000E4F0900ADD8050E8C39404E85027605F44
:104100001204517900120475900AD7E0C0E0900AB9
:10411000D4E0F8749D28F582E4340AF583D0E0F009
:10412000908C508093C3940A4035851882851983FA
:104130007401F01214DDAC18AD1979017A057B0316
:104140001214CB900AD4E4F07C03FDF97A9E7B0A2A
:104150001215137A007B40900301E0F91214B3EEBC
:10416000FAEF805874011218F8A3E054207A006026
:104170004E7B20900301E0F91214B3900AA3E07083
:104180000B900AB6E0700512125B8026900ADBE401
:10419000F0900AB604F0121273900AD8E0F91213E4
:1041A000037A007B10900301E0F91214B3900AB770
:1041B000E4F074011218F812420A6420FB80027BBA
:1041C0000074070249D7E4F07C09FD79BB22F08531
:1041D0001882851983F022E4F07A10FB900301E045
:1041E000F922F0900AD87402F0900AA322F0900A03
:1041F000DB7401F0900AB6F0228A828B83E4F0A38C
:10420000F0A3F0A31241C7740322E0FAA3E02290C6
:104210000D1D12421622E075F009A4F8A9F02274CF
:10422000F012191C74FF1218ACEA851882851983E4
:10423000F0900306E0700474018001E4F0900DE555
:10424000E06401600302496B908C30121B427A409B
:104250007B00900301E0F91214A774041218C285C0
:104260001882851983E014601514601924FE602AF1
:1042700024FC601F24F8601424F06025802990033A
:1042800003740A80219003037430801A900303742E
:104290000B80139003037433800C900303743280FB
:1042A000059003037431F07A007B10900301E0F96C
:1042B0001214B3900AA1E06003024960900AD4E0AE
:1042C0006003024960900303E06012900AA3E0706B
:1042D0000C7A007B20900301E0F91214B385188258
:1042E000851983E0A2E45019908C94121B427A0045
:1042F0007B02900301E0F91214A774041218C28023
:104300000C7A007B02900301E0F91214B3900303CE
:10431000E070030249D5900306E060030249D5909E
:104320000303E0C0E0900AB7E0F874A628F582E441
:10433000340AF583D0E0F0900AB7E004F0900AA3C5
:10434000E060030243D9908C4C121B427A007B1030
:10435000900301E0F91214A774041218C2900AB76E
:10436000E064017010900303E0640B604279021274
:1043700011D1121261900AB7E0F8900303E0640BC8
:104380006027E0640A7019900AB7E4F0790212110C
:10439000D17C0F7D0079FF7AA67B0A121513802548
:1043A00074FF28F91212F7801CE8C3940950061212
:1043B000126D0246E2900AB7E4F0FA7B089003011E
:1043C000E0F912139F900AB7E0C3940F500302491B
:1043D0005AE4F0FA7B08024739900ADBE0600302F6
:1043E000495A900AB7E0F874FF28F9900AB6E060DD
:1043F0002A14605D1470030244C21470030244F96D
:104400001470030244F91470030245A514700302EA
:1044100046401470030246EA02495A1212F7900A03
:10442000B7E0FA74A52AF582E4340AF583E0640B58
:1044300070030244DDEAC3940F40030244DD90039D
:1044400003E0640A600302495A79021211D102465C
:10445000D5900303E06430700F900AD8E004F0C3F5
:104460009407401774028012E06432701D900AD8DD
:10447000E014F0C3940250037406F0900AB7E4F01D
:10448000900AD8E0F91213038011E0640B700C7AE3
:10449000007B04900301E0F912139F900AA6E064E8
:1044A0000A600302495AA3E0640A600302495A9071
:1044B0000AB7E06403600302495A900AB67407021F
:1044C00046E6900303E0640B701A900302E0640573
:1044D000600302495A900CA3E0F91212977A007B0C
:1044E00004024739E0640A600302495A12127390C9
:1044F0000AD8E0F91213038020900303E0640A70E5
:1045000027121273900AD8E0F91213037C087D0079
:1045100079BB7AB87B0A121513900AB67401F0A31E
:10452000E4F07C0FFD024951E0640B7060E8C39435
:1045300008402D900ABFE064BB70A21212A9900A35
:10454000B7E4F0750808F5097808121B2F7CA67DE2
:104550000A7AB87B0A12134B74021218C202495A23
:10456000900AB67401F01212CD908C90121B427A10
:10457000007B20900301E0F91214A774041218C202
:104580007C087D0079BB7AB87B0A0246DFE8C394D9
:10459000094008900AB774090246E6E024D0FA12EE
:1045A00012FD02495A900AD91249EE7031E8851875
:1045B00082851983F0E0C3940A40030246E2900A20
:1045C000D91249F740037401F0124A2012189912C7
:1045D00049DF7040851882851983E00480D6E06445
:1045E000327037E88518828519838008851882859E
:1045F0001983E004F0E0C3941440030246E2900AF9
:10460000D9E014F070037409F0124A2012189912BC
:1046100049DF60D8900AD90246A5E0640B70030216
:1046200046B1E0640A60030246E2121273900AD8AF
:10463000E0F9121303900AB6E4F07C0FFD0246D9AC
:10464000900ADA1249EE702AE8851882851983F0FB
:10465000E0C3941440030246E2900ADA1249F7409C
:1046600002E4F0124A0B703A851882851983E0043F
:1046700080DDE064327035E8851882851983800812
:10468000851882851983E004F0E0C3941450539098
:104690000ADAE014F0C3940A40037409F0124A0BDA
:1046A00060DE900ADAE0F91212EB8036E0640B70FB
:1046B0000E7A007B04900301E0F912139F8023E03F
:1046C000640A701E121273900AD8E0F91213039054
:1046D0000AB67401F07C0F7D0079FF7AA67B0A127E
:1046E0001513900AB7E4F002495A7A107B001214AD
:1046F000118A088B09AE08AF09908CE6AC18AD1989
:1047000074011217BF900303E0640B600302492A8F
:10471000900AA8E0F8743368702AA3E0643160035B
:10472000024938A3E064326003024938900AB7E4D2
:10473000F0F91212557A207B00900301E0F9121370
:104740009F02495A7431686003024938A3E064311A
:104750006003024938A3E0643060030249387A08F4
:104760007B00900301E0F91214B37A047B009003FC
:1047700001E0F91214B37A027B00900301E0F91210
:1047800014B37A407B00900301E0F91214B37A006D
:104790007B02900301E0F91214B37A007B049003CA
:1047A00001E0F91214B37A007B10900301E0F912D2
:1047B00014B37A007B08900301E0F91214B37A0075
:1047C0007B01900301E0F91214B37A107B0090038F
:1047D00001E0F91214B37A007B40900301E0F91272
:1047E00014B37A027B00900301E0F91214B37A400B
:1047F0007B00900301E0F91214B3900AB7E4F0F9DA
:1048000012125512153112151F12152512152BEE05
:10481000FAEFFB1204697508107509007808121B7D
:104820002FEEFCEFFD7A857B0A12134B74021218EF
:10483000C2EEFAEFFB121417C2AF1204638A088BA0
:1048400009E5082440FEE5093402FFC3EE94F1EFC8
:10485000941F50E6900A95E508F0A3E509F01204CC
:1048600063EA24C0F8E43BF9C3E50898E5099940F8
:10487000EDC3E5089AE5099B5007C3EA9EEB9F400C
:10488000DDC3E894F1E9941F50D4900A97EAF0A3AD
:10489000EBF07C2D7D0A7A6E798012147D7508DF2D
:1048A00075090A7808121B2F1249FE12116B740247
:1048B0001218C27A0A7B001211A775081D75090D1E
:1048C0007808121B2F7CB87D00900A97124A0512B7
:1048D000116B74021218C2A818A9198808890978DE
:1048E00008121B2F7C017D007AF07B1F12116B7464
:1048F000021218C27808121B2F7C017D007AFE7B01
:104900001F12116B74021218C27808121B2F7C013F
:104910007D007AFF7B1F12116B74021218C2D2AF96
:10492000C2AF75C9AB75C95B80FEE0640A600990CF
:104930000AB7E0C394064022900AB7E4F0900AB6A2
:1049400004F0121273900AD8E0F91213037C0F7D61
:104950000079FF7AA67B0A121513900303E48008FE
:10496000900AB7E4F0900303F0806A900AB7E4F08D
:10497000900303F0900ACAE0C39406404C12105111
:104980007AF37B0712105D8A088B098C0A8D0B90D5
:104990000ACB780C121764908C44780C1216DD78D0
:1049A0000C7908121564402D900ACA1249E5A3F04B
:1049B000908C54121B427A407B00900301E0F91264
:1049C00014A774041218C2800C7A407B0090030173
:1049D000E0F912139F74011218C27F080219EE1237
:1049E000557CE0F422E4F0A3F0A3F0A3F022E0F879
:1049F000900303E0643022E004F0C3940A227C3E7A
:104A00007D02900A95E0FAA3E0FB22124216124AB8
:104A1000122274E028F582740A39F583E064BB221F
:104A2000E0F508750900740378082274F412191C63
:104A300074F21218AC8908E9146016147003024B62
:104A40004D147003024B4D24FE7003024AD5024BF5
:104A50005274081219127A047B031214D1740812CA
:104A600018F8E0851882851983F074091218F8E0A7
:104A7000C0E074011218F8D0E0F0740A1218F8E0DF
:104A8000C0E074021218F8D0E0F074041218F8E4D0
:104A9000F074031218F8E4F0740D1218F8E0C0E096
:104AA00074071218F8D0E0F0740C1218F8E0C0E0A7
:104AB00074061218F8D0E0F0740B1218F8E0C0E099
:104AC00074051218F8D0E0F0AC18AD197A08790026
:104AD00012100F807D900A9DE06401703D7A037B87
:104AE000001214118A0A8B0BAE0AAF0B8E828F83D1
:104AF0007401F0A3744F124B5DA3A3744B124B636C
:104B00007A0379011212077A047B00900301E0F91D
:104B10001214B3EEFAEFFB121417900A9BE0701F09
:104B2000900A9DE07019908C90121B427A047B00D1
:104B3000900301E0F91214A774041218C280137ACA
:104B4000047B00900301E0F91214B38005900A9BE6
:104B5000E4F0E508900302F0740E022FADF08E82AF
:104B60008F8322F0EEFCEFFD2274F012191C74FF0B
:104B70001218ACE9851882851983F07A047B00123B
:104B800014118A088B09AE08AF09EE2402F50EE471
:104B90003FF50F851882851983E0600A24FE7003B3
:104BA0000250FC0255727A0B7B03790012120D7CC5
:104BB0002D7D0A7A6E798012148390030BE01460C5
:104BC0001D147003024CE4147003024E8124FB7028
:104BD0000302507C24F870030250BA025572750823
:104BE0000085080A750B007403780A121899742D51
:104BF000250AF50A740A350BF50B750C06750D00C0
:104C0000780C121B2F7C0C7D03E50A2409FAE4358D
:104C10000BFB12150D74021218C2E97003024CA9A5
:104C20009003047401F0900D1E04F0E508A3F07ADF
:104C3000047B00900301E0F91214B3E508900A9B8D
:104C40007004740180027402F0E50A240FF8E43560
:104C50000BF9E8FAE9FB900312E0F509540FFC8A1E
:104C6000828B83E0540F6C7001E46003E509F074FB
:104C70000F5509F87401687007900AA27401800A40
:104C80007402687006900AA27402F074F05509600C
:104C9000030255728E828F837421F0E508A370049D
:104CA00074108002742002555B74096508702690A8
:104CB0000A9DE06401701E750A07750B00780A12E0
:104CC0001B2F7C0C7D037AC17B0A12134B740212DA
:104CD00018C212128B0508E508C3940A4003025556
:104CE00072024BE17A037B001214117A147B0012DA
:104CF00014117A147B00121411900AD2E01460157A
:104D000014601E24FE602624FC602E24F8603624E5
:104D1000F0603E8047900E2274411255B3D2E0807D
:104D20003A900E2274421255B3D2E1802E900E2298
:104D300074431255B3D2E28022900E22744412556D
:104D4000B3D2E38016900E2274451255B3D2E4809C
:104D50000A900E2274461255B3D2E5F0900AD1E0C3
:104D600090032BF0900AC8E0900E1E1255BE60030F
:104D70000255727508037509007808121B2F7C0C08
:104D80007D037A1C7B0E12150D74021218C2E97095
:104D900003024E22900AC8E4F0780090032BE0A2B0
:104DA000E0506EE8601414601814601C1460201445
:104DB00060241460281460318057900E1F74418065
:104DC00021900E1F7442801A900E1F74438013901E
:104DD0000E1F7444800C900E1F74458005900E1FAA
:104DE0007446F07C037900800E900E1F7447F0909B
:104DF0000AC0E4F07C03F97A1F7B0E120493E99059
:104E00000AC8F07C1F7D0E7A037901121207025541
:104E100079E0C313F008E8C3940740030255720217
:104E20004D9B900AD2E0F87003025572900AC8E4D4
:104E3000F0E814601114601524FE601824F4601B5F
:104E400024F0601E8022900E227441801A900E225F
:104E500074428013900E227443800C900E2274458D
:104E60008005900E227446F07C227D0E7A03790133
:104E70001212077C03900AC8E0F97A227B0E0250D6
:104E8000727508027509007808121B2F7C0C7D03CF
:104E90007A1C7B0E12150D74021218C2E9700302FF
:104EA0005572900A9BE06401600302557290030EF4
:104EB000E0F8A3E024BF6024146077147003024F6D
:104EC0006F147003024FB4147003024FB4147003D4
:104ED000024FF8147003025041025572900AC8E064
:104EE000687047E4F07508017C08900AC8E0F97A18
:104EF0003D7B0A120493E9900AC8F085080A750BF5
:104F0000007403780A1218997435250AFC740A355E
:104F10000BFD7A0879011212070508E508C3940A07
:104F200040C6900AD274010255711255897441022B
:104F3000505B900AC8E068702E900AD1E0C2E1F0A0
:104F4000900AC8E4F07C08F97A2D7B0A120493E9F0
:104F5000900AC8F07C2D7D0A7A0879011212079018
:104F60000AD27402025571125589744202505B9044
:104F70000AC8E0687036900AD1E0C2E012559BE59D
:104F80000875F009A4F8A9F074E028F50A740A126B
:104F900055F01204931255A51212070508E508C32F
:104FA000940A40DB900AD274040255711255897438
:104FB0004302505B900AC8E0687036900AD1E0C2A4
:104FC000E312559BE50875F009A4F8A9F0742028B0
:104FD000F50A740D1255F01204931255A51212071A
:104FE0000508E508C3941440DB900AD274100255FA
:104FF0007112558974458063900AC8E068703B90CF
:105000000AD1E0C2E412559BE50875F009A4F8A99D
:10501000F0743B28F50A740B39F50B7C071255F533
:105020001204931255A51212070508E508C3940A45
:1050300040D6900AD2742002557112558974468068
:105040001A900AC8E068700EE4F0900AD1F0A3F05C
:1050500012152B0255721255897447F07C257D0E6E
:105060007A0379011212077C03900AC8E0F97A25C5
:105070007B0E120493E9900AC802557112105190E8
:10508000030CE09007F3F090030DE09007F4F0902C
:10509000030EE09007F5F090030FE09007F6F09014
:1050A0000310E09007F7F0900311E09007F8F0127A
:1050B000104B8E828F8374168032A3E0644F60039E
:1050C000025572A3E064506003025572900ACFE06B
:1050D000F8A3E0C39850030255727A107B00900346
:1050E00001E0F912139F8E828F83741FF0A3744B1B
:1050F000F0850E82850F83744F02529812105190E2
:105100000AC9E4F07A1B7B03790212120D75080BB1
:105110007509037808121B2F7C1B7D037AD57B0D44
:10512000120B1D74021218C290030CE0F509F8A3CB
:10513000E0F50890030BE01460341470030251D0C2
:1051400014700302522F24FE70030252A91470033C
:105150000252F01470030253471470030254851472
:10516000700302556714700302556D025572880A68
:10517000750B007403780A1218997435250AF50A1C
:10518000740A350BF50B900AC9E0F97C08AA0AAB42
:105190000B1204931255B9702EE508687029900A15
:1051A000D37401F07C087D007900AA0AAB0B1215BC
:1051B0001390030C124A2012189912557C74FF1296
:1051C0004B5D74030252868E828F83745002555752
:1051D000900AC9E0F97C087A2D7B0A1204931255D3
:1051E000B97043E50968703E900AD37401F07C08F9
:1051F0007D0079007A2D7B0A121513750808750950
:10520000007808121B2F7C287D0E7A2D7B0A121342
:105210004B74021218C28E828F837404F0900AC9F4
:105220001255E902555B8E828F837451025557E8FF
:1052300075F009A4F8A9F074DF28F50C740A39F5A3
:105240000D850C82F583A385820A85830B900AC99C
:10525000E0F97C09AA0AAB0B1204931255B970400D
:10526000E50868703B900AD37402F0850A82850BCA
:10527000831241C6E50C2402FAE4350DFB12151326
:105280008E828F837405F090030C1255E9F0900A1A
:10529000C9E0850E82850F83124B637A0302556045
:1052A0008E828F837452025557900AC9E0F97C08A8
:1052B0007A0C7B031204931255B9702B900314E0FF
:1052C000687024900AD374011255CE121B2F7C0CE7
:1052D0007D037A2D7B0A12134B74021218C28E8240
:1052E0008F83740702554B8E828F837454025557F7
:1052F000900AC9E0F97C097A0C7B031204931255D9
:10530000B9703B900315E0687034900AD37402F0D2
:105310007508097509007808121B2F7C0D7D039014
:10532000030C12421274E028FA740A39FB12134B70
:1053300074021218C28E828F83740802554B8E82BB
:105340008F837455025557900AC9E0F97C0A7A0C8C
:105350007B031204931255B9600302547C90031628
:10536000E068600302547C90030DE0FC75F009A432
:10537000F8A9F074DF28FA740A39FB90030CE024D2
:10538000CF600F14603514606F1470030254320242
:105390005572900AD37402F0EA245CF582E43B1261
:1053A00055CB121B2F7C0E7D03EA245DFA50010BB6
:1053B00012134B74021218C2025473900AD374026F
:1053C000F0EA24B6F582E43B1255CB121B2F7C0E7B
:1053D0007D03EA24B7FA50010B12134B7402121822
:1053E000C27AF37B0712105D1255FF12189974A54B
:1053F000250CF582740C8072900AD37402F0EA24B2
:10540000101255C6121B2F7C0E7D03EA2411FAEBF5
:105410003401FB12134B74021218C27AF37B071289
:10542000105D1255FF12189974CD250CF582740C7D
:105430008038900AD37402F0EA246A1255C6121B0F
:105440002F7C0E7D03EA246BFAEB3401FB12134B25
:1054500074021218C27AF37B0712105D1255FF1204
:10546000189974F5250CF582740C350DF5837808C0
:105470001217738E828F83740902554B8E828F832D
:105480007456025557900A9BE064016003025572FE
:10549000E50875F009A4F8A9F074DF28F8740A3952
:1054A000F9E50924CF600C14602614604B14606C7D
:1054B000025572E8245CF508E43912562812049368
:1054C00012558F60030255511255D812151380756D
:1054D000E824B6F508E43912562812049312558FC1
:1054E000706F1255D812151312561512189974A50B
:1054F0002508F582740C8046E82410125623120405
:105500009312558F704B1255D8121513125615124F
:10551000189974CD2508F582740C8022E8246A124B
:10552000562312049312558F70271255D812151353
:1055300012561512189974F52508F582740C350960
:10554000F5831249E58E828F83740AF0A3744B8031
:105550000A8E828F837457F0A374FF124B637A0212
:105560007901121207800BE8900ACF8004E8900AB4
:10557000D0F0EEFAEFFB1214170249D57435250866
:10558000F582740A3509F58322E4F0900E2522E9AC
:10559000F8900AC9F090030EE06822F0900AC8E47F
:1055A000F075080022E9900AC8F0AC0AAD0B7A0940
:1055B000790122F0900AD1E022E9F8900AC9F0902E
:1055C0000A9BE0640122F582EB3401F583ECF0756F
:1055D0000808750900780822900AD37402F07C0943
:1055E0007D0079BBAA08AB0922E08E828F83A322BB
:1055F00039F50B7C09900AC8E0F9AA0AAB0B228A9C
:10560000088B098C0A8D0B90030DE0F50C750D00CD
:105610007402780C2290030DE0F5087509007402FD
:10562000780822F508E93401F509900AC9E0F97C07
:1056300009AA08AB092274F712191C7D00800BEF30
:10564000F9E8C313F81EEE70140DEDC39C5025ED60
:10565000FEEA2EF582E43BF583E0F87E08E9C31309
:10566000FFE8A2E092F0E9A2E030F001B350D0747C
:105670008C6F80CC7F010219EE74F212191C74FC3D
:105680001218AC908C98740112191274031217BF7F
:10569000908CE3AC18AD19041217BF120451750AAF
:1056A000031204578A088B091204578A0C8B0DAE1B
:1056B0000CAF0D1204578A0C8B0DA80CA90DC3E575
:1056C000089EE5099F5050C3EE98EF994050C3E5FE
:1056D0000898E509994004AA08AB09900AD5EAF0B0
:1056E000A3EBF0900AD5E0F8A3E0F9C3E894BDE994
:1056F0009407E8403A2444C0E074011218F8D0E05E
:10570000F07401121902880889097808121B2F7C8D
:10571000017D007AFE8047C3E89EE99F5006EEFABD
:10572000EFFB80B7C3E89508E9950950AA80AC243F
:105730005CFAE934F8FBC3EA9418EB940074BC50AB
:1057400029C398C0E074021218F8D0E0F0858208EE
:105750008583097808121B2F7C017D007AFF7B1F4F
:1057600012116B74021218C2800868700374076902
:10577000700AA818A91988088909800E74031218DC
:10578000F874BBF08582088583097808121B2F7C8A
:10579000017D007AF07B1F12116B74021218C21582
:1057A0000AE50A60030256A112044B74041218C2DF
:1057B0007F060219EEC082C083E9900EEFF0025915
:1057C000DF74F712191CE990038CF07CC47D037A16
:1057D000FF7BFF12087D90038D74FFF0A3F0A3E41C
:1057E000F0A3F0790512080B90038CE0F912072D55
:1057F0007A957B08120A517F010219EE74F412198E
:105800001C8A088B09EB5480603090038CE0F912FD
:1058100013878A0A8B0BAE0AAF0BEE4F60138E8292
:105820008F83E064B0700312081DEEFAEFFB1213D1
:1058300075AA08E5096480FB80047A007B000259A0
:10584000AE74F212191C74FC1218ACEAFEEBFFEEF7
:105850004F603874021218F8EEF0A3EF125C13ECEC
:10586000F0A3ED125C13AA82AB83120727E9F508B7
:10587000707374121218F81267C7E50A450B606559
:105880008E828F831258EFEE4F7005750802805597
:105890007A067B001214118A0C8B0DA80CA90DE856
:1058A000497005750813803D88828983E41258F990
:1058B000A3A3EEF0A3EF126C60E50AF0A3E50BF0F2
:1058C0009003921259819003926017E0FCA3E0804C
:1058D00003EAFCEBFD8C828D8312598170F38C827C
:1058E0008D831266ECA90874041218C2026E62A3BA
:1058F000A3A3A3E0FEA3E0FF22F0A3F088828983A4
:105900002274F212191C890AE975F017A4FEAFF08F
:10591000900391E4F090038F125981600A121417DA
:1059200090038FE4F0A3F0EEFAEFFB1214118A0853
:105930008B09EA4509602FEEFCEFFD790012136335
:1059400090038FE508F0A3E509F07B008008125969
:105950006BE4F0A3F00BEBC3950A40F2E50A900369
:1059600091F0790080027913026E62EB75F017A452
:10597000F8A9F090038FE028FAA3E0398A82F58332
:1059800022126482EA4B2274F412191C7900EAA2F2
:10599000E0501B75082275098C7808121B2F7C04B7
:1059A0007D007AF17B0E12080574021218C27F0482
:1059B0000219EEC082C0839003921259E6601C88DF
:1059C000828983A3A3E06A7003A3E06B8882898342
:1059D00070E8A3A3A3A312647E80047A007B00D0A6
:1059E00083D082020132126F35E8492274EE121917
:1059F0001C74FC1218ACEAFEEBFF85188285198333
:105A0000E4F0A3F0EE24021266D0EE2405125C014D
:105A1000EE2404F50EEF125FE6E024FE603924FC6C
:105A2000604624FE605224FE605E24FE7003025B2A
:105A30000624FE7003025B7E24FE7003025B8D244D
:105A4000FE7003025B9C24FC7003025BAB24FE70BF
:105A500003025BBA025BF79003AB7417F0A3E41286
:105A60005C1B1204A5025BF7851882851983AC8242
:105A7000AD83120823025BC7851882851983AC8227
:105A8000AD83120829025BC7850C08850D097402D5
:105A90001218F8AC82AD8385088285098312647E72
:105AA00012074B8A0C8B0DAC0CAD0DEC4D6042E433
:105AB000F50CF50D780C121B2F750CAB750D0378DA
:105AC0000C121B2F750CAC750D03780C121B2F7468
:105AD000081218F8121B46791612647812086574B9
:105AE000081218C2E9F50C700B1264741204BD8020
:105AF0000F750C01850882850983125C091266EC1A
:105B0000850C08025BCA74021218F8AC82AD83855A
:105B10000C82850D8312647E12074B8A108B11ACA8
:105B200010AD11EC4D6043850C82850D83A3A3124B
:105B30001B467510AB7511037810121B2F7510AC36
