:020000040000FA
:06000000020107021D9F32
:03002B000220129E
:03003300021FF4B5
:03005300021E1278
:03006B00021FCEA3
:10008300021C53E5C754F84401F5C7790122000067
:100093000080FB120086B900030200F1E4791A78AC
:1000A30002B800028004F709D8FCE4791C7802B88E
:1000B30000028004F709D8FCE49002817849790EA4
:1000C3008002F0A3D8FCD9FA7AC97B0F9001377864
:1000D3000979028015E493A3AD82AE838A828B8370
:1000E300F0A3AA82AB838D828E83D8E9D9E7758288
:1000F300647583CD7403120119758291758300743D
:100103000012011975D00075813F751881751902A8
:10011300759F00020096C09FF59FE473D09F22D085
:1001230083D082C09FE493C0E0740193C0E0740263
:1001330093F59F22B903CB03F503BF03FF0000B47C
:10014300000028002800283075A000A000A000A00F
:100153000000080008E001F000100010001000107B
:10016300001000100050005000500010001000D08C
:10017300070000000000000F0001000500307507B4
:10018300001000010081FF0000FF020202A38501AD
:100193000000948502AB850100001F10029F8501BA
:1001A3000000B10202AB850100002010029D850111
:1001B3000000C702FFFF0100FF2002A3850100002A
:1001C300918502AB850100004E1002AD8500000051
:1001D300000002AF85030000A4032D0B2D0B2D0B94
:1001E3002D0B2D0B2D0B2D0B2D0B2D0B2D0B2D0B4C
:1001F3002D0B2D0BFB0C190DF50C01E803053F101E
:1002030002FFFFFF000D095049534345532D42544C
:100213003130300900011377995564100000000054
:10022300000000000001030507FFFE7788129932E2
:100233004114242536FEFF0000014F4B12012275A5
:10024300C5031201228BC503120122B8C503120193
:1002530022E8C50312012209C6031201223AC6038A
:100263001201228BC603120122A2C6031201224BE2
:10027300BF0312012262BF0312012291BF031201C5
:1002830022CABF03120122F2BF0312012220C003BC
:1002930012012237C0031201224EC003120122644D
:1002A300C0031201228BC0031201229EC00312015C
:1002B30022B4C003120122DCC003120122AE720079
:1002C300120122AD7300120122D773001201222CF6
:1002D30074001201224D740012012266740012018F
:1002E300226874001201228974001201228C7500A5
:1002F3001201224976001201221677001201227A96
:1003030077001201221178001201221478001201E1
:10031300229A7800120122DD78001201222F79003F
:10032300120122667900120122EC79001201227572
:100333007A00120122BE7A00120122CB7A00120146
:1003430022CE7A001201222C7B00120122447B0070
:10035300120122BE7B00120122C17B00120122E4A2
:100363007B00120122E77B001201228E7C00120126
:1003730022B17C00120122C97C00120122F97C0007
:10038300120122067D00120122097D00120122754D
:100393007D00120122637E00120122197F001201E7
:1003A30022CAC102120122A5C202120122D3C20231
:1003B30012012253C30212012273C302120122B19A
:1003C300C30212012204C4021201226CC4021201EC
:1003D30022FDC402120122C8C502120122D7C8029B
:1003E30012012243CA0212012266CA021201228AA0
:1003F300AC031201221BAE031201226CAE031201E5
:1004030022CBAE03120122D9AE0312012202AF03A3
:10041300120122B78A03120122DF8A031201220D7D
:100423008B03120122448B03120122AC8B031201B2
:1004330022F58B03120122408C031201227E8C03CE
:10044300120122BB8C03120122E98C0312012290B8
:100453008D031201229A8D03120122A78D0312012B
:1004630022DA8D031201229C8E03120122A88E032D
:10047300120122C08E03120122CA8E0312012248E6
:100483008F03120122C3C903120122D1C90312012E
:1004930022E9C90312012201CA0312012219CA0364
:1004A3001201224C8E02120122EA8E0212012262F2
:1004B3008F02120122779002120122B190021201DF
:1004C300225A91021201222F9202120122939302C5
:1004D300120122EA9302120122719402120122589C
:1004E3009502120122A595021201223396021201EE
:1004F300225796021201222C98021201226D9802B1
:100503001201228F98021201225499021201221A17
:100513009A021201224F9C02120122B9A80312016E
:1005230022CFA803120122F5A8031201221DAA0358
:1005330012012227AA0312012280AB031201228097
:10054300AC0312012269FB021201220BFC0212010D
:10055300223EFC0212012288FC0212012242FE0208
:100563001201221FAF011201229DAF01120122AD20
:10057300AF0112012290B001120122BEB00112019B
:1005830022C9B001120122B3B1011201224FB201FB
:1005930012012253B4011201220AB601120122866A
:1005A300B60112012263B70112012291BA011201AD
:1005B300222FBB011201228CBC01120122FFBD01BB
:1005C300120122A8BE01120122F1BE01120122284A
:1005D300BF01120122CDBF011201224BC001120142
:1005E30022ACDF0112012201E00112012246E101E6
:1005F30012012256E10112012279E101120122C402
:10060300E10112012269E2011201225FE3011201F9
:100613002229E401120122A1E501120122E3E501ED
:1006230012012281E601120122A7E601120122959D
:10063300E8011201229AE8011201227BEA01120168
:1006430022CFEA0112012231EB0112012259EB01FF
:10065300120122FDEB01120122BFEC01120122F073
:10066300EC01120122F3EC011201223BED01120114
:10067300227DED01120122E4ED011201222CFD0184
:100683001201223FFD0112012248FD0112012261E4
:10069300FD01120122ACFD0112012287FE011201AC
:1006A3002216FF0112012261FF01120122F95900F2
:1006B300120122095A001201226C5A00120122B1BE
:1006C3005A00120122615B001201223A5C001201FE
:1006D30022635C00120122935C00120122A75E00D8
:1006E3001201228360001201226362001201229B25
:1006F3006300120122146600120122006700120136
:1007030022466800120122536900120122956900F2
:10071300120122CD6900120122E769001201224F62
:100723006A00120122E96E001201228A6F0012018F
:1007330022DE6F00120122057000120122437000B5
:10074300120122627000120122B67000120122BE51
:100753007100120122477200120122A5F502120153
:1007630022AFF5021201224BF60212012216F70202
:1007730012012235F7021201225BF7021201229ABB
:10078300F702120122D2F702120122FBF702120131
:100793002235F8021201224AF80212012217F90245
:1007A3001201223AF9021201225CF90212012271AA
:1007B300F902120122FBF90212012235FA02120197
:1007C30022A9FA02120122F2FA021201221CFB02EE
:1007D30012012241FB02120122CDA403120122972E
:1007E300A5031201227AA603120122F0A603120125
:1007F3002232A7031201225FA8031201225E9C0288
:10080300120122879C02120122A09C02120122E5FE
:100813009D02120122C39E02120122E29E021201D4
:10082300226F9F02120122B29F02120122EAA0024A
:1008330012012256A1021201224CA302120122DA52
:10084300A5021201226DA60212012241A702120182
:1008530022E4A702120122F7A8021201228DA902A3
:10086300120122B9C60312012222C7031201227602
:10087300C703120122A5C7031201222F94031201F9
:10088300229C9403120122E79403120122DC9503B4
:10089300120122D89603120122C29703120122D019
:1008A300E20212012217E302120122F0E302120113
:1008B30022EBE402120122CAE50212012236E60209
:1008C30012012252E702120122B9E702120122BCED
:1008D300E702120122E7E70212012258E80212019D
:1008E30022FBE80212012210E90212012258E90256
:1008F30012012271E90212012274E9021201221A81
:10090300B00312012256B00312012294B003120164
:10091300225EB103120122D1B1031201220CB203F0
:100923001201224AB2031201227AB203120122A156
:10093300B2031201220CB3031201224EB3031201BC
:1009430022B38501120122D187011201228089017C
:10095300120122308A011201227B8A01120122C66E
:100963008A01120122D88A01120122188B01120175
:10097300224D8B01120122998B01120122C88B0196
:10098300120122EB8B01120122728C011201225EF1
:100993008D011201229C8E011201229E8F011201F0
:1009A300227A91011201229E9601120122E49601FC
:1009B300120122229701120122579901120122707A
:1009C3009B011201229CBB031201223CBD031201B5
:1009D30022402000120122D720001201221D2100F3
:1009E300120122532200120122EA23001201226281
:1009F3002400120122A42400120122F42400120173
:100A0300225F2600120122CA2800120122A6290011
:100A1300120122C52900120122E42900120122E752
:100A230029001201226D2B00120122622C001201F7
:100A3300225E2D00120122CE2D00120122402E0033
:100A4300120122BF2E001201229A2F00120122A1AD
:100A530030001201228031001201220B32001201F8
:100A630022793200120122ED3200120122163300E4
:100A7300120122D53300120122E436001201222D85
:100A83003700120122703700120122F337001201DE
:100A9300229738001201222839001201224D390011
:100AA300120122973900120122C1390012012206D4
:100AB3003A00120122813A00120122DB3A001201AC
:100AC300222F3C00120122EC3C00120122BF3D0008
:100AD3001201220080021201225080021201225CC4
:100AE300800212012239810212012269810212015C
:100AF30022A181021201221B82021201229D820283
:100B0300120122D5820212012227830212012264DA
:100B13008302120122898502120122B58702120182
:100B230022B089021201228B8B02120122EAFF01F9
:100B3300120122E0EF0212012212F40212012262D8
:100B4300F502120122FFC001120122D1C7011201D5
:100B530022D7C70112012287CA011201227A850313
:100B6300120122268603120122F486031201221E99
:100B730087031201226C8903120122ED3D00120149
:100B830022373E00120122E94A001201226A4C0078
:100B9300120122624D00120122C15300120122BC34
:100BA3005400120122F954001201221C55001201B3
:100BB300225E55001201226855001201225456008C
:100BC300120122485700120122E157001201229616
:100BD300B30312012294B403120122EAB4031201F3
:100BE3002228B50312012285B50312012202B6039E
:100BF3001201220BB60312012217B6031201222A95
:100C0300B60312012266B6031201227CB603120157
:100C13002298E902120122A5E902120122BFE90288
:100C2300120122FEE9021201223CEA02120122A170
:100C3300EA02120122B6EA02120122CDEA021201ED
:100C430022DBEA02120122EAEA02120122FFEA028D
:100C530012012214EB021201221FEB021201222BBA
:100C6300EB0212012238EB0212012247EB021201BE
:100C73002252EB0212012277EB0212012220EC0234
:100C830012012235EC021201224AEC021201226403
:100C9300EC021201227FEC021201229CEC021201EF
:100CA30022A7EC0212012263ED021201224FEE028F
:100CB30012012274EE021201227EEE02120122922E
:100CC300EE02120122B1EE0212012212EF02120110
:100CD3002218EF021201221EEF0212012224EF0258
:100CE30012012230EF0212012263EF02120122935A
:100CF300B702120122BFB702120122A3B8021201E6
:100D0300223DBB0212012253BC0212012270BD021A
:100D130012012213BE02120122B9BE0212012209DC
:100D2300AA021201228BAA0212012234AB0212017F
:100D3300227CAC021201228AAE0212012270AF029F
:100D4300120122A5AF02120122C7AF0212012270C3
:100D5300B00212012240B20212012269B202120150
:100D630022E1B20212012213B30212012220B302C2
:100D73001201226BB3021201228FB302120122E08D
:100D8300B502120122EAB60212012246B70212018B
:100D930022AEEE01120122BFEF01120122A3F001E4
:100DA300120122ADF001120122CFF001120122DB68
:100DB300F0011201227FF201120122ACF2011201B1
:100DC30022C2F30112012217F40112012266F50176
:100DD3001201223BF60112012297F60112012202AF
:100DE300F70112012237F7011201227AF7011201EA
:100DF3002244FA011201225CFA01120122EDFA01E6
:100E0300120122FBFA0112012248FB0112012256B0
:100E1300FB01120122C2FB011201223DFC0112015E
:100E23002294FC0112012292BD03120122B7BD03D9
:100E33001201222DBE03120122E1DB02120122EA7A
:100E4300DB02120122F3DB02120122CBDC021201CC
:100E5300227CDE02120122ACDE02120122D7DE0264
:100E630012012207DF0212012232DF02120122667F
:100E7300DF0212012292DF02120122D5DF021201E8
:100E83002200E00212012247E0021201229CE0024A
:100E9300120122DEE00212012238E1021201226372
:100EA300E102120122B2E102120122E2E102120185
:100EB300220DE20212012230E2021201228ACC0345
:100EC300120122B6CC03120122E3CC03120122ED5C
:100ED300CC03120122FDCC03120122008003120174
:100EE300223F8003120122C88003120122DB800308
:100EF3001201222681031201226581031201227449
:100F030081031201222482031201227D8203120132
:100F130022CC82031201221C8303120122108403B8
:100F230012012205850312012242850312012207C1
:100F3300CD03120122A59B011201229C9D011201E6
:100F4300222B9F011201221DA001120122A4A00144
:100F53001201221EA10112012247A101120122AF97
:100F6300A10112012268A501120122E4A5011201C7
:100F730022D0A60112012208A7011201224BA701C8
:100F830012012282A801120122B3A8011201220830
:100F9300A9011201223FA901120122B1A9011201E3
:100FA30022D7A901120122F1A901120122E3AA0108
:100FB300120122F3AA0112012288AC01120122AB11
:100FC300AC01120122DDAC0112012269AE01120152
:100FD30022E0AE01120122B2CA03120122C3CA03E4
:100FE300120122B7CD03120122F6CD03120122EE24
:100FF3007F00120122F7CB0312012207CC03120157
:10100300221FCC0312012287CC03120122C6C7037D
:101013001201224AC803120122B0C8031201227826
:10102300C203120122A1C2031201220BC303120144
:10103300225FC303120122B8C303120122CEA0030D
:10104300120122F3A00312012210A1031201222D87
:10105300A10312012250A1031201227CA103120158
:1010630022A2A10312012258A203120122D2A20337
:10107300120122F6A20312012200A3031201225F2E
:10108300A403120122D98F03120122EA8F03120152
:10109300226390031201223C9103120122FA93036B
:1010A300120122EEC00312012217C10312012240D2
:1010B300C103120122D9C103120122F1C10312019A
:1010C3002233C2031201229ECB02120122A8CB02B9
:1010D300120122E8CB0212012231CC021201226B4F
:1010E300CC02120122C5CC02120122E4CC0212016D
:1010F3002286CF021201228FCF02120122E0CF02F9
:1011030012012209D00212012213D0021201227FFE
:10111300D00212012213D10212012272D102120152
:1011230022A0D10212012220D20212012263D20292
:101133001201229ED202120122B0D202120122CF48
:10114300D202120122D8D202120122A2D302120128
:1011530022F3C30312012246C403120122B2C403C1
:101163001201221AC503120122ACB603120122D6C0
:10117300B603120122ABB7031201229FB803120177
:101183002222B903120122C9C8031201229AB90308
:10119300120122D0B90312012209BA0312012262F9
:1011A300BB03120122847F001201229A7F001201E5
:1011B30022A47F001201228BFF01120122CED3024F
:1011C3001201228BD402120122C6D402120122EE92
:1011D300D40212012250D5021201229CD50212011F
:1011E3002200D6021201227AD6021201227CD702F1
:1011F3001201222FD902120122B1D90212012216A1
:10120300DA021201222DDA0212012236DB02120166
:101213002274DB02120122AD9C03120122C69C033D
:101223001201226A9D03120122AA9D03120122C305
:101233009D03120122F69D03120122439E03120114
:1012430022779E03120122B99E03120122C1A00339
:1012530012012291D0011201227FD101120122B980
:10126300D20112012274D3011201228FD40112017F
:101273002296D601120122EAD601120122FFDA01D7
:1012830012012251DB01120122DFDB01120122E4F0
:10129300DD0112012282DE0112012203DF011201AC
:1012A3002237CE0312012284980312012261CB0359
:1012B3001201228BCB0312012200CE0312012263FF
:1012C300CE031201228CCE03E066701008A3E06601
:1012D300700A08A3E066700408A3E06622C3E096E0
:1012E30008A3E09608A3E09608A3E096A2D265D0EF
:1012F3003322C3E7960809E7960809E7960809E742
:101303009622C3E09608A3E09608A3E09608A3E01C
:101313009622C008C3E096F50808A3E096420808A1
:10132300A3E096420808A3E09645087001D3D008CD
:1013330022080808EAC0E0EBC0E086F0E7A4FA1848
:101343000986F0E7A42AFA180986F0E7A42AFA180E
:101353000986F0E7A42AFA1986F0E7A4FBE5F02A48
:10136300FA190886F0E7A42BFBE5F03AFA19088688
:10137300F0E7A42BFBE5F03AFA18180986F0E7A486
:10138300C5F02BFBE43AFA1908E7C5F0C6A426F624
:10139300E5F03BFBE43AFA1886F0E7A4F6E5F0083B
:1013A30026F6E43B08F6E43A08F6D0E0FBD0E0FA90
:1013B30022E4CFC0E0E4CEC0E0E4CDC0E0E4CCC0A2
:1013C300E075F020E626F608E633F608E633F6087D
:1013D300E633F6181818EC33FCED33FDEE33FEEF6D
:1013E30033FFC3EC9709ED9709EE9709EF971919A6
:1013F30019400FFFEC97FC09ED97FD09EE97FE19D5
:101403001906D5F0BFECF709EDF709EEF709EFF789
:10141300191919D0E0FCD0E0FDD0E0FED0E0FF22A6
:10142300E4C396F608E496F608E496F608E496F61E
:10143300226016080808C6C313C618C613C618C602
:1014430013C618C613C6D5E0EA2270090808082295
:101453006016181818C6C333C608C633C608C63381
:10146300C608C633C6D5E0EA22E627F60809E637FA
:10147300F60809E637F60809E637F622E026F60805
:10148300A3E036F608A3E036F608A3E036F622E03A
:1014930026F008A3E036F008A3E036F008A3E03610
:1014A300F022C3E697F60809E697F60809E697F6E9
:1014B3000809E697F622C3E096F008A3E096F00841
:1014C300A3E096F008A3E096F022E657F60809E6B3
:1014D30057F60809E657F60809E657F622E056F6E6
:1014E30008A3E056F608A3E056F608A3E056F62252
:1014F300E056F008A3E056F008A3E056F008A3E096
:1015030056F022E066F608A3E066F608A3E066F666
:1015130008A3E066F622E0F608A3E0F608A3E0F6E7
:1015230008A3E0F622E6F008A3E6F008A3E6F00835
:10153300A3E6F022E0FAA3E0FBA3E0FCA3E0FD2294
:10154300EAF0A3EBF0A3ECF0A3EDF022E0F8A3E0C4
:10155300F9A3E0FAA3E0FB22E8F0A3E9F0A3EAF0A1
:10156300A3EBF022CAC0E0E6F0A308DAFAD0E0FA6F
:1015730022CAC0E0E0A3C582CCC582C583CDC583A2
:10158300F0A3C582CCC582C583CDC583DAE6D0E09E
:10159300CA22C3E498F8E499F91215D68026C3E465
:1015A3009AFAE49BFBE920E7E91215D6E498F8E4FC
:1015B30099F922C3E498F8E499F91215D6E498F856
:1015C300E499F9C3E49AFAE49BFB22EB20E7CFE921
:1015D30020E7E0B90010BB0008E88AF084F8AAF01D
:1015E30022E4FBC8FA22EB70227B10C833C8C9334C
:1015F300C9335007C39AC3DBF280069A50012ADB32
:10160300EAC833F4C8C933F4C9FA2275F008E4C848
:1016130033C8C933C933C99AC99B5004C92AC93BC2
:10162300D5F0ECFBC833F4C8E4C9FA22600D08C650
:10163300A2E713C618C613C6D5E0F322600C08C68A
:10164300C313C618C613C6D5E0F422700422600D76
:1016530018C6C333C608C633C6D5E0F41822251806
:1016630010AF08F518400C15198008F5184002153D
:1016730019D2AF2200C0D0251810AF08F518500CAE
:1016830005198008F51850020519D2AFD0D02225CC
:1016930018F58210AF08F518400C15198008F518D5
:1016A30040021519D2AF851983222518F582E43536
:1016B30019F583222518F8E43519F9222518FAE4D7
:1016C3003519FB222518FCE43519FD22E47325188E
:1016D300C582C0E0E51934FFC583C0E0E518C395B2
:1016E3008224F810AF0885831985821880088583C2
:1016F30019858218D2AFCEF0A3E520F0A37808E6CF
:1017030008F0A3DEFAEFF0A3E58124FAF8E608F087
:10171300A3E608F0A3E608F0A30808E608F0A3E6AA
:1017230008F0A315811581D0E0FED0E0F8158115EE
:10173300811581E8C0E0EEC0E0222518C582C0E033
:10174300E51934FFC583C0E0E518C3958224F91079
:10175300AF088583198582188008858319858218C7
:10176300D2AFCEF0A3E520F0A37808E608F0A3DE1D
:10177300FAEFF0A3E58124FBF8E608F0A3E608F00E
:10178300A30808E608F0A3E608F0A315811581D0A5
:10179300E0FED0E0F815811581E8C0E0EEC0E0225C
:1017A300851983851882E0A3FEE0A3F5207808E07D
:1017B300A3F608DFFAE0A3FFE0A3C0E0E0A3C0E0E4
:1017C300E0A3C0E0E0A3C0E0E0A3C0E010AF088561
:1017D30082188583198008858218858319D2AFD032
:1017E30083D08202011F851983851882E0A3FEE05E
:1017F300A3F5207808E0A3F608DFFAE0A3FFE0A34F
:10180300C0E0E0A3C0E0E0A3C0E0E0A3C0E010AF0D
:10181300088582188583198008858218858319D2E3
:10182300AFD083D08222C0D02518C582C0E0E5198D
:1018330034FFC583C0E0E518C3958224F310AF08D5
:101843008583198582188008858319858218D2AF0C
:10185300C8F0A3E9F0A3EAF0A3EBF0A37908E70942
:10186300F0A3D8FAECF0A3EDF0A3EEF0A3EFF0A30E
:10187300D0E0F0A3D0E0F0A3D0E0F0A3E520F0A304
:10188300E5F0F0A322851983851882E0C0E0A3E088
:10189300F9A3E0FAA3E0FBA37808E0F608A3DFFAD4
:1018A300E0FCA3E0FDA3E0FEA3E0FFA3E0C0E0A310
:1018B300E0C0E0A3E0F5D0A3E0F520A3E0A3F5F0BA
:1018C30010AF08858319858218800885831985825E
:1018D30018D2AFD082D083D0E0F8D0E03274048045
:1018E30006740280027401C0E0F404121692D0E080
:1018F300121567227404800474028000CCC0E0EDEA
:10190300C0E0E518C39CCCAD1950011D10AF068C87
:10191300188D1980068C188D19D2AF121574D0E06A
:10192300FDD0E0FC22D083D082E9C0E0E493A3C3DE
:1019330086F0C5F095F0F908E493A386F0C5F09519
:10194300F0700BE493A3C3994005E9048002A3E478
:1019530075F002A42582F582E5F03583F583D0E0A6
:10196300F9E493A3C0E0E493C0E022D083D082ECF7
:10197300C0E0EDC0E0E493A3FCE493A3FDED4C6071
:101983000D1219BAEC24FFFCED34FFFD80EFE49354
:10199300A3FCE493A3FDED4C600D1219F9EC24FFB5
:1019A300FCED34FFFD80EFD0E0FDD0E0FCE493A339
:1019B300C0E0E493C0E022C0E0C3E493960874015E
:1019C300939618400FE493667008087401936618A1
:1019D30070007019A3A3C3E4939608740193961837
:1019E300A3A3400DD0E0D0E0D0E00219AAA3A3A3A3
:1019F300A3A3A3D0E022C0E0C0F088F0E493667014
:101A0300080874019366187000A8F0A3A3700BD0A4
:101A1300F0D0E0D0E0D0E00219AAA3A3D0F0D0E048
:101A23002274F512173DEAFEEBFFEE2434F8EF348F
:101A330000F988088909EE2435F582EF3400F5832F
:101A4300E0F8EE2437F582EF3400F583E0F50AEC95
:101A5300850AF0A4FCAAF0850AF0EDA42AFDE82C7F
:101A6300F8E43DF97A257B001215D6EA85088285CC
:101A73000983F05407F87401B800028004C333D813
:101A8300FCC0E0E0131313541FF8EE28F8EF340002
:101A9300F9E8245DF582E93400F583D0E0F8E058F5
:101AA3006008EE2434F582EF801EEE2436F582EFD3
:101AB3003400F583E0F5F0EA84A8F0EE28F8EF347B
:101AC30000F9E82438F582E93400F583E0F97F046E
:101AD3000217E974F512173DEAFEEBFFEE2434F525
:101AE30082EF3400F583E0C0E0EE2435F582EF3475
:101AF30000F583D0E0F08E828F83A3A3A3A3A3A3D7
:101B0300A3C082C0838E828F83A3A3A3A3A3E0F881
:101B1300A3E0F9D083D082E0C398F508A3E099F558
:101B230009EE2480F582EF3400F583E064017069E7
:101B3300EE2481F582EF3400F583E0F8A3E0F98E1B
:101B4300828F83A3A3A3A3A3A3A3E0FCA3E0FD8E9F
:101B5300828F83A3A3A3A3A3E0FAA3E0FBC3EA9C1E
:101B6300EB9D5027C3EC98ED99402EC3EA98EB996F
:101B730050277CE27D07EEFAEFFB120A6DEE24801C
:101B8300F582EF3400F583E4F0800EC3EA98EB9915
:101B930040E0C3EC98ED9950D9EE2434F8EF3400CB
:101BA300F9E8FCE9FDEE2435F582EF3400F583E036
:101BB300F8EE2437F582EF3400F583E0F50AE50803
:101BC300850AF0A4F508AAF0850AF0E509A42AF528
:101BD30009E82508F8E43509F97A257B001215D6BA
:101BE300EA8C828D83F05407F87401B800028004F4
:101BF300C333D8FCC0E0E0131313541FF8EE28F8E6
:101C0300EF3400F9E8245DF582E93400F583D0E090
:101C1300F8E0586008EE2434F582EF801EEE243697
:101C2300F582EF3400F583E0F5F0EA84A8F0EE28BE
:101C3300F8EF3400F9E82438F582E93400F583E05D
:101C4300F9121FC0021AD10000851A87851BC6220C
:101C5300C0E0C0D0E8C0E0E9C0E0EAC0E0EBC0E02B
:101C6300ECC0E0EDC0E0C008C009C00AC00BC082F0
:101C7300C083C0F0759B00906182E0A2E64003023E
:101C83001D31E591A2E64003021D317591BF900419
:101C930099E064057008120BED120BF98003120B27
:101CA300F3751A00120C53E990049AF07900120CA0
:101CB300351209DD7A017B00900498E0F9121127AF
:101CC300907803E064426003021D7A900817E014E1
:101CD300F06003021D7AC2AF121CDE00781DD0E053
:101CE300F618D0E0F6E59F5407F9700590857180EA
:101CF3000390856D7808121519E9C4C0E0781CE6D5
:101D03005508F50808E65509F509740B7808121605
:101D13003FD0E02508F8906270E0A2E740F8E8C3FE
:101D230033906272F0906270E0D2E0F08049E0A2FA
:101D3300E55024E591A2E5501E7591DF900499E0EA
:101D4300640D70139004BBE004F064287002E4F0A7
:101D53007A00E0F9120CE3906181E0A2E35009E517
:101D6300E9A2E3500375E9F7A3E0A2E75009E5917F
:101D7300A2E7500375917FD0F0D083D082D00BD0EF
:101D83000AD009D008D0E0FDD0E0FCD0E0FBD0E0E1
:101D9300FAD0E0F9D0E0F8D0D0D0E032C0E0C0D043
:101DA300C082C083906183E0A2E05009E5BFA2E056
:101DB300500375BFFEE0A2E15009E5BFA2E1500365
:101DC30075BFFDE0A2E25009E5BFA2E2500375BF73
:101DD300FBE0A2E35009E5BFA2E3500375BFF7E0C0
:101DE300A2E45009E5BFA2E4500375BFEFE0A2E50A
:101DF3005009E5BFA2E5500375BFDFE0A2E6500935
:101E0300E5BFA2E6500375BFBFD083D0828088C0F0
:101E1300E0C0D0E8C0E0E9C0E0EAC0E0EBC0E0EC3D
:101E2300C0E0EDC0E0C0F0E5A7A2E6500FE5A1A237
:101E3300E6500953A7BF75A1BF121E77E5A7A2E518
:101E4300500CE5A1A2E5500653A7DF75A1DFE5A776
:101E5300A2E15009E5A1A2E1500375A1FDE5A7A206
:101E6300E2500CE5A1A2E2500653A7FB75A1FBD0FB
:101E7300F0021D8874F812173D751A01900499E059
:101E830064067015120BA58A828B83A3A3A3A3A355
:101E9300A3E0FAA3E0FB120BDBA2AFE433FED2AF65
:101EA30090049FE0640170187A207B00900498E00E
:101EB300F912123B7A207B00900498E0F912112D5D
:101EC300906182E0D2E6F0900816E0602185C61B9F
:101ED300801690049EE064017008E5C654F844053A
:101EE300F5C653BEFC121C4C7401651A60E4EEA2E5
:101EF300E092AF7F010217E974F112173D8A088B54
:101F0300098C0A8D0B740F1216AD780C12151990EB
:101F1300854178081214E0908541780C1214E0781A
:101F230008790C1212F550157808790C1214A59043
:101F3300854D7808121315401579018013780C79B3
:101F4300081214A590854D780C12131540EB7900F7
:101F53007F080217E974ED12173D8A088B098C0A72
:101F63008D0B74131216AD780C12151990854178E8
:101F7300081214E0908541780C1214E0780C79086B
:101F83001212F540117808790C1214A5AA08AB09AE
:101F9300AC0AAD0B80227510007511007512007527
:101FA30013017810790C1214A57810790812146CA7
:101FB300AA10AB11AC12AD137F0C0217E9C082C09B
:101FC30083E9906000F0D083D08222C0E074F212E3
:101FD3001829A2AFE433FED2AFE589A2E150031280
:101FE3001037758900C2C5EEA2E092AF7F010218D7
:101FF30088C0E074F2121829A2AFE433FED2AFE531
:102003008BA2E05003121037758B00C2E880D8C052
:10201300E0C0D0E8C0E0E9C0E0A9A8D2AFC2C7E9F8
:10202300A2E7E433F8E9A2E792AFD0E0F9D0E0F811
:10203300D0D0D0E032FFFFFFFFFFFFFFFFC082C021
:10204300839061907404F0A37448F0A37402F09039
:1020530061807440F09061BC7403F09061877419DF
:10206300F0906265741BF090619C740DF090619A1E
:102073007433F0A37455F09061A0743AF09008148F
:10208300E064017009C29190049D74678005900417
:102093009D7461F090203EE493906186F090203827
:1020A300E493F46027E493540FF8906185E068604B
:1020B30012E5C654804449F5C6E59E547F644970D1
:1020C300F8E8F053C680E59E547F70FA7905120C48
:1020D300C502249DC082C083E5A8F853A87E906101
:1020E30081E4F0A3F0A3F0C2BA539AFEC289759BB0
:1020F30000C2C275E90075910075BF0075A911751D
:10210300B905906181F0A374C0F0A3E4F0D2BA439F
:102113009A0174805842A802249DC082C08374F837
:1021230012166190049BE0F8A3E0F9E849700302FA
:10213300224B90049BE054406023790885188285E4
:102143001983AA82AB83120ADF851882851983AAB1
:1021530082AB831207C190049BE054BFF0E054802C
:102163006010790C7A387B08120ADF90049BE054E4
:102173007FF0E0A2E0503190619A7433F0A374557C
:10218300F09061A0743AF0900814E064017009C201
:102193009190049D7467800590049D7461F012070B
:1021A300C790049BE054FEF0E05402603190619AC2
:1021B300743FF0A3745AF09061A0747FF0900814F8
:1021C300E064017009D29190049D747180059004BC
:1021D3009D746AF01207C790049BE054FDF0E0542D
:1021E30004601390203CE493906186F01207CD9035
:1021F300049BE054FBF0E05408601390203DE4930B
:10220300906186F01207CD90049BE054F7F0E05400
:1022130010601390203EE493906186F01207CD90F6
:10222300049BE054EFF0E05420600A1207CD9004C1
:102233009BE054DFF0A3E05401600D1209E912079B
:10224300D390049CE054FEF0740812167702249D88
:1022530074EC1216D174F4121661851882851983F1
:10226300AC82AD8375838575828574041215749071
:10227300203C93F460030223E0907808E0C39402C7
:1022830050030223C074041216ADAC82AD83758370
:10229300847582CC74081215748518828519838518
:1022A300821285831374041216ADAC82AD83750E4E
:1022B300FF750FFF7FFF7E00750C48750D78801545
:1022C30074086E700302235374096E700302235360
:1022D300740A6E607B850C82850D8378081215194C
:1022E3008C828D83A909E50AC9F8881074187808C7
:1022F300121434E5104508F8C3E098A3E099850C5F
:1023030082850D83780812151940188C828D837489
:10231300187808121434E5104508F8E0C398F8A3B8
:10232300E0801C74187808121434E5104508FAE9A3
:10233300FB8C828D83E0F8A3E0F9EAC398F8EB996C
:10234300F9C3E8950EE9950F5006880E890FEEFF45
:102353000EE50C2404F50CE50D3400F50DEEC394E5
:102363001350030222C374FF650E700474FF650FDC
:1023730060238F087402780812164E74482508F5F6
:102383008274783509F583780812151985128285C8
:102393001383E508F0EC24020C0CED3400FD8512E8
:1023A30082851383A3858212858313740C1216AD61
:1023B300E5826C7003E5836D60030222B175080149
:1023C30075090078081218E474021216ADAC82ADD8
:1023D300837A0F7B081210137402121677740C128F
:1023E30016777F0C0217A3C082C0839061AE746816
:1023F300F0A3746AF090624574FBF0A304F053F405
:10240300FD43FE029008147401F09061A0E0643A69
:1024130090619A70237433F0A37455F09061A074A3
:102423003AF0740164017009C29190049D7467804D
:102433002890049D74618021743FF0A3745AF09036
:1024430061A0747FF0740164017009D29190049DBE
:102453007471800590049D746A8000F002249DC00D
:1024630082C0839007F2E0640170159007F8E0647E
:10247300016009E0700AA3E064017004790C801222
:10248300900809E06401700890080FE0640160ECB3
:10249300790002249DE0F9121FC0D083D08202018B
:1024A3001FC082C0839007FC7425F09007FA740163
:1024B300F0A3E4F07A01FB120C419007E8E0241644
:1024C300F8A3E03400F988828983740DF0A3740AB9
:1024D300F09007F9E0640170169007F8E070107946
:1024E30001120CA1120C71120C9B7900120CAD801D
:1024F300A9C082C08374FA1216619007F1E06401E7
:1025030070081209F59007F1E4F075E1F19007E81E
:10251300E02415F8A3E03400F9888289837401F07C
:102523009007F3E0640170769084E3C0828518829B
:10253300851983AC82AD83758384D08274061215AA
:102543007475D90D9007EAE0C4333354C04403F5DE
:10255300D978E8790788828983A3A3A3E0F5D9888A
:10256300828983A3A882A983E864EE7003E96407E0
:1025730070E3851882851983A882A9838882898359
:10258300E0F5D9A3A882A98374061216ADE5826883
:102593007003E5836970E575E1957901800279003F
:1025A300120C4790106F745DF0A3740BF0A3746367
:1025B300F0A3740BF0A3745DF0A3740BF0A3745D2C
:1025C300F0A3740BF0A3742DF0A3740BF0A3742D7C
:1025D300F0A3740BF0A37469F0A3740BF090107D57
:1025E300742DF0A3740BF0A3742DF0A3740BF0A35C
:1025F300742DF0A3740BF0A3742DF0A3740BF0A34C
:10260300742DF0A3740BF0A3742DF0A3740BF0904E
:1026130007EAE0F97AEB7B07120C239007FCE0F959
:10262300121FC07901120C4D908589121537120CB7
:102633006590851D121537120C2F7900120CB99075
:1026430007E8E02414F8A3E03400F988828983744E
:1026530016F09004997405F00402224D74F71216D3
:10266300D18908A808E875F006A4C8AAF02AF97465
:10267300C928FE740439FF900801E0F97A027B0847
:10268300120C2390080FE0701A7900120C83900744
:10269300DBE0700B79007ADC7B07120C2980097967
:1026A3000180F37901120C8375E1F175D923900848
:1026B30001E0C4333354C04405F5D978FF79078862
:1026C300828983A3A3A3E0F5D988828983A3A882FF
:1026D300A983E864057003E9640870E375D900759C
:1026E300D90075D90075D90075D90075D900EEF8F0
:1026F300EFF9E82404FAE93400FBE82422F582E93F
:102703003400F583E0F5D988828983A3A882A9835D
:10271300EA687002EB6970E2EEF8EFF9E824031A55
:10272300E93400FBE82426F582E93400F583E0F57B
:10273300D988828983A3A882A983EA687002EB6996
:1027430070E2EE242BF582EF3400F583E0F5D9EE49
:10275300F8EFF9E824021AE93400FBE8242CF582A7
:10276300E93400F583E0F5D988828983A3A882A997
:1027730083EA687002EB6970E2EEF8EFF9E8242E61
:10278300F582E93400F583E0F5D988828983A3A82B
:1027930082A983EA687002EB6970E2EEF8EFF9E868
:1027A3002430F582E93400F583E0F5D98882898302
:1027B300A3A882A983EA687002EB6970E2EEF8EFDE
:1027C300F9E82432F582E93400F583E0F5D988820B
:1027D3008983A3A882A983EA687002EB6970E2EE99
:1027E300F8EFF9E824050A0A0AE93400FBE8245D56
:1027F300F582E93400F583E0F5D988828983A3A8BB
:1028030082A983EA687002EB6970E2EE2437F582ED
:10281300EF3400F583E0541FF8EE242AF582EF34F9
:1028230000F583E0C43354E048F5D975E195901081
:102833006F7433F0A3740BF0A37439F0A3740BF02B
:10284300A3742DF0A3740BF0A3742DF0A3740BF0F9
:10285300A3742DF0A3740BF0A3742DF0A3740BF0E9
:10286300A3743FF0A3740BF090107D742DF0A37448
:102873000BF0A3742DF0A3740BF0A3742DF0A374C9
:102883000BF0A3742DF0A3740BF0A3742DF0A374B9
:102893000BF0A3742DF0A3740BF090080EE0F91263
:1028A3001FC0908589121537120C6590851D12156E
:1028B30037120C2F90600DE4F07901120CB99004DB
:1028C300997406F0022EBA74EC1216D19007FFE049
:1028D300F8A3E0F5838882A3A37810121519900852
:1028E30010E0FAF875F006A4C8ACF02CF974F728D8
:1028F300F582740439F583E0FEA3E0FFEEC333FEF3
:10290300EF33FF8E0CF50D750E00750F0085100863
:1029130085110985120A85130B908579780812149D
:102923007F78081218E085100885110985120A8539
:10293300130B7808790C12146C7810790C1213B4F9
:10294300E4F50EF50F7808790C1214A58A0C750DB1
:10295300007403780C12164E7808790C12146C90DC
:10296300854178081214E0AA08AB09AC0AAD0B1232
:102973001F5874041216778A088B09A808A909C37B
:10298300EE98EF995006E82EF8E93FF9E890600ECB
:10299300F0E9A3F0EEA3F0EFA3F090600D74C1F0A3
:1029A3000223E5C082C0839007E8E0F8A3E0F58343
:1029B3008882A3A3A3A3A3A3E4F0A3F09007FC023C
:1029C3002498C082C0839007FFE0F8A3E0F58388D2
:1029D30082A3A3A3A3A3A3E4F0A3F090080E02246D
:1029E3009802011F74F61216D19061D0E0F874803A
:1029F300C398FCEA2483F582EB3400F583E060049A
:102A0300780480027800E8240EF8ECC3985003029F
:102A13002B687E0C900818E4F0EA2477F582EB34F7
:102A230000F583E0900819F0EA2478FCEB3400FD0C
:102A3300781A79087F028C828D83E088828983F0FB
:102A43008C828D83A3AC82AD8388828983A3A88281
:102A5300A9831FEF70E0EA247AFCEB3400FD7F02C8
:102A63008C828D83E088828983F08C828D83A3ACF2
:102A730082AD8388828983A3A882A9831FEF70E034
:102A8300EA247CFCEB3400FD7F028C828D83E0889A
:102A9300828983F08C828D83A3AC82AD8388828903
:102AA30083A3A882A9831FEF70E0EA247EFCEB34A2
:102AB30000FD7F028C828D83E088828983F08C8283
:102AC3008D83A3AC82AD8388828983A3A882A983E3
:102AD3001FEF70E0EA2475FCEB3400FD8A828B83E0
:102AE300A3A3A3A3A3E0F508A3E0F5098C828D8338
:102AF300E02508F0A3E03509F07F028C828D83E0A6
:102B030088828983F08C828D83A3AC82AD83888293
:102B13008983A3A882A9831FEF70E0EA2483F58247
:102B2300EB3400F583E06019750818750908780817
:102B33001218E47C0C7903120B2174021216777EAF
:102B43001074012EF5D975D903758218758308EEB3
:102B5300FFE0F5D9A31FEF70F875E1957904120C26
:102B63006B79018002790002309C74F61216D190C1
:102B730061D0E0F87480C398FCEA2483F582EB34D7
:102B830000F583E06004780480027800E8240AF802
:102B9300ECC3985003022C5D750808900818740163
:102BA300F07CE27D07781979087E058C828D83E0BD
:102BB30088828983F08C828D83A3AC82AD838882E3
:102BC3008983A3A882A9831EEE70E0EA2481FCEB2B
:102BD3003400FD8A828B83A3A3A3A3A3E0FEA3E017
:102BE300FF8C828D83E02EF0A3E03FF07E028C8287
:102BF3008D83E088828983F08C828D83A3AC82AD40
:102C03008388828983A3A882A9831EEE70E0EA24C5
:102C130083F582EB3400F583E0601A7508187509B3
:102C23000878081218E47C087903120B2174021245
:102C3300167775080C74012508F5D975D9037582C3
:102C430018758308AE08E0F5D9A31EEE70F875E198
:102C5300957904120C6B79018002790002309C741F
:102C6300F71216D1EAFEEBFF9061D0E06003022D6C
:102C73005975D91875D90375D903EEF8EFF9E82416
:102C830008FAE93400FBE8249CF582E93400F58373
:102C9300E0F5D988828983A3A882A983EA687002B0
:102CA300EB6970E2EEF8EFF9E82402FAE93400FB8D
:102CB300E824A4F582E93400F583E0F5D988828914
:102CC30083A3A882A983EA687002EB6970E2EE2409
:102CD30094F582EF3400F583E5822408F8E5833424
:102CE30000F9E0F5D9A3E865827003E9658370F222
:102CF300EE2488F582EF3400F583E5822404F8E5B9
:102D0300833400F9E0F5D9A3E865827003E96583AC
:102D130070F275E1957908EE2494FAEF3400FB1212
:102D23000AD37904EE2488FAEF3400FB120AD3792C
:102D330004120C6BEE2470F582EF3400F583E0F897
:102D4300A3E0F9EE2472F582EF3400F583E8F0A3F3
:102D5300E9F0790180027900022EBA74F61216D1D5
:102D6300EAFEEBFF9008187406F075081875090859
:102D730078081218E47C017903120B2174021216ED
:102D83007775D90675D903758218758308E0F5D967
:102D9300A3E582641D7004E583640870F075E19512
:102DA300900499E06408701EEE2470F582EF3400FD
:102DB300F583E0F8A3E0F9EE2472F582EF3400F531
:102DC30083E8F0A3E9F0790102309C74F61216D17E
:102DD300EAFEEBFF9061D0E0705E900818740AF091
:102DE30075081875090878081218E47C017903122C
:102DF3000B21740212167775D90675D903758218DB
:102E0300758308E0F5D9A3E582641D7004E5836446
:102E13000870F075E195EE2470F582EF3400F583C8
:102E2300E0F8A3E0F9EE2472F582EF3400F583E8CD
:102E3300F0A3E9F079018002790002309C74F61264
:102E430016D1EAFEEBFF9061D0E07066780190083E
:102E530018740BF0900499E06407701975081875DD
:102E6300090878081218E47C017903120B21740213
:102E73001216777805740128F5D975D90375821868
:102E8300758308E8FAE0F5D9A31AEA70F875E195B5
:102E9300EE2470F582EF3400F583E0F8A3E0F9EE59
:102EA3002472F582EF3400F583E8F0A3E9F07901A9
:102EB3008002790002309C7F010217A374F6121678
:102EC300D1EAFEEBFF9061D0E0F87480C398FAEE8C
:102ED3002483F582EF3400F583E0600478048002F4
:102EE3007800E8240BF8EAC3985003022F957D0974
:102EF3009008187408F0EE24E5F8EF3400F97A1915
:102F03007B087C0888828983E08A828B83F08882AD
:102F13008983A3A882A9838A828B83A3AA82AB8392
:102F23001CEC70E0EE2483F582EF3400F583E0605F
:102F33001D75081875090878081218E47C097903C7
:102F4300EEFAEFFB120B2174021216777D0D74015A
:102F53002DF5D975D9037582187583088D08E0F5A9
:102F6300D9A31508E50870F675E1957904120C6B81
:102F7300EE2470F582EF3400F583E0F8A3E0F9EE78
:102F83002472F582EF3400F583E8F0A3E9F07901C8
:102F93008002790002309C74F61216D1EAFEEBFF30
:102FA3009061D0E0F87480C398FAEE2483F582EF41
:102FB3003400F583E06004780480027800E8240894
:102FC300F8EAC398500302309A7D06900818740CEF
:102FD300F09004B6E0900819F07AB77B04781A7978
:102FE300087C028A828B83E088828983F08A828BC1
:102FF30083A3AA82AB8388828983A3A882A9831C23
:10300300EC70E07AB97B047C028A828B83E088824D
:103013008983F08A828B83A3AA82AB838882898384
:10302300A3A882A9831CEC70E0EE2483F582EF341D
:1030330000F583E0601D75081875090878081218F3
:10304300E47C067903EEFAEFFB120B2174021216ED
:10305300777D0A74012DF5D975D9037582187583A7
:10306300088D08E0F5D9A31508E50870F675E19514
:103073007904120C6BEE2470F582EF3400F583E0D3
:10308300F8A3E0F9EE2472F582EF3400F583E8F05B
:10309300A3E9F07901800279007F020217A374F695
:1030A3001216D1EAFEEBFF9061D0E0F87480C3986A
:1030B300FAEE2483F582EF3400F583E060047804AC
:1030C30080027800E82404F8EAC398500302317BB5
:1030D3007802900818E8F0EE24F7F582EF3400F553
:1030E30083E0900819F0EE2483F582EF3400F58332
:1030F300E0601B75081875090878081218E47C024B
:103103007903EEFA120B2174021216777806740112
:1031130028F5D975D9037582187583088808E0F5F1
:10312300D9A31508E50870F675E195EE2474F582C8
:10313300EF3400F583E4F0EE2480F582EF3400F5FC
:1031430083E4F0EE241DF582EF3400F583E4F0A36D
:10315300F07904120C6BEE240DF582EF3400F58345
:10316300E0F8A3E0F9EE2472F582EF3400F583E88A
:10317300F0A3E9F079018002790002309C74F61221
:1031830016D19061D0E0F87480C398FCEA2483F5EB
:1031930082EB3400F583E06004780480027800E871
:1031A3002404F8ECC398405B79029008187407F084
:1031B300EA24F8F582EB3400F583E0900819F0EA8D
:1031C3002483F582EB3400F583E0601875081875E5
:1031D300090878081218E47C0209120B2174021200
:1031E30016777906740129F5D975D903758218758F
:1031F3008308E9F8E0F5D9A318E870F875E1957943
:10320300018002790002309C74F51216D1E9FCA208
:10321300AFE433F50AC2AF7D0080010DEA246FF5F8
:1032230082EB3400F583E0F8EDC398501A8D08EA79
:103233002508F8EB3400F9E8246BF582E93400F54E
:1032430083E06C70D68024EA246FF8EB3400F9E055
:10325300FEEA2EFAEB3400FBEA246BF582EB340032
:10326300F583ECF088828983E004F0E50AA2E0921A
:10327300AF7F030217A374F61216D1A2AFE433FD96
:10328300C2AFEA246FF582EB3400F583E014F07CDF
:103293000060368C08EA2508F8EB3400F9E8246C62
:1032A300F582E93400F583E0C0E0E8246BF582E9B8
:1032B3003400F583D0E0F00CEA246FF582EB3400A0
:1032C300F583E0F8ECC39840CAEA246EF582EB3448
:1032D30000F58374FFF0EA246AF582EB3400F5838A
:1032E300E4F0EDA2E092AF02309CC082C083E5A877
:1032F300F8C2AFEA246BF582EB3400F583E9F0EA18
:10330300246AF582EB3400F583E4F0E8A2E792AF98
:1033130002249D74F31216D1EAFEEBFFECFAEDFBE7
:103323008A828B83A3A3A3A3E0541FF0EE2436F574
:1033330082EF3400F583E4F0F50AEEFCEFFD8A82B8
:103343008B83E0C0E0EC245DF582ED3400F583D09F
:10335300E0F0750B00E50A33333354F8F50C8A8239
:103363008B83E0F508750900E50B780812162FE545
:1033730008A2E0502FEE2436F8EF3400F988828952
:1033830083E0F508EE2508F508EF3400F509E508B4
:103393002438F582E5093400F583E50CF088828949
:1033A30083E004F0050B050CE50BC3940840AF055F
:1033B3000A8A828B83A3AA82AB838C828D83A3AC7C
:1033C30082AD83E50AC3940550030233417F0502AE
:1033D30017A374F71216D19004C5E0640370077A3B
:1033E300007B00022EBA7B0078C57904888289832A
:1033F300A3A3A3A3A3A3E060030236CFEBF875F066
:1034030006A4C8AAF02AF974C928F8740439F988FB
:10341300828983A3A37401F088828983A3A3A3E48D
:10342300F0EB88828983A3A3A3A3F0E82462F58247
:10343300E93400F5837401F0E82465F582E934008A
:10344300F583E4F0A3F0E82468F582E93400F5831A
:103453007401F088828983A3A3A3A3A3E4F0A3F058
:1034630088828983A3A3A3A3A3A3A3F0A3F0E8243F
:103473000FF582E93400F5837401F0E82435F58211
:10348300E93400F583E4F0908509121537E8241830
:10349300F582E93400F583121543E8241CF582E92B
:1034A3003400F583E4F0E8241DF582E93400F58364
:1034B300E4F0A3F0E82480F582E93400F583E4F036
:1034C300E82474F582E93400F583E4F0E82469F52F
:1034D30082E93400F5837480F0E8246AF582E934E4
:1034E30000F583E4F0E8246FF582E93400F583E422
:1034F300F0E82467F582E93400F583E4F0E824ED8D
:10350300F582E93400F583E4F0E824EEF582E9344A
:1035130000F583E4F0E824EFF582E93400F583E471
:10352300F0E824F0F582E93400F583E4F0E824F1CF
:10353300F582E93400F583E4F0A3F0E824F3F5829F
:10354300E93400F583E4F0A3F0E824F6F582E934E6
:1035530000F583E4F0E82483F582E93400F583E49D
:10356300F0E824D3F582E93400F583E4F0E824D4C9
:10357300F582E93400F583E4F0908509121537E804
:1035830024D5F582E93400F5831215439085091299
:103593001537E824D9F582E93400F583121543E899
:1035A30024DFF582E93400F583E4F0E824E1F582D1
:1035B300E93400F583E4F0E824DDF582E93400F52D
:1035C30083E4F0E824E2F582E93400F583E4F0E8EB
:1035D30024E3F582E93400F583E4F0E824F9F58285
:1035E300E93400F583E4F0A3F0E824FBF582E93441
:1035F30000F583E4F0A3F0E824FDF582E93400F557
:1036030083E4F0A3F0E824FFF582E93400F583E4D2
:10361300F0A3F0E8FAE9FBEA2404FCEB3400FDEA4A
:10362300246BF582EB3400F58374FFF08A828B837D
:10363300A3AA82AB83EC6A7002ED6B70E2E8FAE94D
:10364300FB7CE27D078C828D83E0C0E0EA245DF59C
:1036530082EB3400F583D0E0F08C828D83A3AC82BF
:10366300AD838A828B83A3AA82AB83EC64E7700366
:10367300ED640770D0E8FAE9FB7CAC7D048C828DA5
:1036830083A3E0C0E0EA24E5F582EB3400F583D0C0
:10369300E0F08C828D83A3AC82AD838A828B83A37B
:1036A300AA82AB83EC64B47003ED640470CF90041E
:1036B300C5E004F06401700D88828983A3A3A3A3EA
:1036C300E09004C7F0E8FAE9FB0233E60BE82406CE
:1036D300F8E93401F9EBC3940340030233E2023304
:1036E300EFC082C0838A828B83A3A3A3E0600F8A87
:1036F300828B83A3A3A3E4F09004C6E014F09004A8
:10370300C5E014F070069004C774FFF08A828B83BF
:10371300A3A3E4F09007E7E0700D9004C6E0640112
:1037230070057900120C3502249DC082C08378C5D0
:10373300790488828983A3A3A3A3A3A3A3E4F08822
:10374300828983A3A3A3A3A3A3F0E82406F8E934FF
:1037530001F9E864D77003E9640770D69004C5E4FF
:10376300F0A3F0A374FFF075E1F102249D74F3124A
:1037730016D1750800750900750C00750AC9750B1B
:1037830004AE0AAF0B8E828F83A3A3A3E0603FE551
:10379300084509700AEEF8EFF988088909802F8532
:1037A3000882850983E0F8A3E0F5838882A3A31246
:1037B30018F78E828F83E0F8A3E0F5838882A3A3B2
:1037C300121537121EFB7404121677E960C7050C35
:1037D300EE2406F50AEF3401F50BE50CC394034020
:1037E300A0850882850983A3A3A3A3E0F90233D0AC
:1037F30074F61216D178FF79FF7508007EC97F042D
:10380300EEFCEFFD8C828D83A3A3A3E0606474FFC1
:1038130068700374FF697025EC2474F582ED34003D
:10382300F583E064017011EC247AF582ED3400F540
:1038330083E0F8A3E0F9803AEC242E80EDEC2474C5
:10384300F582ED3400F583E064017014EC247AF51D
:1038530082ED3400F583C3E098A3E099501480C748
:10386300EC242EF582ED3400F583C3E098A3E099B0
:1038730040C60508EE2406FEEF3401FFE508C394B5
:10388300035003023803C3EA98EB994004E8FAE9CA
:10389300FB02309C74F61216D1EAFEEBFF8E828F88
:1038A30083A3A3A3E0600F8E828F83A3A3A3E4F07B
:1038B3009004C6E014F09004C5E014F07006900480
:1038C300C774FFF08E828F83A3A3E4F09007E7E031
:1038D300700D9004C6E0640170057900120C35EE9A
:1038E3002465F582EF3400F583E0F8A3E0F9E849B5
:1038F3006029EE2465F8EF3400F988088909888285
:10390300F583E0FCA3E0FD9004C7E0FA7B00120717
:10391300F7850882850983E4F0A3F0EEFAEFFB1242
:103923000B9F02309C74F71216D1EAFEEBFF8E82D6
:103933008F83A3A3A3A3E0FA7B0012083FEEFAEF61
:10394300FB120A91120B81022EBAC082C0837C0043
:103953007AC97B04EAF8EBF988828983A3A3A3E0FD
:10396300601EE8246FF582E93400F583E06011E816
:10397300246BF582E93400F583E07004790180114A
:103983000CEA2406FAEB3401FBECC3940340C5793B
:103993000002249DC082C08378AC79048882898325
:1039A300A3E4F088828983A3A882A983E864B4701E
:1039B30003E9640470E69004AD740102245EC082DE
:1039C300C08374FC1216619085091215378518821D
:1039D300851983121543120AD9E98518828519833B
:1039E300F0120AD974011216ADE9F0120AD9740261
:1039F3001216ADE9F0851882851983121537740400
:103A030002224D74F61216D1EAFEEBFFEC2403F802
:103A1300ED3400F988088909EC2407F8ED3400F93E
:103A2300E8FCE9FD8C828D83E0F8A3E0F985088248
:103A3300850983E0FAA3E0FB1215D6EE240DF58287
:103A4300EF3400F583E8F0A3E9F08C828D83E0F88E
:103A5300A3E0F9850882850983E0FAA3E0FB121548
:103A6300D68B09EA45096013EE240DF582EF340085
:103A7300F583E02401F0A3E03400F002309C74F6F7
:103A83001216D1EAFEEBFFEE242EF582EF3400F599
:103A930083E0FCA3E0FD780079FAECFAEDFB121564
:103AA300D6EE2470F582EF3400F583E8F0A3E9F055
:103AB300780079FAECFAEDFB1215D68B09EA450981
:103AC3006013EE2470F582EF3400F583E02401F0F7
:103AD300A3E03400F002309C74F01216D1EAFEEB3E
:103AE300FF74101216AD7808121519120C058A0C02
:103AF3008B0D8C0E8D0F908575780C12147F90852D
:103B030041780C1214E0780C1218E08E828F83E057
:103B1300F8A3E0F5838882A3A3121537121EFB7462
:103B230004121677E96003023C288E828F83E02417
:103B330002F8A3E03400F9E8FAE9FB8A828B837880
:103B43000812149290854178081215198A828B8382
:103B530078081214F3EE240BF582EF3400F583C0DA
:103B630082C0838E828F83A3A3A3A3A3E02401F83F
:103B7300A3E03400F9D083D082E0687003A3E06946
:103B830070057901023C2A8E828F83A3A3A3A3A38A
:103B9300A3A3E02401F0A3E03400F0EE2474F58243
:103BA300EF3400F583E064017036EE2475F582EF9F
:103BB3003400F583E0F8A3E0F98E828F83A3A3A3F7
:103BC300A3A3A3A3E0687003A3E0697013EE2475B5
:103BD300F582EF3400F583E02401F0A3E03400F034
:103BE300EE2480F582EF3400F583E064017036EE55
:103BF3002481F582EF3400F583E0F8A3E0F98E82A7
:103C03008F83A3A3A3A3A3A3A3E0687003A3E06983
:103C13007013EE2481F582EF3400F583E02401F084
:103C2300A3E03400F079007F080217A374F712169B
:103C3300D19004C7E0F875F006A4C8AAF02AF97475
:103C4300C928FE740439FF8028EE2465F8EF340098
:103C5300F988828983E0FCA3E0FD88828983E4F00C
:103C6300A3F08E828F83A3A3A3A3E0FA7B001207A2
:103C7300F7EE2465F582EF3400F583E0F8A3E0F96D
:103C8300E849604FEE2464F582EF3400F583E0F5F4
:103C93000878081218E8EE2463F582EF3400F58300
:103CA300E0F9EE2465F582EF3400F583E0FCA3E050
:103CB300FDEEFAEFFB120AC77401121677E9608969
:103CC300EE2465F582EF3400F583E0F8A3E0F9E82C
:103CD3004970137C007D008E828F83A3A3A3A3E08E
:103CE300FA7B001207F7022EBA74F21216D1EAFE1B
:103CF300EBFF890A740E1216ADE0FAEE2462F58228
:103D0300EF3400F583E064016003023DB89061D0B5
:103D1300E0F87480C398F50CEE2483F582EF340049
:103D2300F583E060047804800278008908E928F8C4
:103D3300E43400F9E824020808E93400F9E50C98B2
:103D4300E499A2D265D0334068EA7005750B02800E
:103D530003750B01E0603975090078081218E47ADD
:103D6300187B08120B03740212167775081875096D
:103D73000878081218E4AC0AA90BEEFAEFFB120B51
:103D83002174021216777404250AF50A7C187D083B
:103D93007401250AF5D9850BD9E50A600D8C828D4E
:103DA30083F8E0F5D9A318E870F875E195790080F8
:103DB300067907800279FF7F060217A3C082C083BA
:103DC300E960208C828D83E08A828B83F08C828DE4
:103DD30083A3AC82AD838A828B83A3AA82AB83192C
:103DE300E970E0ECFAEDFB02249DC082C0837869A0
:103DF300790888828983A3A3A3A3A3A3E4F0888279
:103E03008983A3A3A3A3A374FFF0E82418F8E934D8
:103E130000F9E864C97003E9640870D690086B740C
:103E2300FFF090086AE4F0900869F090086CF0A342
:103E3300F002551574EC1216D190086CE0F508A346
:103E4300E0F509E508450970061209DD024AE48533
:103E53000882850983E014601814601524FE60113C
:103E630024C470030245A624C070030245A6024A77
:103E7300E4E0F9120B938A0A8B0BAE0AAF0B9004A2
:103E8300C6E07003024224120A85E9F875F006A41D
:103E9300C8AAF02AF974C928F50C740439F50D85FC
:103EA3000C82F583E0F50AA3E0F50BAC0AFDEEFA0C
:103EB300EFFB120B8DE9F50E7402650E70030241E0
:103EC300E38E828F83E024FE600A24FE70030240A7
:103ED300DB024AE4EE65087003EF6509602112090D
:103EE300FB9007F9E0640170169007F8E070107911
:103EF30001120CA1120C71120C9B7900120CA7E594
:103F03000E6021E5082415F582E5093400F583E008
:103F130060129007F4E0F8A3E0F9A3E0687003A34C
:103F2300E0697026120C058A0C8B0D8C0E8D0F9098
:103F33008565780C12147F908541780C1214E08EFD
:103F4300828F83A3A3780C121528E5082415F58224
:103F5300E5093400F583E064016003024001850A4A
:103F630082850B83A3A3780C121519908561780CB5
:103F730012147F780C1218E08E828F83A3A3C08261
:103F8300C0839007F6E0F508A3E085080CF50DE47F
:103F9300F50EF50FD083D082780C12147FAA0CABE8
:103FA3000DAC0EAD0F121EFB7404121677E9703CB4
:103FB3008E828F83A3A3C082C0839007F6E0F508A7
:103FC300A3E0F509E4F50AF50BD083D08278081253
:103FD300147F90854178081214E0EE240EF582EFE9
:103FE3003400F58378081215280240D3850A8285A8
:103FF3000B83A3A3780812151990856180CFEE2453
:104003000EF582EF3400F5831218F78E828F83A3A7
:10401300A3121537121EFB7404121677E9640160AC
:10402300030240D3850A82850B83A3A3780C121560
:1040330019908561780C12147F780C1218E08E8227
:104043008F83A3A3C082C0839007F6E0F508A3E0A3
:1040530085080CF50DE4F50EF50FD083D082780CAE
:1040630012147FAA0CAB0DAC0EAD0F121EFB740421
:10407300121677E9701F8E828F83A3A3C082C08339
:104083009007F6E0F508A3E0F509E4F50AF50BD08F
:1040930083D0828010850A82850B83A3A3780812BC
:1040A3001519908561780812147F9085417808125C
:1040B30014E0EE240EF582EF3400F5837808121530
:1040C300289007FCE06427700474258002E004F064
:1040D30090086B7402024ADCEE65087003EF650911
:1040E3006031900810E0F9120A018508828509837E
:1040F300E06402701E9007F9E0640170169007F8FF
:10410300E070107900120CA1120C71120C9B790152
:10411300120CA7E50E601290080AE0F8A3E0F9A3D9
:10412300E0687003A3E0697026120C058A0C8B0DFE
:104133008C0E8D0F908565780C12147F90854178D5
:104143000C1214E08E828F83A3A3780C121528859A
:104153000A82850B83A3A3780C12151990856178C5
:104163000C12147F780C1218E08E828F83A3A3C0E5
:1041730082C08390080CE0F508A3E085080CF50DD8
:10418300E4F50EF50FD083D082780C12147FAA0CBD
:10419300AB0DAC0EAD0F121EFB7404121677E97053
:1041A3001F8E828F83A3A3C082C08390080CE0F587
:1041B30008A3E0F509E4F50AF50BD083D08280105B
:1041C300850A82850B83A3A378081215199085614C
:1041D300780812147F90854178081214E0024AC5CA
:1041E300850882850983E0640270139007F9E0640F
:1041F30001700B9007F8E070057900120CA1E50C33
:104203002404FEE50D3400FF8E828F83E0F9120B48
:10421300C98E828F83E09004C7F0AA0AAB0B024ACF
:10422300E1EE65087003EF65098E828F83600302F8
:104233004408E024FE600A24FE7003024363024A3A
:10424300DDEE2415F582EF3400F583E0604190073D
:10425300F4E0F8A3E0F9A3E0687003A3E069602F3A
:10426300120C058A088B098C0A8D0B90850578083A
:1042730012147F78081218E08E828F83A3A312157D
:1042830037121EFB7404121677E96003024ADD122B
:104293000C058A088B098C0A8D0B908565780812AA
:1042A300147F90854178081214E08E828F83A3A334
:1042B3007808121528EE2415F582EF3400F583E013
:1042C300640170348E828F83A3A3C082C08390075E
:1042D300F6E0F508A3E0F509E4F50AF50BD083D081
:1042E30082780812147FEE240EF582EF3400F583F2
:1042F3007808121528024ADDEE240EF582EF340009
:10430300F5831218F78E828F83A3A3121537121E1B
:10431300FB7404121677E964016003024ADD8E829E
:104323008F83A3A3C082C0839007F6E0F508A3E0C0
:10433300F509E4F50AF50BD083D082780812147FCF
:10434300EE240EF582EF3400F583780812152890D9
:1043530007FCE0642770057425024ADCE00480F959
:1043630090080AE0F8A3E0F9A3E0687003A3E0690A
:10437300602C120C058A088B098C0A8D0B9085051D
:10438300780812147F78081218E08E828F83A3A313
:10439300121537121EFB7404121677E97064EE24AB
:1043A30002F508EF3400F509120C058A0C8B0D8C0D
:1043B3000E8D0F908565780C12147F908541780CD3
:1043C3001214E0850882850983780C121528850864
:1043D30082850983C082C08390080CE0F508A3E0BE
:1043E300F509E4F50AF50BD083D082780812147F1F
:1043F300EE240EF582EF3400F583780812152812A7
:104403000A07024ADDE024FE600A24FE7003024428
:10441300CE024AE41209FB9007F9E064017016909A
:1044230007F8E070107901120CA1120C71120C9BA9
:104433007900120CA79007F4E0F8A3E0F9A3E06871
:104443007003A3E069602F120C058A088B098C0A9C
:104453008D0B908505780812147F78081218E08E6A
:10446300828F83A3A3121537121EFB7404121677CF
:10447300E960030240D3EE2402F508EF3400F509A6
:10448300120C058A0C8B0D8C0E8D0F908565780CA4
:1044930012147F908541780C1214E08508828509F7
:1044A30083780C121528850882850983C082C0830E
:1044B3009007F6E0F508A3E0F509E4F50AF50BD05B
:1044C30083D082780812147F023FDD900810E0F950
:1044D300120A01850882850983E06402701E900731
:1044E300F9E0640170169007F8E070107900120C7F
:1044F300A1120C71120C9B7901120CA790080AE00F
:10450300F8A3E0F9A3E0687003A3E069602C120C40
:10451300058A088B098C0A8D0B908505780812147F
:104523007F78081218E08E828F83A3A312153712A7
:104533001EFB7404121677E97066EE2402F8EF345A
:1045430000F988088909120C058A0C8B0D8C0E8DD5
:104553000F908565780C12147F908541780C1214A6
:10456300E0850882850983780C12152885088285E1
:104573000983C082C08390080CE0F508A3E0F50925
:10458300E4F50AF50BD083D082780812147FEE2469
:104593000EF582EF3400F5837808121528120A0706
:1045A300024AD79004C6E0700302493C120A85E927
:1045B300F875F006A4C8AAF02AF974C928F510748E
:1045C3000439F511851082F583E0F508A3E0F509B8
:1045D3009004C7E0F875F006A4C8AAF02AF974C9D4
:1045E30028F50C740439F50D90086AE0540770033C
:1045F300024865A3E0F9120B938A0A8B0BAE0AAF4C
:104603000BAC08AD09120B8DE9F50E7402650E7043
:1046130003024865850C82850D83A3A3A3A3E0F859
:1046230075F08AA4C8AAF02AF974CE28F50A74088A
:1046330039F50BAA0AFB120BBDAA0AAB0B120BB777
:1046430075128075130078121218E47C007D60E502
:104653000A2406FAE50B3401FB120B03740212164B
:1046630077A80AA90B906195E0C0E0E82486F5825B
:10467300E93401F583D0E0F0906196E0C0E0E824EE
:1046830087F582E93401F583D0E0F0906197E0C0CB
:10469300E0E82488F582E93401F583D0E0F0906105
:1046A30098E0C0E0E82489F582E93401F583D0E09D
:1046B300F08E828F83E024FE600A24FE700302479B
:1046C300A00248651209FB9007F9E064017011909C
:1046D30007F8E0700B120C71120C9B7900120CA7F7
:1046E300E50E60129007F4E0F8A3E0F9A3E0687028
:1046F30003A3E0697026120C058A0C8B0D8C0E8DBA
:104703000F908565780C12147F908541780C1214F4
:10471300E08E828F83A3A3780C12152885088285E7
:104723000983A3A3780C121519908561780C1214D0
:104733007F780C1218E08E828F83A3A3C082C0837C
:104743009007F6E0F50CA3E0F50DE4F50EF50FD0B8
:1047530083D082780C12147FAA0CAB0DAC0EAD0F74
:10476300121EFB7404121677E9701F8E828F83A3C7
:10477300A3C082C0839007F6E0F508A3E0F509E43F
:10478300F50AF50BD083D0828010850882850983D2
:10479300A3A37808121519908561023FD0900810E1
:1047A300E0F9120A01E50E601290080AE0F8A3E0AE
:1047B300F9A3E0687003A3E0697026120C058A0C64
:1047C3008B0D8C0E8D0F908565780C12147F908560
:1047D30041780C1214E08E828F83A3A3780C1215F8
:1047E30028850882850983A3A3780C12151990855F
:1047F30061780C12147F780C1218E08E828F83A3D9
:10480300A3C082C08390080CE0F50CA3E0F50DE48F
:10481300F50EF50FD083D082780C12147FAA0CAB5F
:104823000DAC0EAD0F121EFB7404121677E9701F48
:104833008E828F83A3A3C082C08390080CE0F50807
:10484300A3E0F509E4F50AF50BD083D08280108547
:104853000882850983A3A37808121519908561023C
:1048630041D3E510650C7004E511650D7003024931
:1048730035850C82850D83A3A3A3E0700302491938
:10488300850C82850D83A3A3A3A3E0F875F08AA406
:10489300C8AAF02AF974CE28FE740839FFEEFAEF9D
:1048A300FB120BBDEEFAEFFB120BB7750A80750B0B
:1048B30000780A1218E47C007D60EE2406FAEF34D7
:1048C30001FB120B037402121677906195E0C0E0AE
:1048D300EE2486F582EF3401F583D0E0F090619603
:1048E300E0C0E0EE2487F582EF3401F583D0E0F0F9
:1048F300906197E0C0E0EE2488F582EF3401F58300
:10490300D0E0F0906198E0C0E0EE2489F582EF34C6
:1049130001F583D0E0F0E5102404FEE5113400FF37
:104923008E828F83E0F9120BC98E828F83E090040D
:10493300C7F0AA08AB09024AE190086AE05407707D
:1049430003024AE4A3E0F9120B938A088B09AE0829
:10495300AF098E828F83E024FE600A24FE70030277
:104963004A2B024AE41209FB9007F9E0640170162E
:104973009007F8E070107901120CA1120C71120C5F
:104983009B7900120CA79007F4E0F8A3E0F9A3E0E9
:10499300687003A3E069602C120C058A088B098CEC
:1049A3000A8D0B908505780812147F78081218E099
:1049B3008E828F83A3A3121537121EFB7404121663
:1049C30077E97061EE2402F508EF3400F509120C63
:1049D300058A0C8B0D8C0E8D0F908565780C121447
:1049E3007F908541780C1214E085088285098378CD
:1049F3000C121528850882850983C082C08390071D
:104A0300F6E0F508A3E0F509E4F50AF50BD083D049
:104A130082780812147FEE240EF582EF3400F583BA
:104A230078081215280240D3900810E0F9120A0101
:104A330090080AE0F8A3E0F9A3E0687003A3E06933
:104A4300602C120C058A088B098C0A8D0B90850546
:104A5300780812147F78081218E08E828F83A3A33C
:104A6300121537121EFB7404121677E97063EE24D5
:104A730002F8EF3400F988088909120C058A0C8BB7
:104A83000D8C0E8D0F908565780C12147F908541E7
:104A9300780C1214E0850882850983780C12152896
:104AA300850882850983C082C08390080CE0F508DD
:104AB300A3E0F509E4F50AF50BD083D08278081258
:104AC300147FEE240EF582EF3400F5837808121577
:104AD30028120A0790086B7404F0EEFAEFFB120B2E
:104AE300877F0C0217A374F01216D1EAFEEBFFEED8
:104AF3002402F8EF3400F988088909EE2406F8EF58
:104B03003400F9880A890B8882F5831218FB85081B
:104B130082850983121537120BE174021216778509
:104B23000A82850B831218FB850882850983121577
:104B330037120BD57402121677EE240EF582EF347A
:104B430000F583121537120BE78E828F83E06440E2
:104B5300701CEE2412F8EF3400F988828983E09008
:104B63006064F088828983A3E0906065800690602A
:104B730064E4F0A3F090086CEEF0A3EFF0EE2416DB
:104B8300F582EF3400F583E0F8A3E0F58388821221
:104B930016CF906054E4F0A3F0A3F0A3F0A3F0A326
:104BA300F0A3F0A3F0A3F0A3F0A3F0A3F09061822D
:104BB300E0C2E6F07591BFEE2415F582EF3400F5FF
:104BC30083E064017003120C17E5E170FCEE24141A
:104BD300F582EF3400F583E0F46003E0F5E1EE24C1
:104BE30015F582EF3400F5837401F090049FE064BF
:104BF30001706F120C058A088B098C0A8D0B7808DB
:104C03001218E08E828F83A3A3121537121F5874D4
:104C1300041216778A088B098C0A8D0B90855D78B0
:104C23000C1215197808790C1213347403780812CE
:104C33001434E50824F4F508E5093401F50990086E
:104C430016E06003121187E4F50AF50B78081218D1
:104C5300E07A207B00900498E0F912122F7404127A
:104C630016777F080217A374EC1216D1EAFEEBFF46
:104C73008C088D09EE4F70057902024D5F120C0509
:104C83008A0C8B0D8C0E8D0F90850D780C12147F72
:104C9300908541780C1214E08E828F83E064027059
:104CA3001F9007F4E0F8A3E0F9A3E0687003A3E022
:104CB3006970248E828F83A3A3780C121528801722
:104CC300E06404701290080AE0F8A3E0F9A3E06836
:104CD3007003A3E06960DC780C1218E08508828514
:104CE3000983A3A3121537121F5874041216778A67
:104CF300108B118C128D1390858D78101213154023
:104D030003024C7B850882850983A3A378081215C7
:104D130019908501780812147F78081218E08E82A2
:104D23008F83A3A3121537121EFB7404121677E99F
:104D33006003024C7B908555780C12147F780C121B
:104D430018E08E828F83A3A3121537121EFB7404FF
:104D5300121677E97004790080027901024AE4743B
:104D6300F01216D1890874FF65086003024EEE90B5
:104D7300086AE0540770030253BA7A007869790825
:104D830088828983A3A3A3A3A3E064047050EA7574
:104D9300F018A4F8A9F0746F28F582740839F58324
:104DA300E0640170487A007869790888828983A36E
:104DB300A3A3A3A3E064046003024E46888289830D
:104DC300A3A3A3A3A3A3E064017078EA75F018A4D6
:104DD300F8A9F0746E28FA740839FB0253BE0AE886
:104DE3002418F8E93400F9EAC3940440937A00786C
:104DF30069790888828983A3A3A3A3A3E0640170CC
:104E030057EA75F018A4F8A9F0746F28F5827408AE
:104E130039F583E06401704F7A00786979088882F4
:104E23008983A3A3A3A3A3E064016003024ECA88FA
:104E3300828983A3A3A3A3A3A3E064016003024E17
:104E4300CA80880AE82418F8E93400F9EAC394040C
:104E53005003024DAE0253BA0AE82418F8E93400AD
:104E6300F9EAC39404408C7A0078697908888289C6
:104E730083A3A3A3A3A3E064027061EA75F018A45B
:104E8300F8A9F0746F28F582740839F583E064019A
:104E930070597A007869790888828983A3A3A3A3C8
:104EA300A3E06402707A88828983A3A3A3A3A3A344
:104EB300E06401706BEA75F018A4F8A9F0746E2829
:104EC300FA740839FB806F0AE82418F8E93400F90A
:104ED300EAC394045003024E210253BA0AE8241889
:104EE300F8E93400F9EAC3940440827A00786979D6
:104EF3000888828983A3A3A3A3A3E06508703D88E0
:104F0300828983A3A3A3A3A3A3E06401702EEA75FC
:104F1300F018A4F8A9F0746E28FE740839FF802FE6
:104F23000AE82418F8E93400F9EAC39404500302A8
:104F33004E9B7A007B000253BE0253BA0AE8241840
:104F4300F8E93400F9EAC3940440A67E007F007AAE
:104F5300007869790888828983A3A3A3A3A3E06562
:104F630008701BEA75F018A4F8A9F0746F28F5828D
:104F7300740839F583E0640170137A0180110AE83B
:104F83002418F8E93400F9EAC3940440C87A00E528
:104F93000814600F14700302515724FE7003025269
:104FA300B180967B007869790888828983A3A3A35B
:104FB300A3A3E064027055EB75F018A4F8A9F0748C
:104FC3006F28F582740839F583E06401704D7B0026
:104FD3007869790888828983A3A3A3A3A3E06402E1
:104FE300600302508D88828983A3A3A3A3A3A3E0B4
:104FF3006401600302508DEB75F018A4F8A9F074F6
:105003006E28F50A740839F50B0250A50BE824182D
:10501300F8E93400F9EBC39404408E7B0078697996
:105023000888828983A3A3A3A3A3E0640460030283
:1050330050E1EB75F018A4F8A9F0746F28F58274A9
:105043000839F583E0640160030250F37B0078695B
:10505300790888828983A3A3A3A3A3E064046003DC
:105063000250FE88828983A3A3A3A3A3A3E06401C0
:1050730060030250FEEB75F018A4F8A9F0746E28D3
:10508300F50A740839F50B0251160BE82418F8E9F0
:105093003400F9EBC394045003024FD7750A00752B
:1050A3000B00EAA2E04003025149850A82850B8383
:1050B300A3A3780C121519908551780C12147F78DC
:1050C3000C1218E08E828F83A3A3121537121EFBD6
:1050D3007404121677E9706EEEFAEF024DDD0BE8F9
:1050E3002418F8E93400F9EBC39404500302502464
:1050F300EAA2E05058EEFAEFFB80560BE82418F8CA
:10510300E93400F9EBC394045003025055750A00C7
:10511300750B00EAA2E0502E850A82850B83A3A3B8
:10512300780C121519908551780C12147F780C1293
:1051330018E08E828F83A3A3121537121EFB74040B
:10514300121677E96092AA0AAB0B0253BE7A007B70
:10515300000253BE7B007869790888828983A3A300
:10516300A3A3A3E064047052EB75F018A4F8A9F0AC
:10517300746F28F582740839F583E06401704A7B03
:10518300007869790888828983A3A3A3A3A3E06431
:1051930004600302522588828983A3A3A3A3A3A344
:1051A300E06401707DEB75F018A4F8A9F0746E2823
:1051B300F50A740839F50B02523D0BE82418F8E997
:1051C3003400F9EBC3940440917B00786979088833
:1051D300828983A3A3A3A3A3E0640160030252799A
:1051E300EB75F018A4F8A9F0746F28F582740839E8
:1051F300F583E06401600302528B7B0078697908D0
:1052030088828983A3A3A3A3A3E06401600302525A
:105213009688828983A3A3A3A3A3A3E064017073E5
:1052230080830BE82418F8E93400F9EBC3940450A5
:1052330003025188750A00750B00EAA2E0400302DD
:105243005149850A82850B83A3A3780C1215199003
:105253008551780C12147F780C1218E08E828F839C
:10526300A3A3121537121EFB7404121677E9600309
:105273000251490250DB0BE82418F8E93400F9EB3A
:10528300C3940450030251D2EAA2E0501AEEFAEF9B
:10529300FB80180BE82418F8E93400F9EBC39404F5
:1052A3005003025203808D7A007B000253BE7B00C1
:1052B3007869790888828983A3A3A3A3A3E06401FF
:1052C3007040EB75F018A4F8A9F0746F28F5827498
:1052D3000839F583E0640170387B007869790888C0
:1052E300828983A3A3A3A3A3E0640160030253768B
:1052F30088828983A3A3A3A3A3A3E0640170740298
:1053030051A80BE82418F8E93400F9EBC3940440DE
:10531300A37B007869790888828983A3A3A3A3A3C5
:10532300E064027063EB75F018A4F8A9F0746F28B9
:10533300F582740839F583E06401705B7B0078695A
:10534300790888828983A3A3A3A3A3E06402704F8F
:1053530088828983A3A3A3A3A3A3E064017040EB82
:1053630075F018A4F8A9F0746E28F50A740839F5D5
:105373000B80410BE82418F8E93400F9EBC39404DB
:1053830050030252E20252370BE82418F8E93400C2
:10539300F9EBC394044080EAA2E0501B0250DB0BFC
:1053A300E82418F8E93400F9EBC394044094750A2F
:1053B30000750B0002523D7A007B00024C6574F6C7
:1053C3001216D1890975080078697908888289835A
:1053D300A3A3A3A3A3A3E0600302549DE50875F070
:1053E30018A4F8A9F0746E28FE740839FF8E828F12
:1053F30083A37401F08E828F83E509F0120C058E6E
:10540300828F83A3A31215438E828F83A3A3A3A3A7
:10541300A3A3E4F0A3F0908529121537EE240EF52B
:1054230082EF3400F583121543EE2414F582EF3432
:1054330000F5837401F0EE2415F582EF3400F58353
:105443007401F0EE2416F582EF3400F583E4F0A343
:10545300F090086AE04509F0900869E004F06401FF
:10546300600C748065096006744065097019E5086D
:1054730075F018A4F8A9F0746E28F8740839F99037
:10548300086CE8F0A3E9F0E50875F018A4F8A9F0B2
:10549300746E28FA740839FB80180508E82418F894
:1054A300E93400F9E508C3940450030253CF7A00AA
:1054B3007B0080007F020217A3C082C0838A828B95
:1054C30083E0F8A3E0F98A828B83E4F0A3F0888277
:1054D3008983A3F088828983E0F4F890086AE0580E
:1054E300F0900869E014F0700B90086CE4F0A3F0FE
:1054F300900499F0801CC082C083900869E0600A20
:1055030090086CE0FAA3E0FB80047A007B00800241
:10551300E0F9D083D08202011FC082C083E9FB7A05
:10552300007869790888828983A3A3A3A3A3E06B86
:105533007016EA75F018A4F8A9F0746F28F5827450
:105543000839F583E0F980110AE82418F8E93400F2
:10555300F9EAC3940440CE790080B7C082C0839037
:10556300086902551374F61216D1EAFEEBFF906137
:10557300D0E0C0E0EE2400F582EF3401F583D0E003
:10558300F09061D7E0FA9061D5E0C39A547FC0E010
:10559300EE2401F582EF3401F583D0E0F0EE24022E
:1055A300F8EF3401F99061D6E0C39A547F88828979
:1055B30083F0701A9061C5E0A2E45012E0A2E750B4
:1055C3000DEE2402F582EF3401F5837480F0120CA2
:1055D300CBEE2401F582EF3401F583E07034EE2441
:1055E30002F582EF3401F583E070279061C5E0A2F4
:1055F300E4501FE0A2E7501AEE2402F582EF3401D3
:10560300F5837480F0EE2401F582EF3401F58374A1
:1056130080F075E1957800EE2400F582EF3401F512
:1056230083E060279061D3E0C0E08808EE2508F5A9
:1056330082EF3400F583D0E0F008EE2400F582EF2A
:105643003401F583E0F9E8C39940D975E191025437
:10565300B774F61216D1EAFEEBFF9061C8E0C0E022
:10566300EE2403F582EF3401F583D0E0F09061CFAF
:10567300E0FA9061CDE0C39A547FC0E0EE2404F5D4
:1056830082EF3401F583D0E0F0EE2405F8EF340126
:10569300F99061CEE0C39A547F88828983F0701AAF
:1056A3009061C5E0A2E05012E0A2E3500DEE2405A4
:1056B300F582EF3401F5837480F0120CD1EE2404EB
:1056C300F582EF3401F583E07034EE2405F582EFC3
:1056D3003401F583E070279061C5E0A2E0501FE03C
:1056E300A2E3501AEE2405F582EF3401F5837480AA
:1056F300F0EE2404F582EF3401F5837480F0120C8C
:10570300D77A00EE2403F582EF3401F583E0602FAE
:105713009061CBE0C0E08A08EE2508F8EF3400F989
:10572300E82480F582E93400F583D0E0F00AEE2422
:1057330003F582EF3401F583E0F8EAC39840D175AD
:10574300E1810254B774F41216D18908A808E875E8
:10575300F08AA4C8AAF02AF974CE28FE740839FF87
:10576300EEFAEFFB120BBDEEFAEFFB120BB7750A65
:1057730080750B00780A1218E47C007D60EE240625
:10578300FAEF3401FB120B03740212167790619542
:10579300E0C0E0EE2486F582EF3401F583D0E0F03B
:1057A300906196E0C0E0EE2487F582EF3401F58343
:1057B300D0E0F0906197E0C0E0EE2488F582EF340A
:1057C30001F583D0E0F0906198E0C0E0EE2489F524
:1057D30082EF3401F583D0E0F07F040217A374F263
:1057E3001216D18908A808E875F08AA4C8AAF02A75
:1057F300F974CE28F8740839F99061C6E0FDE054D5
:10580300F0F075E1817C00E82403F582E93401F5C9
:1058130083E0602B8C0AE8250AFAE93400FBEA24CA
:1058230080F582EB3400F583E09061CAF00CE82444
:1058330003F582E93401F583E0FAECC39A40D5E835
:105843002405F582E93401F583E060049061CEF02C
:10585300E82404F582E93401F583E060049061CD26
:10586300F0ED9061C6F0A808E875F08AA4C8AAF024
:105873002AF974CE28F8740839F9E0FCE0540FF0E3
:1058830075E1917A00E82400F582E93401F583E0BB
:1058930060238A0AE8250AF582E93400F583E0905B
:1058A30061D2F00AE82400F582E93401F583E0FBD4
:1058B300EAC39B40DDE82402F582E93401F583E085
:1058C30060049061D6F0E82401F582E93401F583A0
:1058D300E060049061D5F0EC9061C6F0850882AE7B
:1058E30082EEF875F08AA4C8AAF02AF974CE28F5D6
:1058F3000A740839F50B750C80750D00780C1218B5
:10590300E4E50A2406FCE50B3401FD7A007B601212
:105913000B037402121677A80AA90BE82486F582F2
:10592300E93401F583E0906195F0E82487F582E995
:105933003401F583E0906196F0E82488F582E93438
:1059430001F583E0906197F0E82489F582E9340159
:10595300F583E0906198F0EE75F006A4CEA8F028E8
:10596300FF74C92EF58274043FF583E0F8A3E0F5D4
:10597300838882E06480704190106F7445F0A37453
:105983000BF0A3742DF0A3740BF0A37445F0A37470
:105993000BF0A37445F0A3740BF0A3742DF0A37460
:1059A3000BF0A37445F0A3740BF0A3744BF0A37432
:1059B3000BF0900499740880059004997407F09093
:1059C300107D742DF0A3740BF0A3742DF0A3740B4E
:1059D300F0A3742DF0A3740BF0A3742DF0A3740B38
:1059E300F0A3742DF0A3740BF0A3742DF0A3740B28
:1059F300F07F060217A3C082C083E990104DF0D058
:105A030083D08202011F74F61216D1E9900364F069
:105A13007CA47D037AFF7BFF1207377A008A08751F
:105A230009007402780812164E74652508F8740389
:105A33003509125A58A3F00AEAC3940340DF7905E3
:105A43001206C5900364E0F91205ED7A4F7B071245
:105A53000905026FD9F98882898374FF125A65E4B4
:105A6300F022F0A3126E66A32274F41216D18A08F0
:105A73008B09EB54806030900364E0F912110F8AB4
:105A83000A8B0BAE0AAF0BEE4F60138E828F83E04F
:105A930064B070031206D7EEFAEFFB1210FDAA08EA
:105AA300E5096480FB80047A007B00025C3574F2B4
:105AB3001216D174FC121661EAFEEBFF7412121671
:105AC300AD126EAFEE4F7003025B5474021216AD4B
:105AD300EEF0A3EF125E90ECF0A3ED125E90AA82BB
:105AE300AB831205E7E9F50A706AE50845096064C6
:105AF3008E828F83126E90EE4F60567A067B001271
:105B030011998A0C8B0DA80CA90DE8497005750A2B
:105B130013804188828983E4125A65EEF0A3EF1261
:105B23006EC0E508F0A3E509F0900372125C2F90B4
:105B33000372700512694D801B12693B8003EAFCF6
