:020000040000FA
:0600000002011A021D635B
:03002B000222A00E
:03004B000222C9C5
:03005300021DD6B5
:03007B00022277E7
:10008300021C17E5C754F84401F5C77901220000A3
:100093000080FB120086B90003020104E4791B7897
:1000A30002B800028004F709D8FCE4791D7802B88D
:1000B30000028004F709D8FCE4900281782D790EC0
:1000C3008002F0A3D8FCD9FA781A90014A7A01BACF
:1000D30000028007E493A3F608DAF97AAD7B0F9068
:1000E300014B780179028015E493A3AD82AE838A34
:1000F300828B83F0A3AA82AB838D828E83D8E9D9C6
:10010300E77582F37583BA740312012C75829175B6
:100113008300740012012C75D00075817F751881DE
:10012300751902759F00020096C09FF59FE473D076
:100133009F22D083D082C09FE493C0E0740193C018
:10014300E0740293F59F2201C503D7030104CB0397
:10015300FF0000B4000028002800283075A000A08C
:1001630000A000A00000080008E001F0001000104B
:10017300001000100010001000500050005000103C
:10018300001000D0070000000000000F0001000570
:1001930000307507001000010081FF0000FF02021C
:1001A30002CE81010000BB8102C681010000031061
:1001B30002C481010000B10202C6810100000410E3
:1001C30002C281010000C702FFFF0100FF2002CE2F
:1001D30081010000B88102C681010000321002C013
:1001E30081000000000002C881030000A403330B58
:1001F300330B330B330B330B330B330B330B330B0C
:10020300330B330B330B330B130D310D0D0D01E892
:1002130003053F1002FFFFFF0001504953434553BD
:100223002D425431303047656D696E692D4241313D
:100233003030FEFF0000014F4BCCCCCC010000005E
:100243006D4EC6413930000012013529B303120146
:10025300353FB3031201356CB3031201359CB3036D
:10026300120135BDB303120135EEB3031201353F5D
:10027300B40312013556B40312013550FE021201C4
:100283003567FE0212013596FE02120135CFFE02DA
:10029300120135F7FE0212013525FF021201353C2A
:1002A300FF0212013553FF0212013569FF021201E9
:1002B3003590FF02120135A3FF02120135B9FF0287
:1002C300120135E1FF0212013516B702120135158D
:1002D300B8021201353FB80212013594B802120177
:1002E30035B5B802120135CEB802120135D0B802C5
:1002F300120135F1B802120135F4B902120135B118
:10030300BA021201357EBB02120135E2BB021201B1
:100313003579BC021201357CBC0212013502BD02E3
:1003230012013545BD0212013597BD02120135CECA
:10033300BD0212013554BE02120135DDBE021201A7
:100343003526BF0212013533BF0212013536BF0213
:1003530012013594BF02120135ACBF0212013526DA
:10036300C00212013529C0021201354CC00212012C
:10037300354FC002120135F6C00212013519C10210
:1003830012013531C10212013561C1021201356E0C
:10039300C10212013571C102120135DDC102120120
:1003A30035CBC20212013581C302120135ECC302FF
:1003B300120135C7C402120135F5C40212013575A5
:1003C300C50212013595C502120135D3C5021201CA
:1003D3003526C6021201358EC6021201351FC70229
:1003E300120135EAC702120135F9CA021201356555
:1003F300CC0212013588CC02120135729D03120121
:1004030035039F03120135549F03120135B39F0334
:10041300120135C19F03120135EA9F031201352EE4
:10042300F90212013556F90212013584F90212015B
:1004330035BBF90212013523FA021201356CFA02B7
:10044300120135B7FA02120135F5FA0212013532FB
:10045300FB0212013560FB0212013507FC02120197
:100463003511FC021201351EFC0212013551FC024A
:1004730012013513FD021201351FFD02120135373A
:10048300FD0212013541FD02120135BFFD021201C9
:100493003569B90312013577B9031201358FB903F1
:1004A300120135A7B903120135BFB9031201350093
:1004B30080021201359E800212013516810212015B
:1004C300352B82021201356582021201350E830239
:1004D300120135E383021201354785021201359E6D
:1004E30085021201352586021201350C870212019D
:1004F30035598702120135E787021201350B88024D
:10050300120135E08902120135218A0212013543B5
:100513008A02120135088B02120135CE8B021201B9
:1005230035038E021201350496031201351A960320
:100533001201354096031201356897031201357293
:100543009703120135CB9803120135CB990312019E
:1005530035478903120135E989031201351C8A03E2
:10056300120135668A03120135208C03120135AC62
:10057300AA011201352AAB011201353AAB0112016E
:10058300351DAC011201354BAC0112013556AC01DE
:1005930012013540AD01120135DCAD01120135E028
:1005A300AF0112013597B10112013513B2011201E6
:1005B30035F0B2011201351EB601120135BCB60188
:1005C30012013519B8011201358CB9011201353503
:1005D300BA011201357EBA01120135B5BA01120111
:1005E300355ABB01120135D8BB011201351ECC01AE
:1005F30012013573CC01120135B8CD01120135C892
:10060300CD01120135EBCD0112013536CE011201B8
:1006130035DBCE01120135D1CF011201359BD0015B
:1006230012013513D20112013555D201120135F3EE
:10063300D20112013519D30112013507D501120177
:10064300350CD501120135EDD60112013541D70123
:10065300120135A3D701120135CBD7011201356F32
:10066300D80112013531D90112013562D9011201C4
:100673003565D901120135ADD901120135EFD90123
:1006830012013556DA011201356CA7031201357FC9
:10069300A70312013588A703120135A1A70312018D
:1006A30035ECA703120135C7A80312013556A90378
:1006B300120135A1A903120135D65C00120135E6FA
:1006C3005C00120135495D001201358E5D00120197
:1006D300353E5E00120135175F00120135405F00A1
:1006E300120135705F00120135846100120135601B
:1006F300630012013540650012013578660012016E
:1007030035F16800120135DD6900120135236B00F4
:10071300120135306C00120135726C00120135AADA
:100723006C00120135C46C001201352C6D001201EE
:1007330035C67100120135677200120135BB7200B4
:10074300120135E272001201352073001201353FA8
:1007530073001201359373001201359B740012016B
:1007630035247500120135A8E802120135B2E802FA
:100773001201354EE90212013519EA021201353828
:10078300EA021201355EEA021201359DEA02120104
:1007930035D5EA02120135FEEA0212013538EB02C1
:1007A3001201354DEB021201351AEC021201353DEF
:1007B300EC021201355FEC0212013574EC021201F6
:1007C30035FEEC0212013538ED02120135ACED02B3
:1007D300120135F5ED021201351FEE021201354407
:1007E300EE02120135189203120135E2920312014F
:1007F30035C593031201353B94031201357D9403F0
:10080300120135AA9503120135E19B021201350A43
:100813009C02120135239C02120135689D021201CC
:1008230035469E02120135659E02120135F29E0283
:10083300120135359F021201356DA002120135D91F
:10084300A002120135CFA2021201355DA5021201E9
:1008530035F0A502120135C4A60212013567A702BD
:100863001201357AA80212013510A9021201356D61
:10087300B403120135D6B4031201352AB5031201AC
:100883003559B503120135C38D03120135308E037B
:100893001201357B8E03120135708F031201356C03
:1008A3009003120135569103120135D3D50212017B
:1008B300351AD602120135F3D602120135EED702EC
:1008C300120135CDD80212013539D902120135553D
:1008D300DA02120135BCDA02120135BFDA02120163
:1008E30035EADA021201355BDB02120135FEDB0267
:1008F30012013513DC021201355BDC02120135747F
:10090300DC0212013577DC0212013502A103120168
:10091300353EA1031201357CA10312013546A20322
:10092300120135B9A203120135F4A20312013532C3
:10093300A30312013562A30312013589A303120134
:1009430035F4A30312013536A403120135D5810111
:10095300120135F38301120135A2850112013552CB
:1009630086011201359D8601120135E886011201C7
:1009730035FA86011201353A87011201356F870175
:10098300120135BB8701120135EA87011201350DCA
:100993008801120135948801120135808901120101
:1009A30035BE8A01120135C08B011201359C8D01C0
:1009B300120135C09201120135069301120135442B
:1009C3009301120135799501120135F8AD03120136
:1009D3003598AF03120135F0220012013587230049
:1009E300120135B42300120135FA23001201353008
:1009F3002500120135C726001201353F27001201D9
:100A030035812700120135D127001201353C290019
:100A1300120135A72B00120135832C00120135A2D8
:100A23002C00120135C12C00120135C42C00120117
:100A3300354A2E001201353F2F001201353B30009D
:100A4300120135AB30001201351D31001201359C06
:100A530031001201357732001201357E3300120165
:100A6300355D3400120135E8340012013556350086
:100A7300120135CA3500120135F33500120135B2C2
:100A83003600120135C139001201350A3A0012014C
:100A9300354D3A00120135D03A00120135743B004E
:100AA300120135053C001201352A3C001201357450
:100AB3003C001201359E3C00120135E33C0012015B
:100AC300355E3D00120135B83D001201350C3F0083
:100AD300120135C93F001201359C40001201351245
:100AE3008E02120135628E021201356E8E021201E0
:100AF300354B8F021201357B8F02120135B38F0202
:100B03001201353290021201356A9002120135BC8E
:100B13009002120135F990021201351E930212015F
:100B2300354A950212013545970212013520990283
:100B3300120135E52200120135E3E20212013515F7
:100B4300E70212013565E8021201358CBC0112017E
:100B5300355EC30112013564C30112013514C601A8
:100B6300120135F1F3021201359DF4021201356BC6
:100B7300F50212013595F502120135E3F702120170
:100B830035CA4000120135144100120135C64D002B
:100B9300120135474F001201353F50001201359EB7
:100BA3005600120135995700120135D6570012012C
:100BB30035F957001201353B5800120135455800ED
:100BC300120135315900120135255A00120135BE83
:100BD3005A00120135D599031201356B9A0312019C
:100BE30035819A03120135FB9A03120135519B0398
:100BF3001201358F9B03120135EC9B0312013569FA
:100C03009C03120135729C031201357E9C03120171
:100C130035919C03120135CD9C03120135E39C03EE
:100C2300120135429D031201359BDC02120135A8E6
:100C3300DC02120135C2DC0212013501DD021201B0
:100C4300353FDD02120135A4DD02120135B9DD02A3
:100C5300120135D0DD02120135DEDD02120135ED60
:100C6300DD0212013502DE0212013517DE02120126
:100C73003522DE021201352EDE021201353BDE0281
:100C83001201354ADE0212013555DE021201357AB0
:100C9300DE0212013523DF0212013538DF021201B1
:100CA300354DDF0212013567DF0212013582DF02A3
:100CB3001201359FDF02120135AADF0212013566E8
:100CC300E00212013552E10212013577E10212010D
:100CD3003581E10212013595E102120135B4E102D9
:100CE30012013515E2021201351BE2021201352110
:100CF300E20212013527E20212013533E202120148
:100D03003566E2021201358B7500120135B77500A5
:100D13001201359B76001201353579001201354BEE
:100D23007A00120135687B001201350B7C00120139
:100D330035B17C001201358CA9021201350EAA02CD
:100D4300120135B7AA02120135FFAB021201350DAC
:100D5300AE02120135F3AE0212013528AF021201C1
:100D6300354AAF02120135F3AF02120135C3B102A6
:100D7300120135ECB10212013564B202120135964B
:100D8300B202120135A3B202120135EEB202120110
:100D93003512B30212013563B5021201356DB60285
:100DA300120135C9B602120135A8E901120135B99C
:100DB300EA011201359DEB01120135A7EB01120186
:100DC30035C9EB01120135D5EB0112013579ED017E
:100DD300120135A6ED01120135BCEE0112013511E8
:100DE300EF0112013560F00112013535F1011201F5
:100DF3003591F101120135FCF10112013531F20196
:100E030012013574F2011201353EF5011201355616
:100E1300F501120135E7F501120135F5F50112016E
:100E23003542F60112013550F601120135BCF601C7
:100E330012013537F7011201358EF701120135EE34
:100E4300AF0312013513B00312013589B003120148
:100E53003526F8011201352FF80112013538F80152
:100E630012013510F901120135C1FA01120135F1F0
:100E7300FA011201351CFB011201354CFB01120171
:100E83003577FB01120135ABFB01120135D7FB01AD
:100E93001201351AFC0112013545FC011201358C92
:100EA300FC01120135E1FC0112013523FD011201A0
:100EB300357DFD01120135A8FD01120135F7FD0154
:100EC30012013527FE0112013552FE01120135755B
:100ED300FE0112013573BB031201359FBB031201DF
:100EE30035CCBB03120135D6BB03120135E6BB0378
:100EF3001201350080031201353F8003120135C80A
:100F03008003120135DB80031201352681031201B0
:100F130035658103120135748103120135CD8103D7
:100F23001201351C82031201356C820312013560F4
:100F33008303120135558403120135928403120190
:100F4300354FBC031201359297011201358999017E
:100F5300120135189B011201350A9C0112013591CA
:100F63009C011201350B9D011201353C9D011201BB
:100F730035F5A00112013571A1011201355DA20100
:100F830012013595A201120135D8A2011201350FC4
:100F9300A40112013540A40112013595A4011201E7
:100FA30035CCA4011201353EA50112013564A5011A
:100FB3001201357EA50112013570A601120135809B
:100FC300A60112013515A80112013538A801120135
:100FD300356AA801120135F6A9011201356DAA017E
:100FE300120135EFFF01120135ACBC03120135EBE1
:100FF300BC03120135E1BD0312013515FF011201D6
:101003003525FF0112013537FF01120135E9FF01D3
:101013001201357AB503120135FEB50312013564A9
:10102300B6031201357DB60312013599B6031201D9
:1010330035F2B603120135FDB60312013547B70386
:1010430012013572B70312013575B703120135B9B1
:10105300BD03120135C9BD03120135CCBD03120115
:1010630035F87F00120135CBA9031201354CAB03D0
:10107300120135ADAB03120135F3AB03120135CFCA
:10108300BD03120135DABD03120135DFBD031201C1
:101093003578B803120135A1B803120135CAB80374
:1010A300120135E2B80312013524B9031201356C7C
:1010B300EE0212013576EE02120135B6EE0212018E
:1010C30035FFEE0212013539EF0212013593EF02BB
:1010D300120135B2EF02120135BBEF021201350CDA
:1010E300F00212013535F0021201353FF002120110
:1010F30035ABF00212013539F10212013592F102DA
:10110300120135C0F10212013540F202120135839A
:10111300F202120135BEF202120135D0F2021201BF
:1011230035EFF202120135F8F202120135C5F3026E
:10113300120135A7B103120135FAB1031201356665
:10114300B203120135CEB2031201357EA40312019C
:1011530035A8A4031201357DA50312013571A60339
:10116300120135F4A6031201357EB703120135F6D9
:10117300AB031201352CAC0312013565AC0312012C
:1011830035BEAD0312013558BA031201356EBA03E9
:1011930012013578BA03120135C2BA03120135F0D0
:1011A300BB03120135C0CD021201357DCE021201FF
:1011B30035B8CE02120135E0CE0212013542CF021C
:1011C3001201358ECF02120135F2CF021201356CB6
:1011D300D0021201356ED10212013521D302120160
:1011E30035A3D30212013508D4021201351FD402EC
:1011F30012013528D50212013566D502120135CA0E
:101203008403120135E3840312013584850312013B
:1012130035C48503120135DD8503120135108603BC
:101223001201355D8603120135918603120135D310
:101233008603120135DD88031201353CBD0312011B
:101243003547BD031201356EBD0312013520DB01A5
:101253001201356FDB01120135C1DB011201355675
:10126300DC01120135B3DC01120135D2DD011201BB
:10127300358DE101120135AFE30112013551E6016C
:1012830012013521E801120135C1E8011201355679
:10129300E901120135EE7F00120135C27F00120110
:1012A30035F5BC03120135A1BD0312013583BD031E
:1012B300E066701008A3E066700A08A3E066700495
:1012C30008A3E06622C3E7960809E7960809E796AC
:1012D3000809E79622C3E09608A3E09608A3E096E0
:1012E30008A3E09622C008C3E096F50808A3E09699
:1012F300420808A3E096420808A3E0964508700157
:10130300D3D00822080808EAC0E0EBC0E086F0E783
:10131300A4FA180986F0E7A42AFA180986F0E7A4C4
:101323002AFA180986F0E7A42AFA1986F0E7A4FB3B
:10133300E5F02AFA190886F0E7A42BFBE5F03AFA60
:10134300190886F0E7A42BFBE5F03AFA181809868A
:10135300F0E7A4C5F02BFBE43AFA1908E7C5F0C699
:10136300A426F6E5F03BFBE43AFA1886F0E7A4F688
:10137300E5F00826F6E43B08F6E43A08F6D0E0FB8D
:10138300D0E0FA22E4CFC0E0E4CEC0E0E4CDC0E098
:10139300E4CCC0E075F020E626F608E633F608E66E
:1013A30033F608E633F6181818EC33FCED33FDEE8C
:1013B30033FEEF33FFC3EC9709ED9709EE9709EF7F
:1013C30097191919400FFFEC97FC09ED97FD09EEEA
:1013D30097FE191906D5F0BFECF709EDF709EEF7FB
:1013E30009EFF7191919D0E0FCD0E0FDD0E0FED0E9
:1013F300E0FF226016080808C6C313C618C613C642
:1014030018C613C618C613C6D5E0EA227009080821
:1014130008226016181818C6C333C608C633C60890
:10142300C633C608C633C6D5E0EA22E627F608095E
:10143300E637F60809E637F60809E637F622E02626
:10144300F608A3E036F608A3E036F608A3E036F67E
:1014530022E026F008A3E036F008A3E036F008A364
:10146300E036F022C3E697F60809E697F60809E6A0
:1014730097F60809E697F622C3E096F008A3E096EC
:10148300F008A3E096F008A3E096F022E657F608EA
:1014930009E657F60809E657F60809E657F622E083
:1014A30056F608A3E056F608A3E056F608A3E0565E
:1014B300F622E056F008A3E056F008A3E056F00841
:1014C300A3E056F022E066F608A3E066F608A3E080
:1014D30066F608A3E066F622E0F608A3E0F608A3A2
:1014E300E0F608A3E0F622E6F008A3E6F008A3E698
:1014F300F008A3E6F022E0FAA3E0FBA3E0FCA3E0FC
:10150300FD22EAF0A3EBF0A3ECF0A3EDF022E0F868
:10151300A3E0F9A3E0FAA3E0FB22E8F0A3E9F0A338
:10152300EAF0A3EBF022CAC0E0E6F0A308DAFAD0AF
:10153300E0FA22CAC0E0E0A3C582CCC582C583CD50
:10154300C583F0A3C582CCC582C583CDC583DAE646
:10155300D0E0CA22C3E498F8E499F91215988026DA
:10156300C3E49AFAE49BFBE920E7E9121598E498AF
:10157300F8E499F922C3E498F8E499F9121598E488
:1015830098F8E499F9C3E49AFAE49BFB22EB20E789
:10159300CFE920E7E0B90010BB0008E88AF084F83F
:1015A300AAF022E4FBC8FA22EB70227B10C833C8EE
:1015B300C933C9335007C39AC3DBF280069A50017B
:1015C3002ADBEAC833F4C8C933F4C9FA2275F00830
:1015D300E4C833C8C933C933C99AC99B5004C92A5B
:1015E300C93BD5F0ECFBC833F4C8E4C9FA22600D5B
:1015F30008C6A2E713C618C613C6D5E0F322600CCB
:1016030008C6C313C618C613C6D5E0F42270042255
:10161300600D18C6C333C608C633C6D5E0F4182216
:10162300251810AF08F518400C15198008F5184057
:10163300021519D2AF2200C0D0251810AF08F51833
:10164300500C05198008F51850020519D2AFD0D0F7
:10165300222518F58210AF08F518400C15198008DB
:10166300F51840021519D2AF851983222518F58282
:10167300E43519F583222518F8E43519F9222518DC
:10168300FAE43519FB222518FCE43519FD22E4732D
:101693002518C582C0E0E51934FFC583C0E0E5180D
:1016A300C3958224F810AF088583198582188008B2
:1016B300858319858218D2AFCEF0A3E520F0A378F5
:1016C30008E608F0A3DEFAEFF0A3E58124FAF8E6D2
:1016D30008F0A3E608F0A3E608F0A30808E608F07C
:1016E300A3E608F0A315811581D0E0FED0E0F8153C
:1016F3008115811581E8C0E0EEC0E0222518C5827E
:10170300C0E0E51934FFC583C0E0E518C395822422
:10171300F910AF0885831985821880088583198598
:101723008218D2AFCEF0A3E520F0A37808E608F044
:10173300A3DEFAEFF0A3E58124FBF8E608F0A3E6C5
:1017430008F0A30808E608F0A3E608F0A31581153E
:1017530081D0E0FED0E0F815811581E8C0E0EEC04D
:10176300E022851983851882E0A3FEE0A3F52078A3
:1017730008E0A3F608DFFAE0A3FFE0A3C0E0E0A3DC
:10178300C0E0E0A3C0E0E0A3C0E0E0A3C0E010AF8E
:10179300088582188583198008858218858319D264
:1017A300AFD083D082020132851983851882E0A3EA
:1017B300FEE0A3F5207808E0A3F608DFFAE0A3FF34
:1017C300E0A3C0E0E0A3C0E0E0A3C0E0E0A3C0E08A
:1017D30010AF088582188583198008858218858350
:1017E30019D2AFD083D08222C0D02518C582C0E0E1
:1017F300E51934FFC583C0E0E518C3958224F310CF
:10180300AF08858319858218800885831985821816
:10181300D2AFC8F0A3E9F0A3EAF0A3EBF0A37908F1
:10182300E709F0A3D8FAECF0A3EDF0A3EEF0A3EFF1
:10183300F0A3D0E0F0A3D0E0F0A3D0E0F0A3E52044
:10184300F0A3E5F0F0A322851983851882E0C0E0B8
:10185300A3E0F9A3E0FAA3E0FBA37808E0F608A36A
:10186300DFFAE0FCA3E0FDA3E0FEA3E0FFA3E0C0FA
:10187300E0A3E0C0E0A3E0F5D0A3E0F520A3E0A35C
:10188300F5F010AF088583198582188008858319C0
:10189300858218D2AFD082D083D0E0F8D0E0327402
:1018A300048006740280027401C0E0F4041216542A
:1018B300D0E0121529227404800474028000CCC085
:1018C300E0EDC0E0E518C39CCCAD1950011D10AF8D
:1018D300068C188D1980068C188D19D2AF12153607
:1018E300D0E0FDD0E0FC22D083D082E9C0E0E493D5
:1018F300A3C386F0C5F095F0F908E493A386F0C579
:10190300F095F0700BE493A3C3994005E9048002BA
:10191300A3E475F002A42582F582E5F03583F5830F
:10192300D0E0F9E493A3C0E0E493C0E022D083D0F5
:1019330082ECC0E0EDC0E0E493A3FCE493A3FDEDEF
:101943004C600D12197CEC24FFFCED34FFFD80EF9D
:10195300E493A3FCE493A3FDED4C600D1219BBECDF
:1019630024FFFCED34FFFD80EFD0E0FDD0E0FCE48C
:1019730093A3C0E0E493C0E022C0E0C3E4939608DD
:101983007401939618400FE49366700808740193EA
:10199300661870007019A3A3C3E4939608740193A7
:1019A3009618A3A3400DD0E0D0E0D0E002196CA3B9
:1019B300A3A3A3A3A3D0E022C0E0C0F088F0E493E4
:1019C3006670080874019366187000A8F0A3A370EA
:1019D3000BD0F0D0E0D0E0D0E002196CA3A3D0F09C
:0319E300D0E0222F
:1019E80074F51216FFEAFEEBFFEE2434F8EF34002C
:1019F800F988088909EE2435F582EF3400F583E08B
:101A0800F8EE2437F582EF3400F583E0F50AEC852B
:101A18000AF0A4FCAAF0850AF0EDA42AFDE82CF847
:101A2800E43DF97A257B00121598EA850882850934
:101A380083F05407F87401B800028004C333D8FC5B
:101A4800C0E0E0131313541FF8EE28F8EF3400F940
:101A5800E8245DF582E93400F583D0E0F8E05860C9
:101A680008EE2434F582EF801EEE2436F582EF343A
:101A780000F583E0F5F0EA84A8F0EE28F8EF3400EA
:101A8800F9E82438F582E93400F583E0F97F0402A7
:101A980017AB74F51216FFEAFEEBFFEE2434F5825D
:101AA800EF3400F583E0C0E0EE2435F582EF340032
:101AB800F583D0E0F08E828F83A3A3A3A3A3A3A36F
:101AC800C082C0838E828F83A3A3A3A3A3E0F8A3BD
:101AD800E0F9D083D082E0C398F508A3E099F5092E
:101AE800EE2480F582EF3400F583E064017069EE3E
:101AF8002481F582EF3400F583E0F8A3E0F98E82C3
:101B08008F83A3A3A3A3A3A3A3E0FCA3E0FD8E82DA
:101B18008F83A3A3A3A3A3E0FAA3E0FBC3EA9CEBF0
:101B28009D5027C3EC98ED99402EC3EA98EB995045
:101B3800277CE27D07EEFAEFFB120A79EE2480F5A6
:101B480082EF3400F583E4F0800EC3EA98EB994005
:101B5800E0C3EC98ED9950D9EE2434F8EF3400F94D
:101B6800E8FCE9FDEE2435F582EF3400F583E0F872
:101B7800EE2437F582EF3400F583E0F50AE50885B1
:101B88000AF0A4F508AAF0850AF0E509A42AF509DF
:101B9800E82508F8E43509F97A257B00121598EA52
:101BA8008C828D83F05407F87401B800028004C356
:101BB80033D8FCC0E0E0131313541FF8EE28F8EFF5
:101BC8003400F9E8245DF582E93400F583D0E0F8C3
:101BD800E0586008EE2434F582EF801EEE2436F5D6
:101BE80082EF3400F583E0F5F0EA84A8F0EE28F8F7
:101BF800EF3400F9E82438F582E93400F583E0F998
:101C0800122269021A950000851B87851CC622C00E
:101C1800E0C0D0E8C0E0E9C0E0EAC0E0EBC0E0EC3A
:101C2800C0E0EDC0E0C008C009C00AC00BC082C057
:101C380083C0F0759B00906182E0A2E64003021C1D
:101C4800F5E591A2E64003021CF57591BF90049951
:101C5800E064057008120BFF120C0B8003120C05D0
:101C6800751B00120C6BE990049AF07900120C4D68
:101C78001209E97A017B00900498E0F912110990A1
:101C88007803E064426003021D3E900817E014F0F8
:101C98006003021D3EC2AF121CA200781ED0E0F6FF
:101CA80018D0E0F6E59F5407F9700590811C800371
:101CB80090812078081214DBE9C4C0E0781DE6554D
:101CC80008F50808E65509F509740B780812160195
:101CD800D0E02508F8906270E0A2E740F8E8C33346
:101CE800906272F0906270E0D2E0F08049E0A2E584
:101CF8005024E591A2E5501E7591DF900499E064A7
:101D08000D70139004BBE004F064287002E4F07ACC
:101D180000E0F9120CFB906181E0A2E35009E5E9CB
:101D2800A2E3500375E9F7A3E0A2E75009E591A201
:101D3800E7500375917FD0F0D083D082D00BD00AC2
:101D4800D009D008D0E0FDD0E0FCD0E0FBD0E0FA2C
:101D5800D0E0F9D0E0F8D0D0D0E032C0E0C0D0C0B8
:101D680082C083906183E0A2E05009E5BFA2E05001
:101D78000375BFFEE0A2E15009E5BFA2E15003757B
:101D8800BFFDE0A2E25009E5BFA2E2500375BFFB28
:101D9800E0A2E35009E5BFA2E3500375BFF7E0A254
:101DA800E45009E5BFA2E4500375BFEFE0A2E55097
:101DB80009E5BFA2E5500375BFDFE0A2E65009E5DB
:101DC800BFA2E6500375BFBFD083D0828088C0E031
:101DD800C0D0E8C0E0E9C0E0EAC0E0EBC0E0ECC099
:101DE800E0EDC0E0C0F0E5A7A2E6500FE5A1A2E64D
:101DF800500953A7BF75A1BF121E3BE5A7A2E55026
:101E08000CE5A1A2E5500653A7DF75A1DFE5A7A25F
:101E1800E15009E5A1A2E1500375A1FDE5A7A2E201
:101E2800500CE5A1A2E2500653A7FB75A1FBD0F028
:101E3800021D4C74F81216FF751B01900499E0649A
:101E4800067015120BAB8A828B83A3A3A3A3A3A34B
:101E5800E0FAA3E0FB120BEDA2AFE433FED2AF90A1
:101E6800049FE0640170187A207B00900498E0F9E0
:101E78001212237A207B00900498E0F912110F9037
:101E88006182E0D2E6F0900816E0602185C61C80E9
:101E98001690049EE064017008E5C654F84405F500
:101EA800C653BEFC121C107401651B60E4EEA2E070
:101EB80092AF7F010217AB74EB1216FF74FA121679
:101EC800238A088B098C148D15900499E024F7C394
:101ED80094055006908174022021120BAB8A0A8B5C
:101EE8000BAE0AAF0BEE4F700302201EAC08AD0913
:101EF800851882851983AA82AB83120C1D8E828F66
:101F080083A3A378081214DB90815078081214A2D6
:101F1800851882851983780C1214DB908150780C0F
:101F28001214A27808790C1212C8501F7808790C7C
:101F380012146790814078081212E840478508100B
:101F4800850911850A12850B138041850C10850DB2
:101F580011850E12850F1378107908121467908175
:101F68004078101212E8501C751000751100751297
:101F7800007513017810790C12146778107908121B
:101F8800142E800890817478101214DB740978106C
:101F980012140F90819078081214DB7810790812C7
:101FA80013878E828F83A3A3A3A3A3A3E0F8A3E040
:101FB800F97AD07B0312159888088909E4F50AF59F
:101FC8000B7810790812142E740412166FE0F8A317
:101FD800E0F97AD07B03121598E8FA8A08E4F50943
:101FE800781079081212C850077810790812146707
:101FF800900499E06408600AE064066005E06405FE
:10200800701C90814478101212E850129081487820
:1020180010121441800890817878101214DB85140E
:102028008285158378101214EA74061216397F0E09
:102038000217AB74F71216FF120C2F900814E06405
:10204800017010906245E4F0A3F053F4F343FE0CE2
:102058005390F3120BDBE5C654804449F5C6E59E60
:10206800547F644970F8906185740FF0900812E00D
:10207800F47002A3E0604E900813E0600814601B3F
:1020880014602E8040750801750900900812E078E8
:1020980008121610E508F45280802A75080175099F
:1020A80000900812E07808121610E508F4529080A3
:1020B80014750801750900900812E07808121610C6
:1020C800E508F452A079007F020217AB74F71216E4
:1020D800FFE9FEEAFF74016E700C7A807B009004C1
:1020E80098E0F91211099022E8E493F46008E49367
:1020F800F91209DD800953C680E59E547F70FA12F3
:102108000BE1900814E0640170031209F5900812BD
:10211800E0F47002A3E0604B900813E060081460DC
:102128001A14602C803D750801750900900812E0AA
:102138007808121610E5084280802875080175098C
:1021480000900812E07808121610E50842908013F3
:10215800750801750900900812E07808121610E554
:102168000842A0120C2F120BAB8A088B09A808A9E9
:1021780009E8496015E5E170FCE82414F582E934C2
:1021880000F583E0F46003E0F5E174016F700A7A0A
:1021980001900498E0F91211930220CF74F11216FD
:1021A800FF8A088B098C0A8D0B740F12166F780C36
:1021B8001214DB90815078081214A2908150780C88
:1021C8001214A27808790C1212C850157808790CE4
:1021D80012146790814078081212E840157901803E
:1021E80013780C7908121467908140780C1212E861
:1021F80040EB79007F080217AB74ED1216FF8A08CE
:102208008B098C0A8D0B741312166F780C1214DB61
:1022180090815078081214A2908150780C1214A260
:10222800780C79081212C840117808790C121467D2
:10223800AA08AB09AC0AAD0B802275100075110015
:102248007512007513017810790C121467781079DB
:102258000812142EAA10AB11AC12AD137F0C021782
:10226800ABC082C083E9906000F0D083D08222C0E6
:10227800E074F21217EBA2AFE433FED2AFE58AA204
:10228800E4500312103D758A00C2EB751A00EEA2E5
:10229800E092AF7F0102184AC0E0C0D0E8C0E0E990
:1022A800C0E0A9A8D2AFC2C7751A00E9A2E7E43313
:1022B800F8E9A2E792AFD0E0F9D0E0F8D0D0D0E0CA
:1022C80032C0E0C0D0E8C0E0A8AFE8A2E050037593
:1022D800E200F4F5AFD0E0F8D0D0D0E0320201321D
:1022E800FFFFFFFFFFFFFFFFC082C0839061907474
:1022F80004F0A37448F0A37402F09061807440F075
:102308009061BC7403F09061877419F090626574F1
:102318001BF090619C740DF090619A7433F0A37473
:1023280055F09061A0743AF0900814E064017009C7
:10233800C29190049D7467800590049D7461F0902B
:1023480022EEE493906186F09022E8E493F460270B
:10235800E493540FF8906185E0686012E5C65480F4
:102368004449F5C6E59E547F644970F8E8F053C6C1
:1023780080E59E547F70FA7905120CDD02277AC039
:1023880082C083E9540FF9906185E0696012E5C65F
:1023980054804449F5C6E59E547F644970F8E9F0D5
:1023A80053C680E59E547F70FA02277AC082C083A4
:1023B800E5A8F853A87E906181E4F0A3F0A3F0C2E9
:1023C800BA539AFEC289759B00C2C275E90075911D
:1023D8000075BF0075A91175B905906181F0A374E6
:1023E800C0F0A3E4F0D2BA439A0174805842A8021C
:1023F800277AC082C08374F812162390049BE0F8F1
:10240800A3E0F9E849700302252890049BE05440B2
:1024180060237908851882851983AA82AB83120AFA
:10242800EB851882851983AA82AB831207CD9004A5
:102438009BE054BFF0E054806010790C7A387B0838
:10244800120AEB90049BE0547FF0E0A2E050319038
:10245800619A7433F0A37455F09061A0743AF090C7
:102468000814E064017009C29190049D74678005A6
:1024780090049D7461F01207D390049BE054FEF021
:10248800E05402603190619A743FF0A3745AF0905E
:1024980061A0747FF0900814E064017009D29190F3
:1024A800049D7471800590049D746AF01207D3909E
:1024B800049BE054FDF0E0540460139022ECE49394
:1024C800906186F01207D990049BE054FBF0E05429
:1024D8000860139022EDE493906186F01207D9907A
:1024E800049BE054F7F0E0541060139022EEE4935C
:1024F800906186F01207D990049BE054EFF0E05405
:1025080020600A1207D990049BE054DFF0A3E0543E
:1025180001600D1209F51207DF90049CE054FEF0EB
:10252800740812163902277A74EC12169374F4128E
:102538001623851882851983AC82AD8375838175CE
:10254800820874041215369022EC93F46003022674
:10255800BD907808E0C39402500302269D740412CB
:10256800166FAC82AD837583807582D67408121598
:10257800368518828519838582128583137404121F
:10258800166FAC82AD83750EFF750FFF7FFF7E005F
:10259800750C48750D78801574086E700302263026
:1025A80074096E7003022630740A6E607B850C8293
:1025B800850D8378081214DB8C828D83A909E50ABE
:1025C800C9F88810741878081213F6E5104508F849
:1025D800C3E098A3E099850C82850D8378081214CE
:1025E800DB40188C828D83741878081213F6E51076
:1025F8004508F8E0C398F8A3E0801C74187808121E
:1026080013F6E5104508FAE9FB8C828D83E0F8A300
:10261800E0F9EAC398F8EB99F9C3E8950EE9950F44
:102628005006880E890FEEFF0EE50C2404F50CE524
:102638000D3400F50DEEC3941350030225A074FF6A
:10264800650E700474FF650F60238F0874027808A4
:1026580012161074482508F58274783509F58378C0
:10266800081214DB851282851383E508F0EC240236
:102678000C0CED3400FD851282851383A38582122C
:10268800858313740C12166FE5826C7003E5836DF5
:10269800600302258E75080175090078081218A6CE
:1026A800740212166FAC82AD837ABB7B08121019C4
:1026B8007402121639740C1216397F0C021765C091
:1026C80082C0839061AE7468F0A3746AF09062452A
:1026D80074FBF0A304F053F4FD43FE029008147455
:1026E80001F09061A0E0643A90619A70237433F02D
:1026F800A37455F09061A0743AF0740164017009F4
:10270800C29190049D7467802890049D7461802113
:10271800743FF0A3745AF09061A0747FF074016460
:10272800017009D29190049D7471800590049D7484
:102738006A8000F002277AC082C0839007F2E064C2
:102748000170159007F8E064016009E0700AA3E0E1
:1027580064017004790C8012900809E06401700823
:1027680090080FE0640160EC790002277AE0F91222
:102778002269D083D082020132C082C0839007FCD4
:102788007425F09007FA7401F0A3E4F07A01FB12C3
:102798000C599007E8E02416F8A3E03400F9888281
:1027A80089837419F0A3740AF09007F9E064017042
:1027B800169007F8E070107901120CB9120C891202
:1027C8000CB37900120CC580A9C082C08374FA12B8
:1027D80016239007F1E064017008120A019007F1CE
:1027E800E4F075E1F19007E8E02415F8A3E034007F
:1027F800F9888289837401F09007F3E064017076A8
:102808009080F6C082851882851983AC82AD837565
:102818008380D082740612153675D90D9007EAE0C8
:10282800C4333354C04403F5D978E87907888289DA
:1028380083A3A3A3E0F5D988828983A3A882A98367
:10284800E864EE7003E9640770E3851882851983EC
:10285800A882A98388828983E0F5D9A3A882A9835D
:10286800740612166FE582687003E5836970E57572
:10287800E195790180027900120C5F90105374631E
:10288800F0A3740BF0A37469F0A3740BF0A3746342
:10289800F0A3740BF0A37463F0A3740BF0A3743368
:1028A800F0A3740BF0A37433F0A3740BF0A3746F4C
:1028B800F0A3740BF09010617433F0A3740BF0A3C1
:1028C8007433F0A3740BF0A37433F0A3740BF0A368
:1028D8007433F0A3740BF0A37433F0A3740BF0A358
:1028E8007433F0A3740BF09007EAE0F97AEB7B07F6
:1028F800120C3B9007FCE0F91222697901120C6571
:1029080090810C1214F9120C7D9081581214F9124E
:102918000C477900120CD19007E8E02414F8A3E0E2
:102928003400F9888289837416F09004997405F04C
:102938000402252A74F71216938908A808E875F086
:1029480006A4C8AAF02AF974C928FE740439FF90AD
:102958000801E0F97A027B08120C3B90080FE0703E
:102968001A7900120C9B9007DBE0700B79007ADC77
:102978007B07120C418009790180F37901120C9BC5
:1029880075E1F175D923900801E0C4333354C0448C
:1029980005F5D978FF790788828983A3A3A3E0F591
:1029A800D988828983A3A882A983E864057003E98A
:1029B800640870E375D90075D90075D90075D90018
:1029C80075D90075D900EEF8EFF9E82404FAE9346E
:1029D80000FBE82422F582E93400F583E0F5D98884
:1029E800828983A3A882A983EA687002EB6970E2EE
:1029F800EEF8EFF9E824031AE93400FBE82426F599
:102A080082E93400F583E0F5D988828983A3A88216
:102A1800A983EA687002EB6970E2EE242BF582EF75
:102A28003400F583E0F5D9EEF8EFF9E824021AE965
:102A38003400FBE8242CF582E93400F583E0F5D96D
:102A480088828983A3A882A983EA687002EB6970E7
:102A5800E2EEF8EFF9E8242EF582E93400F583E098
:102A6800F5D988828983A3A882A983EA687002EBD2
:102A78006970E2EEF8EFF9E82430F582E93400F500
:102A880083E0F5D988828983A3A882A983EA68703C
:102A980002EB6970E2EEF8EFF9E82432F582E934E6
:102AA80000F583E0F5D988828983A3A882A983EAFF
:102AB800687002EB6970E2EEF8EFF9E824050A0A9B
:102AC8000AE93400FBE8245DF582E93400F583E087
:102AD800F5D988828983A3A882A983EA687002EB62
:102AE8006970E2EE2437F582EF3400F583E0541F75
:102AF800F8EE242AF582EF3400F583E0C43354E07D
:102B080048F5D975E1959010537439F0A3740BF01A
:102B1800A3743FF0A3740BF0A37433F0A3740BF009
:102B2800A37433F0A3740BF0A37433F0A3740BF005
:102B3800A37433F0A3740BF0A37445F0A3740BF0E3
:102B48009010617433F0A3740BF0A37433F0A37482
:102B58000BF0A37433F0A3740BF0A37433F0A374D5
:102B68000BF0A37433F0A3740BF0A37433F0A374C5
:102B78000BF090080EE0F912226990810C1214F9FA
:102B8800120C7D9081581214F9120C4790600DE4D4
:102B9800F07901120CD19004997406F002319774FF
:102BA800EC1216939007FFE0F8A3E0F5838882A360
:102BB800A378101214DB900810E0FAF875F006A458
:102BC800C8ACF02CF974F728F582740439F583E061
:102BD800FEA3E0FFEEC333FEEF33FF8E0CF50D7559
:102BE8000E00750F0085100885110985120A8513D6
:102BF8000B908110780812144178081218A28510D9
:102C08000885110985120A85130B7808790C1214A6
:102C18002E7810790C121387E4F50EF50F780879E1
:102C28000C1214678A0C750D007403780C121610B8
:102C38007808790C12142E90815078081214A2AAE0
:102C480008AB09AC0AAD0B12220174041216398ABA
:102C5800088B09A808A909C3EE98EF995006E82E31
:102C6800F8E93FF9E890600EF0E9A3F0EEA3F0EF81
:102C7800A3F090600D74C1F00226C2C082C0839098
:102C880007E8E0F8A3E0F5838882A3A3A3A3A3A39E
:102C9800E4F0A3F09007FC022775C082C083900778
:102CA800FFE0F8A3E0F5838882A3A3A3A3A3A3E48A
:102CB800F0A3F090080E02277502013274F612167E
:102CC800939061D0E0F87480C398FCEA2483F5827D
:102CD800EB3400F583E06004780480027800E8248F
:102CE8000EF8ECC3985003022E457E0C900818E4A9
:102CF800F0EA2477F582EB3400F583E0900819F0C8
:102D0800EA2478FCEB3400FD781A79087F028C827B
:102D18008D83E088828983F08C828D83A3AC82AD19
:102D28008388828983A3A882A9831FEF70E0EA249D
:102D38007AFCEB3400FD7F028C828D83E0888289E7
:102D480083F08C828D83A3AC82AD8388828983A330
:102D5800A882A9831FEF70E0EA247CFCEB3400FD15
:102D68007F028C828D83E088828983F08C828D83B8
:102D7800A3AC82AD8388828983A3A882A9831FEF2D
:102D880070E0EA247EFCEB3400FD7F028C828D83A8
:102D9800E088828983F08C828D83A3AC82AD83889E
:102DA800828983A3A882A9831FEF70E0EA2475FCB7
:102DB800EB3400FD8A828B83A3A3A3A3A3E0F508C9
:102DC800A3E0F5098C828D83E02508F0A3E035099E
:102DD800F07F028C828D83E088828983F08C828DDB
:102DE80083A3AC82AD8388828983A3A882A9831F29
:102DF800EF70E0EA2483F582EB3400F583E0601994
:102E080075081875090878081218A67C0C79031239
:102E18000B2774021216397E1074012EF5D975D954
:102E280003758218758308EEFFE0F5D9A31FEF70CC
:102E3800F875E1957904120C837901800279000212
:102E4800337974F61216939061D0E0F87480C398C1
:102E5800FCEA2483F582EB3400F583E0600478040F
:102E680080027800E8240AF8ECC3985003022F3A4D
:102E78007508089008187401F07CE27D07781979C4
:102E8800087E058C828D83E088828983F08C828D10
:102E980083A3AC82AD8388828983A3A882A9831E79
:102EA800EE70E0EA2481FCEB3400FD8A828B83A378
:102EB800A3A3A3A3E0FEA3E0FF8C828D83E02EF002
:102EC800A3E03FF07E028C828D83E088828983F0C4
:102ED8008C828D83A3AC82AD8388828983A3A882E8
:102EE800A9831EEE70E0EA2483F582EB3400F583B3
:102EF800E0601A75081875090878081218A67C0881
:102F08007903120B27740212163975080C740125FF
:102F180008F5D975D903758218758308AE08E0F5E8
:102F2800D9A31EEE70F875E1957904120C83790126
:102F38008002790002337974F7121693EAFEEBFFE8
:102F48009061D0E0600302303675D91875D90375E1
:102F5800D903EEF8EFF9E82408FAE93400FBE8248D
:102F68009CF582E93400F583E0F5D988828983A34A
:102F7800A882A983EA687002EB6970E2EEF8EFF9BB
:102F8800E82402FAE93400FBE824A4F582E93400D5
:102F9800F583E0F5D988828983A3A882A983EA68A2
:102FA8007002EB6970E2EE2494F582EF3400F58349
:102FB800E5822408F8E5833400F9E0F5D9A3E8654B
:102FC800827003E9658370F2EE2488F582EF34009D
:102FD800F583E5822404F8E5833400F9E0F5D9A304
:102FE800E865827003E9658370F275E1957908EE0A
:102FF8002494FAEF3400FB120ADF7904EE2488FAED
:10300800EF3400FB120ADF7904120C83EE2470F50A
:1030180082EF3400F583E0F8A3E0F9EE2472F5823C
:10302800EF3400F583E8F0A3E9F079018002790034
:1030380002319774F6121693EAFEEBFF90081874A3
:1030480006F075081875090878081218A67C017921
:1030580003120B27740212163975D90675D9037530
:103068008218758308E0F5D9A3E582641D7004E52C
:1030780083640870F075E195900499E06408701E07
:10308800EE2470F582EF3400F583E0F8A3E0F9EE62
:103098002472F582EF3400F583E8F0A3E9F07901B2
:1030A80002337974F6121693EAFEEBFF9061D0E0D2
:1030B800705E900818740AF0750818750908780881
:1030C8001218A67C017903120B277402121639759F
:1030D800D90675D903758218758308E0F5D9A3E573
:1030E80082641D7004E583640870F075E195EE2430
:1030F80070F582EF3400F583E0F8A3E0F9EE24726E
:10310800F582EF3400F583E8F0A3E9F07901800255
:10311800790002337974F6121693EAFEEBFF906198
:10312800D0E070667801900818740BF0900499E06C
:103138006407701975081875090878081218A67CAC
:10314800017903120B2774021216397805740128C5
:10315800F5D975D903758218758308E8FAE0F5D9A9
:10316800A31AEA70F875E195EE2470F582EF340041
:10317800F583E0F8A3E0F9EE2472F582EF3400F568
:1031880083E8F0A3E9F07901800279000233797FBE
:103198000102176574F6121693EAFEEBFF9061D0F0
:1031A800E0F87480C398FAEE2483F582EF3400F5D2
:1031B80083E06004780480027800E8240BF8EAC30E
:1031C8009850030232727D099008187408F0EE24B2
:1031D800E5F8EF3400F97A197B087C08888289833E
:1031E800E08A828B83F088828983A3A882A9838A54
:1031F800828B83A3AA82AB831CEC70E0EE2483F558
:1032080082EF3400F583E0601D75081875090878A9
:10321800081218A67C097903EEFAEFFB120B277443
:10322800021216397D0D74012DF5D975D9037582F1
:10323800187583088D08E0F5D9A31508E50870F618
:1032480075E1957904120C83EE2470F582EF340051
:10325800F583E0F8A3E0F9EE2472F582EF3400F587
:1032680083E8F0A3E9F079018002790002337974E8
:10327800F6121693EAFEEBFF9061D0E0F87480C373
:1032880098FAEE2483F582EF3400F583E060047841
:103298000480027800E82408F8EAC398500302334F
:1032A800777D06900818740CF09004B6E090081921
:1032B800F07AB77B04781A79087C028A828B83E0DB
:1032C80088828983F08A828B83A3AA82AB838882CF
:1032D8008983A3A882A9831CEC70E07AB97B047C5B
:1032E800028A828B83E088828983F08A828B83A317
:1032F800AA82AB8388828983A3A882A9831CEC70E5
:10330800E0EE2483F582EF3400F583E0601D750854
:103318001875090878081218A67C067903EEFAEFE2
:10332800FB120B2774021216397D0A74012DF5D988
:1033380075D9037582187583088D08E0F5D9A3152A
:1033480008E50870F675E1957904120C83EE24708F
:10335800F582EF3400F583E0F8A3E0F9EE2472F586
:1033680082EF3400F583E8F0A3E9F079018002796F
:10337800007F0202176574F6121693EAFEEBFF90BF
:1033880061D0E0F87480C398FAEE2483F582EF34B4
:1033980000F583E06004780480027800E82404F8EB
:1033A800EAC39850030234587802900818E8F0EEFF
:1033B80024F7F582EF3400F583E0900819F0EE2445
:1033C80083F582EF3400F583E0601B7508187509F2
:1033D8000878081218A67C027903EEFA120B2774F3
:1033E800021216397806740128F5D975D903758241
:1033F800187583088808E0F5D9A31508E50870F65C
:1034080075E195EE2474F582EF3400F583E4F0EE6F
:103418002480F582EF3400F583E4F0EE241DF58274
:10342800EF3400F583E4F0A3F07904120C83EE2462
:103438000DF582EF3400F583E0F8A3E0F9EE24728D
:10344800F582EF3400F583E8F0A3E9F07901800212
:10345800790002337974F61216939061D0E0F8740B
:1034680080C398FCEA2483F582EB3400F583E0609E
:1034780004780480027800E82404F8ECC398405BE0
:1034880079029008187407F0EA24F8F582EB340002
:10349800F583E0900819F0EA2483F582EB3400F50F
:1034A80083E0601875081875090878081218A67C52
:1034B8000209120B2774021216397906740129F5CC
:1034C800D975D903758218758308E9F8E0F5D9A389
:1034D80018E870F875E1957901800279000233796E
:1034E80074F5121693E9FCA2AFE433F50AC2AF7D76
:1034F8000080010DEA246FF582EB3400F583E0F8D3
:10350800EDC398501A8D08EA2508F8EB3400F9E85D
:10351800246BF582E93400F583E06C70D68024EAE8
:10352800246FF8EB3400F9E0FEEA2EFAEB3400FBE6
:10353800EA246BF582EB3400F583ECF0888289830A
:10354800E004F0E50AA2E092AF7F0302176574F683
:10355800121693A2AFE433FDC2AFEA246FF582EBF3
:103568003400F583E014F07C0060368C08EA250806
:10357800F8EB3400F9E8246CF582E93400F583E0CF
:10358800C0E0E8246BF582E93400F583D0E0F00C64
:10359800EA246FF582EB3400F583E0F8ECC3984039
:1035A800CAEA246EF582EB3400F58374FFF0EA244E
:1035B8006AF582EB3400F583E4F0EDA2E092AF0205
:1035C8003379C082C083E5A8F8C2AFEA246BF582DC
:1035D800EB3400F583E9F0EA246AF582EB3400F570
:1035E80083E4F0E8A2E792AF02277A74F312169305
:1035F800EAFEEBFFECFAEDFB8A828B83A3A3A3A37D
:10360800E0541FF0EE2436F582EF3400F583E4F041
:10361800F50AEEFCEFFD8A828B83E0C0E0EC245DC6
:10362800F582ED3400F583D0E0F0750B00E50A3340
:10363800333354F8F50C8A828B83E0F5087509005A
:10364800E50B78081215F1E508A2E0502FEE2436B4
:10365800F8EF3400F988828983E0F508EE2508F54B
:1036680008EF3400F509E5082438F582E509340047
:10367800F583E50CF088828983E004F0050B050CDE
:10368800E50BC3940840AF050A8A828B83A3AA82FC
:10369800AB838C828D83A3AC82AD83E50AC394058A
:1036A800500302361E7F0502176574F712169390B1
:1036B80004C5E0640370077A007B000231977B0041
:1036C80078C5790488828983A3A3A3A3A3A3E06010
:1036D800030239ACEBF875F006A4C8AAF02AF9740D
:1036E800C928F8740439F988828983A3A37401F07E
:1036F80088828983A3A3A3E4F0EB88828983A3A3A8
:10370800A3A3F0E82462F582E93400F5837401F09C
:10371800E82465F582E93400F583E4F0A3F0E824B1
:1037280068F582E93400F5837401F088828983A3FF
:10373800A3A3A3A3E4F0A3F088828983A3A3A3A3EC
:10374800A3A3A3F0A3F0E8240FF582E93400F583DE
:103758007401F0E82435F582E93400F583E4F0904B
:1037680081781214F9E82418F582E93400F58312F7
:103778001505E8241CF582E93400F583E4F0E82413
:103788001DF582E93400F583E4F0A3F0E82480F520
:1037980082E93400F583E4F0E82474F582E9340022
:1037A800F583E4F0E82469F582E93400F583748050
:1037B800F0E8246AF582E93400F583E4F0E8246F40
:1037C800F582E93400F583E4F0E82467F582E9340A
:1037D80000F583E4F0E824EDF582E93400F583E4AC
:1037E800F0E824EEF582E93400F583E4F0E824EF0C
:1037F800F582E93400F583E4F0E824F0F582E93451
:1038080000F583E4F0E824F1F582E93400F583E477
:10381800F0A3F0E824F3F582E93400F583E4F0A39B
:10382800F0E824F6F582E93400F583E4F0E824832F
:10383800F582E93400F583E4F0E824D3F582E9342D
:1038480000F583E4F0E824D4F582E93400F583E454
:10385800F09081781214F9E824D5F582E93400F55E
:10386800831215059081781214F9E824D9F582E9B4
:103878003400F583121505E824DFF582E93400F5F4
:1038880083E4F0E824E1F582E93400F583E4F0E824
:1038980024DDF582E93400F583E4F0E824E2F582DA
:1038A800E93400F583E4F0E824E3F582E93400F52F
:1038B80083E4F0E824F9F582E93400F583E4F0A321
:1038C800F0E824FBF582E93400F583E4F0A3F0E89E
:1038D80024FDF582E93400F583E4F0A3F0E824FF41
:1038E800F582E93400F583E4F0A3F0E8FAE9FBEAAD
:1038F8002404FCEB3400FDEA246BF582EB3400F57C
:103908008374FFF08A828B83A3AA82AB83EC6A70EC
:1039180002ED6B70E2E8FAE9FB7CE27D078C828DB0
:1039280083E0C0E0EA245DF582EB3400F583D0E063
:10393800F08C828D83A3AC82AD838A828B83A3AA09
:1039480082AB83EC64E77003ED640770D0E8FAE9B2
:10395800FB7CAC7D048C828D83A3E0C0E0EA24E587
:10396800F582EB3400F583D0E0F08C828D83A3AC34
:1039780082AD838A828B83A3AA82AB83EC64B47002
:1039880003ED640470CF9004C5E004F06401700D89
:1039980088828983A3A3A3A3E09004C7F0E8FAE987
:1039A800FB0236C30BE82406F8E93401F9EBC394AB
:1039B8000340030236BF0236CCC082C0838A828BA2
:1039C80083A3A3A3E0600F8A828B83A3A3A3E4F05D
:1039D8009004C6E014F09004C5E014F0700690045A
:1039E800C774FFF08A828B83A3A3E4F09007E7E013
:1039F800700D9004C6E0640170057900120C4D0248
:103A0800277AC082C08378C5790488828983A3A372
:103A1800A3A3A3A3A3E4F088828983A3A3A3A3A356
:103A2800A3F0E82406F8E93401F9E864D77003E95B
:103A3800640770D69004C5E4F0A3F0A374FFF07592
:103A4800E1F102277A74F3121693750800750900DC
:103A5800750C00750AC9750B04AE0AAF0B8E828F00
:103A680083A3A3A3E0603FE5084509700AEEF8EFD9
:103A7800F988088909802F850882850983E0F8A3D9
:103A8800E0F5838882A3A31218B98E828F83E0F8A9
:103A9800A3E0F5838882A3A31214F91221A4740465
:103AA800121639E960C7050CEE2406F50AEF340151
:103AB800F50BE50CC3940340A0850882850983A310
:103AC800A3A3A3E0F90236AD74F612169378FF7932
:103AD800FF7508007EC97F04EEFCEFFD8C828D83A4
:103AE800A3A3A3E0606474FF68700374FF69702582
:103AF800EC2474F582ED3400F583E064017011EC78
:103B0800247AF582ED3400F583E0F8A3E0F9803AF1
:103B1800EC242E80EDEC2474F582ED3400F583E07E
:103B280064017014EC247AF582ED3400F583C3E067
:103B380098A3E099501480C7EC242EF582ED340048
:103B4800F583C3E098A3E09940C60508EE2406FE75
:103B5800EF3401FFE508C394035003023AE0C3EAD7
:103B680098EB994004E8FAE9FB02337974F61216E7
:103B780093EAFEEBFF8E828F83A3A3A3E0600F8EF0
:103B8800828F83A3A3A3E4F09004C6E014F090040A
:103B9800C5E014F070069004C774FFF08E828F831E
:103BA800A3A3E4F09007E7E0700D9004C6E0640179
:103BB80070057900120C4DEE2465F582EF3400F59E
:103BC80083E0F8A3E0F9E8496029EE2465F8EF34CA
:103BD80000F9880889098882F583E0FCA3E0FD9054
:103BE80004C7E0FA7B00120803850882850983E48C
:103BF800F0A3F0EEFAEFFB120BA502337974F7127B
:103C08001693EAFEEBFF8E828F83A3A3A3A3E0FAA9
:103C18007B0012084BEEFAEFFB120A9D120B87028B
:103C28003197C082C0837C007AC97B04EAF8EBF93B
:103C380088828983A3A3A3E0601EE8246FF582E944
:103C48003400F583E06011E8246BF582E93400F56F
:103C580083E07004790180110CEA2406FAEB340140
:103C6800FBECC3940340C5790002277AC082C08365
:103C780078AC790488828983A3E4F088828983A355
:103C8800A882A983E864B47003E9640470E6900428
:103C9800AD740102273BC082C08374FC12162390C6
:103CA80081781214F9851882851983121505120A6C
:103CB800E5E9851882851983F0120AE57401121660
:103CC8006FE9F0120AE5740212166FE9F08518829E
:103CD8008519831214F9740402252A74F6121693AE
:103CE800EAFEEBFFEC2403F8ED3400F988088909B3
:103CF800EC2407F8ED3400F9E8FCE9FD8C828D83AB
:103D0800E0F8A3E0F9850882850983E0FAA3E0FBDF
:103D1800121598EE240DF582EF3400F583E8F0A330
:103D2800E9F08C828D83E0F8A3E0F98508828509A3
:103D380083E0FAA3E0FB1215988B09EA45096013A2
:103D4800EE240DF582EF3400F583E02401F0A3E0C2
:103D58003400F002337974F6121693EAFEEBFFEEA4
:103D6800242EF582EF3400F583E0FCA3E0FD780013
:103D780079FAECFAEDFB121598EE2470F582EF341F
:103D880000F583E8F0A3E9F0780079FAECFAEDFBA6
:103D98001215988B09EA45096013EE2470F582EF35
:103DA8003400F583E02401F0A3E03400F002337915
:103DB80074F0121693EAFEEBFF741012166F78086F
:103DC8001214DB120C178A0C8B0D8C0E8D0F908140
:103DD80014780C121441908150780C1214A2780CAB
:103DE8001218A28E828F83E0F8A3E0F5838882A35D
:103DF800A31214F91221A47404121639E9600302FB
:103E08003F058E828F83E02402F8A3E03400F9E8AE
:103E1800FAE9FB8A828B83780812145490815078CF
:103E2800081214DB8A828B8378081214B5EE240BEF
:103E3800F582EF3400F583C082C0838E828F83A31E
:103E4800A3A3A3A3E02401F8A3E03400F9D083D00E
:103E580082E0687003A3E06970057901023F078E6C
:103E6800828F83A3A3A3A3A3A3A3E02401F0A3E0C9
:103E78003400F0EE2474F582EF3400F583E0640139
:103E88007036EE2475F582EF3400F583E0F8A3E090
:103E9800F98E828F83A3A3A3A3A3A3A3E0687003CF
:103EA800A3E0697013EE2475F582EF3400F583E022
:103EB8002401F0A3E03400F0EE2480F582EF340012
:103EC800F583E064017036EE2481F582EF3400F565
:103ED80083E0F8A3E0F98E828F83A3A3A3A3A3A30F
:103EE800A3E0687003A3E0697013EE2481F582EF04
:103EF8003400F583E02401F0A3E03400F079007F7A
:103F08000802176574F71216939004C7E0F875F065
:103F180006A4C8AAF02AF974C928FE740439FF80D7
:103F280028EE2465F8EF3400F988828983E0FCA341
:103F3800E0FD88828983E4F0A3F08E828F83A3A3B7
:103F4800A3A3E0FA7B00120803EE2465F582EF34A0
:103F580000F583E0F8A3E0F9E849604FEE2464F542
:103F680082EF3400F583E0F50878081218AAEE24E9
:103F780063F582EF3400F583E0F9EE2465F582EF0E
:103F88003400F583E0FCA3E0FDEEFAEFFB120AD360
:103F98007401121639E96089EE2465F582EF340060
:103FA800F583E0F8A3E0F9E84970137C007D008E02
:103FB800828F83A3A3A3A3E0FA7B00120803023134
:103FC8009774F2121693EAFEEBFF890A740E121622
:103FD8006FE0FAEE2462F582EF3400F583E06401C5
:103FE80060030240959061D0E0F87480C398F50CA6
:103FF800EE2483F582EF3400F583E06004780480D2
:104008000278008908E928F8E43400F9E82402086D
:1040180008E93400F9E50C98E499A2D265D0334058
:1040280068EA7005750B028003750B01E06039754D
:10403800090078081218A67A187B08120B0974026E
:1040480012163975081875090878081218A6AC0AE6
:10405800A90BEEFAEFFB120B27740212163974043F
:10406800250AF50A7C187D087401250AF5D9850BFF
:10407800D9E50A600D8C828D83F8E0F5D9A318E89C
:1040880070F875E195790080067907800279FF7FDD
:1040980006021765C082C083E960208C828D83E0A8
:1040A8008A828B83F08C828D83A3AC82AD838A82D3
:1040B8008B83A3AA82AB8319E970E0ECFAEDFB02CB
:1040C800277AC082C0837869790888828983A3A304
:1040D800A3A3A3A3E4F088828983A3A3A3A3A374BF
:1040E800FFF0E82418F8E93400F9E864C97003E936
:1040F800640870D690086B74FFF090086AE4F0903A
:104108000869F090086CF0A3F00257F274EC1216EC
:104118009390086CE0F508A3E0F509E508450970F7
:10412800061209E9024DC1850882850983E01460F9
:104138001814601524FE601124C4700302488324F7
:10414800C07003024883024DC1E0F9120B998A0A34
:104158008B0BAE0AAF0B9004C6E070030245011248
:104168000A91E9F875F006A4C8AAF02AF974C928D2
:10417800F50C740439F50D850C82F583E0F50AA376
:10418800E0F50BAC0AFDEEFAEFFB120B93E9F50E26
:104198007402650E70030244C08E828F83E024FE91
:1041A800600A24FE70030243B8024DC1EE65087030
:1041B80003EF65096021120A079007F9E0640170AE
:1041C800169007F8E070107901120CB9120C8912D8
:1041D8000CB37900120CBFE50E6021E5082415F533
:1041E80082E5093400F583E060129007F4E0F8A353
:1041F800E0F9A3E0687003A3E0697026120C178A3F
:104208000C8B0D8C0E8D0F908128780C1214419018
:104218008150780C1214A28E828F83A3A3780C127B
:1042280014EAE5082415F582E5093400F583E0640D
:104238000160030242DE850A82850B83A3A3780C02
:104248001214DB90812C780C121441780C1218A2ED
:104258008E828F83A3A3C082C0839007F6E0F508FF
:10426800A3E085080CF50DE4F50EF50FD083D08298
:10427800780C121441AA0CAB0DAC0EAD0F1221A490
:104288007404121639E9703C8E828F83A3A3C0820E
:10429800C0839007F6E0F508A3E0F509E4F50AF510
:1042A8000BD083D08278081214419081507808127C
:1042B80014A2EE240EF582EF3400F5837808121468
:1042C800EA0243B0850A82850B83A3A378081214F7
:1042D800DB90812C80CFEE240EF582EF3400F5833D
:1042E8001218B98E828F83A3A31214F91221A47411
:1042F80004121639E9640160030243B0850A828515
:104308000B83A3A3780C1214DB90812C780C121465
:1043180041780C1218A28E828F83A3A3C082C08317
:104328009007F6E0F508A3E085080CF50DE4F50E16
:10433800F50FD083D082780C121441AA0CAB0DACC7
:104348000EAD0F1221A47404121639E9701F8E8263
:104358008F83A3A3C082C0839007F6E0F508A3E08B
:10436800F509E4F50AF50BD083D0828010850A821E
:10437800850B83A3A378081214DB90812C7808128C
:10438800144190815078081214A2EE240EF582EFA1
:104398003400F58378081214EA9007FCE06427706B
:1043A8000474258002E004F090086B7402024DB991
:1043B800EE65087003EF65096031900810E0F912A6
:1043C8000A0D850882850983E06402701E9007F94A
:1043D800E0640170169007F8E070107900120CB9CB
:1043E800120C89120CB37901120CBFE50E60129001
:1043F800080AE0F8A3E0F9A3E0687003A3E0697095
:1044080026120C178A0C8B0D8C0E8D0F9081287834
:104418000C121441908150780C1214A28E828F8352
:10442800A3A3780C1214EA850A82850B83A3A378C8
:104438000C1214DB90812C780C121441780C121891
:10444800A28E828F83A3A3C082C08390080CE0F55C
:1044580008A3E085080CF50DE4F50EF50FD083D020
:1044680082780C121441AA0CAB0DAC0EAD0F1221C0
:10447800A47404121639E9701F8E828F83A3A3C017
:1044880082C08390080CE0F508A3E0F509E4F50A7A
:10449800F50BD083D0828010850A82850B83A3A375
:1044A80078081214DB90812C7808121441908150FE
:1044B80078081214A2024DA2850882850983E06457
:1044C8000270139007F9E06401700B9007F8E07030
:1044D800057900120CB9E50C2404FEE50D3400FF43
:1044E8008E828F83E0F9120BCF8E828F83E0900447
:1044F800C7F0AA0AAB0B024DBEEE65087003EF6564
:10450800098E828F8360030246E5E024FE600A2458
:10451800FE7003024640024DBAEE2415F582EF34D0
:1045280000F583E060419007F4E0F8A3E0F9A3E028
:10453800687003A3E069602F120C178A088B098C36
:104548000A8D0B908180780812144178081218A2FD
:104558008E828F83A3A31214F91221A47404121655
:1045680039E96003024DBA120C178A088B098C0AC4
:104578008D0B908128780812144190815078081288
:1045880014A28E828F83A3A378081214EAEE24154E
:10459800F582EF3400F583E0640170348E828F83F6
:1045A800A3A3C082C0839007F6E0F508A3E0F5094D
:1045B800E4F50AF50BD083D0827808121441EE2472
:1045C8000EF582EF3400F58378081214EA024DBA2A
:1045D800EE240EF582EF3400F5831218B98E828F1F
:1045E80083A3A31214F91221A47404121639E964DE
:1045F800016003024DBA8E828F83A3A3C082C08359
:104608009007F6E0F508A3E0F509E4F50AF50BD004
:1046180083D0827808121441EE240EF582EF34001C
:10462800F58378081214EA9007FCE0642770057493
:1046380025024DB9E00480F990080AE0F8A3E0F9F2
:10464800A3E0687003A3E069602C120C178A088B3A
:10465800098C0A8D0B908180780812144178081211
:1046680018A28E828F83A3A31214F91221A47404B2
:10467800121639E97064EE2402F508EF3400F509E2
:10468800120C178A0C8B0D8C0E8D0F908128780CCC
:10469800121441908150780C1214A2850882850961
:1046A80083780C1214EA850882850983C082C08346
:1046B80090080CE0F508A3E0F509E4F50AF50BD03D
:1046C80083D0827808121441EE240EF582EF34006C
:1046D800F58378081214EA120A13024DBAE024FE90
:1046E800600A24FE70030247AB024DC1120A07900C
:1046F80007F9E0640170169007F8E070107901126C
:104708000CB9120C89120CB37900120CBF9007F483
:10471800E0F8A3E0F9A3E0687003A3E069602F1252
:104728000C178A088B098C0A8D0B908180780812E7
:10473800144178081218A28E828F83A3A31214F949
:104748001221A47404121639E960030243B0EE245E
:1047580002F508EF3400F509120C178A0C8B0D8C42
:104768000E8D0F908128780C121441908150780C8E
:104778001214A2850882850983780C1214EA850828
:1047880082850983C082C0839007F6E0F508A3E01C
:10479800F509E4F50AF50BD083D0827808121441A4
:1047A8000242BA900810E0F9120A0D8508828509BC
:1047B80083E06402701E9007F9E0640170169007A8
:1047C800F8E070107900120CB9120C89120CB37948
:1047D80001120CBF90080AE0F8A3E0F9A3E06870A2
:1047E80003A3E069602C120C178A088B098C0A8DC8
:1047F8000B908180780812144178081218A28E82D2
:104808008F83A3A31214F91221A47404121639E990
:104818007066EE2402F8EF3400F988088909120C52
:10482800178A0C8B0D8C0E8D0F908128780C121422
:1048380041908150780C1214A285088285098378EA
:104848000C1214EA850882850983C082C083900807
:104858000CE0F508A3E0F509E4F50AF50BD083D0E0
:10486800827808121441EE240EF582EF3400F583A5
:1048780078081214EA120A13024DB49004C6E070C4
:1048880003024C19120A91E9F875F006A4C8AAF0B7
:104898002AF974C928F510740439F511851082F5C0
:1048A80083E0F508A3E0F5099004C7E0F875F00681
:1048B800A4C8AAF02AF974C928F50C740439F50DAE
:1048C80090086AE054077003024B42A3E0F9120B08
:1048D800998A0A8B0BAE0AAF0BAC08AD09120B9381
:1048E800E9F50E7402650E7003024B42850C828551
:1048F8000D83A3A3A3A3E0F875F08AA4C8AAF02A9D
:10490800F974CE28F50A740839F50BAA0AFB120BBC
:10491800C3AA0AAB0B120BBD75128075130078126F
:104928001218A67C007D60E50A2406FAE50B34011E
:10493800FB120B097402121639A80AA90B9061958B
:10494800E0C0E0E82486F582E93401F583D0E0F0A0
:10495800906196E0C0E0E82487F582E93401F583A8
:10496800D0E0F0906197E0C0E0E82488F582E9346F
:1049780001F583D0E0F0906198E0C0E0E82489F583
:1049880082E93401F583D0E0F08E828F83E024FE43
:10499800600A24FE7003024A7D024B42120A079005
:1049A80007F9E0640170119007F8E0700B120C89A8
:1049B800120CB37900120CBFE50E60129007F4E0F8
:1049C800F8A3E0F9A3E0687003A3E0697026120C6D
:1049D800178A0C8B0D8C0E8D0F908128780C121471
:1049E80041908150780C1214A28E828F83A3A378F1
:1049F8000C1214EA850882850983A3A3780C121483
:104A0800DB90812C780C121441780C1218A28E823B
:104A18008F83A3A3C082C0839007F6E0F50CA3E0C0
:104A2800F50DE4F50EF50FD083D082780C12144101
:104A3800AA0CAB0DAC0EAD0F1221A47404121639DA
:104A4800E9701F8E828F83A3A3C082C0839007F66C
:104A5800E0F508A3E0F509E4F50AF50BD083D08268
:104A68008010850882850983A3A378081214DB9037
:104A7800812C0242AD900810E0F9120A0DE50E6093
:104A88001290080AE0F8A3E0F9A3E0687003A3E035
:104A9800697026120C178A0C8B0D8C0E8D0F908165
:104AA80028780C121441908150780C1214A28E822E
:104AB8008F83A3A3780C1214EA850882850983A33F
:104AC800A3780C1214DB90812C780C121441780C0A
:104AD8001218A28E828F83A3A3C082C08390080C71
:104AE800E0F50CA3E0F50DE4F50EF50FD083D082C8
:104AF800780C121441AA0CAB0DAC0EAD0F1221A408
:104B08007404121639E9701F8E828F83A3A3C082A2
:104B1800C08390080CE0F508A3E0F509E4F50AF570
:104B28000BD083D0828010850882850983A3A3785F
:104B3800081214DB90812C0244B0E510650C700457
:104B4800E511650D7003024C12850C82850D83A357
:104B5800A3A3E07003024BF6850C82850D83A3A303
:104B6800A3A3E0F875F08AA4C8AAF02AF974CE289D
:104B7800FE740839FFEEFAEFFB120BC3EEFAEFFBF7
:104B8800120BBD750A80750B00780A1218A67C00F6
:104B98007D60EE2406FAEF3401FB120B0974021251
:104BA8001639906195E0C0E0EE2486F582EF340175
:104BB800F583D0E0F0906196E0C0E0EE2487F582BE
:104BC800EF3401F583D0E0F0906197E0C0E0EE2487
:104BD80088F582EF3401F583D0E0F0906198E0C069
:104BE800E0EE2489F582EF3401F583D0E0F0E5109A
:104BF8002404FEE5113400FF8E828F83E0F9120B46
:104C0800CF8E828F83E09004C7F0AA08AB09024DCB
:104C1800BE90086AE054077003024DC1A3E0F91280
:104C28000B998A088B09AE08AF098E828F83E0241E
:104C3800FE600A24FE7003024D08024DC1120A07E5
:104C48009007F9E0640170169007F8E07010790198
:104C5800120CB9120C89120CB37900120CBF900710
:104C6800F4E0F8A3E0F9A3E0687003A3E069602C1E
:104C7800120C178A088B098C0A8D0B908180780892
:104C880012144178081218A28E828F83A3A31214DB
:104C9800F91221A47404121639E97061EE2402F5A0
:104CA80008EF3400F509120C178A0C8B0D8C0E8D49
:104CB8000F908128780C121441908150780C1214AE
:104CC800A2850882850983780C1214EA85088285F2
:104CD8000983C082C0839007F6E0F508A3E0F509D0
:104CE800E4F50AF50BD083D0827808121441EE243B
:104CF8000EF582EF3400F58378081214EA0243B007
:104D0800900810E0F9120A0D90080AE0F8A3E0F9FB
:104D1800A3E0687003A3E069602C120C178A088B63
:104D2800098C0A8D0B90818078081214417808123A
:104D380018A28E828F83A3A31214F91221A47404DB
:104D4800121639E97063EE2402F8EF3400F9880886
:104D58008909120C178A0C8B0D8C0E8D0F908128E7
:104D6800780C121441908150780C1214A285088294
:104D7800850983780C1214EA850882850983C08224
:104D8800C08390080CE0F508A3E0F509E4F50AF5FE
:104D98000BD083D0827808121441EE240EF582EFEE
:104DA8003400F58378081214EA120A1390086B7419
:104DB80004F0EEFAEFFB120B8D7F0C02176574F00E
:104DC800121693EAFEEBFFEE2402F8EF3400F9889E
:104DD800088909EE2406F8EF3400F9880A890B8857
:104DE80082F5831218BD8508828509831214F91289
:104DF8000BF37402121639850A82850B831218BDCB
:104E08008508828509831214F9120BE774021216B9
:104E180039EE240EF582EF3400F5831214F9120BE3
:104E2800F98E828F83E06440701CEE2412F8EF3410
:104E380000F988828983E0906064F088828983A37E
:104E4800E09060658006906064E4F0A3F090086CE0
:104E5800EEF0A3EFF0EE2416F582EF3400F583E0D0
:104E6800F8A3E0F5838882121691906054E4F0A3C9
:104E7800F0A3F0A3F0A3F0A3F0A3F0A3F0A3F0A392
:104E8800F0A3F0A3F0906182E0C2E6F07591BFEE66
:104E98002415F582EF3400F583E064017003120CE9
:104EA8002FE5E170FCEE2414F582EF3400F583E081
:104EB800F46003E0F5E1EE2415F582EF3400F583A4
:104EC8007401F090049FE06401706F120C178A0857
:104ED8008B098C0A8D0B78081218A28E828F83A3F7
:104EE800A31214F912220174041216398A088B09C4
:104EF8008C0A8D0B908130780C1214DB7808790CB1
:104F0800121307740378081213F6E50824F4F50859
:104F1800E5093401F509900816E06003121169E407
:104F2800F50AF50B78081218A27A207B00900498ED
:104F3800E0F912121774041216397F080217657403
:104F4800EC121693EAFEEBFF8C088D09EE4F700504
:104F5800790202503C120C178A0C8B0D8C0E8D0FA7
:104F6800908174780C121441908150780C1214A21C
:104F78008E828F83E06402701F9007F4E0F8A3E04C
:104F8800F9A3E0687003A3E06970248E828F83A37D
:104F9800A3780C1214EA8017E06404701290080ACF
:104FA800E0F8A3E0F9A3E0687003A3E06960DC78A7
:104FB8000C1218A2850882850983A3A31214F9127A
:104FC800220174041216398A108B118C128D1390D9
:104FD800813478101212E84003024F588508828500
:104FE8000983A3A378081214DB9081A87808121407
:104FF8004178081218A28E828F83A3A31214F91283
:1050080021A47404121639E96003024F58908138BC
:10501800780C121441780C1218A28E828F83A3A3E5
:105028001214F91221A47404121639E970047900D3
:1050380080027901024DC174F0121693890874FF39
:10504800650860030251CB90086AE05407700302B8
:1050580056977A007869790888828983A3A3A3A3DD
:10506800A3E064047050EA75F018A4F8A9F0746F0E
:1050780028F582740839F583E0640170487A00786D
:1050880069790888828983A3A3A3A3A3E064046041
:105098000302512388828983A3A3A3A3A3A3E06463
:1050A800017078EA75F018A4F8A9F0746E28FA74FB
:1050B8000839FB02569B0AE82418F8E93400F9EA93
:1050C800C3940440937A007869790888828983A315
:1050D800A3A3A3A3E064017057EA75F018A4F8A984
:1050E800F0746F28F582740839F583E06401704F15
:1050F8007A007869790888828983A3A3A3A3A3E0A7
:10510800640160030251A788828983A3A3A3A3A390
:10511800A3E0640160030251A780880AE82418F814
:10512800E93400F9EAC39404500302508B025697FD
:105138000AE82418F8E93400F9EAC39404408C7AA0
:10514800007869790888828983A3A3A3A3A3E0646C
:10515800027061EA75F018A4F8A9F0746F28F58256
:10516800740839F583E0640170597A007869790820
:1051780088828983A3A3A3A3A3E06402707A8882A8
:105188008983A3A3A3A3A3A3E06401706BEA75F0CA
:1051980018A4F8A9F0746E28FA740839FB806F0A0D
:1051A800E82418F8E93400F9EAC3940450030250DB
:1051B800FE0256970AE82418F8E93400F9EAC3947D
:1051C8000440827A007869790888828983A3A3A336
:1051D800A3A3E06508703D88828983A3A3A3A3A342
:1051E800A3E06401702EEA75F018A4F8A9F0746EB3
:1051F80028FE740839FF802F0AE82418F8E93400DB
:10520800F9EAC3940450030251787A007B000256ED
:105218009B0256970AE82418F8E93400F9EAC3947F
:105228000440A67E007F007A007869790888828920
:1052380083A3A3A3A3A3E06508701BEA75F018A4D1
:10524800F8A9F0746F28F582740839F583E06401D1
:1052580070137A0180110AE82418F8E93400F9EA91
:10526800C3940440C87A00E50814600F1470030260
:10527800543424FE700302558E80967B0078697939
:105288000888828983A3A3A3A3A3E064027055EBD3
:1052980075F018A4F8A9F0746F28F582740839F528
:1052A80083E06401704D7B0078697908888289837E
:1052B800A3A3A3A3A3E06402600302536A888289BC
:1052C80083A3A3A3A3A3A3E06401600302536AEB2F
:1052D80075F018A4F8A9F0746E28F50A740839F561
:1052E8000B0253820BE82418F8E93400F9EBC39455
:1052F80004408E7B007869790888828983A3A3A3F8
:10530800A3A3E0640460030253BEEB75F018A4F88D
:10531800A9F0746F28F582740839F583E064016098
:10532800030253D07B007869790888828983A3A314
:10533800A3A3A3E0640460030253DB88828983A3E8
:10534800A3A3A3A3A3E0640160030253DBEB75F0FE
:1053580018A4F8A9F0746E28F50A740839F50B0238
:1053680053F30BE82418F8E93400F9EBC39404501C
:10537800030252B4750A00750B00EAA2E04003026A
:105388005426850A82850B83A3A3780C1214DB901C
:10539800813C780C121441780C1218A28E828F83EB
:1053A800A3A31214F91221A47404121639E9706E19
:1053B800EEFAEF0250BA0BE82418F8E93400F9EBDA
:1053C800C394045003025301EAA2E05058EEFAEFE6
:1053D800FB80560BE82418F8E93400F9EBC3940471
:1053E8005003025332750A00750B00EAA2E0502EF2
:1053F800850A82850B83A3A3780C1214DB90813C69
:10540800780C121441780C1218A28E828F83A3A3F1
:105418001214F91221A47404121639E96092AA0A26
:10542800AB0B02569B7A007B0002569B7B00786987
:10543800790888828983A3A3A3A3A3E06404705294
:10544800EB75F018A4F8A9F0746F28F58274083980
:10545800F583E06401704A7B00786979088882895D
:1054680083A3A3A3A3A3E064046003025502888274
:105478008983A3A3A3A3A3A3E06401707DEB75F0C4
:1054880018A4F8A9F0746E28F50A740839F50B0207
:10549800551A0BE82418F8E93400F9EBC3940440D2
:1054A800917B007869790888828983A3A3A3A3A341
:1054B800E064016003025556EB75F018A4F8A9F0F2
:1054C800746F28F582740839F583E064016003027B
:1054D80055687B007869790888828983A3A3A3A388
:1054E800A3E06401600302557388828983A3A3A3A0
:1054F800A3A3A3E06401707380830BE82418F8E980
:105508003400F9EBC394045003025465750A00751E
:105518000B00EAA2E04003025426850A82850B8329
:10552800A3A3780C1214DB90813C780C12144178F8
:105538000C1218A28E828F83A3A31214F91221A42D
:105548007404121639E960030254260253B80BE8B2
:105558002418F8E93400F9EBC3940450030254AF5B
:10556800EAA2E0501AEEFAEFFB80180BE82418F8CC
:10557800E93400F9EBC3940450030254E0808D7AB7
:10558800007B0002569B7B007869790888828983B2
:10559800A3A3A3A3A3E064017040EB75F018A4F8DB
:1055A800A9F0746F28F582740839F583E0640170F6
:1055B800387B007869790888828983A3A3A3A3A389
:1055C800E06401600302565388828983A3A3A3A3DE
:1055D800A3A3E0640170740254850BE82418F8E969
:1055E8003400F9EBC3940440A37B007869790888F8
:1055F800828983A3A3A3A3A3E064027063EB75F07D
:1056080018A4F8A9F0746F28F582740839F583E0B6
:105618006401705B7B007869790888828983A3A319
:10562800A3A3A3E06402704F88828983A3A3A3A3E2
:10563800A3A3E064017040EB75F018A4F8A9F07416
:105648006E28F50A740839F50B80410BE82418F820
:10565800E93400F9EBC3940450030255BF02551412
:105668000BE82418F8E93400F9EBC394044080EA05
:10567800A2E0501B0253B80BE82418F8E93400F9EB
:10568800EBC394044094750A00750B0002551A7A0E
:10569800007B00024F4274F61216938909750800C0
:1056A8007869790888828983A3A3A3A3A3A3E06068
:1056B8000302577AE50875F018A4F8A9F0746E2863
:1056C800FE740839FF8E828F83A37401F08E828F57
:1056D80083E509F0120C178E828F83A3A312150598
:1056E8008E828F83A3A3A3A3A3A3E4F0A3F0908146
:1056F800B01214F9EE240EF582EF3400F58312157A
:1057080005EE2414F582EF3400F5837401F0EE24DD
:1057180015F582EF3400F5837401F0EE2416F58256
:10572800EF3400F583E4F0A3F090086AE04509F04F
:10573800900869E004F06401600C748065096006F3
:10574800744065097019E50875F018A4F8A9F07493
:105758006E28F8740839F990086CE8F0A3E9F0E5C8
:105768000875F018A4F8A9F0746E28FA740839FBC3
:1057780080180508E82418F8E93400F9E508C39406
:105788000450030256AC7A007B0080007F020217A7
:1057980065C082C0838A828B83E0F8A3E0F98A829D
:1057A8008B83E4F0A3F088828983A3F088828983BD
:1057B800E0F4F890086AE058F0900869E014F07096
:1057C8000B90086CE4F0A3F0900499F0801CC08260
:1057D800C083900869E0600A90086CE0FAA3E0FBD7
:1057E80080047A007B008002E0F9D083D082020135
:1057F80032C082C083E9FB7A007869790888828997
:1058080083A3A3A3A3A3E06B7016EA75F018A4F80A
:10581800A9F0746F28F582740839F583E0F98011CE
:105828000AE82418F8E93400F9EAC3940440CE7968
:105838000080B7C082C0839008690257F074F612DE
:105848001693EAFEEBFF9061D0E0C0E0EE2400F58D
:1058580082EF3401F583D0E0F09061D7E0FA9061EF
:10586800D5E0C39A547FC0E0EE2401F582EF3401FD
:10587800F583D0E0F0EE2402F8EF3401F99061D618
:10588800E0C39A547F88828983F0701A9061C5E0DA
:10589800A2E45012E0A2E7500DEE2402F582EF34A4
:1058A80001F5837480F0120CE3EE2401F582EF34E5
:1058B80001F583E07034EE2402F582EF3401F583BC
:1058C800E070279061C5E0A2E4501FE0A2E7501AFB
:1058D800EE2402F582EF3401F5837480F0EE2401A2
:1058E800F582EF3401F5837480F075E1957800EE68
:1058F8002400F582EF3401F583E060279061D3E05E
:10590800C0E08808EE2508F582EF3400F583D0E082
:10591800F008EE2400F582EF3401F583E0F9E8C3DE
:105928009940D975E19102579474F6121693EAFEDC
:10593800EBFF9061C8E0C0E0EE2403F582EF34018C
:10594800F583D0E0F09061CFE0FA9061CDE0C39AA2
:10595800547FC0E0EE2404F582EF3401F583D0E0F3
:10596800F0EE2405F8EF3401F99061CEE0C39A54C3
:105978007F88828983F0701A9061C5E0A2E0501296
:10598800E0A2E3500DEE2405F582EF3401F58374AF
:1059980080F0120CE9EE2404F582EF3401F583E07F
:1059A8007034EE2405F582EF3401F583E07027901A
:1059B80061C5E0A2E0501FE0A2E3501AEE2405F50D
:1059C80082EF3401F5837480F0EE2404F582EF341D
:1059D80001F5837480F0120CEF7A00EE2403F5824F
:1059E800EF3401F583E0602F9061CBE0C0E08A08D6
:1059F800EE2508F8EF3400F9E82480F582E9340050
:105A0800F583D0E0F00AEE2403F582EF3401F58344
:105A1800E0F8EAC39840D175E18102579474F41212
:105A280016938908A808E875F08AA4C8AAF02AF984
:105A380074CE28FE740839FFEEFAEFFB120BC3EEA2
:105A4800FAEFFB120BBD750A80750B00780A121865
:105A5800A67C007D60EE2406FAEF3401FB120B09E8
:105A68007402121639906195E0C0E0EE2486F58242
:105A7800EF3401F583D0E0F0906196E0C0E0EE24C9
:105A880087F582EF3401F583D0E0F0906197E0C0AC
:105A9800E0EE2488F582EF3401F583D0E0F09061E0
:105AA80098E0C0E0EE2489F582EF3401F583D0E078
:105AB800F07F0402176574F21216938908A808E8A3
:105AC80075F08AA4C8AAF02AF974CE28F87408399F
:105AD800F99061C6E0FDE054F0F075E1817C00E8E2
:105AE8002403F582E93401F583E0602B8C0AE8256C
:105AF8000AFAE93400FBEA2480F582EB3400F583E6
:105B0800E09061CAF00CE82403F582E93401F583DA
:105B1800E0FAECC39A40D5E82405F582E93401F5AA
:105B280083E060049061CEF0E82404F582E9340152
