:020000040000FA
:06000000020107022617B1
:03002B00022A574F
:0300530002268AF8
:03007B00022A1F37
:10008300022483E5C754F84401F5C779012200002F
:100093000080FB120086B900030200F1E479437883
:1000A30008B800028004F709D8FCE4794B7802B859
:1000B30000028004F709D8FCE49002817854790B9C
:1000C3008002F0A3D8FCD9FA7AD47B0C900137785C
:1000D300B479038015E493A3AD82AE838A828B83C4
:1000E300F0A3AA82AB838D828E83D8E9D9E7758288
:1000F3005E7583D074031201197582917583007440
:100103000012011975D00075817F75418175420216
:10011300759F00020096C09FF59FE473D09F22D085
:1001230083D082C09FE493C0E0740193C0E0740263
:1001330093F59F22010D0947656D696E692D424153
:10014300313030051204000A00020A0002010603DE
:1001530002E0FF42413130300000000000000000A7
:1001630000000000000000001A04000026040A0B2F
:10017300310B320B330B340B350B360B0A0A02539C
:100183004A00FF4F4B0000534A0043570043573187
:100193003233343536FF0000B4000028002800282D
:1001A3003075A000A000A000A00000080008E00136
:1001B300F00010001000100010001000100050009C
:1001C3005000500010001000D00700000000000095
:1001D3000F0001000500307507001000010081FFCA
:1001E30000000000FF360654063C06FF0202020828
:1001F300025000A0000000E803021282010000E99F
:10020300810216820100008C0D021A82010000BCDB
:10021300020216820100008D0D021C82010000D231
:10022300020216820100008E0D021E82010000D41C
:10023300020216820100008F0D022082080000D501
:1002430002021682010000900D0222820100009139
:100253000DFF0100FF20021282010000EC81021653
:1002630082010000F50D0224820000000000021844
:10027300820300002203300C300C300C300C300CA5
:10028300300C300C300C300C300C300C300C300C8B
:10029300B20ECA0EAC0E02020202020202020201F6
:1002A3000D0000001001021282010000E38102161A
:1002B30082010000360E0222810100004907021666
:1002C30082010000370E020C820100001581021624
:1002D30082010000380E02F481010000F980021649
:1002E30082010000390E02F681010000B780021678
:1002F300820100003A0E020482010000A58002166A
:10030300820100003B0E022682010000818002165A
:10031300820100003C0E020A820100009380021653
:10032300820100003D0E02088201000007810216CF
:10033300820100003E0E0206820100003F0E0C30D7
:100343000C1002021282010000E6810216820100F3
:1003530000DE0E02FA810300005307021682010039
:1003630000DF0E02FC81030000670702188203000E
:10037300007B07021682010000E00E02FE810300EB
:10038300008107021682010000E10E0200820000D4
:1003930000950702188203000096070216820100E7
:1003A30000E20E0202820400009C0701E803053FFD
:1003B300100AFFFFFF000130750302010600000071
:1003C300000000000000000000000000000000002A
:1003D300000000000000000000FFFF0600800CE8A2
:1003E300033132333435361201225DDA031201222E
:1003F30071DA0312012273DA0312012278DA03128B
:1004030001228C2A00120122B02C00120122B22EEA
:1004130000120122563F00120122734600120122EC
:100423007547001201225D4800120122685500122F
:100433000122AB550012012206CA031201221DCA72
:10044300031201224ECA0312012289CA0312012296
:10045300B3CA03120122DDCA03120122F4CA031232
:1004630001220BCB0312012222CB031201224BCB1D
:10047300031201225ECB0312012274CB0312012269
:1004830087CB03120122AECB03120122D6DD021267
:100493000122DADE0212012212DF0212012235DF0B
:1004A3000212012240DF0212012263DF0212012243
:1004B30072E00212012247E102120122C2E102129A
:1004C30001224AE20212012285E202120122BCE267
:1004D300021201224AE30212012223E40212012240
:1004E30083E4021201228EE4021201220DE50212BC
:1004F300012210E50212012213E502120122A2E5F4
:1005030002120122A5E502120122D5E502120122FF
:10051300FFE502120122EDE6021201229FE7021219
:100523000122009003120122289003120122569007
:10053300031201228D9003120122EB900312012278
:10054300369103120122819103120122C1910312F8
:100553000122079203120122359203120122F29221
:1005630003120122FC9203120122099303120122B6
:100573003C930312012208940312012214940312E0
:1005830001222C940312012236940312012216FF36
:100593000212012224FF021201223CFF0212012255
:1005A30054FF02120122008002120122AC800212C7
:1005B300012227810212012248820212012284822F
:1005C300021201222D83021201221484021201223B
:1005D300788502120122CF8502120122508602126F
:1005E30001224087021201228D8702120122138801
:1005F30002120122458802120122598A02120122A3
:100603009B8A02120122B98A021201223C8B021236
:100613000122108C02120122D88C02120122F3F75C
:1006230002120122C6F8021201226FF902120122FC
:10063300C2F90212012272FA02120122FEFA021216
:100643000122EAFB0212012219FC021201222CFDF3
:100653000212012274FD0212012249FE021201223A
:1006630085FE02120122A1FE0212012216D80312F4
:10067300012280AE0312012296AE03120122BCAE08
:1006830003120122D8AF03120122E2AF03120122A7
:1006930017B1031201220FB203120122D98A0312E6
:1006A3000122098C031201223C8C03120122868C45
:1006B300031201224D8E03120122D8E701120122F7
:1006C30042E801120122A1E901120122B1E901125A
:1006D3000122DEE90112012235EA01120122DEEADA
:1006E30001120122E5EB01120122AFEC01120122FA
:1006F3000FEE0112012252EE01120122F7EE011256
:10070300012244EF011201226AEF0112012278F162
:10071300011201227DF10112012282F30112012251
:10072300CFF30112012242F40112012275F40112E6
:10073300012217F501120122C0F501120122F8F579
:1007430001120122FBF50112012243F601120122DB
:1007530083F601120122DAF6011201227DBB031294
:10076300012295BB03120122DDBB03120122F3BB5D
:10077300031201223ABC031201224EBD03120122CD
:10078300DBBD0312012226BE0312012230570012E1
:1007930001223C5700120122775700120122BC5755
:1007A300001201227C580012012202590012012278
:1007B300675900120122935900120122CC590012E9
:1007C30001220A5C00120122EE5D00120122D45FB5
:1007D3000012012217610012012265630012012237
:1007E300776400120122C26500120122D266001250
:1007F3000122EF66001201222A67001201224C67D0
:1008030000120122AF6700120122706C0012012254
:10081300056D00120122566D001201227D6D00123A
:100823000122CF6D00120122ED6D00120122476EED
:1008330000120122306F00120122A6700012012261
:100843002A71001201227B8503120122858503127E
:100853000122C88503120122E38503120122738654
:10086300031201229B8603120122D886031201225E
:100873000F8703120122388703120122AD87031267
:100883000122C28703120122D7870312012208889B
:10089300031201221C880312012241880312012240
:1008A3007B8803120122A78803120122DF88031227
:1008B30001223E8903120122BD8903120122E88924
:1008C30003120122138A031201225C8A03120122FA
:1008D300868A03120122B18A03120122E2D2031291
:1008E3000122D5C50212012203C60212012251C7F9
:1008F3000212012231C80212012250C8021201223F
:10090300CDC80212012210C90212012266CA0212C4
:10091300012227CB02120122AECD021201224FCEB9
:100923000212012245CF0212012242D002120122F9
:100933009CD10212012227D20212012203CF0312F9
:1009430001226CCF03120122C0CF03120122E7CF91
:100953000312012218D003120122C19D03120122A6
:100963002E9E03120122759E031201228D9F0312F4
:10097300012289A0031201226CA10312012210E8B3
:100983000212012252E80212012224E90212012278
:10099300FDE902120122F7EA02120122D9EB021247
:1009A300012242EC02120122F8EC021201226CED48
:1009B30002120122D8ED0212012201EE02120122DB
:1009C3007BEE0212012214EF0212012279EF0212CE
:1009D30001228EEF02120122D4EF02120122EDEF67
:1009E3000212012252F00212012255F002120122D8
:1009F30084B803120122ACB803120122EAB803122D
:100A03000122A8B9031201220FBA031201222BBA41
:100A13000312012253BA0312012283BA03120122E1
:100A230092BA031201220FBB0312012235BB031238
:100A3300012253D70112012231D90112012263DBB2
:100A4300011201229FDB01120122CCDB01120122E0
:100A5300B6DC0112012201DD011201224CDD01127B
:100A630001225EDD011201229EDD01120122D3DD8E
:100A73000112012221DE0112012250DE01120122A4
:100A830073DE01120122C0DE0112012245DF0112D1
:100A930001225FE1011201229EE301120122DFE341
:100AA3000112012281E501120122C2E50112012294
:100AB30035E60112012286E60112012261E70112E5
:100AC30001228BE701120122B6E701120122C0B80D
:100AD30002120122BEB90212012257C002120122E0
:100AE30078C20212012243C402120122ABC50212D0
:100AF30001222E8201120122DD82011201222383AF
:100B03000112012259840112012287840112012258
:100B13001D8601120122978601120122B28601125B
:100B230001222D8701120122878801120122E78900
:100B330001120122ED8A011201224E8C01120122BF
:100B4300678C01120122C58C01120122B38D01129F
:100B53000122E68D01120122568E01120122D08E4E
:100B6300011201221A8F01120122E48F01120122C4
:100B7300B9900112012298910112012223920112CC
:100B83000122919201120122059301120122309355
:100B930001120122EF930112012254950112012245
:100BA3007195011201229095011201228196011281
:100BB3000122A69601120122D096011201224B971F
:100BC30001120122A597011201220E99011201229D
:100BD300BC9901120122FD9901120122209D0212EA
:100BE30001226E9D021201227A9D02120122589E59
:100BF30002120122899E02120122BA9E02120122CE
:100C03003A9F02120122729F02120122C49F021212
:100C1300012201A0021201221EA20212012244A4F7
:100C2300021201222FA60212012219A80212012286
:100C3300FD7F001201223CAF011201226CAF0112B1
:100C4300012245B601120122CAB701120122C7BD12
:100C530001120122AFBE01120122ECBE01120122D8
:100C63000FBF0112012240BF0112012249BF01122D
:100C7300012253BF0112012241C00112012237C1D7
:100C8300011201222D9A011201222C9E011201222E
:100C9300329E011201226DA50112012286AA0112C0
:100CA300012219B20312012213B30312012287B3E3
:100CB30003120122C5B30312012239B40312012224
:100CC300B2B403120122BBB403120122C7B403124C
:100CD3000122DCB4031201221AB50312012230B53A
:100CE300031201222EA2031201223BA203120122AC
:100CF30055A20312012294A203120122D2A20312CB
:100D0300012237A3031201224CA30312012257A38A
:100D13000312012264A3031201227BA30312012203
:100D230089A30312012294A303120122A0A3031295
:100D33000122AFA303120122BAA303120122DDA3EE
:100D43000312012284A40312012294A40312012298
:100D5300AEA403120122CBA403120122E7A40312BF
:100D630001220CA50312012217A5031201222CA5AF
:100D73000312012240A503120122A1A5031201229D
:100D8300A7A503120122ADA503120122B3A50312E5
:100D93000122CBA503120122FEA503120122F68E26
:100DA300021201227A8F02120122299002120122D9
:100DB300889102120122A993021201229594021230
:100DC3000122CA9402120122EC94021201229B9581
:100DD30002120122939702120122BC9702120122EE
:100DE3004E98021201228098021201228D9802125B
:100DF3000122E498021201220A9902120122779B2E
:100E0300021201227A9C02120122D29C02120122B6
:100E13009171001201229B7200120122827300124F
:100E230001228C7300120122AE7300120122BA73E5
:100E33000012012253750012012282750012012251
:100E43009E7600120122F776001201225D780012CD
:100E530001223C7900120122987900120122057ABD
:100E630000120122407A001201227F7A001201222D
:100E7300387D00120122527D00120122DE7D001214
:100E83000122EC7D00120122457E00120122537ED5
:100E930000120122C67E001201222A7F00120122C3
:100EA300747F00120122A8D202120122CAD20212B6
:100EB3000122F0D40212012205D8021201221DD907
:100EC30002120122D0D902120122B2DA0212012245
:100ED300C0CB03120122E5CB0312012257CC03122C
:100EE300012279F00212012282F0021201228BF018
:100EF3000212012262F10212012213F302120122F1
:100F030049F30212012283F302120122B9F30212FE
:100F13000122F3F30212012227F40212012253F4F5
:100F2300021201229CF402120122D6F402120122BF
:100F33001FF50212012277F502120122ACF502120B
:100F4300012207F60212012241F60212012292F651
:100F530002120122C8F60212012202F70212012232
:100F630030F70212012253F7021201226BD7031248
:100F7300012297D703120122F2D703120122FCD7D1
:100F8300031201220CD80312012250BE03120122C4
:100F930075BE031201229FBE03120122BD940312E8
:100FA30001220295031201221F95031201222896A2
:100FB300031201229C960312012289970312012234
:100FC30018990312012260B503120122B3B503126B
:100FD3000122D4B503120122DAB503120122E0B5CE
:100FE300031201220DB60312012232B603120122AB
:100FF30049B6031201225EB603120122B2B60312EE
:1010030001222BB7031201224BB70312012216DA76
:10101300031201224FC301120122B1C501120122A1
:1010230068C70112012265C801120122F5C8011225
:1010330001227CC901120122A1C901120122E2CCC1
:101043000112012258CD0112012247CE01120122C1
:1010530081CE01120122C1CE0112012267D00112F9
:101063000122BCD00112012209D10112012277D140
:10107300011201229DD101120122B7D101120122D5
:10108300CDD201120122DDD201120122EED30112CF
:10109300012203D40112012239D401120122BAD54B
:1010A30001120122F9D5011201221ED701120122D8
:1010B300C8D60312012260D703120122CDD903122D
:1010C30001220CDA03120122F9DA031201229AD85F
:1010D30003120122AAD803120122B9D80312012252
:1010E30002D903120122FBD3031201227FD403127C
:1010F3000122E5D403120122519903120122889996
:1011030003120122A99903120122199A031201223F
:10111300859A03120122DC9B03120122ACD1031234
:101123000122D4D10312012248D20312012298D200
:10113300031201220ADB031201221CC10312012242
:1011430060C10312012276C10312012291C103126D
:101153000122ACC103120122F7C10312012246C2CC
:101163000312012286C20312012268C30312012261
:10117300BBDA03120122CEDA03120122D2DA0312FE
:101183000122D9DA031201226FD90312012275D980
:1011930003120122C3D903120122F5D5031201223E
:1011A3001ED60312012247D6031201225FD6031271
:1011B3000122A1D6031201220080031201220A8018
:1011C300031201224A800312012293800312012297
:1011D300CD800312012223810312012242810312D3
:1011E30001224B81031201229C8103120122C5813A
:1011F30003120122CF810312012240820312012232
:10120300CE8203120122238303120122518303128C
:101213000122CD83031201221084031201224D8483
:10122300031201225F84031201227E84031201222E
:101233008784031201224F85031201229DFF0112AD
:10124300012265CD03120122B6CD031201223FCE46
:1012530003120122A5CE03120122B2C303120122FB
:10126300DCC303120122A5C40312012280C50312A9
:101273000122FED40312012204C8031201223AC838
:101283000312012273C803120122CCC903120122E3
:1012930005D9031201221BD90312012225D90312F6
:1012A3000122C7F70112012284F801120122BFF8BB
:1012B30001120122E7F80112012249F90112012268
:1012C30095F90112012200FA011201227CFA01129E
:1012D300012278FB01120122FFFC0112012282FD8F
:1012E30001120122E6FD01120122FDFD011201227C
:1012F300F3FE011201223FFF011201227BA603121A
:10130300012290A60312012243A70312012283A7FD
:10131300031201229CA703120122CFA70312012269
:101323001CA80312012250A80312012292A803123F
:101333000122F4AA0212012251AE02120122D9AFF4
:101343000212012230B0021201224FB00212012216
:10135300CDB0021201225DB20212012241B3021288
:1013630001224DB7021201221DB80212012288AADE
:1013730003120122D3AA03120122FFAA031201229C
:1013830098AB03120122BEAB0312012246AC031237
:101393000122A8AC0312012294AD03120122DEAD97
:1013A30003120122F2C50312012201C60312012214
:1013B3002CC60312012232C60312012238C60312BD
:1013C300012253C6031201225AC60312012261C627
:1013D3000312012265C603120122F4C6031201227D
:1013E30043C703120122EDFF02120122F6FF02128C
:1013F30001228FDA03120122DBDA03E066701008A0
:10140300A3E066700A08A3E066700408A3E06622FE
:10141300C3E7960809E7960809E7960809E79622BD
:10142300C3E09608A3E09608A3E09608A3E09622FB
:10143300C021C3E096F52108A3E096422108A3E06A
:1014430096422108A3E09645217001D3D02122E9D9
:10145300799EC608CAC608CBC608CCC6C370207915
:1014630096CACBCC7019798ECBCC70137986CC709D
:101473000EF9802ACA33CACB33CBCC33CC331930E1
:10148300E7F2CCCBCA3350147004EA30E00DE4CA5F
:101493003ACACB3BCBCC3CCC500209C3E913C6CCF4
:1014A300182313C6CB18C6CA18C6F9221214EF2084
:1014B300F01430E72B74FFFCFBFA747F8022E4FC0A
:1014C300FBFA7480801AB48008BC00F2BB00EF8082
:1014D3000F50EBF9E4C39AFAE49BFBE49CFCE49918
:1014E300C6CC18C6CB18C6CA18C6F922E4C9C608A2
:1014F300CAC608CBC6D3330308CCC63392F0C39411
:101503007F402E94184019C9B90704CACBCC225086
:1015130025C309CA33CACB33CBCC33CC33D9F4225A
:10152300F4600DC9CCC313CB13CBCA13CAD9F6CC01
:1015330022E4FCFBFA2214FCFBFA22E626184618E6
:1015430046184622E727194719471947221818183A
:10155300E60846087009E626087005E633F4220813
:1015630022191919E70947097009E727097005E7DF
:1015730033F4220922E6084608C3134608336002FF
:10158300E633F422E7094709C3134709336002E747
:1015930033F4221215786025121587602012153E48
:1015A3007003021547080808E76670101819E76604
:1015B300700A1819E76670041819E76622F42212F4
:1015C3001578601C121587601712153E70071215E7
:1015D300477001D322C0D01215477006D0D0B32272
:1015E300C32233D0D0501430E0F6C3E7960809E79E
:1015F300960809E7960809E796B32220E0D5E6970F
:101603000809E6970809E6970809E697B322121531
:1016130078601B121587601612153E700712154766
:10162300600CB322C0D01215477005D0D022C3225C
:1016330033D0D0501330E0EBC3E7960809E79608A0
:1016430009E7960809E7962220E0E4E6970809E609
:10165300970809E6970809E697221215876046124C
:101663001578603DE9687008F618F618F618F62242
:10167300748067F7121691090909748067F72212BB
:101683001578601D1215877005191919801A12151E
:1016930050701F121564C37003E66733191919409C
:1016A300071818182208080874FFF618F618F61811
:1016B300F6221215646017121547702192F0121565
:1016C3003E7019501720F014080808090909E7F6B5
:1016D3001819E7F61819E7F61819E7F62212153E56
:1016E30060E6E869701F0808E62480F608E436F629
:1016F30018547FB47F0CE654806007F6E418F6189C
:10170300F622181822E9C6CC08C6CD08C6CE08C6EC
:10171300CFC0E0E8C0E0EAC0E0EBC0E009E9F809C7
:10172300E7FA09E7FBE6F918E6F8C3EC98ED99EE5A
:101733009AEBC2E7F5F0EFC2E795F0500E600CEBC1
:10174300CFFBEACEFAE9CDF9E8CCF8EAA2E7D2E793
:10175300FAEB33FB13F5F0EEA2E7D2E7FEEF33FF2C
:10176300C5F013A2E730E601B313C5F0C3C0E0C070
:10177300F07F00C39BFB605E9418600F401D1460F4
:101783001AD0E023F9D0E0F80218638AF0E9486040
:1017930003D2F0E4AFF0FAF9F8803BEB30E40D89C3
:1017A300F0EA6003D2F0E4AFF0F9CAF8EB30E30DEE
:1017B30088F0EF6002D2F0AFF0E4CAC9F8EB540747
:1017C3006014FBC3EA13FAE913F9E813F8EF1350B3
:1017D30002D2E0FFDBEDD0E0C0E030E739C3E49FA5
:1017E300FFF5F0EC98FC42F0ED99FD42F0EE9AFE25
:1017F30042F0D0E0F9D0E0F8E5F0607AE923F9EEC1
:1018030020E742D8028067C3EF33FFEC33FCED33AC
:10181300FDEE33FE80EAEC28FCED39FDEE3AFED016
:10182300E023F9D0E0F84002801BC3EE13FEED1372
:10183300FDEC13FCEF135002D2E0FF08B800067F63
:101843007F74FF802EEF3350178CF020F00260106E
:101853000CBC000C0DBD00080EBE000408E860DFE0
:10186300E933E813FFEE2313FE4F4D4C8008E95490
:1018730080FFE4FEFDFCEE33EF33F47004FCFD7EE9
:1018830080D0E0FBD0E0FAD0E0F8D0E0CFC618CEAD
:10189300C618CDC618CCC6F922080808EAC0E0EB82
:1018A300C0E086F0E7A4FA180986F0E7A42AFA183C
:1018B3000986F0E7A42AFA180986F0E7A42AFA1998
:1018C30086F0E7A4FBE5F02AFA190886F0E7A42BD3
:1018D300FBE5F03AFA190886F0E7A42BFBE5F03AAA
:1018E300FA18180986F0E7A4C5F02BFBE43AFA19B5
:1018F30008E7C5F0C6A426F6E5F03BFBE43AFA1880
:1019030086F0E7A4F6E5F00826F6E43B08F6E43AA9
:1019130008F6D0E0FBD0E0FA226016080808C6C338
:1019230013C618C613C618C613C618C613C6D5E001
:10193300EA227009080808226016181818C6C3336B
:10194300C608C633C608C633C608C633C6D5E0EADA
:1019530022E627F60809E637F60809E637F6080906
:10196300E637F622E026F608A3E036F608A3E036CB
:10197300F608A3E036F622E026F008A3E036F008E6
:10198300A3E036F008A3E036F022C3E697F6080991
:10199300E697F60809E697F60809E697F622C3E004
:1019A30096F008A3E096F008A3E096F008A3E0966B
:1019B300F022E657F60809E657F60809E657F6084F
:1019C30009E657F622E056F608A3E056F608A3E028
:1019D30056F608A3E056F622E056F008A3E056F0C8
:1019E30008A3E056F008A3E056F022E0F608A3E0CF
:1019F300F608A3E0F608A3E0F622E6F008A3E6F073
:101A030008A3E6F008A3E6F022E0FAA3E0FBA3E0D4
:101A1300FCA3E0FD22EAF0A3EBF0A3ECF0A3EDF0CE
:101A230022E0F8A3E0F9A3E0FAA3E0FB22E8F0A3A5
:101A3300E9F0A3EAF0A3EBF022CAC0E0E6F0A308C2
:101A4300DAFAD0E0FA22CAC0E0E0A3C582CCC582AC
:101A5300C583CDC583F0A3C582CCC582C583CDC55F
:101A630083DAE6D0E0CA22C3E498F8E499F9121ABB
:101A7300AB8026C3E49AFAE49BFBE920E7E9121A58
:101A8300ABE498F8E499F922C3E498F8E499F912DD
:101A93001AABE498F8E499F9C3E49AFAE49BFB22BD
:101AA300EB20E7CFE920E7E0B90010BB0008E88AA4
:101AB300F084F8AAF022E4FBC8FA22EB70227B1030
:101AC300C833C8C933C9335007C39AC3DBF280068E
:101AD3009A50012ADBEAC833F4C8C933F4C9FA229D
:101AE30075F008E4C833C8C933C933C99AC99B50D0
:101AF30004C92AC93BD5F0ECFBC833F4C8E4C9FADE
:101B030022600D08C6A2E713C618C613C6D5E0F3B4
:101B130022600C08C6C313C618C613C6D5E0F42248
:101B2300700422600D18C6C333C608C633C6D5E099
:101B3300F41822254110AF08F541400C15428008E6
:101B4300F54140021542D2AF2200C0D0254110AF6B
:101B530008F541500C05428008F54150020542D278
:101B6300AFD0D0222541F58210AF08F541400C15C6
:101B7300428008F54140021542D2AF8542832225B7
:101B830041F582E43542F583222541F8E43542F9F3
:101B9300222541FAE43542FB222541FCE43542FD8E
:101BA30022E4732541C582C0E0E54234FFC583C00A
:101BB300E0E541C3958224F810AF0885834285820E
:101BC300418008858342858241D2AFCEF0A3E520D0
:101BD300F0A37821E608F0A3DEFAEFF0A3E5812471
:101BE300FAF8E608F0A3E608F0A3E608F0A308086D
:101BF300E608F0A3E608F0A315811581D0E0FED036
:101C0300E0F8158115811581E8C0E0EEC0E02225DA
:101C130041C582C0E0E54234FFC583C0E0E541C36E
:101C2300958224F910AF0885834285824180088517
:101C33008342858241D2AFCEF0A3E520F0A3782181
:101C4300E608F0A3DEFAEFF0A3E58124FBF8E6084B
:101C5300F0A3E608F0A30808E608F0A3E608F0A35B
:101C630015811581D0E0FED0E0F815811581E8C01B
:101C7300E0EEC0E022854283854182E0A3FEE0A33B
:101C8300F5207821E0A3F608DFFAE0A3FFE0A3C084
:101C9300E0E0A3C0E0E0A3C0E0E0A3C0E0E0A3C0B5
:101CA300E010AF08858241858342800885824185A3
:101CB3008342D2AFD083D08202011F854283854104
:101CC30082E0A3FEE0A3F5207821E0A3F608DFFA83
:101CD300E0A3FFE0A3C0E0E0A3C0E0E0A3C0E0E036
:101CE300A3C0E010AF0885824185834280088582C6
:101CF30041858342D2AFD083D08222C0D02541C553
:101D030082C0E0E54234FFC583C0E0E541C395826C
:101D130024F310AF0885834285824180088583427E
:101D2300858241D2AFC8F0A3E9F0A3EAF0A3EBF0B8
:101D3300A37921E709F0A3D8FAECF0A3EDF0A3EE21
:101D4300F0A3EFF0A3D0E0F0A3D0E0F0A3D0E0F055
:101D5300A3E520F0A3E5F0F0A32285428385418229
:101D6300E0C0E0A3E0F9A3E0FAA3E0FBA37821E05D
:101D7300F608A3DFFAE0FCA3E0FDA3E0FEA3E0FF87
:101D8300A3E0C0E0A3E0C0E0A3E0F5D0A3E0F5202A
:101D9300A3E0A3F5F010AF08858342858241800854
:101DA300858342858241D2AFD082D083D0E0F8D000
:101DB300E03274048006740280027401C0E0F4040B
:101DC300121B67D0E0121A3C227404800474028050
:101DD30000CCC0E0EDC0E0E541C39CCCAD42500176
:101DE3001D10AF068C418D4280068C418D42D2AFCF
:101DF300121A49D0E0FDD0E0FC22D083D082E9C0A2
:101E0300E0E493A3C386F0C5F095F0F908E493A347
:101E130086F0C5F095F0700BE493A3C3994005E9F0
:101E2300048002A3E475F002A42582F582E5F0356F
:101E330083F583D0E0F9E493A3C0E0E493C0E02208
:101E4300D083D082ECC0E0EDC0E0E493A3FCE49344
:101E5300A3FDED4C600D121E8FEC24FFFCED34FF4F
:101E6300FD80EFE493A3FCE493A3FDED4C600D121E
:101E73001ECEEC24FFFCED34FFFD80EFD0E0FDD05F
:101E8300E0FCE493A3C0E0E493C0E022C0E0C3E439
:101E93009396087401939618400FE49366700808AC
:101EA300740193661870007019A3A3C3E493960892
:101EB3007401939618A3A3400DD0E0D0E0D0E002C4
:101EC3001E7FA3A3A3A3A3A3D0E022C0E0C0F088F6
:101ED300F0E4936670080874019366187000A8F024
:101EE300A3A3700BD0F0D0E0D0E0D0E0021E7FA31C
:061EF300A3D0F0D0E022B4
:101EFC0074F5121C12EAFEEBFFEE2434F8EF3400FA
:101F0C00F988218922EE2435F582EF3400F583E03F
:101F1C00F8EE2437F582EF3400F583E0F523EC85F9
:101F2C0023F0A4FCAAF08523F0EDA42AFDE82CF8FC
:101F3C00E43DF97A257B00121AABEA8521828522D1
:101F4C0083F0F8740758F97401B900028004C333A4
:101F5C00D9FCFAE8131313541FF8EE28F8EF3400E9
:101F6C00F9E8245DF582E93400F583E05A6008EE67
:101F7C002434F582EF802CEE2434F582EF3400F516
:101F8C0083E0C0E0EE2436F582EF3400F583E0F513
:101F9C00F0D0E084A8F0EE28F8EF3400F9E824380B
:101FAC00F582E93400F583E0F97F04021CBE74F578
:101FBC00121C12EAFEEBFFEE2434F582EF3400F52E
:101FCC0083E0C0E0EE2435F582EF3400F583D0E0F9
:101FDC00F08E828F83A3A3A3A3A3A3A3C082C083E9
:101FEC008E828F83A3A3A3A3A3E0F8A3E0F9D083ED
:101FFC00D082E0C398F521A3E099F522EE247FF579
:10200C0082EF3400F583E064017069EE2480F58280
:10201C00EF3400F583E0F8A3E0F98E828F83A3A35D
:10202C00A3A3A3A3A3E0FCA3E0FD8E828F83A3A3B1
:10203C00A3A3A3E0FAA3E0FBC3EA9CEB9D5010C35F
:10204C00EC98ED99402EC3EA98EB995027800EC37B
:10205C00EA98EB994007C3EC98ED9940177CE57D25
:10206C0004EEFAEFFB120B8EEE247FF582EF3400B8
:10207C00F583E4F0EE2434F8EF3400F9E8FCE9FDE4
:10208C00EE2435F582EF3400F583E0F8EE2437F5D5
:10209C0082EF3400F583E0F523E5218523F0A4F5E8
:1020AC0021AAF08523F0E522A42AF522E82521F8BF
:1020BC00E43522F97A257B00121AABEA8C828D83E7
:1020CC00F0F8740758F97401B900028004C333D9CD
:1020DC00FCFAE8131313541FF8EE28F8EF3400F948
:1020EC00E8245DF582E93400F583E05A6008EE24BB
:1020FC0034F582EF802CEE2434F582EF3400F58336
:10210C00E0C0E0EE2436F582EF3400F583E0F5F024
:10211C00D0E084A8F0EE28F8EF3400F9E82438F584
:10212C0082E93400F583E0F9122A11021FB5C0824E
:10213C00C083854182854283E0F8A3E0F9C3EA9C21
:10214C00EB9D5010C3EC98ED99401BC3EA98EB99AA
:10215C005014800EC3EA98EB994007C3EC98ED99A4
:10216C004004790180027900D083D08222EAC39C9A
:10217C00FAEB9DFB2274EF121C129003ABE0640887
:10218C006005E06407702A9061C8E060249003D970
:10219C00E0F4601DE0F875F003A4C8AAF02AF97405
:1021AC00DB28FE740339FF8E828F83A3A3A3E07018
:1021BC00030222B1906060E0C0E0EE2468F582EF8B
:1021CC003400F583D0E0F075254E75260575210099
:1021DC00752200E5D914F523E5D95403F5276017CA
:1021EC0074036527605CE5236010EE2467F582EFCD
:1021FC003400F583E07003022296900549E06401F7
:10220C00602AEE2482F582EF3400F583E0600478D6
:10221C000480027800852321E521C398FA95E0FB20
:10222C00120A448A218B22EA45227005120D808005
:10223C0074EE2482F582EF3400F583E070048A2575
:10224C008B26E5236012852582852683F524E5D926
:10225C00F0A31524E52470F6EE2482F582EF340009
:10226C00F583E0604474FC2523F5237825121DB911
:10227C00AC23A927EEFAEFFB120C2A7402121B4CAA
:10228C00E97026AA21AB22121248793D8E828F83E7
:10229C00A3A3A3A3E0FA7B00120918EEFAEFFB123A
:1022AC000BA6120C3C79008074740365276056856C
:1022BC002329752A007829121DB9AC25AD26AA212F
:1022CC00AB22120C067402121B4CEE2468F582EF42
:1022DC003400F583E064807004747F8001E0F525A0
:1022EC007825121DBDE527F5257825121DBDA923DE
:1022FC00AC21AD229003D9E0FA7B001208DC740209
:10230C00121B4C80139003ABE06408600BAC25AD42
:10231C0026EEFAEFFB120C96120D8C79017F0A0255
:10232C001CBE74F5121C1274FC121B36EAFEEBFF79
:10233C008921A2AFE433F522C2AF806AEE2463F8A0
:10234C00EF3400F97A007B00A2AFE433F523C2AF7F
:10235C0088828983E0FCA3E0FDEC4D603A88828999
:10236C0083E0FAA3E0FB8A828B83E0FCA3E0FD8888
:10237C00828983ECF0A3EDF08A828B83E4F0A3F0E6
:10238C0088828983E0FCA3E0FDEC4D700A88828989
:10239C0083A3A3E4F0A3F0E523A2E092AF121248CA
:1023AC009004ECE004F0EE2463F582EF3400F58346
:1023BC00E0F8A3E0F9E849603DEE2463F582EF34E0
:1023CC0000F583E02402FAA3E03400FBEA2402F5D2
:1023DC0023EB3400F5247823121DB98A828B83E019
:1023EC00FCA3E0F9EEFAEFFB120BCA7402121B4CC1
:1023FC00E970030223489004ECE060639004EDE084
:10240C00F89004ECE0C398500C7402652170509065
:10241C0004EEE0604A8E828F83A3A3A3A3E08541E0
:10242C0082854283F0A3E4F09004ECE0F87402128D
:10243C001B82E8F0A3E4F09004ECE0F89004EBE0ED
:10244C0028F07402121B82AC82AD838541828542D6
:10245C0083AA82AB8379011208E89004ECE4F0E5DE
:10246C0022A2E092AF7404121B4C021FB5000000B4
:10247C008543878544C622C0E0C0D0E8C0E0E9C0EF
:10248C00E0EAC0E0EBC0E0ECC0E0EDC0E0EEC0E0A4
:10249C00C021C022C023C024C082C083C0F0A2AF20
:1024AC00E433FEC2AF759B00906182E0A2E0501253
:1024BC00E591A2E0500C7591FE7401654370031216
:1024CC002181E0A2E55051E591A2E5504B7591DFD9
:1024DC009003ABE064076005E06408702374016549
:1024EC0043703579019003D9E0FA75F003A4CAA8BA
:1024FC00F028FB74DB2AFA74033BFB12232E8018A2
:10250C00E0640D70139003CDE004F064287002E4D5
:10251C00F07A00E0F9120D92906182E0A2E640039D
:10252C000225CAE591A2E640030225CA7591BF9027
:10253C0003ABE064057008120CC0120CCC800312C3
:10254C000CC6754300120D20E99003ACF079001213
:10255C000D14120AFE7A017B009003AAE0F9121204
:10256C0012907803E06442705590054DE014F070C1
:10257C004DC2AF12258200784CD0E0F618D0E0F6B0
:10258C00E59F540770057522FF800375227FC4C038
:10259C00E0784BE6F52108E65522F522740B7821FC
:1025AC00121B14D0E02521F8906270E0A2E740F8ED
:1025BC00E8C333906272F0906270E0D2E0F0906108
:1025CC0081E0A2E35009E5E9A2E3500375E9F7A322
:1025DC00E0A2E75009E591A2E7500375917FEEA2C6
:1025EC00E092AFD0F0D083D082D024D023D022D0B0
:1025FC0021D0E0FED0E0FDD0E0FCD0E0FBD0E0FA52
:10260C00D0E0F9D0E0F8D0D0D0E032C0E0C0D0C0FB
:10261C0082C083906183E0A2E05009E5BFA2E05044
:10262C000375BFFEE0A2E15009E5BFA2E1500375BE
:10263C00BFFDE0A2E25009E5BFA2E2500375BFFB6B
:10264C00E0A2E35009E5BFA2E3500375BFF7E0A297
:10265C00E45009E5BFA2E4500375BFEFE0A2E550DA
:10266C0009E5BFA2E5500375BFDFE0A2E65009E51E
:10267C00BFA2E6500375BFBFD083D0828088C0E074
:10268C00C0D0E8C0E0E9C0E0EAC0E0EBC0E0ECC0DC
:10269C00E0EDC0E0C0F0E5A7A2E6500FE5A1A2E690
:1026AC00500953A7BF75A1BF1226EFE5A7A2E550AD
:1026BC000CE5A1A2E5500653A7DF75A1DFE5A7A2A3
:1026CC00E15009E5A1A2E1500375A1FDE5A7A2E245
:1026DC00500CE5A1A2E2500653A7FB75A1FBD0F06C
:1026EC0002260074F8121C127543019003ABE064CF
:1026FC00067015120C5A8A828B83A3A3A3A3A3A3DF
:10270C00E0FAA3E0FB120CAEA2AFE433FED2AF9022
:10271C0003B1E0640170187A207B009003AAE0F901
:10272C001213207A207B009003AAE0F91212189061
:10273C006182E0D2E6F090054AE0602185C64480D3
:10274C00169003B0E064017008E5C654F84405F532
:10275C00C653BEFC12247C7401654360E4EEA2E017
:10276C0092AF7F01021CBE008E458F4685824A8542
:10277C008349854182854283E0CEA3E0CF854A829E
:10278C00854983EBC9EAC8EDCBECCA75F010C3E8F8
:10279C0033C8E933C9EA33CAEB33CBC3EA9EF548F5
:1027AC00EB9FF547B35004AB47AA48EC33CCED3361
:1027BC00CDD5F0DAAE45AF462274ED121C128A214B
:1027CC008B228C238D247413121B8278251219EE04
:1027DC0078217925121413752901752AC8752B00D7
:1027EC00752C0050127821792512198D78297921B0
:1027FC00121413501680107825792112198D78290E
:10280C00792512141340047901800279007F0C029F
:10281C001CBE74ED121C128A218B228C238D247405
:10282C0013121B8278251219EE78257921121413B4
:10283C0040117821792512198DAA21AB22AC23AD38
:10284C00248022752900752A00752B00752C0178BF
:10285C0029792512198D78297921121954AA29ABB5
:10286C002AAC2BAD2C80A68A828B837521FF752216
:10287C00FF7523FF75240078211219DB7F04021CDD
:10288C00BE74F5121C128C828D8378211219EE8A7B
:10289C00828B8378211219A1EA2404F8EB3400F915
:1028AC008C828D83A3A3A3A3E0FCA3E0FD88828983
:1028BC0083C3E09CF0A3E09DF088828983C3E094FD
:1028CC0020A3E0944E40268A828B837521FF7522CB
:1028DC00FF7523FF7524FF782112197A8A828B8366
:1028EC00A3A3A3A3E02420F0A3E0344EF0022873AA
:1028FC0074F5121C12E9FE900500E0FAA3E0FBEE61
:10290C00C333F8E433F974E928F582748039F5831C
:10291C00E02AF521A3E03BF5227821121DB97A407B
:10292C007B427C0F7D001227747402121B4C8A218F
:10293C008B228C238D247410782112191CAA21ABA4
:10294C00227F04021CBE74F1121C128A258B268C69
:10295C00278D28740F121B82E0FAA3E0FB7411126E
:10296C001B82E0F521A3E0F5227821121DB9EA249F
:10297C0001F521EB3400F522E4F523F524782579D3
:10298C002112189C75217175220278257921121853
:10299C009CAA25AB26AC27AD281227747402121BF7
:1029AC004C8B22EA452260047A0180027A00EC2AE0
:1029BC00FCED3400FD7413121B82E0F8A3E0F9E87F
:1029CC00FEE9FFECF8EDF97A717B02121AAB882163
:1029DC0089228E828F8378211219FDECF8EDF97A19
:1029EC00717B02121AAB8A218B2274057821121B7F
:1029FC00238E828F83A3A3A3A3E521F0A3E522F06A
:102A0C007F08021CBEC082C083E9906000F0D083B6
:102A1C00D08222C0E074F2121CFEA2AFE433FED2CC
:102A2C00AFE58AA2E4400CE58AA2E64006E58AA25C
:102A3C00E7500312112E538AEF538ABF538A7FC279
:102A4C00EBEEA2E092AF7F01021D5DC0E0C0D0E8CA
:102A5C00C0E0E9C0E0A9A8D2AFC2C7E9A2E7E4335D
:102A6C00F8E9A2E792AFD0E0F9D0E0F8D0D0D0E00E
:072A7C0032C2AF020000228C
:102A8400FFFFFFFFFFFFFFFF74F6121BA674EE1299
:102A94001B36E9900281F01211887C017D007A1FB7
:102AA4007B00120522854182854283E4F0740C1276
:102AB4001B82E4F0A3F004121B827401F0740A1266
:102AC4001B827404F0A3E4F07408121B82740AF0ED
:102AD400A3E4F07406121B82E4F0A3F07404121B46
:102AE400827464F0A3E4F0AC41AD4279017A057BD1
:102AF40003121332740C121B9C79027A067B0312A4
:102B040013327CD57D0C79177A087B031213327C3F
:102B1400EC7D0C79077A077B031213327401121BC4
:102B24009C79017A107B03121332740A121B9C796C
:102B3400027A117B031213327408121B9C79027AF5
:102B4400127B031213327406121B9C79027A137BD4
:102B5400031213327404121B9C79027A147B03123D
:102B640013327CF37D0C7A15790012069C7CA07DCF
:102B7400007A067B001205227CA07D007A077B0088
:102B84001205227CA07D007A087B001205227CA01D
:102B94007D007A097B00120522740E121B821246F4
:102BA4005B04121B8212463B7403121B82E4F07412
:102BB40002121B827401F0740E121B9C79047A08B1
:102BC4007B041210147401121B9C79017A007B049B
:102BD400121014AC41AD4279017A027B0412101434
:102BE4007403121B9C79017A037B0412101474027F
:102BF400121B9C79017A067B0412101490819612A0
:102C04001A0C1206A2908196121A0C1207B0120F17
:102C14008A908196121A0C120F9C900281E0F9128C
:102C240011A61213E61203EA1203F01213BC1213D4
:102C3400CE121170120FC6120FCC90822CAC41AD83
:102C4400427401121A49A841A94288218922782193
:102C5400121DB97C017D007AF07B1F1211107402E1
:102C6400121B4C854182854283E064AA60031204EE
:102C74003212115E7AF47B0112113A7A0C7B0D1236
:102C84000FA279011208B279021208AC7900120875
:102C9400B879011208BE7A017B00900281E0F91232
:102CA40012127412121B4C7F02021C7874EC121B59
:102CB400A674FD121B3689239081EFAC41AD42749A
:102CC40003121A497A08FB1212848A218B22AE213C
:102CD400AF22C2AFA841A942882189227821121DBE
:102CE400B97C017D007AFE7B1F1211107402121B45
:102CF4004C7401121B828582218583227821121D46
:102D0400B97C017D007AFF7B1F1211107402121B23
:102D14004C7402121B828582218583227821121D24
:102D2400B97C017D007AF07B1F1211107402121B12
:102D34004CD2AF1203FC8A218B221203FC8A258B0E
:102D4400261203FC8A278B28A827A928C3E52195E6
:102D540025E52295265052C3E52598E5269940524B
:102D6400C3E52198E52299405A85212985222AE440
:102D7400F52BF52C7829121452900A2F7829121960
:102D8400FD854182854283E0603FF525E4F526F523
:102D940027F52878251214527829792512165D9082
:102DA4000A2F78291219FD8046C3E89525E995264E
:102DB400500885252985262A80B5C3E89521E995FB
:102DC4002250A68829892A80A67401121B82E0F861
:102DD400601D8825E4F526F527F528782512145278
:102DE40078257929121682900A2F78251219FD90D8
:102DF4000A2F78251219EE9081C678291219EE78D7
:102E04002579291216115007900A337464802978A1
:102E1400251214AFE52524BDF8E52634F9F9E87543
:102E2400F064A4F8AAF075F064E9A42AF97A547B52
:102E340001121AABE8900A33F0900282E064057044
:102E4400577401652370518E828F837431F0EE24A0
:102E540002F8E43FF9E8FAE9FBA3A882A98375F034
:102E64000A900A33E084940A88828983400A7401B0
:102E7400F08A828B83E4801AE4F0900A33E0F875D8
:102E8400F00A84A9F075F00AE884C454F0298A820F
:102E94008B831254BE120FA8EEFAEFFB12128A9023
:102EA4000A33E0F97403121B4C7F0C021C7874E89B
:102EB400121BA674F6121B36EAFEEBFF5480603A2E
:102EC400900281E0F91211FA8A218B22EA452260EC
:102ED400218A828B83E064C07011A3A3A3E0FA85E6
:102EE40021828B83A3A3E0F9120414AA21AB22123A
:102EF40011E8EEFAEF6480023EDCEEA2E050207AA4
:102F0400087B0D12133E7A857B021210327A407BC5
:102F140000900281E0F9121212EE6401023EDA54CA
:102F240002602012042090817E121DCC7A027B0064
:102F3400900281E0F91213147404121B4CEE640223
:102F4400023EDAEE5440700302305E900CD4E0701E
:102F54000474018001E4F08541828542837401F0A8
:102F6400121344AC41AD4279017A057B031213324A
:102F74007A027B00900281E0F9121212900CD4E0E4
:102F840064017048C2AF75213475220A7821121D7C
:102F9400B97C277D027A007B001211107402121B87
:102FA4004C75215B75220C7821121DB97C787D004B
:102FB4007A007B101211107402121B4CD2AF120F44
:102FC400FC12116A79001211940230589009FDE440
:102FD400F0900A0BF0A3F09009FBF09009F3F012C3
:102FE40011821213CE12116A900A2AE07008900A14
:102FF4002CE06401701C900A2AE0C2E7F0C2AF7CA6
:10300400937D097A5E79801212EAD2AF900A2AE09F
:103014007008900A2CE06402703AC2AF75213475CE
:10302400220A7821121DB97C277D027A007B0012C6
:1030340011167402121B4C75215B75220C78211237
:103044001DB97C787D007A007B101211167402126F
:103054001B4CD2AFEE6440023EDAEF54027003021E
:10306400311E7A007B02900281E0F91213207A006B
:103074007B04900281E0F91213209009FDE07004B2
:1030840074018001E4F0900A0BE4F01213CE900A6C
:1030940023E4F0900A0C1246681213809009FDE0B4
:1030A4008541828542836022E4F0121344AC41AD31
:1030B4004279017A057B031213327A027B00900273
:1030C40081E0F9121320790380457401F01213444E
:1030D400AC41AD4279017A057B031213327A007B4D
:1030E40010900281E0F91213207A007B2090028173
:1030F400E0F91213207A027B00900281E0F91212A7
:10310400127A407B00900281E0F9121212792712A0
:103114001194EEFAEF6402023EDCEF5404700302F1
:103124003686900A0C1246461213207A007B1090C1
:103134000281E0F9121320900A00E0F8900A0BE0F3
:1031440060331470030232031470030233341470B6
:103154000302342914700302346E1470030234E938
:1031640014700302357714700302360514700302D9
:1031740036210236727521067522007821121DB996
:103184007C007D0A7A937B0912137A7402121B4C19
:10319400E9900A0B60187401F079221211947C0AE8
:1031A4007D0079FF7A007B0A121380023672E4F004
:1031B4007904121194900A23E004123F4A121380F6
:1031C400900A23E0C394065003023672120FFC7A6D
:1031D400B87B07121008EAC0E0EBC0E0ECC0E0EDF9
:1031E400900A24FBD0E0FAD0E0F9D0E0F8121A30CB
:1031F4007A407B00900281E0F91212120236727555
:1032040021027522007821121DB97C007D0A7A0EF4
:103214007B0D12137A7402121B4CE9600B900A0B9B
:103224007402F0790502330E7821121DB97C007DF9
:103234000A7A107B0D12137A7402121B4CE9600B8C
:10324400900A0B7403F0790902330E7821121DB928
:103254007C007D0A7A127B0D12137A7402121B4CC5
:10326400E96010900A0B7404123F4A121380790D1E
:1032740002330E7821121DB97C007D0A7A147B0D6D
:1032840012137A7402121B4CE9600C791212119415
:10329400900A0B740580227821121DB97C007D0AE6
:1032A4007A167B0D12137A7402121B4CE960197999
:1032B40012121194900A0B7406F07A007B2090028B
:1032C40081E0F9121212804A7821121DB97C007D26
:1032D4000A7A187B0D12137A7402121B4CE9600AE5
:1032E400900A0B7407F0791980207821121DB97C9B
:1032F400007D0A7A1A7B0D12137A7402121B4CE9B0
:10330400900A0B600A7408F0791D121194800374FA
:1033140001F090816A121DCC7A007B10900281E04A
:10332400F91213147404121B4C900A0CE402367143
:103334007A047B001212848A218B22124607121B04
:10334400231245F3600302340F9009F3E064016033
:103354000302340FE9900A20700AE0D2E41254DE2A
:10336400D2E78008E0D2E51254DE4441F09009F43B
:10337400E0FC8C2375240074037823121B237493BC
:103384002523F874093524F9E8FAE9FBEC8A828BE1
:1033940083A3A3A3A3A3A31254B4121DB97C1A7DBF
:1033A4000AEA2407FA50010B1211BE7402121B4CD4
:1033B4007C0679007A1A7B0A12042CE9F523790732
:1033C400121194852182852283742FF09009F412BE
:1033D4003F12F0900A20123F12A3F0852182852229
:1033E40083A3A3A3E5231254A07A047901120FA89E
:1033F4007C077D0079007A1A7B0A1213807A407B5D
:1034040000900281E0F912121280057924121194BD
:10341400AA21AB2212128A9009F474FFF09009F3E6
:10342400E4F002366C7521067522007821121DB96C
:103434007C007D0A7A0D7B0A1211D07402121B4C97
:10344400E960207821121DB97C0D7D0A7A937B09ED
:103454001211BE7402121B4C900A2AE04442F07905
:103464000B8002790C121194806B75210675220071
:103474007821121DB97C007D0A7A0D7B0A1211D0C5
:103484007402121B4CE960429009F5E0FC75F007E8
:10349400A4F8A9F0743428F8740A39F9E8FAE9FBB5
:1034A400EC8A828B83A3F07821121DB97C0D7D0AEE
:1034B400EA2402FA50010B1211BE7402121B4C9042
:1034C4000A2AE04444F079118002790C1211949094
:1034D40009F574FFF07C067D0079BB7A0D7B0A1236
:1034E400138002366C7A087B001212848A218B22A4
:1034F4009081447404121B9C7406121A49900A00A9
:10350400E0640B60030235FC7525001253CA121DDA
:10351400B97406121B9CAA23AB2412137A740212E8
:103524001B4CE9603C7525067526007825121DB9EB
:103534007C137D0AAA23AB241211BE7402121B4C05
:10354400900A0B7401F07C067D0079BB7A137B0A28
:10355400121380900A2AE04448F0791412119480DE
:103564000F7409652560090525E525C3940A409B68
:103574000235FC7A087B001212848A218B2275237F
:10358400027524007823121DB97C007D0A7A1C7B05
:103594000D12137A7402121B4CE9605C752500123B
:1035A40053CA121DB97C137D0AAA23AB2412137AC1
:1035B4007402121B4CE9602C7C067D0079FFAA235F
:1035C400AB241213807C067D0079BB7A137B0A122C
:1035D4001380900A0B74011254DE4448F0791812D7
:1035E40011948014740965257005791712119405D6
:1035F40025E525C3940A40A7AA21AB2212128A808A
:1036040067740B6870627C077D0079BB9009F512C2
:10361400544D121380900A2AE044448045740B6888
:1036240070469009F5E0F5217522007403782112A3
:103634001B2374932521F874093522F9E8FAE9FB70
:103644008A828B83A3A3A3A3A3A374FFF07C077D27
:10365400007900EA2CFA50010B121380900A2AE038
:103664004441F0791B121194900A0B7401F09009F3
:10367400F574FFF0124664121380EEFAEF6404024C
:103684003EDCEE540860799081DA7401121B9C745C
:1036940003121A499009F1E06401705E900282E01D
:1036A400640570569009FDE0F8900A2AE0F9602854
:1036B400E87025E0A2E74020900A21E41254DED20B
:1036C400E6F07C0379007A1E7B0D12042CE9900A43
:1036D40021F07C1E7D0D801B7401121B82E9F074A5
:1036E40002121B82E8F07403121B827405F0740149
:1036F400121B9C7A037901120FA8EE6408023EDAC9
:10370400EF5408700302387C7A007B08900281E051
:10371400F9121320752100E52175F007A4F8A9F02A
:10372400743428F523740A39F524752506752600A2
:103734007825121DB97C007D0AE523240CFAE524C2
:103744003401FB12137A7402121B4CE96027900CAB
:10375400587404F0E521A31254DE4460123F4A1267
:1037640013807C077D0079BBE523240BFAE5243420
:1037740001FB0238117825121DB97C007D0AE5236E
:103784002402FAE43524FB12137A7402121B4CE966
:103794006007900C587401806D7825121DB97C0067
:1037A4007D0AE5232452FAE5243401FB12137A74CA
:1037B40002121B4CE96007900C5874058048782568
:1037C400121DB97C007D0AE5232498FAE52434010E
:1037D400FB12137A7402121B4CE96007900C5874A4
:1037E4000680237825121DB97C007D0AE52324DE9A
:1037F400FAE5243401FB12137A7402121B4CE960BB
:103804001D900C587407F0E521A3123F4A1213804F
:103814007A107B00900281E0F9121212805274092E
:1038240065217040900A23E004F0C39406403012EE
:103834000FFC7AB87B07121008EAC0E0EBC0E0EC9A
:10384400C0E0ED900A24FBD0E0FAD0E0F9D0E0F833
:10385400121A307A407B00900281E0F91212127938
:10386400041211940521E521C3940A500302371B65
:10387400EEFAEF6408023EDCEF540170030239757E
:10388400120FFC7AB87B071210088A218B228C2332
:103894008D24752D00852D25752600E52575F007E9
:1038A400A4F8A9F0743428F527740A39F5287402A9
:1038B4007825121B23745B2525F52F740C3526F50A
:1038C40030852F82F58378291219EE9081CA7829E0
:1038D400121967782979211214134019852F8285CA
:1038E4003083123F3F2451123F272452FAE52834F3
:1038F40001FB121380E52F2428123EED1219EE90DD
:1039040081BE78291219677829792112141340137A
:10391400123F392497123F272498FAE5283401FBF3
:10392400121380E52F2450123EED1219EE9081BA45
:103934007829121967782979211214134013123F38
:103944003924DD123F2724DEFAE5283401FB121363
:1039540080052DE52DC3940A50030238997A007B23
:1039640001900281E0F9121320EEFAEF6401023EA5
:10397400DCEE54107003023B7B900A2DE0600C7A5D
:10398400007B40900281E0F91213209009FBE0F8DB
:1039940060057403687015E004F0900284E070041C
:1039A40074018001E4F09081B2023B61740168709B
:1039B400347402F01211769081AA121DCC7A107B15
:1039C40000900281E0F91213147404121B4C7A0261
:1039D4007B00900281E0F91213209081A6121DCC85
:1039E4007A40023B6674046870097405F012117C15
:1039F400023B5E7406686003023B3EE4F0120FFC77
:103A0400900A2AE04450F0900C5AE0C39410400A03
:103A1400740FF0900C57F012136E900C57E0F8C02E
:103A2400E075F009A4F8A9F074AF28F582740A3996
:103A3400F583D0E0F0900C58E0C0E0123F1B74B066
:103A440028F582740A39F583D0E0F0900C59E0C06F
:103A5400E0123F1B74B128F582740A39F583D0E073
:103A6400F09007B8E0C0E0123F1B74B228F58274EE
:103A74000A39F583D0E0F09007B9E0C0E0123F1BAB
:103A840074B328F582740A39F583D0E0F09007BA4C
:103A9400E0C0E0123F1B74B428F582740A39F58340
:103AA400D0E0F09007BBE0C0E0123F1B74B528F5EE
:103AB40082740A39F583D0E0F09007BCE0C0E012CC
:103AC4003F1B74B628F582740A39F583D0E0F09070
:103AD40007BDE0C0E0123F1B74B728F582740A39B1
:103AE400F583D0E0F0900C5AE004F0900C57F0907D
:103AF4000A2312485212132090819E121DCC7A027E
:103B04007B00900281E0F91213147404121B4C9090
:103B14008192121DCC7A407B00900281E0F912134D
:103B2400147404121B4C900A2DE060457A007B400B
:103B3400900281E0F91212128037740268701074D6
:103B440003F0121182791F121194908192800E74E5
:103B54000568701D7406F01211829081AA121DCCA2
:103B64007A107B00900281E0F91213147404121B82
:103B74004CEE6410023EDAEE5404602F85418285D7
:103B840042837401F0121344AC41AD4279017A05C9
:103B94007B031213327CF37D0C7B157A0090028137
:103BA400E0F9120624EE6404023EDAEE5480604822
:103BB400A296401B79001211947A407B00900281F6
:103BC400E0F912132090818E121DCC7A8080147A31
:103BD400807B00900281E0F91213209081A6121DCF
:103BE400CC7A407B00900281E0F912131474041221
:103BF4001B4CEE6480023EDAEE54207003023CCA91
:103C04007A207B00900281E0F9121320A2975003DE
:103C1400023CCA90822BAC41AD427401121A49791C
:103C24000112119412139E12139212139812138CF0
:103C3400C2AF7C937D097A5E79801212EA752134D1
:103C440075220A7821121DB97C277D027A007B0037
:103C54001211167402121B4C75215B75220C78210B
:103C6400121DB97C787D007A007B10121116740243
:103C7400121B4CA841A942882189227821121DB91E
:103C84007C017D007AF07B1F1211167402121B4C0A
:103C94007821121DB97C017D007AFE7B1F1211165A
:103CA4007402121B4C7821121DB97C017D007AFF2D
:103CB4007B1F1211167402121B4CD2AFC2AF75C90E
:103CC400AB75C95B80FEEF54207003023E027A0894
:103CD4007B001212848A218B227A007B109002814D
:103CE400E0F9121320EEF523EF6420F524AA21ABAA
:103CF400221213E0E97003023DDD7A00EAF8E521BF
:103D040028F582E43522F583A3E070037430F00AC9
:103D1400EAC3940640E6852182852283A3AE82AF5E
:103D240083900A0BE0F8740568703C7521007525D2
:103D3400067526007825121DB9123EFC12137A74FA
:103D440002121B4CE960137910121194124664128A
:103D54001380900A0B7401F080710521E521C3944E
:103D64000A40CB7913802874066870447521007565
:103D740025067526007825121DB9123EFC12137A09
:103D84007402121B4CE9600C900A0CE4F0791612D0
:103D94001194801C74096521700D79171211949087
:103DA4000A0CE4F0FA80260521E521C3940A40BFF9
:103DB4007521067522007821121DB9EEFCEFFD7AFB
:103DC400137B0A1211BE7402121B4C7A007B2090E2
:103DD4000281E0F9121320801E9081AA121DCC7A70
:103DE400007B20900281E0F91213147404121B4C1E
:103DF400AA21AB2212128AAA23AB24023EE3EF5477
:103E04001060317A007B10900281E0F91213209047
:103E14000A0B7401F079211211947C0A7D0079FF58
:103E24007A007B0A121380900A0CE4F0EEFAEF6435
:103E340010023EDCEF54407003023EDF900A2DE096
:103E440004F0F8EF6440FF74F928C3940550327A03
:103E5400F67B09121386E9F5211203F0E521C394D8
:103E64000B50567925121194908182121DCC7A0040
:103E74007B40900281E0F91213147404121B4C80ED
:103E840054E8C39407E8502C604B1203F6790012EF
:103E94000408900A2DE0F8C394024013900A33E01A
:103EA400C0E074F428F582E43409F583D0E0F0909E
:103EB400819E80B7C3940C401C900A2DE4F07C05CD
:103EC400FDF97AF67B091213807A007B4090028117
:103ED400E0F9121320EEFAEFFB80047A007B007401
:103EE4000A121B4C7F10021C78F525E43530F526A8
:103EF400852582F583782922EEFCEFFDE52175F016
:103F040006A4F8A9F0747B28FA740A39FB22E08528
:103F14002182852283A322900C57E075F009A4F82E
:103F2400A9F022F582E5283401F583E4F07C06FD4E
:103F340079BBE52722852582852683E4F0A3F0A3B7
:103F4400F0A3F0E52722F07C0A7D0079FF7A007B5C
:103F54000A2274EC121BA674F3121B368A21740114
:103F6400652160030245BB900CD4E0640160030248
:103F740040469009FBE06003024051121164E9904D
:103F84000D22F0F460497900121194900D22E0C0E2
:103F9400E0900A0CE0F8740028F582E4340AF58312
:103FA400D0E0F0900A0CE004F09009FDE0700C7A87
:103FB400027B00900281E0F9121320900A2DE06048
:103FC4003F7A007B40900281E0F912132080319007
:103FD40009FDE07019908162121DCC7A027B009079
:103FE4000281E0F91213147404121B4C8012900A1B
:103FF4002DE0600C7A007B40900281E0F9121212ED
:10400400900A0BE0C39402400C7A007B109002816A
:10401400E0F9121320900D22E0640A701990816671
:10402400121DCC7A007B02900281E0F91213147401
:1040340004121B4C800C7A007B02900281E0F9127E
:104044001320900CD4E064016003024567900D22B4
:10405400E0F460729009FBE0706C9009FDE070037D
:10406400024524908192121DCC7A007B0490028137
:10407400E0F91213147404121B4C900A0CE0FA9029
:104084000A0BE0603014607F147003024132147034
:104094000302423E1470030242A014700302439EC2
:1040A4001470030243F614700302443E14700302B6
:1040B40044A20245BB1245F97003024515EAC394B4
:1040C4000A40030245157A807B00900281E0F912D0
:1040D40013207410652160030245E2900CD4E07053
:1040E4000C7A407B00900281E0F9121212908162F6
:1040F400121DCC7A207B00900281E0F91213147413
:1041040004121B4C0245EE74026A700302450AEA6B
:10411400C3940340B17930121194900A0B7401F0E6
:104124007A007B04900281E0F912132080987A03CC
:104134007B001212848A238B247A037B001212845C
:104144008A258B26AE25AF26852382852483740198
:10415400F0A3744FF0852382852483A312549374AF
:1041640001F0A3744F125496A3A3F0900A0CE0F844
:10417400C39402407D900D22E0640B707574036853
:10418400700512462A800B740268700A900A00E0D7
:1041940024D09009F4F09009F4E0F5257526007414
:1041A400037825121B2374992525F5827409352675
:1041B400F583E0F4701A9009F312463B121344ACF1
:1041C40041AD4279017A057B031213327A008011E2
:1041D40079061211949009F474FFF09009F3E4F055
:1041E400FA7B04900281E0F9121320900A0CE4F0A7
:1041F4008037E8C39404500D740368702C900D222A
:10420400E0640B60247930121194900A0CE4F0906D
:1042140009F41246519009F3124646121320EEFC9B
:10422400EFFD7A037901120FA8AA23AB2412128A94
:10423400EEFAEFFB12128A0240CA74066A600302A5
:1042440040CA900A12E064BB7523067524007823E3
:10425400702D121DB97C007D0A7A0D7B0A1211BEE5
:104264007402121B4C7C0A7D0079FF7A007B0A12CF
:104274001380900A0CE4F0790A1211940240CA12D5
:104284001DB97C007D0A7A0D7B0A12137A7402121E
:104294001B4CE9600302436279308039EAC394021B
:1042A4004039900D22E0640B703174036A7005127A
:1042B400462A800B74026A700A900A00E024D090A7
:1042C40009F5F0124616600B79101211949009F555
:1042D4000244DF790E12119402438F9009F5E0F83D
:1042E400EAC39404400874FF6870030244F074063F
:1042F4006A60030240CA900A12E064BB703A74FF19
:104304006870030240CA7523067524007823121DC1
:10431400B97C007D0A7A0D7B0A1211BE7402121B4D
:104324004C7C0A7D0079FF7A007B0A121380900A84
:104334000CE4F0790F02427D74FF6870030240CAF6
:104344007523067524007823121DB97C007D0A7A32
:104354000D7B0A1211D07402121B4CE9600F7A0013
:104364007B04900281E0F91212120244E2793012C5
:1043740011949009F574FFF07C067D0079BB7A0DE9
:104384007B0A121380900A0B7401F07A007B04906C
:104394000281E0F91213200244E290813E74071274
:1043A4001B9C7406121A49900D22E0640B7027744A
:1043B400016A70227523067524007823121DB974CE
:1043C40009121B9C7A137B0A12137A7402121B4C77
:1043D400E97053024515EAC3940240030244F074A1
:1043E400016A60030240CAE0640B60030244F00205
:1043F40040CA9081327401121B9C7406121A4974CB
:10440400026A702A7523067524007823121DB97474
:1044140003121B9C7A137B0A12137A7402121B4C2C
:10442400E9700302451579121211940244E2EAC3B9
:10443400940350030240CA0244F0900D22E0640B3E
:10444400703FEAC39402403974036A700512462A25
:10445400800B74026A700A900A00E024D09009F577
:10446400F0124616700D791C1211949009F512463B
:10447400518005791A121194124664121380024075
:10448400CAEAC394045065E0640B60030240CA7432
:10449400016A60030240CA900A0CE4F08073EAC324
:1044A40094024042900D22E0640B703A74036A70E7
:1044B4000512462A800B74026A700A900A00E024EE
:1044C400D09009F4F0124607121B231245F360033F
:1044D400E9700B791C1211949009F4124651900A58
:1044E4000CE4F00240CAEAC3940440127930121179
:1044F40094900A0B7401F0A3E4F0FA0241267401CB
:104504006A60030240CA900D22E0640B600302401B
:10451400CA7A007B04900281E0F91212120240CAA6
:10452400900A0CE0FA1245F96006EAC3940A4010B6
:10453400900A0CE4F09009FE04F07A007B0880D520
:10454400EAC3940650030240CA908162121DCC7AD9
:10455400007B08900281E0F91213147404121B4CBE
:104564000240CA900A0CE4F0900A23E0C394064087
:104574003F120FFC7AB87B071210088A258B268C11
:10458400278D28900A2478291219EE90817E7829A3
:1045940012196778297925121413404E900A2312B0
:1045A400465BA3F09081D2121DCC7A407B0080A39D
:1045B4007A407B000245197402652160030240CAF7
:1045C400900CD4E0700C7A407B00900281E0F912E8
:1045D40012127A807B00900281E0F91212127A2082
:1045E4007B00900281E0F9121320740D022EAA12AE
:1045F40053B2E0F42274FF2AF582E43409F583E02F
:10460400640B229009F4E0F989237524007403787B
:1046140023229009F512543E743528F582740A3920
:10462400F583E064BB2275F00A900A00E0540FA4FD
:10463400F8A3E0540F28227401F085418285428357
:10464400F022E4F0FA7B04900281E0F92274FFF096
:10465400900A0B7401F022E4F0A3F0A3F0A3F0227B
:10466400900A0CE4F07C0AFD79FF7A007B0A22743C
:10467400F6121BA674F2121B36E9FE1460161470AF
:104684000302471C14700302476624FE70030247AA
:104694002602476B7408121B9C7A047B031213389E
:1046A4007408121B82E0854182854283F0740912EA
:1046B4001B82E0C0E07401121B82D0E0F0740A1285
:1046C4001B82E0C0E07402121B82D0E0F07404127A
:1046D4001B82E4F07403121B82E4F0740D121B823B
:1046E400E0C0E07407121B82D0E0F0740C121B824D
:1046F400E0C0E07406121B82D0E0F0740B121B823F
:10470400E0C0E07405121B82D0E0F0AC41AD427A07
:10471400087900120F90804F9009F1E4F07A04FBBD
:1047240080369009F3E06401703D7A037B00121235
:10473400848A218B22AC21AD228C828D837401F07A
:10474400A3744FF08C828D83A3A3744BF07A037906
:1047540001120FA87A047B00900281E0F912132061
:1047640080059009F1E4F0EE900282F0740E022CC0
:10477400A874F4121BA67A087B001212848A218B77
:1047840022AE21AF221213E0E960717A00EAF8EE5A
:1047940028F582E43FF583A3E070037430F00AEA5D
:1047A400C3940640E8752100752306752400782318
:1047B400121DB98E828F83A3AC82AD83123F001287
:1047C400137A7402121B4CE9601B1213C2900C582A
:1047D4007403F0E521A3F07A107B00900281E0F9E4
:1047E40012121280177409652170081213C8790116
:1047F4001211940521E521C3940A40ACEEFAEFFBB3
:1048040012128A9009F1E064016005E064027039D3
:104814007A037B001212848A218B22AE21AF228E6E
:10482400828F83741FF0125493A3A3744FF09009E2
:10483400FC124852121212EEFCEFFD7A03790112B7
:104844000FA8EEFAEFFB12128A7F04021C78E4F040
:104854007A10FB900281E0F92274E8121BA674FC22
:10486400121B36E9854182854283F07A147B00125B
:1048740012848A2F8B307A047B001212848A218B53
:1048840022AE21AF22EE2402F52DE43FF52EE52FD2
:104894002407F52BE43530F52C8E828F83A3858293
:1048A4002985832AE52F2403F523E43530F524E50F
:1048B4002F2402F525E43530F526852F82853083B3
:1048C400A3858221858322854182854283E0600A13
:1048D40024FE7003024E6702539FAA2FAB30790067
:1048E400120FAE7C937D097A5E79801212F0E52F67
:1048F4002404F527E43530F528852F82853083E0BC
:1049040014601D147003024A4E147003024BA12458
:10491400FB7003024DDE24F87003024E1C02539F09
:1049240075250085252375240074037823121B2321
:1049340074932523F52374093524F5247527067506
:1049440028007827121DB9AC21AD22E5232407FAEB
:10495400E43524FB12137A7402121B4CE97003022F
:104964004A0A9002837401F0900C5804F0E525A3E0
:10497400F09009F17004740180027402F07A087BEB
:1049840000900281E0F91212121203F67901120466
:10499400081203F0E523240DF8E43524F9E8FAE9D4
:1049A400FB852B82852C83E0F521540FFC8A828BB6
:1049B40083E0540F6C7001E46003E521F0852B82E1
:1049C400852C83E0540FF874016870079009FC7417
:1049D40001800A74026870069009FC7402F0852B49
:1049E40082852C83E054F0600302539F8E828F8370
:1049F4007421F0E525852982852A8370047410804A
:104A040002742002537C740A6525702F9009F3E028
:104A1400640170277523077524007823121DB9AC2F
:104A240021AD227A1A7B0A1211BE7402121B4C7A2F
:104A3400007B04900281E0F91212120525E525C3DA
:104A4400940B400302539F024927900A2AE0F890EE
:104A54000289F09081DD7401121B9C7403121A49BF
:104A6400900A21E0F9900D25F09009F1E0C0E0747E
:104A740001121B82D0E0F07402121B82E9F074036D
:104A8400121B82E8F07401121B9C7A037901120F45
:104A9400A87523037524007823121DB9AC21AD2217
:104AA4007A237B0D12137A7402121B4CE9700302F1
:104AB4004B459009F1E064016003024B45900A21E3
:104AC400E4F07800900289E0A2E05065E8601414F4
:104AD400601814601C14602014602414602814608E
:104AE4002C804E900D2674418028900D26744280AF
:104AF40021900D267443801A900D267444801390DF
:104B04000D267445800C900D2674468005900D2664
:104B14007447F07C0379007A267B0D12042CE9900B
:104B24000A21F07C267D0D7A037901120FA8025325
:104B3400ADE0C313F008E8C39407400302539F8019
:104B440083900A2BE0F8700302539F900A21E4F04B
:104B5400E814601514601924FE601C24FC601F24F2
:104B6400F8602224F060258029900D297441802169
:104B7400900D297442801A900D2974438013900D6E
:104B8400297444800C900D2974458005900D297476
:104B940046F07C0379007A297B0D024DD4752502F9
:104BA4007526007825121DB9AC21AD227A237B0D20
:104BB40012137A7402121B4CE9700302539F90097A
:104BC400F1E06401600302539F852782852883E016
:104BD40024BF6024146074147003024C85147003A1
:104BE400024CC9147003024D16147003024D621472
:104BF4007003024DA502539F1254647046E4F0758D
:104C0400230185232175220074037821121B237448
:104C1400992521F52174093522F5227C081253FCCB
:104C240012042C12549C7A087901120FA80523E56A
:104C340023C3940A40CC900A2AE0C2E0F0A3740192
:104C440002539E12548D7441024DBD125464702956
:104C5400E4F07C06F97A937B0912042CE9900A218A
:104C6400F07C937D097A067901120FA8900A2B74BF
:104C7400021254DEC2E102539E12548D7442024D5C
:104C8400BD1254647037E4F0752300E52375F00712
:104C9400A4F8A9F0743528F521740A1253F7120404
:104CA4002C1254A6120FA80523E523C3940A40DB53
:104CB400900A2AE0C2E2F0A3740402539E12548DB7
:104CC4007443024DBD1254647040E4F0752300E552
:104CD4002375F006A4F8A9F0747B28F521740A3929
:104CE400F5227C061253FC12042C12549C7A067989
:104CF40001120FA80523E523C3940A40D2900A2A7F
:104D0400E0C2E3F0A3740802539E12548D7444026B
:104D14004DBD1254647040E4F0752300E52375F032
:104D240009A4F8A9F074B828F521740A39F5227C8D
:104D3400091253FC12042C12549C7A097901120FA3
:104D4400A80523E523C3940F40D2900A2AE0C2E4C5
:104D5400F0A3741002539E12548D7445805B125458
:104D6400647037E4F0752300E52375F007A4F8A90F
:104D7400F0743F28F521740B1253F712042C1254CB
:104D8400A6120FA80523E523C3940A40DB900A2A40
:104D9400E0C2E5F0A3742002539E12548D74468041
:104DA40018125464700EE4F0900A2AF0A3F012135F
:104DB4007402539F12548D7447F07C2C7D0D7A033A
:104DC4007901120FA87C03900A21E0F97A2C7B0D5B
:104DD40012042CE9900A2102539E120FFC852182B1
:104DE400852283E09007B81255149007B91255270D
:104DF4009007BAF0852782852883E09007BB125478
:104E0400D1E09007BC1254CCE09007BDF0120FF62D
:104E14008E828F837416803C852182852283E06490
:104E24004F600302539F852582852683E06450608A
:104E34000302539F900A28E0F8A3E0C398500302AA
:104E4400539F7A107B00900281E0F91212128E8235
:104E54008F83741F12547FF0852D82852E83744FA7
:104E6400024FD0120FFC900A22E4F0AA2FAB307943
:104E740002120FAE852F82853083E01460391470DE
:104E840003024F31147003024F99147003024FE16F
:104E940014700302504D14700302509D14700302E9
:104EA4005112147003025281147003025388147057
:104EB4000302539402539F900A22E0F97C08125390
:104EC400E6121B231253BF12042C1254F37055859F
:104ED4002582852683E068704B900A2C7401F07C4F
:104EE400087D007900852182852283E0F5238924C9
:104EF40074037823121B231253BF1213801253E638
:104F0400121B231253B274FF1254967403125530B9
:104F14001254BE120FA87C937D097A5E7980121216
:104F2400EA02539F8E828F837450025379900A222F
:104F3400E0F97C067A937B0912042C1254F3704C2A
:104F4400852182852283E0687042900A2C7401F0E6
:104F54007C067D0079007A937B0912138075210603
:104F64007522007821121DB97C2F7D0D7A937B095F
:104F74001211BE7402121B4C8E828F837404F09043
:104F84000A22E0852982852A8302537C8E828F83BC
:104F94007451025379900A22E0F97C0712544712A3
:104FA400042C1254F3702D852582852683E06870C5
:104FB40023900A2C7401F07C077D0079BB125447BE
:104FC4001213808E828F8374051255301254C67A60
:104FD400030253818E828F8374520253799009F1B4
:104FE400E06401600302539F7525001253CA121D29
:104FF400B9AC21AD22AA23AB2412137A7402121B7A
:105004004CE960227C067D0079FFAA23AB241213AD
:10501400808E828F8374061254E4120FA8900A2C97
:105024007402F00253AD74096525700F8E828F836C
:1050340074531254751254EB120FA80525E525C3B9
:10504400940A400302539F80A2900A22E0F97C064E
:10505400AA21AB2212042C1254F37034852B8285BE
:105064002C83E068702A900A2C7401F0752306756D
:1050740024007823121DB9AC21AD227A937B091246
:1050840011BE7402121B4C8E828F83740702536EFE
:105094008E828F837454025379900A22E0F97C073C
:1050A400AA21AB2212042CE9F8900A221254CCA3B0
:1050B400A3E0687050900A2C74011254B4121DB904
:1050C400AC21AD228C828D8312543A743528FA7443
:1050D4000A39FB1211BE7402121B4C8E828F837428
:1050E400081254E4120FA875213475220A7821128B
:1050F4001DB97C277D027A007B00121116740212FE
:105104001B4C02539F8E828F837455025379900AED
:1051140022E0F97C08AA21AB2212042C1254F36079
:1051240003025278852F82853083A3A3A3A3A3A36C
:10513400A3A3A3E0686003025278852182852283B9
:10514400E024CF60121460431470030251D8147029
:105154000302522002539F12550AC0E075F007A4BF
:10516400F8A9F0743F28F582740B39F583D0E01266
:105174005500121DB9125430744028FA740B39FBCF
:105184001211BE7402121B4C02526F12550AC0E077
:1051940075F007A4F8A9F0748528F582740B39F525
:1051A40083D0E0125500121DB9125430748628FAC7
:1051B400740B39FB1211BE7402121B4C7AB87B07B4
:1051C400121008125406121B23745B2525F58274F1
:1051D4000C02526612550AC0E075F007A4F8A9F053
:1051E40074CB28F582740B39F583D0E01255001284
:1051F4001DB912543074CC28FA740B39FB1211BE49
:105204007402121B4C7AB87B07121008125406124F
:105214001B2374832525F582740C804612550AC01D
:10522400E075F007A4F8A9F0741128F582740C391C
:10523400F583D0E0125500121DB9125430741228AF
:10524400FA740C39FB1211BE7402121B4C7AB87B2F
:1052540007121008125406121B2374AB2525F5827D
:10526400740C3526F58378211219FD8E828F837490
:105274000902536E8E828F8374560253799009F11A
:10528400E06401600302539F852182852283E02428
:10529400CF600F146033146064147003025332023D
:1052A400539F125459743F2AFA740B3BFB12042C7B
:1052B40012551D600302537312554A743F2AFA743F
:1052C4000B3BFB12138002536812545974852AFA5B
:1052D400740B3BFB12042C12551D60030253731212
:1052E400554A74852AFA740B3BFB12138012541F1F
:1052F400121B23745B2521F582740C8060125459AF
:1053040074CB2AFA740B3BFB12042C12551D705FEC
:1053140012554A74CB2AFA740B3BFB1213801254B5
:105324001F121B2374832521F582740C802F1254C1
:105334005974112AFA740C3BFB12042C12551D707B
:105344002E12554A74112AFA740C3BFB1213801264
:10535400541F121B2374AB2521F582740C3522F5DE
:105364008312465B8E828F83740A12547F80098E67
:10537400828F8374571254751254C67A02790112BB
:105384000FA88017852182852283E0900A28800A4D
:10539400852182852283E0900A29F0AA2FAB30125E
:1053A400128AEEFAEFFB12128A7404023EE5749933
:1053B4002523F58274093524F5832274992523FA6B
:1053C40074093524FB22E52575F006A4F8A9F074C8
:1053D4007B28F523740A39F5247527067528007887
:1053E4002722852182852283E0F523752400740316
:1053F40078232239F5227C07900A21E0F9AA21AB0F
:1054040022228A218B228C238D2485258285268342
:10541400E0F52575260074027825228525828526E7
:1054240083E0F5217522007402782122AC23AD2497
:1054340085258285268312543E22E075F007A4F860
:10544400A9F02285218285228312556074352AFAB7
:10545400740A3BFB22900A22E0F97C0712555A2277
:10546400900A21E0F8852382852483E068900A214C
:1054740022F0852982852A8374FF2212548322F024
:10548400852982852A83744B22E4F0900D2C22A373
:10549400744BF08E828F8322E9900A21F0AC21AD07
:1054A4002222E9900A21F0AC21AD227A0779012267
:1054B400F07523077524007823221254C67A0379E1
:1054C4000122F0EEFCEFFD221254D1A322F0852F2D
:1054D40082853083A3A3A3A3A322F0900A2AE02207
:1054E4001254831254EB221254C67A02790122E92F
:1054F400F8900A22F09009F1E0640122F075210687
:10550400752200782122900A2C7402125514F82274
:10551400F0852582852683E022E9F8900A22125537
:10552400276822F0852382852483E022F085218266
:10553400852283E0852982852A83F0900A22E085EA
:105544002D82852E8322900A2C7402F07C077D0024
:1055540079BB12555A22852582852683E08CF0A4D6
:10556400FAABF02274F7121BA67D00800BEFF9E86A
:10557400C313F81EEE70140DEDC39C5025EDFEEA26
:105584002EF582E43BF583E0F87E08E9C313FFE8D7
:10559400A2E092F0E9A2E030F001B350D0748C6F35
:1055A40080CC7F01021C7874EC121BA674FC121BC5
:1055B400369081E07401121B9C7403121A49908284
:1055C4002AAC41AD4204121A491203F675230312A0
:1055D40003FC8A218B22AE21AF221203FC8A218B89
:1055E400221203FC8A258B26A825A926C3EE952121
:1055F400EF9522506FC3E52198E52299406FC3EEE1
:1056040098EF9940048E258F2685252985262AE43E
:10561400F52BF52C7829121452900A2F7829121997
:10562400FD90816E78251219EE782979251215C21C
:10563400504C90817278251219EE7829792512162A
:105644008278291214AF7401121B82E529F07401C7
:10565400121B8C882189227821121DB97C017D00BE
:105664007AFE806DC3E89521E995225008852125AD
:105674008522268094C3E89EE99F5089808B90817F
:105684007678251219EE78297925121611504E9044
:10569400817A78251219EE782979251215C2505885
:1056A4007525007526E07527F27528447825792933
:1056B40012165D78251214AF7402121B82E525F0D0
:1056C4008582218583227821121DB97C017D007A8F
:1056D400FF7B1F1211167402121B4C8011908176ED
:1056E40078251219EE78297925121596700AA841A1
:1056F400A94288218922800E7403121B8274BBF094
:105704008582218583227821121DB97C017D007A4E
:10571400F07B1F1211167402121B4C1523E5236033
:10572400030255D31203F07404022EAAC082C0836C
:10573400E9900DF4F00259BF74F7121BA6E9900228
:10574400EAF07C227D037AFF7BFF12081C9002EBB7
:1057540074FFF0A3F0A3E4F0A3F079051207A4907A
:1057640002EAE0F91206C67A3A7B081209F67F01CA
:10577400021C7874F4121BA68A218B22EB548060DD
:10578400309002EAE0F91211FA8A238B24AE23AF97
:1057940024EE4F60138E828F83E064B0700312078F
:1057A400BCEEFAEFFB1211E8AA21E5226480FB802B
:1057B400047A007B0002598E74F2121BA674FC1248
:1057C4001B36EAFEEBFFEE4F60387402121B82EECA
:1057D400F0A3EF125BF3ECF0A3ED125BF3AA82AB40
:1057E400831206C0E9F52170737412121B821267CA
:1057F400A7E523452460658E828F8312586AEE4F95
:10580400700575210280557A067B001212848A2560
:105814008B26A825A926E8497005752113803D88A3
:10582400828983E4125874A3A3EEF0A3EF126C40B0
:10583400E523F0A3E524F09002F01258FC9002F066
:105844006017E0FCA3E08003EAFCEBFD8C828D830F
:105854001258FC70F38C828D831266CCA9217404D7
:10586400121B4C026E42A3A3A3A3E0FEA3E0FF22FB
:10587400F0A3F0888289832274F2121BA68923E99B
:1058840075F017A4FEAFF09002EFE4F09002ED1271
:1058940058FC600A12128A9002EDE4F0A3F0EEFACA
:1058A400EFFB1212848A218B22EA4522602FEEFC40
:1058B400EFFD79001211D69002EDE521F0A3E52267
:1058C400F07B0080081258E6E4F0A3F00BEBC395DC
:1058D4002340F2E5239002EFF0790080027913026D
:1058E4006E42EB75F017A4F8A9F09002EDE028FAE7
:1058F400A3E0398A82F58322126462EA4B2274F4AB
:10590400121BA6752100752200740C121B82126CE6
:1059140014FEE9FF800CE5212401F521E522340081
:10592400F522C3E5219CE5229D5032852123852261
:105934002474037823121B23EA2523F8EB3524F976
:1059440088828983A3A3A3A3A3A31267A7EE6523D5
:105954007003EF652470BFE8FAE9FB80047A007BEA
:1059640000802774F4121BA67900EAA2E0501B758C
:10597400214A7522817821121DB97C047D007AF6B2
:105984007B0D12079E7402121B4C7F04021C78C00C
:1059940082C0839002F01259C6601C88828983A356
:1059A400A3E06A7003A3E06B8882898370E8A3A3F1
:1059B400A3A312645E80047A007B00D083D08202A9
:1059C400011F126F15E8492274EE121BA674FC1213
:1059D4001B36EAFEEBFF854182854283E4F0A3F0A7
:1059E400EE24021266B0EE2405125BE1EE2404F507
:1059F40027EF125FC6E024FE603924FC604624FED3
:105A0400605224FE605E24FE7003025AE624FE7097
:105A140003025B5E24FE7003025B6D24FE700302CE
:105A24005B7C24FC7003025B8B24FE7003025B9A94
:105A3400025BD79003097417F0A3E4125BFB120412
:105A44003E025BD7854182854283AC82AD831207D7
:105A5400C2025BA7854182854283AC82AD83120773
:105A6400C8025BA78525218526227402121B82ACFD
:105A740082AD8385218285228312645E1206E48AC4
:105A8400258B26AC25AD26EC4D6042E4F525F526A4
:105A94007825121DB97525097526037825121DB9B7
:105AA40075250A7526037825121DB97408121B8200
:105AB400121DD079161264581208047408121B4C73
:105AC400E9F525700B126454120456800F752501F4
:105AD400852182852283125BE91266CC8525210209
:105AE4005BAA7402121B82AC82AD83852582852653
:105AF4008312645E1206E48A298B2AAC29AD2AEC4F
:105B04004D6043852582852683A3A3121DD0752964
:105B140009752A037829121DB975290A752A03788B
:105B240029121DB97408121B82121DD07916126431
:105B3400581208047408121B4CE9F522700B126405
