:020000040000FA
:0600000002010702265375
:03002B00022A9313
:030053000226C6BC
:03007B00022A5BFB
:100083000224BFE5C754F84401F5C77901220000F3
:100093000080FB120086B900030200F1E479437883
:1000A30008B800028004F709D8FCE4794B7802B859
:1000B30000028004F709D8FCE49002817858790B98
:1000C3008002F0A3D8FCD9FA7AD87B0C9001377858
:1000D300FF79038015E493A3AD82AE838A828B8379
:1000E300F0A3AA82AB838D828E83D8E9D9E7758288
:1000F300467583CC7403120119758291758300745C
:100103000012011975D00075817F75418175420216
:10011300759F00020096C09FF59FE473D09F22D085
:1001230083D082C09FE493C0E0740193C0E0740263
:1001330093F59F22010D0947656D696E692D424153
:10014300313030051214005000020A000201060388
:1001530002E0FF42413130300000000000000000A7
:1001630000000000000000006504000071040A0B99
:10017300310B320B330B340B350B360B0A0A02539C
:100183004A00FF4F4B0000534A0043570043573187
:100193003233343536FF0000B4000028002800282D
:1001A3003075A000A000A000A00000080008E00136
:1001B300F00010001000100010001000100050009C
:1001C3005000500010001000D00700000000000095
:1001D3000F0001000500307507001000010081FFCA
:1001E30000000000FF81069F068706FF0202020847
:1001F300025000A0000000E803021082010000EC9E
:1002030081021482010000900D021A82010000CBCA
:1002130002021482010000910D021C82010000E120
:1002230002021482010000920D021E82010000E30B
:1002330002021482010000930D022082080000E4F0
:1002430002021482010000940D0222820100009533
:100253000DFF0100FF20021082010000EF81021454
:1002630082010000F90D0224820000000000021840
:100273008203000031036F0C6F0C6F0C6F0C6F0C5B
:100283006F0C6F0C6F0C6F0C6F0C6F0C6F0C6F0C93
:10029300F10E090FEB0E0202020202020202020138
:1002A3000D0000001001021082010000E38102141E
:1002B300820100003A0E0222810100005807021455
:1002C300820100003B0E02F481010000158102143B
:1002D300820100003C0E02F681010000F980021445
:1002E300820100003D0E020282010000B780021469
:1002F300820100003E0E020482010000A580021468
:10030300820100003F0E0226820100008180021458
:1003130082010000400E020A820100009380021451
:1003230082010000410E02088201000007810214CD
:1003330082010000420E020682010000430E0A43BE
:1003430068617261637465726973746963203100F3
:1003530016436861726163746572697374696320BB
:1003630032000A4368617261637465726973746908
:10037300632033000A436861726163746572697351
:10038300746963203400021082010000E9810214C1
:1003930082010000E20E02FA8103000062070216E6
:1003A30082010000E30E021482010000F40E02FC3D
:1003B30081030000710702188203000081070216FF
:1003C30082010000F50E021482010000060F02FEF6
:1003D300810300008707021682010000070F021441
:1003E30082010000180F0200820300009607021624
:1003F30082010000190F01E803053F100AFFFFFF08
:100403000001307503020106000000000000000037
:1004130000000000000000000000000000000000D9
:1004230000000000FFFF0600800CE8033132333484
:100433003536120122A4D603120122B8D6031201C3
:1004430022BAD603120122BFD603120122C82A0000
:10045300120122EC2C00120122E72E00120122715C
:100463003F001201229E46001201229B4700120107
:10047300228548001201222D5400120122705400DB
:1004830012012249C70312012260C70312012291FC
:10049300C703120122CCC703120122F6C7031201BC
:1004A3002220C80312012237C8031201224EC803B7
:1004B30012012265C8031201228EC803120122A170
:1004C300C803120122B7C803120122CAC8031201CA
:1004D30022F1C80312012251DD0212012255DE026C
:1004E3001201228DDE02120122B0DE02120122BBB2
:1004F300DE02120122DEDE02120122EDDF02120110
:1005030022C2E0021201223DE102120122C5E102F0
:1005130012012200E20212012237E202120122C575
:10052300E2021201229EE302120122FEE302120101
:100533002209E40212012288E4021201228BE4025E
:100543001201228EE4021201221DE5021201222071
:10055300E50212012250E5021201227AE50212019C
:100563002268E6021201221AE70212012200900316
:100573001201222890031201225690031201228DA8
:100583009003120122EB9003120122369103120110
:1005930022819103120122C19103120122079203C6
:1005A300120122359203120122F29203120122FC5C
:1005B30092031201220993031201223C93031201B5
:1005C300220894031201221494031201222C94038F
:1005D300120122369403120122167F0012012224F3
:1005E3007F001201223C7F00120122547F0012017E
:1005F3002242E701120122EEE70112012269E8011A
:100603001201228AE901120122C6E9011201226FB5
:10061300EA0112012256EB01120122BAEC01120186
:100623002211ED0112012292ED0112012282EE014B
:10063300120122CFEE0112012255EF01120122878E
:10064300EF011201229BF101120122DDF1011201DE
:1006530022FBF1011201227EF20112012252F30167
:100663001201221AF401120122DBF602120122AE58
:10067300F70212012257F802120122AAF80212010C
:10068300225AF902120122E6F902120122D2FA02D7
:1006930012012201FB0212012214FC021201225C4C
:1006A300FC0212012231FD021201226DFD02120130
:1006B3002289FD02120122FED303120122EFAD03B0
:1006C30012012205AE031201222BAE0312012247AF
:1006D300AF0312012251AF0312012286B0031201AC
:1006E300227EB103120122D98A03120122098C034B
:1006F3001201223C8C03120122868C031201224D2B
:100703008E0312012253D701120122BDD701120118
:10071300221CD9011201222CD90112012259D9011B
:10072300120122B0D90112012259DA011201226009
:10073300DB011201222ADC011201228ADD011201EE
:1007430022CDDD0112012272DE01120122BFDE0180
:10075300120122E5DE01120122F3E001120122F867
:10076300E001120122FDE2011201224AE30112011A
:1007730022BDE301120122F0E30112012292E401FE
:100783001201223BE50112012273E50112012276D7
:10079300E501120122BEE501120122FEE50112016B
:1007A3002255E601120122C2BA03120122DABA0368
:1007B30012012222BB0312012238BB031201227F42
:1007C300BB0312012293BC0312012220BD031201B9
:1007D300226BBD03120122F55500120122015600BE
:1007E3001201223C560012012281560012012241BD
:1007F3005700120122C75700120122F357001201BA
:10080300222C58001201226A5A001201224E5C0067
:10081300120122345E00120122775F00120122C509
:100823006100120122D76200120122226400120128
:10083300223265001201224F65001201228A6500EF
:10084300120122AC65001201220F6600120122D0B0
:100853006A00120122656B00120122B66B001201BD
:1008630022DD6B001201222F6C001201224D6C005D
:10087300120122A76C00120122A66D001201222A86
:100883006E001201227B850312012285850312016A
:1008930022C88503120122E3850312012273860312
:1008A3001201229B8603120122D886031201220F12
:1008B3008703120122388703120122AD8703120135
:1008C30022C28703120122D7870312012208880359
:1008D3001201221C88031201224188031201227B88
:1008E3008803120122A78803120122DF8803120161
:1008F300223E8903120122BD8903120122E88903E2
:10090300120122138A031201225C8A031201228636
:100913008A03120122B18A03120122CACE031201F1
:100923002250C5021201227EC502120122CCC60248
:10093300120122ACC702120122CBC70212012248C4
:10094300C8021201228BC802120122E1C90212015C
:1009530022A2CA0212012229CD02120122CACD0209
:10096300120122C0CE02120122BDCF0212012217B0
:10097300D102120122A2D1021201229CFE01120114
:100983002205FF0112012259FF0112012280FF01FA
:10099300120122B1FF011201222D99031201229AA1
:1009A3009903120122E19903120122F99A03120118
:1009B30022F59B03120122D89C0312012233F60174
:1009C30012012275F60112012247F70112012220BA
:1009D300F8011201221AF901120122FCF901120194
:1009E3002265FA011201221BFB011201228FFB0176
:1009F300120122FBFB0112012224FC011201229E9F
:100A0300FC0112012237FD011201229CFD0112019A
:100A130022B1FD01120122F7FD0112012210FE0194
:100A230012012275FE0112012278FE01120122C970
:100A3300B703120122F1B7031201222FB8031201E7
:100A430022EDB80312012254B90312012270B90333
:100A530012012298B903120122C8B903120122D745
:100A6300B90312012254BA031201227ABA03120102
:100A730022916E001201226F7000120122A17200F6
:100A8300120122DD72001201220A7300120122F404
:100A930073001201223F74001201228A74001201B2
:100AA300229C7400120122DC7400120122117500D1
:100AB3001201225F75001201228E7500120122B10C
:100AC3007500120122FE75001201228376001201C5
:100AD300229D7800120122DC7A001201221D7B0084
:100AE300120122BF7C00120122007D001201227339
:100AF3007D00120122C47D001201229F7E0012019B
:100B030022C97E00120122F47E001201223BB802A8
:100B130012012239B902120122D2BF02120122F3B9
:100B2300C102120122BEC30212012226C502120112
:100B3300222E8201120122DD82011201222383016E
:100B43001201225984011201228784011201221DFC
:100B53008601120122978601120122B28601120137
:100B6300222D8701120122878801120122E78901C0
:100B7300120122ED8A011201224E8C011201226719
:100B83008C01120122C58C01120122B38D011201C5
:100B930022E68D01120122568E01120122D08E010E
:100BA3001201221A8F01120122E48F01120122B9CC
:100BB3009001120122989101120122239201120144
:100BC3002291920112012205930112012230930115
:100BD300120122EF93011201225495011201227195
:100BE30095011201229095011201228196011201B1
:100BF30022A69601120122D096011201224B9701DF
:100C0300120122A597011201220E9901120122BCA1
:100C13009901120122FD99011201229B9C021201EA
:100C230022E99C02120122F59C02120122D39D02A9
:100C3300120122049E02120122359E02120122B5E4
:100C43009E02120122ED9E021201223F9F02120117
:100C5300227C9F0212012299A102120122BFA30248
:100C6300120122AAA50212012294A702120122F75D
:100C7300FF011201223CAF011201226CAF011201EC
:100C83002245B601120122CAB701120122C7BD01D2
:100C9300120122AFBE01120122ECBE011201220F8A
:100CA300BF0112012240BF0112012249BF011201FB
:100CB3002253BF0112012241C00112012237C10197
:100CC3001201222D9A011201222C9E0112012232BD
:100CD3009E011201226DA50112012286AA011201B1
:100CE3002288B10312012282B203120122F6B20357
:100CF30012012234B303120122A8B30312012221E9
:100D0300B4031201222AB40312012236B4031201DE
:100D1300224BB40312012289B4031201229FB403AC
:100D23001201229A9D03120122A79D03120122C1DF
:100D33009D03120122009E031201223E9E03120113
:100D430022A39E03120122B89E03120122C39E0313
:100D5300120122D09E03120122E79E03120122F503
:100D63009E03120122009F031201220C9F03120112
:100D7300221B9F03120122269F03120122499F0374
:100D8300120122F09F0312012200A0031201221A72
:100D9300A00312012237A00312012253A003120160
:100DA3002278A00312012283A00312012298A00338
:100DB300120122ACA0031201220DA103120122137E
:100DC300A10312012219A1031201221FA10312017F
:100DD3002237A1031201226AA103120122718E029A
:100DE300120122F58E02120122A48F0212012203A4
:100DF3009102120122249302120122109402120181
:100E030022459402120122679402120122169502CE
:100E13001201220E9702120122379702120122C9F0
:100E23009702120122FB9702120122089802120173
:100E3300225F9802120122859802120122F29A027D
:100E4300120122F59B021201224D9C021201220083
:100E530080021201220A8102120122F1810212018F
:100E630022FB81021201221D820212012229820227
:100E7300120122C28302120122F183021201220D06
:100E83008502120122668502120122CC860212011A
:100E930022AB870212012207880212012274880200
:100EA300120122AF8802120122EE8802120122A748
:100EB3008B02120122C18B021201224D8C021201FC
:100EC300225B8C02120122B48C02120122C28C0218
:100ED300120122358D02120122998D02120122E3A1
:100EE3008D0212012223D20212012245D2021201E3
:100EF300226BD40212012280D70212012298D80257
:100F03001201224BD9021201222DDA02120122030D
:100F1300C90312012228C9031201229AC90312012B
:100F23002261EF021201226AEF0212012273EF0221
:100F33001201224AF002120122FBF10212012231B4
:100F4300F2021201226BF202120122A1F202120139
:100F530022DBF2021201220FF3021201223BF302FF
:100F630012012284F302120122BEF30212012207AC
:100F7300F4021201225FF40212012294F40212011C
:100F830022EFF40212012229F5021201227AF5025C
:100F9300120122B0F502120122EAF502120122180F
:100FA300F6021201223BF60212012253D30312016D
:100FB300227FD303120122DAD303120122E4D303E3
:100FC300120122F4D30312012295BD03120122BAA6
:100FD300BD03120122E4BD03120122F4A90312018D
:100FE3002239AA0312012256AA03120122F4AA03E8
:100FF3001201225AAB0312012233AC03120122B6AF
:10100300AD03120122CFB403120122EAB403120189
:101013002219B5031201221FB50312012225B503BC
:1010230012012252B50312012277B5031201228E57
:10103300B503120122A3B503120122F7B50312016E
:101043002270B60312012290B6031201225DD60369
:101053001201224FC301120122B1C50112012268FC
:10106300C70112012265C801120122F5C80112014C
:10107300227CC901120122A1C901120122E2CC0181
:1010830012012258CD0112012247CE011201228101
:10109300CE01120122C1CE0112012267D001120139
:1010A30022BCD00112012209D10112012277D10100
:1010B3001201229DD101120122B7D101120122CDC9
:1010C300D201120122DDD201120122EED30112015B
:1010D3002203D40112012239D401120122BAD5010B
:1010E300120122F9D5011201221ED701120122B0E9
:1010F300D20312012248D30312012214D603120190
:101103002253D60312012240D70312012282D403B1
:1011130012012292D403120122A1D403120122EA62
:10112300D403120122E3CF0312012267D003120179
:1011330022CDD003120122BD9403120122F49403A1
:10114300120122159503120122859503120122F142
:10115300950312012248970312012294CD03120131
:1011630022BCCD0312012230CE0312012280CE0312
:1011730012012251D70312012261C003120122A5D9
:10118300C003120122BBC003120122D6C003120105
:1011930022F1C0031201223CC1031201228BC103BD
:1011A300120122CBC103120122ADC203120122029A
:1011B300D70312012215D70312012219D7031201F3
:1011C3002220D703120122B6D503120122BCD50374
:1011D3001201220AD603120122DDD10312012206D3
:1011E300D2031201222FD20312012247D20312018A
:1011F3002289D2031201220080031201220A8003F2
:101203001201224A8003120122938003120122CD8C
:10121300800312012223810312012242810312015E
:10122300224B81031201229C8103120122C58103F7
:10123300120122CF8103120122408203120122CE26
:101243008203120122238303120122518303120119
:1012530022CD83031201221084031201224D840341
:101263001201225F84031201227E8403120122876A
:1012730084031201224F850312012257D503120161
:1012830022A8CA03120122F9CA0312012282CB0344
:10129300120122E8CB03120122F7C2031201222119
:1012A300C303120122EAC303120122C5C4031201BC
:1012B30022E6D003120122FEFD0212012234FE02B5
:1012C3001201226DFE02120122C6FF02120122ED5B
:1012D300D40312012203D5031201220DD5031201F7
:1012E300228BE70212012248E80212012283E8025C
:1012F300120122ABE8021201220DE9021201225966
:10130300E902120122C4E90212012240EA02120197
:10131300223CEB02120122C3EC0212012246ED022F
:10132300120122AAED02120122C1ED02120122B71B
:10133300EE0212012203EF02120122E7A1031201BE
:1013430022FCA103120122AFA203120122EFA20386
:1013530012012208A3031201223BA30312012288D4
:10136300A303120122BCA303120122FEA303120151
:10137300226FAA02120122CCAD0212012254AF0243
:10138300120122ABAF02120122CAAF02120122489C
:10139300B002120122D8B102120122BCB202120120
:1013A30022C8B60212012298B702120122F4A50341
:1013B3001201223FA6031201226BA603120122048B
:1013C300A7031201222AA703120122B2A7031201C3
:1013D3002214A80312012200A9031201224AA9031D
:1013E30012012237C50312012246C50312012271DD
:1013F300C50312012277C5031201227DC503120121
:101403002298C5031201229FC503120122A6C50318
:10141300120122AAC50312012239C603120122882E
:10142300C603120122ED7F00120122F67F00120192
:1014330022D6D60312012222D703E066701008A336
:10144300E066700A08A3E066700408A3E06622C39E
:10145300E7960809E7960809E7960809E79622C37D
:10146300E09608A3E09608A3E09608A3E09622C0BE
:1014730021C3E096F52108A3E096422108A3E09654
:10148300422108A3E09645217001D3D02122E979B6
:101493009EC608CAC608CBC608CCC6C370207996B8
:1014A300CACBCC7019798ECBCC70137986CC700EE5
:1014B300F9802ACA33CACB33CBCC33CC331930E7C8
:1014C300F2CCCBCA3350147004EA30E00DE4CA3ACC
:1014D300CACB3BCBCC3CCC500209C3E913C6CC18D6
:1014E3002313C6CB18C6CA18C6F92212152E20F02C
:1014F3001430E72B74FFFCFBFA747F8022E4FCFBBF
:10150300FA7480801AB48008BC00F2BB00EF800F2D
:1015130050EBF9E4C39AFAE49BFBE49CFCE499C620
:10152300CC18C6CB18C6CA18C6F922E4C9C608CA5D
:10153300C608CBC6D3330308CCC63392F0C3947F1B
:10154300402E94184019C9B90704CACBCC225025A0
:10155300C309CA33CACB33CBCC33CC33D9F422F44B
:10156300600DC9CCC313CB13CBCA13CAD9F6CC2293
:10157300E4FCFBFA2214FCFBFA22E6261846184682
:10158300184622E72719471947194722181818E65A
:101593000846087009E626087005E633F422082297
:1015A300191919E70947097009E727097005E7338E
:1015B300F4220922E6084608C3134608336002E60C
:1015C30033F422E7094709C3134709336002E733BA
:1015D300F4221215B760251215C6602012157D700E
:1015E30003021586080808E76670101819E7667085
:1015F3000A1819E76670041819E76622F42212150F
:10160300B7601C1215C6601712157D700712158678
:101613007001D322C0D01215867006D0D0B322C376
:101623002233D0D0501430E0F6C3E7960809E7968A
:101633000809E7960809E796B32220E0D5E697085C
:1016430009E6970809E6970809E697B3221215B742
:10165300601B1215C6601612157D70071215866081
:101663000CB322C0D01215867005D0D022C322330A
:10167300D0D0501330E0EBC3E7960809E79608098A
:10168300E7960809E7962220E0E4E6970809E6973B
:101693000809E6970809E697221215C6604612154F
:1016A300B7603DE9687008F618F618F618F6227464
:1016B3008067F71216D0090909748067F72212159B
:1016C300B7601D1215C67005191919801A12158FE6
:1016D300701F1215A3C37003E66733191919400766
:1016E3001818182208080874FFF618F618F618F6E2
:1016F300221215A36017121586702192F012157D20
:101703007019501720F014080808090909E7F6189A
:1017130019E7F61819E7F61819E7F62212157D608E
:10172300E6E869701F0808E62480F608E436F61830
:10173300547FB47F0CE654806007F6E418F618F67D
:1017430022181822E9C6CC08C6CD08C6CE08C6CFD3
:10175300C0E0E8C0E0EAC0E0EBC0E009E9F809E76F
:10176300FA09E7FBE6F918E6F8C3EC98ED99EE9A67
:10177300EBC2E7F5F0EFC2E795F0500E600CEBCF4C
:10178300FBEACEFAE9CDF9E8CCF8EAA2E7D2E7FA28
:10179300EB33FB13F5F0EEA2E7D2E7FEEF33FFC521
:1017A300F013A2E730E601B313C5F0C3C0E0C0F005
:1017B3007F00C39BFB605E9418600F401D14601A8A
:1017C300D0E023F9D0E0F80218A28AF0E9486003D8
:1017D300D2F0E4AFF0FAF9F8803BEB30E40D89F096
:1017E300EA6003D2F0E4AFF0F9CAF8EB30E30D8816
:1017F300F0EF6002D2F0AFF0E4CAC9F8EB5407602F
:1018030014FBC3EA13FAE913F9E813F8EF135002D0
:10181300D2E0FFDBEDD0E0C0E030E739C3E49FFF67
:10182300F5F0EC98FC42F0ED99FD42F0EE9AFE42A1
:10183300F0D0E0F9D0E0F8E5F0607AE923F9EE20A2
:10184300E742D8028067C3EF33FFEC33FCED33FD8F
:10185300EE33FE80EAEC28FCED39FDEE3AFED0E0F3
:1018630023F9D0E0F84002801BC3EE13FEED13FD15
:10187300EC13FCEF135002D2E0FF08B800067F7FA1
:1018830074FF802EEF3350178CF020F00260100CA1
:10189300BC000C0DBD00080EBE000408E860DFE9C3
:1018A30033E813FFEE2313FE4F4D4C8008E95480B9
:1018B300FFE4FEFDFCEE33EF33F47004FCFD7E80A9
:1018C300D0E0FBD0E0FAD0E0F8D0E0CFC618CEC627
:1018D30018CDC618CCC6F922080808EAC0E0EBC048
:1018E300E086F0E7A4FA180986F0E7A42AFA1809B3
:1018F30086F0E7A42AFA180986F0E7A42AFA1986DB
:10190300F0E7A4FBE5F02AFA190886F0E7A42BFB1D
:10191300E5F03AFA190886F0E7A42BFBE5F03AFA6A
:1019230018180986F0E7A4C5F02BFBE43AFA190866
:10193300E7C5F0C6A426F6E5F03BFBE43AFA1886C1
:10194300F0E7A4F6E5F00826F6E43B08F6E43A08E7
:10195300F6D0E0FBD0E0FA226016080808C6C313ED
:10196300C618C613C618C613C618C613C6D5E0EAEA
:10197300227009080808226016181818C6C333C64F
:1019830008C633C608C633C608C633C6D5E0EA223E
:10199300E627F60809E637F60809E637F60809E602
:1019A30037F622E026F608A3E036F608A3E036F67B
:1019B30008A3E036F622E026F008A3E036F008A3F9
:1019C300E036F008A3E036F022C3E697F60809E60E
:1019D30097F60809E697F60809E697F622C3E09614
:1019E300F008A3E096F008A3E096F008A3E096F0D1
:1019F30022E657F60809E657F60809E657F60809F6
:101A0300E657F622E056F608A3E056F608A3E0569A
:101A1300F608A3E056F622E056F008A3E056F008D5
:101A2300A3E056F008A3E056F022E0F608A3E0F6A0
:101A330008A3E0F608A3E0F622E6F008A3E6F00820
:101A4300A3E6F008A3E6F022E0FAA3E0FBA3E0FCA0
:101A5300A3E0FD22EAF0A3EBF0A3ECF0A3EDF02268
:101A6300E0F8A3E0F9A3E0FAA3E0FB22E8F0A3E99E
:101A7300F0A3EAF0A3EBF022CAC0E0E6F0A308DA91
:101A8300FAD0E0FA22CAC0E0E0A3C582CCC582C581
:101A930083CDC583F0A3C582CCC582C583CDC58361
:101AA300DAE6D0E0CA22C3E498F8E499F9121AEA14
:101AB3008026C3E49AFAE49BFBE920E7E9121AEAD9
:101AC300E498F8E499F922C3E498F8E499F9121A2E
:101AD300EAE498F8E499F9C3E49AFAE49BFB22EB6D
:101AE30020E7CFE920E7E0B90010BB0008E88AF05F
:101AF30084F8AAF022E4FBC8FA22EB70227B10C818
:101B030033C8C933C9335007C39AC3DBF280069A7B
:101B130050012ADBEAC833F4C8C933F4C9FA227581
:101B2300F008E4C833C8C933C933C99AC99B500400
:101B3300C92AC93BD5F0ECFBC833F4C8E4C9FA227F
:101B4300600D08C6A2E713C618C613C6D5E0F32274
:101B5300600C08C6C313C618C613C6D5E0F42270BA
:101B63000422600D18C6C333C608C633C6D5E0F4D5
:101B73001822254110AF08F541400C15428008F5A5
:101B83004140021542D2AF2200C0D0254110AF0818
:101B9300F541500C05428008F54150020542D2AF91
:101BA300D0D0222541F58210AF08F541400C1542F3
:101BB3008008F54140021542D2AF85428322254178
:101BC300F582E43542F583222541F8E43542F922D2
:101BD3002541FAE43542FB222541FCE43542FD224E
:101BE300E4732541C582C0E0E54234FFC583C0E00C
:101BF300E541C3958224F810AF088583428582416D
:101C03008008858342858241D2AFCEF0A3E520F0E0
:101C1300A37821E608F0A3DEFAEFF0A3E58124FA26
:101C2300F8E608F0A3E608F0A3E608F0A30808E640
:101C330008F0A3E608F0A315811581D0E0FED0E0FB
:101C4300F8158115811581E8C0E0EEC0E022254139
:101C5300C582C0E0E54234FFC583C0E0E541C395DA
:101C63008224F910AF0885834285824180088583E9
:101C730042858241D2AFCEF0A3E520F0A37821E6DE
:101C830008F0A3DEFAEFF0A3E58124FBF8E608F001
:101C9300A3E608F0A30808E608F0A3E608F0A315F6
:101CA300811581D0E0FED0E0F815811581E8C0E010
:101CB300EEC0E022854283854182E0A3FEE0A3F5E6
:101CC300207821E0A3F608DFFAE0A3FFE0A3C0E059
:101CD300E0A3C0E0E0A3C0E0E0A3C0E0E0A3C0E075
:101CE30010AF0885824185834280088582418583C0
:101CF30042D2AFD083D08202011F854283854182C5
:101D0300E0A3FEE0A3F5207821E0A3F608DFFAE0E4
:101D1300A3FFE0A3C0E0E0A3C0E0E0A3C0E0E0A332
:101D2300C0E010AF088582418583428008858241E7
:101D3300858342D2AFD083D08222C0D02541C582D1
:101D4300C0E0E54234FFC583C0E0E541C39582248A
:101D5300F310AF08858342858241800885834285DD
:101D63008241D2AFC8F0A3E9F0A3EAF0A3EBF0A35A
:101D73007921E709F0A3D8FAECF0A3EDF0A3EEF094
:101D8300A3EFF0A3D0E0F0A3D0E0F0A3D0E0F0A362
:101D9300E520F0A3E5F0F0A322854283854182E0AC
:101DA300C0E0A3E0F9A3E0FAA3E0FBA37821E0F607
:101DB30008A3DFFAE0FCA3E0FDA3E0FEA3E0FFA39A
:101DC300E0C0E0A3E0C0E0A3E0F5D0A3E0F520A3EA
:101DD300E0A3F5F010AF0885834285824180088532
:101DE3008342858241D2AFD082D083D0E0F8D0E065
:101DF3003274048006740280027401C0E0F4041299
:101E03001BA6D0E0121A7B227404800474028000A3
:101E1300CCC0E0EDC0E0E541C39CCCAD4250011D18
:101E230010AF068C418D4280068C418D42D2AF1299
:101E33001A88D0E0FDD0E0FC22D083D082E9C0E054
:101E4300E493A3C386F0C5F095F0F908E493A38661
:101E5300F0C5F095F0700BE493A3C3994005E90432
:101E63008002A3E475F002A42582F582E5F03583B0
:101E7300F583D0E0F9E493A3C0E0E493C0E022D07B
:101E830083D082ECC0E0EDC0E0E493A3FCE493A331
:101E9300FDED4C600D121ECEEC24FFFCED34FFFD76
:101EA30080EFE493A3FCE493A3FDED4C600D121FBC
:101EB3000DEC24FFFCED34FFFD80EFD0E0FDD0E01E
:101EC300FCE493A3C0E0E493C0E022C0E0C3E49346
:101ED30096087401939618400FE49366700808748B
:101EE3000193661870007019A3A3C3E49396087452
:101EF30001939618A3A3400DD0E0D0E0D0E0021EDA
:101F0300BEA3A3A3A3A3A3D0E022C0E0C0F088F0A4
:101F1300E4936670080874019366187000A8F0A330
:101F2300A3700BD0F0D0E0D0E0D0E0021EBEA3A39C
:101F3300D0F0D0E02274F5121C51EAFEEBFFEE2440
:101F430034F8EF3400F988218922EE2435F582EF45
:101F53003400F583E0F8EE2437F582EF3400F5839F
:101F6300E0F523EC8523F0A4FCAAF08523F0EDA48F
:101F73002AFDE82CF8E43DF97A257B00121AEAEAF7
:101F8300852182852283F0F8740758F97401B9001A
:101F9300028004C333D9FCFAE8131313541FF8EE79
:101FA30028F8EF3400F9E8245DF582E93400F5837D
:101FB300E05A6008EE2434F582EF802CEE2434F5E9
:101FC30082EF3400F583E0C0E0EE2436F582EF348F
:101FD30000F583E0F5F0D0E084A8F0EE28F8EF34C4
:101FE30000F9E82438F582E93400F583E0F97F0449
:101FF300021CFD74F5121C51EAFEEBFFEE2434F5CE
:1020030082EF3400F583E0C0E0EE2435F582EF344F
:1020130000F583D0E0F08E828F83A3A3A3A3A3A3B1
:10202300A3C082C0838E828F83A3A3A3A3A3E0F85C
:10203300A3E0F9D083D082E0C398F521A3E099F51A
:1020430022EE247FF582EF3400F583E064017069AA
:10205300EE2480F582EF3400F583E0F8A3E0F98EF7
:10206300828F83A3A3A3A3A3A3A3E0FCA3E0FD8E7A
:10207300828F83A3A3A3A3A3E0FAA3E0FBC3EA9CF9
:10208300EB9D5010C3EC98ED99402EC3EA98EB9961
:102093005027800EC3EA98EB994007C3EC98ED995B
:1020A30040177CF47D04EEFAEFFB120BCDEE247F98
:1020B300F582EF3400F583E4F0EE2434F8EF3400D6
:1020C300F9E8FCE9FDEE2435F582EF3400F583E011
:1020D300F8EE2437F582EF3400F583E0F523E521AC
:1020E3008523F0A4F521AAF08523F0E522A42AF59F
:1020F30022E82521F8E43522F97A257B00121AEA31
:10210300EA8C828D83F0F8740758F97401B90002E0
:102113008004C333D9FCFAE8131313541FF8EE28D1
:10212300F8EF3400F9E8245DF582E93400F583E043
:102133005A6008EE2434F582EF802CEE2434F582C5
:10214300EF3400F583E0C0E0EE2436F582EF34008F
:10215300F583E0F5F0D0E084A8F0EE28F8EF340042
:10216300F9E82438F582E93400F583E0F9122A4DC1
:10217300021FF1C082C083854182854283E0F8A3B8
:10218300E0F9C3EA9CEB9D5010C3EC98ED99401B1A
:10219300C3EA98EB995014800EC3EA98EB99400771
:1021A300C3EC98ED994004790180027900D083D083
:1021B3008222EAC39CFAEB9DFB2274EF121C51901E
:1021C30003BAE064086005E06407702A9061C8E020
:1021D30060249003E8E0F4601DE0F875F003A4C800
:1021E300AAF02AF974EA28FE740339FF8E828F83DA
:1021F300A3A3A3E070030222ED906060E0C0E0EED1
:102203002468F582EF3400F583D0E0F075255D7521
:102213002605752100752200E5D914F523E5D95467
:1022230003F527601774036527605CE5236010EEF0
:102233002467F582EF3400F583E070030222D29025
:102243000558E06401602AEE2482F582EF3400F53C
:1022530083E06004780480027800852321E521C3AC
:1022630098FA95E0FB120A838A218B22EA452270B1
:1022730005120DBF8074EE2482F582EF3400F583DE
:10228300E070048A258B26E5236012852582852646
:1022930083F524E5D9F0A31524E52470F6EE248212
:1022A300F582EF3400F583E0604474FC2523F523C5
:1022B3007825121DF8AC23A927EEFAEFFB120C695F
:1022C3007402121B8BE97026AA21AB2212128779A2
:1022D3003D8E828F83A3A3A3A3E0FA7B0012095749
:1022E300EEFAEFFB120BE5120C7B7900807474039A
:1022F30065276056852329752A007829121DF8ACB5
:1023030025AD26AA21AB22120C457402121B8BEEBB
:102313002468F582EF3400F583E064807004747FF1
:102323008001E0F5257825121DFCE527F5257825A4
:10233300121DFCA923AC21AD229003E8E0FA7B0037
:1023430012091B7402121B8B80139003BAE06408FA
:10235300600BAC25AD26EEFAEFFB120CD5120DCBBC
:1023630079017F0A021CFD74F5121C5174FC121BC7
:1023730075EAFEEBFF8921A2AFE433F522C2AF80F9
:102383006AEE2463F8EF3400F97A007B00A2AFE42D
:1023930033F523C2AF88828983E0FCA3E0FDEC4DD3
:1023A300603A88828983E0FAA3E0FB8A828B83E028
:1023B300FCA3E0FD88828983ECF0A3EDF08A828B95
:1023C30083E4F0A3F088828983E0FCA3E0FDEC4D75
:1023D300700A88828983A3A3E4F0A3F0E523A2E033
:1023E30092AF1212879004FBE004F0EE2463F582AF
:1023F300EF3400F583E0F8A3E0F9E849603DEE240B
:1024030063F582EF3400F583E02402FAA3E034009D
:10241300FBEA2402F523EB3400F5247823121DF89C
:102423008A828B83E0FCA3E0F9EEFAEFFB120C093E
:102433007402121B8BE970030223849004FBE06097
:10244300639004FCE0F89004FBE0C398500C740222
:10245300652170509004FDE0604A8E828F83A3A3B0
:10246300A3A3E0854182854283F0A3E4F09004FBBB
:10247300E0F87402121BC1E8F0A3E4F09004FBE05F
:10248300F89004FAE028F07402121BC1AC82AD8309
:10249300854182854283AA82AB8379011209279001
:1024A30004FBE4F0E522A2E092AF7404121B8B025A
:1024B3001FF10000008543878544C622C0E0C0D0D9
:1024C300E8C0E0E9C0E0EAC0E0EBC0E0ECC0E0ED6A
:1024D300C0E0EEC0E0C021C022C023C024C082C03F
:1024E30083C0F0A2AFE433FEC2AF759B009061825C
:1024F300E0A2E05012E591A2E0500C7591FE740148
:10250300654370031221BDE0A2E55051E591A2E5B8
:10251300504B7591DF9003BAE064076005E06408EF
:10252300702374016543703579019003E8E0FA750F
:10253300F003A4CAA8F028FB74EA2AFA74033BFB4D
:1025430012236A8018E0640D70139003DCE004F03A
:1025530064287002E4F07A00E0F9120DD1906182F0
:10256300E0A2E64003022606E591A2E64003022626
:10257300067591BF9003BAE064057008120CFF1250
:102583000D0B8003120D05754300120D5FE99003D7
:10259300BBF07900120D53120B3D7A017B009003BF
:1025A300B9E0F9121251907803E064427055900536
:1025B3005CE014F0704DC2AF1225BE00784CD0E041
:1025C300F618D0E0F6E59F540770057522FF8003E7
:1025D30075227FC4C0E0784BE6F52108E65522F565
:1025E30022740B7821121B53D0E02521F8906270DE
:1025F300E0A2E740F8E8C333906272F0906270E0C3
:10260300D2E0F0906181E0A2E35009E5E9A2E35052
:102613000375E9F7A3E0A2E75009E591A2E75003A8
:1026230075917FEEA2E092AFD0F0D083D082D02418
:10263300D023D022D021D0E0FED0E0FDD0E0FCD0EA
:10264300E0FBD0E0FAD0E0F9D0E0F8D0D0D0E0322F
:10265300C0E0C0D0C082C083906183E0A2E0500993
:10266300E5BFA2E0500375BFFEE0A2E15009E5BF5C
:10267300A2E1500375BFFDE0A2E25009E5BFA2E26B
:10268300500375BFFBE0A2E35009E5BFA2E350038B
:1026930075BFF7E0A2E45009E5BFA2E4500375BF9C
:1026A300EFE0A2E55009E5BFA2E5500375BFDFE007
:1026B300A2E65009E5BFA2E6500375BFBFD083D0A1
:1026C300828088C0E0C0D0E8C0E0E9C0E0EAC0E0B2
:1026D300EBC0E0ECC0E0EDC0E0C0F0E5A7A2E6503F
:1026E3000FE5A1A2E6500953A7BF75A1BF12272B7F
:1026F300E5A7A2E5500CE5A1A2E5500653A7DF75B7
:10270300A1DFE5A7A2E15009E5A1A2E1500375A16C
:10271300FDE5A7A2E2500CE5A1A2E2500653A7FBF8
:1027230075A1FBD0F002263C74F8121C51754301CD
:102733009003BAE064067015120C998A828B83A306
:10274300A3A3A3A3A3E0FAA3E0FB120CEDA2AFE4BF
:1027530033FED2AF9003C0E0640170187A207B008F
:102763009003B9E0F912135F7A207B009003B9E07C
:10277300F9121257906182E0D2E6F0900559E060B9
:102783002185C64480169003BFE064017008E5C646
:1027930054F84405F5C653BEFC1224B874016543CE
:1027A30060E4EEA2E092AF7F01021CFD008E458F34
:1027B3004685824A858349854182854283E0CEA34B
:1027C300E0CF854A82854983EBC9EAC8EDCBECCAE1
:1027D30075F010C3E833C8E933C9EA33CAEB33CB26
:1027E300C3EA9EF548EB9FF547B35004AB47AA48AD
:1027F300EC33CCED33CDD5F0DAAE45AF462274EDF4
:10280300121C518A218B228C238D247413121BC119
:102813007825121A2D7821792512145275290175FC
:102823002AC8752B00752C005012782179251219AE
:10283300CC782979211214525016801078257921E9
:102843001219CC7829792512145240047901800297
:1028530079007F0C021CFD74ED121C518A218B221E
:102863008C238D247413121BC17825121A2D7825FD
:1028730079211214524011782179251219CCAA21F9
:10288300AB22AC23AD248022752900752A00752B59
:1028930000752C01782979251219CC782979211210
:1028A3001993AA29AB2AAC2BAD2C80A68A828B83E1
:1028B3007521FF7522FF7523FF7524007821121AF5
:1028C3001A7F04021CFD74F5121C518C828D8378CF
:1028D30021121A2D8A828B8378211219E0EA2404AB
:1028E300F8EB3400F98C828D83A3A3A3A3E0FCA3AC
:1028F300E0FD88828983C3E09CF0A3E09DF0888299
:102903008983C3E09420A3E0944E40268A828B837C
:102913007521FF7522FF7523FF7524FF7821121996
:10292300B98A828B83A3A3A3A3E02420F0A3E0347A
:102933004EF00228AF74F5121C51E9FE90050FE02A
:10294300FAA3E0FBEEC333F8E433F974E928F58224
:10295300748039F583E02AF521A3E03BF522782141
:10296300121DF87A407B427C0F7D001227B074025F
:10297300121B8B8A218B228C238D247410782112B5
:10298300195BAA21AB227F04021CFD74F1121C51B6
:102993008A258B268C278D28740F121BC1E0FAA37E
:1029A300E0FB7411121BC1E0F521A3E0F5227821AD
:1029B300121DF8EA2401F521EB3400F522E4F52396
:1029C300F524782579211218DB7521717522027897
:1029D3002579211218DBAA25AB26AC27AD281227AF
:1029E300B07402121B8B8B22EA452260047A0180A9
:1029F300027A00EC2AFCED3400FD7413121BC1E0D3
:102A0300F8A3E0F9E8FEE9FFECF8EDF97A717B024F
:102A1300121AEA882189228E828F837821121A3C26
:102A2300ECF8EDF97A717B02121AEA8A218B22748F
:102A3300057821121B628E828F83A3A3A3A3E521B2
:102A4300F0A3E522F07F08021CFDC082C083E99059
:102A53006000F0D083D08222C0E074F2121D3DA248
:102A6300AFE433FED2AFE58AA2E4400CE58AA2E6E6
:102A73004006E58AA2E7500312116D538AEF538A89
:102A8300BF538A7FC2EBEEA2E092AF7F01021D9C8F
:102A9300C0E0C0D0E8C0E0E9C0E0A9A8D2AFC2C797
:102AA300E9A2E7E433F8E9A2E792AFD0E0F9D0E096
:0C2AB300F8D0D0D0E032C2AF0200002208
:102AC000FFFFFFFFFFFFFFFF74F6121BE574EE121E
:102AD0001B75E9900281F01211C77C017D007A1FFD
:102AE0007B0012056D854182854283E4F0740C12EF
:102AF0001BC1E4F0A3F004121BC17401F0740A12AC
:102B00001BC17414F0A3E4F07408121BC17450F0DC
:102B1000A3E4F07406121BC1E4F0A3F07404121BCA
:102B2000C17464F0A3E4F0AC41AD4279017A057B55
:102B300003121371740C121BDB79027A067B0312E9
:102B400013717CD97D0C79177A087B031213717C81
:102B5000F07D0C79077A077B031213717401121B45
:102B6000DB79017A107B03121371740A121BDB7973
:102B7000027A117B031213717408121BDB79027A3B
:102B8000127B031213717406121BDB79027A137B1A
:102B9000031213717404121BDB79027A147B031283
:102BA00013717CF77D0C7A1579001206E77CA07D05
:102BB000007A067B0012056D7CA07D007A077B0001
:102BC00012056D7CA07D007A087B0012056D7CA04B
:102BD0007D007A097B0012056D740E121BC112462E
:102BE0007C04121BC112465C7403121BC1E4F07416
:102BF00002121BC17401F0740E121BDB79047A08F7
:102C00007B041210537401121BDB79017A007B04E0
:102C1000121053AC41AD4279017A027B0412105379
:102C20007403121BDB79017A037B041210537402C4
:102C3000121BDB79017A067B0412105390819612E5
:102C40001A4B1206ED908196121A4B1207F5120FCD
:102C5000C9908196121A4B120FDB900281E0F91293
:102C600011E512142512043512043B1213FB121441
:102C70000D1211AF12100512100B90822CAC41AD49
:102C8000427401121A88A841A94288218922782118
:102C9000121DF87C017D007AF07B1F12114F740227
:102CA000121B8B854182854283E064AA6003120473
:102CB0007D12119D7AF47B011211797A107B0D122D
:102CC0000FE179011208F179021208EB790012087C
:102CD000F779011208FD7A017B00900281E0F91278
:102CE00012517412121B8B7F02021CB774EC121B60
:102CF000E574FD121B7589239081DAAC41AD4274F5
:102D000003121A887A08FB1212C38A218B22AE2181
:102D1000AF22C2AFA841A942882189227821121D81
:102D2000F87C017D007AFE7B1F12114F7402121B8A
:102D30008B7401121BC18582218583227821121D8B
:102D4000F87C017D007AFF7B1F12114F7402121B69
:102D50008B7402121BC18582218583227821121D6A
:102D6000F87C017D007AF07B1F12114F7402121B58
:102D70008BD2AF1204478A218B221204478A258BFB
:102D8000261204478A278B28A827A928C3E521955E
:102D900025E52295265052C3E52598E5269940520F
:102DA000C3E52198E52299405A85212985222AE404
:102DB000F52BF52C7829121491900A337829121AE0
:102DC0003C854182854283E0603FF525E4F526F5A8
:102DD00027F52878251214917829792512169C90C8
:102DE0000A337829121A3C8046C3E89525E99526CE
:102DF000500885252985262A80B5C3E89521E995BF
:102E00002250A68829892A80A67401121BC1E0F8E5
:102E1000601D8825E4F526F527F5287825121491FC
:102E2000782579291216C1900A337825121A3C9018
:102E30000A337825121A2D9081C67829121A2D7816
:102E40002579291216505007900A37746480297822
:102E5000251214EEE52524BDF8E52634F9F9E875C8
:102E6000F064A4F8AAF075F064E9A42AF97A547B16
:102E700001121AEAE8900A37F0900282E0640570C5
:102E8000577401652370518E828F837431F0EE2464
:102E900002F8E43FF9E8FAE9FBA3A882A98375F0F8
:102EA0000A900A37E084940A88828983400A740170
:102EB000F08A828B83E4801AE4F0900A37E0F87598
:102EC000F00A84A9F075F00AE884C454F0298A82D3
:102ED0008B831253BB120FE7EEFAEFFB1212C9906D
:102EE0000A37E0F902469474E8121BE574F6121BE7
:102EF00075EAFEEBFF5480603A900281E0F912120D
:102F0000398A218B22EA452260218A828B83E06400
:102F1000C07011A3A3A3E0FA8521828B83A3A3E051
:102F2000F912045FAA21AB22121227EEFAEF648095
:102F3000023EFBEEA2E050207A0C7B0D12137D7A4C
:102F4000857B021210717A407B00900281E0F912B9
:102F50001251EE6401023EF95402602012046B909B
:102F6000817E121E0B7A027B00900281E0F912131F
:102F7000537404121B8BEE6402023EF9EE5440704F
:102F800003023093900CD8E0700474018001E4F0E7
:102F90008541828542837401F0121383AC41AD42B6
:102FA00079017A057B031213717A027B009002810A
:102FB000E0F9121251900CD8E064017048C2AF756C
:102FC000213875220A7821121DF87C277D027A00AB
:102FD0007B0012114F7402121B8B75215F75220C3E
:102FE0007821121DF87C787D007A007B1012114F39
:102FF0007402121B8BD2AF12103B1211A97900126E
:1030000011D302308D900A01E4F0900A0FF0A3F082
:103010009009FFF09009F7F01211C112140D12116E
:10302000A9900A2EE07008900A30E06401701C90AC
:103030000A2EE0C2E7F0C2AF7C977D097A5E798004
:10304000121329D2AF900A2EE07008900A30E06483
:1030500002703AC2AF75213875220A7821121DF824
:103060007C277D027A007B001211557402121B8BA3
:1030700075215F75220C7821121DF87C787D007A0D
:10308000007B101211557402121B8BD2AFEE6440FC
:10309000023EF9EF540270030231537A007B029032
:1030A0000281E0F912135F7A007B04900281E0F95B
:1030B00012135F900A01E0700474018001E4F09043
:1030C0000A0FE4F012140D900A27E4F0900A10128F
:1030D00046891213BF900A01E085418285428360D0
:1030E00022E4F0121383AC41AD4279017A057B03EF
:1030F0001213717A027B00900281E0F912135F795A
:103100000380457401F0121383AC41AD4279017A1A
:10311000057B031213717A007B10900281E0F91293
:10312000135F7A007B20900281E0F912135F7A022C
:103130007B00900281E0F91212517A407B009002EC
:1031400081E0F912125179271211D3EEFAEF6402DD
:10315000023EFBEF540470030236A5900A1012469B
:103160006712135F7A007B10900281E0F912135FFF
:10317000900A04E0F8900A0FE06033147003023202
:103180003814700302336914700302344514700359
:1031900002348A1470030234FC14700302358A145A
:1031A00070030236181470030236400236917521FE
:1031B000067522007821121DF87C047D0A7A977B1F
:1031C000091213B97402121B8BE9900A0F6018746C
:1031D00001F079221211D37C0A7D0079FF7A047BF9
:1031E0000A1213BF023691E4F079041211D3900A47
:1031F00027E004123F651213BF900A27E0C394062C
:10320000500302369112103B7ABC7B07121047EA3A
:10321000C0E0EBC0E0ECC0E0ED900A28FBD0E0FAA3
:10322000D0E0F9D0E0F8121A6F7A407B009002816A
:10323000E0F91212510236917521027522007821AF
:10324000121DF87C047D0A7A127B0D1213B97402E8
:10325000121B8BE9600B900A0F7402F079050233A0
:10326000437821121DF87C047D0A7A147B0D121319
:10327000B97402121B8BE9600B900A0F7403F0798A
:10328000090233437821121DF87C047D0A7A167BEB
:103290000D1213B97402121B8BE96010900A0F749F
:1032A00004123F651213BF790D0233437821121DBA
:1032B000F87C047D0A7A187B0D1213B97402121B74
:1032C0008BE9600C79121211D3900A0F74058022D9
:1032D0007821121DF87C047D0A7A1A7B0D1213B92D
:1032E0007402121B8BE9601979121211D3900A0F24
:1032F0007406F07A007B20900281E0F9121251806E
:103300004A7821121DF87C047D0A7A1C7B0D121369
:10331000B97402121B8BE9600A900A0F7407F079E6
:103320001980207821121DF87C047D0A7A1E7B0DFD
:103330001213B97402121B8BE9900A0F600A740809
:10334000F0791D1211D380037401F090816A121E6E
:103350000B7A007B10900281E0F91213537404126F
:103360001B8B900A10E40236907A047B001212C381
:103370008A218B2212462B121B6212461C6003020A
:10338000342B9009F7E06401600302342BE9900AC2
:1033900024700AE0D2E41253D5D2E78008E0D2E5E7
:1033A0001253D54441F09009F8E0FC8C23752400B9
:1033B00074037823121B6274972523F8740935244B
:1033C000F9E8FAE9FBEC8A828B83A3A3A3A3A3A366
:1033D0001253B1121DF87C1E7D0AEA2407FA50012F
:1033E0000B1211FD7402121B8B7C0679007A1E7B76
:1033F0000A120477E9F52379071211D38521828512
:103400002283742FF09009F8123F31F0900A2412B1
:103410003F31A312539FA3A3A3E523F07C077D00B4
:1034200079007A1E7B0A1213BF800579241211D30A
:10343000AA21AB221212C99009F874FFF09009F783
:10344000E4F002368B7521067522007821121DF8F2
:103450007C047D0A7A117B0A12120F7402121B8BF4
:10346000E960207821121DF87C117D0A7A977B098A
:103470001211FD7402121B8B900A2EE04442F07967
:103480000B8002790C1211D380627521067522001F
:103490007821121DF87C047D0A7A117B0A12120F22
:1034A0007402121B8BE960399009F912533BF874CE
:1034B0000A39F9E8FAE9FBEC8A828B83A3F07821D8
:1034C000121DF87C117D0AEA2402FA50010B121138
:1034D000FD7402121B8B900A2EE04444F079118097
:1034E00002790C1211D39009F974FFF07C067D006B
:1034F00079BB7A117B0A1213BF02368B7A087B00E4
:103500001212C38A218B229081447404121BDB7433
:1035100006121A88900A04E0640B600302360F75E5
:1035200025001252FC121DF87406121BDBAA23ABF5
:10353000241213B97402121B8BE9603C75250675C1
:1035400026007825121DF87C177D0AAA23AB2412C9
:1035500011FD7402121B8B900A0F7401F07C067D22
:103560000079BB7A177B0A1213BF900A2EE04448F9
:10357000F079141211D3800F7409652560090525AF
:10358000E525C3940A409B02360F7A087B0012128D
:10359000C38A218B227523027524007823121DF81B
:1035A0007C047D0A7A207B0D1213B97402121B8BE6
:1035B000E9605C7525001252FC121DF87C177D0A2B
:1035C000AA23AB241213B97402121B8BE9602C7C62
:1035D000067D0079FFAA23AB241213BF7C067D0071
:1035E00079BB7A177B0A1213BF900A0F740112532A
:1035F000D54448F079181211D380147409652570E8
:103600000579171211D30525E525C3940A40A7AA09
:1036100021AB221212C98073740B68706E7C077D17
:103620000079BB9009F9E08CF0A4FAABF074392A68
:10363000FA740A3BFB1213BF900A2EE04444804503
:10364000740B6870469009F9E0F521752200740347
:103650007821121B6274972521F874093522F9E844
:10366000FAE9FB8A828B83A3A3A3A3A3A374FFF02D
:103670007C077D007900EA2CFA50010B1213BF90F1
:103680000A2EE04441F0791B1211D3900A0F740105
:10369000F09009F974FFF01246851213BFEEFAEFAD
:1036A0006404023EFBEE540860799081DD740112DF
:1036B0001BDB7403121A889009F5E06401705E90B8
:1036C0000282E064057056900A01E0F8900A2EE04C
:1036D000F96028E87025E0A2E74020900A25E4126E
:1036E00053D5D2E6F07C0379007A227B0D12047761
:1036F000E9900A25F07C227D0D801B7401121BC10C
:10370000E9F07402121BC1E8F07403121BC17405C6
:10371000F07401121BDB7A037901120FE7EE6408E3
:10372000023EF9EF5408700302389B7A007B089040
:103730000281E0F912135F752100E52175F007A4FD
:10374000F8A9F0743828F523740A39F5247525068C
:103750007526007825121DF87C047D0AE523240CCB
:10376000FAE5243401FB1213B97402121B8BE960D1
:1037700027900C5C7404F0E521A31253D544601229
:103780003F651213BF7C077D0079BBE523240BFA4C
:10379000E5243401FB0238307825121DF87C047DC5
:1037A0000AE5232402FAE43524FB1213B974021249
:1037B0001B8BE96007900C5C7401806D7825121DED
:1037C000F87C047D0AE5232452FAE5243401FB1237
:1037D00013B97402121B8BE96007900C5C740580AE
:1037E000487825121DF87C047D0AE5232498FAE523
:1037F000243401FB1213B97402121B8BE960079089
:103800000C5C740680237825121DF87C047D0AE583
:103810002324DEFAE5243401FB1213B97402121BCF
:103820008BE9601D900C5C7407F0E521A3123F65E5
:103830001213BF7A107B00900281E0F912125180BE
:1038400052740965217040900A27E004F0C3940681
:10385000403012103B7ABC7B07121047EAC0E0EB05
:10386000C0E0ECC0E0ED900A28FBD0E0FAD0E0F92F
:10387000D0E0F8121A6F7A407B00900281E0F912D2
:10388000125179041211D30521E521C3940A500382
:1038900002373AEEFAEF6408023EFBEF5401700380
:1038A00002399412103B7ABC7B071210478A218B95
:1038B000228C238D24752D00852D25752600E52568
:1038C00075F007A4F8A9F0743828F527740A39F5BB
:1038D0002874027825121B62745F2525F52F740C5D
:1038E0003526F530852F82F5837829121A2D90819F
:1038F000CA78291219A678297921121452401985FB
:103900002F82853083123F5A2451123F422452FAAB
:10391000E5283401FB1213BFE52F2428123F0C12B7
:103920001A2D9081BE78291219A6782979211214AE
:10393000524013123F542497123F422498FAE5282C
:103940003401FB1213BFE52F2450123F0C121A2D25
:103950009081BA78291219A6782979211214524037
:1039600013123F5424DD123F4224DEFAE5283401CD
:10397000FB1213BF052DE52DC3940A50030238B87E
:103980007A007B01900281E0F912135FEEFAEF6496
:1039900001023EFBEE54107003023B9A900A31E0A4
:1039A000600C7A007B40900281E0F912135F90096D
:1039B000FFE0F860057403687015E004F09002847D
:1039C000E0700474018001E4F09081B2023B8074E5
:1039D000016870347402F01211B59081AA121E0BA6
:1039E0007A107B00900281E0F91213537404121BC9
:1039F0008B7A027B00900281E0F912135F9081A61E
:103A0000121E0B7A40023B8574046870097405F03D
:103A10001211BB023B7D7406686003023B5DE4F05B
:103A200012103B900A2EE04450F0900C5EE0C394DC
:103A300010400A740FF0900C5BF01213AD900C5B09
:103A4000E0F8C0E075F009A4F8A9F074B328F58295
:103A5000740A39F583D0E0F0900C5CE0C0E0123FCE
:103A60003674B428F582740A39F583D0E0F0900CEE
:103A70005DE0C0E0123F3674B528F582740A39F56E
:103A800083D0E0F09007BCE0C0E0123F3674B62867
:103A9000F582740A39F583D0E0F09007BDE0C0E00C
:103AA000123F3674B728F582740A39F583D0E0F0F6
:103AB0009007BEE0C0E0123F3674B828F582740A61
:103AC00039F583D0E0F09007BFE0C0E0123F3674D4
:103AD000B928F582740A39F583D0E0F09007C0E088
:103AE000C0E0123F3674BA28F582740A39F583D0E3
:103AF000E0F09007C1E0C0E0123F3674BB28F582C9
:103B0000740A39F583D0E0F0900C5EE004F0900C7C
:103B10005BF0900A2712487A12135F90819E121E62
:103B20000B7A027B00900281E0F9121353740412A5
:103B30001B8B908192121E0B7A407B00900281E0D9
:103B4000F91213537404121B8B900A31E060457A0A
:103B5000007B40900281E0F91212518037740268B4
:103B600070107403F01211C1791F1211D390819259
:103B7000800E740568701D7406F01211C19081AA40
:103B8000121E0B7A107B00900281E0F9121353741D
:103B900004121B8BEE6410023EF9EE5404602F8574
:103BA00041828542837401F0121383AC41AD4279A6
:103BB000017A057B031213717CF77D0C7B157A006B
:103BC000900281E0F912066FEE6404023EF9EE54B1
:103BD000806048A296401B79001211D37A407B0086
:103BE000900281E0F912135F90818E121E0B7A8091
:103BF00080147A807B00900281E0F912135F90813B
:103C0000A6121E0B7A407B00900281E0F91213533A
:103C10007404121B8BEE6480023EF9EE5420700394
:103C2000023CE97A207B00900281E0F912135FA246
:103C3000975003023CE990822BAC41AD42740112D3
:103C40001A8879011211D31213DD1213D11213D76E
:103C50001213CBC2AF7C977D097A5E79801213294B
:103C600075213875220A7821121DF87C277D027A89
:103C7000007B001211557402121B8B75215F752297
:103C80000C7821121DF87C787D007A007B101211CF
:103C9000557402121B8BA841A942882189227821E0
:103CA000121DF87C017D007AF07B1F121155740201
:103CB000121B8B7821121DF87C017D007AFE7B1F80
:103CC0001211557402121B8B7821121DF87C017D94
:103CD000007AFF7B1F1211557402121B8BD2AFC2E8
:103CE000AF75C9AB75C95B80FEEF54207003023E0F
:103CF000217A087B001212C38A218B227A007B1062
:103D0000900281E0F912135FEEF523EF6420F524B1
:103D1000AA21AB2212141FE97003023DFC7A00EACB
:103D2000F8E52128F582E43522F583A3E0700374D9
:103D300030F00AEAC3940640E6852182852283A3F7
:103D4000AE82AF83900A0FE0F8740568703C75216D
:103D5000007525067526007825121DF8123F1B12E6
:103D600013B97402121B8BE9601379101211D3126C
:103D700046851213BF900A0F7401F080710521E58A
:103D800021C3940A40CB7913802874066870447567
:103D900021007525067526007825121DF8123F1B97
:103DA0001213B97402121B8BE9600C900A10E4F034
:103DB00079161211D3801C74096521700D791712C0
:103DC00011D3900A10E4F0FA80260521E521C3946E
:103DD0000A40BF7521067522007821121DF8EEFCFD
:103DE000EFFD7A177B0A1211FD7402121B8B7A0009
:103DF0007B20900281E0F912135F801E9081AA124D
:103E00001E0B7A007B20900281E0F9121353740498
:103E1000121B8BAA21AB221212C9AA23AB24023F88
:103E200002EF541060317A007B10900281E0F912A9
:103E3000135F900A0F7401F079211211D37C0A7D6F
:103E40000079FF7A047B0A1213BF900A10E4F0EEA7
:103E5000FAEF6410023EFBEF54407003023EFE9006
:103E60000A31E004F0F8EF6440FF74F928C39405C8
:103E700050327AFA7B091213C5E9F52112043BE5A9
:103E800021C3940B505679251211D3908182121EB2
:103E90000B7A007B40900281E0F9121353740412F4
:103EA0001B8B8054E8C39407E8502C604B120441EC
:103EB0007900120453900A31E0F8C3940240139041
:103EC0000A37E0C0E074F828F582E43409F583D0BD
:103ED000E0F090819E80B7C3940C401C900A31E4BE
:103EE000F07C05FDF97AFA7B091213BF7A007B405A
:103EF000900281E0F912135FEEFAEFFB80047A0082
:103F00007B00740A121B8B7F10021CB7F525E43569
:103F100030F526852582F583782922EEFCEFFDE534
:103F20002175F006A4F8A9F0747F28FA740A39FB09
:103F3000221252F4A322900C5BE075F009A4F8A9B8
:103F4000F022F582E5283401F583E4F07C06FD7962
:103F5000BBE52722852582852683E4F0A3F0A3F024
:103F6000A3F0E52722F07C0A7D0079FF7A047B0A22
:103F70002274EC121BE574F3121B758A217401651F
:103F80002160030245D6900CD8E064016003024032
:103F9000619009FFE0600302406C1211A3E9900DEB
:103FA00026F0F4604979001211D3900D26E0C0E0AC
:103FB000900A10E0F8740428F582E4340AF583D0FE
:103FC000E0F0900A10E004F0900A01E0700C7A0230
:103FD0007B00900281E0F912135F900A31E0603FAC
:103FE0007A007B40900281E0F912135F8031900AE1
:103FF00001E07019908162121E0B7A027B00900220
:1040000081E0F91213537404121B8B8012900A3151
:10401000E0600C7A007B40900281E0F9121251902E
:104020000A0FE0C39402400C7A007B10900281E0FA
:10403000F912135F900D26E0640A701990816612E0
:104040001E0B7A007B02900281E0F9121353740474
:10405000121B8B800C7A007B02900281E0F9121314
:104060005F900CD8E064016003024582900D26E069
:10407000F460729009FFE0706C900A01E070030236
:10408000453F908192121E0B7A007B04900281E0E2
:10409000F91213537404121B8B900A10E0FA900A61
:1040A0000FE0603014607F14700302414D14700300
:1040B0000242591470030242BB1470030243B91444
:1040C0007003024411147003024459147003024433
:1040D000BD0245D612460E7003024530EAC3940A6B
:1040E00040030245307A807B00900281E0F9121390
:1040F0005F7410652160030245FD900CD8E0700CE0
:104100007A407B00900281E0F91212519081621294
:104110001E0B7A207B00900281E0F9121353740485
:10412000121B8B02460974026A7003024525EAC31A
:10413000940340B179301211D3900A0F7401F07AD0
:10414000007B04900281E0F912135F80987A037B70
:10415000001212C38A238B247A037B001212C38AB3
:10416000258B26AE25AF268523828524837401F016
:10417000A3744FF0852382852483A3125390740186
:10418000F0A3744F125393A3A3F0900A10E0F8C366
:104190009402407D900D26E0640B70757403687086
:1041A0000512464B800B740268700A900A04E024E2
:1041B000D09009F8F09009F8E0F525752600740311
:1041C0007825121B62749D2525F58274093526F524
:1041D00083E0F4701A9009F712465C121383AC4125
:1041E000AD4279017A057B031213717A008011794F
:1041F000061211D39009F874FFF09009F7E4F0FA71
:104200007B04900281E0F912135F900A10E4F080C1
:1042100037E8C39404500D740368702C900D26E0A9
:10422000640B602479301211D3900A10E4F09009E5
:10423000F81246729009F712466712135FEEFCEF10
:10424000FD7A037901120FE7AA23AB241212C9EEFB
:10425000FAEFFB1212C90240E574066A60030240DD
:10426000E5900A16E064BB75230675240078237078
:104270002D121DF87C047D0A7A117B0A1211FD743F
:1042800002121B8B7C0A7D0079FF7A047B0A1213D1
:10429000BF900A10E4F0790A1211D30240E5121D12
:1042A000F87C047D0A7A117B0A1213B97402121B7E
:1042B0008BE9600302437D79308039EAC394024080
:1042C00039900D26E0640B703174036A7005124654
:1042D0004B800B74026A700A900A04E024D09009A3
:1042E000F9F012463A600B79101211D39009F902D5
:1042F00044FA790E1211D30243AA9009F9E0F8EAC0
:10430000C39404400874FF68700302450B74066A86
:1043100060030240E5900A16E064BB703A74FF68DF
:1043200070030240E57523067524007823121DF8FA
:104330007C047D0A7A117B0A1211FD7402121B8B18
:104340007C0A7D0079FF7A047B0A1213BF900A1061
:10435000E4F0790F02429874FF6870030240E5753B
:1043600023067524007823121DF87C047D0A7A1137
:104370007B0A12120F7402121B8BE9600F7A007B0A
:1043800004900281E0F91212510244FD79301211B9
:10439000D39009F974FFF07C067D0079BB7A117B1C
:1043A0000A1213BF900A0F7401F07A007B04900286
:1043B00081E0F912135F0244FD90813E7407121BE5
:1043C000DB7406121A88900D26E0640B70277401C6
:1043D0006A70227523067524007823121DF874096B
:1043E000121BDB7A177B0A1213B97402121B8BE9BA
:1043F0007053024530EAC39402400302450B740136
:104400006A60030240E5E0640B600302450B024072
:10441000E59081327401121BDB7406121A88740253
:104420006A702A7523067524007823121DF8740318
:10443000121BDB7A177B0A1213B97402121B8BE969
:10444000700302453079121211D30244FDEAC3947D
:104450000350030240E502450B900D26E0640B700B
:104460003FEAC39402403974036A700512464B80D8
:104470000B74026A700A900A04E024D09009F9F0E3
:1044800012463A700D791C1211D39009F912467236
:104490008005791A1211D31246851213BF0240E526
:1044A000EAC394045065E0640B60030240E57401C4
:1044B0006A60030240E5900A10E4F08073EAC39456
:1044C000024042900D26E0640B703A74036A700556
:1044D00012464B800B74026A700A900A04E024D0E2
:1044E0009009F8F012462B121B6212461C6003E979
:1044F000700B791C1211D39009F8124672900A10B1
:10450000E4F00240E5EAC39404401279301211D37A
:10451000900A0F7401F0A3E4F0FA02414174016AB9
:1045200060030240E5900D26E0640B60030240E565
:104530007A007B04900281E0F91212510240E5906A
:104540000A10E0FA12460E6006EAC3940A40109080
:104550000A10E4F0900A0204F07A007B0880D5EAA1
:10456000C3940650030240E5908162121E0B7A004C
:104570007B08900281E0F91213537404121B8B0222
:1045800040E5900A10E4F0900A27E0C39406403F0B
:1045900012103B7ABC7B071210478A258B268C278A
:1045A0008D28900A287829121A2D90817E78291258
:1045B00019A678297925121452404E900A271246DE
:1045C0007CA3F09081D2121E0B7A407B0080A37AEC
:1045D000407B000245347402652160030240E5908F
:1045E0000CD8E0700C7A407B00900281E0F9121246
:1045F000517A807B00900281E0F91212517A207B7F
:1046000000900281E0F912135F740D024696740364
:104610002AF582E4340AF583E0640B22749D252395
:10462000F58274093524F583E0F4229009F8E0F965
:10463000892375240074037823229009F91252E823
:10464000F582740A39F583E064BB2275F00A900A9A
:1046500004E0540FA4F8A3E0540F28227401F0855D
:104660004182854283F022E4F0FA7B04900281E0EB
:10467000F92274FFF0900A0F7401F022E4F0A3F025
:10468000A3F0A3F022900A10E4F07C0AFD79FF7AEF
:10469000047B0A227403121B8B7F0C021CB774F676
:1046A000121BE574F2121B75E9FE146016147003F8
:1046B00002474214700302478C24FE700302474CE9
:1046C0000247917408121BDB7A047B031213777480
:1046D00008121BC112531F7409121BC1E0C0E07401
:1046E00001121BC1D0E0F0740A121BC1E0C0E074DB
:1046F00002121BC1D0E0F07404121BC1E4F0740379
:10470000121BC1E4F0740D121BC1E0C0E07407126B
:104710001BC1D0E0F0740C121BC1E0C0E0740612A3
:104720001BC1D0E0F0740B121BC1E0C0E074051295
:104730001BC1D0E0F0AC41AD427A087900120FCF36
:10474000804F9009F5E4F07A04FB80369009F7E099
:104750006401703D7A037B001212C38A218B22AC64
:1047600021AD228C828D837401F0A3744FF08C8272
:104770008D83A3A3744BF07A037901120FE77A04B7
:104780007B00900281E0F912135F80059009F5E447
:10479000F0EE900282F0740E022CE474F4121BE529
:1047A0007A087B001212C38A218B22AE21AF22121B
:1047B000141FE960717A00EAF8EE28F582E43FF50B
:1047C00083A3E070037430F00AEAC3940640E875EE
:1047D00021007523067524007823121DF88E828F20
:1047E00083A3AC82AD83123F1F1213B97402121B54
:1047F0008BE9601B121401900C5C7403F0E521A39B
:10480000F07A107B00900281E0F912125180177447
:10481000096521700812140779011211D30521E5E9
:1048200021C3940A40ACEEFAEFFB1212C99009F5CD
:10483000E060427A037B001212C38A218B22AE21F0
:10484000AF228E828F83741FF0125390A3A3744FF4
:10485000F0900A2CE0C3944250149009F512487A63
:10486000121251EEFCEFFD7A037901120FE7EEFA16
:10487000EFFB1212C97F04021CB7E4F07A10FB9020
:104880000281E0F92274EC121BE574FD121B75899C
:10489000267A047B001212C38A218B22AE21AF221A
:1048A000EE2402F527E43FF5288E828F83A38582CC
:1048B00021858322E526600A24FD7003024E2A0228
:1048C00052DE7A897B027900120FED7C977D097A9E
:1048D0005E798012132F900289E014601D1470031A
:1048E000024A17147003024B6024FB7003024DABA5
:1048F00024F87003024DE90252DE75250085252358
:1049000075240074037823121B6274972523F52302
:1049100074093524F5247527067528007827121D9B
:10492000F87C8A7D02E5232407FAE43524FB121380
:10493000B97402121B8BE970030249D3900283748D
:1049400001F0900C5C04F0E525A3F09009F57004EB
:10495000740180027402F07A087B00900281E0F911
:10496000121251120441790112045312043BE5233F
:10497000240DF8E43524F9E8FAE9FB900290E0F51B
:1049800023540FFC8A828B83E0540F6C7001E46027
:1049900003E523F0740F5523F87401687007900A3B
:1049A000007401800A7402687006900A007402F0B4
:1049B00074F0552360030252DE8E828F837421F0DF
:1049C000E52585218285228370047410800274207D
:1049D0000252C5740A6525702F9009F7E0640170D2
:1049E000277523077524007823121DF87C8A7D0221
:1049F0007A1E7B0A1211FD7402121B8B7A007B0453
:104A0000900281E0F91212510525E525C3940B406F
:104A1000030252DE0248FD900A2EE0F8900298F060
:104A20009081E0AC41AD427403121A88900A25E0EF
:104A3000F9900D29F09009F512531F7401121BC152
:104A4000E9F07402121BC1E8F0AC41AD427A03797F
:104A500001120FE77521037522007821121DF87CE1
:104A60008A7D027A277B0D1213B97402121B8BE91F
:104A70007003024B049009F5E064016003024B04EB
:104A8000900A25E4F07800900298E0A2E05065E8F2
:104A9000601414601814601C1460201460241460E6
:104AA0002814602C804E900D2A74418028900D2A85
:104AB00074428021900D2A7443801A900D2A744408
:104AC0008013900D2A7445800C900D2A7446800541
:104AD000900D2A7447F07C0379007A2A7B0D12042A
:104AE00077E9900A25F07C2A7D0D7A037901120F6F
:104AF000E70252E5E0C313F008E8C394074003025D
:104B000052DE8083900A2FE0F870030252DE900A92
:104B100025E4F0E814601514601924FE601C24FCE0
:104B2000601F24F8602224F060258029900D2D74E8
:104B3000418021900D2D7442801A900D2D74438078
:104B400013900D2D7444800C900D2D7445800590AC
:104B50000D2D7446F07C0379007A2D7B0D024DA15A
:104B60007521027522007821121DF87C8A7D027A57
:104B7000277B0D1213B97402121B8BE970030252CA
:104B8000DE9009F5E0640160030252DE90028CE0E1
:104B9000F8A3E024BF6024146076147003024C482C
:104BA000147003024C8E147003024CDD1470030267
:104BB0004D2B147003024D700252DE900A25E068FE
:104BC0007046E4F075230185232175220074037873
:104BD00021121B62749D2521F52174093522F522CD
:104BE0007C0812534D1204771253867A0879011209
:104BF0000FE70523E523C3940A40CC900A2EE0C2B8
:104C0000E0F0A374010252DD1253787441024D8A20
:104C1000900A25E0687029E4F07C06F97A977B0910
:104C2000120477E9900A25F07C977D097A067901CC
:104C3000120FE7900A2F74021253D5C2E10252DD1F
:104C40001253787442024D8A900A25E0687037E466
:104C5000F0752300E52375F007A4F8A9F07439284E
:104C6000F521740A12534812047712537E120FE78B
:104C70000523E523C3940A40DB900A2EE0C2E2F04C
:104C8000A374040252DD1253787443024D8A900AD1
:104C900025E0687040E4F0752300E52375F006A474
:104CA000F8A9F0747F28F521740A39F5227C0612E0
:104CB000534D1204771253867A067901120FE705D5
:104CC00023E523C3940A40D2900A2EE0C2E3F0A366
:104CD00074080252DD1253787444024D8A900A25FA
:104CE000E0687040E4F0752300E52375F009A4F84E
:104CF000A9F074BC28F521740A39F5227C091253F5
:104D00004D1204771253867A097901120FE70523B1
:104D1000E523C3940F40D2900A2EE0C2E4F0A374BE
:104D2000100252DD1253787445805F900A25E068C6
:104D30007037E4F0752300E52375F007A4F8A9F0B7
:104D4000744328F521740B12534812047712537ED2
:104D5000120FE70523E523C3940A40DB900A2EE0F7
:104D6000C2E5F0A374200252DD1253787446801A13
:104D7000900A25E068700EE4F0900A2EF0A3F0127D
:104D800013B30252DE1253787447F07C307D0D7AF3
:104D9000037901120FE77C03900A25E0F97A307B52
:104DA0000D120477E9900A250252DD12103B9002A1
:104DB0008AE09007BCF090028BE09007BDF0900273
:104DC0008CE09007BEF090028DE09007BFF090025B
:104DD0008EE09007C0F090028FE09007C1F01210B3
:104DE000358E828F8374168032A3E0644F60030295
:104DF00052DEA3E0645060030252DE900A2CE0F819
:104E0000A3E0C39850030252DE7A107B0090028127
:104E1000E0F91212518E828F83741F1253A7F0850E
:104E20002782852883744F024FA312103B900A26D5
:104E3000E4F07A897B027903120FED90028AE0F5A3
:104E400023F529752A00A3E0F525900289E0146076
:104E500039147003024F0A147003024F691470036F
:104E6000024FB414700302502014700302506714F0
:104E700070030250D71470030252011470030252DF
:104E8000D11470030252D80252DE74037829121B27
:104E900062749D2529F5237409352AF524900A2684
:104EA000E0F97C08AA23AB241204771253EA70516C
:104EB000E52568704C900A307401F07C087D00791B
:104EC00000AA23AB241213BF90028AE0F5237524B5
:104ED0000074037823121B62749D12531A740935EF
:104EE00024F58374FF12539374031253F71253BBC8
:104EF000120FE77C977D097A5E798012132902529E
:104F0000DE8E828F8374500252C2900A26E0F97CB2
:104F1000067A977B091204771253EA7043E52368F7
:104F2000703E900A307401F07C067D0079007A971B
:104F30007B091213BF7523067524007823121DF810
:104F40007C337D0D7A977B091211FD7402121B8B45
:104F50008E828F837404F0900A261252F40252C596
:104F60008E828F8374510252C2E52975F007A4F531
:104F700029E5F0F52A74392529F523740A352A1212
:104F8000536A1204771253EA7021E52568701C9069
:104F90000A3074011254211213BF8E828F8374055C
:104FA0001253F71253C37A030252CA8E828F83744C
:104FB000520252C29009F5E0640160030252DE75AC
:104FC00025001252FC121DF87C8A7D02AA23AB2414
:104FD0001213B97402121B8BE960227C067D0079E2
:104FE000FFAA23AB241213BF8E828F837406125341
:104FF000DB120FE7900A307402F00252E574096583
:1050000025700F8E828F8374531253991253E212BC
:105010000FE70525E525C3940A40030252DE80A26E
:10502000900A26E0F97C067A8A7B021204771253F2
:10503000EA702B900290E0687024900A307401129C
:105040005412121DF87C8A7D027A977B091211FD99
:105050007402121B8B8E828F8374070252B78E826A
:105060008F8374540252C2900A26E0F97C077A8A30
:105070007B02120477E9F8900A26F0900291E0682A
:10508000704C900A3074011253B1121DF87C8A7D65
:105090000290028A1252E8FA740A39FB1211FD7466
:1050A00002121B8B8E828F8374081253DB120FE760
:1050B00075213875220A7821121DF87C277D027A25
:1050C000007B001211557402121B8B0252DE8E827D
:1050D0008F8374550252C2900A26E0F97C087A8ABE
:1050E0007B021204771253EA60030251F890029295
:1050F000E06860030251F890028B12533BFA740A85
:1051000039FB90028AE024CF600F1460321460668D
:105110001470030251AF0252DE900A307402F0EABA
:10512000240B12540A121DF87C8C7D02EA240CFA1E
:10513000EB3401FB1211FD7402121B8B0251EF9034
:105140000A307402F0EA245112540A121DF87C8CC1
:105150007D02EA2452FAEB3401FB1211FD740212B3
:105160001B8B7ABC7B07121047125328121B62124A
:105170005318740C8070900A307402F0EA2497126D
:10518000540A121DF87C8C7D02EA2498FAEB340153
:10519000FB1211FD7402121B8B7ABC7B07121047A5
:1051A000125328121B62748712531A740C803790A2
:1051B0000A307402F0EA24DD12540A121DF87C8CC5
:1051C0007D02EA24DEFAEB3401FB1211FD740212B7
:1051D0001B8B7ABC7B07121047125328121B627478
:1051E000AF12531A740C3524F5837829121A3C8EA9
:1051F000828F8374090252B78E828F837456025253
:10520000C29009F5E0640160030252DEE52575F005
:1052100007A4F8A9F0743828F8740A39F9E52324AA
:10522000CF600C14601F14603D14605D0252DEE814
:10523000240B1253651204771253C9707F12541C49
:105240001213BF806CE82451125365120477125375
:10525000C9706912541C1213BF125357121B6212E9
:105260005318740C8044E824971253651204771283
:1052700053C9704812541C1213BF125357121B62A9
:10528000748712531A740C8021E824DD12536512BE
:1052900004771253C9702512541C1213BF125357AE
:1052A000121B6274AF12531A740C3524F583124624
:1052B0007C8E828F83740A1253A780098E828F831B
:1052C00074571253991253C37A027901120FE7806F
:1052D0000DE523900A2C8005E523900A2DF0EEFAC7
:1052E000EFFB1212C9024694E075F007A4F8A9F08A
:1052F00074392822E085218285228322E52575F0F4
:1053000006A4F8A9F0747F28F523740A39F52475EA
:105310002706752800782722745F2523F58222E06E
:10532000854182854283F0228A298B2A8C2B8D2C01
:1053300090028BE0F5237402782322E0FC75F007DD
:10534000A4F8A9F07438282239F5227C07900A25A0
:10535000E0F9AA21AB222290028BE0F5237524000C
:105360007402782322F523E93401F524900A26E01B
:10537000F97C07AA23AB2422E4F0900D30221253CB
:10538000867A07790122E9900A25F0AC21AD222224
:10539000A3744BF08E828F832212539F74FF22F0EE
:1053A000852182852283221253AB2212539F744B94
:1053B00022F07523077524007823221253C37A0341
:1053C000790122F0EEFCEFFD22E9F8900A26F09038
:1053D000028CE06822F0900A2EE0221253AB1253A6
:1053E000E2221253C37A02790122E9F8900A26F0E8
:1053F0009009F5E0640122F090028A1252F4F090D4
:105400000A26E085278285288322F582EB3401F580
:1054100083ECF0752306752400782322900A3074FB
:1054200002F07C077D0079BBAA23AB242274F7121B
:105430001BE57D00800BEFF9E8C313F81EEE701436
:105440000DEDC39C5025EDFEEA2EF582E43BF5837D
:10545000E0F87E08E9C313FFE8A2E092F0E9A2E0D9
:1054600030F001B350D0748C6F80CC7F01021CB738
:1054700074EC121BE574FC121B759081E67401122A
:105480001BDB7403121A8890822AAC41AD420412CD
:105490001A881204417523031204478A218B22AE15
:1054A00021AF221204478A218B221204478A258BBE
:1054B00026A825A926C3EE9521EF9522506FC3E5B6
:1054C0002198E52299406FC3EE98EF9940048E250C
:1054D0008F2685252985262AE4F52BF52C78291297
:1054E0001491900A337829121A3C90816E78251213
:1054F0001A2D78297925121601504C908172782541
:10550000121A2D782979251216C178291214EE74F1
:1055100001121BC1E529F07401121BCB88218922DD
:105520007821121DF87C017D007AFE806DC3E8951C
:1055300021E9952250088521258522268094C3E8FB
:105540009EE99F5089808B9081767825121A2D785C
:10555000297925121650504E90817A7825121A2DED
:105560007829792512160150587525007526E075A1
:1055700027F27528447825792912169C782512146B
:10558000EE7402121BC1E525F08582218583227805
:1055900021121DF87C017D007AFF7B1F12115574CA
:1055A00002121B8B80119081767825121A2D782992
:1055B00079251215D5700AA841A94288218922802F
:1055C0000E7403121BC174BBF0858221858322787F
:1055D00021121DF87C017D007AF07B1F1211557499
:1055E00002121B8B1523E523600302549812043B1F
:1055F0007404024696C082C083E9900DF8F0025808
:105600001F74F7121BE5E99002F9F07C317D037AF3
:10561000FF7BFF1208619002FA74FFF0A3F0A3E48D
:10562000F0A3F079051207EF9002F9E0F9120711E3
:105630007A797B08120A357F01021CB774F4121BB9
:10564000E58A218B22EB548060309002F9E0F91258
:1056500012398A238B24AE23AF24EE4F60138E823F
:105660008F83E064B07003120801EEFAEFFB1212B0
:1056700027AA21E5226480FB80047A007B00025780
:10568000EE74F2121BE574FC121B75EAFEEBFFEEE2
:105690004F60387402121BC1EEF0A3EF125A53ECA4
:1056A000F0A3ED125A53AA82AB8312070BE9F5213E
:1056B00070737412121BC1126607E52345246065DE
:1056C0008E828F8312572FEE4F7005752102805501
:1056D0007A067B001212C38A258B26A825A926E804
:1056E000497005752113803D88828983E4125739FA
:1056F000A3A3EEF0A3EF126AA0E523F0A3E524F044
:105700009002FF1257C19002FF6017E0FCA3E080F7
:1057100003EAFCEBFD8C828D831257C170F38C82FF
:105720008D8312652CA9217404121B8B026CA2A319
:10573000A3A3A3E0FEA3E0FF22F0A3F08882898365
:105740002274F2121BE58923E975F017A4FEAFF06D
:105750009002FEE4F09002FC1257C1600A1212C9D6
:105760009002FCE4F0A3F0EEFAEFFB1212C38A21E0
:105770008B22EA4522602FEEFCEFFD790012121514
:105780009002FCE521F0A3E522F07B00800812578F
:10579000ABE4F0A3F00BEBC3952340F2E5239002BA
:1057A000FEF0790080027913026CA2EB75F017A469
:1057B000F8A9F09002FCE028FAA3E0398A82F58388
:1057C000221262C2EA4B2274F4121BE57900EAA2AB
:1057D000E0501B75214A7522817821121DF87C0446
:1057E0007D007AFA7B0D1207E97402121B8B7F048D
:1057F000021CB7C082C0839002FF125826601C882A
:10580000828983A3A3E06A7003A3E06B8882898303
:1058100070E8A3A3A3A31262BE80047A007B00D029
:1058200083D08202011F126D75E8492274EE121BAB
:10583000E574FC121B75EAFEEBFF8541828542830D
:10584000E4F0A3F0EE2402126510EE2405125A4192
:10585000EE2404F527EF125E26E024FE603924FCD6
:10586000604624FE605224FE605E24FE70030259EE
:105870004624FE70030259BE24FE70030259CD2453
:10588000FE70030259DC24FC70030259EB24FE7005
:10589000030259FA025A379003187417F0A3E4125E
:1058A0005A5B120489025A37854182854283AC8251
:1058B000AD83120807025A07854182854283AC8274
:1058C000AD8312080D025A07852521852622740210
:1058D000121BC1AC82AD838521828522831262BEF8
:1058E00012072F8A258B26AC25AD26EC4D6042E4AD
:1058F000F525F5267825121DF875251875260378E7
:1059000025121DF87525197526037825121DF874C2
:1059100008121BC1121E0F79161262B812084974C0
:1059200008121B8BE9F525700B1262B41204A180DA
:105930000F752501852182852283125A4912652C13
:10594000852521025A0A7402121BC1AC82AD8385DF
:1059500025828526831262BE12072F8A298B2AACE4
:1059600029AD2AEC4D6043852582852683A3A312A9
:105970001E0F752918752A037829121DF875291923
:10598000752A037829121DF87408121BC1121E0F04
:1059900079161262B81208497408121B8BE9F522B5
:1059A000700B1262B41204A7800F75220185258244
:1059B000852683125A4912652C852221804C854107
:1059C00082854283AC82AD83120813803A8541827E
:1059D000854283AC82AD83120819802B8541828574
:1059E0004283AC82AD8312081F801C8541828542B0
:1059F00083AC82AD83120825800D85418285428368
:105A0000AC82AD8312082BE9F521E52160298E8255
:105A10008F83A3E06414601F852782852883E0902C
:105A20000318125A53126D7190031912652CE52157
:105A3000A3125A5B120483EEFAEFFB1207AD026465
:105A400018F525EF3400F52622126D758541828503
:105A5000428322F085418285428322F07C187D03B7
:105A60008523828524831262C22274EE121BE574A0
:105A7000FC121B758A238B248C278D28EA2405F5BC
:105A800021EB3400F5227C157D0079007A187B0328
:105A9000121215E5212402F525E522125A4485410A
:105AA0008285428385822985832A7829121DF8857B
:105AB0002182852283A3A3A3A3125F6E121DF8E5A2
:105AC000212405F529E5223400F52A7829121DF84C
:105AD0008525828526831262C81207297406121B47
:105AE0008B8A298B2AAE29AF2AE5232402F523E5E8
:105AF00024126513EE4F7003025C3080177402129B
:105B00001BC11262BE88828983EAF0A3EBF0900386
:105B100018E004F0900318E0C394054003025C30E1
:105B2000E4F529F52A7829121DF8752901752A034B
:105B30007829121DF8752902752A037829121DF893
