:020000040000FA
:0600000002011A02238335
:03002B00022B2184
:030053000223F68F
:03006B00022AB1B5
:03007B00022AFD59
:100083000221EFE5C754F84401F5C77901220000C6
:100093000080FB120086B90003020104E479217891
:1000A30008B800028004F709D8FCE479297802B87B
:1000B30000028004F709D8FCE4900301783B790C33
:1000C3008002F0A3D8FCD9FA781A90014A7A01BACF
:1000D30000028007E493A3F608DAF97A3B7B0E90DB
:1000E300014B78DB79038015E493A3AD82AE838A59
:1000F300828B83F0A3AA82AB838D828E83D8E9D9C6
:10010300E77582B97583FB740312012C75829175AF
:100113008300740012012C75D00075817F7518015E
:10012300751903759F00020096C09FF59FE473D075
:100133009F22D083D082C09FE493C0E0740193C018
:10014300E0740293F59F220101030507FFFE778800
:100153001299324114242536010201060302E0FFFD
:100163002A2A5049534345532D42543130302A2AC9
:1001730000000000000D095049534345532D4254DC
:1001830031303005126D04000073040D09504953DA
:100193004345532D4254313030051202534A004F28
:1001A3004B00000000000000000000000000000001
:1001B300534A00000000000000000000000000009F
:1001C3004357000000000000000000000000000092
:1001D3004357000000000000000000000000003052
:1001E30030303030303030FF0000B40000280028B9
:1001F30000283075A000A000A000A000000800089F
:10020300E001F000100010001000100010001000BA
:1002130050005000500010001000D00700000000F4
:1002230000000F00010005003075070010000100F9
:1002330081FF00000000FF8306A1068906FF02027A
:100243000208025000A0000000E80302929501009A
:10025300007395028E95010000310F028A9501000B
:1002630000A303028E95010000320F02889501005E
:1002730000B903028E95010000330F028695010039
:1002830000BB03028E95010000340F028495080021
:1002930000BC03028E95010000350F028295010018
:1002A30000360FFF0100FF200292950100007695B2
:1002B300028E950100009A0F029495000000000041
:1002C300028C950300000904830C830C830C830CBC
:1002D300830C830C830C830C830C830C830C830CA3
:1002E300830C170F2F0F110F0202020202020202E8
:1002F30002010D00000010010292950100007995A2
:10030300028E95010000DB0F02AA95010000300860
:10031300028E95010000DC0F02A895010000909465
:10032300028E95010000DD0F02A695010000669480
:10033300028E95010000DE0F02A495010000959244
:10034300028E95010000DF0F02A2950100005F926B
:10035300028E95010000E00F02A09501000071924A
:10036300028E95010000E10F029E95010000839229
:10037300028E95010000E20F029C95010000829419
:10038300028E95010000E30F029A95010000E40F2D
:1003930001E803053F100A0A160A0A0292950100B2
:1003A300007C95028E950100008A1002B29503002D
:1003B300004809028E950100008B1002B0950300DE
:1003C300005809028C950300006909028E9501000B
:1003D300008C1002AE950300006F09028E95010098
:1003E300008D100298950300007F09FFFFFF0001B5
:1003F3003075030201060000000000000000000049
:1004030000000000000000000000000000000000E9
:100413000000FFFF0600800CE8033030303030303E
:1004230030301201355982041201356D82041201F4
:10043300356F8204120135748204120135582B0082
:10044300120135A42B00120135B22B001201355DC8
:100453002C001201358F2D0012013541310012019C
:1004630035F13200120135B84300120135964B00C5
:10047300120135894C001201351658001201355707
:1004830058001201355CF30312013573F3031201B3
:1004930035A4F303120135DFF30312013509F40325
:1004A30012013533F4031201354AF40312013561A5
:1004B300F40312013578F403120135A1F403120198
:1004C30035B4F403120135CAF403120135DDF40324
:1004D30012013504F50312013500800312013504BE
:1004E30081031201353C81031201355F810312013F
:1004F300356A81031201358D81031201359C820314
:10050300120135718303120135EC83031201357433
:100513008403120135AF8403120135E6840312010B
:10052300357485031201354D8603120135AD8603FB
:10053300120135B886031201353787031201353AA4
:1005430087031201353D8703120135CC870312015E
:1005530035CF8703120135FF87031201352988033D
:10056300120135178903120135C989031201355D5B
:10057300B90312013585B903120135B3B903120169
:1005830035EAB90312013548BA0312013593BA03A8
:10059300120135DEBA031201351EBB0312013564A5
:1005A300BB0312013592BB031201354FBC03120189
:1005B3003559BC0312013566BC0312013599BC03DE
:1005C30012013565BD0312013571BD031201358971
:1005D300BD0312013593BD03120135B0FD031201B2
:1005E30035BEFD03120135D6FD03120135EEFD03C1
:1005F300120135459F02120135F19F021201356C3C
:10060300A0021201358DA102120135C9A102120106
:100613003572A20212013559A302120135BDA4029B
:1006230012013514A50212013595A5021201358573
:10063300A602120135D2A60212013558A7021201F1
:10064300358AA7021201359EA902120135E0A902DB
:10065300120135FEA90212013581AA021201355594
:10066300AB021201351DAC0212013530A203120197
:100673003503A303120135ACA303120135FFA30312
:10068300120135AFA4031201353BA503120135272F
:10069300A60312013556A60312013569A7031201F9
:1006A30035B1A70312013586A803120135C2A80389
:1006B300120135DEA803120135AB80041201352780
:1006C300D7031201353DD70312013563D703120156
:1006D300357FD80312013589D803120135BED903FA
:1006E300120135B6DA0312013536B4031201356649
:1006F300B50312013599B503120135E3B5031201B0
:1007030035AAB7031201350080021201356A80024F
:10071300120135C98102120135D981021201350650
:1007230082021201355D8202120135068302120133
:10073300350D8402120135D7840212013537860242
:100743001201357A86021201351F87021201356CB8
:100753008702120135928702120135A08902120124
:1007630035A58902120135AA8B02120135F78B02D6
:100773001201356A8C021201359D8C021201353F3C
:100783008D02120135E88D02120135208E0212010D
:1007930035238E021201356B8E02120135AB8E02A8
:1007A300120135028F0212013572E7031201358AF5
:1007B300E703120135D2E703120135E8E70312011B
:1007C300352FE80312013543E903120135D0E9035C
:1007D3001201351BEA031201359359001201359FAB
:1007E3005900120135DA59001201351F5A0012015E
:1007F30035DF5A00120135655B00120135915B004C
:10080300120135CA5B00120135085E00120135EC96
:100813005F00120135D26100120135156300120128
:1008230035636500120135756600120135C0670036
:10083300120135D06800120135ED68001201352828
:1008430069001201354A6900120135AD69001201D0
:10085300356E6E00120135036F00120135546F00BF
:100863001201357B6F00120135CD6F00120135EB9C
:100873006F001201354570001201354471001201F9
:1008830035C87100120135D8AE03120135E2AE034B
:1008930012013525AF0312013540AF03120135D0E4
:1008A300AF03120135F8AF0312013535B00312015E
:1008B300356CB00312013595B0031201350AB1034B
:1008C3001201351FB10312013534B103120135652D
:1008D300B10312013579B1031201359EB10312013F
:1008E30035D8B10312013504B2031201353CB2030A
:1008F3001201359BB2031201351AB30312013545B8
:10090300B30312013570B303120135B9B3031201F6
:1009130035E3B3031201350EB4031201359DF90318
:1009230012013507E70212013535E702120135835B
:10093300E80212013563E90212013582E90212016C
:1009430035FFE90212013542EA0212013598EB0242
:1009530012013559EC02120135E0EE021201358124
:10096300EF0212013577F00212013574F102120120
:1009730035CEF20212013559F30212013542F80362
:10098300120135ABF803120135FFF80312013526C6
:10099300F90312013557F90312013597C203120106
:1009A3003504C3031201354BC30312013563C4037A
:1009B3001201355FC50312013542C6031201353AF0
:1009C3008A031201357C8A031201354E8B0312010F
:1009D30035278C03120135218D03120135038E0354
:1009E3001201356C8E03120135228F0312013596E5
:1009F3008F031201350290031201352B900312016C
:100A030035A590031201353E9103120135A39103DD
:100A1300120135B89103120135FE91031201351706
:100A230092031201357C92031201357F9203120166
:100A33003579E403120135A1E403120135DFE40340
:100A43001201359DE50312013504E6031201352039
:100A5300E60312013548E60312013578E603120175
:100A63003587E60312013504E7031201352AE7034C
:100A7300120135FAEA01120135D8EC011201350AE7
:100A8300EF0112013546EF0112013573EF01120137
:100A9300355DF001120135A8F001120135F3F001C3
:100AA30012013505F10112013545F1011201357AC3
:100AB300F101120135C8F101120135F7F1011201FB
:100AC300351AF20112013567F201120135ECF20118
:100AD30012013506F50112013545F701120135867C
:100AE300F70112013528F90112013569F9011201E3
:100AF30035DCF9011201352DFA0112013508FB012C
:100B030012013532FB0112013567FB0112013592E7
:100B1300FB011201352F72001201352D73001201F2
:100B230035C67900120135E77B00120135B27D002D
:100B33001201351A7F00120135C19501120135707A
:100B430096011201359D9601120135E396011201BA
:100B530035199801120135479801120135DD9901C4
:100B6300120135579A01120135729A01120135EDBE
:100B73009A01120135479C01120135A79D0112010B
:100B830035AD9E011201350EA00112013527A001DA
:100B930012013585A00112013573A101120135A699
:100BA300A10112013516A20112013590A201120111
:100BB30035DAA201120135A4A30112013579A4018A
:100BC30012013558A501120135E3A5011201355172
:100BD300A601120135C5A601120135F0A6011201C5
:100BE30035AFA70112013514A90112013531A9014D
:100BF30012013550A90112013541AA0112013566CE
:100C0300AA0112013590AA011201350BAB011201A1
:100C13003565AB01120135CEAC011201357CAD0156
:100C2300120135BDAD01120135A2BC02120135F02E
:100C3300BC02120135FCBC02120135DABD021201FD
:100C4300350BBE021201353CBE02120135BCBE0299
:100C53001201353ABF0212013572BF02120135C4C7
:100C6300BF0212013501C0021201351EC202120178
:100C73003544C4021201352FC60212013519C802C8
:100C8300120135F57F00120135FCC2011201352C2A
:100C9300C30112013505CA011201358ACB011201C4
:100CA3003587D1011201356FD201120135ACD20162
:100CB300120135CFD20112013500D30112013509DA
:100CC300D30112013513D30112013501D4011201ED
:100CD30035F7D401120135EDAD01120135ECB10147
:100CE300120135F2B1011201352DB9011201354658
:100CF300BE0112013559D303120135EFD30312019B
:100D03003505D4031201357BD403120135EFD40327
:100D13001201352DD503120135A1D5031201351A60
:100D2300D60312013523D6031201352FD603120140
:100D33003544D60312013582D60312013598D60302
:100D4300120135F7D60312013504C7031201351119
:100D5300C7031201352BC7031201356AC7031201FA
:100D630035A8C7031201350DC80312013522C80384
:100D73001201352DC8031201353AC803120135514A
:100D8300C8031201355FC8031201356AC803120193
:100D93003576C80312013585C80312013590C8039F
:100DA300120135B3C8031201355AC9031201356A5A
:100DB300C90312013584C903120135A1C903120104
:100DC30035BDC903120135E2C903120135EDC9036B
:100DD30012013502CA0312013516CA03120135770F
:100DE300CA031201357DCA0312013583CA031201F6
:100DF3003589CA03120135A1CA03120135D4CA03C6
:100E0300120135F9CA021201357DCB021201352CCC
:100E1300CC021201358BCD02120135ACCF02120187
:100E23003598D002120135CDD002120135EFD00230
:100E33001201359ED10212013596D302120135BF3C
:100E4300D30212013551D40212013583D4021201A7
:100E53003590D402120135E7D4021201350DD502C3
:100E63001201357AD7021201357DD802120135D528
:100E7300D80212013536AE0212013540AF0212011B
:100E83003527B00212013531B00212013553B002D9
:100E93001201355FB002120135F8B1021201352794
:100EA300B20212013543B3021201359CB30212019F
:100EB3003502B502120135E1B5021201353DB60224
:100EC300120135AAB602120135E5B6021201352424
:100ED300B702120135DDB902120135F7B902120169
:100EE3003583BA0212013591BA02120135EABA0208
:100EF300120135F8BA021201356BBB02120135CF6C
:100F0300BB0212013519BC02120135DAF3021201D8
:100F130035FCF30212013522F60212013537F902CC
:100F23001201354FFA0212013502FB02120135E4B8
:100F3300FB0212013516F5031201353BF5031201CD
:100F430035ADF503120135B69A03120135BF9A0385
:100F5300120135C89A031201359F9B0312013550C4
:100F63009D03120135869D03120135C09D031201B5
:100F730035F69D03120135309E03120135649E033D
:100F8300120135909E03120135D99E0312013513C8
:100F93009F031201355C9F03120135B49F031201B5
:100FA30035E99F0312013544A0031201357EA003E6
:100FB300120135CFA00312013505A1031201353FFC
:100FC300A1031201356DA10312013590A103120192
:100FD30035447F00120135707F00120135CB7F004D
:100FE300120135D57F00120135E57F001201356509
:100FF300E1031201358AE103120135B4E103120161
:10100300351FDE031201353ADE0312013569DE03B3
:101013001201357EDE0312013584DE031201358AA7
:10102300DE03120135B7DE03120135DCDE031201E4
:1010330035F3DE0312013508DF031201355CDF03EC
:10104300120135D5DF03120135F5DF03120135D760
:1010530081041201350FD70112013567D90112013D
:101063003523DB0112013510DC011201359EDC0151
:101073001201351EDD0112013543DD011201355424
:10108300E001120135D0E001120135BFE101120187
:1010930035F7E1011201353AE201120135E6E301C8
:1010A3001201353BE40112013588E401120135FADE
:1010B300E40112013520E5011201353AE50112017F
:1010C300354FE6011201355FE60112013586E7016E
:1010D300120135A8E701120135DEE7011201356A75
:1010E300E901120135A9E901120135D5EA0112011D
:1010F30035088004120135A080041201358E810465
:10110300120135CD8104120135E8FF021201358742
:10111300FE0312013597FE03120135A6FE031201E9
:101123003558FF03120135B6FA031201353AFB03B2
:10113300120135A0FB0312013551CB03120135888F
:10114300CB0312013592CB031201359ACB03120163
:101153003506CC0312013568CD0312013545EA0388
:1011630012013594EA0312013569EB03120135B01C
:10117300EB0312013537EC03120135B0EC03120116
:1011830035B3EC03120135EF7F00120135F27F0016
:10119300120135C0DA0312013513DB031201356284
:1011A300DB031201356FDB0312013584DB0312010C
:1011B30035C3DB0312013502DC031201358CDC037A
:1011C300120135D9DC031201359ADD03120135F81A
:1011D3007F0012013528EF03120135B0F00312012D
:1011E3003511F10312013557F103120135B4FB0137
:1011F300120135F9FB0112013516FC01120135E923
:10120300FC011201354FFD0112013528FE011201C7
:1012130035B1FF011201351C82041201352F8204FE
:101223001201353382041201353582041201353E31
:1012330082041201354782041201355282041201DD
:1012430035578204120135EF8F021201350E9002D9
:10125300120135E59002120135399102120135C1AF
:101263009102120135499202120135AA920212012A
:1012730035259302120135AD93021201351B9402F9
:10128300120135509402120135859402120135176B
:1012930095021201359F950212013527960212011C
:1012A300359596021201351D9702120135A7970253
:1012B3001201352F98021201358398021201350D60
:1012C3009902120135959902120135109A02120101
:1012D30035A79A02120135FB9A02120135769B0259
:1012E300120135089C021201355C9C02120135B0D3
:1012F3009C02120135539D02120135729D021201A7
:1013030035949D02120135CE9D02120135229E02B3
:10131300120135839E02120135F19E021201350836
:10132300FF021201352AFF0212013553FF02120197
:10133300356BFF02120135ADFF0212013553A903CC
:101343001201355DA9031201359DA903120135E68A
:10135300A90312013520AA031201357AAA03120147
:101363003599AA03120135A2AA03120135F3AA0380
:101373001201351CAB0312013526AB031201359262
:10138300AB0312013520AC0312013579AC03120112
:1013930035A7AC0312013527AD031201356AAD033E
:1013A300120135A5AD03120135B7AD03120135D6D0
:1013B300AD03120135DFAD03120135ACAE031201EB
:1013C300352F8104120135BBF60312013510F703E3
:1013D3001201357EF703120135EEF703120135BD15
:1013E300EC03120135E7EC03120135BCED031201E6
:1013F30035B0EE03120135B6FC031201355AF10381
:1014030012013590F103120135C9F103120135229E
:10141300F3031201355EFF0312013574FF0312015A
:10142300357EFF03120135C8FF03120135A3920372
:101433001201356093031201359B9303120135C3E7
:10144300930312013525940312013571940312019C
:1014530035D594031201354F950312013551960387
:10146300120135049803120135869803120135EBF6
:1014730098031201350299031201350B9A031201E5
:1014830035499A031201351ABE0312013533BE03DF
:10149300120135D4BE0312013514BF031201352DD9
:1014A300BF0312013560BF03120135ADBF03120143
:1014B30035E1BF0312013523C0031201352DC203E9
:1014C30012013523D902120135ACDC021201353485
:1014D300DE021201358BDE02120135AADE02120191
:1014E3003528DF02120135C6E002120135AAE102F6
:1014F30012013594E50212013564E6021201357BCF
:10150300CF03120135C4CF031201357AD003120180
:1015130035A2D00312013525D10312013596D1032B
:1015230012013580D203120135BBD203120135EA11
:10153300FF01120135F3FF011201358B8204120101
:1015430035B78204E066701008A3E066700A08A34A
:10155300E066700408A3E06622C3E7960809E796ED
:101563000809E7960809E79622C3E09608A3E096E0
:1015730008A3E09608A3E09622C008C3E096F50806
:1015830008A3E096420808A3E096420808A3E09661
:1015930045087001D3D00822080808EAC0E0EBC070
:1015A300E086F0E7A4FA180986F0E7A42AFA1809F6
:1015B30086F0E7A42AFA180986F0E7A42AFA19861E
:1015C300F0E7A4FBE5F02AFA190886F0E7A42BFB61
:1015D300E5F03AFA190886F0E7A42BFBE5F03AFAAE
:1015E30018180986F0E7A4C5F02BFBE43AFA1908AA
:1015F300E7C5F0C6A426F6E5F03BFBE43AFA188605
:10160300F0E7A4F6E5F00826F6E43B08F6E43A082A
:10161300F6D0E0FBD0E0FA22E4CFC0E0E4CEC0E0B5
:10162300E4CDC0E0E4CCC0E075F020E626F608E6A1
:1016330033F608E633F608E633F6181818EC33FCED
:10164300ED33FDEE33FEEF33FFC3EC9709ED97095E
:10165300EE9709EF97191919400FFFEC97FC09ED65
:1016630097FD09EE97FE191906D5F0BFECF709EDC2
:10167300F709EEF709EFF7191919D0E0FCD0E0FDEF
:10168300D0E0FED0E0FF226016080808C6C313C6E8
:1016930018C613C618C613C618C613C6D5E0EA2261
:1016A3007009080808226016181818C6C333C6083C
:1016B300C633C608C633C608C633C6D5E0EA22E633
:1016C30027F60809E637F60809E637F60809E63784
:1016D300F622E026F608A3E036F608A3E036F6087D
:1016E300A3E036F622E026F008A3E036F008A3E0F4
:1016F30036F008A3E036F022C3E697F60809E6972A
:10170300F60809E697F60809E697F622C3E096F08D
:1017130008A3E096F008A3E096F008A3E096F02271
:10172300E657F60809E657F60809E657F60809E604
:1017330057F622E056F608A3E056F608A3E056F65D
:1017430008A3E056F622E056F008A3E056F008A3FB
:10175300E056F008A3E056F022E0F608A3E0F6080E
:10176300A3E0F608A3E0F622E6F008A3E6F008A358
:10177300E6F008A3E6F022E0FAA3E0FBA3E0FCA373
:10178300E0FD22EAF0A3EBF0A3ECF0A3EDF022E0FE
:10179300F8A3E0F9A3E0FAA3E0FB22E8F0A3E9F061
:1017A300A3EAF0A3EBF022CAC0E0E6F0A308DAFA5A
:1017B300D0E0FA22CAC0E0E0A3C582CCC582C583CB
:1017C300CDC583F0A3C582CCC582C583CDC583DADD
:1017D300E6D0E0CA22C3E498F8E499F91218198014
:1017E30026C3E49AFAE49BFBE920E7E9121819E41B
:1017F30098F8E499F922C3E498F8E499F9121819CE
:10180300E498F8E499F9C3E49AFAE49BFB22EB2009
:10181300E7CFE920E7E0B90010BB0008E88AF084CD
:10182300F8AAF022E4FBC8FA22EB70227B10C8333B
:10183300C8C933C9335007C39AC3DBF280069A5031
:10184300012ADBEAC833F4C8C933F4C9FA2275F0B4
:1018530008E4C833C8C933C933C99AC99B5004C9FA
:101863002AC93BD5F0ECFBC833F4C8E4C9FA2260BB
:101873000D08C6A2E713C618C613C6D5E0F3226047
:101883000C08C6C313C618C613C6D5E0F4227004E9
:1018930022600D18C6C333C608C633C6D5E0F41894
:1018A30022251810AF08F518400C15198008F518F3
:1018B30040021519D2AF2200C0D0251810AF08F589
:1018C30018500C05198008F51850020519D2AFD02D
:1018D300D0222518F58210AF08F518400C15198091
:1018E30008F51840021519D2AF851983222518F57A
:1018F30082E43519F583222518F8E43519F92225F0
:1019030018FAE43519FB222518FCE43519FD22E405
:10191300732518C582C0E0E51934FFC583C0E0E52F
:1019230018C3958224F810AF08858319858218801F
:1019330008858319858218D2AFCEF0A3E520F0A3E2
:101943007808E608F0A3DEFAEFF0A3E58124FAF8BD
:10195300E608F0A3E608F0A3E608F0A30808E60803
:10196300F0A3E608F0A315811581D0E0FED0E0F8DE
:10197300158115811581E8C0E0EEC0E0222518C568
:1019830082C0E0E51934FFC583C0E0E518C3958242
:1019930024F910AF08858319858218800885831977
:1019A300858218D2AFCEF0A3E520F0A37808E6082D
:1019B300F0A3DEFAEFF0A3E58124FBF8E608F0A339
:1019C300E608F0A30808E608F0A3E608F0A31581EB
:1019D3001581D0E0FED0E0F815811581E8C0E0EE76
:1019E300C0E022851983851882E0A3FEE0A3F520D9
:1019F3007808E0A3F608DFFAE0A3FFE0A3C0E0E085
:101A0300A3C0E0E0A3C0E0E0A3C0E0E0A3C0E01017
:101A1300AF08858218858319800885821885831904
:101A2300D2AFD083D082020132851983851882E038
:101A3300A3FEE0A3F5207808E0A3F608DFFAE0A30D
:101A4300FFE0A3C0E0E0A3C0E0E0A3C0E0E0A3C0E8
:101A5300E010AF0885821885831980088582188570
:101A63008319D2AFD083D08222C0D02518C582C0BB
:101A7300E0E51934FFC583C0E0E518C3958224F37C
:101A830010AF08858319858218800885831985829C
:101A930018D2AFC8F0A3E9F0A3EAF0A3EBF0A3795F
:101AA30008E709F0A3D8FAECF0A3EDF0A3EEF0A356
:101AB300EFF0A3D0E0F0A3D0E0F0A3D0E0F0A3E5F3
:101AC30020F0A3E5F0F0A322851983851882E0C0F6
:101AD300E0A3E0F9A3E0FAA3E0FBA37808E0F608AB
:101AE300A3DFFAE0FCA3E0FDA3E0FEA3E0FFA3E095
:101AF300C0E0A3E0C0E0A3E0F5D0A3E0F520A3E0BD
:101B0300A3F5F010AF0885831985821880088583B3
:101B130019858218D2AFD082D083D0E0F8D0E032DA
:101B230074048006740280027401C0E0F404121885
:101B3300D5D0E01217AA227404800474028000CC6A
:101B4300C0E0EDC0E0E518C39CCCAD1950011D10F9
:101B5300AF068C188D1980068C188D19D2AF121709
:101B6300B7D0E0FDD0E0FC22D083D082E9C0E0E42E
:101B730093A3C386F0C5F095F0F908E493A386F028
:101B8300C5F095F0700BE493A3C3994005E9048075
:101B930002A3E475F002A42582F582E5F03583F50E
:101BA30083D0E0F9E493A3C0E0E493C0E022D083C0
:101BB300D082ECC0E0EDC0E0E493A3FCE493A3FD8A
:101BC300ED4C600D121BFDEC24FFFCED34FFFD809A
:101BD300EFE493A3FCE493A3FDED4C600D121C3CD6
:101BE300EC24FFFCED34FFFD80EFD0E0FDD0E0FC02
:101BF300E493A3C0E0E493C0E022C0E0C3E493967F
:101C0300087401939618400FE493667008087401F2
:101C130093661870007019A3A3C3E4939608740124
:101C2300939618A3A3400DD0E0D0E0D0E0021BEDC3
:101C3300A3A3A3A3A3A3D0E022C0E0C0F088F0E451
:101C4300936670080874019366187000A8F0A3A344
:101C5300700BD0F0D0E0D0E0D0E0021BEDA3A3D016
:041C6300F0D0E022BB
:101C680074F5121980EAFEEBFFEE2434F8EF340025
:101C7800F988088909EE2435F582EF3400F583E008
:101C8800F8EE2437F582EF3400F583E0F50AEC85A9
:101C98000AF0A4FCAAF0850AF0EDA42AFDE82CF8C5
:101CA800E43DF97A257B00121819EA85088285092E
:101CB80083F0F8740758F97401B900028004C3333B
:101CC800D9FCFAE8131313541FF8EE28F8EF340080
:101CD800F9E8245DF582E93400F583E05A6008EEFE
:101CE8002434F582EF802CEE2434F582EF3400F5AD
:101CF80083E0C0E0EE2436F582EF3400F583E0F5AA
:101D0800F0D0E084A8F0EE28F8EF3400F9E82438A1
:101D1800F582E93400F583E0F97F04021A2C74F5A2
:101D2800121980EAFEEBFFEE2434F582EF3400F559
:101D380083E0C0E0EE2435F582EF3400F583D0E08F
:101D4800F08E828F83A3A3A3A3A3A3A3C082C0837F
:101D58008E828F83A3A3A3A3A3E0F8A3E0F9D08383
:101D6800D082E0C398F508A3E099F509EE247FF541
:101D780082EF3400F583E064017069EE2480F58217
:101D8800EF3400F583E0F8A3E0F98E828F83A3A3F4
:101D9800A3A3A3A3A3E0FCA3E0FD8E828F83A3A348
:101DA800A3A3A3E0FAA3E0FBC3EA9CEB9D5010C3F6
:101DB800EC98ED99402EC3EA98EB995027800EC312
:101DC800EA98EB994007C3EC98ED9940177CCC7DD5
:101DD80005EEFAEFFB120BDBEE247FF582EF340001
:101DE800F583E4F0EE2434F8EF3400F9E8FCE9FD7B
:101DF800EE2435F582EF3400F583E0F8EE2437F56C
:101E080082EF3400F583E0F50AE508850AF0A4F5C9
:101E180008AAF0850AF0E509A42AF509E82508F8D2
:101E2800E43509F97A257B00121819EA8C828D832A
:101E3800F0F8740758F97401B900028004C333D963
:101E4800FCFAE8131313541FF8EE28F8EF3400F9DE
:101E5800E8245DF582E93400F583E05A6008EE2451
:101E680034F582EF802CEE2434F582EF3400F583CC
:101E7800E0C0E0EE2436F582EF3400F583E0F5F0BB
:101E8800D0E084A8F0EE28F8EF3400F9E82438F51B
:101E980082E93400F583E0F9122AA3021D21C082E9
:101EA800C083851882851983E0F8A3E0F9C3EA9C0A
:101EB800EB9D5010C3EC98ED99401BC3EA98EB9941
:101EC8005014800EC3EA98EB994007C3EC98ED993B
:101ED8004004790180027900D083D08222EAC39C31
:101EE800FAEB9DFB2274EF121980900492E06408CB
:101EF8006005E06407702A9061C8E060249004C01F
:101F0800E0F4601DE0F875F003A4C8AAF02AF9749B
:101F1800C228FE740439FF8E828F83A3A3A3E070C6
:101F28000302201D906060E0C0E0EE2468F582EFB7
:101F38003400F583D0E0F0750C35750D0675080092
:101F4800750900E5D914F50AE5D95403F50E6017AB
:101F58007403650E605CE50A6010EE2467F582EF95
:101F68003400F583E07003022002900630E064013B
:101F7800602AEE2482F582EF3400F583E06004786D
:101F88000480027800850A08E508C398FA95E0FB02
:101F9800120A858A088B09EA45097005120DE58041
:101FA80074EE2482F582EF3400F583E070048A0C25
:101FB8008B0DE50A6012850C82850D83F50BE5D93A
:101FC800F0A3150BE50B70F6EE2482F582EF3400D2
:101FD800F583E0604474FC250AF50A780C121B2787
:101FE800AC0AA90EEEFAEFFB120C7D74021218BAB5
:101FF800E97026AA08AB091213CD793D8E828F832A
:10200800A3A3A3A3E0FA7B00120959EEFAEFFB128F
:102018000BF3120C8F790080747403650E6056857B
:102028000A107511007810121B27AC0CAD0DAA0808
:10203800AB09120C5974021218BAEE2468F582EF33
:102048003400F583E064807004747F8001E0F50C4F
:10205800780C121B2BE50EF50C780C121B2BA90A19
:10206800AC08AD099004C0E0FA7B0012091D7402A7
:102078001218BA8013900492E06408600BAC0CAD9F
:102088000DEEFAEFFB120CE9120DF179017F0A024D
:102098001A2C74F512198074FC1218A4EAFEEBFFCE
:1020A8008908A2AFE433F509C2AF806AEE2463F869
:1020B800EF3400F97A007B00A2AFE433F50AC2AF2F
:1020C80088828983E0FCA3E0FDEC4D603A88828930
:1020D80083E0FAA3E0FB8A828B83E0FCA3E0FD881F
:1020E800828983ECF0A3EDF08A828B83E4F0A3F07D
:1020F80088828983E0FCA3E0FDEC4D700A88828920
:1021080083A3A3E4F0A3F0E50AA2E092AF1213CDF3
:102118009005D3E004F0EE2463F582EF3400F583F4
:10212800E0F8A3E0F9E849603DEE2463F582EF3476
:1021380000F583E02402FAA3E03400FBEA2402F568
:102148000AEB3400F50B780A121B278A828B83E08E
:10215800FCA3E0F9EEFAEFFB120C1774021218BA9E
:10216800E970030220B49005D3E060639005D4E0E1
:10217800F89005D3E0C398500C740265087050902D
:1021880005D5E0604A8E828F83A3A3A3A3E08518B8
:1021980082851983F0A3E4F09005D3E0F874021265
:1021A80018F0E8F0A3E4F09005D3E0F89005D2E049
:1021B80028F074021218F0AC82AD83851882851954
:1021C80083AA82AB8379011209299005D3E4F0E54B
:1021D80009A2E092AF74041218BA021D210000008F
:1021E8008521878522C622C0E0C0D0E8C0E0E9C0CA
:1021F800E0EAC0E0EBC0E0ECC0E0EDC0E0EEC0E03B
:10220800C008C009C00AC00BC082C083C0F0A2AF1A
:10221800E433FEC2AF759B00906182E0A2E05012E9
:10222800E591A2E0500C7591FE74016521700312CE
:102238001EEDE0A2E55051E591A2E5504B7591DF06
:10224800900492E064076005E064087023740165F7
:1022580021703579019004C0E0FA75F003A4CAA88A
:10226800F028FB74C22AFA74043BFB12209A8018E7
:10227800E0640D70139004B4E004F064287002E484
:10228800F07A00E0F9120DF7906182E0A2E64003CF
:10229800022336E591A2E640030223367591BF90EA
:1022A8000492E064057008120D1F120D2B800312B2
:1022B8000D25752100120D85E9900493F07900121F
:1022C8000D79120B4B7A017B00900491E0F91213FF
:1022D80097907803E064427055900634E014F070EB
:1022E8004DC2AF1222EE00782AD0E0F618D0E0F600
:1022F800E59F540770057509FF800375097FC4C001
:10230800E07829E6F50808E65509F509740B780818
:10231800121882D0E02508F8906270E0A2E740F831
:10232800E8C333906272F0906270E0D2E0F090619E
:1023380081E0A2E35009E5E9A2E3500375E9F7A3B8
:10234800E0A2E75009E591A2E7500375917FEEA25C
:10235800E092AFD0F0D083D082D00BD00AD009D091
:1023680008D0E0FED0E0FDD0E0FCD0E0FBD0E0FA01
:10237800D0E0F9D0E0F8D0D0D0E032C0E0C0D0C092
:1023880082C083906183E0A2E05009E5BFA2E050DB
:102398000375BFFEE0A2E15009E5BFA2E150037555
:1023A800BFFDE0A2E25009E5BFA2E2500375BFFB02
:1023B800E0A2E35009E5BFA2E3500375BFF7E0A22E
:1023C800E45009E5BFA2E4500375BFEFE0A2E55071
:1023D80009E5BFA2E5500375BFDFE0A2E65009E5B5
:1023E800BFA2E6500375BFBFD083D0828088C0E00B
:1023F800C0D0E8C0E0E9C0E0EAC0E0EBC0E0ECC073
:10240800E0EDC0E0C0F0E5A7A2E6500FE5A1A2E626
:10241800500953A7BF75A1BF12245BE5A7A2E550D9
:102428000CE5A1A2E5500653A7DF75A1DFE5A7A239
:10243800E15009E5A1A2E1500375A1FDE5A7A2E2DB
:10244800500CE5A1A2E2500653A7FB75A1FBD0F002
:1024580002236C74F8121980752101900492E064CB
:10246800067015120CAD8A828B83A3A3A3A3A3A322
:10247800E0FAA3E0FB120D0DA2AFE433FED2AF9059
:102488000498E0640170187A207B00900491E0F9C8
:102498001214AB7A207B00900491E0F912139D90FE
:1024A8006182E0D2E6F0900631E0602185C62280A4
:1024B80016900497E064017008E5C654F84405F5E1
:1024C800C653BEFC1221E87401652160E4EEA2E067
:1024D80092AF7F01021A2C008E238F2485822885D3
:1024E8008327851882851983E0CEA3E0CF852882CB
:1024F800852783EBC9EAC8EDCBECCA75F010C3E8B1
:1025080033C8E933C9EA33CAEB33CBC3EA9EF526AD
:10251800EB9FF525B35004AB25AA26EC33CCED335D
:10252800CDD5F0DAAE23AF242274E912198074F8FD
:102538001218A4851882851983ECF0A3EDF08A0897
:102548008B09900492E024F7C3940550067508019E
:102558000226C8120CAD8A0A8B0BAE0AAF0BEE4FDF
:1025680070030226C5AC08AD0974021218F0AA82DD
:10257800AB83120D3D8E828F83A3A3750CFF750D5F
:10258800FF750EFF750F00780C12173674021218BB
:10259800F07510FF7511FF7512FF75130078101292
:1025A8001736780C791012155C502A780C791012AD
:1025B80016FB7508017509C8750A00750B007808BF
:1025C800790C12155C5052850C08850D09850E0A88
:1025D800850F0B80507514017515C8751600751791
:1025E8000085100885110985120A85130B7808796A
:1025F8000C1216FB7814790812155C401C7508003B
:10260800750900750A00750B01780879101216FB18
:102618007808790C1216C2800C75080175090075C6
:102628000A00750B00740978081216A3750C19F5C1
:102638000DF50EF50F7808790C12161B8E828F8314
:10264800A3A3A3A3A3A3E0F8A3E0F97AD07B031282
:102658001819880C890DE4F50EF50F7808790C1215
:1026680016C274061218F0E0F8A3E0F97AD07B03DA
:10267800121819E8FA8A0CE4F50D7808790C121585
:102688005C50077808790C1216FB900492E06408F5
:10269800600AE064066005E06405702D750C0D782D
:1026A8000C790812155C4021750CF4750DFF750E38
:1026B800FF750FFF7808790C1216C2800C75080098
:1026C800750900750A00750B00851882851983E065
:1026D800F8A3E0F5838882780812176B740812183B
:1026E800BA7F10021A2C74F7121980120D4F900637
:1026F8002FE064017010906245E4F0A3F053F4F306
:1027080043FE0C5390F3120CFBE5C654804449F584
:10271800C6E59E547F644970F8906185740FF09007
:10272800062DE0F47002A3E0604E90062EE06008EB
:1027380014601B14602E804075080175090090060E
:102748002DE07808121891E508F45280802A75085F
:102758000175090090062DE07808121891E508F433
:102768005290801475080175090090062DE07808CC
:10277800121891E508F452A079007F02021A2C740D
:10278800F7121980E9FEEAFF74016E700C7A807BFB
:1027980000900491E0F9121397902B50E493F460A1
:1027A80008E493F9120B3F800953C680E59E547FD5
:1027B80070FA120D0190062FE064017003120B5D90
:1027C80090062DE0F47002A3E0604B90062EE060C6
:1027D8000814601A14602C803D7508017509009072
:1027E800062DE07808121891E508428080287508BF
:1027F8000175090090062DE07808121891E5084245
:1028080090801375080175090090062DE07808126C
:102818001891E50842A0120D4F120CAD8A088B09D9
:10282800A808A909E8496015E5E170FCE82414F551
:1028380082E93400F583E0F46003E0F5E174016FA8
:10284800700A7A01900491E0F91214210227827427
:10285800ED1219808A088B098C0A8D0B74131218D3
:10286800F0780C12175C7808790C12155C75100159
:102878007511C875120075130050127808790C127A
:1028880016FB7810790812155C50168010780C79B0
:10289800081216FB7810790C12155C400479018037
:1028A8000279007F0C021A2C74ED1219808A088BA9
:1028B800098C0A8D0B74131218F0780C12175C78B7
:1028C8000C790812155C40117808790C1216FBAACD
:1028D80008AB09AC0AAD0B802275100075110075A4
:1028E80012007513017810790C1216FB781079080C
:1028F8001216C2AA10AB11AC12AD1380A68A828B35
:10290800837508FF7509FF750AFF750B00780812B3
:1029180017497F04021A2C74F51219808C828D8352
:10292800780812175C8A828B83780812170FEA24BA
:1029380004F8EB3400F98C828D83A3A3A3A3E0FCF5
:10294800A3E0FD88828983C3E09CF0A3E09DF08822
:10295800828983C3E09420A3E0944E40268A828B28
:10296800837508FF7509FF750AFF750BFF78081254
:1029780016E88A828B83A3A3A3A3E02420F0A3E014
:10298800344EF002290574F5121980E9FE9005E726
:10299800E0FAA3E0FBEEC333F8E433F9741B28F53F
:1029A80082749439F583E02AF508A3E03BF50978A9
:1029B80008121B277A407B427C0F7D001224E074AA
:1029C800021218BA8A088B098C0A8D0B74107808C1
:1029D80012168AAA08AB097F04021A2C74F112197C
:1029E800808A0C8B0D8C0E8D0F740F1218F0E0FA84
:1029F800A3E0FB74111218F0E0F508A3E0F50978DC
:102A080008121B27EA2401F508EB3400F509E4F560
:102A18000AF50B780C790812159B7508717509026F
:102A2800780C790812159BAA0CAB0DAC0EAD0F12E1
:102A380024E074021218BA8B09EA450960047A0185
:102A480080027A00EC2AFCED3400FD74131218F0B1
:102A5800E0F8A3E0F9E8FEE9FFECF8EDF97A717B1C
:102A680002121819880889098E828F83780812172C
:102A78006BECF8EDF97A717B021218198A088B0948
:102A8800740578081218918E828F83A3A3A3A3E5F7
:102A980008F0A3E509F07F08021A2CC082C083E978
:102AA800906000F0D083D08222C0E074F2121A6CD9
:102AB800A2AFE433FED2AFE589A2E04012E589A2D5
:102AC800E1400CE589A2E24006E589A2E350031241
:102AD8001175900305E064017009E589A2E55003CA
:102AE800121175758900C2C5751A00EEA2E092AF81
:102AF8007F01021ACBC0E074F2121A6CA2AFE43361
:102B0800FED2AFE58AA2E44006E58AA2E5500312A8
:102B18001175758A00C2EB80CFC0E0C0D0E8C0E074
:102B2800E9C0E0A9A8D2AFC2C7751A00E9A2E7E4D4
:102B380033F8E9A2E792AFD0E0F9D0E0F8D0D0D0EE
:102B4800E032C2AF02000022FFFFFFFFFFFFFFFFDE
:102B5800C082C08390780E122B9AA3F090780F123F
:102B68002B9AF0907810122B93A3A3F0907811125F
:102B78002B93A3F0907812122B93F0907813E08A9D
:102B8800828B83F0D083D082020132E08A828B83E9
:102B9800A322E08A828B83A3A3A3A322AABDA8BCF5
:102BA80075B437EAFBE8FA02013274F41219148A90
:102BB800088B097A107B001214098A0A8B0BAE0A5B
:102BC800AF0B12043D8E828F83A3A3A3A3A3A37488
:102BD80010122C4B7407122C4BA37413122C57741D
:102BE8000A122C57A37432F0EE240BF582E43FF559
:102BF800837414F0EE240CF582E43FF5837402F03C
:102C0800EE240DF582E43FF5837442F0EE240EF5D0
:102C180082E43FF583744AF0EE240FF582E43FF531
:102C2800837443F07808121B27EEFCEFFD7A3B7B98
:102C38000E120AA974021218BAEEFAEFFB12140F58
:102C4800022D82122C4F2212436FA3A3A3A3221298
:102C58002C4FA3A32274F412191474E91218A4EACD
:102C6800FEEBFF7A107B001214098A088B0978089A
:102C7800121B277C687D0E7A3B7B0E120AA9740210
:102C88001218BA909248AC18AD1974171217B78574
:102C98000882850983124C80850882850983A3E010
:102CA800C0E074011218F0D0E01230A9C0E074023C
:102CB8001218F0D0E01230AEC0E074031218F0D051
:102CC800E01230B3C0E074041218F0D0E0123108FA
:102CD800C0E074051218F0D0E012310DC0E074069F
:102CE8001218F0D0E0123119C0E074071218F0D0B1
:102CF800E012311EC0E074081218F0D0E012313032
:102D0800C0E074091218F0D0E0123135C0E0740A3E
:102D18001218F0D0E01230FFC0E0740B1218F0D097
:102D2800E01230F6C0E0740C1218F0D0E01230E473
:102D3800C0E0740D1218F0D0E01230DBC0E0740E61
:102D48001218F0D0E01230D2C0E0740F1218F0D090
:102D5800E0F0AA08AB0912140F7508177509007876
:102D680008121B27740212190AEEFAEFFB1213431A
:102D780074021218BA74171218BA7F040219E612EC
:102D880018BA7F010219E674F412191474D71218CC
:102D9800A4E9FE7A107B001214098A088B097808C6
:102DA800121B277C7E7D0E7A3B7B0E120AA97402C9
:102DB8001218BA909231740E12190A74171217B7B2
:102DC800850882850983E0C0E0740E1218F0D0E00F
:102DD800125762E0C0E0740F1218F0D0E01230A968
:102DE800C0E074101218F0D0E01230AEC0E07411D8
:102DF8001218F0D0E01230B3C0E074121218F0D0FC
:102E0800E0123108C0E074131218F0D0E012310D4E
:102E1800C0E074141218F0D0E0123119C0E0741533
:102E28001218F0D0E012311EC0E074161218F0D05B
:102E3800E0123130C0E074171218F0D0E0123135CA
:102E4800C0E074181218F0D0E01230FFC0E0741916
:102E58001218F0D0E01230F6C0E0741A1218F0D050
:102E6800E01230E4C0E0741B1218F0D0E01230DB3E
:102E7800C0E0741C1218F0D0E01230D2C0E0741D0B
:102E88001218F0D0E0F0AA08AB0912140FEE900364
:102E980001F07C017D007A1F7B0012056F85188286
:102EA8008519837401F0740C1218F0E4F0A3F0048F
:102EB8001218F0E4F0740A1218F07408F0A3E4F0A1
:102EC80074081218F0740AF0A3E4F074061218F0EB
:102ED800E4F0A3F074041218F074E8F0A37403F09B
:102EE800AC18AD1979017A05FB1214C3740C1219C8
:102EF8000A79027A067B031214C3740E12190A792E
:102F0800177A087B031214C37C4C7D0E79077A0765
:102F18007B031214C3740112190A79017A107B0316
:102F28001214C3740A12190A79027A117B03121453
:102F3800C3740812190A79027A127B031214C37433
:102F48000612190A79027A137B031214C374041245
:102F5800190A79027A147B031214C37C537D0E7A02
:102F68001579001206E97CA07D007A067B0012051F
:102F78006F7CA07D007A077B0012056F7CA07D0026
:102F88007A087B0012056F7CA07D007A097B00120D
:102F9800056F74251218F0124B49041218F01230FC
:102FA800C774031218F0E4F074021218F07401F0F8
:102FB800742512190A79047A087B041210557401D1
:102FC80012190A79017A007B04121055AC18AD1950
:102FD80079017A027B04121055740312190A7901D7
:102FE8007A037B04121055740212190A79017A06C1
:102FF8007B0412105590952B12177A1206EF9095B4
:103008002B12177A1207F7120FEF90952B12177AD7
:103018001211ED900301E0F912132B12152F12046F
:103028002512042B12121712122F12100112100758
:1030380012100D1212359095BDAC18AD197401120D
:1030480017B7A818A919880889097808121B277CB6
:10305800017D007AF07B1F12115174021218BA8593
:103068001882851983E064AA600312047F1211B7DD
:103078007A7C7B0E1211F379011208F37902120897
:10308800ED79001208F979011208FF7A017B0090A6
:103098000301E0F9121397790112141B7429022D08
:1030A8007F12575DE0221230B9E0221230B9A3E056
:1030B800221230BD221230C122125766A3A32274F5
:1030C80001F0851882851983F022F0E508240F1293
:1030D80030ED22F0E508240E1230ED22F0E5082448
:1030E8000D1230ED22F582E43509F583E022F0E592
:1030F80008240C1230ED22F0E508240B1230ED22E2
:10310800123113E022123113A3E0221230BDA3A31F
:1031180022123124E022123124A3E0221231282283
:103128001230C1A3A3A3A32212313BE02212313BE8
:10313800A3E022123128A3A32274F112191474FDFA
:103148001218A4890E909570AC18AD197403121753
:10315800B77A10FB1214098A0A8B0BC2AFA818A9F8
:1031680019880889097808121B277C017D007AFED6
:103178007B1F12115174021218BA74011218F085CB
:1031880082088583097808121B277C017D007AFF55
:103198007B1F12115174021218BA74021218F085AA
:1031A80082088583097808121B277C017D007AF044
:1031B8007B1F12115174021218BAD2AF1204378A47
:1031C800088B091204378A0C8B0DAE0CAF0D120454
:1031D800378A0C8B0DA80CA90DC3E5089EE5099F3D
:1031E8005033C3EE98EF994033C3E50898E5099941
:1031F8004004AA08AB09900B2AEAF0A3EBF0851863
:1032080082851983E06026F8900B2AC3E098F0A322
:10321800E09400802BC3E89EE99F5006EEFAEFFB8E
:1032280080D4C3E89508E9950950C780C97401128C
:1032380018F0E0F8600B900B2AE028F0A3E03400C7
:10324800F0900B2AE0F8A3E0F9C3E894ABE9940501
:103258004022E82456F8E934FAF9E875F064A4F84D
:10326800AAF075F064E9A42AF97ABB7B011218194F
:10327800E8A38002A3E4F0900302E06405705774A9
:1032880001650E7051850A82850B837431F0E50A59
:103298002402F8E4350BF9A3AA82AB8375F00A90EF
:1032A8000B2CE084940A8A828B83400A7401F0888C
:1032B800828983E4801AE4F0900B2CE0FA75F00A16
:1032C80084ABF075F00AEA84C454F02B88828983B1
:1032D8001257AE1211F9AA0AAB0B12140F796474C3
:1032E800031218BA7F070219E674F012191474F958
:1032F8001218A474011218F0EAF0A3EBF07401128A
:1033080018F0A3E054806041900301E0F912137FA4
:103318008A088B09AE08AF09EE4F60208E828F8332
:10332800E064C07010A3A3A3E0FA8E828F83A3A3E6
:10333800E0F9120467EEFAEFFB12136D740112182C
:10334800F01243A3648002436074011218F0E0A2F3
:10335800E050257A787B0E1214CF7A077B0312107F
:10336800737A407B00900301E0F9121397740112FD
:1033780018F0E064010241785402604190952712E8
:103388001B3A7A027B00900301E0F912149F74043F
:103398001218BAA285501B900305E064017013123D
:1033A8001223900305E4F012124D12122F900AF620
:1033B800E4F074011218F0E06402024178E054402D
:1033C8007003023572900E4BE070371230C77900E7
:1033D80012141B79011212471214D5AC18AD1979C1
:1033E800017A057B031214C3909523121B3A7A4085
:1033F8007B00900301E0F912149F74041218BA02BA
:103408003567E41230C91214D5AC18AD1979017AB0
:10341800057B031214C3900306E4F0F912124790D7
:103428000B31E06036900B0BE4124378E4F0900B1C
:103438002FF0900B2E04F0900AF6E4F0900B30F089
:10344800900B33F07C08FD79BB7A0D7B0B12150BC2
:10345800900AF0E4F0900AF2F08003121529121293
:103468002312122F121001900B31E06069900B2685
:10347800E07008900B28E064017015C2AF7C827D73
:103488000A7A6E7980121475D2AF900B26E0700814
:10349800900B28E06402703EC2AF75087275090B84
:1034A8007808121B27124B6012115774021218BAAF
:1034B8007A0A7B001211937508B075090D78081205
:1034C8001B277C8B7D00900AEC124B6712115774F6
:1034D800021218BAD2AF7A087B00900301E0F91201
:1034E80014AB7A047B00900301E0F91214AB7A0064
:1034F8007B02900301E0F91214AB7A007B0490037D
:1035080001E0F91214AB7A007B10900301E0F91284
:1035180014AB7A007B08900301E0F91214AB7A002F
:103528007B01900301E0F91214AB7A107B00900341
:1035380001E0F91214AB7A007B40900301E0F91224
:1035480014AB7A027B00900301E0F91214AB7A40C5
:103558007B00900301E0F91214AB790112141B747B
:10356800011218F0E06440024178A3E054027003AD
:103578000236407A007B02900301E0F91214AB7A1C
:10358800007B04900301E0F91214AB900AF8E07094
:103598000474018001E4F0900303E4F0900B0CF054
:1035A800900B0B124378E08518828519836024E418
:1035B800F01214D5AC18AD1979017A057B031214F1
:1035C800C31212597C0F7D0079FF7AFB7B0A121512
:1035D8000B80587401F01214D5AC18AD1979017A22
:1035E800057B031214C37A0B7B0312044F7C0B7DFB
:1035F8000379177A087B031214C3909527121B3A94
:103608007A027B00900301E0F912149F74041218E7
:10361800BA12126B90951F121B3A7A007B20900306
:1036280001E0F912149F74041218BA74011218F008
:103638001243A3640202436074011218F0A3E05419
:10364800047003023B54900B0CE4F0FA7B049003E3
:1036580001E0F91214AB900B0BE060271470030221
:1036680036EE1470030238041470030239291470FA
:1036780003023989147003023A35147003023AC000
:10368800023B097508087509007808121B277CFB9E
:103698007D0A7A827B0A12150574021218BAE9604B
:1036A80014121265900B2DE0F9121301900B0B7494
:1036B80001F0023B36900B0BE4F012125F124B58EC
:1036C80094065003023B0912103D7A387B08121009
:1036D80049900B201217867A407B00900301E0F98D
:1036E800121397023B09900D361243A3F8900B2D45
:1036F800E024FE601B14606214606B1470030237D0
:103708008B1470030237C01470030237F8023B09A8
:10371800EAC3940A400574BB6A70568518828519F5
:10372800837401F0900AF2F01214D5AC18AD19792F
:10373800017A057B031214C37A227B0312044F7C9F
:10374800227D0379177A087B031214C312127712A9
:103758001283900B0B7402023800900B0B7403F069
:10376800121295023B09E8C3940A400B74BB6860C7
:1037780006121307023AF2900B0B7404F01212B3FC
:10378800023B09790074BB6A6035900B0B7405F035
:10379800890875090074037808121891124B25607E
:1037A8000BE9900B2EF01212CB023B0909E9C394E6
:1037B8000A4003023B1280D87A0074BB6870061274
:1037C800130D023AF2900B0B7406F0EA75F009A497
:1037D800F8A9F0124B88600CEA900B2FF0F912123E
:1037E800DD023B090AEAC3940A4003023B1280DB6C
:1037F8001212EF900B0B7408F0023B127A107B0048
:103808001214098A088B09AE08AF097508009003DD
:1038180002E0640560030239028002050885080A8F
:10382800750B007403780A1218917482250AFA74C9
:103838000A350BFBEA2408F8E43BF988828983E01F
:10384800F470D8E508900B1C700AE044111257A4D4
:10385800D2E78008E044211257A44441F0888289C5
:1038680083E508F0750A07750B00780A121B277C98
:10387800167D0BEA2409FA50010B12134374021245
:1038880018BA7C0679007A167B0B120479E9F509D7
:10389800900B307401F0A90812128990951F121B21
:1038A8003A7A007B20900301E0F912149F74041205
:1038B80018BA900D36E064BB700474018002E0040D
:1038C800F08E828F83742FF0A3E508F0900B1CE034
:1038D8008E828F83A3A312436FE509F0EEFCEFFD00
:1038E8007A1079011211F97C077D0079007A167B2C
:1038F8000B12150B900B0B7401F085188285198338
:10390800E4F01214D5AC18AD1979017A057B0312CD
:1039180014C3EEFAEFFB12140F900AF2E4F0023B24
:10392800097508087509007808121B277C0D7D0B9E
:103938007AFB7B0A12150574021218BAE96021781D
:1039480008121B277C0D7D0B7A827B0A12134374A5
:10395800021218BA1212A1900B26E04441F080031B
:103968001212A790951B121B3A7A007B2090030134
:10397800E0F912149F74041218BA900B3074018085
:10398800427E007508088E097808121B277C0D7D79
:103998000B7AFB7B0A12150574021218BAE9703902
:1039A8001212BF90951B121B3A7A007B20900301DC
:1039B800E0F912149F74041218BA900B2E7401F0D7
:1039C800900B30F0900B0BF07C087D0079BB7A0DE2
:1039D8007B0B12150B023B090EEE75F009A4F8A932
:1039E800F0747228F8740B39F9E8FAE9FB8A828BCB
:1039F80083A3E064BB70E1EEF07808121B277C0D0E
:103A08007D0BEA2402FA50010B12134374021218B8
:103A1800BAEEF91212B9900D37E064BB7004740164
:103A28008002E0041257A44444F00239AB900B2EF4
:103A3800124B7612189174822508F8740A3509F920
:103A4800E8FAE9FB8A828B83A3A3A3A3A3A3A3A376
:103A580074FFF07C077D007900EA2409FA50010B15
:103A680012150B900D36E014F075080675090078EC
:103A780008121B27900B2EE0F5087403780812181B
:103A880091748B2508FC740A35091257DD1213430B
:103A980074021218BA900B70124B5B94094002E43E
:103AA800F0900D36E0700374BBF0900B26E04442B2
:103AB8001243831212D180327C097D00900B2FE0D3
:103AC8008CF0A4F8A9F0747328FA740B39FB79BB4D
:103AD80012150B900D37E014F0700374BBF0900BC7
:103AE80026E044441243831212E390951B121B3ABA
:103AF8007A007B20900301E0F912149F74041218D5
:103B0800BA900B0BE0C394024024900AF2E06401DF
:103B180070059094F7800390954B121B3A7A007BBE
:103B280010900301E0F912149F74041218BA900B54
:103B38000CE4F07C0FFD79FF7AFB7B0A12150B74FD
:103B4800011218F01243A3640402436074011218AE
:103B5800F0E05408604B900AF0E06401703890037C
:103B680002E064057030900B26E0602A900AF8E0C5
:103B78007024900B26E0A2E7401CD2E61257467A42
:103B88008E7B0E120479E9900B1DF07C8E7D0E7AE7
:103B98000379011211F974011218F0E06408024166
:103BA80078A3E054087003023D5C7A007B08900318
:103BB80001E0F91214AB900B31E07003023D3F7E37
:103BC80000EE75F009A4F8A9F0747228F508740BD2
:103BD80039F509E508245DF50AE43509F50B750C96
:103BE80008750D00780C121B277CFB7D0AAA0AAB0E
:103BF8000B12150574021218BAE9602E90030574A9
:103C080001F0121229900DB17404F0EEA3F0E5084A
:103C1800245CF582E43509F583E4F07C10FD79BB7A
:103C2800AA0AAB0B12150B023CF1750A08750B00BA
:103C3800780A121B277CFB7D0AE5082402FAE43582
:103C480009FB12150574021218BAE96011900305F0
:103C58007401F0121229900DB17401023CED780A3A
:103C6800121B277CFB7D0AE50824B7FAE43509FB1B
:103C780012150574021218BAE96010900305740150
:103C8800F0121229900DB17405805A780A121B2778
:103C98007CFB7D0AE5082411FAE5093401FB1215BD
:103CA8000574021218BAE960109003057401F01245
:103CB8001229900DB17406802C780A121B277CFB00
:103CC8007D0AE508246BFAE5093401FB1215057431
:103CD800021218BAE960209003057401F012122943
:103CE800900DB17407F0EEA3F07A107B00900301F9
:103CF800E0F9121397804374096E702E124B589492
:103D080006402412103D7A387B08121049EAF8EB75
:103D1800F9ECFAEDFB900B2012179E7A407B00908D
:103D28000301E0F912139712125F1215350EEEC354
:103D3800940A5006023BC912125F7C0F7D0079FF7E
:103D48007AFB7B0A12150B74011218F01243A36454
:103D58000802436074011218F0A3E05401700302D2
:103D68003EBB12103D7A387B081210498A088B092D
:103D78008C0A8D0B851882851983E4F0E0FA8A0C89
:103D8800750D007402780C1218917472250CF87471
:103D98000B350DF974051218F0E8F0A3E9F0740575
:103DA8001218F0E024C6F8A3E03401F9E8FCE9FDB4
:103DB800EA75F009A4FAABF074722AF8740B3BF9AF
:103DC80074031218F0E8F0A3E9F08C828D83780C64
:103DD80012175C9094FB780C1216D5780C7908129F
:103DE800155C402C750C00750D00750E00750F00E4
:103DF8008C828D83780C12176B7C097D0079BB74DB
:103E0800031218F0E024B6FAA3E03400FB12150BF5
:103E180074051218F0E024EEF8A3E03401F9E8FA8A
:103E2800E9FB8A828B83780C12175C9094FF780CDC
:103E38001216D5780C790812155C401212438F12AD
:103E480018F0E02410FAA3E03401FB12150B7405F6
:103E58001218F0E02416F8A3E03402F9E8FAE9FBB6
:103E68008A828B83780C12175C909507780C12164F
:103E7800D5780C790812155C401212438F1218F08D
:103E8800E0246AFAA3E03401FB12150B8518828539
:103E98001983124B525003023D847A007B01900330
:103EA80001E0F91214AB74011218F01243A3640173
:103EB80002436074011218F0E05404601A1214D519
:103EC8007A047B00900301E0F91214AB7401121814
:103ED800F0E06404024178E054207003023FA87ABD
:103EE800207B00900301E0F91214AB9095BFAC1849
:103EF800AD1974011217B712123B12152912151DAC
:103F0800121523121517C2AF7C827D0A7A6E79804A
:103F180012147575087275090B7808121B27124B55
:103F28006012115774021218BA7A0A7B00121193A0
:103F38007508B075090D7808121B277C8B7D0090D9
:103F48000AEC124B6712115774021218BAA818A972
:103F580019880889097808121B277C017D007AF0E6
:103F68007B1F12115774021218BA7808121B277C8B
:103F7800017D007AFE7B1F12115774021218BA785D
:103F880008121B277C017D007AFF7B1F12115774D2
:103F9800021218BAD2AFC2AF75C9AB75C95B80FE41
:103FA800E05410700302417E900AF6E004F01460B9
:103FB8001814607214606714606C14607614606E74
:103FC80014607014607B02417012121D12131312D8
:103FD800123B1215357A007B02900301E0F91214A6
:103FE800AB7A007B10900301E0F91214AB7A007BE6
:103FF80020900301E0F91214AB909523121B3A7A32
:10400800407B00900301E0F912149F74041218BA5F
:104018007A027B00900301E0F91214AB80031212BC
:104028003B90952780131212411215358008121201
:1040380041800312123B90950F121B3A7A100241ED
:104048006112124112103D900B26E04450F0900E80
:104058003AE0C39410400A740FF0900DB0F01214B7
:10406800FF900DB0E0C0E075F009A4F8A9F074AABB
:1040780028F582740D39F583D0E0F0900DB1E0C0D9
:10408800E01243A874AB28F582740D39F583D0E0AB
:10409800F0900DB2E0C0E01243A874AC28F5827429
:1040A8000D39F583D0E0F0900838E0C0E01243A85D
:1040B80074AD28F582740D39F583D0E0F090083995
:1040C800E0C0E01243A874AE28F582740D39F58378
:1040D800D0E0F090083AE0C0E01243A874AF28F5A9
:1040E80082740D39F583D0E0F090083BE0C0E0120F
:1040F80043A874B028F582740D39F583D0E0F090A8
:10410800083CE0C0E01243A874B128F582740D3968
:10411800F583D0E0F090083DE0C0E01243A874B207
:1041280028F582740D39F583D0E0F0900E3AE0045A
:10413800F0900DB0F0900B1FE4F07A10FB900301A3
:10414800E0F91214AB7A027B00900301E0F9121334
:1041580097909517121B3A7A407B00900301E0F97B
:1041680012149F74041218BA74011218F0E0641043
:10417800FAA3E0024360A3E05410605E85188285CC
:104188001983E4F0FA7B10900301E0F91214AB9064
:104198000AF8E0700B900B0BE0700512124D8029A5
:1041A800900B0BE0640270101214D5AC18AD19799D
:1041B800017A057B031214C3124B3812150B121225
:1041C80065900B2DE0F9121301900B0CE4F004122A
:1041D80018F01243A3641002436074011218F0A38C
:1041E800E054407003024308900B29E004F0F8748F
:1041F800011218F0E0FEA3E06440FF74FC28C394A9
:1042080006507C7AF37B0A121511E9F50812042B83
:10421800E508C39402502D900B29E0A2E040081253
:10422800123B121319800312124190952F121B3A58
:104238007A007B40900301E0F912149F740412186D
:10424800BA0243038518828519837401F0F91212A2
:10425800471214D5AC18AD1979017A057B031214ED
:10426800C37A397B0312044F7C397D0379177A08A6
:104278007B031214C3900B29E4F0900B328064E89E
:10428800C39404E850276073120431790012045B68
:10429800900B2CE0C0E0900B29E0F874F228F5822E
:1042A800E4340AF583D0E0F09095338080C3940A13
:1042B80040498518828519837401F01214D5AC1809
:1042C800AD1979017A057B031214C37A397B03127D
:1042D800044F7C397D0379177A087B031214C39045
:1042E8000B29E4F07C03FDF97AF37B0A12150B7AAB
:1042F800007B40900301E0F91214ABEEFAEF80580E
:1043080074011218F0A3E054207A00604E7B2090CC
:104318000301E0F91214AB900AF8E0700B900B0B54
:10432800E0700512124D8026900B30E4F0900B0BD4
:1043380004F0121265900B2DE0F91213017A007B3C
:1043480010900301E0F91214AB900B0CE4F0740127
:104358001218F01243A36420FB80027B007407123A
:1043680018BA7F080219E6F08E828F83A3A3A322CE
:10437800F0900B2D7402F0900AF822F0900B307434
:1043880001F0900B0BF0228A828B83E4F0A3F0A358
:10439800F0A3F07C09FD79BB740322E0FAA3E022C4
:1043A800900DB01243AF22E075F009A4F8A9F022ED
:1043B80074F012191474FF1218A4EA85188285196A
:1043C80083F0900306E0700474018001E4F0900E1D
:1043D8004BE064016003024AB6909523121B3A7AB7
:1043E800407B00900301E0F912149F74041218BA7C
:1043F800851882851983E014601514601924FE60FD
:104408002A24FC601F24F8601424F0602580299079
:104418000303740A80219003037430801A90030305
:10442800740B80139003037433800C90030374326D
:1044380080059003037431F07A007B10900301E04B
:10444800F91214AB900AF6E06003024AAB900B290C
:10445800E06003024AAB900303E06012900AF8E0C0
:10446800700C7A007B20900301E0F91214AB8518D8
:1044780082851983E0A2E4501990951F121B3A7A9D
:10448800007B02900301E0F912149F74041218BA19
:10449800800C7A007B02900301E0F91214AB9003C0
:1044A80003E07003024B20900306E06003024B20F8
:1044B800900303E0C0E0900B0CE0F874FB28F58251
:1044C800E4340AF583D0E0F0900B0CE004F0900A95
:1044D800F8E0600302457A90954B121B3A7A007B0C
:1044E80010900301E0F912149F74041218BA900B8B
:1044F8000CE064017010900303E0640B60427902E1
:104508001211BD121253900B0CE0F8900303E064F3
:104518000B6027E0640A7019900B0CE4F079021222
:1045280011BD7C0F7D0079FF7AFB7B0A12150B8089
:104538002574FF28F91212F5801CE8C39409500667
:1045480012125F0245FE900B0CE4F0FA7B08900310
:1045580001E0F9121397900B0CE0C3940F5003027B
:104568004603E4F0FA7B08900301E0F9121397027E
:104578004603900B30E06003024603900B0CE0F812
:1045880074FF28F9900B0BE0602F1460751470030A
:104598000246701470030246BA1470030246BA1435
:1045A80070030247591470030247D4147003024879
:1045B80070147003024A3580421212F5900B0CE019
:1045C800FA74FA2AF582E4340AF583E0640B70037E
:1045D800024688EAC3940F4003024688900303E02A
:1045E800640A701779021211BD7C0F7D0079FF7A79
:1045F800FB7B0A12150B900B0CE4F0900303E4020A
:104608004AB3900303E06430700E900B2D124B5B9D
:104618009408401774028012E06432701D900B2DCC
:10462800E014F0C3940250037407F0900B0CE4F00C
:10463800900B2DE0F91213018011E0640B700C7AD5
:10464800007B04900301E0F9121397900AFBE064E1
:104658000A70A8A3E0640A70A2900B0CE0640370CF
:104668009A900B0B74078092900303E0640B701709
:10467800900302E064057083900D36E0F912128908
:104688007A007B0402456FE0640A60030246031265
:104698001265900B2DE0F9121301900B0B7401F0C9
:1046A800A3E4F07C0FFD79FF7AFB7B0A12150B025D
:1046B8004603900303E0640A701A121265900B2DEA
:1046C800E0F91213017C087D0079BB7A0D7B0B128F
:1046D800150B80C6E0640B7060E8C39408402D9009
:1046E8000B14E064BB709912129B900B0CE4F075EC
:1046F8000808F5097808121B277CFB7D0A7A0D7BD0
:104708000B12134374021218BA024603900B0B746F
:1047180001F01212BF90951B121B3A7A007B209071
:104728000301E0F912149F74041218BA7C087D0082
:1047380079BB7A0D7B0B0245FBE8C39409400890CE
:104748000B0C7409024602E024D0FA1212FB02464E
:1047580003900B2E124B6D702EE8851882851983F5
:10476800124B3240030245FE900B2E124B52400270
:10477800E4F0124B76121891124B2570448518827A
:10478800851983E00480D9E064326003024840E878
:104798008518828519838008851882851983E00425
:1047A800124B3240030245FE900B2EE014F0C394E6
:1047B8000A40037409F0124B76121891124B2560C7
:1047C800D7900B2EE0F91212CB0245FE900B2F1258
:1047D8004B6D7028E8851882851983124B32400387
:1047E8000245FE900B2F124B524002E4F0124B810F
:1047F800703B851882851983E00480DFE06432709D
:1048080037E8851882851983800885188285198379
:10481800E004124B3240030245FE900B2FE014F0E7
:10482800C3940A40037409F0124B8160DD900B2F8A
:10483800E0F91212DD0245FEE0640B700F7A007B8E
:1048480004900301E0F91213970245FEE0640A6040
:10485800030245FE121265900B2DE0F91213019028
:104868000B0B7401F00245F17A107B001214098ACF
:10487800088B09AE08AF099095C0AC18AD19740142
:104888001217B7900303E0640B6003024A08900A0A
:10489800FDE0F87433687022A3E064316003024AD3
:1048A80019A3E064326003024A19900B0CE4F0F992
:1048B8001212477A207B0002456F74316860030248
:1048C8004A19A3E064316003024A19A3E064306026
:1048D80003024A19790012124712152912151712E4
:1048E800151D121523EEFAEFFB1204497508107511
:1048F80009007808121B27EEFCEFFD7ADA7B0A1212
:10490800134374021218BAEEFAEFFB12140FC2AF77
:104918001204438A088B09E50824CAFEE509340213
:10492800FFC3EE94F1EF941F50E6900AEAE508F011
:10493800A3E509F0120443EA24F4F8E43BF9C3E5DB
:104948000898E5099940EDC3E5089AE5099B5007E1
:10495800C3EA9EEB9F40DDC3E894F1E9941F50D46D
:10496800900AECEAF0A3EBF07C827D0A7A6E7980FB
:1049780012147575087275090B7808121B27124BEB
:104988006012115774021218BA7A0A7B0012119336
:104998007508B075090D7808121B277C8B7D00906F
:1049A8000AEC124B6712115774021218BAA818A908
:1049B80019880889097808121B277C017D007AF07C
:1049C8007B1F12115774021218BA7808121B277C21
:1049D800017D007AFE7B1F12115774021218BA78F3
:1049E80008121B277C017D007AFF7B1F1211577468
:1049F800021218BAD2AFC2AF75C9AB75C95B80FED7
:104A0800E0640A600C900B0CE0C394065003024665
:104A180003900B0CE4F0900B0B04F0121265900B52
:104A28002DE0F91213017C0F7D000246AE900AEFCB
:104A3800124B6D6005E064327018E8900AEF70045C
:104A480074018001E4F01212EF900B33E004F002DD
:104A580045FEE0640B7028E8900AEE600474FF805D
:104A680001E4F0900B33E4F0121265900B2DE0F99D
:104A7800121301124B3812150B900B0CE480CFE087
:104A8800640A60030245FE900B33E0A2E0500CE894
:104A9800900AEF700474018001E4F0900B33E4F0A5
:104AA80002485C900B0CE4F0900303F0806A900BD2
:104AB8000CE4F0900303F0900B1FE0C39406404C05
:104AC80012103D7A387B081210498A088B098C0A23
:104AD8008D0B900B20780C12175C909537780C1280
:104AE80016D5780C790812155C402D900B1F124BC7
:104AF80049A3F090952F121B3A7A407B009003014E
:104B0800E0F912149F74041218BA800C7A407B00E2
:104B1800900301E0F91213977401024367748A2520
:104B280008F582740A1230F0F422F0E0C3941422DB
:104B3800900B0B7401F07C0F7D0079FF7AFB7B0AE8
:104B480022E4F0A3F0A3F0A3F022124B5B940A2214
:104B5800900B1FE004F0C3227C3E7D02900AEAE03D
:104B6800FAA3E0FB22E0F8900303E0643022E0F5CA
:104B78000875090074037808221243AF124B882283
:104B8800747328F582740B39F583E064BB2274F7DB
:104B980012191474F21218A4E9FE146016147003A2
:104BA800024C71147003024C7124FE7003024C3ADB
:104BB800024C76740812190A7A047B031214C97419
:104BC800081218F0124C8074091218F0E0C0E07452
:104BD800011218F0D0E0F0740A1218F0E0C0E07486
:104BE800021218F0D0E0F074041218F0E4F0740324
:104BF8001218F0E4F0740D1218F0E0C0E074071217
:104C080018F0D0E0F0740C1218F0E0C0E07406124E
:104C180018F0D0E0F0740B1218F0E0C0E074051240
:104C280018F0D0E0F0AC18AD197A087900120FF539
:104C3800803C1214D579001211BD7C747D947A00E1
:104C480079001211C37C587D947A0279001211C33D
:104C580090951F121B3A7A407B00900301E0F912ED
:104C6800149F74041218BA8005900AF0E4F0EE90CC
:104C78000302F0740E022D87E0851882851983F0EF
:104C88002274F012191474FE1218A474011218F088
:104C9800E9F07A107B001214098A088B0974011252
:104CA80018F0E0600A24FE700302525402572D7A6D
:104CB800607B0379001211FF750A50750B03780A9F
:104CC800121B277C607D037A3B7B0E120B03740258
:104CD8001218BA7C827D0A7A6E798012147B90034E
:104CE80050E014601D147003024E60147003024FEC
:104CF800F624FB70030251E424F8700302522E02DA
:104D0800572D750A00AE0A8E0C750D007403780CC9
:104D18001218917482250CF50E740A350DF50F756D
:104D28000C06750D00780C121B277C517D03E50ECF
:104D38002409FAE4350FFB12150574021218BAE9B2
:104D48007003024DDD9003047401F0900DB104F07E
:104D5800EEA3F07A047B00900301E0F91214AB9003
:104D68000AF2E06401702F900B0B7401F0A3E4F0D9
:104D7800121265900B2DE0F912130185188285191E
:104D880083E4F01214D5AC18AD1979017A057B03C8
:104D98001214C302572D900357E054F06430702367
:104DA800850E82850F83A3A3A3A3A3A3A3A374FF44
:104DB800F07C077D007900E50E2409FAE4350FFB45
:104DC80012150B7A107B00900301E0F912139790EB
:104DD8000305025096EEC394094023900AF2E0645A
:104DE80001701B750C07780C121B277C517D037A08
:104DF800167B0B12134374021218BA12127DEE7549
:104E0800F006A4FEAFF074342EFE740B3FFF750C51
:104E180006780C121B277C517D03EEFAEFFB121566
:104E28000574021218BAE96020850882850983741E
:104E3800CCF0A312575912574F1211F97C067D0076
:104E48007900EEFAEFFB12150B050AE50AC3940A7E
:104E5800400302572D024D0D7A107B001214097A77
:104E6800107B001214097A107B00121409900B278A
:104E7800E014601514601E24FE602624FC602E24B5
:104E8800F8603624F0603E8047900EB274411257A5
:104E9800A4D2E0803A900EB274421257A4D2E180B4
:104EA8002E900EB274431257A4D2E28022900EB212
:104EB80074441257A4D2E38016900EB27445125768
:104EC800A4D2E4800A900EB274461257A4D2E5F038
:104ED800900B26E0900370F0900B1DE0900E94125A
:104EE80057BD600302572D750A03750B00780A1227
:104EF8001B277C517D037A927B0E121505740212D2
:104F080018BAE97003024F97900B1DE4F07E0090E9
:104F18000370E0A2E05065EE601414601814601C81
:104F280014602014602414602814602C804E900EA5
:104F3800A27441802D900EA274428026900EA27415
:104F480043801F900EA274448018900EA27445806E
:104F580011900EA27446800A900EA27447F0900B2E
:104F680015E41257467AA27B0E120479E9900B1DBC
:104F7800F07CA27D0E7A1079011211F9900370E08D
:104F8800C313F00EEEC39407400302572D808090A0
:104F98000B27E0F8700302572D900B1DE4F0E8147E
:104FA800601114601524FE601824F4601B24F0605E
:104FB8001E8022900EB27441801A900EB274428004
:104FC80013900EB27443800C900EB2744580059015
:104FD8000EB27446F07CB27D0E7A1079011211F986
:104FE8007C03900B1DE0F97AB27B0E0251DA750A48
:104FF80002750B00780A121B277C517D037A927B7D
:105008000E12150574021218BAE9700302572D9092
:105018000AF0E06401600302572D900353E0F8A3FF
:10502800E024BF60241460731470030250E014700D
:1050380003025122147003025122147003025163B7
:105048001470030251A902572D900B1DE06870439C
:10505800E4F07E017C08900B1DE0F97A927B0A123D
:105068000479E9900B1DF08E0A750B007403780A19
:10507800121891748A250AFC740A350BFD7A107986
:10508800011211F90EEEC3940A40C9900B2774015E
:1050980002572C12574074410251C3900B1DE0680F
:1050A800702E900B26E0C2E1F0900B1DE4F07C0816
:1050B800F97A827B0A120479E9900B1DF07C827DD3
:1050C8000A7A1079011211F9900B27740202572CF1
:1050D80012574074420251C3900B1DE06870339020
:1050E8000B26E0C2E012577BEE75F009A4F8A9F090
:1050F800747328F50A740B1257CE1204791257AA42
:105108001211F90EEEC3940A40DE900B27740402C4
:10511800572C12574074430251C3900B1DE068701E
:1051280033900B26E0C2E312577BEE75F009A4F822
:10513800A9F074B328F50A740D1257CE1204791227
:1051480057AA1211F90EEEC3941440DE900B27747F
:105158001002572C12574074458060900B1DE06870
:105168007038900B26E0C2E412577BEE75F009A464
:10517800F8A9F074CE28F50A740B39F50B7C0712E0
:1051880057D31204791257AA1211F90EEEC3940AD2
:1051980040D9900B27742002572C12574074468030
:1051A8001A900B1DE068700EE4F0900B26F0A3F047
:1051B80012152302572D1257407447F07CC27D0EFA
:1051C8007A1079011211F97C03900B1DE0F97AC26B
:1051D8007B0E120479E9900B1D02572C12103D909A
:1051E8000351E0900838F0900352E0900839F090AD
:1051F8000353E090083AF0900354E090083BF09095
:105208000355E090083CF0900356E090083DF012FA
:1052180010378508828509837416F0A3744B1257DA
:1052280059744F02571AA3E0644F600302572DA325
:10523800E06450600302572D900AF77402F0FA7B7D
:1052480000900301E0F912139702572D12103D90B8
:105258000B1EE4F07A607B0379021211FF750A5085
:10526800750B03780A121B277C607D037A3B7B0E43
:10527800120B0374021218BA900351E0FF8F0A75DB
:105288000B00A3E0FE900350E01460341470030296
:10529800537C1470030253DE24FE700302545C1422
:1052A80070030254A71470030254FF1470030256CB
:1052B8003C14700302572214700302572802572D1A
:1052C8007403780A1218917482250AF50A740A354B
:1052D8000BF50B900B1EE0F97C08E50A2CFAE43577
:1052E8000BFB1204791257B8707FEE68707B900B35
:1052F800287401F0750C06750D00780C121B27E553
:105308000A2409FCE4350B1257DD12134374021208
:1053180018BA900B70124B5B94094002E4F07C08B9
:105328007D007900900351E0F50A890B7403780A2F
:10533800121891748A250AFA740A350BFB12150B98
:10534800900351E0F50A750B007403780A1218915E
:10535800748A12573B740A350BF58374FFF085087D
:1053680082850983740302543F8508828509837402
:1053780050025716900B1EE0F97C087A827B0A12BD
:1053880004791257B87044EF687040900B28740184
:10539800F07C087D0079007A827B0A12150B750A69
:1053A80008780A121B277CD27D0E7A827B0A121398
:1053B8004374021218BA8508828509837404F09030
:1053C8000B1EE0850882850983807A850882850915
:1053D800837451025716EF75F009A4F50AE5F0F544
:1053E8000B7472250AF50C740B350BF50D850C82C0
:1053F800F583A385820A85830B900B1EE0F97C094F
:10540800AA0AAB0B1204791257B8703DEE687039CE
:10541800900B287402F0850A82850B83E4F07C09DE
:10542800FD79BBE50C2402FAE4350DFB12150B855A
:1054380008828509837405F09003511257C5F090CE
:105448000B1E1257C5A302571A8508828509837453
:1054580052025716900B1EE0F97C087A517B031212
:1054680004791257B8702D900359E0687026900B94
:1054780028740112578C121B277C517D037A827B7A
:105488000A12134374021218BA85088285098374B4
:1054980007025708850882850983745402571690B5
:1054A8000B1EE0F97C097A517B031204791257B874
:1054B800703A90035AE0687033900B287402F075C4
:1054C8000A09780A121B277C517D03900351124365
:1054D800AB747328FA740B39FB1213437402121855
:1054E800BA85088285098374080257088508828569
:1054F80009837455025716900B1EE0F97C0A7A51FD
:105508007B031204791257B8600302563190035B8B
:10551800E0686003025631900352E0FC75F009A47C
:10552800F8A9F0747228FA740B39FB900351E0243F
:10553800CF600F14603514606C1470030255E602D6
:10554800572D900B287402F0EA245CF582E43B1294
:105558005789121B277C537D03EA245DFA50010BFF
:1055680012134374021218BA025626900B287402BA
:10557800F0EA24B6F582E43B125789121B277C53C4
:105588007D03EA24B7FA50010B1213437402121870
:10559800BA7A387B08121049125803121891125718
:1055A80039740D8070900B287402F0EA2410125799
:1055B80084121B277C537D03EA2411FAEB3401FB88
:1055C80012134374021218BA7A387B08121049125F
:1055D8005803121891746012573B740D8037900B62
:1055E800287402F0EA246A125784121B277C537D20
:1055F80003EA246BFAEB3401FB121343740212180A
:10560800BA7A387B08121049125803121891748814
:1056180012573B740D350BF583780C12176B850800
:10562800828509837409025708850882850983746D
:1056380056025716900AF0E06401600302572DEEF7
:1056480075F009A4F8A9F0747228F8740B39F9EF09
:1056580024CF600C14603214605314607302572D09
:10566800E8245CFEE4391257F612047912576F6089
:105678000302570E900B287402F07C107D0079BB52
:10568800EEFAEFFB12150B806FE824B6FEE4391230
:1056980057F612047912576F706C12579312150B44
:1056A80012580B121891125739740D8044E82410BF
:1056B8001257F212047912576F704B125793121542
:1056C8000B12580B121891746012573B740D8021FD
:1056D800E8246A1257F212047912576F7028125789
:1056E8009312150B12580B121891748812573B74A9
:1056F8000D350BF583124B49850882850983740A99
:10570800F0A3744B800C8508828509837457F0A335
:1057180074FF12574F1211F9800BEF900B2480047D
:10572800EF900B25F0AA08AB0912140F740202437C
:10573800677438250AF58222E4F0900EC222F07CC4
:1057480003900B1DE0F922F0AC08AD097A1079013D
:105758002212575D22125762A32212576622F08541
:105768000882850983A322E9F8900B1EF090035361
:10577800E06822F0900B1DE4F07E0022F582EB3405
:1057880001F583ECF0750A08780A22900B28740258
:10579800F07C097D0079BBEEFAEFFB22F0900B2636
:1057A800E022E9900B1DF0AC0AAD0B7A10790122CA
:1057B800E9F8900B1EF0900AF0E0640122E08508F9
:1057C80082850983A32239F50B7C09900B1DE0F92A
:1057D800AA0AAB0B22FD900B70E075F006A4F8A99D
:1057E800F0743428FA740B39FB22FEE93401FF9077
:1057F8000B1EE0F97C09EEFAEFFB228A0C8B0D8C6C
:105808000E8D0F900352E0F50A7402780A2274F79D
:105818001219147D00800BEFF9E8C313F81EEE701F
:10582800140DEDC39C5025EDFEEA2EF582E43BF500
:1058380083E0F87E08E9C313FFE8A2E092F0E9A24A
:10584800E030F001B350D0748C6F80CC022D8A7494
:10585800F212191474FC1218A490957F740112198D
:105868000A74031217B79095BCAC18AD1904121737
:10587800B7120431750A031204378A088B09120417
:10588800378A0C8B0DAE0CAF0D1204378A0C8B0DBA
:10589800A80CA90DC3E5089EE5099F5050C3EE98D2
:1058A800EF994050C3E50898E509994004AA08AB68
:1058B80009900B2AEAF0A3EBF0900B2AE0F8A3E09A
:1058C800F9C3E894BDE99407E8403A2444C0E07479
:1058D800011218F0D0E0F074011218FA880889094A
:1058E8007808121B277C017D007AFE8047C3E89E5A
:1058F800E99F5006EEFAEFFB80B7C3E89508E995F3
:105908000950AA80AC245CFAE934F8FBC3EA94187D
:10591800EB940074BC5029C398C0E074021218F0CC
:10592800D0E0F08582088583097808121B277C015E
:105938007D007AFF7B1F12115774021218BA800873
:10594800687003740769700AA818A9198808890972
:10595800800E74031218F074BBF0858208858309E1
:105968007808121B277C017D007AF07B1F121157E3
:1059780074021218BA150AE50A600302587F120465
:105988002B74041218BA7F060219E6C082C083E994
:10599800900F99F0025BBD74F7121914E99003D1C6
:1059A800F07C097D047AFF7BFF1208639003D274B0
:1059B800FFF0A3F0A3E4F0A3F079051207F1900338
:1059C800D1E0F91207137A7B7B08120A377F0102AC
:1059D80019E674F41219148A088B09EB54806030A4
:1059E8009003D1E0F912137F8A0A8B0BAE0AAF0B32
:1059F800EE4F60138E828F83E064B0700312080349
:105A0800EEFAEFFB12136DAA08E5096480FB800427
:105A18007A007B00025B8C74F212191474FC121861
:105A2800A4EAFEEBFFEE4F603874021218F0EEF0B5
:105A3800A3EF125DF1ECF0A3ED125DF1AA82AB8346
:105A480012070DE9F508707374121218F01269A59F
:105A5800E50A450B60658E828F83125ACDEE4F7032
:105A68000575080280557A067B001214098A0C8B8A
:105A78000DA80CA90DE8497005750813803D8882AA
:105A88008983E4125AD7A3A3EEF0A3EF126E3EE582
:105A98000AF0A3E50BF09003D7125B5F9003D76081
:105AA80017E0FCA3E08003EAFCEBFD8C828D8312F7
:105AB8005B5F70F38C828D831268CAA90874041224
:105AC80018BA027040A3A3A3A3E0FEA3E0FF22F04C
:105AD800A3F0888289832274F2121914890AE9755D
:105AE800F017A4FEAFF09003D6E4F09003D4125B55
:105AF8005F600A12140F9003D4E4F0A3F0EEFAEFFB
:105B0800FB1214098A088B09EA4509602FEEFCEF9D
:105B1800FD790012135B9003D4E508F0A3E509F0C2
:105B28007B008008125B49E4F0A3F00BEBC3950AF5
