:020000040000FA
:0600000002011A021D7F3F
:03002B000222BCF2
:03004B000222E5A9
:03005300021DF299
:03007B00022293CB
:10008300021C33E5C754F84401F5C7790122000087
:100093000080FB120086B90003020104E4791B7897
:1000A30002B800028004F709D8FCE4791D7802B88D
:1000B30000028004F709D8FCE4900281782D790EC0
:1000C3008002F0A3D8FCD9FA781A90014A7A01BACF
:1000D30000028007E493A3F608DAF97AAD7B0F9068
:1000E300014B781779028015E493A3AD82AE838A1E
:1000F300828B83F0A3AA82AB838D828E83D8E9D9C6
:10010300E77582637583BC740312012C7582917544
:100113008300740012012C75D00075817F751881DE
:10012300751902759F00020096C09FF59FE473D076
:100133009F22D083D082C09FE493C0E0740193C018
:10014300E0740293F59F2201DB03ED031704E1033F
:10015300FF0000B4000028002800283075A000A08C
:1001630000A000A00000080008E001F0001000104B
:10017300001000100010001000500050005000103C
:10018300001000D0070000000000000F0001000570
:1001930000307507001000010081FF0000FF02021C
:1001A30002EA81010000D78102E28101000003100D
:1001B30002E481010000B10202E2810100000410A7
:1001C30002DA81010000C702FFFF0100FF2002EAFB
:1001D30081010000D48102E281010000321002DCBF
:1001E30081000000000002E081030000A403550B1E
:1001F300550B550B550B550B550B550B550B550BFC
:10020300550B550B550B550B350D530D2F0D01E8A4
:1002130003053F1002FFFFFF00010D09504953433F
:1002230045532D425431303001030507FFFE7788D3
:100233001299324114242536FEFF0000000000000D
:10024300000000000000000000000000014F4BCC44
:10025300CCCC010000006D4EC641393000001201C4
:1002630035CCB403120135E2B4031201350FB503E3
:100273001201353FB50312013560B5031201359103
:10028300B503120135E2B503120135F9B5031201C5
:1002930035A7B103120135BEB103120135EDB10328
:1002A30012013526B2031201354EB2031201357C19
:1002B300B20312013593B203120135AAB20312013C
:1002C30035C0B203120135E7B203120135FAB203A6
:1002D30012013510B30312013538B30312013593FC
:1002E300B70212013592B802120135BCB8021201ED
:1002F3003511B90212013532B9021201354BB90277
:100303001201354DB9021201356EB9021201357170
:10031300BA021201352EBB02120135FBBB021201D8
:10032300355FBC02120135F6BC02120135F9BC027D
:100333001201357FBD02120135C2BD02120135140F
:10034300BE021201354BBE02120135D1BE021201AB
:10035300355ABF02120135A3BF02120135B0BF02E5
:10036300120135B3BF0212013511C0021201352942
:10037300C002120135A3C002120135A6C002120148
:1003830035C9C002120135CCC00212013573C10256
:1003930012013596C102120135AEC102120135DEDA
:1003A300C102120135EBC102120135EEC102120185
:1003B300355AC20212013548C302120135FEC30287
:1003C30012013569C40212013544C50212013572A6
:1003D300C502120135F2C50212013512C60212011D
:1003E3003550C602120135A3C6021201350BC702EE
:1003F3001201359CC70212013567C8021201357616
:10040300CB02120135E2CC0212013505CD021201F5
:1004130035729D03120135039F03120135549F0367
:10042300120135B39F03120135C19F03120135EA4F
:100433009F03120135ABF902120135D3F902120100
:100443003501FA0212013538FA02120135A0FA0217
:10045300120135E9FA0212013534FB021201357239
:10046300FB02120135AFFB02120135DDFB02120163
:100473003584FC021201358EFC021201359BFC020D
:10048300120135CEFC0212013590FD021201359C9A
:10049300FD02120135B4FD02120135BEFD02120147
:1004A300353CFE02120135FFB9031201350DBA03C3
:1004B30012013525BA031201353DBA031201355530
:1004C300BA031201354C8E02120135EA8E02120173
:1004D30035628F02120135779002120135B1900215
:1004E3001201355A91021201352F920212013593EE
:1004F3009302120135EA930212013571940212013B
:1005030035589502120135A595021201353396022D
:100513001201355796021201352C98021201356DDE
:1005230098021201358F9802120135549902120173
:10053300351A9A021201354F9C02120135049603B3
:100543001201351A960312013540960312013568DC
:100553009703120135729703120135CB98031201E9
:1005630035CB9903120135478903120135E9890314
:100573001201351C8A03120135668A0312013520E4
:100583008C03120135FDAA011201357BAB01120167
:10059300358BAB011201356EAC011201359CAC01F8
:1005A300120135A7AC0112013591AD011201352DB0
:1005B300AE0112013531B001120135E8B10112016A
:1005C3003564B20112013541B3011201356FB60131
:1005D3001201350DB7011201356AB801120135DD7B
:1005E300B90112013586BA01120135CFBA011201E0
:1005F3003506BB01120135ABBB0112013529BC0124
:100603001201356FCC01120135C4CC011201350939
:10061300CE0112013519CE011201353CCE01120172
:100623003587CE011201352CCF0112013522D001BD
:10063300120135ECD00112013564D201120135A645
:10064300D20112013544D3011201356AD3011201DB
:100653003558D5011201355DD5011201353ED7015B
:1006630012013592D701120135F4D7011201351C5D
:10067300D801120135C0D80112013582D901120106
:1006830035B3D901120135B6D901120135FED901AD
:1006930012013540DA01120135A7DA011201356C76
:1006A300A7031201357FA70312013588A70312019F
:1006B30035A1A703120135ECA703120135C7A8031F
:1006C30012013556A903120135A1A903120135F20E
:1006D3005C00120135025D00120135655D001201F7
:1006E30035AA5D001201355A5E00120135335F00F1
:1006F3001201355C5F001201358C5F00120135A0D9
:1007030061001201357C63001201355C6500120142
:10071300359466001201350D6900120135F969003F
:100723001201353F6B001201354C6C001201358EFE
:100733006C00120135C66C00120135E06C00120129
:1007430035486D00120135E27100120135837200E4
:10075300120135D77200120135FE72001201353CC9
:1007630073001201355B7300120135AF7300120180
:1007730035B7740012013540750012013525E902C1
:100783001201352FE902120135CBE9021201359628
:10079300EA02120135B5EA02120135DBEA0212015F
:1007A300351AEB0212013552EB021201357BEB02D3
:1007B300120135B5EB02120135CAEB02120135976E
:1007C300EC02120135BAEC02120135DCEC02120123
:1007D30035F1EC021201357BED02120135B5ED0264
:1007E30012013529EE0212013572EE021201359C17
:1007F300EE02120135C1EE02120135189203120105
:1008030035E29203120135C593031201353B94037C
:100813001201357D9403120135AA95031201355E49
:100823009C02120135879C02120135A09C02120121
:1008330035E59D02120135C39E02120135E29E0287
:100843001201356F9F02120135B29F02120135EA80
:10085300A00212013556A1021201354CA302120166
:1008630035DAA5021201356DA60212013541A70240
:10087300120135E4A702120135F7A8021201358DE2
:10088300A902120135CDFE0212013536FF02120113
:10089300358AFF02120135B9FF02120135C38D03F8
:1008A300120135308E031201357B8E031201357030
:1008B3008F031201356C9003120135569103120117
:1008C3003550D60212013597D60212013570D70280
:1008D3001201356BD8021201354AD902120135B61D
:1008E300D902120135D2DA0212013539DB021201C3
:1008F300353CDB0212013567DB02120135D8DB021E
:100903001201357BDC0212013590DC02120135D86D
:10091300DC02120135F1DC02120135F4DC021201B2
:100923003502A1031201353EA1031201357CA10357
:1009330012013546A203120135B9A203120135F49F
:10094300A20312013532A30312013562A30312017C
:100953003589A303120135F4A30312013536A40329
:10096300120135F181011201350F8401120135BEE7
:1009730085011201356E8601120135B98601120116
:100983003504870112013516870112013556870197
:100993001201358B8701120135D787011201350604
:1009A3008801120135298801120135B0880112012D
:1009B300359C8901120135DA8A01120135DC8B017C
:1009C300120135B88D01120135DC92011201352275
:1009D30093011201356093011201359595011201BE
:1009E30035AE9701120135F8AD0312013598AF0307
:1009F3001201350C2300120135A32300120135D057
:100A030023001201351624001201354C2500120172
:100A130035E326001201355B27001201359D2700BF
:100A2300120135ED2700120135582900120135C393
:100A33002B001201359F2C00120135BE2C00120130
:100A430035DD2C00120135E02C00120135662E0035
:100A53001201355B2F00120135573000120135C7E3
:100A63003000120135393100120135B8310012015D
:100A7300359332001201359A33001201357934006F
:100A8300120135043500120135723500120135E6C5
:100A930035001201350F3600120135CE3600120132
:100AA30035DD3900120135263A00120135693A0065
:100AB300120135EC3A00120135903B001201352149
:100AC3003C00120135463C00120135903C001201F6
:100AD30035BA3C00120135FF3C001201357A3D0066
:100AE300120135D43D00120135283F00120135E5CE
:100AF3003F00120135B84000120135008002120197
:100B0300355080021201355C8002120135398102B1
:100B1300120135698102120135A181021201351BCF
:100B230082021201359D8202120135D58202120121
:100B33003527830212013564830212013589850248
:100B4300120135B58702120135B089021201358BC6
:100B53008B0212013501230012013560E3021201F9
:100B63003592E702120135E2E802120135DDBC01DC
:100B7300120135AFC301120135B5C3011201356549
:100B8300C6011201356EF4021201351AF502120183
:100B930035E8F50212013512F60212013560F8024A
:100BA300120135E64000120135304100120135E2F1
:100BB3004D00120135634F001201355B50001201E5
:100BC30035BA5600120135B55700120135F25700F8
:100BD30012013515580012013557580012013561BD
:100BE30058001201354D5900120135415A001201C6
:100BF30035DA5A00120135D599031201356B9A0380
:100C0300120135819A03120135FB9A031201355102
:100C13009B031201358F9B03120135EC9B031201D9
:100C230035699C03120135729C031201357E9C03C6
:100C3300120135919C03120135CD9C03120135E35A
:100C43009C03120135429D0312013518DD02120186
:100C53003525DD021201353FDD021201357EDD024D
:100C6300120135BCDD0212013521DE0212013536D7
:100C7300DE021201354DDE021201355BDE02120186
:100C8300356ADE021201357FDE0212013594DE027F
:100C93001201359FDE02120135ABDE02120135B8B7
:100CA300DE02120135C7DE02120135D2DE02120165
:100CB30035F7DE02120135A0DF02120135B5DF027E
:100CC300120135CADF02120135E4DF02120135FFDA
:100CD300DF021201351CE00212013527E002120186
:100CE30035E3E002120135CFE102120135F4E102EE
:100CF300120135FEE10212013512E2021201353111
:100D0300E20212013592E20212013598E202120167
:100D1300359EE202120135A4E202120135B0E2026D
:100D2300120135E3E202120135A77500120135D332
:100D33007500120135B776001201355179001201A1
:100D430035677A00120135847B00120135277C0058
:100D5300120135CD7C0012013509AA021201358B2F
:100D6300AA0212013534AB021201357CAC02120126
:100D7300358AAE0212013570AF02120135A5AF02FA
:100D8300120135C7AF0212013570B00212013540AE
:100D9300B20212013569B202120135E1B202120147
:100DA3003513B30212013520B3021201356BB302BE
:100DB3001201358FB302120135E0B502120135EA93
:100DC300B60212013546B70212013573EA01120168
:100DD3003584EB0112013568EC0112013572EC0127
:100DE30012013594EC01120135A0EC0112013544D6
:100DF300EE0112013571EE0112013587EF01120187
:100E030035DCEF011201352BF10112013500F2013E
:100E13001201355CF201120135C7F201120135FCF2
:100E2300F2011201353FF30112013509F6011201F6
:100E33003521F601120135B2F601120135C0F60172
:100E43001201350DF7011201351BF7011201358728
:100E5300F70112013502F80112013559F8011201A7
:100E630035EEAF0312013513B00312013589B00318
:100E7300120135F1F801120135FAF80112013503B7
:100E8300F901120135DBF9011201358CFB01120165
:100E930035BCFB01120135E7FB0112013517FC01DB
:100EA30012013542FC0112013576FC01120135A213
:100EB300FC01120135E5FC0112013510FD0112019F
:100EC3003557FD01120135ACFD01120135EEFD016F
:100ED30012013548FE0112013573FE01120135C2BC
:100EE300FE01120135F2FE011201351DFF0112014F
:100EF3003540FF01120135E3BC031201350FBD0379
:100F03001201353CBD0312013546BD0312013556AE
:100F1300BD031201350080031201353F8003120126
:100F230035C88003120135DB8003120135268103A6
:100F3300120135658103120135748103120135CD28
:100F430081031201351C82031201356C82031201E5
:100F530035608303120135558403120135928403EE
:100F6300120135BFBD03120135E39701120135DAD2
:100F73009901120135699B011201355B9C01120134
:100F830035E29C011201355C9D011201358D9D01F5
:100F930012013546A101120135C2A101120135AE7C
:100FA300A201120135E6A20112013529A3011201A2
:100FB3003560A40112013591A401120135E6A401A3
:100FC3001201351DA5011201358FA501120135B599
:100FD300A501120135CFA501120135C1A6011201E8
:100FE30035D1A60112013566A80112013589A80180
:100FF300120135BBA80112013547AA01120135BE02
:10100300AA0112013531BF031201351CBE031201BF
:10101300355BBE0312013542BF03120135EEBA033D
:10102300120135FEBA0312013510BB03120135C29A
:10103300BB0312013510B60312013594B603120136
:1010430035FAB60312013513B7031201352FB7036F
:1010530012013588B70312013593B703120135DD49
:10106300B70312013508B8031201350BB803120197
:1010730035DAFF02120135EAFF02120135EDFF02F4
:10108300120135F87F00120135CBA9031201354C4B
:10109300AB03120135ADAB03120135F3AB03120100
:1010A300351FBF031201352ABF031201352FBF03BA
:1010B3001201350EB90312013537B9031201356038
:1010C300B90312013578B903120135BAB903120114
:1010D30035E9EE02120135F3EE0212013533EF0268
:1010E3001201357CEF02120135B6EF021201351001
:1010F300F0021201352FF00212013538F00212010D
:101103003589F002120135B2F002120135BCF0024A
:1011130012013528F102120135B6F1021201350F21
:10112300F2021201353DF202120135BDF202120143
:101133003500F3021201353BF3021201354DF30280
:101143001201356CF30212013575F30212013542B7
:10115300F4021201354AB3031201359DB3031201A0
:101163003509B40312013571B4031201357EA403AA
:10117300120135A8A4031201357DA50312013571AF
:10118300A603120135F4A60312013514B8031201A4
:1011930035F6AB031201352CAC0312013565AC03F4
:1011A300120135BEAD03120135C8BB03120135DE92
:1011B300BB03120135E8BB0312013532BC03120134
:1011C3003560BD031201353DCE02120135FACE0260
:1011D30012013535CF021201355DCF02120135BF41
:1011E300CF021201350BD0021201356FD00212016A
:1011F30035E9D002120135EBD1021201359ED3023B
:1012030012013520D40212013585D4021201359C16
:10121300D402120135A5D502120135E3D50212011C
:1012230035CA8403120135E384031201358485032F
:10123300120135C48503120135DD85031201351012
:1012430086031201355D860312013591860312016F
:1012530035D38603120135DD8803120135ACBE0395
:10126300120135B7BE03120135DEBE03120135711B
:10127300DB01120135C5DB0112013517DC01120157
:1012830035ACDC0112013509DD0112013528DE011F
:10129300120135E3E10112013588E401120135A998
:1012A300E70112013581E90112013521EA01120139
:1012B30035F0FF02120135F3BE0312013565BE039B
:1012C300120135DE7F00120135E0FF01E066701088
:1012D30008A3E066700A08A3E066700408A3E0664A
:1012E30022C3E7960809E7960809E7960809E796EF
:1012F30022C3E09608A3E09608A3E09608A3E0962D
:1013030022C008C3E096F50808A3E096420808A3A4
:10131300E096420808A3E09645087001D3D008225E
:10132300080808EAC0E0EBC0E086F0E7A4FA180971
:1013330086F0E7A42AFA180986F0E7A42AFA18091E
:1013430086F0E7A42AFA1986F0E7A4FBE5F02AFA67
:10135300190886F0E7A42BFBE5F03AFA190886F0A2
:10136300E7A42BFBE5F03AFA18180986F0E7A4C5C1
:10137300F02BFBE43AFA1908E7C5F0C6A426F6E514
:10138300F03BFBE43AFA1886F0E7A4F6E5F008260A
:10139300F6E43B08F6E43A08F6D0E0FBD0E0FA22A4
:1013A300E4CFC0E0E4CEC0E0E4CDC0E0E4CCC0E0F4
:1013B30075F020E626F608E633F608E633F608E687
:1013C30033F6181818EC33FCED33FDEE33FEEF3330
:1013D300FFC3EC9709ED9709EE9709EF97191919D0
:1013E300400FFFEC97FC09ED97FD09EE97FE1919E5
:1013F30006D5F0BFECF709EDF709EEF709EFF7199A
:101403001919D0E0FCD0E0FDD0E0FED0E0FF22606F
:1014130016080808C6C313C618C613C618C613C6CB
:1014230018C613C6D5E0EA22700908080822601618
:10143300181818C6C333C608C633C608C633C60849
:10144300C633C6D5E0EA22E627F60809E637F608EA
:1014530009E637F60809E637F622E026F608A3E0A0
:1014630036F608A3E036F608A3E036F622E026F0C7
:1014730008A3E036F008A3E036F008A3E036F02234
:10148300C3E697F60809E697F60809E697F608090A
:10149300E697F622C3E096F008A3E096F008A3E0EF
:1014A30096F008A3E096F022E657F60809E657F609
:1014B3000809E657F60809E657F622E056F608A3A8
:1014C300E056F608A3E056F608A3E056F622E056E7
:1014D300F008A3E056F008A3E056F008A3E056F0A6
:1014E30022E066F608A3E066F608A3E066F608A322
:1014F300E066F622E0F608A3E0F608A3E0F608A308
:10150300E0F622E6F008A3E6F008A3E6F008A3E677
:10151300F022E0FAA3E0FBA3E0FCA3E0FD22EAF063
:10152300A3EBF0A3ECF0A3EDF022E0F8A3E0F9A322
:10153300E0FAA3E0FB22E8F0A3E9F0A3EAF0A3EBCF
:10154300F022CAC0E0E6F0A308DAFAD0E0FA22CA31
:10155300C0E0E0A3C582CCC582C583CDC583F0A31B
:10156300C582CCC582C583CDC583DAE6D0E0CA2265
:10157300C3E498F8E499F91215B48026C3E49AFAFF
:10158300E49BFBE920E7E91215B4E498F8E499F940
:1015930022C3E498F8E499F91215B4E498F8E499AD
:1015A300F9C3E49AFAE49BFB22EB20E7CFE920E7B7
:1015B300E0B90010BB0008E88AF084F8AAF022E43E
:1015C300FBC8FA22EB70227B10C833C8C933C93376
:1015D3005007C39AC3DBF280069A50012ADBEAC89C
:1015E30033F4C8C933F4C9FA2275F008E4C833C820
:1015F300C933C933C99AC99B5004C92AC93BD5F019
:10160300ECFBC833F4C8E4C9FA22600D08C6A2E7AC
:1016130013C618C613C6D5E0F322600C08C6C3135D
:10162300C618C613C6D5E0F422700422600D18C68E
:10163300C333C608C633C6D5E0F41822251810AF45
:1016430008F518400C15198008F51840021519D231
:10165300AF2200C0D0251810AF08F518500C05199B
:101663008008F51850020519D2AFD0D0222518F5FD
:101673008210AF08F518400C15198008F5184002C0
:101683001519D2AF851983222518F582E43519F58A
:1016930083222518F8E43519F9222518FAE43519B7
:1016A300FB222518FCE43519FD22E4732518C582B5
:1016B300C0E0E51934FFC583C0E0E518C395822473
:1016C300F810AF08858319858218800885831985EA
:1016D3008218D2AFCEF0A3E520F0A37808E608F095
:1016E300A3DEFAEFF0A3E58124FAF8E608F0A3E617
:1016F30008F0A3E608F0A30808E608F0A3E608F05C
:10170300A315811581D0E0FED0E0F8158115811570
:1017130081E8C0E0EEC0E0222518C582C0E0E519EB
:1017230034FFC583C0E0E518C3958224F910AF08E0
:101733008583198582188008858319858218D2AF1D
:10174300CEF0A3E520F0A37808E608F0A3DEFAEFD5
:10175300F0A3E58124FBF8E608F0A3E608F0A3086C
:1017630008E608F0A3E608F0A315811581D0E0FE92
:10177300D0E0F815811581E8C0E0EEC0E0228519BC
:1017830083851882E0A3FEE0A3F5207808E0A3F6A2
:1017930008DFFAE0A3FFE0A3C0E0E0A3C0E0E0A31A
:1017A300C0E0E0A3C0E0E0A3C0E010AF088582186A
:1017B3008583198008858218858319D2AFD083D099
:1017C30082020132851983851882E0A3FEE0A3F526
:1017D300207808E0A3F608DFFAE0A3FFE0A3C0E067
:1017E300E0A3C0E0E0A3C0E0E0A3C0E010AF088541
:1017F30082188583198008858218858319D2AFD012
:1018030083D08222C0D02518C582C0E0E51934FFF9
:10181300C583C0E0E518C3958224F310AF08858320
:10182300198582188008858319858218D2AFC8F07C
:10183300A3E9F0A3EAF0A3EBF0A37908E709F0A387
:10184300D8FAECF0A3EDF0A3EEF0A3EFF0A3D0E011
:10185300F0A3D0E0F0A3D0E0F0A3E520F0A3E5F0FF
:10186300F0A322851983851882E0C0E0A3E0F9A3E1
:10187300E0FAA3E0FBA37808E0F608A3DFFAE0FCB4
:10188300A3E0FDA3E0FEA3E0FFA3E0C0E0A3E0C06C
:10189300E0A3E0F5D0A3E0F520A3E0A3F5F010AFBB
:1018A300088583198582188008858319858218D253
:1018B300AFD082D083D0E0F8D0E0327404800674D5
:1018C3000280027401C0E0F404121670D0E0121515
:1018D30045227404800474028000CCC0E0EDC0E0B3
:1018E300E518C39CCCAD1950011D10AF068C188DA3
:1018F3001980068C188D19D2AF121552D0E0FDD085
:10190300E0FC22D083D082E9C0E0E493A3C386F055
:10191300C5F095F0F908E493A386F0C5F095F0704F
:101923000BE493A3C3994005E9048002A3E475F093
:1019330002A42582F582E5F03583F583D0E0F9E44E
:1019430093A3C0E0E493C0E022D083D082ECC0E054
:10195300EDC0E0E493A3FCE493A3FDED4C600D1212
:101963001998EC24FFFCED34FFFD80EFE493A3FC16
:10197300E493A3FDED4C600D1219D7EC24FFFCEDAD
:1019830034FFFD80EFD0E0FDD0E0FCE493A3C0E0A2
:10199300E493C0E022C0E0C3E493960874019396F5
:1019A30018400FE49366700808740193661870007A
:1019B3007019A3A3C3E49396087401939618A3A381
:1019C300400DD0E0D0E0D0E0021988A3A3A3A3A3E5
:1019D300A3D0E022C0E0C0F088F0E493667008086A
:1019E30074019366187000A8F0A3A3700BD0F0D015
:0F19F300E0D0E0D0E0021988A3A3D0F0D0E0222A
:101A040074F512171BEAFEEBFFEE2434F8EF3400F2
:101A1400F988088909EE2435F582EF3400F583E06E
:101A2400F8EE2437F582EF3400F583E0F50AEC850F
:101A34000AF0A4FCAAF0850AF0EDA42AFDE82CF82B
:101A4400E43DF97A257B001215B4EA8508828509FC
:101A540083F05407F87401B800028004C333D8FC3F
:101A6400C0E0E0131313541FF8EE28F8EF3400F924
:101A7400E8245DF582E93400F583D0E0F8E05860AD
:101A840008EE2434F582EF801EEE2436F582EF341E
:101A940000F583E0F5F0EA84A8F0EE28F8EF3400CE
:101AA400F9E82438F582E93400F583E0F97F04028B
:101AB40017C774F512171BEAFEEBFFEE2434F58208
:101AC400EF3400F583E0C0E0EE2435F582EF340016
:101AD400F583D0E0F08E828F83A3A3A3A3A3A3A353
:101AE400C082C0838E828F83A3A3A3A3A3E0F8A3A1
:101AF400E0F9D083D082E0C398F508A3E099F50912
:101B0400EE2480F582EF3400F583E064017069EE21
:101B14002481F582EF3400F583E0F8A3E0F98E82A6
:101B24008F83A3A3A3A3A3A3A3E0FCA3E0FD8E82BE
:101B34008F83A3A3A3A3A3E0FAA3E0FBC3EA9CEBD4
:101B44009D5027C3EC98ED99402EC3EA98EB995029
:101B5400277CE27D07EEFAEFFB120A95EE2480F56E
:101B640082EF3400F583E4F0800EC3EA98EB9940E9
:101B7400E0C3EC98ED9950D9EE2434F8EF3400F931
:101B8400E8FCE9FDEE2435F582EF3400F583E0F856
:101B9400EE2437F582EF3400F583E0F50AE5088595
:101BA4000AF0A4F508AAF0850AF0E509A42AF509C3
:101BB400E82508F8E43509F97A257B001215B4EA1A
:101BC4008C828D83F05407F87401B800028004C33A
:101BD40033D8FCC0E0E0131313541FF8EE28F8EFD9
:101BE4003400F9E8245DF582E93400F583D0E0F8A7
:101BF400E0586008EE2434F582EF801EEE2436F5BA
:101C040082EF3400F583E0F5F0EA84A8F0EE28F8DA
:101C1400EF3400F9E82438F582E93400F583E0F97B
:101C2400122285021AB10000851B87851CC622C0BA
:101C3400E0C0D0E8C0E0E9C0E0EAC0E0EBC0E0EC1E
:101C4400C0E0EDC0E0C008C009C00AC00BC082C03B
:101C540083C0F0759B00906182E0A2E64003021D00
:101C640011E591A2E64003021D117591BF900499FC
:101C7400E064057008120C21120C2D8003120C274D
:101C8400751B00120C8DE990049AF07900120C6F08
:101C9400120A057A017B00900498E0F912112B9046
:101CA4007803E064426003021D5A900817E014F0C0
:101CB4006003021D5AC2AF121CBE00781ED0E0F6AB
:101CC40018D0E0F6E59F5407F9700590813480033D
:101CD40090813878081214F7E9C4C0E0781DE655FD
:101CE40008F50808E65509F509740B780812161D5D
:101CF400D0E02508F8906270E0A2E740F8E8C3332A
:101D0400906272F0906270E0D2E0F08049E0A2E567
:101D14005024E591A2E5501E7591DF900499E0648A
:101D24000D70139004BBE004F064287002E4F07AB0
:101D340000E0F9120D1D906181E0A2E35009E5E98C
:101D4400A2E3500375E9F7A3E0A2E75009E591A2E5
:101D5400E7500375917FD0F0D083D082D00BD00AA6
:101D6400D009D008D0E0FDD0E0FCD0E0FBD0E0FA10
:101D7400D0E0F9D0E0F8D0D0D0E032C0E0C0D0C09C
:101D840082C083906183E0A2E05009E5BFA2E050E5
:101D94000375BFFEE0A2E15009E5BFA2E15003755F
:101DA400BFFDE0A2E25009E5BFA2E2500375BFFB0C
:101DB400E0A2E35009E5BFA2E3500375BFF7E0A238
:101DC400E45009E5BFA2E4500375BFEFE0A2E5507B
:101DD40009E5BFA2E5500375BFDFE0A2E65009E5BF
:101DE400BFA2E6500375BFBFD083D0828088C0E015
:101DF400C0D0E8C0E0E9C0E0EAC0E0EBC0E0ECC07D
:101E0400E0EDC0E0C0F0E5A7A2E6500FE5A1A2E630
:101E1400500953A7BF75A1BF121E57E5A7A2E550ED
:101E24000CE5A1A2E5500653A7DF75A1DFE5A7A243
:101E3400E15009E5A1A2E1500375A1FDE5A7A2E2E5
:101E4400500CE5A1A2E2500653A7FB75A1FBD0F00C
:101E5400021D6874F812171B751B01900499E06445
:101E6400067015120BCD8A828B83A3A3A3A3A3A30D
:101E7400E0FAA3E0FB120C0FA2AFE433FED2AF9062
:101E8400049FE0640170187A207B00900498E0F9C4
:101E94001212457A207B00900498E0F912113190D7
:101EA4006182E0D2E6F0900816E0602185C61C80CD
:101EB4001690049EE064017008E5C654F84405F5E4
:101EC400C653BEFC121C2C7401651B60E4EEA2E038
:101ED40092AF7F010217C774EB12171B74FA121624
:101EE4003F8A088B098C148D15900499E024F7C35C
:101EF4009405500690818C02203D120BCD8A0A8BEA
:101F04000BAE0AAF0BEE4F700302203AAC08AD09DA
:101F1400851882851983AA82AB83120C3F8E828F27
:101F240083A3A378081214F790817078081214BE62
:101F3400851882851983780C1214F7908170780CB7
:101F44001214BE7808790C1212E4501F7808790C28
:101F5400121483908158780812130440478508109E
:101F6400850911850A12850B138041850C10850D96
:101F740011850E12850F137810790812148390813D
:101F8400587810121304501C751000751100751246
:101F9400007513017810790C1214837810790812E3
:101FA400144A800890818C78101214F77409781000
:101FB40012142B9081A878081214F778107908125B
:101FC40013A38E828F83A3A3A3A3A3A3E0F8A3E008
:101FD400F97AD07B031215B488088909E4F50AF567
:101FE4000B7810790812144A740412168BE0F8A3C3
:101FF400E0F97AD07B031215B4E8FA8A08E4F5090B
:10200400781079081212E4500778107908121483B2
:10201400900499E06408600AE064066005E06405E1
:10202400701C90815C7810121304501290816078B7
:102034001012145D800890819078101214F78514A2
:1020440082851583781012150674061216557F0EB4
:102054000217C774F712171B120C51900814E0648E
:10206400017010906245E4F0A3F053F4F343FE0CC6
:102074005390F3120BFDE5C654804449F5C6E59E22
:10208400547F644970F8906185740FF0900812E0F1
:10209400F47002A3E0604E900813E0600814601B23
:1020A40014602E8040750801750900900812E078CC
:1020B4000812162CE508F45280802A750801750967
:1020C40000900812E0780812162CE508F45290806B
:1020D40014750801750900900812E0780812162C8E
:1020E400E508F452A079007F020217C774F71217AB
:1020F4001BE9FEEAFF74016E700C7A807B00900489
:1021040098E0F912112B902304E493F46008E4930B
:10211400F91209F9800953C680E59E547F70FA12BA
:102124000C03900814E064017003120A1190081261
:10213400E0F47002A3E0604B900813E060081460C0
:102144001A14602C803D750801750900900812E08E
:10215400780812162CE50842808028750801750954
:1021640000900812E0780812162CE50842908013BB
:10217400750801750900900812E0780812162CE51C
:102184000842A0120C51120BCD8A088B09A808A989
:1021940009E8496015E5E170FCE82414F582E934A6
:1021A40000F583E0F46003E0F5E174016F700A7AEE
:1021B40001900498E0F91211B50220EB74F11217A2
:1021C4001B8A088B098C0A8D0B740F12168B780CE2
:1021D4001214F790817078081214BE908170780CF4
:1021E4001214BE7808790C1212E450157808790C90
:1021F40012148390815878081213044015790180D1
:1022040013780C7908121483908158780C121304F3
:1022140040EB79007F080217C774ED12171B8A0878
:102224008B098C0A8D0B741312168B780C1214F70D
:1022340090817078081214BE908170780C1214BECC
:10224400780C79081212E440117808790C1214837E
:10225400AA08AB09AC0AAD0B8022751000751100F9
:102264007512007513017810790C121483781079A3
:102274000812144AAA10AB11AC12AD137F0C02174A
:10228400C7C082C083E9906000F0D083D08222C0AE
:10229400E074F2121807A2AFE433FED2AFE58AA2CB
:1022A400E4500312105F758A00C2EB751A00EEA2A7
:1022B400E092AF7F01021866C0E0C0D0E8C0E0E958
:1022C400C0E0A9A8D2AFC2C7751A00E9A2E7E433F7
:1022D400F8E9A2E792AFD0E0F9D0E0F8D0D0D0E0AE
:1022E40032C0E0C0D0E8C0E0A8AFE8A2E050037577
:1022F400E200F4F5AFD0E0F8D0D0D0E03202013201
:10230400FFFFFFFFFFFFFFFFC082C0839061907457
:1023140004F0A37448F0A37402F09061807440F058
:102324009061BC7403F09061877419F090626574D5
:102334001BF090619C740DF090619A7433F0A37457
:1023440055F09061A0743AF0900814E064017009AB
:10235400C29190049D7467800590049D7461F0900F
:10236400230AE493906186F0902304E493F46027B5
:10237400E493540FF8906185E0686012E5C65480D8
:102384004449F5C6E59E547F644970F8E8F053C6A5
:1023940080E59E547F70FA7905120CFF022796C0DF
:1023A40082C083E9540FF9906185E0696012E5C643
:1023B40054804449F5C6E59E547F644970F8E9F0B9
:1023C40053C680E59E547F70FA022796C082C0836C
:1023D400E5A8F853A87E906181E4F0A3F0A3F0C2CD
:1023E400BA539AFEC289759B00C2C275E900759101
:1023F4000075BF0075A91175B905906181F0A374CA
:10240400C0F0A3E4F0D2BA439A0174805842A802FF
:102414002796C082C08374F812163F90049BE0F89C
:10242400A3E0F9E849700302254490049BE054407A
:1024340060237908851882851983AA82AB83120BDD
:1024440007851882851983AA82AB831207E3900457
:102454009BE054BFF0E054806010790C7A387B081C
:10246400120B0790049BE0547FF0E0A2E0503190FF
:10247400619A7433F0A37455F09061A0743AF090AB
:102484000814E064017009C29190049D746780058A
:1024940090049D7461F01207E990049BE054FEF0EF
:1024A400E05402603190619A743FF0A3745AF09042
:1024B40061A0747FF0900814E064017009D29190D7
:1024C400049D7471800590049D746AF01207E9906C
:1024D400049BE054FDF0E054046013902308E4935B
:1024E400906186F01207EF90049BE054FBF0E054F7
:1024F400086013902309E493906186F01207EF902B
:10250400049BE054F7F0E05410601390230AE49322
:10251400906186F01207EF90049BE054EFF0E054D2
:1025240020600A1207EF90049BE054DFF0A3E0540C
:1025340001600D120A111207F590049CE054FEF09C
:10254400740812165502279674EC1216AF74F4121E
:10255400163F851882851983AC82AD837583817596
:102564008230740412155290230893F460030226F7
:10257400D9907808E0C3940250030226B974041277
:10258400168BAC82AD837583807582F67408121540
:1025940052851882851983858212858313740412E7
:1025A400168BAC82AD83750EFF750FFF7FFF7E0027
:1025B400750C48750D78801574086E700302264CEE
:1025C40074096E700302264C740A6E607B850C825B
:1025D400850D8378081214F78C828D83A909E50A86
:1025E400C9F8881074187808121412E5104508F810
:1025F400C3E098A3E099850C82850D8378081214B2
:10260400F740188C828D8374187808121412E51020
:102614004508F8E0C398F8A3E0801C741878081201
:102624001412E5104508FAE9FB8C828D83E0F8A3C7
:10263400E0F9EAC398F8EB99F9C3E8950EE9950F28
:102644005006880E890FEEFF0EE50C2404F50CE508
:102654000D3400F50DEEC3941350030225BC74FF32
:10266400650E700474FF650F60238F087402780888
:1026740012162C74482508F58274783509F5837888
:10268400081214F7851282851383E508F0EC2402FE
:102694000C0CED3400FD851282851383A385821210
:1026A400858313740C12168BE5826C7003E5836DBD
:1026B40060030225AA75080175090078081218C27A
:1026C400740212168BAC82AD837AC27B0812103B63
:1026D4007402121655740C1216557F0C021781C021
:1026E40082C0839061AE7468F0A3746AF09062450E
:1026F40074FBF0A304F053F4FD43FE029008147439
:1027040001F09061A0E0643A90619A70237433F010
:10271400A37455F09061A0743AF0740164017009D7
:10272400C29190049D7467802890049D74618021F7
:10273400743FF0A3745AF09061A0747FF074016444
:10274400017009D29190049D7471800590049D7468
:102754006A8000F0022796C082C0839007F2E0648A
:102764000170159007F8E064016009E0700AA3E0C5
:1027740064017004790C8012900809E06401700807
:1027840090080FE0640160EC7900022796E0F912EA
:102794002285D083D082020132C082C0839007FC9C
:1027A4007425F09007FA7401F0A3E4F07A01FB12A7
:1027B4000C7B9007E8E02416F8A3E03400F9888243
:1027C40089837435F0A3740AF09007F9E06401700A
:1027D400169007F8E070107901120CDB120CAB12A2
:1027E4000CD57900120CE780A9C082C08374FA1258
:1027F400163F9007F1E064017008120A1D9007F17A
:10280400E4F075E1F19007E8E02415F8A3E0340062
:10281400F9888289837401F09007F3E0640170768B
:10282400908122C082851882851983AC82AD83751C
:102834008381D082740612155275D90D9007EAE08F
:10284400C4333354C04403F5D978E87907888289BE
:1028540083A3A3A3E0F5D988828983A3A882A9834B
:10286400E864EE7003E9640770E3851882851983D0
:10287400A882A98388828983E0F5D9A3A882A98341
:10288400740612168BE582687003E5836970E5753A
:10289400E195790180027900120C819010537485BE
:1028A400F0A3740BF0A3748BF0A3740BF0A37485E2
:1028B400F0A3740BF0A37485F0A3740BF0A3745508
:1028C400F0A3740BF0A37455F0A3740BF0A37491EC
:1028D400F0A3740BF09010617455F0A3740BF0A383
:1028E4007455F0A3740BF0A37455F0A3740BF0A308
:1028F4007455F0A3740BF0A37455F0A3740BF0A3F8
:102904007455F0A3740BF09007EAE0F97AEB7B07B7
:10291400120C5D9007FCE0F91222857901120C87F4
:10292400908168121515120C9F9081C4121515120E
:102934000C697900120CF39007E8E02414F8A3E082
:102944003400F9888289837416F09004997405F030
:102954000402254674F71216AF8908A808E875F032
:1029640006A4C8AAF02AF974C928FE740439FF9091
:102974000801E0F97A027B08120C5D90080FE07000
:102984001A7900120CBD9007DBE0700B79007ADC39
:102994007B07120C638009790180F37901120CBD65
:1029A40075E1F175D923900801E0C4333354C04470
:1029B40005F5D978FF790788828983A3A3A3E0F575
:1029C400D988828983A3A882A983E864057003E96E
:1029D400640870E375D90075D90075D90075D900FC
:1029E40075D90075D900EEF8EFF9E82404FAE93452
:1029F40000FBE82422F582E93400F583E0F5D98868
:102A0400828983A3A882A983EA687002EB6970E2D1
:102A1400EEF8EFF9E824031AE93400FBE82426F57C
:102A240082E93400F583E0F5D988828983A3A882FA
:102A3400A983EA687002EB6970E2EE242BF582EF59
:102A44003400F583E0F5D9EEF8EFF9E824021AE949
:102A54003400FBE8242CF582E93400F583E0F5D951
:102A640088828983A3A882A983EA687002EB6970CB
:102A7400E2EEF8EFF9E8242EF582E93400F583E07C
:102A8400F5D988828983A3A882A983EA687002EBB6
:102A94006970E2EEF8EFF9E82430F582E93400F5E4
:102AA40083E0F5D988828983A3A882A983EA687020
:102AB40002EB6970E2EEF8EFF9E82432F582E934CA
:102AC40000F583E0F5D988828983A3A882A983EAE3
:102AD400687002EB6970E2EEF8EFF9E824050A0A7F
:102AE4000AE93400FBE8245DF582E93400F583E06B
:102AF400F5D988828983A3A882A983EA687002EB46
:102B04006970E2EE2437F582EF3400F583E0541F58
:102B1400F8EE242AF582EF3400F583E0C43354E060
:102B240048F5D975E195901053745BF0A3740BF0DC
:102B3400A37461F0A3740BF0A37455F0A3740BF0A9
:102B4400A37455F0A3740BF0A37455F0A3740BF0A5
:102B5400A37455F0A3740BF0A37467F0A3740BF083
:102B64009010617455F0A3740BF0A37455F0A37422
:102B74000BF0A37455F0A3740BF0A37455F0A37475
:102B84000BF0A37455F0A3740BF0A37455F0A37465
:102B94000BF090080EE0F912228590816812151549
:102BA400120C9F9081C4121515120C6990600DE4EB
:102BB400F07901120CF39004997406F00231B374A5
:102BC400EC1216AF9007FFE0F8A3E0F5838882A328
:102BD400A378101214F7900810E0FAF875F006A420
:102BE400C8ACF02CF974F728F582740439F583E045
:102BF400FEA3E0FFEEC333FEEF33FF8E0CF50D753D
:102C04000E00750F0085100885110985120A8513B9
:102C14000B908128780812145D78081218BE85106C
:102C24000885110985120A85130B7808790C12148A
:102C34004A7810790C1213A3E4F50EF50F7808798D
:102C44000C1214838A0C750D007403780C12162C64
:102C54007808790C12144A90817078081214BEAA6C
:102C640008AB09AC0AAD0B12221D74041216558A66
:102C7400088B09A808A909C3EE98EF995006E82E15
:102C8400F8E93FF9E890600EF0E9A3F0EEA3F0EF65
:102C9400A3F090600D74C1F00226DEC082C0839060
:102CA40007E8E0F8A3E0F5838882A3A3A3A3A3A382
:102CB400E4F0A3F09007FC022791C082C083900740
:102CC400FFE0F8A3E0F5838882A3A3A3A3A3A3E46E
:102CD400F0A3F090080E02279102013274F6121646
:102CE400AF9061D0E0F87480C398FCEA2483F58245
:102CF400EB3400F583E06004780480027800E82473
:102D04000EF8ECC3985003022E617E0C900818E470
:102D1400F0EA2477F582EB3400F583E0900819F0AB
:102D2400EA2478FCEB3400FD781A79087F028C825F
:102D34008D83E088828983F08C828D83A3AC82ADFD
:102D44008388828983A3A882A9831FEF70E0EA2481
:102D54007AFCEB3400FD7F028C828D83E0888289CB
:102D640083F08C828D83A3AC82AD8388828983A314
:102D7400A882A9831FEF70E0EA247CFCEB3400FDF9
:102D84007F028C828D83E088828983F08C828D839C
:102D9400A3AC82AD8388828983A3A882A9831FEF11
:102DA40070E0EA247EFCEB3400FD7F028C828D838C
:102DB400E088828983F08C828D83A3AC82AD838882
:102DC400828983A3A882A9831FEF70E0EA2475FC9B
:102DD400EB3400FD8A828B83A3A3A3A3A3E0F508AD
:102DE400A3E0F5098C828D83E02508F0A3E0350982
:102DF400F07F028C828D83E088828983F08C828DBF
:102E040083A3AC82AD8388828983A3A882A9831F0C
:102E1400EF70E0EA2483F582EB3400F583E0601977
:102E240075081875090878081218C27C0C79031201
:102E34000B4974021216557E1074012EF5D975D9FA
:102E440003758218758308EEFFE0F5D9A31FEF70B0
:102E5400F875E1957904120CA579018002790002D4
:102E6400339574F61216AF9061D0E0F87480C3986D
:102E7400FCEA2483F582EB3400F583E060047804F3
:102E840080027800E8240AF8ECC3985003022F5615
:102E94007508089008187401F07CE27D07781979A8
:102EA400087E058C828D83E088828983F08C828DF4
:102EB40083A3AC82AD8388828983A3A882A9831E5D
:102EC400EE70E0EA2481FCEB3400FD8A828B83A35C
:102ED400A3A3A3A3E0FEA3E0FF8C828D83E02EF0E6
:102EE400A3E03FF07E028C828D83E088828983F0A8
:102EF4008C828D83A3AC82AD8388828983A3A882CC
:102F0400A9831EEE70E0EA2483F582EB3400F58396
:102F1400E0601A75081875090878081218C27C0848
:102F24007903120B49740212165575080C740125A5
:102F340008F5D975D903758218758308AE08E0F5CC
:102F4400D9A31EEE70F875E1957904120CA57901E8
:102F54008002790002339574F71216AFEAFEEBFF94
:102F64009061D0E0600302305275D91875D90375A9
:102F7400D903EEF8EFF9E82408FAE93400FBE82471
:102F84009CF582E93400F583E0F5D988828983A32E
:102F9400A882A983EA687002EB6970E2EEF8EFF99F
:102FA400E82402FAE93400FBE824A4F582E93400B9
:102FB400F583E0F5D988828983A3A882A983EA6886
:102FC4007002EB6970E2EE2494F582EF3400F5832D
:102FD400E5822408F8E5833400F9E0F5D9A3E8652F
:102FE400827003E9658370F2EE2488F582EF340081
:102FF400F583E5822404F8E5833400F9E0F5D9A3E8
:10300400E865827003E9658370F275E1957908EEED
:103014002494FAEF3400FB120AFB7904EE2488FAB4
:10302400EF3400FB120AFB7904120CA5EE2470F5B0
:1030340082EF3400F583E0F8A3E0F9EE2472F58220
:10304400EF3400F583E8F0A3E9F079018002790018
:103054000231B374F61216AFEAFEEBFF900818744F
:1030640006F075081875090878081218C27C0179E9
:1030740003120B49740212165575D90675D90375D6
:103084008218758308E0F5D9A3E582641D7004E510
:1030940083640870F075E195900499E06408701EEB
:1030A400EE2470F582EF3400F583E0F8A3E0F9EE46
:1030B4002472F582EF3400F583E8F0A3E9F0790196
:1030C40002339574F61216AFEAFEEBFF9061D0E07E
:1030D400705E900818740AF0750818750908780865
:1030E4001218C27C017903120B4974021216557529
:1030F400D90675D903758218758308E0F5D9A3E557
:1031040082641D7004E583640870F075E195EE2413
:1031140070F582EF3400F583E0F8A3E0F9EE247251
:10312400F582EF3400F583E8F0A3E9F07901800239
:10313400790002339574F61216AFEAFEEBFF906144
:10314400D0E070667801900818740BF0900499E050
:103154006407701975081875090878081218C27C74
:10316400017903120B49740212165578057401286B
:10317400F5D975D903758218758308E8FAE0F5D98D
:10318400A31AEA70F875E195EE2470F582EF340025
:10319400F583E0F8A3E0F9EE2472F582EF3400F54C
:1031A40083E8F0A3E9F07901800279000233957F86
:1031B4000102178174F61216AFEAFEEBFF9061D09C
:1031C400E0F87480C398FAEE2483F582EF3400F5B6
:1031D40083E06004780480027800E8240BF8EAC3F2
:1031E40098500302328E7D099008187408F0EE247A
:1031F400E5F8EF3400F97A197B087C088882898322
:10320400E08A828B83F088828983A3A882A9838A37
:10321400828B83A3AA82AB831CEC70E0EE2483F53B
:1032240082EF3400F583E0601D750818750908788D
:10323400081218C27C097903EEFAEFFB120B4974E9
:10324400021216557D0D74012DF5D975D9037582B9
:10325400187583088D08E0F5D9A31508E50870F6FC
:1032640075E1957904120CA5EE2470F582EF340013
:10327400F583E0F8A3E0F9EE2472F582EF3400F56B
:1032840083E8F0A3E9F079018002790002339574B0
:10329400F61216AFEAFEEBFF9061D0E0F87480C33B
:1032A40098FAEE2483F582EF3400F583E060047825
:1032B4000480027800E82408F8EAC3985003023333
:1032C400937D06900818740CF09004B6E0900819E9
:1032D400F07AB77B04781A79087C028A828B83E0BF
:1032E40088828983F08A828B83A3AA82AB838882B3
:1032F4008983A3A882A9831CEC70E07AB97B047C3F
:10330400028A828B83E088828983F08A828B83A3FA
:10331400AA82AB8388828983A3A882A9831CEC70C8
:10332400E0EE2483F582EF3400F583E0601D750838
:103334001875090878081218C27C067903EEFAEFAA
:10334400FB120B4974021216557D0A74012DF5D92E
:1033540075D9037582187583088D08E0F5D9A3150E
:1033640008E50870F675E1957904120CA5EE247051
:10337400F582EF3400F583E0F8A3E0F9EE2472F56A
:1033840082EF3400F583E8F0A3E9F0790180027953
:10339400007F0202178174F61216AFEAFEEBFF906B
:1033A40061D0E0F87480C398FAEE2483F582EF3498
:1033B40000F583E06004780480027800E82404F8CF
:1033C400EAC39850030234747802900818E8F0EEC7
:1033D40024F7F582EF3400F583E0900819F0EE2429
:1033E40083F582EF3400F583E0601B7508187509D6
:1033F4000878081218C27C027903EEFA120B497499
:10340400021216557806740128F5D975D903758208
:10341400187583088808E0F5D9A31508E50870F63F
:1034240075E195EE2474F582EF3400F583E4F0EE53
:103434002480F582EF3400F583E4F0EE241DF58258
:10344400EF3400F583E4F0A3F07904120CA5EE2424
:103454000DF582EF3400F583E0F8A3E0F9EE247271
:10346400F582EF3400F583E8F0A3E9F079018002F6
:10347400790002339574F61216AF9061D0E0F874B7
:1034840080C398FCEA2483F582EB3400F583E06082
:1034940004780480027800E82404F8ECC398405BC4
:1034A40079029008187407F0EA24F8F582EB3400E6
:1034B400F583E0900819F0EA2483F582EB3400F5F3
:1034C40083E0601875081875090878081218C27C1A
:1034D4000209120B4974021216557906740129F572
:1034E400D975D903758218758308E9F8E0F5D9A36D
:1034F40018E870F875E19579018002790002339536
:1035040074F51216AFE9FCA2AFE433F50AC2AF7D3D
:103514000080010DEA246FF582EB3400F583E0F8B6
:10352400EDC398501A8D08EA2508F8EB3400F9E841
:10353400246BF582E93400F583E06C70D68024EACC
:10354400246FF8EB3400F9E0FEEA2EFAEB3400FBCA
:10355400EA246BF582EB3400F583ECF088828983EE
:10356400E004F0E50AA2E092AF7F0302178174F64B
:103574001216AFA2AFE433FDC2AFEA246FF582EBBB
:103584003400F583E014F07C0060368C08EA2508EA
:10359400F8EB3400F9E8246CF582E93400F583E0B3
:1035A400C0E0E8246BF582E93400F583D0E0F00C48
:1035B400EA246FF582EB3400F583E0F8ECC398401D
:1035C400CAEA246EF582EB3400F58374FFF0EA2432
:1035D4006AF582EB3400F583E4F0EDA2E092AF02E9
:1035E4003395C082C083E5A8F8C2AFEA246BF582A4
:1035F400EB3400F583E9F0EA246AF582EB3400F554
:1036040083E4F0E8A2E792AF02279674F31216AFB0
:10361400EAFEEBFFECFAEDFB8A828B83A3A3A3A360
:10362400E0541FF0EE2436F582EF3400F583E4F025
:10363400F50AEEFCEFFD8A828B83E0C0E0EC245DAA
:10364400F582ED3400F583D0E0F0750B00E50A3324
:10365400333354F8F50C8A828B83E0F5087509003E
:10366400E50B780812160DE508A2E0502FEE24367B
:10367400F8EF3400F988828983E0F508EE2508F52F
:1036840008EF3400F509E5082438F582E50934002B
:10369400F583E50CF088828983E004F0050B050CC2
:1036A400E50BC3940840AF050A8A828B83A3AA82E0
:1036B400AB838C828D83A3AC82AD83E50AC394056E
:1036C400500302363A7F0502178174F71216AF9041
:1036D40004C5E0640370077A007B000231B37B0009
:1036E40078C5790488828983A3A3A3A3A3A3E060F4
:1036F400030239C8EBF875F006A4C8AAF02AF974D5
:10370400C928F8740439F988828983A3A37401F061
:1037140088828983A3A3A3E4F0EB88828983A3A38B
:10372400A3A3F0E82462F582E93400F5837401F080
:10373400E82465F582E93400F583E4F0A3F0E82495
:1037440068F582E93400F5837401F088828983A3E3
:10375400A3A3A3A3E4F0A3F088828983A3A3A3A3D0
:10376400A3A3A3F0A3F0E8240FF582E93400F583C2
:103774007401F0E82435F582E93400F583E4F0902F
:103784008190121515E82418F582E93400F58312A6
:103794001521E8241CF582E93400F583E4F0E824DB
:1037A4001DF582E93400F583E4F0A3F0E82480F504
:1037B40082E93400F583E4F0E82474F582E9340006
:1037C400F583E4F0E82469F582E93400F583748034
:1037D400F0E8246AF582E93400F583E4F0E8246F24
:1037E400F582E93400F583E4F0E82467F582E934EE
:1037F40000F583E4F0E824EDF582E93400F583E490
:10380400F0E824EEF582E93400F583E4F0E824EFEF
:10381400F582E93400F583E4F0E824F0F582E93434
:1038240000F583E4F0E824F1F582E93400F583E45B
:10383400F0A3F0E824F3F582E93400F583E4F0A37F
:10384400F0E824F6F582E93400F583E4F0E8248313
:10385400F582E93400F583E4F0E824D3F582E93411
:1038640000F583E4F0E824D4F582E93400F583E438
:10387400F0908190121515E824D5F582E93400F50D
:1038840083121521908190121515E824D9F582E947
:103894003400F583121521E824DFF582E93400F5BC
:1038A40083E4F0E824E1F582E93400F583E4F0E808
:1038B40024DDF582E93400F583E4F0E824E2F582BE
:1038C400E93400F583E4F0E824E3F582E93400F513
:1038D40083E4F0E824F9F582E93400F583E4F0A305
:1038E400F0E824FBF582E93400F583E4F0A3F0E882
:1038F40024FDF582E93400F583E4F0A3F0E824FF25
:10390400F582E93400F583E4F0A3F0E8FAE9FBEA90
:103914002404FCEB3400FDEA246BF582EB3400F55F
:103924008374FFF08A828B83A3AA82AB83EC6A70D0
:1039340002ED6B70E2E8FAE9FB7CE27D078C828D94
:1039440083E0C0E0EA245DF582EB3400F583D0E047
:10395400F08C828D83A3AC82AD838A828B83A3AAED
:1039640082AB83EC64E77003ED640770D0E8FAE996
:10397400FB7CAC7D048C828D83A3E0C0E0EA24E56B
:10398400F582EB3400F583D0E0F08C828D83A3AC18
:1039940082AD838A828B83A3AA82AB83EC64B470E6
:1039A40003ED640470CF9004C5E004F06401700D6D
:1039B40088828983A3A3A3A3E09004C7F0E8FAE96B
:1039C400FB0236DF0BE82406F8E93401F9EBC39473
:1039D4000340030236DB0236E8C082C0838A828B4E
:1039E40083A3A3A3E0600F8A828B83A3A3A3E4F041
:1039F4009004C6E014F09004C5E014F0700690043E
:103A0400C774FFF08A828B83A3A3E4F09007E7E0F6
:103A1400700D9004C6E0640170057900120C6F0209
:103A24002796C082C08378C5790488828983A3A33A
:103A3400A3A3A3A3A3E4F088828983A3A3A3A3A33A
:103A4400A3F0E82406F8E93401F9E864D77003E93F
:103A5400640770D69004C5E4F0A3F0A374FFF07576
:103A6400E1F102279674F31216AF75080075090088
:103A7400750C00750AC9750B04AE0AAF0B8E828FE4
:103A840083A3A3A3E0603FE5084509700AEEF8EFBD
:103A9400F988088909802F850882850983E0F8A3BD
:103AA400E0F5838882A3A31218D58E828F83E0F871
:103AB400A3E0F5838882A3A31215151221C0740410
:103AC400121655E960C7050CEE2406F50AEF340119
:103AD400F50BE50CC3940340A0850882850983A3F4
:103AE400A3A3A3E0F90236C974F61216AF78FF79DE
:103AF400FF7508007EC97F04EEFCEFFD8C828D8388
:103B0400A3A3A3E0606474FF68700374FF69702565
:103B1400EC2474F582ED3400F583E064017011EC5B
:103B2400247AF582ED3400F583E0F8A3E0F9803AD5
:103B3400EC242E80EDEC2474F582ED3400F583E062
:103B440064017014EC247AF582ED3400F583C3E04B
:103B540098A3E099501480C7EC242EF582ED34002C
:103B6400F583C3E098A3E09940C60508EE2406FE59
:103B7400EF3401FFE508C394035003023AFCC3EA9F
:103B840098EB994004E8FAE9FB02339574F61216AF
:103B9400AFEAFEEBFF8E828F83A3A3A3E0600F8EB8
:103BA400828F83A3A3A3E4F09004C6E014F09004EE
:103BB400C5E014F070069004C774FFF08E828F8302
:103BC400A3A3E4F09007E7E0700D9004C6E064015D
:103BD40070057900120C6FEE2465F582EF3400F560
:103BE40083E0F8A3E0F9E8496029EE2465F8EF34AE
:103BF40000F9880889098882F583E0FCA3E0FD9038
:103C040004C7E0FA7B00120819850882850983E459
:103C1400F0A3F0EEFAEFFB120BC702339574F71220
:103C240016AFEAFEEBFF8E828F83A3A3A3A3E0FA71
:103C34007B00120861EEFAEFFB120AB9120BA9021B
:103C440031B3C082C0837C007AC97B04EAF8EBF903
:103C540088828983A3A3A3E0601EE8246FF582E928
:103C64003400F583E06011E8246BF582E93400F553
:103C740083E07004790180110CEA2406FAEB340124
:103C8400FBECC3940340C57900022796C082C0832D
:103C940078AC790488828983A3E4F088828983A339
:103CA400A882A983E864B47003E9640470E690040C
:103CB400AD7401022757C082C08374FC12163F9072
:103CC4008190121515851882851983121521120BFE
:103CD40001E9851882851983F0120B01740112160B
:103CE4008BE9F0120B01740212168BE9F08518822D
:103CF400851983121515740402254674F61216AF3D
:103D0400EAFEEBFFEC2403F8ED3400F98808890996
:103D1400EC2407F8ED3400F9E8FCE9FD8C828D838E
:103D2400E0F8A3E0F9850882850983E0FAA3E0FBC3
:103D34001215B4EE240DF582EF3400F583E8F0A3F8
:103D4400E9F08C828D83E0F8A3E0F9850882850987
:103D540083E0FAA3E0FB1215B48B09EA450960136A
:103D6400EE240DF582EF3400F583E02401F0A3E0A6
:103D74003400F002339574F61216AFEAFEEBFFEE50
:103D8400242EF582EF3400F583E0FCA3E0FD7800F7
:103D940079FAECFAEDFB1215B4EE2470F582EF34E7
:103DA40000F583E8F0A3E9F0780079FAECFAEDFB8A
:103DB4001215B48B09EA45096013EE2470F582EFFD
:103DC4003400F583E02401F0A3E03400F0023395DD
:103DD40074F01216AFEAFEEBFF741012168B78081B
:103DE4001214F7120C398A0C8B0D8C0E8D0F9081E6
:103DF4002C780C12145D908170780C1214BE780C1F
:103E04001218BE8E828F83E0F8A3E0F5838882A324
:103E1400A31215151221C07404121655E960030289
:103E24003F218E828F83E02402F8A3E03400F9E876
:103E3400FAE9FB8A828B8378081214709081707877
:103E4400081214F78A828B8378081214D1EE240B9B
:103E5400F582EF3400F583C082C0838E828F83A302
:103E6400A3A3A3A3E02401F8A3E03400F9D083D0F2
:103E740082E0687003A3E06970057901023F238E34
:103E8400828F83A3A3A3A3A3A3A3E02401F0A3E0AD
:103E94003400F0EE2474F582EF3400F583E064011D
:103EA4007036EE2475F582EF3400F583E0F8A3E074
:103EB400F98E828F83A3A3A3A3A3A3A3E0687003B3
:103EC400A3E0697013EE2475F582EF3400F583E006
:103ED4002401F0A3E03400F0EE2480F582EF3400F6
:103EE400F583E064017036EE2481F582EF3400F549
:103EF40083E0F8A3E0F98E828F83A3A3A3A3A3A3F3
:103F0400A3E0687003A3E0697013EE2481F582EFE7
:103F14003400F583E02401F0A3E03400F079007F5D
:103F24000802178174F71216AF9004C7E0F875F011
:103F340006A4C8AAF02AF974C928FE740439FF80BB
:103F440028EE2465F8EF3400F988828983E0FCA325
:103F5400E0FD88828983E4F0A3F08E828F83A3A39B
:103F6400A3A3E0FA7B00120819EE2465F582EF346E
:103F740000F583E0F8A3E0F9E849604FEE2464F526
:103F840082EF3400F583E0F50878081218C6EE24B1
:103F940063F582EF3400F583E0F9EE2465F582EFF2
:103FA4003400F583E0FCA3E0FDEEFAEFFB120AEF28
:103FB4007401121655E96089EE2465F582EF340028
:103FC400F583E0F8A3E0F9E84970137C007D008EE6
:103FD400828F83A3A3A3A3E0FA7B00120819023102
:103FE400B374F21216AFEAFEEBFF890A740E1216CE
:103FF4008BE0FAEE2462F582EF3400F583E064018D
:1040040060030240B19061D0E0F87480C398F50C6D
:10401400EE2483F582EF3400F583E06004780480B5
:104024000278008908E928F8E43400F9E824020851
:1040340008E93400F9E50C98E499A2D265D033403C
:1040440068EA7005750B028003750B01E060397531
:10405400090078081218C27A187B08120B2B740214
:1040640012165575081875090878081218C2AC0A92
:10407400A90BEEFAEFFB120B4974021216557404E5
:10408400250AF50A7C187D087401250AF5D9850BE3
:10409400D9E50A600D8C828D83F8E0F5D9A318E880
:1040A40070F875E195790080067907800279FF7FC1
:1040B40006021781C082C083E960208C828D83E070
:1040C4008A828B83F08C828D83A3AC82AD838A82B7
:1040D4008B83A3AA82AB8319E970E0ECFAEDFB02AF
:1040E4002796C082C0837869790888828983A3A3CC
:1040F400A3A3A3A3E4F088828983A3A3A3A3A374A3
:10410400FFF0E82418F8E93400F9E864C97003E919
:10411400640870D690086B74FFF090086AE4F0901D
:104124000869F090086CF0A3F002580E74EC1216B3
:10413400AF90086CE0F508A3E0F509E508450970BF
:1041440006120A05024DDD850882850983E01460A4
:104154001814601524FE601124C4700302489F24BF
:10416400C0700302489F024DDDE0F9120BBB8A0ABE
:104174008B0BAE0AAF0B9004C6E0700302451D1210
:104184000AADE9F875F006A4C8AAF02AF974C9289A
:10419400F50C740439F50D850C82F583E0F50AA35A
:1041A400E0F50BAC0AFDEEFAEFFB120BB5E9F50EE8
:1041B4007402650E70030244DC8E828F83E024FE59
:1041C400600A24FE70030243D4024DDDEE650870DC
:1041D40003EF65096021120A239007F9E064017076
:1041E400169007F8E070107901120CDB120CAB1278
:1041F4000CD57900120CE1E50E6021E5082415F5D3
:1042040082E5093400F583E060129007F4E0F8A336
:10421400E0F9A3E0687003A3E0697026120C398A00
:104224000C8B0D8C0E8D0F908140780C12145D90C8
:104234008170780C1214BE8E828F83A3A3780C1223
:104244001506E5082415F582E5093400F583E064D4
:104254000160030242FA850A82850B83A3A3780CCA
:104264001214F7908144780C12145D780C1218BE65
:104274008E828F83A3A3C082C0839007F6E0F508E3
:10428400A3E085080CF50DE4F50EF50FD083D0827C
:10429400780C12145DAA0CAB0DAC0EAD0F1221C03C
:1042A4007404121655E9703C8E828F83A3A3C082D6
:1042B400C0839007F6E0F508A3E0F509E4F50AF5F4
:1042C4000BD083D082780812145D90817078081224
:1042D40014BEEE240EF582EF3400F583780812152F
:1042E400060243CC850A82850B83A3A378081214A3
:1042F400F790814480CFEE240EF582EF3400F583ED
:104304001218D58E828F83A3A31215151221C0749F
:1043140004121655E9640160030243CC850A8285C0
:104324000B83A3A3780C1214F7908144780C121415
:104334005D780C1218BE8E828F83A3A3C082C083C3
:104344009007F6E0F508A3E085080CF50DE4F50EFA
:10435400F50FD083D082780C12145DAA0CAB0DAC8F
:104364000EAD0F1221C07404121655E9701F8E820F
:104374008F83A3A3C082C0839007F6E0F508A3E06F
:10438400F509E4F50AF50BD083D0828010850A8202
:10439400850B83A3A378081214F79081447808123C
:1043A400145D90817078081214BEEE240EF582EF2D
:1043B4003400F58378081215069007FCE064277032
:1043C4000474258002E004F090086B7402024DD559
:1043D400EE65087003EF65096031900810E0F9128A
:1043E4000A29850882850983E06402701E9007F912
:1043F400E0640170169007F8E070107900120CDB8D
:10440400120CAB120CD57901120CE1E50E6012907E
:10441400080AE0F8A3E0F9A3E0687003A3E0697078
:1044240026120C398A0C8B0D8C0E8D0F90814078DE
:104434000C12145D908170780C1214BE8E828F83DE
:10444400A3A3780C121506850A82850B83A3A3788F
:104454000C1214F7908144780C12145D780C121825
:10446400BE8E828F83A3A3C082C08390080CE0F524
:1044740008A3E085080CF50DE4F50EF50FD083D004
:1044840082780C12145DAA0CAB0DAC0EAD0F122188
:10449400C07404121655E9701F8E828F83A3A3C0C3
:1044A40082C08390080CE0F508A3E0F509E4F50A5E
:1044B400F50BD083D0828010850A82850B83A3A359
:1044C40078081214F7908144780812145D90817072
:1044D40078081214BE024DBE850882850983E06403
:1044E4000270139007F9E06401700B9007F8E07014
:1044F400057900120CDBE50C2404FEE50D3400FF05
:104504008E828F83E0F9120BF18E828F83E0900408
:10451400C7F0AA0AAB0B024DDAEE65087003EF652B
:10452400098E828F836003024701E024FE600A241F
:10453400FE700302465C024DD6EE2415F582EF347C
:1045440000F583E060419007F4E0F8A3E0F9A3E00C
:10455400687003A3E069602F120C398A088B098CF8
:104564000A8D0B908194780812145D78081218BE95
:104574008E828F83A3A31215151221C07404121600
:1045840055E96003024DD6120C398A088B098C0A4E
:104594008D0B908140780812145D90817078081218
:1045A40014BE8E828F83A3A37808121506EE2415F9
:1045B400F582EF3400F583E0640170348E828F83DA
:1045C400A3A3C082C0839007F6E0F508A3E0F50931
:1045D400E4F50AF50BD083D082780812145DEE243A
:1045E4000EF582EF3400F5837808121506024DD6D5
:1045F400EE240EF582EF3400F5831218D58E828FE7
:1046040083A3A31215151221C07404121655E9646C
:10461400016003024DD68E828F83A3A3C082C08320
:104624009007F6E0F508A3E0F509E4F50AF50BD0E8
:1046340083D082780812145DEE240EF582EF3400E4
:10464400F58378081215069007FCE064277005745A
:1046540025024DD5E00480F990080AE0F8A3E0F9BA
:10466400A3E0687003A3E069602C120C398A088BFC
:10467400098C0A8D0B908194780812145D780812C5
:1046840018BE8E828F83A3A31215151221C0740441
:10469400121655E97064EE2402F508EF3400F509AA
:1046A400120C398A0C8B0D8C0E8D0F908140780C76
:1046B40012145D908170780C1214BE8508828509ED
:1046C40083780C121506850882850983C082C0830D
:1046D40090080CE0F508A3E0F509E4F50AF50BD021
:1046E40083D082780812145DEE240EF582EF340034
:1046F400F5837808121506120A2F024DD6E024FE1F
:10470400600A24FE70030247C7024DDD120A23909B
:1047140007F9E0640170169007F8E070107901124F
:104724000CDB120CAB120CD57900120CE19007F4DF
:10473400E0F8A3E0F9A3E0687003A3E069602F1236
:104744000C398A088B098C0A8D0B90819478081295
:10475400145D78081218BE8E828F83A3A3121515D8
:104764001221C07404121655E960030243CCEE24EE
:1047740002F508EF3400F509120C398A0C8B0D8C04
:104784000E8D0F908140780C12145D908170780C1E
:104794001214BE850882850983780C1215068508D3
:1047A40082850983C082C0839007F6E0F508A3E000
:1047B400F509E4F50AF50BD083D082780812145D6C
:1047C4000242D6900810E0F9120A29850882850968
:1047D40083E06402701E9007F9E06401701690078C
:1047E400F8E070107900120CDB120CAB120CD579C6
:1047F40001120CE190080AE0F8A3E0F9A3E0687064
:1048040003A3E069602C120C398A088B098C0A8D89
:104814000B908194780812145D78081218BE8E8269
:104824008F83A3A31215151221C07404121655E91F
:104834007066EE2402F8EF3400F988088909120C36
:10484400398A0C8B0D8C0E8D0F908140780C1214CC
:104854005D908170780C1214BE8508828509837876
:104864000C121506850882850983C082C0839008CE
:104874000CE0F508A3E0F509E4F50AF50BD083D0C4
:1048840082780812145DEE240EF582EF3400F5836D
:104894007808121506120A2F024DD09004C6E07053
:1048A40003024C35120AADE9F875F006A4C8AAF063
:1048B4002AF974C928F510740439F511851082F5A4
:1048C40083E0F508A3E0F5099004C7E0F875F00665
:1048D400A4C8AAF02AF974C928F50C740439F50D92
:1048E40090086AE054077003024B5EA3E0F9120BD0
:1048F400BB8A0A8B0BAE0AAF0BAC08AD09120BB521
:10490400E9F50E7402650E7003024B5E850C828518
:104914000D83A3A3A3A3E0F875F08AA4C8AAF02A80
:10492400F974CE28F50A740839F50BAA0AFB120BA0
:10493400E5AA0AAB0B120BDF75128075130078120F
:104944001218C27C007D60E50A2406FAE50B3401E6
:10495400FB120B2B7402121655A80AA90B90619531
:10496400E0C0E0E82486F582E93401F583D0E0F084
:10497400906196E0C0E0E82487F582E93401F5838C
:10498400D0E0F0906197E0C0E0E82488F582E93453
:1049940001F583D0E0F0906198E0C0E0E82489F567
:1049A40082E93401F583D0E0F08E828F83E024FE27
:1049B400600A24FE7003024A99024B5E120A239095
:1049C40007F9E0640170119007F8E0700B120CAB6A
:1049D400120CD57900120CE1E50E60129007F4E098
:1049E400F8A3E0F9A3E0687003A3E0697026120C51
:1049F400398A0C8B0D8C0E8D0F908140780C12141B
:104A04005D908170780C1214BE8E828F83A3A3787C
:104A14000C121506850882850983A3A3780C121449
:104A2400F7908144780C12145D780C1218BE8E82B3
:104A34008F83A3A3C082C0839007F6E0F50CA3E0A4
:104A4400F50DE4F50EF50FD083D082780C12145DC9
:104A5400AA0CAB0DAC0EAD0F1221C0740412165586
:104A6400E9701F8E828F83A3A3C082C0839007F650
:104A7400E0F508A3E0F509E4F50AF50BD083D0824C
:104A84008010850882850983A3A378081214F790FF
:104A940081440242C9900810E0F9120A29E50E6027
:104AA4001290080AE0F8A3E0F9A3E0687003A3E019
:104AB400697026120C398A0C8B0D8C0E8D0F908127
:104AC40040780C12145D908170780C1214BE8E82A2
:104AD4008F83A3A3780C121506850882850983A306
:104AE400A3780C1214F7908144780C12145D780C9E
:104AF4001218BE8E828F83A3A3C082C08390080C39
:104B0400E0F50CA3E0F50DE4F50EF50FD083D082AB
:104B1400780C12145DAA0CAB0DAC0EAD0F1221C0B3
:104B24007404121655E9701F8E828F83A3A3C0826A
:104B3400C08390080CE0F508A3E0F509E4F50AF554
:104B44000BD083D0828010850882850983A3A37843
:104B5400081214F79081440244CCE510650C7004EB
:104B6400E511650D7003024C2E850C82850D83A31F
:104B7400A3A3E07003024C12850C82850D83A3A3CA
:104B8400A3A3E0F875F08AA4C8AAF02AF974CE2881
:104B9400FE740839FFEEFAEFFB120BE5EEFAEFFBB9
:104BA400120BDF750A80750B00780A1218C27C009C
:104BB4007D60EE2406FAEF3401FB120B2B74021213
:104BC4001655906195E0C0E0EE2486F582EF34013D
:104BD400F583D0E0F0906196E0C0E0EE2487F582A2
:104BE400EF3401F583D0E0F0906197E0C0E0EE246B
:104BF40088F582EF3401F583D0E0F0906198E0C04D
:104C0400E0EE2489F582EF3401F583D0E0F0E5107D
:104C14002404FEE5113400FF8E828F83E0F9120B29
:104C2400F18E828F83E09004C7F0AA08AB09024D8D
:104C3400DA90086AE054077003024DDDA3E0F9122C
:104C44000BBB8A088B09AE08AF098E828F83E024E0
:104C5400FE600A24FE7003024D24024DDD120A2375
:104C64009007F9E0640170169007F8E0701079017C
:104C7400120CDB120CAB120CD57900120CE190076C
:104C8400F4E0F8A3E0F9A3E0687003A3E069602C02
:104C9400120C398A088B098C0A8D0B908194780840
:104CA40012145D78081218BE8E828F83A3A3121586
:104CB400151221C07404121655E97061EE2402F530
:104CC40008EF3400F509120C398A0C8B0D8C0E8D0B
:104CD4000F908140780C12145D908170780C12143E
:104CE400BE850882850983780C121506850882859D
:104CF4000983C082C0839007F6E0F508A3E0F509B4
:104D0400E4F50AF50BD083D082780812145DEE2402
:104D14000EF582EF3400F58378081215060243CCB1
:104D2400900810E0F9120A2990080AE0F8A3E0F9C3
:104D3400A3E0687003A3E069602C120C398A088B25
:104D4400098C0A8D0B908194780812145D780812EE
:104D540018BE8E828F83A3A31215151221C074046A
:104D6400121655E97063EE2402F8EF3400F988084E
:104D74008909120C398A0C8B0D8C0E8D0F90814091
:104D8400780C12145D908170780C1214BE85088220
:104D9400850983780C121506850882850983C082EB
:104DA400C08390080CE0F508A3E0F509E4F50AF5E2
:104DB4000BD083D082780812145DEE240EF582EFB6
:104DC4003400F5837808121506120A2F90086B74C4
:104DD40004F0EEFAEFFB120BAF7F0C02178174F0B4
:104DE4001216AFEAFEEBFFEE2402F8EF3400F98866
:104DF400088909EE2406F8EF3400F9880A890B883B
:104E040082F5831218D98508828509831215151233
:104E14000C157402121655850A82850B831218D953
:104E2400850882850983121515120C09740212165D
:104E340055EE240EF582EF3400F583121515120C8D
:104E44001B8E828F83E06440701CEE2412F8EF34D2
:104E540000F988828983E0906064F088828983A362
:104E6400E09060658006906064E4F0A3F090086CC4
:104E7400EEF0A3EFF0EE2416F582EF3400F583E0B4
:104E8400F8A3E0F58388821216AD906054E4F0A391
:104E9400F0A3F0A3F0A3F0A3F0A3F0A3F0A3F0A376
:104EA400F0A3F0A3F0906182E0C2E6F07591BFEE4A
:104EB4002415F582EF3400F583E064017003120CCD
:104EC40051E5E170FCEE2414F582EF3400F583E043
:104ED400F46003E0F5E1EE2415F582EF3400F58388
:104EE4007401F090049FE06401706F120C398A0819
:104EF4008B098C0A8D0B78081218BE8E828F83A3BF
:104F0400A312151512221D74041216558A088B0952
:104F14008C0A8D0B908148780C1214F77808790C60
:104F240012132374037808121412E50824F4F50804
:104F3400E5093401F509900816E0600312118BE4C9
:104F4400F50AF50B78081218BE7A207B00900498B5
:104F5400E0F912123974041216557F08021781748D
:104F6400EC1216AFEAFEEBFF8C088D09EE4F7005CC
:104F74007902025058120C398A0C8B0D8C0E8D0F4D
:104F840090818C780C12145D908170780C1214BE90
:104F94008E828F83E06402701F9007F4E0F8A3E030
:104FA400F9A3E0687003A3E06970248E828F83A361
:104FB400A3780C1215068017E06404701290080A96
:104FC400E0F8A3E0F9A3E0687003A3E06960DC788B
:104FD4000C1218BE850882850983A3A31215151225
:104FE400221D74041216558A108B118C128D139085
:104FF400814C78101213044003024F748508828593
:105004000983A3A378081214F79081C078081214B6
:105014005D78081218BE8E828F83A3A31215151211
:1050240021C07404121655E96003024F7490815034
:10503400780C12145D780C1218BE8E828F83A3A391
:105044001215151221C07404121655E97004790062
:1050540080027901024DDD74F01216AF890874FFE5
:10506400650860030251E790086AE0540770030280
:1050740056B37A007869790888828983A3A3A3A3A5
:10508400A3E064047050EA75F018A4F8A9F0746FF2
:1050940028F582740839F583E0640170487A007851
:1050A40069790888828983A3A3A3A3A3E064046025
:1050B4000302513F88828983A3A3A3A3A3A3E0642B
:1050C400017078EA75F018A4F8A9F0746E28FA74DF
:1050D4000839FB0256B70AE82418F8E93400F9EA5B
:1050E400C3940440937A007869790888828983A3F9
:1050F400A3A3A3A3E064017057EA75F018A4F8A968
:10510400F0746F28F582740839F583E06401704FF8
:105114007A007869790888828983A3A3A3A3A3E08A
:10512400640160030251C388828983A3A3A3A3A358
:10513400A3E0640160030251C380880AE82418F8DC
:10514400E93400F9EAC3940450030250A70256B3A9
:105154000AE82418F8E93400F9EAC39404408C7A84
:10516400007869790888828983A3A3A3A3A3E06450
:10517400027061EA75F018A4F8A9F0746F28F5823A
:10518400740839F583E0640170597A007869790804
:1051940088828983A3A3A3A3A3E06402707A88828C
:1051A4008983A3A3A3A3A3A3E06401706BEA75F0AE
:1051B40018A4F8A9F0746E28FA740839FB806F0AF1
:1051C400E82418F8E93400F9EAC3940450030251BE
:1051D4001A0256B30AE82418F8E93400F9EAC39429
:1051E4000440827A007869790888828983A3A3A31A
:1051F400A3A3E06508703D88828983A3A3A3A3A326
:10520400A3E06401702EEA75F018A4F8A9F0746E96
:1052140028FE740839FF802F0AE82418F8E93400BE
:10522400F9EAC3940450030251947A007B000256B5
:10523400B70256B30AE82418F8E93400F9EAC3942B
:105244000440A67E007F007A007869790888828904
:1052540083A3A3A3A3A3E06508701BEA75F018A4B5
:10526400F8A9F0746F28F582740839F583E06401B5
:1052740070137A0180110AE82418F8E93400F9EA75
:10528400C3940440C87A00E50814600F1470030244
:10529400545024FE70030255AA80967B00786979E5
:1052A4000888828983A3A3A3A3A3E064027055EBB7
:1052B40075F018A4F8A9F0746F28F582740839F50C
:1052C40083E06401704D7B00786979088882898362
:1052D400A3A3A3A3A3E06402600302538688828984
:1052E40083A3A3A3A3A3A3E064016003025386EBF7
:1052F40075F018A4F8A9F0746E28F50A740839F545
:105304000B02539E0BE82418F8E93400F9EBC3941C
:1053140004408E7B007869790888828983A3A3A3DB
:10532400A3A3E0640460030253DAEB75F018A4F855
:10533400A9F0746F28F582740839F583E06401607C
:10534400030253EC7B007869790888828983A3A3DC
:10535400A3A3A3E0640460030253F788828983A3B0
:10536400A3A3A3A3A3E0640160030253F7EB75F0C6
:1053740018A4F8A9F0746E28F50A740839F50B021C
:10538400540F0BE82418F8E93400F9EBC3940450E3
:10539400030252D0750A00750B00EAA2E040030232
:1053A4005442850A82850B83A3A3780C1214F790C8
:1053B4008154780C12145D780C1218BE8E828F837F
:1053C400A3A31215151221C07404121655E9706EA8
:1053D400EEFAEF0250D60BE82418F8E93400F9EBA2
:1053E400C39404500302531DEAA2E05058EEFAEFAE
:1053F400FB80560BE82418F8E93400F9EBC3940455
:10540400500302534E750A00750B00EAA2E0502EB9
:10541400850A82850B83A3A3780C1214F790815418
:10542400780C12145D780C1218BE8E828F83A3A39D
:105434001215151221C07404121655E96092AA0AB5
:10544400AB0B0256B77A007B000256B77B00786933
:10545400790888828983A3A3A3A3A3E06404705278
:10546400EB75F018A4F8A9F0746F28F58274083964
:10547400F583E06401704A7B007869790888828941
:1054840083A3A3A3A3A3E06404600302551E88823C
:105494008983A3A3A3A3A3A3E06401707DEB75F0A8
:1054A40018A4F8A9F0746E28F50A740839F50B02EB
:1054B40055360BE82418F8E93400F9EBC39404409A
:1054C400917B007869790888828983A3A3A3A3A325
:1054D400E064016003025572EB75F018A4F8A9F0BA
:1054E400746F28F582740839F583E064016003025F
:1054F40055847B007869790888828983A3A3A3A350
:10550400A3E06401600302558F88828983A3A3A367
:10551400A3A3A3E06401707380830BE82418F8E963
:105524003400F9EBC394045003025481750A0075E6
:105534000B00EAA2E04003025442850A82850B83F1
:10554400A3A3780C1214F7908154780C12145D788C
:105554000C1218BE8E828F83A3A31215151221C0BC
:105564007404121655E960030254420253D40BE842
:105574002418F8E93400F9EBC3940450030254CB23
:10558400EAA2E0501AEEFAEFFB80180BE82418F8B0
:10559400E93400F9EBC3940450030254FC808D7A7F
:1055A400007B000256B77B0078697908888289837A
:1055B400A3A3A3A3A3E064017040EB75F018A4F8BF
:1055C400A9F0746F28F582740839F583E0640170DA
:1055D400387B007869790888828983A3A3A3A3A36D
:1055E400E06401600302566F88828983A3A3A3A3A6
:1055F400A3A3E0640170740254A10BE82418F8E931
:105604003400F9EBC3940440A37B007869790888DB
:10561400828983A3A3A3A3A3E064027063EB75F060
:1056240018A4F8A9F0746F28F582740839F583E09A
:105634006401705B7B007869790888828983A3A3FD
:10564400A3A3A3E06402704F88828983A3A3A3A3C6
:10565400A3A3E064017040EB75F018A4F8A9F074FA
:105664006E28F50A740839F50B80410BE82418F804
:10567400E93400F9EBC3940450030255DB025530BE
:105684000BE82418F8E93400F9EBC394044080EAE9
:10569400A2E0501B0253D40BE82418F8E93400F9B3
:1056A400EBC394044094750A00750B000255367AD6
:1056B400007B00024F5E74F61216AF89097508006C
:1056C4007869790888828983A3A3A3A3A3A3E0604C
:1056D40003025796E50875F018A4F8A9F0746E282B
:1056E400FE740839FF8E828F83A37401F08E828F3B
:1056F40083E509F0120C398E828F83A3A31215213E
:105704008E828F83A3A3A3A3A3A3E4F0A3F0908129
:10571400D0121515EE240EF582EF3400F583121520
:1057240021EE2414F582EF3400F5837401F0EE24A5
:1057340015F582EF3400F5837401F0EE2416F5823A
:10574400EF3400F583E4F0A3F090086AE04509F033
:10575400900869E004F06401600C748065096006D7
:10576400744065097019E50875F018A4F8A9F07477
:105774006E28F8740839F990086CE8F0A3E9F0E5AC
:105784000875F018A4F8A9F0746E28FA740839FBA7
:1057940080180508E82418F8E93400F9E508C394EA
:1057A4000450030256C87A007B0080007F0202176F
:1057B40081C082C0838A828B83E0F8A3E0F98A8265
:1057C4008B83E4F0A3F088828983A3F088828983A1
:1057D400E0F4F890086AE058F0900869E014F0707A
:1057E4000B90086CE4F0A3F0900499F0801CC08244
:1057F400C083900869E0600A90086CE0FAA3E0FBBB
:1058040080047A007B008002E0F9D083D082020118
:1058140032C082C083E9FB7A00786979088882897A
:1058240083A3A3A3A3A3E06B7016EA75F018A4F8EE
:10583400A9F0746F28F582740839F583E0F98011B2
:105844000AE82418F8E93400F9EAC3940440CE794C
:105854000080B7C082C08390086902580C74F612A5
:1058640016AFEAFEEBFF9061D0E0C0E0EE2400F555
:1058740082EF3401F583D0E0F09061D7E0FA9061D3
:10588400D5E0C39A547FC0E0EE2401F582EF3401E1
:10589400F583D0E0F0EE2402F8EF3401F99061D6FC
:1058A400E0C39A547F88828983F0701A9061C5E0BE
:1058B400A2E45012E0A2E7500DEE2402F582EF3488
:1058C40001F5837480F0120D05EE2401F582EF34A6
:1058D40001F583E07034EE2402F582EF3401F583A0
:1058E400E070279061C5E0A2E4501FE0A2E7501ADF
:1058F400EE2402F582EF3401F5837480F0EE240186
:10590400F582EF3401F5837480F075E1957800EE4B
:105914002400F582EF3401F583E060279061D3E041
:10592400C0E08808EE2508F582EF3400F583D0E066
:10593400F008EE2400F582EF3401F583E0F9E8C3C2
:105944009940D975E1910257B074F61216AFEAFE88
:10595400EBFF9061C8E0C0E0EE2403F582EF340170
:10596400F583D0E0F09061CFE0FA9061CDE0C39A86
:10597400547FC0E0EE2404F582EF3401F583D0E0D7
:10598400F0EE2405F8EF3401F99061CEE0C39A54A7
:105994007F88828983F0701A9061C5E0A2E050127A
:1059A400E0A2E3500DEE2405F582EF3401F5837493
:1059B40080F0120D0BEE2404F582EF3401F583E040
:1059C4007034EE2405F582EF3401F583E0702790FE
:1059D40061C5E0A2E0501FE0A2E3501AEE2405F5F1
:1059E40082EF3401F5837480F0EE2404F582EF3401
:1059F40001F5837480F0120D117A00EE2403F58210
:105A0400EF3401F583E0602F9061CBE0C0E08A08B9
:105A1400EE2508F8EF3400F9E82480F582E9340033
:105A2400F583D0E0F00AEE2403F582EF3401F58328
:105A3400E0F8EAC39840D175E1810257B074F412DA
:105A440016AF8908A808E875F08AA4C8AAF02AF94C
:105A540074CE28FE740839FFEEFAEFFB120BE5EE64
:105A6400FAEFFB120BDF750A80750B00780A121827
:105A7400C27C007D60EE2406FAEF3401FB120B2B8E
:105A84007402121655906195E0C0E0EE2486F5820A
:105A9400EF3401F583D0E0F0906196E0C0E0EE24AD
:105AA40087F582EF3401F583D0E0F0906197E0C090
:105AB400E0EE2488F582EF3401F583D0E0F09061C4
:105AC40098E0C0E0EE2489F582EF3401F583D0E05C
:105AD400F07F0402178174F21216AF8908A808E84F
:105AE40075F08AA4C8AAF02AF974CE28F874083983
:105AF400F99061C6E0FDE054F0F075E1817C00E8C6
:105B04002403F582E93401F583E0602B8C0AE8254F
:105B14000AFAE93400FBEA2480F582EB3400F583C9
:105B2400E09061CAF00CE82403F582E93401F583BE
:105B3400E0FAECC39A40D5E82405F582E93401F58E
