:020000040000FA
:0600000002011A021D7747
:03002B000222B4FA
:03004B000222DDB1
:03005300021DEAA1
:03007B0002228BD3
:10008300021C2BE5C754F84401F5C779012200008F
:100093000080FB120086B90003020104E4791B7897
:1000A30002B800028004F709D8FCE4791D7802B88D
:1000B30000028004F709D8FCE4900281782D790EC0
:1000C3008002F0A3D8FCD9FA781A90014A7A01BACF
:1000D30000028007E493A3F608DAF97AAD7B0F9068
:1000E300014B781179028015E493A3AD82AE838A24
:1000F300828B83F0A3AA82AB838D828E83D8E9D9C6
:10010300E775826D7583BC740312012C758291753A
:100113008300740012012C75D00075817F751881DE
:10012300751902759F00020096C09FF59FE473D076
:100133009F22D083D082C09FE493C0E0740193C018
:10014300E0740293F59F2201D503E7031104DB0357
:10015300FF0000B4000028002800283075A000A08C
:1001630000A000A00000080008E001F0001000104B
:10017300001000100010001000500050005000103C
:10018300001000D0070000000000000F0001000570
:1001930000307507001000010081FF0000FF02021C
:1001A30002F481010000E18102EC810100000310EF
:1001B30002EE81010000B10202EC81010000041093
:1001C30002E481010000C702FFFF0100FF2002F4E7
:1001D30081010000DE8102EC81010000321002E6A1
:1001E30081000000000002EA81030000A4034F0B1A
:1001F3004F0B4F0B4F0B4F0B4F0B4F0B4F0B4F0B2C
:100203004F0B4F0B4F0B4F0B2F0D4D0D290D01E8CE
:1002130003053F1002FFFFFF0001504953434553BD
:100223002D425431303047656D696E692D4241313D
:10023300303001030507FFFE7788129932411424F9
:100243002536FEFF0000014F4BCCCCCC0100000053
:100253006D4EC64139300000120135CCB403120192
:1002630035E2B4031201350FB5031201353FB5036F
:1002730012013560B50312013591B503120135E260
:10028300B503120135F9B503120135A7B103120104
:1002930035BEB103120135EDB10312013526B203A8
:1002A3001201354EB2031201357CB20312013593AC
:1002B300B203120135AAB203120135C0B20312010F
:1002C30035E7B203120135FAB20312013510B30355
:1002D30012013538B30312013593B7021201359277
:1002E300B802120135BCB80212013511B90212016C
:1002F3003532B9021201354BB9021201354DB9023B
:100303001201356EB90212013571BA021201352E8E
:10031300BB02120135FBBB021201355FBC021201A5
:1003230035F6BC02120135F9BC021201357FBD025C
:10033300120135C2BD0212013514BE021201354B42
:10034300BE02120135D1BE021201355ABF0212019B
:1003530035A3BF02120135B0BF02120135B3BF028C
:1003630012013511C00212013529C002120135A351
:10037300C002120135A6C002120135C9C002120122
:1003830035CCC00212013573C10212013596C10288
:10039300120135AEC102120135DEC102120135EB85
:1003A300C102120135EEC1021201355AC202120115
:1003B3003548C302120135FEC30212013569C40276
:1003C30012013544C50212013572C502120135F21C
:1003D300C50212013512C60212013550C6021201BE
:1003E30035A3C6021201350BC7021201359CC702A1
:1003F30012013567C80212013576CB02120135E2CC
:10040300CC0212013505CD02120135729D03120192
:1004130035039F03120135549F03120135B39F0324
:10042300120135C19F03120135EA9F03120135D230
:10043300F902120135FAF90212013528FA02120102
:10044300355FFA02120135C7FA0212013510FB02B9
:100453001201355BFB0212013599FB02120135D6FD
:10046300FB0212013504FC02120135ABFC0212013E
:1004730035B5FC02120135C2FC02120135F5FC024E
:10048300120135B7FD02120135C3FD02120135DB3E
:10049300FD02120135E5FD0212013563FE02120170
:1004A3003509BA0312013517BA031201352FBA03FE
:1004B30012013547BA031201355FBA031201354CF5
:1004C3008E02120135EA8E02120135628F02120189
:1004D30035779002120135B190021201355A91021B
:1004E3001201352F9202120135939302120135EA5C
:1004F30093021201357194021201355895021201CB
:1005030035A595021201353396021201355796022D
:100513001201352C98021201356D98021201358FA4
:1005230098021201355499021201351A9A021201E6
:10053300354F9C021201350496031201351A9603B6
:100543001201354096031201356897031201357283
:100553009703120135CB9803120135CB990312018E
:1005630035478903120135E989031201351C8A03D2
:10057300120135668A03120135208C0312013507F7
:10058300AB0112013585AB0112013595AB011201A7
:100593003578AC01120135A6AC01120135B1AC01BD
:1005A3001201359BAD0112013537AE011201353B06
:1005B300B001120135F2B1011201356EB20112011F
:1005C300354BB30112013579B60112013517B70165
:1005D30012013574B801120135E7B90112013590E2
:1005E300BA01120135D9BA0112013510BB0112014A
:1005F30035B5BB0112013533BC01120135B7DB013F
:100603001201350CDC0112013551DD011201356196
:10061300DD0112013584DD01120135CFDD01120147
:100623003574DE011201356ADF0112013534E00150
:10063300120135ACE101120135EEE1011201358CF5
:10064300E201120135B2E201120135A0E401120107
:1006530035A5E40112013586E601120135DAE6011A
:100663001201353CE70112013564E7011201350837
:10067300E801120135CAE801120135FBE801120154
:1006830035FEE80112013546E90112013588E90119
:10069300120135EFE9011201356CA7031201357F11
:1006A300A70312013588A703120135A1A70312017D
:1006B30035ECA703120135C7A80312013556A90368
:1006C300120135A1A903120135EA5C00120135FAC2
:1006D3005C001201355D5D00120135A25D0012015F
:1006E30035525E001201352B5F00120135545F0055
:1006F300120135845F0012013598610012013574CF
:1007030063001201355465001201358C6600120135
:1007130035056900120135F16900120135376B00A7
:10072300120135446C00120135866C00120135BE8E
:100733006C00120135D86C00120135406D001201B6
:1007430035DA71001201357B7200120135CF720068
:10075300120135F67200120135347300120135535C
:100763007300120135A77300120135AF7400120133
:10077300353875001201354CE90212013556E9028C
:10078300120135F2E902120135BDEA02120135DC2C
:10079300EA0212013502EB0212013541EB021201AA
:1007A3003579EB02120135A2EB02120135DCEB02C3
:1007B300120135F1EB02120135BEEC02120135E1F3
:1007C300EC0212013503ED0212013518ED0212019C
:1007D30035A2ED02120135DCED0212013550EE02B5
:1007E30012013599EE02120135C3EE02120135E80A
:1007F300EE02120135189203120135E2920312013F
:1008030035C593031201353B94031201357D9403DF
:10081300120135AA95031201355E9C021201358738
:100823009C02120135A09C02120135E59D021201C2
:1008330035C39E02120135E29E021201356F9F02FB
:10084300120135B29F02120135EAA0021201355698
:10085300A1021201354CA302120135DAA5021201DD
:10086300356DA60212013541A702120135E4A70234
:10087300120135F7A8021201358DA90212013510B4
:10088300B60312013579B603120135CDB603120151
:1008930035FCB603120135C38D03120135308E03C7
:1008A3001201357B8E03120135708F031201356CF3
:1008B300900312013556910312013537F9011201E4
:1008C300357EF90112013557FA0112013552FB0148
:1008D30012013531FC011201359DFC01120135B9BC
:1008E300FD0112013520FE0112013523FE01120123
:1008F300354EFE01120135BFFE0112013562FF01C3
:1009030012013577FF01120135BFFF01120135D8FE
:10091300FF01120135DBFF0112013502A1031201B0
:10092300353EA1031201357CA10312013546A20312
:10093300120135B9A203120135F4A20312013532B3
:10094300A30312013562A30312013589A303120124
:1009530035F4A30312013536A403120135FB8101DB
:10096300120135198401120135C885011201357848
:100973008601120135C386011201350E870112016A
:1009830035208701120135608701120135958701F2
:10099300120135E187011201351088011201353347
:1009A3008801120135BA8801120135A689011201A5
:1009B30035E48A01120135E68B01120135C28D013E
:1009C300120135E692011201352C93011201356AA9
:1009D30093011201359F9501120135B89701120158
:1009E30035F8AD0312013598AF0312013504230026
:1009F3001201359B2300120135C823001201350E65
:100A03002400120135442500120135DB26001201B2
:100A130035532700120135952700120135E52700CC
:100A2300120135502900120135BB2B0012013597F5
:100A33002C00120135B62C00120135D52C00120101
:100A430035D82C001201355E2E00120135532F00CC
:100A53001201354F3000120135BF3000120135311C
:100A63003100120135B031001201358B3200120111
:100A730035923300120135713400120135FC340014
:100A83001201356A3500120135DE350012013507D2
:100A93003600120135C63600120135D53900120170
:100AA300351E3A00120135613A00120135E43A006D
:100AB300120135883B00120135193C001201353E05
:100AC3003C00120135883C00120135B23C00120192
:100AD30035F73C00120135723D00120135CC3D0063
:100AE300120135203F00120135DD3F00120135B000
:100AF30040001201350080021201355080021201BC
:100B0300355C800212013539810212013569810297
:100B1300120135A181021201351B82021201359D9A
:100B23008202120135D58202120135278302120196
:100B330035648302120135898502120135B58702B6
:100B4300120135B089021201358B8B02120135F97E
:100B5300220012013587E302120135B9E7021201BF
:100B63003509E902120135E7BC01120135B9C301A8
:100B7300120135BFC3011201356FC601120135954C
:100B8300F40212013541F5021201350FF60212018A
:100B93003539F60212013587F802120135DE4000BD
:100BA300120135284100120135DA4D001201355B7F
:100BB3004F00120135535000120135B25600120195
:100BC30035AD5700120135EA57001201350D5800B3
:100BD3001201354F5800120135595800120135459D
:100BE3005900120135395A00120135D25A00120147
:100BF30035D599031201356B9A03120135819A0396
:100C0300120135FB9A03120135519B031201358FF3
:100C13009B03120135EC9B03120135699C031201FE
:100C230035729C031201357E9C03120135919C039E
:100C3300120135CD9C03120135E39C0312013542A9
:100C43009D031201353FDD021201354CDD02120115
:100C53003566DD02120135A5DD02120135E3DD0241
:100C630012013548DE021201355DDE0212013574D0
:100C7300DE0212013582DE0212013591DE0212011B
:100C830035A6DE02120135BBDE02120135C6DE02D5
:100C9300120135D2DE02120135DFDE02120135EE1A
:100CA300DE02120135F9DE021201351EDF021201E6
:100CB30035C7DF02120135DCDF02120135F1DF0235
:100CC3001201350BE00212013526E0021201354311
:100CD300E0021201354EE0021201350AE10212016F
:100CE30035F6E1021201351BE20212013525E2025B
:100CF30012013539E20212013558E202120135B907
:100D0300E202120135BFE202120135C5E20212010D
:100D130035CBE202120135D7E2021201350AE302B2
:100D23001201359F7500120135CB7500120135AFE5
:100D330076001201354979001201355F7A001201FC
:100D4300357C7B001201351F7C00120135C57C0008
:100D530012013509AA021201358BAA021201353498
:100D6300AB021201357CAC021201358AAE021201CC
:100D73003570AF02120135A5AF02120135C7AF02BC
:100D830012013570B00212013540B2021201356909
:100D9300B202120135E1B20212013513B30212019C
:100DA3003520B3021201356BB3021201358FB30242
:100DB300120135E0B502120135EAB60212013546D9
:100DC300B702120135B9EA01120135CAEB0112016A
:100DD30035AEEC01120135B8EC01120135DAEC0144
:100DE300120135E6EC011201358AEE01120135B725
:100DF300EE01120135CDEF0112013522F00112018E
:100E03003571F10112013546F201120135A2F201E9
:100E13001201350DF30112013542F301120135853B
:100E2300F3011201354FF60112013567F601120184
:100E330035F8F60112013506F70112013553F701B2
:100E430012013561F701120135CDF7011201354861
:100E5300F8011201359FF801120135EEAF031201BB
:100E63003513B00312013589B00312013550D60290
:100E730012013559D60212013562D6021201353AF2
:100E8300D702120135EBD8021201351BD902120128
:100E93003546D90212013576D902120135A1D9029C
:100EA300120135D5D90212013501DA021201354496
:100EB300DA021201356FDA02120135B6DA021201D3
:100EC300350BDB021201354DDB02120135A7DB02C4
:100ED300120135D2DB0212013521DC021201355138
:100EE300DC021201357CDC021201359FDC021201A7
:100EF30035EDBC0312013519BD0312013546BD039F
:100F030012013550BD0312013560BD0312013500D6
:100F130080031201353F8003120135C8800312019B
:100F230035DB800312013526810312013565810308
:100F3300120135748103120135CD81031201351C71
:100F430082031201356C820312013560830312019F
:100F530035558403120135928403120135C9BD034B
:100F6300120135ED9701120135E499011201357330
:100F73009B01120135659C01120135EC9C011201A4
:100F830035669D01120135979D0112013550A1016E
:100F9300120135CCA101120135B8A201120135F0BD
:100FA300A20112013533A3011201356AA401120112
:100FB300359BA401120135F0A40112013527A501C7
:100FC30012013599A501120135BFA501120135D9C9
:100FD300A501120135CBA601120135DBA6011201D1
:100FE3003570A80112013593A801120135C5A80176
:100FF30012013551AA01120135C8AA01120135693E
:10100300BF0312013526BE0312013565BE0312016B
:10101300357ABF03120135F8BA0312013508BB0351
:101023001201351ABB03120135CCBB03120135F48F
:10103300FE0212013578FF02120135DEFF021201B2
:10104300351DB70312013539B70312013592B703C2
:101053001201359DB703120135E7B70312013512AB
:10106300B80312013515B80312013541BF0312014C
:101073003551BF0312013554BF03120135F87F0008
:10108300120135CBA9031201354CAB03120135AD67
:10109300AB03120135F3AB0312013557BF03120142
:1010A3003562BF0312013567BF0312013518B90357
:1010B30012013541B9031201356AB90312013582B0
:1010C300B903120135C4B90312013510EF0212013D
:1010D300351AEF021201355AEF02120135A3EF025E
:1010E300120135DDEF0212013537F00212013556D8
:1010F300F0021201355FF002120135B0F002120165
:1011030035D9F002120135E3F0021201354FF10235
:10111300120135DDF10212013536F2021201356496
:10112300F202120135E4F20212013527F302120131
:101133003562F30212013574F30212013593F3029F
:101143001201359CF30212013569F4021201354A8A
:10115300B3031201359DB30312013509B403120120
:101163003571B4031201357EA403120135A8A4031B
:101173001201357DA50312013571A603120135F461
:10118300A6031201351EB803120135F6AB03120193
:10119300352CAC0312013565AC03120135BEAD032A
:1011A300120135D2BB03120135E8BB03120135F23C
:1011B300BB031201353CBC031201356ABD031201A6
:1011C300353DCE02120135FACE0212013535CF027A
:1011D3001201355DCF02120135BFCF021201350B6B
:1011E300D0021201356FD002120135E9D00212018B
:1011F30035EBD1021201359ED30212013520D40200
:1012030012013585D4021201359CD402120135A591
:10121300D502120135E3D502120135CA8403120146
:1012230035E38403120135848503120135C4850334
:10123300120135DD85031201351086031201355D78
:101243008603120135918603120135D386031201F9
:1012530035DD8803120135B6BE03120135C1BE0365
:10126300120135E8BE0312013579CC01120135C5EF
:10127300CC011201355ACD01120135B9CD0112014C
:1012830035D8CE0112013574D2011201352CD501A6
:101293001201351BD801120135F5D901120135951B
:1012A300DA011201353CDB01120135F7FF021201AD
:1012B30035FDBE031201356FBE0312013529BF038D
:1012C300120135D67F00E066701008A3E066700A4D
:1012D30008A3E066700408A3E06622C3E796080942
:1012E300E7960809E7960809E79622C3E09608A35C
:1012F300E09608A3E09608A3E09622C008C3E09610
:10130300F50808A3E096420808A3E096420808A35C
:10131300E09645087001D3D00822080808EAC0E027
:10132300EBC0E086F0E7A4FA180986F0E7A42AFAEE
:10133300180986F0E7A42AFA180986F0E7A42AFA1E
:101343001986F0E7A4FBE5F02AFA190886F0E7A46A
:101353002BFBE5F03AFA190886F0E7A42BFBE5F03E
:101363003AFA18180986F0E7A4C5F02BFBE43AFA19
:101373001908E7C5F0C6A426F6E5F03BFBE43AFA04
:101383001886F0E7A4F6E5F00826F6E43B08F6E451
:101393003A08F6D0E0FBD0E0FA22E4CFC0E0E4CE96
:1013A300C0E0E4CDC0E0E4CCC0E075F020E626F672
:1013B30008E633F608E633F608E633F6181818ECB1
:1013C30033FCED33FDEE33FEEF33FFC3EC9709ED52
:1013D3009709EE9709EF97191919400FFFEC97FC3E
:1013E30009ED97FD09EE97FE191906D5F0BFECF745
:1013F30009EDF709EEF709EFF7191919D0E0FCD059
:10140300E0FDD0E0FED0E0FF226016080808C6C366
:1014130013C618C613C618C613C618C613C6D5E016
:10142300EA227009080808226016181818C6C33380
:10143300C608C633C608C633C608C633C6D5E0EAEF
:1014430022E627F60809E637F60809E637F608091B
:10145300E637F622E026F608A3E036F608A3E036E0
:10146300F608A3E036F622E026F008A3E036F008FB
:10147300A3E036F008A3E036F022C3E697F60809A6
:10148300E697F60809E697F60809E697F622C3E019
:1014930096F008A3E096F008A3E096F008A3E09680
:1014A300F022E657F60809E657F60809E657F60864
:1014B30009E657F622E056F608A3E056F608A3E03D
:1014C30056F608A3E056F622E056F008A3E056F0DD
:1014D30008A3E056F008A3E056F022E066F608A35E
:1014E300E066F608A3E066F608A3E066F622E0F6F7
:1014F30008A3E0F608A3E0F608A3E0F622E6F00866
:10150300A3E6F008A3E6F008A3E6F022E0FAA3E0DE
:10151300FBA3E0FCA3E0FD22EAF0A3EBF0A3ECF0D5
:10152300A3EDF022E0F8A3E0F9A3E0FAA3E0FB22A5
:10153300E8F0A3E9F0A3EAF0A3EBF022CAC0E0E6E7
:10154300F0A308DAFAD0E0FA22CAC0E0E0A3C58229
:10155300CCC582C583CDC583F0A3C582CCC582C566
:1015630083CDC583DAE6D0E0CA22C3E498F8E499D0
:10157300F91215AE8026C3E49AFAE49BFBE920E74F
:10158300E91215AEE498F8E499F922C3E498F8E473
:1015930099F91215AEE498F8E499F9C3E49AFAE4D8
:1015A3009BFB22EB20E7CFE920E7E0B90010BB006B
:1015B30008E88AF084F8AAF022E4FBC8FA22EB7068
:1015C300227B10C833C8C933C9335007C39AC3DB5E
:1015D300F280069A50012ADBEAC833F4C8C933F40F
:1015E300C9FA2275F008E4C833C8C933C933C99AA4
:1015F300C99B5004C92AC93BD5F0ECFBC833F4C8D6
:10160300E4C9FA22600D08C6A2E713C618C613C6BA
:10161300D5E0F322600C08C6C313C618C613C6D59B
:10162300E0F422700422600D18C6C333C608C63323
:10163300C6D5E0F41822251810AF08F518400C158C
:10164300198008F51840021519D2AF2200C0D02521
:101653001810AF08F518500C05198008F51850023A
:101663000519D2AFD0D0222518F58210AF08F5188E
:10167300400C15198008F51840021519D2AF8519C9
:1016830083222518F582E43519F583222518F8E419
:101693003519F9222518FAE43519FB222518FCE43B
:1016A3003519FD22E4732518C582C0E0E51934FF1E
:1016B300C583C0E0E518C3958224F810AF0885837D
:1016C300198582188008858319858218D2AFCEF0D8
:1016D300A3E520F0A37808E608F0A3DEFAEFF0A371
:1016E300E58124FAF8E608F0A3E608F0A3E608F09B
:1016F300A30808E608F0A3E608F0A315811581D036
:10170300E0FED0E0F8158115811581E8C0E0EEC058
:10171300E0222518C582C0E0E51934FFC583C0E087
:10172300E518C3958224F910AF08858319858218BB
:101733008008858319858218D2AFCEF0A3E520F007
:10174300A37808E608F0A3DEFAEFF0A3E58124FB13
:10175300F8E608F0A3E608F0A30808E608F0A3E615
:1017630008F0A315811581D0E0FED0E0F8158115AE
:1017730081E8C0E0EEC0E022851983851882E0A3EA
:10178300FEE0A3F5207808E0A3F608DFFAE0A3FF64
:10179300E0A3C0E0E0A3C0E0E0A3C0E0E0A3C0E0BA
:1017A300E0A3C0E010AF08858218858319800885FF
:1017B3008218858319D2AFD083D082020132851972
:1017C30083851882E0A3FEE0A3F5207808E0A3F662
:1017D30008DFFAE0A3FFE0A3C0E0E0A3C0E0E0A3DA
:1017E300C0E0E0A3C0E010AF0885821885831980AC
:1017F30008858218858319D2AFD083D08222C0D0C6
:101803002518C582C0E0E51934FFC583C0E0E5189B
:10181300C3958224F310AF08858319858218800845
:10182300858319858218D2AFC8F0A3E9F0A3EAF043
:10183300A3EBF0A37908E709F0A3D8FAECF0A3ED42
:10184300F0A3EEF0A3EFF0A3D0E0F0A3D0E0F0A379
:10185300D0E0F0A3E520F0A3E5F0F0A322851983FF
:10186300851882E0C0E0A3E0F9A3E0FAA3E0FBA3BC
:101873007808E0F608A3DFFAE0FCA3E0FDA3E0FEAE
:10188300A3E0FFA3E0C0E0A3E0C0E0A3E0F5D0A3A2
:10189300E0F520A3E0A3F5F010AF08858319858256
:1018A300188008858319858218D2AFD082D083D05F
:1018B300E0F8D0E03274048006740280027401C040
:1018C300E0F40412166AD0E012153F227404800477
:1018D30074028000CCC0E0EDC0E0E518C39CCCAD41
:1018E3001950011D10AF068C188D1980068C188DA8
:1018F30019D2AF12154CD0E0FDD0E0FC22D083D03A
:1019030082E9C0E0E493A3C386F0C5F095F0F9083B
:10191300E493A386F0C5F095F0700BE493A3C39909
:101923004005E9048002A3E475F002A42582F58250
:10193300E5F03583F583D0E0F9E493A3C0E0E493C5
:10194300C0E022D083D082ECC0E0EDC0E0E493A3FA
:10195300FCE493A3FDED4C600D121992EC24FFFC03
:10196300ED34FFFD80EFE493A3FCE493A3FDED4C82
:10197300600D1219D1EC24FFFCED34FFFD80EFD094
:10198300E0FDD0E0FCE493A3C0E0E493C0E022C018
:10199300E0C3E49396087401939618400FE49366AA
:1019A300700808740193661870007019A3A3C3E448
:1019B3009396087401939618A3A3400DD0E0D0E04A
:1019C300D0E0021982A3A3A3A3A3A3D0E022C0E083
:1019D300C0F088F0E4936670080874019366187089
:1019E30000A8F0A3A3700BD0F0D0E0D0E0D0E002C9
:1019F3001982A3A3D0F0D0E02274F5121715EAFEE2
:101A0300EBFFEE2434F8EF3400F988088909EE245B
:101A130035F582EF3400F583E0F8EE2437F582EFF5
:101A23003400F583E0F50AEC850AF0A4FCAAF085FE
:101A33000AF0EDA42AFDE82CF8E43DF97A257B00B1
:101A43001215AEEA850882850983F05407F87401FC
:101A5300B800028004C333D8FCC0E0E0131313546E
:101A63001FF8EE28F8EF3400F9E8245DF582E93435
:101A730000F583D0E0F8E0586008EE2434F582EFF7
:101A8300801EEE2436F582EF3400F583E0F5F0EAAC
:101A930084A8F0EE28F8EF3400F9E82438F582E959
:101AA3003400F583E0F97F040217C174F5121715AA
:101AB300EAFEEBFFEE2434F582EF3400F583E0C059
:101AC300E0EE2435F582EF3400F583D0E0F08E822A
:101AD3008F83A3A3A3A3A3A3A3C082C0838E828F58
:101AE30083A3A3A3A3A3E0F8A3E0F9D083D082E068
:101AF300C398F508A3E099F509EE2480F582EF3445
:101B030000F583E064017069EE2481F582EF34000F
:101B1300F583E0F8A3E0F98E828F83A3A3A3A3A3A5
:101B2300A3A3E0FCA3E0FD8E828F83A3A3A3A3A3BF
:101B3300E0FAA3E0FBC3EA9CEB9D5027C3EC98EDCE
:101B430099402EC3EA98EB9950277CE27D07EEFA81
:101B5300EFFB120A8FEE2480F582EF3400F583E465
:101B6300F0800EC3EA98EB9940E0C3EC98ED9950EE
:101B7300D9EE2434F8EF3400F9E8FCE9FDEE24351E
:101B8300F582EF3400F583E0F8EE2437F582EF3485
:101B930000F583E0F50AE508850AF0A4F508AAF044
:101BA300850AF0E509A42AF509E82508F8E43509CA
:101BB300F97A257B001215AEEA8C828D83F05407E7
:101BC300F87401B800028004C333D8FCC0E0E0130A
:101BD3001313541FF8EE28F8EF3400F9E8245DF5E9
:101BE30082E93400F583D0E0F8E0586008EE24344D
:101BF300F582EF801EEE2436F582EF3400F583E0A4
:101C0300F5F0EA84A8F0EE28F8EF3400F9E8243878
:101C1300F582E93400F583E0F912227D021AA90066
:101C230000851B87851CC622C0E0C0D0E8C0E0E960
:101C3300C0E0EAC0E0EBC0E0ECC0E0EDC0E0C0080B
:101C4300C009C00AC00BC082C083C0F0759B00905E
:101C53006182E0A2E64003021D09E591A2E640038A
:101C6300021D097591BF900499E064057008120C78
:101C73001B120C278003120C21751B00120C87E921
:101C830090049AF07900120C691209FF7A017B0023
:101C9300900498E0F9121125907803E06442600300
:101CA300021D52900817E014F06003021D52C2AFE8
:101CB300121CB600781ED0E0F618D0E0F6E59F546B
:101CC30007F9700590813E800390814278081214D1
:101CD300F1E9C4C0E0781DE65508F50808E65509A2
:101CE300F509740B7808121617D0E02508F89062EE
:101CF30070E0A2E740F8E8C333906272F09062703C
:101D0300E0D2E0F08049E0A2E55024E591A2E5505D
:101D13001E7591DF900499E0640D70139004BBE08D
:101D230004F064287002E4F07A00E0F9120D1790D1
:101D33006181E0A2E35009E5E9A2E3500375E9F705
:101D4300A3E0A2E75009E591A2E7500375917FD084
:101D5300F0D083D082D00BD00AD009D008D0E0FDD8
:101D6300D0E0FCD0E0FBD0E0FAD0E0F9D0E0F8D04E
:101D7300D0D0E032C0E0C0D0C082C083906183E0A5
:101D8300A2E05009E5BFA2E0500375BFFEE0A2E167
:101D93005009E5BFA2E1500375BFFDE0A2E250097F
:101DA300E5BFA2E2500375BFFBE0A2E35009E5BF24
:101DB300A2E3500375BFF7E0A2E45009E5BFA2E434
:101DC300500375BFEFE0A2E55009E5BFA2E550035C
:101DD30075BFDFE0A2E65009E5BFA2E6500375BF79
:101DE300BFD083D0828088C0E0C0D0E8C0E0E9C023
:101DF300E0EAC0E0EBC0E0ECC0E0EDC0E0C0F0E53D
:101E0300A7A2E6500FE5A1A2E6500953A7BF75A10B
:101E1300BF121E4FE5A7A2E5500CE5A1A2E55006AF
:101E230053A7DF75A1DFE5A7A2E15009E5A1A2E170
:101E3300500375A1FDE5A7A2E2500CE5A1A2E25073
:101E43000653A7FB75A1FBD0F0021D6074F81217AF
:101E530015751B01900499E064067015120BC78A6F
:101E6300828B83A3A3A3A3A3A3E0FAA3E0FB120C97
:101E730009A2AFE433FED2AF90049FE0640170186F
:101E83007A207B00900498E0F912123F7A207B00BD
:101E9300900498E0F912112B906182E0D2E6F09061
:101EA3000816E0602185C61C801690049EE064013C
:101EB3007008E5C654F84405F5C653BEFC121C244D
:101EC3007401651B60E4EEA2E092AF7F010217C1CB
:101ED30074EB12171574FA1216398A088B098C14CD
:101EE3008D15900499E024F7C394055006908196CC
:101EF300022035120BC78A0A8B0BAE0AAF0BEE4FCB
:101F03007003022032AC08AD09851882851983AAB3
:101F130082AB83120C398E828F83A3A378081214A9
:101F2300F190817A78081214B8851882851983781C
:101F33000C1214F190817A780C1214B87808790C89
:101F43001212DE501F7808790C12147D908162788A
:101F5300081212FE4047850810850911850A12856B
:101F63000B138041850C10850D11850E12850F13FF
:101F73007810790812147D90816278101212FE5045
:101F83001C75100075110075120075130178107916
:101F93000C12147D781079081214448008908196ED
:101FA30078101214F1740978101214259081B27804
:101FB300081214F17810790812139D8E828F83A36F
:101FC300A3A3A3A3A3E0F8A3E0F97AD07B0312159C
:101FD300AE88088909E4F50AF50B7810790812141C
:101FE300447404121685E0F8A3E0F97AD07B031257
:101FF30015AEE8FA8A08E4F509781079081212DEBA
:1020030050077810790812147D900499E0640860F1
:102013000AE064066005E06405701C908166781030
:102023001212FE501290816A781012145780089091
:10203300819A78101214F185148285158378101211
:102043001500740612164F7F0E0217C174F712178C
:1020530015120C4B900814E064017010906245E473
:10206300F0A3F053F4F343FE0C5390F3120BF7E594
:10207300C654804449F5C6E59E547F644970F89080
:102083006185740FF0900812E0F47002A3E0604ED3
:10209300900813E0600814601B14602E80407508DC
:1020A30001750900900812E07808121626E508F475
:1020B3005280802A750801750900900812E078089B
:1020C300121626E508F4529080147508017509006C
:1020D300900812E07808121626E508F452A0790059
:1020E3007F020217C174F7121715E9FEEAFF7401A4
:1020F3006E700C7A807B00900498E0F912112590A1
:1021030022FCE493F46008E493F91209F380095381
:10211300C680E59E547F70FA120BFD900814E064AC
:10212300017003120A0B900812E0F47002A3E0603E
:102133004B900813E0600814601A14602C803D75FE
:102143000801750900900812E07808121626E508C0
:1021530042808028750801750900900812E078080C
:10216300121626E508429080137508017509009040
:102173000812E07808121626E50842A0120C4B124A
:102183000BC78A088B09A808A909E8496015E5E186
:1021930070FCE82414F582E93400F583E0F460036D
:1021A300E0F5E174016F700A7A01900498E0F91286
:1021B30011AF0220E374F11217158A088B098C0AF8
:1021C3008D0B740F121685780C1214F190817A78A6
:1021D300081214B890817A780C1214B87808790C24
:1021E3001212DE50157808790C12147D90816278F2
:1021F300081212FE401579018013780C7908121425
:102203007D908162780C1212FE40EB79007F080208
:1022130017C174ED1217158A088B098C0A8D0B747C
:1022230013121685780C1214F190817A780812141F
:10223300B890817A780C1214B8780C79081212DEEF
:1022430040117808790C12147DAA08AB09AC0AADC9
:102253000B8022751000751100751200751301783B
:1022630010790C12147D78107908121444AA10AB5B
:1022730011AC12AD137F0C0217C1C082C083E99069
:102283006000F0D083D08222C0E074F2121801A261
:10229300AFE433FED2AFE58AA2E4500312105975BE
:1022A3008A00C2EB751A00EEA2E092AF7F0102181A
:1022B30060C0E0C0D0E8C0E0E9C0E0A9A8D2AFC2E6
:1022C300C7751A00E9A2E7E433F8E9A2E792AFD0B1
:1022D300E0F9D0E0F8D0D0D0E032C0E0C0D0E8C020
:1022E300E0A8AFE8A2E0500375E200F4F5AFD0E058
:1022F300F8D0D0D0E032020132FFFFFFFFFFFFFF33
:10230300FFC082C0839061907404F0A37448F0A36B
:102313007402F09061807440F09061BC7403F0909B
:1023230061877419F0906265741BF090619C740D61
:10233300F090619A7433F0A37455F09061A0743AED
:10234300F0900814E064017009C29190049D7467D1
:10235300800590049D7461F0902302E4939061865C
:10236300F09022FCE493F46027E493540FF8906117
:1023730085E0686012E5C654804449F5C6E59E547D
:102383007F644970F8E8F053C680E59E547F70FA85
:102393007905120CF902278EC082C083E9540FF924
:1023A300906185E0696012E5C654804449F5C6E54D
:1023B3009E547F644970F8E9F053C680E59E547FCC
:1023C30070FA02278EC082C083E5A8F853A87E90D6
:1023D3006181E4F0A3F0A3F0C2BA539AFEC28975F7
:1023E3009B00C2C275E90075910075BF0075A91104
:1023F30075B905906181F0A374C0F0A3E4F0D2BA7B
:10240300439A0174805842A802278EC082C0837405
:10241300F812163990049BE0F8A3E0F9E849700339
:1024230002253C90049BE054406023790885188280
:10243300851983AA82AB83120B01851882851983C0
:10244300AA82AB831207DD90049BE054BFF0E054F3
:10245300806010790C7A387B08120B0190049BE0A2
:10246300547FF0E0A2E0503190619A7433F0A3748A
:1024730055F09061A0743AF0900814E0640170097B
:10248300C29190049D7467800590049D7461F0125D
:1024930007E390049BE054FEF0E054026031906146
:1024A3009A743FF0A3745AF09061A0747FF090087F
:1024B30014E064017009D29190049D7471800590B9
:1024C300049D746AF01207E390049BE054FDF0E06E
:1024D30054046013902300E493906186F01207E99B
:1024E30090049BE054FBF0E054086013902301E454
:1024F30093906186F01207E990049BE054F7F0E0B3
:1025030054106013902302E493906186F01207E95C
:1025130090049BE054EFF0E05420600A1207E99026
:10252300049BE054DFF0A3E05401600D120A0B1288
:1025330007EF90049CE054FEF0740812164F022734
:102543008E74EC1216A974F4121639851882851943
:1025530083AC82AD8375838175823A740412154C02
:1025630090230093F460030226D1907808E0C3948B
:102573000250030226B17404121685AC82AD837532
:102583008381758206740812154C85188285198318
:102593008582128583137404121685AC82AD83750C
:1025A3000EFF750FFF7FFF7E00750C48750D788059
:1025B3001574086E700302264474096E70030226B4
:1025C30044740A6E607B850C82850D83780812142F
:1025D300F18C828D83A909E50AC9F88810741878EB
:1025E3000812140CE5104508F8C3E098A3E0998598
:1025F3000C82850D8378081214F140188C828D8328
:102603007418780812140CE5104508F8E0C398F81C
:10261300A3E0801C7418780812140CE5104508FA1E
:10262300E9FB8C828D83E0F8A3E0F9EAC398F8EB29
:1026330099F9C3E8950EE9950F5006880E890FEEB8
:10264300FF0EE50C2404F50CE50D3400F50DEEC387
:10265300941350030225B474FF650E700474FF6570
:102663000F60238F08740278081216267448250811
:10267300F58274783509F58378081214F18512828E
:10268300851383E508F0EC24020C0CED3400FD8582
:102693001282851383A3858212858313740C121609
:1026A30085E5826C7003E5836D60030225A27508DE
:1026B3000175090078081218BC7402121685AC82E1
:1026C300AD837AC07B08121035740212164F740C56
:1026D30012164F7F0C02177BC082C0839061AE74C9
:1026E30068F0A3746AF090624574FBF0A304F0539E
:1026F300F4FD43FE029008147401F09061A0E064BD
:102703003A90619A70237433F0A37455F09061A0EA
:10271300743AF0740164017009C29190049D746766
:10272300802890049D74618021743FF0A3745AF053
:102733009061A0747FF0740164017009D2919004D8
:102743009D7471800590049D746A8000F002278E49
:10275300C082C0839007F2E0640170159007F8E02F
:1027630064016009E0700AA3E064017004790C80DD
:1027730012900809E06401700890080FE06401609A
:10278300EC790002278EE0F912227DD083D08202F9
:102793000132C082C0839007FC7425F09007FA745D
:1027A30001F0A3E4F07A01FB120C759007E8E02432
:1027B30016F8A3E03400F988828983742FF0A37498
:1027C3000AF09007F9E0640170169007F8E07010C2
:1027D3007901120CD5120CA5120CCF7900120CE161
:1027E30080A9C082C08374FA1216399007F1E0649D
:1027F300017008120A179007F1E4F075E1F19007F0
:10280300E8E02415F8A3E03400F988828983740191
:10281300F09007F3E06401707690812CC0828518F4
:1028230082851983AC82AD83758381D0827406124D
:10283300154C75D90D9007EAE0C4333354C04403F3
:10284300F5D978E8790788828983A3A3A3E0F5D92A
:1028530088828983A3A882A983E864EE7003E9646C
:102863000770E3851882851983A882A983888289E2
:1028730083E0F5D9A3A882A9837406121685E5829D
:10288300687003E5836970E575E1957901800279E4
:1028930000120C7B901053747FF0A3740BF0A3749D
:1028A30085F0A3740BF0A3747FF0A3740BF0A374EF
:1028B3007FF0A3740BF0A3744FF0A3740BF0A37415
:1028C3004FF0A3740BF0A3748BF0A3740BF0901070
:1028D30061744FF0A3740BF0A3744FF0A3740BF067
:1028E300A3744FF0A3740BF0A3744FF0A3740BF015
:1028F300A3744FF0A3740BF0A3744FF0A3740BF005
:102903009007EAE0F97AEB7B07120C579007FCE09B
:10291300F912227D7901120C8190817212150F1226
:102923000C999081CE12150F120C637900120CEDE5
:102933009007E8E02414F8A3E03400F9888289833F
:102943007416F09004997405F00402253E74F7128E
:1029530016A98908A808E875F006A4C8AAF02AF9F8
:1029630074C928FE740439FF900801E0F97A027BE8
:1029730008120C5790080FE0701A7900120CB790E8
:1029830007DBE0700B79007ADC7B07120C5D8009B2
:10299300790180F37901120CB775E1F175D92390B0
:1029A3000801E0C4333354C04405F5D978FF7907EF
:1029B30088828983A3A3A3E0F5D988828983A3A806
:1029C30082A983E864057003E9640870E375D9009C
:1029D30075D90075D90075D90075D90075D900EE80
:1029E300F8EFF9E82404FAE93400FBE82422F5823D
:1029F300E93400F583E0F5D988828983A3A882A905
:102A030083EA687002EB6970E2EEF8EFF9E82403F9
:102A13001AE93400FBE82426F582E93400F583E063
:102A2300F5D988828983A3A882A983EA687002EB17
:102A33006970E2EE242BF582EF3400F583E0F5D9DB
:102A4300EEF8EFF9E824021AE93400FBE8242CF548
:102A530082E93400F583E0F5D988828983A3A882CB
:102A6300A983EA687002EB6970E2EEF8EFF9E824F3
:102A73002EF582E93400F583E0F5D988828983A3B2
:102A8300A882A983EA687002EB6970E2EEF8EFF9B5
:102A9300E82430F582E93400F583E0F5D9888289AA
:102AA30083A3A882A983EA687002EB6970E2EEF857
:102AB300EFF9E82432F582E93400F583E0F5D988AB
:102AC300828983A3A882A983EA687002EB6970E212
:102AD300EEF8EFF9E824050A0A0AE93400FBE824D2
:102AE3005DF582E93400F583E0F5D988828983A313
:102AF300A882A983EA687002EB6970E2EE2437F5D5
:102B030082EF3400F583E0541FF8EE242AF582EFB8
:102B13003400F583E0C43354E048F5D975E195906A
:102B230010537455F0A3740BF0A3745BF0A3740BF0
:102B3300F0A3744FF0A3740BF0A3744FF0A3740BC2
:102B4300F0A3744FF0A3740BF0A3744FF0A3740BB2
:102B5300F0A37461F0A3740BF0901061744FF0A3B1
:102B6300740BF0A3744FF0A3740BF0A3744FF0A392
:102B7300740BF0A3744FF0A3740BF0A3744FF0A382
:102B8300740BF0A3744FF0A3740BF090080EE0F9EC
:102B930012227D90817212150F120C999081CE1220
:102BA300150F120C6390600DE4F07901120CED9097
:102BB30004997406F00231AB74EC1216A99007FF66
:102BC300E0F8A3E0F5838882A3A378101214F190B0
:102BD3000810E0FAF875F006A4C8ACF02CF974F705
:102BE30028F582740439F583E0FEA3E0FFEEC333D6
:102BF300FEEF33FF8E0CF50D750E00750F0085107B
:102C03000885110985120A85130B90813278081201
:102C1300145778081218B885100885110985120A07
:102C230085130B7808790C1214447810790C12135D
:102C33009DE4F50EF50F7808790C12147D8A0C7556
:102C43000D007403780C1216267808790C121444BC
:102C530090817A78081214B8AA08AB09AC0AAD0BB4
:102C6300122215740412164F8A088B09A808A909A1
:102C7300C3EE98EF995006E82EF8E93FF9E8906023
:102C83000EF0E9A3F0EEA3F0EFA3F090600D74C192
:102C9300F00226D6C082C0839007E8E0F8A3E0F5EF
:102CA300838882A3A3A3A3A3A3E4F0A3F09007FCC8
:102CB300022789C082C0839007FFE0F8A3E0F58371
:102CC3008882A3A3A3A3A3A3E4F0A3F090080E0216
:102CD300278902013274F61216A99061D0E0F874C4
:102CE30080C398FCEA2483F582EB3400F583E0602B
:102CF30004780480027800E8240EF8ECC3985003AB
:102D0300022E597E0C900818E4F0EA2477F582EB42
:102D13003400F583E0900819F0EA2478FCEB3400E2
:102D2300FD781A79087F028C828D83E088828983FB
:102D3300F08C828D83A3AC82AD8388828983A3A820
:102D430082A9831FEF70E0EA247AFCEB3400FD7F55
:102D5300028C828D83E088828983F08C828D83A3A9
:102D6300AC82AD8388828983A3A882A9831FEF7075
:102D7300E0EA247CFCEB3400FD7F028C828D83E04F
:102D830088828983F08C828D83A3AC82AD83888211
:102D93008983A3A882A9831FEF70E0EA247EFCEB5A
:102DA3003400FD7F028C828D83E088828983F08CDE
:102DB300828D83A3AC82AD8388828983A3A882A9F1
:102DC300831FEF70E0EA2475FCEB3400FD8A828BED
:102DD30083A3A3A3A3A3E0F508A3E0F5098C828D45
:102DE30083E02508F0A3E03509F07F028C828D8310
:102DF300E088828983F08C828D83A3AC82AD838843
:102E0300828983A3A882A9831FEF70E0EA2483F554
:102E130082EB3400F583E0601975081875090878AA
:102E2300081218BC7C0C7903120B43740212164F60
:102E33007E1074012EF5D975D90375821875830830
:102E4300EEFFE0F5D9A31FEF70F875E19579041251
:102E53000C9F79018002790002338D74F61216A952
:102E63009061D0E0F87480C398FCEA2483F582EB88
:102E73003400F583E06004780480027800E8240AD3
:102E8300F8ECC3985003022F4E7508089008187485
:102E930001F07CE27D07781979087E058C828D83A9
:102EA300E088828983F08C828D83A3AC82AD838892
:102EB300828983A3A882A9831EEE70E0EA2481FCA1
:102EC300EB3400FD8A828B83A3A3A3A3A3E0FEA319
:102ED300E0FF8C828D83E02EF0A3E03FF07E028C36
:102EE300828D83E088828983F08C828D83A3AC8278
:102EF300AD8388828983A3A882A9831EEE70E0EA4A
:102F03002483F582EB3400F583E0601A75081875A5
:102F1300090878081218BC7C087903120B43740261
:102F230012164F75080C74012508F5D975D9037568
:102F33008218758308AE08E0F5D9A31EEE70F87504
:102F4300E1957904120C9F79018002790002338D97
:102F530074F71216A9EAFEEBFF9061D0E06003025A
:102F6300304A75D91875D90375D903EEF8EFF9E826
:102F73002408FAE93400FBE8249CF582E93400F5DF
:102F830083E0F5D988828983A3A882A983EA68703C
:102F930002EB6970E2EEF8EFF9E82402FAE9340093
:102FA300FBE824A4F582E93400F583E0F5D98882AF
:102FB3008983A3A882A983EA687002EB6970E2EEB1
:102FC3002494F582EF3400F583E5822408F8E58341
:102FD3003400F9E0F5D9A3E865827003E9658370ED
:102FE300F2EE2488F582EF3400F583E5822404F8B9
:102FF300E5833400F9E0F5D9A3E865827003E96558
:103003008370F275E1957908EE2494FAEF3400FBAE
:10301300120AF57904EE2488FAEF3400FB120AF55C
:103023007904120C9FEE2470F582EF3400F583E0EF
:10303300F8A3E0F9EE2472F582EF3400F583E8F0AB
:10304300A3E9F07901800279000231AB74F612161C
:10305300A9EAFEEBFF9008187406F07508187509C5
:103063000878081218BC7C017903120B437402120E
:10307300164F75D90675D903758218758308E0F55F
:10308300D9A3E582641D7004E583640870F075E1DB
:1030930095900499E06408701EEE2470F582EF3475
:1030A30000F583E0F8A3E0F9EE2472F582EF340033
:1030B300F583E8F0A3E9F0790102338D74F6121673
:1030C300A9EAFEEBFF9061D0E0705E900818740AE5
:1030D300F075081875090878081218BC7C01790383
:1030E300120B43740212164F75D90675D9037582F4
:1030F30018758308E0F5D9A3E582641D7004E583A0
:10310300640870F075E195EE2470F582EF3400F5F4
:1031130083E0F8A3E0F9EE2472F582EF3400F5833F
:10312300E8F0A3E9F079018002790002338D74F6A7
:103133001216A9EAFEEBFF9061D0E0706678019069
:103143000818740BF0900499E06407701975081857
:1031530075090878081218BC7C017903120B4374B3
:103163000212164F7805740128F5D975D9037582B3
:1031730018758308E8FAE0F5D9A31AEA70F875E13F
:1031830095EE2470F582EF3400F583E0F8A3E0F9BF
:10319300EE2472F582EF3400F583E8F0A3E9F079C9
:1031A300018002790002338D7F0102177B74F612CE
:1031B30016A9EAFEEBFF9061D0E0F87480C398FA99
:1031C300EE2483F582EF3400F583E0600478048015
:1031D300027800E8240BF8EAC39850030232867D94
:1031E300099008187408F0EE24E5F8EF3400F97A32
:1031F300197B087C0888828983E08A828B83F08824
:10320300828983A3A882A9838A828B83A3AA82ABA0
:10321300831CEC70E0EE2483F582EF3400F583E049
:10322300601D75081875090878081218BC7C09799F
:1032330003EEFAEFFB120B43740212164F7D0D746B
:10324300012DF5D975D9037582187583088D08E0AA
:10325300F5D9A31508E50870F675E1957904120C04
:103263009FEE2470F582EF3400F583E0F8A3E0F9D4
:10327300EE2472F582EF3400F583E8F0A3E9F079E8
:10328300018002790002338D74F61216A9EAFEEB6F
:10329300FF9061D0E0F87480C398FAEE2483F5823E
:1032A300EF3400F583E06004780480027800E824BA
:1032B30008F8EAC398500302338B7D06900818740C
:1032C3000CF09004B6E0900819F07AB77B04781AF2
:1032D30079087C028A828B83E088828983F08A82E0
:1032E3008B83A3AA82AB8388828983A3A882A983C1
:1032F3001CEC70E07AB97B047C028A828B83E088C1
:10330300828983F08A828B83A3AA82AB8388828992
:1033130083A3A882A9831CEC70E0EE2483F582EFDB
:103323003400F583E0601D750818750908780812E4
:1033330018BC7C067903EEFAEFFB120B43740212FE
:10334300164F7D0A74012DF5D975D9037582187549
:1033530083088D08E0F5D9A31508E50870F675E133
:10336300957904120C9FEE2470F582EF3400F583F7
:10337300E0F8A3E0F9EE2472F582EF3400F583E878
:10338300F0A3E9F07901800279007F0202177B74D0
:10339300F61216A9EAFEEBFF9061D0E0F87480C341
:1033A30098FAEE2483F582EF3400F583E060047825
:1033B3000480027800E82404F8EAC3985003023436
:1033C3006C7802900818E8F0EE24F7F582EF3400E9
:1033D300F583E0900819F0EE2483F582EF3400F5CD
:1033E30083E0601B75081875090878081218BC7CFF
:1033F300027903EEFA120B43740212164F78067425
:103403000128F5D975D9037582187583088808E0F2
:10341300F5D9A31508E50870F675E195EE2474F562
:1034230082EF3400F583E4F0EE2480F582EF34007C
:10343300F583E4F0EE241DF582EF3400F583E4F028
:10344300A3F07904120C9FEE240DF582EF3400F5FE
:1034530083E0F8A3E0F9EE2472F582EF3400F583FC
:10346300E8F0A3E9F079018002790002338D74F664
:103473001216A99061D0E0F87480C398FCEA248303
:10348300F582EB3400F583E0600478048002780071
:10349300E82404F8ECC398405B7902900818740799
:1034A300F0EA24F8F582EB3400F583E0900819F094
:1034B300EA2483F582EB3400F583E060187508187D
:1034C30075090878081218BC7C0209120B437402B0
:1034D30012164F7906740129F5D975D90375821827
:1034E300758308E9F8E0F5D9A318E870F875E19554
:1034F30079018002790002338D74F51216A9E9FC73
:10350300A2AFE433F50AC2AF7D0080010DEA246F58
:10351300F582EB3400F583E0F8EDC398501A8D087B
:10352300EA2508F8EB3400F9E8246BF582E9340066
:10353300F583E06C70D68024EA246FF8EB3400F94D
:10354300E0FEEA2EFAEB3400FBEA246BF582EB345F
:1035530000F583ECF088828983E004F0E50AA2E0B9
:1035630092AF7F0302177B74F61216A9A2AFE4335E
:10357300FDC2AFEA246FF582EB3400F583E014F06B
:103583007C0060368C08EA2508F8EB3400F9E8245F
:103593006CF582E93400F583E0C0E0E8246BF58242
:1035A300E93400F583D0E0F00CEA246FF582EB34C4
:1035B30000F583E0F8ECC39840CAEA246EF582EB89
:1035C3003400F58374FFF0EA246AF582EB3400F5E6
:1035D30083E4F0EDA2E092AF02338DC082C083E5B5
:1035E300A8F8C2AFEA246BF582EB3400F583E9F067
:1035F300EA246AF582EB3400F583E4F0E8A2E7926B
:10360300AF02278E74F31216A9EAFEEBFFECFAED74
:10361300FB8A828B83A3A3A3A3E0541FF0EE24367B
:10362300F582EF3400F583E4F0F50AEEFCEFFD8A52
:10363300828B83E0C0E0EC245DF582ED3400F583FA
:10364300D0E0F0750B00E50A33333354F8F50C8AF8
:10365300828B83E0F508750900E50B7808121607DD
:10366300E508A2E0502FEE2436F8EF3400F9888203
:103673008983E0F508EE2508F508EF3400F509E540
:10368300082438F582E5093400F583E50CF08882D7
:103693008983E004F0050B050CE50BC3940840AFE8
:1036A300050A8A828B83A3AA82AB838C828D83A330
:1036B300AC82AD83E50AC3940550030236327F051D
:1036C30002177B74F71216A99004C5E06403700710
:1036D3007A007B000231AB7B0078C579048882894C
:1036E30083A3A3A3A3A3A3E060030239C0EBF875EC
:1036F300F006A4C8AAF02AF974C928F8740439F9A1
:1037030088828983A3A37401F088828983A3A3A3F6
:10371300E4F0EB88828983A3A3A3A3F0E82462F5F2
:1037230082E93400F5837401F0E82465F582E93415
:1037330000F583E4F0A3F0E82468F582E93400F5AA
:10374300837401F088828983A3A3A3A3A3E4F0A3D2
:10375300F088828983A3A3A3A3A3A3A3F0A3F0E880
:10376300240FF582E93400F5837401F0E82435F57C
:1037730082E93400F583E4F090819A12150FE8246E
:1037830018F582E93400F58312151BE8241CF58231
:10379300E93400F583E4F0E8241DF582E93400F50B
:1037A30083E4F0A3F0E82480F582E93400F583E4B0
:1037B300F0E82474F582E93400F583E4F0E8246941
:1037C300F582E93400F5837480F0E8246AF582E930
:1037D3003400F583E4F0E8246FF582E93400F583DF
:1037E300E4F0E82467F582E93400F583E4F0E824A3
:1037F300EDF582E93400F583E4F0E824EEF582E99F
:103803003400F583E4F0E824EFF582E93400F5832E
:10381300E4F0E824F0F582E93400F583E4F0E824E9
:10382300F1F582E93400F583E4F0A3F0E824F3F53D
:1038330082E93400F583E4F0A3F0E824F6F582E9A5
:103843003400F583E4F0E82483F582E93400F5835A
:10385300E4F0E824D3F582E93400F583E4F0E824C6
:10386300D4F582E93400F583E4F090819A12150FC0
:10387300E824D5F582E93400F58312151B90819A6B
:1038830012150FE824D9F582E93400F58312151BCC
:10389300E824DFF582E93400F583E4F0E824E1F578
:1038A30082E93400F583E4F0E824DDF582E93400AD
:1038B300F583E4F0E824E2F582E93400F583E4F0EB
:1038C300E824E3F582E93400F583E4F0E824F9F52C
:1038D30082E93400F583E4F0A3F0E824FBF582E900
:1038E3003400F583E4F0A3F0E824FDF582E9340025
:1038F300F583E4F0A3F0E824FFF582E93400F583CF
:10390300E4F0A3F0E8FAE9FBEA2404FCEB3400FD5D
:10391300EA246BF582EB3400F58374FFF08A828B23
:1039230083A3AA82AB83EC6A7002ED6B70E2E8FAC0
:10393300E9FB7CE27D078C828D83E0C0E0EA245DB5
:10394300F582EB3400F583D0E0F08C828D83A3AC59
:1039530082AD838A828B83A3AA82AB83EC64E770F4
:1039630003ED640770D0E8FAE9FB7CAC7D048C823C
:103973008D83A3E0C0E0EA24E5F582EB3400F58310
:10398300D0E0F08C828D83A3AC82AD838A828B835B
:10399300A3AA82AB83EC64B47003ED640470CF908C
:1039A30004C5E004F06401700D88828983A3A3A396
:1039B300A3E09004C7F0E8FAE9FB0236D70BE8244A
:1039C30006F8E93401F9EBC3940340030236D3024A
:1039D30036E0C082C0838A828B83A3A3A3E0600FF7
:1039E3008A828B83A3A3A3E4F09004C6E014F0902F
:1039F30004C5E014F070069004C774FFF08A828B4C
:103A030083A3A3E4F09007E7E0700D9004C6E0649D
:103A13000170057900120C6902278EC082C0837879
:103A2300C5790488828983A3A3A3A3A3A3A3E4F0F2
:103A330088828983A3A3A3A3A3A3F0E82406F8E9B8
:103A43003401F9E864D77003E9640770D69004C5BC
:103A5300E4F0A3F0A374FFF075E1F102278E74F391
:103A63001216A9750800750900750C00750AC97549
:103A73000B04AE0AAF0B8E828F83A3A3A3E0603F38
:103A8300E5084509700AEEF8EFF988088909802FDF
:103A9300850882850983E0F8A3E0F5838882A3A3E0
:103AA3001218CF8E828F83E0F8A3E0F5838882A378
:103AB300A312150F1221B8740412164FE960C7053B
:103AC3000CEE2406F50AEF3401F50BE50CC3940361
:103AD30040A0850882850983A3A3A3A3E0F9023646
:103AE300C174F61216A978FF79FF7508007EC97FA5
:103AF30004EEFCEFFD8C828D83A3A3A3E0606474CA
:103B0300FF68700374FF697025EC2474F582ED344B
:103B130000F583E064017011EC247AF582ED340042
:103B2300F583E0F8A3E0F9803AEC242E80EDEC2451
:103B330074F582ED3400F583E064017014EC247AAB
:103B4300F582ED3400F583C3E098A3E09950148027
:103B5300C7EC242EF582ED3400F583C3E098A3E08F
:103B63009940C60508EE2406FEEF3401FFE508C3BD
:103B730094035003023AF4C3EA98EB994004E8FA39
:103B8300E9FB02338D74F61216A9EAFEEBFF8E826F
:103B93008F83A3A3A3E0600F8E828F83A3A3A3E4E9
:103BA300F09004C6E014F09004C5E014F0700690A1
:103BB30004C774FFF08E828F83A3A3E4F09007E71A
:103BC300E0700D9004C6E0640170057900120C6981
:103BD300EE2465F582EF3400F583E0F8A3E0F9E81D
:103BE300496029EE2465F8EF3400F98808890988CB
:103BF30082F583E0FCA3E0FD9004C7E0FA7B0012AA
:103C03000813850882850983E4F0A3F0EEFAEFFB3D
:103C1300120BC102338D74F71216A9EAFEEBFF8E65
:103C2300828F83A3A3A3A3E0FA7B0012085BEEFABF
:103C3300EFFB120AB3120BA30231ABC082C0837C29
:103C4300007AC97B04EAF8EBF988828983A3A3A3EA
:103C5300E0601EE8246FF582E93400F583E060112B
:103C6300E8246BF582E93400F583E0700479018080
:103C7300110CEA2406FAEB3401FBECC3940340C5B0
:103C8300790002278EC082C08378AC790488828948
:103C930083A3E4F088828983A3A882A983E864B418
:103CA3007003E9640470E69004AD740102274FC009
:103CB30082C08374FC12163990819A12150F8518ED
:103CC3008285198312151B120AFBE985188285194F
:103CD30083F0120AFB7401121685E9F0120AFB74D1
:103CE30002121685E9F085188285198312150F745F
:103CF3000402253E74F61216A9EAFEEBFFEC240338
:103D0300F8ED3400F988088909EC2407F8ED34004C
:103D1300F9E8FCE9FD8C828D83E0F8A3E0F98508DE
:103D230082850983E0FAA3E0FB1215AEEE240DF5BC
:103D330082EF3400F583E8F0A3E9F08C828D83E011
:103D4300F8A3E0F9850882850983E0FAA3E0FB1272
:103D530015AE8B09EA45096013EE240DF582EF34A5
:103D630000F583E02401F0A3E03400F002338D7406
:103D7300F61216A9EAFEEBFFEE242EF582EF3400CD
:103D8300F583E0FCA3E0FD780079FAECFAEDFB1291
:103D930015AEEE2470F582EF3400F583E8F0A3E965
:103DA300F0780079FAECFAEDFB1215AE8B09EA45CF
:103DB300096013EE2470F582EF3400F583E02401EB
:103DC300F0A3E03400F002338D74F01216A9EAFE7A
:103DD300EBFF741012168578081214F1120C338A53
:103DE3000C8B0D8C0E8D0F908136780C121457901E
:103DF300817A780C1214B8780C1218B88E828F83DB
:103E0300E0F8A3E0F5838882A3A312150F1221B86B
:103E1300740412164FE96003023F198E828F83E008
:103E23002402F8A3E03400F9E8FAE9FB8A828B83E1
:103E3300780812146A90817A78081214F18A828BB6
:103E43008378081214CBEE240BF582EF3400F5834C
:103E5300C082C0838E828F83A3A3A3A3A3E0240184
:103E6300F8A3E03400F9D083D082E0687003A3E0C4
:103E73006970057901023F1B8E828F83A3A3A3A3DD
:103E8300A3A3A3E02401F0A3E03400F0EE2474F52F
:103E930082EF3400F583E064017036EE2475F58219
:103EA300EF3400F583E0F8A3E0F98E828F83A3A3B8
:103EB300A3A3A3A3A3E0687003A3E0697013EE2494
:103EC30075F582EF3400F583E02401F0A3E03400BC
:103ED300F0EE2480F582EF3400F583E06401703660
:103EE300EE2481F582EF3400F583E0F8A3E0F98E48
:103EF300828F83A3A3A3A3A3A3A3E0687003A3E078
:103F0300697013EE2481F582EF3400F583E0240118
:103F1300F0A3E03400F079007F0802177B74F712F6
:103F230016A99004C7E0F875F006A4C8AAF02AF908
:103F330074C928FE740439FF8028EE2465F8EF3431
:103F430000F988828983E0FCA3E0FD88828983E409
:103F5300F0A3F08E828F83A3A3A3A3E0FA7B0012C6
:103F63000813EE2465F582EF3400F583E0F8A3E04F
:103F7300F9E849604FEE2464F582EF3400F583E0FD
:103F8300F50878081218C0EE2463F582EF3400F5C3
:103F930083E0F9EE2465F582EF3400F583E0FCA3BA
:103FA300E0FDEEFAEFFB120AE9740112164FE96025
:103FB30089EE2465F582EF3400F583E0F8A3E0F998
:103FC300E84970137C007D008E828F83A3A3A3A393
:103FD300E0FA7B001208130231AB74F21216A9EA5D
:103FE300FEEBFF890A740E121685E0FAEE2462F5E1
:103FF30082EF3400F583E0640160030240A990611D
:10400300D0E0F87480C398F50CEE2483F582EF3486
:1040130000F583E060047804800278008908E928C9
:10402300F8E43400F9E824020808E93400F9E50C5F
:1040330098E499A2D265D0334068EA7005750B0203
:104043008003750B01E0603975090078081218BC0C
:104053007A187B08120B25740212164F750818750F
:10406300090878081218BCAC0AA90BEEFAEFFB1288
:104073000B43740212164F7404250AF50A7C187D4B
:10408300087401250AF5D9850BD9E50A600D8C82E0
:104093008D83F8E0F5D9A318E870F875E1957900F8
:1040A30080067907800279FF7F0602177BC082C0F2
:1040B30083E960208C828D83E08A828B83F08C82FB
:1040C3008D83A3AC82AD838A828B83A3AA82AB83C5
:1040D30019E970E0ECFAEDFB02278EC082C0837809
:1040E30069790888828983A3A3A3A3A3A3E4F0889F
:1040F300828983A3A3A3A3A374FFF0E82418F8E998
:104103003400F9E864C97003E9640870D690086B59
:1041130074FFF090086AE4F0900869F090086CF07E
:10412300A3F002580674EC1216A990086CE0F50887
:10413300A3E0F509E508450970061209FF024DD50C
:10414300850882850983E014601814601524FE60D5
:104153001124C4700302489724C0700302489702D5
:104163004DD5E0F9120BB58A0A8B0BAE0AAF0B9053
:1041730004C6E07003024515120AA7E9F875F006B4
:10418300A4C8AAF02AF974C928F50C740439F50DEA
:10419300850C82F583E0F50AA3E0F50BAC0AFDEE8E
:1041A300FAEFFB120BAFE9F50E7402650E70030212
:1041B30044D48E828F83E024FE600A24FE700302BF
:1041C30043CC024DD5EE65087003EF6509602112FB
:1041D3000A1D9007F9E0640170169007F8E070106B
:1041E3007901120CD5120CA5120CCF7900120CDB3D
:1041F300E50E6021E5082415F582E5093400F58311
:10420300E060129007F4E0F8A3E0F9A3E06870031C
:10421300A3E0697026120C338A0C8B0D8C0E8D0F64
:1042230090814A780C12145790817A780C1214B842
:104233008E828F83A3A3780C121500E5082415F54D
:1042430082E5093400F583E0640160030242F285EC
:104253000A82850B83A3A3780C1214F190814E7804
:104263000C121457780C1218B88E828F83A3A3C034
:1042730082C0839007F6E0F508A3E085080CF50DEE
:10428300E4F50EF50FD083D082780C121457AA0CE4
:10429300AB0DAC0EAD0F1221B8740412164FE970BA
:1042A3003C8E828F83A3A3C082C0839007F6E0F580
:1042B30008A3E0F509E4F50AF50BD083D08278086A
:1042C30012145790817A78081214B8EE240EF582EE
:1042D300EF3400F58378081215000243C4850A827F
:1042E300850B83A3A378081214F190814E80CFEE3F
:1042F300240EF582EF3400F5831218CF8E828F835C
:10430300A3A312150F1221B8740412164FE9640106
:1043130060030243C4850A82850B83A3A3780C122E
:1043230014F190814E780C121457780C1218B88E31
:10433300828F83A3A3C082C0839007F6E0F508A30E
:10434300E085080CF50DE4F50EF50FD083D08278E7
:104353000C121457AA0CAB0DAC0EAD0F1221B8748E
:104363000412164FE9701F8E828F83A3A3C082C0ED
:10437300839007F6E0F508A3E0F509E4F50AF50BE9
:10438300D083D0828010850A82850B83A3A378080B
:104393001214F190814E780812145790817A78089C
:1043A3001214B8EE240EF582EF3400F58378081268
:1043B30015009007FCE06427700474258002E00474
:1043C300F090086B7402024DCDEE65087003EF6543
:1043D300096031900810E0F9120A238508828509E3
:1043E30083E06402701E9007F9E064017016900781
:1043F300F8E070107900120CD5120CA5120CCF79CD
:1044030001120CDBE50E601290080AE0F8A3E0F954
:10441300A3E0687003A3E0697026120C338A0C8B47
:104423000D8C0E8D0F90814A780C12145790817A5F
:10443300780C1214B88E828F83A3A3780C12150004
:10444300850A82850B83A3A3780C1214F190814E05
:10445300780C121457780C1218B88E828F83A3A38A
:10446300C082C08390080CE0F508A3E085080CF532
:104473000DE4F50EF50FD083D082780C121457AAF1
:104483000CAB0DAC0EAD0F1221B8740412164FE92C
:10449300701F8E828F83A3A3C082C08390080CE019
:1044A300F508A3E0F509E4F50AF50BD083D0828083
:1044B30010850A82850B83A3A378081214F19081D7
:1044C3004E780812145790817A78081214B8024D66
:1044D300B6850882850983E0640270139007F9E0CA
:1044E3006401700B9007F8E070057900120CD5E5B4
:1044F3000C2404FEE50D3400FF8E828F83E0F91255
:104503000BEB8E828F83E09004C7F0AA0AAB0B02F9
:104513004DD2EE65087003EF65098E828F836003C9
:104523000246F9E024FE600A24FE700302465402A8
:104533004DCEEE2415F582EF3400F583E060419013
:1045430007F4E0F8A3E0F9A3E0687003A3E069606F
:104553002F120C338A088B098C0A8D0B90819E785D
:104563000812145778081218B88E828F83A3A312E7
:10457300150F1221B8740412164FE96003024DCED1
:10458300120C338A088B098C0A8D0B90814A7808A8
:1045930012145790817A78081214B88E828F83A3ED
:1045A300A37808121500EE2415F582EF3400F58385
:1045B300E0640170348E828F83A3A3C082C0839092
:1045C30007F6E0F508A3E0F509E4F50AF50BD08357
:1045D300D0827808121457EE240EF582EF3400F5DA
:1045E300837808121500024DCEEE240EF582EF34C7
:1045F30000F5831218CF8E828F83A3A312150F1297
:1046030021B8740412164FE964016003024DCE8E83
:10461300828F83A3A3C082C0839007F6E0F508A32B
:10462300E0F509E4F50AF50BD083D082780812147B
:1046330057EE240EF582EF3400F583780812150047
:104643009007FCE0642770057425024DCDE00480DB
:10465300F990080AE0F8A3E0F9A3E0687003A3E087
:1046630069602C120C338A088B098C0A8D0B90819C
:104673009E780812145778081218B88E828F83A375
:10468300A312150F1221B8740412164FE97064EEC9
:104693002402F508EF3400F509120C338A0C8B0D54
:1046A3008C0E8D0F90814A780C12145790817A7872
:1046B3000C1214B8850882850983780C12150085BD
:1046C3000882850983C082C08390080CE0F508A3A3
:1046D300E0F509E4F50AF50BD083D08278081214CB
:1046E30057EE240EF582EF3400F583780812150097
:1046F300120A29024DCEE024FE600A24FE70030252
:1047030047BF024DD5120A1D9007F9E064017016E8
:104713009007F8E070107901120CD5120CA5120C59
:10472300CF7900120CDB9007F4E0F8A3E0F9A3E0E3
:10473300687003A3E069602F120C338A088B098C1D
:104743000A8D0B90819E780812145778081218B8B6
:104753008E828F83A3A312150F1221B8740412162D
:104763004FE960030243C4EE2402F508EF3400F579
:1047730009120C338A0C8B0D8C0E8D0F90814A78A5
:104783000C12145790817A780C1214B8850882851C
:104793000983780C121500850882850983C082C0BD
:1047A300839007F6E0F508A3E0F509E4F50AF50BB5
:1047B300D083D08278081214570242CE900810E0BA
:1047C300F9120A23850882850983E06402701E902A
:1047D30007F9E0640170169007F8E0701079001291
:1047E3000CD5120CA5120CCF7901120CDB90080A20
:1047F300E0F8A3E0F9A3E0687003A3E069602C127A
:104803000C338A088B098C0A8D0B90819E780812D1
:10481300145778081218B88E828F83A3A312150F2A
:104823001221B8740412164FE97066EE2402F8EFF1
:104833003400F988088909120C338A0C8B0D8C0E0D
:104843008D0F90814A780C12145790817A780C124C
:1048530014B8850882850983780C121500850882AF
:10486300850983C082C08390080CE0F508A3E0F5B6
:1048730009E4F50AF50BD083D0827808121457EEB9
:10488300240EF582EF3400F5837808121500120A1E
:1048930029024DC89004C6E07003024C2D120AA7EA
:1048A300E9F875F006A4C8AAF02AF974C928F51026
:1048B300740439F511851082F583E0F508A3E0F55A
:1048C300099004C7E0F875F006A4C8AAF02AF974A1
:1048D300C928F50C740439F50D90086AE054077083
:1048E30003024B56A3E0F9120BB58A0A8B0BAE0AEF
:1048F300AF0BAC08AD09120BAFE9F50E7402650EF0
:104903007003024B56850C82850D83A3A3A3A3E0FA
:10491300F875F08AA4C8AAF02AF974CE28F50A74A7
:104923000839F50BAA0AFB120BDFAA0AAB0B120B11
:10493300D975128075130078121218BC7C007D6043
:10494300E50A2406FAE50B3401FB120B2574021267
:10495300164FA80AA90B906195E0C0E0E82486F5FC
:1049630082E93401F583D0E0F0906196E0C0E0E89D
:104973002487F582E93401F583D0E0F0906197E074
:10498300C0E0E82488F582E93401F583D0E0F090B3
:104993006198E0C0E0E82489F582E93401F583D029
:1049A300E0F08E828F83E024FE600A24FE7003020F
:1049B3004A91024B56120A1D9007F9E064017011E7
:1049C3009007F8E0700B120CA5120CCF7900120CB3
:1049D300DBE50E60129007F4E0F8A3E0F9A3E068CA
:1049E3007003A3E0697026120C338A0C8B0D8C0EB6
:1049F3008D0F90814A780C12145790817A780C129B
:104A030014B88E828F83A3A3780C121500850882B5
:104A1300850983A3A3780C1214F190814E780C12AC
:104A23001457780C1218B88E828F83A3A3C082C048
:104A3300839007F6E0F50CA3E0F50DE4F50EF50F12
:104A4300D083D082780C121457AA0CAB0DAC0EADE8
:104A53000F1221B8740412164FE9701F8E828F83D0
:104A6300A3A3C082C0839007F6E0F508A3E0F5098D
:104A7300E4F50AF50BD083D082801085088285097E
:104A830083A3A378081214F190814E0242C19008C7
:104A930010E0F9120A23E50E601290080AE0F8A369
:104AA300E0F9A3E0687003A3E0697026120C338A6F
:104AB3000C8B0D8C0E8D0F90814A780C121457902D
:104AC300817A780C1214B88E828F83A3A3780C1288
:104AD3001500850882850983A3A3780C1214F1902D
:104AE300814E780C121457780C1218B88E828F836B
:104AF300A3A3C082C08390080CE0F50CA3E0F50DDE
:104B0300E4F50EF50FD083D082780C121457AA0C5B
:104B1300AB0DAC0EAD0F1221B8740412164FE97031
:104B23001F8E828F83A3A3C082C08390080CE0F5FD
:104B330008A3E0F509E4F50AF50BD083D0828010D1
:104B4300850882850983A3A378081214F190814E06
:104B53000244C4E510650C7004E511650D70030291
:104B63004C26850C82850D83A3A3A3E07003024C1E
:104B73000A850C82850D83A3A3A3A3E0F875F08AAD
:104B8300A4C8AAF02AF974CE28FE740839FFEEFAF5
:104B9300EFFB120BDFEEFAEFFB120BD9750A8075F0
:104BA3000B00780A1218BC7C007D60EE2406FAEF35
:104BB3003401FB120B25740212164F906195E0C06D
:104BC300E0EE2486F582EF3401F583D0E0F09061C6
:104BD30096E0C0E0EE2487F582EF3401F583D0E060
:104BE300F0906197E0C0E0EE2488F582EF3401F5A0
:104BF30083D0E0F0906198E0C0E0EE2489F582EF85
:104C03003401F583D0E0F0E5102404FEE51134000F
:104C1300FF8E828F83E0F9120BEB8E828F83E090FD
:104C230004C7F0AA08AB09024DD290086AE0540702
:104C33007003024DD5A3E0F9120BB58A088B09AEB8
:104C430008AF098E828F83E024FE600A24FE70037E
:104C5300024D1C024DD5120A1D9007F9E064017044
:104C6300169007F8E070107901120CD5120CA512FA
:104C73000CCF7900120CDB9007F4E0F8A3E0F9A362
:104C8300E0687003A3E069602C120C338A088B0977
:104C93008C0A8D0B90819E7808121457780812188D
:104CA300B88E828F83A3A312150F1221B874041236
:104CB300164FE97061EE2402F508EF3400F509128E
:104CC3000C338A0C8B0D8C0E8D0F90814A780C124D
:104CD300145790817A780C1214B885088285098359
:104CE300780C121500850882850983C082C08390E1
:104CF30007F6E0F508A3E0F509E4F50AF50BD08320
:104D0300D0827808121457EE240EF582EF3400F5A2
:104D13008378081215000243C4900810E0F9120AC0
:104D23002390080AE0F8A3E0F9A3E0687003A3E086
:104D330069602C120C338A088B098C0A8D0B9081C5
:104D43009E780812145778081218B88E828F83A39E
:104D5300A312150F1221B8740412164FE97063EEF3
:104D63002402F8EF3400F988088909120C338A0CFD
:104D73008B0D8C0E8D0F90814A780C1214579081F5
:104D83007A780C1214B8850882850983780C121579
:104D930000850882850983C082C08390080CE0F5F2
:104DA30008A3E0F509E4F50AF50BD083D08278086F
:104DB300121457EE240EF582EF3400F583780812AF
:104DC3001500120A2990086B7404F0EEFAEFFB1237
:104DD3000BA97F0C02177B74F01216A9EAFEEBFFF6
:104DE300EE2402F8EF3400F988088909EE2406F866
:104DF300EF3400F9880A890B8882F5831218D3856A
:104E0300088285098312150F120C0F740212164FB4
:104E1300850A82850B831218D3850882850983123C
:104E2300150F120C03740212164FEE240EF582EFC7
:104E33003400F58312150F120C158E828F83E064F4
:104E430040701CEE2412F8EF3400F988828983E065
:104E5300906064F088828983A3E090606580069007
:104E63006064E4F0A3F090086CEEF0A3EFF0EE249E
:104E730016F582EF3400F583E0F8A3E0F58388822A
:104E83001216A7906054E4F0A3F0A3F0A3F0A3F0EC
:104E9300A3F0A3F0A3F0A3F0A3F0A3F0A3F0906119
:104EA30082E0C2E6F07591BFEE2415F582EF34007F
:104EB300F583E064017003120C4BE5E170FCEE2412
:104EC30014F582EF3400F583E0F46003E0F5E1EEDE
:104ED3002415F582EF3400F5837401F090049FE00C
:104EE3006401706F120C338A088B098C0A8D0B785E
:104EF300081218B88E828F83A3A312150F122215DE
:104F0300740412164F8A088B098C0A8D0B908152F8
:104F1300780C1214F17808790C12131D74037808B5
:104F230012140CE50824F4F508E5093401F5099099
:104F33000816E06003121185E4F50AF50B780812F0
:104F430018B87A207B00900498E0F91212337404A5
:104F530012164F7F0802177B74EC1216A9EAFEEBB8
:104F6300FF8C088D09EE4F70057902025050120C28
:104F7300338A0C8B0D8C0E8D0F908196780C121446
:104F83005790817A780C1214B88E828F83E0640272
:104F9300701F9007F4E0F8A3E0F9A3E0687003A39F
:104FA300E06970248E828F83A3A3780C121500808E
:104FB30017E06404701290080AE0F8A3E0F9A3E094
:104FC300687003A3E06960DC780C1218B885088266
:104FD300850983A3A312150F122215740412164F09
:104FE3008A108B118C128D1390815678101212FE39
:104FF3004003024F6C850882850983A3A3780812B6
:1050030014F19081CA780812145778081218B88ED0
:10501300828F83A3A312150F1221B8740412164FA3
:10502300E96003024F6C90815A780C121457780C84
:105033001218B88E828F83A3A312150F1221B8748E
:105043000412164FE97004790080027901024DD5EC
:1050530074F01216A9890874FF650860030251DF12
:1050630090086AE0540770030256AB7A00786979B6
:105073000888828983A3A3A3A3A3E064047050EAEE
:1050830075F018A4F8A9F0746F28F582740839F53F
:1050930083E0640170487A0078697908888289839B
:1050A300A3A3A3A3A3E06404600302513788828906
:1050B30083A3A3A3A3A3A3E064017078EA75F01804
:1050C300A4F8A9F0746E28FA740839FB0256AF0AE3
:1050D300E82418F8E93400F9EAC3940440937A0009
:1050E3007869790888828983A3A3A3A3A3E06401D1
:1050F3007057EA75F018A4F8A9F0746F28F5827454
:105103000839F583E06401704F7A0078697908887B
:10511300828983A3A3A3A3A3E0640160030251BB19
:1051230088828983A3A3A3A3A3A3E06401600302EA
:1051330051BB80880AE82418F8E93400F9EAC394DB
:1051430004500302509F0256AB0AE82418F8E934CE
:1051530000F9EAC39404408C7A007869790888825C
:105163008983A3A3A3A3A3E064027061EA75F01883
:10517300A4F8A9F0746F28F582740839F583E06404
:105183000170597A007869790888828983A3A3A377
:10519300A3A3E06402707A88828983A3A3A3A3A351
:1051A300A3E06401706BEA75F018A4F8A9F0746EBB
:1051B30028FA740839FB806F0AE82418F8E93400E8
:1051C300F9EAC3940450030251120256AB0AE824CD
:1051D30018F8E93400F9EAC3940440827A00786944
:1051E300790888828983A3A3A3A3A3E06508703DFC
:1051F30088828983A3A3A3A3A3A3E06401702EEAF7
:1052030075F018A4F8A9F0746E28FE740839FF80AD
:105213002F0AE82418F8E93400F9EAC39404500388
:1052230002518C7A007B000256AF0256AB0AE82487
:1052330018F8E93400F9EAC3940440A67E007F001D
:105243007A007869790888828983A3A3A3A3A3E05A
:105253006508701BEA75F018A4F8A9F0746F28F5B7
:1052630082740839F583E0640170137A0180110AAE
:10527300E82418F8E93400F9EAC3940440C87A0032
:10528300E50814600F14700302544824FE700302EF
:1052930055A280967B007869790888828983A3A3C5
:1052A300A3A3A3E064027055EB75F018A4F8A9F06A
:1052B300746F28F582740839F583E06401704D7BBF
:1052C300007869790888828983A3A3A3A3A3E064F0
:1052D30002600302537E88828983A3A3A3A3A3A3AB
:1052E300E06401600302537EEB75F018A4F8A9F0A3
:1052F300746E28F50A740839F50B0253960BE824EB
:1053030018F8E93400F9EBC39404408E7B00786904
:10531300790888828983A3A3A3A3A3E06404600319
:105323000253D2EB75F018A4F8A9F0746F28F58234
:10533300740839F583E0640160030253E47B007869
:1053430069790888828983A3A3A3A3A3E064046083
:10535300030253EF88828983A3A3A3A3A3A3E064D7
:105363000160030253EFEB75F018A4F8A9F0746E13
:1053730028F50A740839F50B0254070BE82418F8CA
:10538300E93400F9EBC3940450030252C8750A00D0
:10539300750B00EAA2E0400302543A850A82850BAA
:1053A30083A3A3780C1214F190815E780C12145726
:1053B300780C1218B88E828F83A3A312150F1221B3
:1053C300B8740412164FE9706EEEFAEF0250CE0B6A
:1053D300E82418F8E93400F9EBC3940450030253AA
:1053E30015EAA2E05058EEFAEFFB80560BE82418BA
:1053F300F8E93400F9EBC394045003025346750AE9
:1054030000750B00EAA2E0502E850A82850B83A368
:10541300A3780C1214F190815E780C121457780C57
:105423001218B88E828F83A3A312150F1221B8749A
:105433000412164FE96092AA0AAB0B0256AF7A0028
:105443007B000256AF7B007869790888828983A341
:10545300A3A3A3A3E064047052EB75F018A4F8A906
:10546300F0746F28F582740839F583E06401704A9B
:105473007B007869790888828983A3A3A3A3A3E027
:105483006404600302551688828983A3A3A3A3A39C
:10549300A3E06401707DEB75F018A4F8A9F0746EB5
:1054A30028F50A740839F50B02552E0BE82418F871
:1054B300E93400F9EBC3940440917B0078697908DF
:1054C30088828983A3A3A3A3A3E064016003025595
:1054D3006AEB75F018A4F8A9F0746F28F5827408C4
:1054E30039F583E06401600302557C7B00786979B8
:1054F3000888828983A3A3A3A3A3E06401600302B2
:10550300558788828983A3A3A3A3A3A3E06401701F
:105513007380830BE82418F8E93400F9EBC394048F
:105523005003025479750A00750B00EAA2E04003A8
:1055330002543A850A82850B83A3A3780C1214F1D3
:1055430090815E780C121457780C1218B88E828FE3
:1055530083A3A312150F1221B8740412164FE96026
:105563000302543A0253CC0BE82418F8E93400F947
:10557300EBC3940450030254C3EAA2E0501AEEFAB8
:10558300EFFB80180BE82418F8E93400F9EBC39417
:105593000450030254F4808D7A007B000256AF7BE3
:1055A300007869790888828983A3A3A3A3A3E0640D
:1055B300017040EB75F018A4F8A9F0746F28F58218
:1055C300740839F583E0640170387B0078697908E1
:1055D30088828983A3A3A3A3A3E064016003025683
:1055E3006788828983A3A3A3A3A3A3E06401707440
:1055F3000254990BE82418F8E93400F9EBC3940436
:1056030040A37B007869790888828983A3A3A3A335
:10561300A3E064027063EB75F018A4F8A9F0746F4B
:1056230028F582740839F583E06401705B7B0078A8
:1056330069790888828983A3A3A3A3A3E064027082
:105643004F88828983A3A3A3A3A3A3E0640170402B
:10565300EB75F018A4F8A9F0746E28F50A740839EC
:10566300F50B80410BE82418F8E93400F9EBC394F7
:105673000450030255D30255280BE82418F8E934E3
:1056830000F9EBC394044080EAA2E0501B0253CC20
:105693000BE82418F8E93400F9EBC394044094753B
:1056A3000A00750B0002552E7A007B00024F5674D8
:1056B300F61216A98909750800786979088882891C
:1056C30083A3A3A3A3A3A3E0600302578EE50875F6
:1056D300F018A4F8A9F0746E28FE740839FF8E82BE
:1056E3008F83A37401F08E828F83E509F0120C334C
:1056F3008E828F83A3A312151B8E828F83A3A3A3F2
:10570300A3A3A3E4F0A3F09081DA12150FEE240E05
:10571300F582EF3400F58312151BEE2414F582EFA6
:105723003400F5837401F0EE2415F582EF3400F5AF
:10573300837401F0EE2416F582EF3400F583E4F070
:10574300A3F090086AE04509F0900869E004F0646A
:1057530001600C748065096006744065097019E581
:105763000875F018A4F8A9F0746E28F8740839F9CC
:1057730090086CE8F0A3E9F0E50875F018A4F8A91F
:10578300F0746E28FA740839FB80180508E82418A9
:10579300F8E93400F9E508C3940450030256C07ACB
:1057A300007B0080007F0202177BC082C0838A8255
:1057B3008B83E0F8A3E0F98A828B83E4F0A3F0887B
:1057C300828983A3F088828983E0F4F890086AE0F1
:1057D30058F0900869E014F0700B90086CE4F0A3A3
:1057E300F0900499F0801CC082C083900869E06047
:1057F3000A90086CE0FAA3E0FB80047A007B008047
:1058030002E0F9D083D082020132C082C083E9FB77
:105813007A007869790888828983A3A3A3A3A3E084
:105823006B7016EA75F018A4F8A9F0746F28F58266
:10583300740839F583E0F980110AE82418F8E9348B
:1058430000F9EAC3940440CE790080B7C082C083D4
:1058530090086902580474F61216A9EAFEEBFF9049
:1058630061D0E0C0E0EE2400F582EF3401F583D08F
:10587300E0F09061D7E0FA9061D5E0C39A547FC01D
:10588300E0EE2401F582EF3401F583D0E0F0EE245D
:1058930002F8EF3401F99061D6E0C39A547F88820D
:1058A3008983F0701A9061C5E0A2E45012E0A2E788
:1058B300500DEE2402F582EF3401F5837480F0126B
:1058C3000CFFEE2401F582EF3401F583E07034EE32
:1058D3002402F582EF3401F583E070279061C5E07F
:1058E300A2E4501FE0A2E7501AEE2402F582EF343F
:1058F30001F5837480F0EE2401F582EF3401F58322
:105903007480F075E1957800EE2400F582EF3401A0
:10591300F583E060279061D3E0C0E08808EE2508B6
:10592300F582EF3400F583D0E0F008EE2400F58231
:10593300EF3401F583E0F9E8C39940D975E19102A9
:1059430057A874F61216A9EAFEEBFF9061C8E0C0EF
:10595300E0EE2403F582EF3401F583D0E0F09061AB
:10596300CFE0FA9061CDE0C39A547FC0E0EE240407
:10597300F582EF3401F583D0E0F0EE2405F8EF343F
:1059830001F99061CEE0C39A547F88828983F070D5
:105993001A9061C5E0A2E05012E0A2E3500DEE249C
:1059A30005F582EF3401F5837480F0120D05EE24C2
:1059B30004F582EF3401F583E07034EE2405F582BB
:1059C300EF3401F583E070279061C5E0A2E0501F3A
:1059D300E0A2E3501AEE2405F582EF3401F5837457
:1059E30080F0EE2404F582EF3401F5837480F01225
:1059F3000D0B7A00EE2403F582EF3401F583E060AA
:105A03002F9061CBE0C0E08A08EE2508F8EF340060
:105A1300F9E82480F582E93400F583D0E0F00AEE5A
:105A23002403F582EF3401F583E0F8EAC39840D10B
:105A330075E1810257A874F41216A98908A808E829
:105A430075F08AA4C8AAF02AF974CE28FE7408391E
:105A5300FFEEFAEFFB120BDFEEFAEFFB120BD97539
:105A63000A80750B00780A1218BC7C007D60EE2456
:105A730006FAEF3401FB120B25740212164F9061E4
:105A830095E0C0E0EE2486F582EF3401F583D0E0A3
:105A9300F0906196E0C0E0EE2487F582EF3401F5E3
:105AA30083D0E0F0906197E0C0E0EE2488F582EFC8
:105AB3003401F583D0E0F0906198E0C0E0EE2489F2
:105AC300F582EF3401F583D0E0F07F0402177B7495
:105AD300F21216A98908A808E875F08AA4C8AAF0E2
:105AE3002AF974CE28F8740839F99061C6E0FDE00C
:105AF30054F0F075E1817C00E82403F582E9340178
:105B0300F583E0602B8C0AE8250AFAE93400FBEA06
:105B13002480F582EB3400F583E09061CAF00CE851
:105B23002403F582E93401F583E0FAECC39A40D506
:105B3300E82405F582E93401F583E060049061CE41
