:020000040000FA
:0600000002011A02238F29
:03002B00022B2D78
:0300530002240282
:03006B00022ABDA9
:03007B00022B094C
:100083000221FBE5C754F84401F5C77901220000BA
:100093000080FB120086B90003020104E479217891
:1000A30008B800028004F709D8FCE479297802B87B
:1000B30000028004F709D8FCE4900301783B790C33
:1000C3008002F0A3D8FCD9FA781A90014A7A01BACF
:1000D30000028007E493A3F608DAF97A3B7B0E90DB
:1000E300014B78DB79038015E493A3AD82AE838A59
:1000F300828B83F0A3AA82AB838D828E83D8E9D9C6
:10010300E77582397583FD740312012C758291752D
:100113008300740012012C75D00075817F7518015E
:10012300751903759F00020096C09FF59FE473D075
:100133009F22D083D082C09FE493C0E0740193C018
:10014300E0740293F59F220101030507FFFE778800
:100153001299324114242536010201060302E0FFFD
:100163002A2A5049534345532D42543130302A2AC9
:1001730000000000000D095049534345532D4254DC
:1001830031303005127304000079040D09504953CE
:100193004345532D4254313030051202534A004F28
:1001A3004B00000000000000000000000000000001
:1001B300534A00000000000000000000000000009F
:1001C3004357000000000000000000000000000092
:1001D3004357000000000000000000000000003052
:1001E30030303030303030FF0000B40000280028B9
:1001F30000283075A000A000A000A000000800089F
:10020300E001F000100010001000100010001000BA
:1002130050005000500010001000D00700000000F4
:1002230000000F00010005003075070010000100F9
:1002330081FF00000000FF8906A7068F06FF020268
:100243000208025000A0000000E80302A695010086
:1002530000879502A295010000310F029E950100CF
:1002630000A30302A295010000320F029C95010036
:1002730000B90302A295010000330F029A95010011
:1002830000BB0302A295010000340F0298950800F9
:1002930000BC0302A295010000350F0296950100F0
:1002A30000360FFF0100FF2002A6950100008A958A
:1002B30002A2950100009A0F02A895000000000019
:1002C30002A0950300000904890C890C890C890C90
:1002D300890C890C890C890C890C890C890C890C73
:1002E300890C1D0F350F170F0202020202020202D0
:1002F30002010D000000100102A6950100008D957A
:1003030002A295010000DB0F02BE95010000300838
:1003130002A295010000DC0F02BC95010000A3942A
:1003230002A295010000DD0F02BA95010000879437
:1003330002A295010000DE0F02B8950100005F9252
:1003430002A295010000DF0F02B695010000A792FB
:1003530002A295010000E00F02B495010000719222
:1003630002A295010000E10F02B295010000839201
:1003730002A295010000E20F02B0950100009594DE
:1003830002A295010000E30F02AE95010000E40F05
:1003930001E803053F100A0A160A0A02A69501009E
:1003A30000909502A2950100008A1002C6950300F1
:1003B30000480902A2950100008B1002C4950300B6
:1003C30000580902A095030000690902A2950100E3
:1003D300008C1002C2950300006F0902A295010070
:1003E300008D1002AC950300007F09FFFFFF0001A1
:1003F3003075030201060000000000000000000049
:1004030000000000000000000000000000000000E9
:100413000000FFFF0600800CE8033030303030303E
:100423003030120135D78404120135EB84041201F4
:1004330035ED8404120135F28404120135642B0076
:10044300120135B02B00120135BE2B0012013569A4
:100453002C00120135922D00120135EE2F001201EE
:1004630035A33300120135573500120135A246007A
:10047300120135184D00120135784E001201350571
:100483005A00120135465A00120135F5F5031201DF
:10049300350CF6031201353DF60312013578F603E8
:1004A300120135A2F603120135CCF603120135E32E
:1004B300F603120135FAF60312013511F70312019F
:1004C300353AF7031201354DF70312013563F7038C
:1004D30012013576F7031201359DF70312013597A3
:1004E300F4021201359BF502120135D3F502120114
:1004F30035F6F50212013501F60212013524F60232
:1005030012013533F70212013508F802120135835F
:10051300F8021201350BF90212013546F9021201F4
:10052300357DF9021201350BFA02120135E4FA02A4
:1005330012013544FB021201354FFB02120135CE85
:10054300FB02120135D1FB02120135D4FB02120169
:100553003563FC0212013566FC0212013596FC027A
:10056300120135C0FC02120135AEFD0212013560E5
:10057300FE02120135F6BB031201351EBC03120144
:10058300354CBC0312013583BC03120135E1BC03B6
:100593001201352CBD0312013577BD03120135B7A6
:1005A300BD03120135FDBD031201352BBE0312013C
:1005B30035E8BE03120135F2BE03120135FFBE0357
:1005C30012013532BF03120135FEBF031201350A92
:1005D300C00312013522C0031201352CC0031201DE
:1005E30035E08004120135EE8004120135068104E2
:1005F3001201351E8104120135C09F021201356CB0
:10060300A002120135E7A00212013508A20212016D
:100613003544A202120135EDA202120135D4A30220
:1006230012013538A5021201358FA50212013510CA
:10063300A60212013500A7021201354DA7021201CD
:1006430035D3A70212013505A80212013519AA02F2
:100653001201355BAA0212013579AA02120135FC97
:10066300AA02120135D0AB0212013598AC02120175
:1006730035C9A4031201359CA50312013545A60310
:1006830012013598A60312013548A703120135D488
:10069300A703120135C0A803120135EFA803120105
:1006A3003502AA031201354AAA031201351FAB030F
:1006B3001201355BAB0312013577AB031201352908
:1006C3008304120135C0D903120135D6D9031201AF
:1006D30035FCD90312013518DB0312013522DB0384
:1006E30012013557DC031201354FDD03120135CFFB
:1006F300B603120135FFB70312013532B8031201F5
:10070300357CB80312013543BA0312013500800268
:100713001201356A8002120135C98102120135D9ED
:1007230081021201350682021201355D8202120135
:10073300350683021201350D8402120135D7840276
:100743001201353786021201357A86021201351FEE
:1007530087021201356C870212013592870212015A
:1007630035A08902120135A58902120135AA8B022F
:10077300120135F78B021201356A8C021201359D85
:100783008C021201353F8D02120135E88D021201F0
:1007930035208E02120135238E021201356B8E0233
:1007A300120135AB8E02120135028F021201350B95
:1007B300EA0312013523EA031201356BEA0312013E
:1007C3003581EA03120135C8EA03120135DCEB0374
:1007D30012013569EC03120135B4EC031201357DC6
:1007E3005B00120135895B00120135C45B00120105
:1007F30035095C00120135C95C001201354F5D00FB
:100803001201357B5D00120135B45D00120135F232
:100813005F00120135D66100120135BC630012017D
:1008230035FF64001201354D67001201355F680022
:10083300120135AA6900120135BA6A00120135D7CF
:100843006A00120135126B00120135346B0012017C
:1008530035976B00120135587000120135ED7000A9
:100863001201353E7100120135657100120135B771
:100873007100120135D571001201352F720012017A
:10088300352E7300120135B2730012013571B103B5
:100893001201357BB103120135BEB103120135D903
:1008A300B10312013569B20312013591B20312018A
:1008B30035CEB20312013505B3031201352EB3034E
:1008C300120135A3B303120135B8B303120135CDB9
:1008D300B303120135FEB30312013512B40312013F
:1008E3003537B40312013571B4031201359DB403D6
:1008F300120135D5B40312013534B503120135B3F2
:10090300B503120135DEB50312013509B603120131
:100913003552B6031201357CB603120135A7B6036F
:10092300120135D1FE021201350080031201352E6A
:1009330080031201357C81031201355C82031201AD
:10094300357B8203120135F882031201353B8303A1
:10095300120135918403120135528503120135D9F1
:1009630087031201357A8803120135708903120156
:10097300356D8A03120135C78B03120135528C037F
:10098300120135DBFA0312013544FB0312013598DA
:10099300FB03120135BFFB03120135F0FB03120108
:1009A3003530C5031201359DC503120135E4C50376
:1009B300120135FCC603120135F8C703120135DBFA
:1009C300C803120135D38C03120135158D031201AF
:1009D30035E78D03120135C08E03120135BA8F033B
:1009E3001201359C9003120135059103120135BBA9
:1009F30091031201352F92031201359B92031201C9
:100A030035C492031201353E9303120135D7930384
:100A13001201353C940312013551940312013597A9
:100A23009403120135B09403120135159503120195
:100A33003518950312013512E7031201353AE7031E
:100A430012013578E70312013536E8031201359DAB
:100A5300E803120135B9E803120135E1E803120195
:100A63003511E90312013520E9031201359DE9032C
:100A7300120135C3E9031201350EEB01120135EC06
:100A8300EC011201351EEF011201355AEF0112017B
:100A93003587EF0112013571F001120135BCF00108
:100AA30012013507F10112013519F101120135590E
:100AB300F1011201358EF101120135DCF101120150
:100AC300350BF2011201352EF2011201357BF201D1
:100AD30012013500F3011201351AF50112013559DE
:100AE300F7011201359AF7011201353CF9011201A0
:100AF300357DF901120135F0F90112013541FA0191
:100B03001201351CFB0112013546FB011201357B35
:100B1300FB01120135A6FB0112013582E702120126
:100B23003580E80212013519EF021201353AF1025C
:100B330012013505F3021201356DF402120135D5A8
:100B43009501120135849601120135B19601120106
:100B530035F796011201352D98011201355B980185
:100B6300120135F199011201356B9A011201358693
:100B73009A01120135019B011201355B9C0112019F
:100B830035BB9D01120135C19E0112013522A00121
:100B93001201353BA00112013599A00112013587DD
:100BA300A101120135BAA1011201352AA2011201D4
:100BB30035A4A201120135EEA201120135B8A30139
:100BC3001201358DA4011201356CA501120135F70F
:100BD300A50112013565A601120135D9A60112013D
:100BE3003504A701120135C3A70112013528A90154
:100BF30012013545A90112013564A90112013555C8
:100C0300AA011201357AAA01120135A4AA0112011F
:100C1300351FAB0112013579AB01120135E2AC018D
:100C230012013590AD01120135D1AD011201351D0F
:100C3300BD021201356BBD0212013577BD021201EF
:100C43003555BE0212013586BE02120135B7BE020A
:100C530012013537BF02120135B5BF02120135ED5E
:100C6300BF021201353FC0021201357CC0021201DE
:100C73003599C202120135BFC402120135AAC60258
:100C830012013594C802120135FCFF02120135101E
:100C9300C30112013540C30112013519CA01120102
:100CA300359ECB011201359BD10112013583D2014F
:100CB300120135C0D201120135E3D20112013514FC
:100CC300D3011201351DD30112013527D3011201BE
:100CD3003515D4011201350BD50112013501AE01D1
:100CE30012013500B20112013506B201120135417C
:100CF300B9011201355ABE01120135F2D5031201B1
:100D03003588D6031201359ED60312013514D70355
:100D130012013588D703120135C6D7031201353ABC
:100D2300D803120135B3D803120135BCD80312011D
:100D330035C8D803120135DDD8031201351BD90399
:100D430012013531D90312013590D9031201359DB2
:100D5300C903120135AAC903120135C4C90312011B
:100D63003503CA0312013541CA03120135A6CA036A
:100D7300120135BBCA03120135C6CA03120135D3AA
:100D8300CA03120135EACA03120135F8CA03120174
:100D93003503CB031201350FCB031201351ECB03F1
:100DA30012013529CB031201354CCB03120135F364
:100DB300CB0312013503CC031201351DCC03120101
:100DC300353ACC0312013556CC031201357BCC03E3
:100DD30012013586CC031201359BCC03120135AFCA
:100DE300CC0312013510CD0312013516CD031201C8
:100DF300351CCD0312013522CD031201353ACD0343
:100E03001201356DCD0312013574CB02120135F891
:100E1300CB02120135A7CC0212013506CE02120114
:100E23003527D00212013513D10212013548D10200
:100E33001201356AD10212013519D202120135119C
:100E4300D4021201353AD402120135CCD402120174
:100E530035FED4021201350BD50212013562D502DB
:100E630012013588D502120135F5D702120135F882
:100E7300D80212013550D902120135B1AE02120166
:100E830035BBAF02120135A2B002120135ACB0027C
:100E9300120135CEB002120135DAB00212013573F8
:100EA300B202120135A2B202120135BEB30212011F
:100EB3003517B4021201357DB5021201355CB60255
:100EC300120135B8B60212013525B7021201356099
:100ED300B7021201359FB70212013558BA02120147
:100EE3003572BA02120135FEBA021201350CBB0289
:100EF30012013565BB0212013573BB02120135E6DF
:100F0300BB021201354ABC0212013594BC02120124
:100F1300351974001201353B7400120135617600F6
:100F23001201357679001201358E7A0012013541AE
:100F33007B00120135237C00120135AFF703120148
:100F430035D4F70312013546F8031201354F9D03DB
:100F5300120135589D03120135619D031201353885
:100F63009E03120135E99F031201351FA0031201ED
:100F73003559A0031201358FA003120135C9A0030F
:100F8300120135FDA00312013529A10312013572A7
:100F9300A103120135ACA103120135F5A10312011E
:100FA300354DA20312013582A203120135DDA203DE
:100FB30012013517A30312013568A3031201359EED
:100FC300A303120135D8A30312013506A4031201AA
:100FD3003529A403120135477F00120135737F00C1
:100FE300120135CE7F00120135D87F00120135E89A
:100FF3007F00120135FEE30312013523E4031201DE
:10100300354DE403120135B8E003120135D3E00393
:1010130012013502E10312013517E1031201351DF7
:10102300E10312013523E10312013550E1031201FB
:101033003575E1031201358CE103120135A1E1039A
:10104300120135F5E1031201356EE2031201358E0B
:10105300E20312013555840412013523D70112012D
:10106300357BD90112013537DB0112013524DC014F
:10107300120135B2DC0112013532DD01120135579F
:10108300DD0112013568E001120135E4E0011201CE
:1010930035D3E1011201350BE2011201354EE201B4
:1010A300120135FAE3011201354FE4011201359CB7
:1010B300E4011201350EE50112013534E501120197
:1010C300354EE50112013563E60112013573E60180
:1010D3001201359AE701120135BCE701120135F21D
:1010E300E7011201357EE901120135BDE901120163
:1010F30035E9EA0112013538FF03120135D0FF0348
:101103001201350C84041201354B84041201353568
:101113008504120135B78104120135C78104120118
:1011230035D6810412013588820412013536FC0359
:10113300120135BAFC0312013520FD03120135EA11
:10114300CD0312013521CE031201352BCE0312013B
:101153003533CE031201359FCE0312013501D0037F
:10116300120135DEEC031201352DED0312013502B8
:10117300EE0312013549EE03120135D0EE031201DD
:101183003549EF031201354CEF03120135F27F00AD
:10119300120135F57F0012013559DD03120135AC1B
:1011A300DD03120135FBDD0312013508DE031201F5
:1011B300351DDE031201355CDE031201359BDE03B0
:1011C30012013525DF0312013572DF0312013533B6
:1011D300E003120135F87F00120135C1F10312015A
:1011E3003549F303120135AAF303120135F0F30372
:1011F300120135C8FB011201350DFC011201352A1C
:10120300FC01120135FDFC0112013563FD011201E0
:10121300353CFE01120135C5FF011201359A8404E4
:10122300120135AD8404120135B18404120135B3C2
:101233008404120135BC8404120135C584041201EF
:1012430035D08404120135D58404120135EF8F02A1
:101253001201350E9002120135E590021201353963
:101263009102120135C19102120135499202120114
:1012730035AA9202120135259302120135AD93026C
:101283001201351B94021201355094021201358567
:1012930094021201351795021201359F950212012E
:1012A300352796021201359596021201351D9702D4
:1012B300120135A797021201352F980212013583C7
:1012C30098021201350D9902120135959902120106
:1012D30035109A02120135A79A02120135FB9A02C0
:1012E300120135769B02120135089C021201355C0E
:1012F3009C02120135B09C02120135539D0212016A
:1013030035729D02120135949D02120135CE9D0264
:10131300120135229E02120135839E02120135F11C
:101323009E02120135459F0212013500800412010D
:10133300352280041201354B800412013563800489
:10134300120135A58004120135ECAB03120135F609
:10135300AB0312013536AC031201357FAC03120126
:1013630035B9AC0312013513AD0312013532AD03A8
:101373001201353BAD031201358CAD03120135B5B6
:10138300AD03120135BFAD031201352BAE031201BC
:1013930035B9AE0312013512AF0312013540AF0365
:1013A300120135C0AF0312013503B0031201353EFC
:1013B300B00312013550B0031201356FB0031201AF
:1013C3003578B00312013545B103120135AD8304FD
:1013D30012013554F903120135A9F9031201351726
:1013E300FA0312013587FA0312013556EF0312018E
:1013F3003580EF0312013555F00312013549F1032E
:1014030012013536FE03120135F3F30312013529B8
:10141300F40312013562F403120135BBF503120123
:10142300358E8204120135A48204120135AE820482
:10143300120135F882041201353C9503120135F986
:1014430095031201353496031201355C960312019C
:1014530035BE96031201350A97031201356E9703C1
:10146300120135E89703120135EA98031201359DFD
:101473009A031201351F9B03120135849B0312014A
:10148300359B9B03120135A49C03120135E29C0397
:10149300120135B3C003120135CCC0031201356DFF
:1014A300C103120135ADC103120135C6C1031201D7
:1014B30035F9C10312013546C2031201357AC2035D
:1014C300120135BCC203120135C6C4031201359E95
:1014D300D90212013527DD02120135AFDE021201F6
:1014E3003506DF0212013525DF02120135A3DF02C3
:1014F30012013541E10212013525E2021201350FD5
:10150300E602120135DFE60212013514D20312019D
:10151300355DD20312013513D3031201353BD303D7
:10152300120135BED3031201352FD403120135192D
:10153300D50312013554D503120135EAFF02120116
:1015430035F3FF02120135098504120135DBFF0370
:10155300E066701008A3E066700A08A3E0667004F2
:1015630008A3E06622C3E7960809E7960809E79609
:101573000809E79622C3E09608A3E09608A3E0963D
:1015830008A3E09622C008C3E096F50808A3E096F6
:10159300420808A3E096420808A3E09645087001B4
:1015A300D3D00822080808EAC0E0EBC0E086F0E7E1
:1015B300A4FA180986F0E7A42AFA180986F0E7A422
:1015C3002AFA180986F0E7A42AFA1986F0E7A4FB99
:1015D300E5F02AFA190886F0E7A42BFBE5F03AFABE
:1015E300190886F0E7A42BFBE5F03AFA18180986E8
:1015F300F0E7A4C5F02BFBE43AFA1908E7C5F0C6F7
:10160300A426F6E5F03BFBE43AFA1886F0E7A4F6E5
:10161300E5F00826F6E43B08F6E43A08F6D0E0FBEA
:10162300D0E0FA22E4CFC0E0E4CEC0E0E4CDC0E0F5
:10163300E4CCC0E075F020E626F608E633F608E6CB
:1016430033F608E633F6181818EC33FCED33FDEEE9
:1016530033FEEF33FFC3EC9709ED9709EE9709EFDC
:1016630097191919400FFFEC97FC09ED97FD09EE47
:1016730097FE191906D5F0BFECF709EDF709EEF758
:1016830009EFF7191919D0E0FCD0E0FDD0E0FED046
:10169300E0FF226016080808C6C313C618C613C69F
:1016A30018C613C618C613C6D5E0EA22700908087F
:1016B30008226016181818C6C333C608C633C608EE
:1016C300C633C608C633C6D5E0EA22E627F60809BC
:1016D300E637F60809E637F60809E637F622E02684
:1016E300F608A3E036F608A3E036F608A3E036F6DC
:1016F30022E026F008A3E036F008A3E036F008A3C2
:10170300E036F022C3E697F60809E697F60809E6FD
:1017130097F60809E697F622C3E096F008A3E09649
:10172300F008A3E096F008A3E096F022E657F60847
:1017330009E657F60809E657F60809E657F622E0E0
:1017430056F608A3E056F608A3E056F608A3E056BB
:10175300F622E056F008A3E056F008A3E056F0089E
:10176300A3E056F022E0F608A3E0F608A3E0F608AB
:10177300A3E0F622E6F008A3E6F008A3E6F008A348
:10178300E6F022E0FAA3E0FBA3E0FCA3E0FD22EAFB
:10179300F0A3EBF0A3ECF0A3EDF022E0F8A3E0F963
:1017A300A3E0FAA3E0FB22E8F0A3E9F0A3EAF0A3A5
:1017B300EBF022CAC0E0E6F0A308DAFAD0E0FA229E
:1017C300CAC0E0E0A3C582CCC582C583CDC583F082
:1017D300A3C582CCC582C583CDC583DAE6D0E0CA72
:1017E30022C3E498F8E499F91218258026C3E49AF1
:1017F300FAE49BFBE920E7E9121825E498F8E49959
:10180300F922C3E498F8E499F9121825E498F8E466
:1018130099F9C3E49AFAE49BFB22EB20E7CFE92092
:10182300E7E0B90010BB0008E88AF084F8AAF022C8
:10183300E4FBC8FA22EB70227B10C833C8C933C952
:10184300335007C39AC3DBF280069A50012ADBEABE
:10185300C833F4C8C933F4C9FA2275F008E4C833AD
:10186300C8C933C933C99AC99B5004C92AC93BD5CE
:10187300F0ECFBC833F4C8E4C9FA22600D08C6A231
:10188300E713C618C613C6D5E0F322600C08C6C317
:1018930013C618C613C6D5E0F422700422600D18CF
:1018A300C6C333C608C633C6D5E0F41822251810BC
:1018B300AF08F518400C15198008F51840021519E2
:1018C300D2AF2200C0D0251810AF08F518500C0570
:1018D300198008F51850020519D2AFD0D022251867
:1018E300F58210AF08F518400C15198008F518405B
:1018F300021519D2AF851983222518F582E435190B
:10190300F583222518F8E43519F9222518FAE43568
:1019130019FB222518FCE43519FD22E4732518C5AB
:1019230082C0E0E51934FFC583C0E0E518C39582A2
:1019330024F810AF088583198582188008858319D8
:10194300858218D2AFCEF0A3E520F0A37808E6088D
:10195300F0A3DEFAEFF0A3E58124FAF8E608F0A39A
:10196300E608F0A3E608F0A30808E608F0A3E608F3
:10197300F0A315811581D0E0FED0E0F81581158123
:101983001581E8C0E0EEC0E0222518C582C0E0E57D
:101993001934FFC583C0E0E518C3958224F910AF5D
:1019A300088583198582188008858319858218D252
:1019B300AFCEF0A3E520F0A37808E608F0A3DEFAA3
:1019C300EFF0A3E58124FBF8E608F0A3E608F0A313
:1019D3000808E608F0A3E608F0A315811581D0E016
:1019E300FED0E0F815811581E8C0E0EEC0E0228565
:1019F3001983851882E0A3FEE0A3F5207808E0A30D
:101A0300F608DFFAE0A3FFE0A3C0E0E0A3C0E0E054
:101A1300A3C0E0E0A3C0E0E0A3C0E010AF0885826C
:101A2300188583198008858218858319D2AFD083DE
:101A3300D082020132851983851882E0A3FEE0A3D8
:101A4300F5207808E0A3F608DFFAE0A3FFE0A3C0DF
:101A5300E0E0A3C0E0E0A3C0E0E0A3C0E010AF0873
:101A63008582188583198008858218858319D2AFEA
:101A7300D083D08222C0D02518C582C0E0E51934B6
:101A8300FFC583C0E0E518C3958224F310AF088532
:101A930083198582188008858319858218D2AFC877
:101AA300F0A3E9F0A3EAF0A3EBF0A37908E709F0C8
:101AB300A3D8FAECF0A3EDF0A3EEF0A3EFF0A3D0DC
:101AC300E0F0A3D0E0F0A3D0E0F0A3E520F0A3E59D
:101AD300F0F0A322851983851882E0C0E0A3E0F922
:101AE300A3E0FAA3E0FBA37808E0F608A3DFFAE09B
:101AF300FCA3E0FDA3E0FEA3E0FFA3E0C0E0A3E0BE
:101B0300C0E0A3E0F5D0A3E0F520A3E0A3F5F01037
:101B1300AF08858319858218800885831985821803
:101B2300D2AFD082D083D0E0F8D0E0327404800604
:101B3300740280027401C0E0F4041218E1D0E012D0
:101B430017B6227404800474028000CCC0E0EDC098
:101B5300E0E518C39CCCAD1950011D10AF068C18DD
:101B63008D1980068C188D19D2AF1217C3D0E0FDE2
:101B7300D0E0FC22D083D082E9C0E0E493A3C38603
:101B8300F0C5F095F0F908E493A386F0C5F095F05D
:101B9300700BE493A3C3994005E9048002A3E475A1
:101BA300F002A42582F582E5F03583F583D0E0F9D0
:101BB300E493A3C0E0E493C0E022D083D082ECC0DE
:101BC300E0EDC0E0E493A3FCE493A3FDED4C600DD2
:101BD300121C09EC24FFFCED34FFFD80EFE493A31A
:101BE300FCE493A3FDED4C600D121C48EC24FFFCB8
:101BF300ED34FFFD80EFD0E0FDD0E0FCE493A3C023
:101C0300E0E493C0E022C0E0C3E493960874019338
:101C13009618400FE4936670080874019366187071
:101C2300007019A3A3C3E49396087401939618A3B1
:101C3300A3400DD0E0D0E0D0E0021BF9A3A3A3A3FF
:101C4300A3A3D0E022C0E0C0F088F0E4936670085C
:101C53000874019366187000A8F0A3A3700BD0F06A
:101C6300D0E0D0E0D0E0021BF9A3A3D0F0D0E02273
:101C740074F512198CEAFEEBFFEE2434F8EF34000D
:101C8400F988088909EE2435F582EF3400F583E0FC
:101C9400F8EE2437F582EF3400F583E0F50AEC859D
:101CA4000AF0A4FCAAF0850AF0EDA42AFDE82CF8B9
:101CB400E43DF97A257B00121825EA850882850916
:101CC40083F0F8740758F97401B900028004C3332F
:101CD400D9FCFAE8131313541FF8EE28F8EF340074
:101CE400F9E8245DF582E93400F583E05A6008EEF2
:101CF4002434F582EF802CEE2434F582EF3400F5A1
:101D040083E0C0E0EE2436F582EF3400F583E0F59D
:101D1400F0D0E084A8F0EE28F8EF3400F9E8243895
:101D2400F582E93400F583E0F97F04021A3874F58A
:101D340012198CEAFEEBFFEE2434F582EF3400F541
:101D440083E0C0E0EE2435F582EF3400F583D0E083
:101D5400F08E828F83A3A3A3A3A3A3A3C082C08373
:101D64008E828F83A3A3A3A3A3E0F8A3E0F9D08377
:101D7400D082E0C398F508A3E099F509EE247FF535
:101D840082EF3400F583E064017069EE2480F5820B
:101D9400EF3400F583E0F8A3E0F98E828F83A3A3E8
:101DA400A3A3A3A3A3E0FCA3E0FD8E828F83A3A33C
:101DB400A3A3A3E0FAA3E0FBC3EA9CEB9D5010C3EA
:101DC400EC98ED99402EC3EA98EB995027800EC306
:101DD400EA98EB994007C3EC98ED9940177CCC7DC9
:101DE40005EEFAEFFB120BE1EE247FF582EF3400EF
:101DF400F583E4F0EE2434F8EF3400F9E8FCE9FD6F
:101E0400EE2435F582EF3400F583E0F8EE2437F55F
:101E140082EF3400F583E0F50AE508850AF0A4F5BD
:101E240008AAF0850AF0E509A42AF509E82508F8C6
:101E3400E43509F97A257B00121825EA8C828D8312
:101E4400F0F8740758F97401B900028004C333D957
:101E5400FCFAE8131313541FF8EE28F8EF3400F9D2
:101E6400E8245DF582E93400F583E05A6008EE2445
:101E740034F582EF802CEE2434F582EF3400F583C0
:101E8400E0C0E0EE2436F582EF3400F583E0F5F0AF
:101E9400D0E084A8F0EE28F8EF3400F9E82438F50F
:101EA40082E93400F583E0F9122AAF021D2DC082C5
:101EB400C083851882851983E0F8A3E0F9C3EA9CFE
:101EC400EB9D5010C3EC98ED99401BC3EA98EB9935
:101ED4005014800EC3EA98EB994007C3EC98ED992F
:101EE4004004790180027900D083D08222EAC39C25
:101EF400FAEB9DFB2274EF12198C900492E06408B3
:101F04006005E06407702A9061C8E060249004C012
:101F1400E0F4601DE0F875F003A4C8AAF02AF9748F
:101F2400C228FE740439FF8E828F83A3A3A3E070BA
:101F340003022029906060E0C0E0EE2468F582EF9F
:101F44003400F583D0E0F0750C35750D0675080086
:101F5400750900E5D914F50AE5D95403F50E60179F
:101F64007403650E605CE50A6010EE2467F582EF89
:101F74003400F583E0700302200E900630E0640123
:101F8400602AEE2482F582EF3400F583E060047861
:101F94000480027800850A08E508C398FA95E0FBF6
:101FA400120A8B8A088B09EA45097005120DEB8029
:101FB40074EE2482F582EF3400F583E070048A0C19
:101FC4008B0DE50A6012850C82850D83F50BE5D92E
:101FD400F0A3150BE50B70F6EE2482F582EF3400C6
:101FE400F583E0604474FC250AF50A780C121B336F
:101FF400AC0AA90EEEFAEFFB120C8374021218C697
:10200400E97026AA08AB091213D9793D8E828F8311
:10201400A3A3A3A3E0FA7B0012095FEEFAEFFB127D
:102024000BF9120C95790080747403650E60568563
:102034000A107511007810121B33AC0CAD0DAA08F0
:10204400AB09120C5F74021218C6EE2468F582EF15
:102054003400F583E064807004747F8001E0F50C43
:10206400780C121B37E50EF50C780C121B37A90AF5
:10207400AC08AD099004C0E0FA7B00120923740295
:102084001218C68013900492E06408600BAC0CAD87
:102094000DEEFAEFFB120CEF120DF779017F0A0235
:1020A4001A3874F512198C74FC1218B0EAFEEBFF9E
:1020B4008908A2AFE433F509C2AF806AEE2463F85D
:1020C400EF3400F97A007B00A2AFE433F50AC2AF23
:1020D40088828983E0FCA3E0FDEC4D603A88828924
:1020E40083E0FAA3E0FB8A828B83E0FCA3E0FD8813
:1020F400828983ECF0A3EDF08A828B83E4F0A3F071
:1021040088828983E0FCA3E0FDEC4D700A88828913
:1021140083A3A3E4F0A3F0E50AA2E092AF1213D9DB
:102124009005D3E004F0EE2463F582EF3400F583E8
:10213400E0F8A3E0F9E849603DEE2463F582EF346A
:1021440000F583E02402FAA3E03400FBEA2402F55C
:102154000AEB3400F50B780A121B338A828B83E076
:10216400FCA3E0F9EEFAEFFB120C1D74021218C680
:10217400E970030220C09005D3E060639005D4E0C9
:10218400F89005D3E0C398500C7402650870509021
:1021940005D5E0604A8E828F83A3A3A3A3E08518AC
:1021A40082851983F0A3E4F09005D3E0F874021259
:1021B40018FCE8F0A3E4F09005D3E0F89005D2E031
:1021C40028F074021218FCAC82AD8385188285193C
:1021D40083AA82AB83790112092F9005D3E4F0E539
:1021E40009A2E092AF74041218C6021D2D0000006B
:1021F4008521878522C622C0E0C0D0E8C0E0E9C0BE
:10220400E0EAC0E0EBC0E0ECC0E0EDC0E0EEC0E02E
:10221400C008C009C00AC00BC082C083C0F0A2AF0E
:10222400E433FEC2AF759B00906182E0A2E05012DD
:10223400E591A2E0500C7591FE74016521700312C2
:102244001EF9E0A2E55051E591A2E5504B7591DFEE
:10225400900492E064076005E064087023740165EB
:1022640021703579019004C0E0FA75F003A4CAA87E
:10227400F028FB74C22AFA74043BFB1220A68018CF
:10228400E0640D70139004B4E004F064287002E478
:10229400F07A00E0F9120DFD906182E0A2E64003BD
:1022A400022342E591A2E640030223427591BF90C6
:1022B4000492E064057008120D25120D318003129A
:1022C4000D2B752100120D8BE9900493F079001207
:1022D4000D7F120B517A017B00900491E0F91213E7
:1022E400A3907803E064427055900634E014F070D3
:1022F4004DC2AF1222FA00782AD0E0F618D0E0F6E8
:10230400E59F540770057509FF800375097FC4C0F4
:10231400E07829E6F50808E65509F509740B78080C
:1023240012188ED0E02508F8906270E0A2E740F819
:10233400E8C333906272F0906270E0D2E0F0906192
:1023440081E0A2E35009E5E9A2E3500375E9F7A3AC
:10235400E0A2E75009E591A2E7500375917FEEA250
:10236400E092AFD0F0D083D082D00BD00AD009D085
:1023740008D0E0FED0E0FDD0E0FCD0E0FBD0E0FAF5
:10238400D0E0F9D0E0F8D0D0D0E032C0E0C0D0C086
:1023940082C083906183E0A2E05009E5BFA2E050CF
:1023A4000375BFFEE0A2E15009E5BFA2E150037549
:1023B400BFFDE0A2E25009E5BFA2E2500375BFFBF6
:1023C400E0A2E35009E5BFA2E3500375BFF7E0A222
:1023D400E45009E5BFA2E4500375BFEFE0A2E55065
:1023E40009E5BFA2E5500375BFDFE0A2E65009E5A9
:1023F400BFA2E6500375BFBFD083D0828088C0E0FF
:10240400C0D0E8C0E0E9C0E0EAC0E0EBC0E0ECC066
:10241400E0EDC0E0C0F0E5A7A2E6500FE5A1A2E61A
:10242400500953A7BF75A1BF122467E5A7A2E550C1
:102434000CE5A1A2E5500653A7DF75A1DFE5A7A22D
:10244400E15009E5A1A2E1500375A1FDE5A7A2E2CF
:10245400500CE5A1A2E2500653A7FB75A1FBD0F0F6
:1024640002237874F812198C752101900492E064A7
:10247400067015120CB38A828B83A3A3A3A3A3A310
:10248400E0FAA3E0FB120D13A2AFE433FED2AF9047
:102494000498E0640170187A207B00900491E0F9BC
:1024A4001214B77A207B00900491E0F91213A990DA
:1024B4006182E0D2E6F0900631E0602185C6228098
:1024C40016900497E064017008E5C654F84405F5D5
:1024D400C653BEFC1221F47401652160E4EEA2E04F
:1024E40092AF7F01021A38008E238F2485822885BB
:1024F4008327851882851983E0CEA3E0CF852882BF
:10250400852783EBC9EAC8EDCBECCA75F010C3E8A4
:1025140033C8E933C9EA33CAEB33CBC3EA9EF526A1
:10252400EB9FF525B35004AB25AA26EC33CCED3351
:10253400CDD5F0DAAE23AF242274E912198C74F8E5
:102544001218B0851882851983ECF0A3EDF08A087F
:102554008B09900492E024F7C39405500675080192
:102564000226D4120CB38A0A8B0BAE0AAF0BEE4FC1
:1025740070030226D1AC08AD0974021218FCAA82B9
:10258400AB83120D438E828F83A3A3750CFF750D4D
:10259400FF750EFF750F00780C12174274021218A3
:1025A400FC7510FF7511FF7512FF7513007810127A
:1025B4001742780C7910121568502A780C79101289
:1025C40017077508017509C8750A00750B007808A6
:1025D400790C1215685052850C08850D09850E0A70
:1025E400850F0B80507514017515C8751600751785
:1025F4000085100885110985120A85130B7808795E
:102604000C12170778147908121568401C75080015
:10261400750900750A00750B0178087910121707FF
:102624007808790C1216CE800C75080175090075AE
:102634000A00750B00740978081216AF750C19F5A9
:102644000DF50EF50F7808790C1216278E828F83FC
:10265400A3A3A3A3A3A3E0F8A3E0F97AD07B031276
:102664001825880C890DE4F50EF50F7808790C12FD
:1026740016CE74061218FCE0F8A3E0F97AD07B03B6
:10268400121825E8FA8A0CE4F50D7808790C12156D
:102694006850077808790C121707900492E06408D0
:1026A400600AE064066005E06405702D750C0D7821
:1026B4000C79081215684021750CF4750DFF750E20
:1026C400FF750FFF7808790C1216CE800C75080080
:1026D400750900750A00750B00851882851983E059
:1026E400F8A3E0F583888278081217777408121823
:1026F400C67F10021A3874F712198C120D55900601
:102704002FE064017010906245E4F0A3F053F4F3F9
:1027140043FE0C5390F3120D01E5C654804449F571
:10272400C6E59E547F644970F8906185740FF090FB
:10273400062DE0F47002A3E0604E90062EE06008DF
:1027440014601B14602E8040750801750900900602
:102754002DE0780812189DE508F45280802A750847
:102764000175090090062DE0780812189DE508F41B
:102774005290801475080175090090062DE07808C0
:1027840012189DE508F452A079007F02021A3874E9
:10279400F712198CE9FEEAFF74016E700C7A807BE3
:1027A40000900491E0F91213A3902B5CE493F4607D
:1027B40008E493F9120B45800953C680E59E547FC3
:1027C40070FA120D0790062FE064017003120B6378
:1027D40090062DE0F47002A3E0604B90062EE060BA
:1027E4000814601A14602C803D7508017509009066
:1027F400062DE0780812189DE508428080287508A7
:102804000175090090062DE0780812189DE508422C
:1028140090801375080175090090062DE078081260
:10282400189DE50842A0120D55120CB38A088B09B5
:10283400A808A909E8496015E5E170FCE82414F545
:1028440082E93400F583E0F46003E0F5E174016F9C
:10285400700A7A01900491E0F912142D02278E7403
:10286400ED12198C8A088B098C0A8D0B74131218BB
:10287400FC780C1217687808790C12156875100129
:102884007511C875120075130050127808790C126E
:1028940017077810790812156850168010780C798B
:1028A400081217077810790C121568400479018012
:1028B4000279007F0C021A3874ED12198C8A088B85
:1028C400098C0A8D0B74131218FC780C1217687893
:1028D4000C790812156840117808790C121707AAA8
:1028E40008AB09AC0AAD0B80227510007511007598
:1028F40012007513017810790C12170778107908F3
:102904001216CEAA10AB11AC12AD1380A68A828B1C
:10291400837508FF7509FF750AFF750B00780812A7
:1029240017557F04021A3874F512198C8C828D8322
:1029340078081217688A828B83780812171BEA2496
:1029440004F8EB3400F98C828D83A3A3A3A3E0FCE9
:10295400A3E0FD88828983C3E09CF0A3E09DF08816
:10296400828983C3E09420A3E0944E40268A828B1C
:10297400837508FF7509FF750AFF750BFF78081248
:1029840016F48A828B83A3A3A3A3E02420F0A3E0FC
:10299400344EF002291174F512198CE9FE9005E702
:1029A400E0FAA3E0FBEEC333F8E433F9743C28F512
:1029B40082749439F583E02AF508A3E03BF509789D
:1029C40008121B337A407B427C0F7D001224EC7486
:1029D400021218C68A088B098C0A8D0B74107808A9
:1029E400121696AA08AB097F04021A3874F1121958
:1029F4008C8A0C8B0D8C0E8D0F740F1218FCE0FA60
:102A0400A3E0FB74111218FCE0F508A3E0F50978C3
:102A140008121B33EA2401F508EB3400F509E4F548
:102A24000AF50B780C79081215A775087175090257
:102A3400780C79081215A7AA0CAB0DAC0EAD0F12C9
:102A440024EC74021218C68B09EA450960047A0161
:102A540080027A00EC2AFCED3400FD74131218FC99
:102A6400E0F8A3E0F9E8FEE9FFECF8EDF97A717B10
:102A740002121825880889098E828F837808121714
:102A840077ECF8EDF97A717B021218258A088B0924
:102A94007405780812189D8E828F83A3A3A3A3E5DF
:102AA40008F0A3E509F07F08021A38C082C083E960
:102AB400906000F0D083D08222C0E074F2121A78C1
:102AC400A2AFE433FED2AFE589A2E04012E589A2C9
:102AD400E1400CE589A2E24006E589A2E350031235
:102AE400117B900305E064017009E589A2E55003B8
:102AF40012117B758900C2C5751A00EEA2E092AF6F
:102B04007F01021AD7C0E074F2121A78A2AFE4333C
:102B1400FED2AFE58AA2E44006E58AA2E55003129C
:102B2400117B758A00C2EB80CFC0E0C0D0E8C0E062
:102B3400E9C0E0A9A8D2AFC2C7751A00E9A2E7E4C8
:102B440033F8E9A2E792AFD0E0F9D0E0F8D0D0D0E2
:102B5400E032C2AF02000022FFFFFFFFFFFFFFFFD2
:102B6400C082C08390780E122BA6A3F090780F1227
:102B74002BA6F0907810122B9FA3A3F0907811123B
:102B84002B9FA3F0907812122B9FF0907813E08A79
:102B9400828B83F0D083D082020132E08A828B83DD
:102BA400A322E08A828B83A3A3A3A322AABDA8BCE9
:102BB40075B437EAFBE8FA02013274F41219208A78
:102BC400088B097A107B001214158A0A8B0BAE0A43
:102BD400AF0B12043D8E828F83A3A3A3A3A3A3747C
:102BE40010122C577407122C57A37413122C6374ED
:102BF4000A122C63A37432F0EE240BF582E43FF541
:102C0400837414F0EE240CF582E43FF5837402F02F
:102C1400EE240DF582E43FF5837442F0EE240EF5C4
:102C240082E43FF583744AF0EE240FF582E43FF525
:102C3400837443F07808121B33EEFCEFFD7A3B7B80
:102C44000E120AAF74021218C6EEFAEFFB12141B2E
:102C540002330C122C5B22124645A3A3A3A3221217
:102C64002C5BA3A32274F412192074E91218B0EA9D
:102C7400FEEBFF7A107B001214158A088B09780882
:102C8400121B337C687D0E7A3B7B0E120AAF7402F2
:102C94001218C6909231AC18AD1974171217C38567
:102CA4000882850983E0851882851983123311C04F
:102CB400E074011218FCD0E0123316C0E074021262
:102CC40018FCD0E012331BC0E074031218FCD0E0EF
:102CD400123320C0E074041218FCD0E012336AC02E
:102CE400E074051218FCD0E012336FC0E0740612D1
:102CF40018FCD0E012337BC0E074071218FCD0E05B
:102D0400123380C0E074081218FCD0E0123392C071
:102D1400E074091218FCD0E0123397C0E0740A1270
:102D240018FCD0E0123361C0E0740B1218FCD0E040
:102D3400123358C0E0740C1218FCD0E0123346C0B1
:102D4400E0740D1218FCD0E012333DC0E0740E1292
:102D540018FCD0E0123334C0E0740F1218FCD0E039
:102D6400F0AA08AB0912141B750817750900780836
:102D7400121B337402121916EEFAEFFB12134F747E
:102D8400021218C674170233097F010219F274F48F
:102D940012192074EE1218B09095D1AC18AD1974B4
:102DA400011217C3A2825003022FE9900AEA1235D6
:102DB40051E8496003022FE9A3123551E849600341
:102DC400022FE97E00801CEE6019147003022FD0DC
:102DD40024FA601D14603D146077147003022E728F
:102DE400022FDF7900121427790112124D7A2C80F8
:102DF40072A818A919880889097808121B337C015C
:102E04007D007AF87B1F12115D74021218C67A32A3
:102E14007B008051851882851983E4F0A818A919CC
:102E2400880889097808121B337C017D007AF87BB5
:102E34001F12115774021218C6851882851983E06F
:102E4400640A7003022FDFC2AF75C9AB75C95B801A
:102E5400FE79021211C37C797D947A0279001211F1
:102E6400C97AF47B01121199121541022FDF909453
:102E74000C740212191674101217C39095D0041210
:102E8400191674011217C3121535121523121529B8
:102E940012152F740212190E1204497508107509BF
:102EA400007808121B3374041219167ADA7B0A129A
:102EB400134F74021218C6740212190E12141BC294
:102EC400AF1204438A088B09E50824CAFEE50934D5
:102ED40002FFC3EE94F1EF941F50E6900AEAE5086E
:102EE400F0A3E509F0120443EA24F4F8E43BF9C33F
:102EF400E50898E509995007C3E89EE99F40E6C3B1
:102F0400EE9AEF9B5009C3E894F1E9941F50D6C39D
:102F1400E50894F4E50994005009C3EA9508EB9593
:102F24000940C2C3EA9EEB9F5007C3EE98EF994055
:102F3400B4900AECEAF0A3EB124657121481750818
:102F44007275090B7808121B3312468512115D74D1
:102F5400021218C67A0A7B001211997508B0750915
:102F64000D7808121B337C8B7D00900AEC12468C82
:102F740012115D74021218C67401121906880889A8
:102F8400097808121B337C017D007AF07B1F121133
:102F94005D74021218C67808121B337C017D007A16
:102FA400FE7B1F12115D74021218C67808121B33BF
:102FB4007C017D007AFF7B1F12115D74021218C61A
:102FC400D2AFC2AF75C9AB75C95B80FE790012116F
:102FD400C31212537A2C7B011211990EEEC3940B77
:102FE4005003022DCB741202330974F412192074A5
:102FF400D71218B0E9FE7A107B001214158A088BD8
:10300400097808121B337C7E7D0E7A3B7B0E120AF4
:10301400AF74021218C6909248740E1219167417DF
:103024001217C3850882850983E0C0E0740E121864
:10303400FCD0E0123311C0E0740F1218FCD0E0127F
:103044003316C0E074101218FCD0E012331BC0E039
:1030540074111218FCD0E0123320C0E0741212185C
:10306400FCD0E012336AC0E074131218FCD0E012F2
:10307400336FC0E074141218FCD0E012337BC0E04C
:1030840074151218FCD0E0123380C0E074161218C4
:10309400FCD0E0123392C0E074171218FCD0E01296
:1030A4003397C0E074181218FCD0E0123361C0E00A
:1030B40074191218FCD0E0123358C0E0741A1218B4
:1030C400FCD0E0123346C0E0741B1218FCD0E012AE
:1030D400333DC0E0741C1218FCD0E0123334C0E05D
:1030E400741D1218FCD0E0F0AA08AB0912141BEEF0
:1030F400900301F07C017D007A1F7B001205758529
:1031040018828519837401F0740C1218FCE4F0A37E
:10311400F0041218FCE4F0740A1218FC7408F0A30A
:10312400E4F074081218FC740AF0A3E4F0740612B4
:1031340018FCE4F0A3F074041218FC74E8F0A3740F
:1031440003F0AC18AD1979017A05FB1214CF740C95
:1031540012191679027A067B031214CF740E12190F
:103164001679177A087B031214CF7C4C7D0E7907ED
:103174007A077B031214CF740112191679017A109D
:103184007B031214CF740A12191679027A117B0385
:103194001214CF740812191679027A127B031214CE
:1031A400CF740612191679027A137B031214CF74A2
:1031B4000412191679027A147B031214CF7C537DFE
:1031C4000E7A1579001206EF7CA07D007A067B004A
:1031D4001205757CA07D007A077B001205757CA022
:1031E4007D007A087B001205757CA07D007A097B3E
:1031F4000012057574251218FC124CD8041218FC20
:10320400740112464E74031218FCE4F0740212188E
:10321400FC7401F0742512191679047A087B0412DF
:10322400105B740112191679017A007B0412105B89
:10323400AC18AD1979017A027B0412105B74031285
:10324400191679017A037B0412105B7402121916A1
:1032540079017A067B0412105B9095471217861247
:1032640006F59095471217861207FD120FF59095F3
:10327400471217861211F3900301E0F91213371263
:10328400153B12042512042B12121D1212351210B2
:103294000712100D12101312123B1211BD12045515
:1032A4009094DFAC18AD1974011217C3A818A919AA
:1032B400880889097808121B337C017D007AF07B29
:1032C4001F12115774021218C6851882851983E0DB
:1032D40064AA60031204857A7C7B0E1211F97901C9
:1032E4001208F979021208F379001208FF79011221
:1032F40009057A017B00900301E0F91213A3790117
:1033040012142774291218C67F040219F212595193
:10331400E02212594CE022123326E022123326A373
:10332400E02212332A2212332E22125955A3A32249
:10333400F0E508240F12334F22F0E508240E12336F
:103344004F22F0E508240D12334F22F582E43509AB
:10335400F583E022F0E508240C12334F22F0E5084F
:10336400240B12334F22123375E022123375A3E07B
:103374002212332AA3A322123386E022123386A315
:10338400E02212338A2212332EA3A3A3A3221233E0
:103394009DE02212339DA3E02212338AA3A3227458
:1033A400F112192074FD1218B0890E909584AC188E
:1033B400AD1974031217C37A10FB1214158A0A8B01
:1033C4000BC2AFA818A919880889097808121B33F9
:1033D4007C017D007AFE7B1F12115774021218C6FD
:1033E40074011218FC8582088583097808121B333E
:1033F4007C017D007AFF7B1F12115774021218C6DC
:1034040074021218FC8582088583097808121B331C
:103414007C017D007AF07B1F12115774021218C6CA
:10342400D2AF1204378A088B091204378A0C8B0D29
:10343400AE0CAF0D1204378A0C8B0DA80CA90DC36A
:10344400E5089EE5099F5033C3EE98EF994033C3D6
:10345400E50898E509994004AA08AB09900B2AEA03
:10346400F0A3EBF0851882851983E06026F8900BB1
:103474002AC3E098F0A3E09400802BC3E89EE99F60
:103484005006EEFAEFFB80D4C3E89508E99509509D
:10349400C780C974011218FCE0F8600B900B2AE095
:1034A40028F0A3E03400F012354EC3E894ABE9945D
:1034B400054022E82456F8E934FAF9E875F064A4E2
:1034C400F8AAF075F064E9A42AF97ABB7B01121812
:1034D40025E8A38002A3E4F0900302E0640570579A
:1034E4007401650E7051850A82850B837431F0E591
:1034F4000A2402F8E4350BF9A3AA82AB8375F00A17
:10350400900B2CE084940A8A828B83400A7401F025
:1035140088828983E4801AE4F0900B2CE0FA75F039
:103524000A84ABF075F00AEA84C454F02B888289CB
:103534008312599D1211FFAA0AAB0B12141B796452
:1035440074031218C67F070219F2900B2AE0F8A33D
:10355400E0F92274F012192074F91218B0740112EF
:1035640018FCEAF0A3EBF074011218FCA3E05480F9
:103574006041900301E0F912138B8A088B09AE08AD
:10358400AF09EE4F60208E828F83E064C07010A379
:10359400A3A3E0FA8E828F83A3A3E0F912046DEE55
:1035A400FAEFFB12137974011218FC12468064803E
:1035B40002463674011218FCE0A2E050257A787BAA
:1035C4000E1214DB7A077B031210797A407B009089
:1035D4000301E0F91213A374011218FCE064010260
:1035E400444F54026041909543121B467A027B007B
:1035F400900301E0F91214AB74041218C6A28550AA
:103604001B900305E064017013121229900305E472
:10361400F0121253121235900AF6E4F074011218E3
:10362400FCE0640202444FE05440700302384890C6
:103634000E4BE060030236E07401F07900121427A7
:1036440079AF1211B11213257C827D0A7A6E7980CA
:10365400121487900B31E06037C2AF750872750998
:103664000B7808121B331246851211577402121874
:10367400C67508B075090D7808121B337C8B7D0064
:10368400900AEC12468C12115774021218C6D2AF6B
:103694001210437A027B00900301E0F91213A39005
:1036A400953F121B467A007B01900301E0F9121446
:1036B400AB74041218C67A007B40900301E0F9123F
:1036C40013A390953B121B467A407B00900301E0C4
:1036D400F91214AB74041218C602383DE412464EB3
:1036E4001214E1AC18AD1979017A057B031214CFD9
:1036F400900306E4F0F912124D900B31E06036901D
:103704000B0BE4124661E4F0900B2FF0900B2E04A7
:10371400F0900AF6E4F0900B30F0900B33F07C0854
:10372400FD79BB7A0D7B0B121517900AF0E4F0902B
:103734000AF2F080031215351212291212351210F2
:1037440007900B31E06069900B26E07008900B281D
:10375400E064017015C2AF7C827D0A7A6E798012B2
:103764001481D2AF900B26E07008900B28E064021D
:10377400703EC2AF75087275090B7808121B3312BC
:10378400468512115D74021218C67A0A7B00121162
:10379400997508B075090D7808121B337C8B7D0070
:1037A400900AEC12468C12115D74021218C6D2AF44
:1037B4007A087B00900301E0F91214B77A047B00C5
:1037C400900301E0F91214B77A007B02900301E040
:1037D400F91214B77A007B04900301E0F91214B7CC
:1037E4007A007B10900301E0F91214B77A007B0889
:1037F400900301E0F91214B77A007B01900301E011
:10380400F91214B77A107B00900301E0F91214B78F
:103814007A007B40900301E0F91214B77A027B002E
:10382400900301E0F91214B77A407B00900301E0A1
:10383400F91214B7790112142774011218FCE06408
:103844004002444FA3E0540270030239157A007B0E
:1038540002900301E0F91214B77A007B049003018B
:10386400E0F91214B7900AF8E0700474018001E4DE
:10387400F0900303E4F0900B0C124CC2124661E08A
:103884008518828519836024E4F01214E1AC18AD24
:103894001979017A057B031214CF12125F7C0F7D14
:1038A4000079FF7AFB7B0A12151780587401F01215
:1038B40014E1AC18AD1979017A057B031214CF7A9F
:1038C4000B7B0312044F7C0B7D0379177A087B036F
:1038D4001214CF909543121B467A027B0090030189
:1038E400E0F91214AB74041218C6121271909537D1
:1038F400121B467A007B20900301E0F91214AB748A
:10390400041218C674011218FC124680640202469E
:103914003674011218FCA3E054047003023E2B9089
:103924000B0CE4F0FA7B04900301E0F91214B79055
:103934000B0BE060271470030239C3147003023ABE
:10394400D9147003023BF8147003023C581470033A
:10395400023D03147003023D95023DE075080875AD
:1039640009007808121B337CFB7D0A7A827B0A12D9
:10397400151174021218C6E9601412126B900B2D03
:10398400E0F9121307900B0B7401F0023E0D900B3B
:103994000BE4F0121265124CE794065003023DE06A
:1039A4001210437A387B0812104F900B2012179292
:1039B4007A407B00900301E0F91213A3023DE090EA
:1039C4000D36124680F8900B2DE024FE601B146027
:1039D4006214606B147003023A60147003023A9527
:1039E400147003023ACD023DE0EAC3940A40057420
:1039F400BB6A70568518828519837401F0900AF2A7
:103A0400F01214E1AC18AD1979017A057B03121494
:103A1400CF7A227B0312044F7C227D0379177A0824
:103A24007B031214CF12127D121289900B0B7402B5
:103A3400023AD5900B0B7403F012129B023DE0E89E
:103A4400C3940A400B74BB68600612130D023DC98F
:103A5400900B0B7404F01212B9023DE0790074BBB0
:103A64006A6035900B0B7405F089087509007403BE
:103A7400780812189D124CB0600BE9900B2EF012CE
:103A840012D1023DE009E9C3940A4003023DE980F2
:103A9400D87A0074BB687006121313023DC9900BE8
:103AA4000B7406F0EA75F009A4F8A9F0124D0A6047
:103AB4000CEA900B2FF0F91212E3023DE00AEAC37C
:103AC400940A4003023DE980DB1212F5900B0B745B
:103AD40008F0023DE97A107B001214158A088B095C
:103AE400AE08AF09750800900302E06405600302A4
:103AF4003BD18002050885080A750B007403780A17
:103B040012189D7482250AFA740A350BFBEA2408FC
:103B1400F8E43BF988828983E0F470D8E508900BD7
:103B24001C700AE04411125993D2E78008E0442142
:103B34001259934441F088828983E508F0750A0795
:103B4400750B00780A121B337C167D0BEA2409FAE4
:103B540050010B12134F74021218C67C0679007AB6
:103B6400167B0B12047FE9F509900B307401F0A960
:103B74000812128F909537121B467A007B2090030F
:103B840001E0F91214AB74041218C6900D36E06407
:103B9400BB700474018002E004F08E828F83742F62
:103BA400F0A3E508F0900B1CE08E828F83A3A31290
:103BB4004645E509124E6E1211FF7C077D0079001F
:103BC4007A167B0B121517900B0B7401F085188273
:103BD400851983E4F01214E1AC18AD1979017A0562
:103BE4007B031214CFEEFAEFFB12141B900AF2E4DB
:103BF400F0023DE07508087509007808121B337C53
:103C04000D7D0B7AFB7B0A12151174021218C6E99A
:103C140060217808121B337C0D7D0B7A827B0A129B
:103C2400134F74021218C61212A7900B26E04441D7
:103C3400F080031212AD909533121B467A007B205C
:103C4400900301E0F91214AB74041218C6900B30FF
:103C5400740180427E007508088E097808121B33AF
:103C64007C0D7D0B7AFB7B0A12151174021218C6A7
:103C7400E970381212C5909533121B467A007B20E6
:103C8400900301E0F91214AB74041218C6900B2EC1
:103C94007401F0900B30124CC2F07C087D0079BBAB
:103CA4007A0D7B0B121517023DE00EEE75F009A498
:103CB400F8A9F0747228F8740B39F9E8FAE9FB8A68
:103CC400828B83A3E064BB70E1EEF07808121B33AF
:103CD4007C0D7D0BEA2402FA50010B12134F74027F
:103CE4001218C6EEF91212BF900D37E064BB7004CF
:103CF40074018002E0041259934444F0023C7A9027
:103D04000B2E124CF812189D74822508F8740A358B
:103D140009F9E8FAE9FB8A828B83A3A3A3A3A3A3EB
:103D2400A3A374FFF07C077D007900EA2409FA500C
:103D3400010B121517900D36E014F075080675097D
:103D4400007808121B33900B2EE0F50874037808F2
:103D540012189D748B2508FC740A35091259CC126B
:103D6400134F74021218C6900B70124CEA94094057
:103D740002E4F0900D36E0700374BBF0900B26E083
:103D84004442124657121481124CBDF01212D780CD
:103D9400347C097D00900B2FE08CF0A4F8A9F0741A
:103DA4007328FA740B39FB79BB121517900D37E0A1
:103DB40014F0700374BBF0900B26E04444F0124CF2
:103DC400BDF01212E9909533121B467A007B2090C5
:103DD4000301E0F91214AB74041218C6900B0BE043
:103DE400C394024024900AF2E06401700590952F78
:103DF400800390950B121B467A007B10900301E020
:103E0400F91214AB74041218C6900B0CE4F07C0F76
:103E1400FD79FF7AFB7B0A12151774011218FC1244
:103E24004680640402463674011218FCE0540860AB
:103E34004B900AF0E064017038900302E06405706E
:103E440030900B26E0602A900AF8E07024900B264C
:103E5400E0A2E7401CD2E61259357A8E7B0E12049A
:103E64007FE9900B1DF07C8E7D0E7A03790112118F
:103E7400FF74011218FCE0640802444FA3E05408E4
:103E840070030240337A007B08900301E0F91214B6
:103E9400B7900B31E070030240167E00EE75F00916
:103EA400A4F8A9F0747228F508740B39F509E5082B
:103EB400245DF50AE43509F50B750C08750D0078D9
:103EC4000C121B337CFB7D0AAA0AAB0B121511746E
:103ED400021218C6E9602E9003057401F012122F25
:103EE400900DB17404F0EEA3F0E508245CF582E4CF
:103EF4003509F583E4F07C10FD79BBAA0AAB0B12FB
:103F04001517023FC8750A08750B00780A121B338F
:103F14007CFB7D0AE5082402FAE43509FB1215113D
:103F240074021218C6E960119003057401F01212AC
:103F34002F900DB17401023FC4780A121B337CFB2D
:103F44007D0AE50824B7FAE43509FB121511740259
:103F54001218C6E960109003057401F012122F9034
:103F64000DB17405805A780A121B337CFB7D0AE577
:103F7400082411FAE5093401FB1215117402121810
:103F8400C6E960109003057401F012122F900DB170
:103F94007406802C780A121B337CFB7D0AE5082406
:103FA4006BFAE5093401FB12151174021218C6E903
:103FB40060209003057401F012122F900DB1740764
:103FC400F0EEA3F07A107B00900301E0F91213A342
:103FD400804374096E702E124CE79406402412102C
:103FE400437A387B0812104FEAF8EBF9ECFAEDFB50
:103FF400900B201217AA7A407B00900301E0F9127B
:1040040013A31212651215410EEEC3940A50060250
:104014003EA01212657C0F7D0079FF7AFB7B0A12A9
:10402400151774011218FC1246806408024636748F
:10403400011218FCA3E054017003024192121043D0
:104044007A387B0812104F8A088B098C0A8D0B85ED
:104054001882851983E4F0E0FA8A0C750D00740265
:10406400780C12189D7472250CF8740B350DF974C4
:10407400051218FCE8F0A3E9F074051218FCE0241A
:10408400C6F8A3E03401F9E8FCE9FDEA75F009A4F7
:10409400FAABF074722AF8740B3BF974031218FC2F
:1040A400E8F0A3E9F08C828D83780C121768909560
:1040B4000F780C1216E1780C7908121568402C75EB
:1040C4000C00750D00750E00750F008C828D8378C1
:1040D4000C1217777C097D0079BB74031218FCE07D
:1040E40024B6FAA3E03400FB12151774051218FC69
:1040F400E024EEF8A3E03401F9E8FAE9FB8A828BC4
:1041040083780C121768909513780C1216E1780CCA
:104114007908121568401212466C1218FCE024103B
:10412400FAA3E03401FB12151774051218FCE024FD
:1041340016F8A3E03402F9E8FAE9FB8A828B837863
:104144000C12176890951B780C1216E1780C7908FC
:10415400121568401212466C1218FCE0246AFAA385
:10416400E03401FB121517851882851983124CE17E
:10417400500302405B7A007B01900301E0F91214C2
:10418400B774011218FC12468064010246367401A9
:104194001218FCE05404601A1214E17A047B0090B3
:1041A4000301E0F91214B774011218FCE06404026C
:1041B400444FE05420700302427F7A207B00900336
:1041C40001E0F91214B79095D4AC18AD197401122A
:1041D40017C312124112153512152912152F121573
:1041E40023C2AF7C827D0A7A6E79801214817508AD
:1041F4007275090B7808121B3312468512115D740F
:10420400021218C67A0A7B001211997508B0750952
:104214000D7808121B337C8B7D00900AEC12468CBF
:1042240012115D74021218C6A818A9198808890900
:104234007808121B337C017D007AF07B1F12115D1C
:1042440074021218C67808121B337C017D007AFEB2
:104254007B1F12115D74021218C67808121B337C7E
:10426400017D007AFF7B1F12115D74021218C6D201
:10427400AFC2AF75C9AB75C95B80FEE05410700363
:10428400024455900AF6E004F014601814607214A5
:10429400606714606C14607614606E14607014604F
:1042A4007B024447121223121319121241121541B0
:1042B4007A007B02900301E0F91214B77A007B10B4
:1042C400900301E0F91214B77A007B20900301E017
:1042D400F91214B790953B121B467A407B00900369
:1042E40001E0F91214AB74041218C67A027B009030
:1042F4000301E0F91214B780031212419095438030
:104304001312124712154180081212478003121229
:104314004190953F121B467A1002443812124712FC
:104324001043900B26E04450F0900E3AE0C39410F2
:10433400400A740FF0900DB0F012150B900DB0E020
:10434400C0E075F009A4F8A9F074AA28F582740DE8
:1043540039F583D0E0F0900DB1E0C0E012469274DC
:10436400AB28F582740D39F583D0E0F0900DB2E0FE
:10437400C0E012469274AC28F582740D39F583D0EE
:10438400E0F0900838E0C0E012469274AD28F5825F
:10439400740D39F583D0E0F0900839E0C0E012469E
:1043A4009274AE28F582740D39F583D0E0F090084C
:1043B4003AE0C0E012469274AF28F582740D39F5E4
:1043C40083D0E0F090083BE0C0E012469274B0283D
:1043D400F582740D39F583D0E0F090083CE0C0E03C
:1043E40012469274B128F582740D39F583D0E0F049
:1043F40090083DE0C0E012469274B228F582740D34
:1044040039F583D0E0F0900E3AE004F0900DB0F06E
:10441400900B1FE4F07A10FB900301E0F91214B73B
:104424007A027B00900301E0F91213A390954B12DA
:104434001B467A407B00900301E0F91214AB74042C
:104444001218C674011218FCE06410FAA3E00246C4
:1044540036A3E05410605E851882851983E4F0FA6F
:104464007B10900301E0F91214B7900AF8E0700B86
:10447400900B0BE070051212538029900B0BE06433
:104484000270101214E1AC18AD1979017A057B039E
:104494001214CF124CC712151712126B900B2DE089
:1044A400F9121307900B0CE4F0041218FC12468066
:1044B400641002463674011218FCA3E054407003E1
:1044C4000245DF900B29E004F0F874011218FCE0B7
:1044D400FEA3E06440FF74FC28C39406507C7AF386
:1044E4007B0A12151DE9F50812042BE508C394068E
:1044F400502D900B29E0A2E0400812124112131F24
:10450400800312124790952B121B467A007B409031
:104514000301E0F91214AB74041218C60245DA85DB
:1045240018828519837401F0F912124D1214E1AC4A
:1045340018AD1979017A057B031214CF7A397B03FC
:1045440012044F7C397D0379177A087B031214CF48
:10455400900B29E4F0900B328064E8C39404E85093
:104564002760731204317900120461900B2CE0C0AF
:10457400E0900B29E0F874F228F582E4340AF5831C
:10458400D0E0F090955B8080C3940A4049851882FE
:104594008519837401F01214E1AC18AD1979017A0C
:1045A400057B031214CF7A397B0312044F7C397DC7
:1045B4000379177A087B031214CF900B29E4F07C5B
:1045C40003FDF97AF37B0A1215177A007B409003F6
:1045D40001E0F91214B7EEFAEF805774011218FCD7
:1045E400A3E054207A00604D7B20900301E0F9128F
:1045F40014B7900AF8E0700B900B0BE070051212E0
:10460400538025900B30E4124CC204F012126B90CC
:104614000B2DE0F91213077A007B10900301E0F9E7
:104624001214B7900B0CE4F074011218FC124680BB
:104634006420FB80027B0074071218C67F080219ED
:10464400F2F08E828F83A3A3A322F08518828519AA
:1046540083F022F07C827D0A7A6E798022F0900BBE
:104664002D7402F0900AF8228A828B83E4F0A3F07E
:10467400A3F0A3F07C09FD79BB740322E0FAA3E064
:10468400227C3E7D02900AEAE0FAA3E0FB22900D30
:10469400B012469922E075F009A4F8A9F02274F04A
:1046A40012192074FF1218B0EA851882851983F054
:1046B400900306E0700474018001E4F0900E4BE076
:1046C40064016003024C4190953B121B467A407B87
:1046D40000900301E0F91214AB74041218C6851893
:1046E40082851983E014601514601924FE602A245D
:1046F400FC601F24F8601424F060258029900303D3
:10470400740A80219003037430801A900303740B9D
:1047140080139003037433800C9003037432800578
:104724009003037431F07A007B10900301E0F912D6
:1047340014B7900AF6E06003024C36900B29E0604F
:1047440003024C36900303E06012900AF8E0700C08
:104754007A007B20900301E0F91214B78518828552
:104764001983E0A2E45019909537121B467A007B16
:1047740002900301E0F91214AB74041218C6800C01
:104784007A007B02900301E0F91214B7900303E06E
:104794007003024CAB900306E06003024CAB900341
:1047A40003E0C0E0900B0CE0F874FB28F582E434DD
:1047B4000AF583D0E0F0900B0CE004F0900AF8E0E6
:1047C400600302486490950B121B467A007B10909C
:1047D4000301E0F91214AB74041218C6900B0CE038
:1047E40064017010900303E0640B604279021211BB
:1047F400C3121259900B0CE0F8900303E0640B60B1
:1048040027E0640A7019900B0CE4F079021211C3CA
:104814007C0F7D0079FF7AFB7B0A121517802574C3
:10482400FF28F91212FB801CE8C3940950061212E7
:10483400650248E8900B0CE4F0FA7B08900301E071
:10484400F91213A3900B0CE0C3940F50030248ED2C
:10485400E4F0FA7B08900301E0F91213A30248ED97
:10486400900B30E060030248ED900B0CE0F874FF0D
:1048740028F9900B0BE0602F146075147003024943
:10488400711470030249BE1470030249BE1470030C
:10489400024A5D147003024ADC147003024B621472
:1048A4007003024BC080421212FB900B0CE0FA74AE
:1048B400FA2AF582E4340AF583E0640B70030249B2
:1048C4008CEAC3940F400302498C900303E0640A0A
:1048D400701779021211C37C0F7D0079FF7AFB7B7C
:1048E4000A121517900B0CE4F0900303E4024C3EFB
:1048F400900303E06430700E900B2D124CEA940880
:10490400401774028012E06432701D900B2DE01485
:10491400F0C3940250037407F0900B0CE4F0900B76
:104924002DE0F91213078011E0640B700C7A007B00
:1049340004900301E0F91213A3900AFBE0640A70E7
:1049440015A3E0640A700F900B0CE06403709A9056
:104954000B0B74078092900B0CE0C39403408A9075
:104964000AFCE0640A60030248E80248ED9003038D
:10497400E0640B701A900302E0640560030248EDE2
:10498400900D36E0F912128F7A007B04024859E048
:10499400640A60030248ED12126B900B2DE0F912C9
:1049A4001307900B0B7401F0A3E4F07C0FFD79FF67
:1049B4007AFB7B0A1215170248ED900303E0640AA0
:1049C400701A12126B900B2DE0F91213077C087DFC
:1049D4000079BB7A0D7B0B12151780C6E0640B704F
:1049E40060E8C39408402D900B14E064BB709912E6
:1049F40012A1900B0CE4F0750808F5097808121B55
:104A0400337CFB7D0A7A0D7B0B12134F7402121850
:104A1400C60248ED900B0B7401F01212C590953349
:104A2400121B467A007B20900301E0F91214AB7448
:104A3400041218C67C087D0079BB7A0D7B0B0248F2
:104A4400E5E8C394094008900B0C74090248ECE0B3
:104A540024D0FA1213010248ED900B2E124CEF7081
:104A640030E8851882851983F0E0C394144003026A
:104A740048E8900B2E124CE14002E4F0124CF8127C
:104A8400189D124CB07046851882851983E0048005
:104A9400D7E064326003024B32E8851882851983BB
:104AA4008008851882851983E004F0E0C3941440DB
:104AB400030248E8900B2EE014F0C3940A400374F8
:104AC40009F0124CF812189D124CB060D5900B2EC0
:104AD400E0F91212D10248E8900B2F124CEF701D2E
:104AE400E8FFEFC3941440030248E8900B2F124CE4
:104AF400E14002E4F0124D0370290F80E5E06432D6
:104B0400702CE8FE80010EEEC3941440030248E8C2
:104B1400900B2FE014F0C3940A40037409F0124D73
:104B24000360E3900B2FE0F91212E30248E8E0641B
:104B34000B700F7A007B04900301E0F91213A302B7
:104B440048E8E0640A60030248E812126B900B2DF7
:104B5400E0F9121307900B0B7401F00248DB900389
:104B640003E0640B702D900AFDE064336003024897
:104B7400EDA3E0643160030248EDA3E06432600316
:104B84000248ED900B0CE4F0F912124D7A207B00F0
:104B9400024859E0640A6009E8C3940650030248D5
:104BA400ED900B0CE4124CC204F012126B900B2D1E
:104BB400E0F91213077C0F7D000249B2900AEF124C
:104BC4004CEF6005E064327018E8900AEF700474EA
:104BD400018001E4F01212F5900B33E004F0024876
:104BE400E8E0640B7028E8900AEE600474FF80012A
:104BF400E4F0900B33E4F012126B900B2DE0F912F9
:104C04001307124CC7121517900B0CE480CFE06405
:104C14000A60030248E8900B33E0A2E0500CE890ED
:104C24000AEF700474018001E4F0900B33E4F002A5
:104C34004B4E900B0CE4F0900303F0806A900B0C45
:104C4400E4F0900303F0900B1FE0C39406404C1271
:104C540010437A387B0812104F8A088B098C0A8D0E
:104C64000B900B20780C12176890955F780C121635
:104C7400E1780C7908121568402D900B1F124CD85E
:104C8400A3F090952B121B467A407B00900301E021
:104C9400F91214AB74041218C6800C7A407B00908D
:104CA4000301E0F91213A3740102463D748A250836
:104CB400F582740A123352F422900B307401F0908E
:104CC4000B0B22900B0B7401F07C0F7D0079FF7AA3
:104CD400FB7B0A22E4F0A3F0A3F0A3F022124CEA37
:104CE400940A22900B1FE004F0C322E0F89003031F
:104CF400E0643022E0F50875090074037808221294
:104D04004699124D0A22747328F582740B39F5837F
:104D1400E064BB2274F412192074F11218B08908EB
:104D2400E9146010147003024DC124FD7003024D98
:104D3400EF024E6374091219167A047B031214D518
:104D440074091218FCE0C0E074011218FCD0E0F001
:104D5400740A1218FCE0C0E074021218FCD0E0F0EF
:104D6400740B1218FCE0C0E074031218FCD0E0F0DD
:104D740074051218FCE4F074041218FCE4F0740EC8
:104D84001218FCE0C0E074081218FCD0E0F0740DB6
:104D94001218FCE0C0E074071218FCD0E0F0740CA8
:104DA4001218FCE0C0E074061218FCD0E0F07401A4
:104DB4001219167A087900120FFB024E63851882C5
:104DC400851983E4F07A04FB900301E0F91214B727
:104DD400900E4BE06003024E631214E1AC18AD195F
:104DE40079017A057B031214CF8074900AF2E0648F
:104DF40001703B7A107B001214158A0A8B0BAE0AE1
:104E0400AF0B8E828F837401F0A3744FF08E828F68
:104E140083A3A3744B124E6E1211FF7A047B00908D
:104E24000301E0F91214B7EEFAEFFB12141B900A17
:104E3400F0E0701F900AF2E07019909533121B464F
:104E44007A047B00900301E0F91214AB7404121885
:104E5400C6800C7A047B00900301E0F91214B7E5D4
:104E640008900302F0740F023309F0EEFCEFFD7AB0
:104E74001079012274F012192074FE1218B0740112
:104E84001218FCE9F07A107B001214158A088B09B9
:104E940074011218FCE0600A24FE700302544302F9
:104EA400591C7A607B037900121205750A50750B40
:104EB40003780A121B337C607D037A3B7B0E120B52
:104EC4000974021218C67C827D0A7A6E79801214E3
:104ED40087900350E014601D14700302504F147047
:104EE400030251E524FB70030253D324F870030238
:104EF400541D02591C750A00AE0A8E0C750D0074FF
:104F040003780C12189D7482250CF50E740A350D65
:104F1400F50F750C06750D00780C121B337C517D52
:104F240003E50E2409FAE4350FFB1215117402127D
:104F340018C6E97003024FCC9003047401F0900D7D
:104F4400B104F0EEA3F07A047B00900301E0F912BF
:104F540014B7900AF2E06401702F900B0B7401F007
:104F6400A3E4F012126B900B2DE0F91213078518CD
:104F740082851983E4F01214E1AC18AD1979017A31
:104F8400057B031214CF02591C900357E054F064BC
:104F9400307023850E82850F83A3A3A3A3A3A3A3A9
:104FA400A374FFF07C077D007900E50E2409FAE480
:104FB400350FFB1215177A107B00900301E0F912EC
:104FC40013A3900305025285EEC394094023900A6B
:104FD400F2E06401701B750C07780C121B337C51D2
:104FE4007D037A167B0B12134F74021218C6121229
:104FF40083EE75F006A4FEAFF074342EFE740B3FFE
:10500400FF750C06780C121B337C517D03EEFAEF0E
:10501400FB12151174021218C6E9602085088285F6
:10502400098374CCF0A312594812593E1211FF7C23
:10503400067D007900EEFAEFFB121517050AE50A62
:10504400C3940A400302591C024EFC7A107B0012DE
:1050540014157A107B001214157A107B00121415A3
:10506400900B27E014601514601E24FE602624FCB7
:10507400602E24F8603624F0603E8047900EB274AF
:1050840041125993D2E0803A900EB274421259936D
:10509400D2E1802E900EB27443125993D2E2802250
:1050A400900EB27444125993D2E38016900EB274E7
:1050B40045125993D2E4800A900EB2744612599361
:1050C400D2E5F0900B26E0900370F0900B1DE09079
:1050D4000E941259AC600302591C750A03750B0037
:1050E400780A121B337C517D037A927B0E121511C0
:1050F40074021218C6E97003025186900B1DE4F085
:105104007E00900370E0A2E05065EE601414601815
:1051140014601C14602014602414602814602C8013
:105124004E900EA27441802D900EA274428026905F
:105134000EA27443801F900EA274448018900EA295
:1051440074458011900EA27446800A900EA2744792
:10515400F0900B15E41259357AA27B0E12047FE904
:10516400900B1DF07CA27D0E7A1079011211FF9034
:105174000370E0C313F00EEEC39407400302591CFE
:105184008080900B27E0F8700302591C900B1DE4FB
:10519400F0E814601114601524FE601824F4601BF8
:1051A40024F0601E8022900EB27441801A900EB2D8
:1051B40074428013900EB27443800C900EB2744506
:1051C4008005900EB27446F07CB27D0E7A1079019F
:1051D4001211FF7C03900B1DE0F97AB27B0E02538F
:1051E400C9750A02750B00780A121B337C517D03C2
:1051F4007A927B0E12151174021218C6E97003021A
:10520400591C900AF0E06401600302591C90035396
:10521400E0F8A3E024BF6024146073147003025206
:10522400CF1470030253111470030253111470034A
:1052340002535214700302539802591C900B1DE040
:10524400687043E4F07E017C08900B1DE0F97A92CB
:105254007B0A12047FE9900B1DF08E0A750B007413
:1052640003780A12189D748A250AFC740A350BFD0A
:105274007A1079011211FF0EEEC3940A40C9900B03
:1052840027740102591B12592F74410253B2900B17
:105294001DE068702E900B26E0C2E1F0900B1DE437
:1052A400F07C08F97A827B0A12047FE9900B1DF0E6
:1052B4007C827D0A7A1079011211FF900B27740207
:1052C40002591B12592F74420253B2900B1DE0680D
:1052D4007033900B26E0C2E012596AEE75F009A40F
:1052E400F8A9F0747328F50A740B1259BD12047FDF
:1052F4001259991211FF0EEEC3940A40DE900B2747
:10530400740402591B12592F74430253B2900B1D9B
:10531400E0687033900B26E0C2E312596AEE75F030
:1053240009A4F8A9F074B328F50A740D1259BD1232
:10533400047F1259991211FF0EEEC3941440DE90AB
:105344000B27741002591B12592F74458060900B5F
:105354001DE0687038900B26E0C2E412596AEE75BD
:10536400F009A4F8A9F074CE28F50A740B39F50BEA
:105374007C071259C212047F1259991211FF0EEEC2
:10538400C3940A40D9900B27742002591B12592F39
:105394007446801A900B1DE068700EE4F0900B26A2
:1053A400F0A3F012152F02591C12592F7447F07CE8
:1053B400C27D0E7A1079011211FF7C03900B1DE05F
:1053C400F97AC27B0E12047FE9900B1D02591B125D
:1053D4001043900351E0900838F0900352E0900895
:1053E40039F0900353E090083AF0900354E09008A9
:1053F4003BF0900355E090083CF0900356E0900891
:105404003DF012103D8508828509837416F0A3745B
:105414004B125948744F025909A3E0644F600302C8
:10542400591CA3E06450600302591C900AF77402EB
:10543400F0FA7B00900301E0F91213A302591C1245
:105444001043900B1EE4F07A607B0379021212057C
:10545400750A50750B03780A121B337C607D037A3E
:105464003B7B0E120B0974021218C6900351E0FF25
:105474008F0A750B00A3E0FE900350E0146034140F
:10548400700302556B1470030255CD24FE700302A1
:10549400564B1470030256961470030256EE1470A1
:1054A4000302582B14700302591114700302591784
:1054B40002591C7403780A12189D7482250AF50A8D
:1054C400740A350BF50B900B1EE0F97C08E50A2CE9
:1054D400FAE4350BFB12047F1259A7707FEE687053
:1054E4007B900B287401F0750C06750D00780C1276
:1054F4001B33E50A2409FCE4350B1259CC12134F73
:1055040074021218C6900B70124CEA94094002E41B
:10551400F07C087D007900900351E0F50A890B7452
:1055240003780A12189D748A250AFA740A350BFB4B
:10553400121517900351E0F50A750B007403780AED
:1055440012189D748A12592A740A350BF58374FF54
:10555400F0850882850983740302562E85088285A6
:1055640009837450025905900B1EE0F97C087A8275
:105574007B0A12047F1259A77044EF687040900BA5
:10558400287401F07C087D0079007A827B0A121568
:1055940017750A08780A121B337CD27D0E7A827B37
:1055A4000A12134F74021218C6850882850983747F
:1055B40004F0900B1EE0850882850983807A8508B3
:1055C400828509837451025905EF75F009A4F50A1F
:1055D400E5F0F50B7472250AF50C740B350BF50D1B
:1055E400850C82F583A385820A85830B900B1EE0CC
:1055F400F97C09AA0AAB0B12047F1259A7703DEE7D
:10560400687039900B287402F0850A82850B83E454
:10561400F07C09FD79BBE50C2402FAE4350DFB129C
:1056240015178508828509837405F0900351125972
:10563400B4F0900B1E1259B4A3025909850882854F
:1056440009837452025905900B1EE0F97C087A51C3
:105654007B0312047F1259A7702D900359E06870E0
:1056640026900B28740112597B121B337C517D0345
:105674007A827B0A12134F74021218C68508828537
:10568400098374070258F7850882850983745402D4
:105694005905900B1EE0F97C097A517B0312047FB3
:1056A4001259A7703A90035AE0687033900B28742B
:1056B40002F0750A09780A121B337C517D039003AA
:1056C40051124695747328FA740B39FB12134F74F4
:1056D400021218C685088285098374080258F78562
:1056E40008828509837455025905900B1EE0F97CE4
:1056F4000A7A517B0312047F1259A76003025820CF
:1057040090035BE0686003025820900352E0FC754C
:10571400F009A4F8A9F0747228FA740B39FB900309
:1057240051E024CF600F14603514606C14700302D0
:1057340057D502591C900B287402F0EA245CF582B8
:10574400E43B125978121B337C537D03EA245DFA3F
:1057540050010B12134F74021218C6025815900B05
:10576400287402F0EA24B6F582E43B125978121B3D
:10577400337C537D03EA24B7FA50010B12134F74A0
:10578400021218C67A387B0812104F1259F21218F6
:105794009D125928740D8070900B287402F0EA242D
:1057A40010125973121B337C537D03EA2411FAEB54
:1057B4003401FB12134F74021218C67A387B081294
:1057C400104F1259F212189D746012592A740D80E8
:1057D40037900B287402F0EA246A125973121B33AF
:1057E4007C537D03EA246BFAEB3401FB12134F74F0
:1057F400021218C67A387B0812104F1259F2121886
:105804009D748812592A740D350BF583780C121780
:105814007785088285098374090258F7850882858B
:1058240009837456025905900AF0E064016003028A
:10583400591CEE75F009A4F8A9F0747228F8740BD9
:1058440039F9EF24CF600C14603214605314607380
:1058540002591CE8245CFEE4391259E512047F1253
:10586400595E60030258FD900B287402F07C107D91
:105874000079BBEEFAEFFB121517806FE824B6FE31
:10588400E4391259E512047F12595E706C12598280
:105894001215171259FA12189D125928740D8044C2
:1058A400E824101259E112047F12595E704B125908
:1058B400821215171259FA12189D746012592A741B
:1058C4000D8021E8246A1259E112047F12595E7096
:1058D400281259821215171259FA12189D74881237
:1058E400592A740D350BF583124CD8850882850925
:1058F40083740AF0A3744B800C8508828509837431
:1059040057F0A374FF12593E1211FF800BEF900B56
:10591400248004EF900B25F0AA08AB0912141B7421
:105924000202463D7438250AF58222E4F0900EC244
:1059340022F07C03900B1DE0F922F0AC08AD097A4B
:105944001079012212594C22125951A3221259558D
:1059540022F0850882850983A322E9F8900B1EF0C2
:10596400900353E06822F0900B1DE4F07E0022F5D2
:1059740082EB3401F583ECF0750A08780A22900B67
:10598400287402F07C097D0079BBEEFAEFFB22F06B
:10599400900B26E022E9900B1DF0AC0AAD0B7A10B7
:1059A400790122E9F8900B1EF0900AF0E0640122DC
:1059B400E0850882850983A32239F50B7C09900BC5
:1059C4001DE0F9AA0AAB0B22FD900B70E075F006FE
:1059D400A4F8A9F0743428FA740B39FB22FEE934D4
:1059E40001FF900B1EE0F97C09EEFAEFFB228A0C12
:1059F4008B0D8C0E8D0F900352E0F50A7402780A19
:105A04002274F71219207D00800BEFF9E8C313F814
:105A14001EEE70140DEDC39C5025EDFEEA2EF582AA
:105A2400E43BF583E0F87E08E9C313FFE8A2E092C3
:105A3400F0E9A2E030F001B350D0748C6F80CC0256
:105A44002D8D74F212192074FC1218B09095937471
:105A54000112191674031217C39095D3AC18AD191B
:105A6400041217C3120431750A031204378A088B0F
:105A7400091204378A0C8B0DAE0CAF0D1204378A51
:105A84000C8B0DA80CA90DC3E5089EE5099F504B8E
:105A9400C3EE98EF99404BC3E50898E50999400493
:105AA400AA08AB09900B2AEAF0A3EBF012354EC317
:105AB400E894BDE99407E8403A2444C0E074011234
:105AC40018FCD0E0F07401121906880889097808D6
:105AD400121B337C017D007AFE8047C3E89EE99F58
:105AE4005006EEFAEFFB80BCC3E89508E99509502F
:105AF400AF80B1245CFAE934F8FBC3EA9418EB9460
:105B04000074BC5029C398C0E074021218FCD0E0A1
:105B1400F08582088583097808121B337C017D0097
:105B24007AFF7B1F12115D74021218C68008687018
:105B340003740769700AA818A91988088909800ECE
