:020000040000FA
:0600000002011A02239721
:03002B00022B3570
:0300530002240A7A
:03006B00022AC5A1
:03007B00022B1144
:10008300022203E5C754F84401F5C77901220000B1
:100093000080FB120086B90003020104E479217891
:1000A30008B800028004F709D8FCE479297802B87B
:1000B30000028004F709D8FCE4900301784A790C24
:1000C3008002F0A3D8FCD9FA781A90014A7A01BACF
:1000D30000028007E493A3F608DAF97A4A7B0E90CC
:1000E300014B78DB79038015E493A3AD82AE838A59
:1000F300828B83F0A3AA82AB838D828E83D8E9D9C6
:10010300E77582D47583FE740312012C7582917591
:100113008300740012012C75D00075817F7518015E
:10012300751903759F00020096C09FF59FE473D075
:100133009F22D083D082C09FE493C0E0740193C018
:10014300E0740293F59F220101030507FFFE778800
:100153001299324114242536010201060302E0FFFD
:100163002A2A5049534345532D42543130302A2AC9
:1001730000000000000D095049534345532D4254DC
:100183003130300512790400007F040D09504953C2
:100193004345532D4254313030051202534A004F28
:1001A3004B00000000000000000000000000000001
:1001B300534A00000000000000000000000000009F
:1001C3004357000000000000000000000000000092
:1001D3004357000000000000000000000000003052
:1001E30030303030303030FF0000B40000280028B9
:1001F30000283075A000A000A000A000000800089F
:10020300E001F000100010001000100010001000BA
:1002130050005000500010001000D00700000000F4
:1002230000000F00010005003075070010000100F9
:1002330081FF00000000FF8F06AD069506FF020256
:100243000208025000A0000000E80302AC95010080
:10025300008D9502A895010000400F02A4950100AE
:1002630000B20302A895010000410F02A29501000C
:1002730000C80302A895010000420F02A0950100E7
:1002830000CA0302A895010000430F029E950800CF
:1002930000CB0302A895010000440F029C950100C6
:1002A30000450FFF0100FF2002AC9501000090956F
:1002B30002A895010000A90F02AE950000000000FE
:1002C30002A69503000018048F0C8F0C8F0C8F0C63
:1002D3008F0C8F0C8F0C8F0C8F0C8F0C8F0C8F0C43
:1002E3008F0C230F3B0F1D0F0202020202020202B8
:1002F30002010D000000100102AC9501000093956E
:1003030002A895010000EA0F02C4950100003F080E
:1003130002A895010000EB0F02C295010000A4940E
:1003230002A895010000EC0F02C09501000088941B
:1003330002A895010000ED0F02BE950100005F9237
:1003430002A895010000EE0F02BC95010000A792E0
:1003530002A895010000EF0F02BA95010000719207
:1003630002A895010000F00F02B8950100008392E6
:1003730002A895010000F10F02B6950100007A94DE
:1003830002A895010000F20F02B495010000F30FDB
:1003930001E803053F100A0A160A0A02AC95010098
:1003A30000969502A895010000991002CC950300D0
:1003B30000570902A8950100009A1002CA9503008C
:1003C30000670902A695030000780902A8950100B9
:1003D300009B1002C8950300007E0902A895010046
:1003E300009C1002B2950300008E09FFFFFF00017D
:1003F3003075030201060000000000000000000049
:1004030000000000000000000000000000000000E9
:100413000000FFFF0600800CE8033030303030303E
:100423003030120135C5FF02120135D9FF02120126
:1004330035DBFF02120135E0FF021201356C2B00A0
:10044300120135B82B00120135C62B00120135718C
:100453002C00120135952D00120135162E001201C4
:10046300359E30001201354E3400120135FE350041
:10047300120135384700120135164F001201357B42
:100483005000120135085C00120135495C0012016D
:1004930035D2F703120135E9F7031201351AF803D0
:1004A30012013555F8031201357FF803120135A9FE
:1004B300F803120135C0F803120135D7F80312010E
:1004C30035EEF80312013517F9031201352AF90342
:1004D30012013540F90312013553F9031201357A3C
:1004E300F903120135D38C03120135D78D031201A1
:1004F300350F8E03120135328E031201353D8E0303
:10050300120135608E031201356F8F0312013544DA
:100513009003120135BF9003120135479103120175
:1005230035829103120135B99103120135479203C4
:100533001201352093031201358093031201358B89
:1005430093031201350A94031201350D940312012A
:10055300351094031201359F9403120135A29403BD
:10056300120135D29403120135FC9403120135EACA
:1005730095031201359C9603120135C7BD03120181
:1005830035EFBD031201351DBE0312013554BE0301
:10059300120135B2BE03120135FDBE031201354807
:1005A300BF0312013588BF03120135CEBF03120109
:1005B30035FCBF03120135B9C003120135C3C003B3
:1005C300120135D0C00312013503C103120135CF27
:1005D300C103120135DBC103120135F3C10312015B
:1005E30035FDC103120135DA8104120135E88104B6
:1005F300120135008204120135188204120135C03C
:100603009F021201356CA002120135E7A00212010C
:100613003508A20212013544A202120135EDA202ED
:10062300120135D4A30212013538A5021201358F08
:10063300A50212013510A60212013500A70212010C
:10064300354DA702120135D3A70212013505A802C1
:1006530012013519AA021201355BAA02120135797A
:10066300AA02120135FCAA02120135D0AB02120113
:100673003598AC021201359AA6031201356DA70312
:1006830012013516A80312013569A80312013519A1
:10069300A903120135A5A90312013591AA03120179
:1006A30035C0AA03120135D3AB031201351BAC03CA
:1006B300120135F0AC031201352CAD03120135489C
:1006C300AD031201357985041201359DDB03120157
:1006D30035B3DB03120135D9DB03120135F5DC0336
:1006E300120135FFDC0312013534DE031201352C10
:1006F300DF03120135A0B803120135D0B90312018B
:100703003503BA031201354DBA0312013514BC0384
:100713001201350080021201356A8002120135C9C7
:100723008102120135D981021201350682021201BA
:10073300355D82021201350683021201350D8402F2
:10074300120135D784021201353786021201357A38
:1007530086021201351F87021201356C87021201CE
:1007630035928702120135A08902120135A589024B
:10077300120135AA8B02120135F78B021201356A79
:100783008C021201359D8C021201353F8D0212013C
:1007930035E88D02120135208E02120135238E02B7
:1007A3001201356B8E02120135AB8E021201350236
:1007B3008F02120135E8EB0312013500EC0312013D
:1007C3003548EC031201355EEC03120135A5EC0349
:1007D300120135B9ED0312013546EE0312013591CD
:1007E300EE03120135855D00120135915D001201A2
:1007F30035CC5D00120135115E00120135D15E006A
:10080300120135575F00120135835F00120135BCB9
:100813005F00120135FA6100120135DE6300120137
:1008230035C46500120135076700120135556900AB
:10083300120135676A00120135B26B00120135C22D
:100843006C00120135DF6C001201351A6D001201C4
:10085300353C6D001201359F6D0012013560720049
:10086300120135F572001201354673001201356D20
:100873007300120135BF7300120135DD73001201DD
:1008830035377400120135367500120135BA75001B
:1008930012013542B3031201354CB3031201358FF4
:1008A300B303120135AAB3031201353AB40312019B
:1008B3003562B4031201359FB403120135D6B40374
:1008C300120135FFB40312013574B50312013589E2
:1008D300B5031201359EB503120135CFB5031201DD
:1008E30035E3B50312013508B60312013542B603E9
:1008F3001201356EB603120135A6B6031201350592
:10090300B70312013584B703120135AFB7031201E0
:1009130035DAB70312013523B8031201354DB80395
:1009230012013578B803120135B8FC031201350002
:1009330080031201352E80031201357C81031201DD
:10094300355C82031201357B8203120135F8820381
:100953001201353B83031201359184031201355291
:100963008503120135D987031201357A88031201F1
:10097300357089031201356D8A03120135C78B0364
:10098300120135528C031201358A7E00120135F3B0
:100993007E00120135477F001201356E7F00120180
:1009A300359F7F0012013501C7031201356EC7035E
:1009B300120135B5C703120135CDC803120135C97C
:1009C300C903120135ACCA031201352176001201A5
:1009D300356376001201353577001201350E780044
:1009E300120135087900120135EA790012013553F5
:1009F3007A00120135097B001201357D7B0012015B
:100A030035E97B00120135127C001201358C7C0024
:100A1300120135257D001201358A7D001201359FB3
:100A23007D00120135E57D00120135FE7D001201C6
:100A330035637E00120135667E00120135EFE8034F
:100A430012013517E90312013555E9031201351374
:100A5300EA031201357AEA0312013596EA03120119
:100A630035BEEA03120135EEEA03120135FDEA034E
:100A73001201357AEB03120135A0EB031201351590
:100A8300EB01120135F3EC0112013525EF011201DF
:100A93003561EF011201358EEF0112013578F00156
:100AA300120135C3F0011201350EF1011201352097
:100AB300F10112013560F10112013595F1011201C5
:100AC30035E3F10112013512F20112013535F2015C
:100AD30012013582F20112013507F30112013521AA
:100AE300F50112013560F701120135A1F701120179
:100AF3003543F90112013584F901120135F7F90182
:100B030012013548FA0112013523FB011201354D5B
:100B1300FB0112013582FB01120135ADFB0112010C
:100B23003582E70212013580E80212013519EF021E
:100B33001201353AF10212013505F3021201356D46
:100B4300F402120135DC95011201358B9601120175
:100B530035B89601120135FE96011201353498011C
:100B6300120135629801120135F8990112013572AB
:100B73009A011201358D9A01120135089B01120168
:100B830035629C01120135C29D01120135C89E01D7
:100B930012013529A00112013542A001120135A02D
:100BA300A0011201358EA101120135C1A10112016B
:100BB3003531A201120135ABA201120135F5A201B3
:100BC300120135BFA30112013594A401120135733B
:100BD300A501120135FEA5011201356CA601120112
:100BE30035E0A6011201350BA701120135CAA70191
:100BF3001201352FA9011201354CA9011201356BE0
:100C0300A9011201355CAA0112013581AA01120161
:100C130035ABAA0112013526AB0112013580AB01B8
:100C2300120135E9AC0112013597AD01120135D836
:100C3300AD011201351DBD021201356BBD0212015A
:100C43003577BD0212013555BE0212013586BE024B
:100C5300120135B7BE0212013537BF02120135B595
:100C6300BF02120135EDBF021201353FC00212016E
:100C7300357CC00212013599C202120135BFC4028C
:100C8300120135AAC60212013594C802120135F7C2
:100C9300FF0212013517C30112013547C3011201C7
:100CA3003520CA01120135A5CB01120135A2D101AC
:100CB3001201358AD201120135C7D201120135EA78
:100CC300D2011201351BD30112013524D3011201C4
:100CD300352ED3011201351CD40112013512D50171
:100CE30012013508AE0112013507B2011201350DAB
:100CF300B20112013548B90112013561BE01120179
:100D030035CFD70312013565D8031201357BD803DC
:100D1300120135F1D80312013565D903120135A348
:100D2300D90312013517DA0312013590DA031201E0
:100D33003599DA03120135A5DA03120135BADA035C
:100D4300120135F8DA031201350EDB031201356D9A
:100D5300DB031201356ECB031201357BCB0312018A
:100D63003595CB03120135D4CB0312013512CC03D5
:100D730012013577CC031201358CCC031201359760
:100D8300CC03120135A4CC03120135BBCC031201F1
:100D930035C9CC03120135D4CC03120135E0CC03A1
:100DA300120135EFCC03120135FACC031201351DC4
:100DB300CD03120135C4CD03120135D4CD03120185
:100DC30035EECD031201350BCE0312013527CE03C9
:100DD3001201354CCE0312013557CE031201356C87
:100DE300CE0312013580CE03120135E1CE03120189
:100DF30035E7CE03120135EDCE03120135F3CE03F1
:100E03001201350BCF031201353ECF0312013574A6
:100E1300CB02120135F8CB02120135A7CC02120125
:100E23003506CE0212013527D00212013513D10245
:100E330012013548D1021201356AD1021201351966
:100E4300D20212013511D4021201353AD402120131
:100E530035CCD402120135FED4021201350BD50272
:100E630012013562D50212013588D502120135F51A
:100E7300D702120135F8D80212013550D9021201F6
:100E830035B1AE02120135BBAF02120135A2B00279
:100E9300120135ACB002120135CEB002120135DABF
:100EA300B00212013573B202120135A2B20212016D
:100EB30035BEB30212013517B4021201357DB502F6
:100EC3001201355CB602120135B8B602120135259E
:100ED300B70212013560B7021201359FB702120142
:100EE3003558BA0212013572BA02120135FEBA023E
:100EF3001201350CBB0212013565BB0212013573B9
:100F0300BB02120135E6BB021201354ABC021201D3
:100F13003594BC0212013597F402120135B9F4027B
:100F2300120135DFF602120135F4F9021201350C14
:100F3300FB02120135BFFB02120135A1FC021201B3
:100F4300358CF903120135B1F90312013523FA0384
:100F5300120135209F03120135299F0312013532F7
:100F63009F0312013509A003120135BAA10312012F
:100F730035F0A1031201352AA20312013560A20341
:100F83001201359AA203120135CEA203120135FADA
:100F9300A20312013543A3031201357DA3031201FA
:100FA30035C6A3031201351EA40312013553A4034E
:100FB300120135AEA403120135E8A4031201353939
:100FC300A5031201356FA503120135A9A50312016B
:100FD30035D7A503120135FAA50312013588830419
:100FE300120135B483041201350F8404120135193B
:100FF3008404120135298404120135DBE50312014F
:101003003500E6031201352AE60312013595E203A2
:10101300120135B0E203120135DFE203120135F4A8
:10102300E203120135FAE20312013500E303120170
:10103300352DE30312013552E30312013569E3034E
:101043001201357EE303120135D2E3031201354B5E
:10105300E4031201356BE403120135A58604120182
:10106300352AD70112013582D9011201353EDB0140
:101073001201352BDC01120135B9DC0112013539BE
:10108300DD011201355EDD011201356FE001120150
:1010930035EBE001120135DAE10112013512E2010B
:1010A30012013555E20112013501E40112013556F1
:1010B300E401120135A3E40112013515E501120122
:1010C300353BE50112013555E5011201356AE601AB
:1010D3001201357AE601120135A1E701120135C388
:1010E300E701120135F9E70112013585E901120122
:1010F30035C4E901120135F0EA011201353B8404DC
:10110300120135D384041201355C86041201359B28
:101113008604120135458704120135B18204120198
:1011230035C18204120135D0820412013582830451
:10113300120135D1FD0312013555FE03120135BBF2
:10114300FE03120135CFFB0112013506FC0112012A
:101153003510FC0112013518FC0112013584FC0124
:10116300120135E6FD01120135BBEE031201350A0A
:10117300EF03120135DFEF0312013526F0031201ED
:1011830035ADF00312013526F10312013529F103C0
:10119300120135F9FF01120135FCFF011201353649
:1011A300DF0312013589DF03120135D8DF03120192
:1011B30035E5DF03120135FADF0312013539E003A8
:1011C30012013578E00312013502E1031201354FB4
:1011D300E10312013510E203120135F87F00120119
:1011E300359EF30312013526F50312013587F50306
:1011F300120135CDF503120135BBCF0312013500C2
:10120300D0031201351DD003120135F0D0031201B2
:101213003556D1031201352FD203120135B8D3034A
:10122300120135EA8604120135FD860412013501E7
:1012330087041201350387041201350C8704120158
:1012430035158704120135208704120135258704DB
:10125300120135EF8F021201350E9002120135E5AE
:101263009002120135399102120135C19102120126
:1012730035499202120135AA9202120135259302D1
:10128300120135AD93021201351B94021201355040
:101293009402120135859402120135179502120149
:1012A300359F950212013527960212013595960254
:1012B3001201351D9702120135A797021201352F2E
:1012C30098021201358398021201350D9902120119
:1012D30035959902120135109A02120135A79A0227
:1012E300120135FB9A02120135769B021201350871
:1012F3009C021201355C9C02120135B09C02120162
:1013030035539D02120135729D02120135949D02DF
:10131300120135CE9D02120135229E021201358340
:101323009E02120135F19E02120135459F02120100
:1013330035FA80041201351C8104120135458104FC
:101343001201355D81041201359F8104120135BDFF
:10135300AD03120135C7AD0312013507AE03120108
:101363003550AE031201358AAE03120135E4AE03E4
:1013730012013503AF031201350CAF031201355DC2
:10138300AF0312013586AF0312013590AF0312018B
:1013930035FCAF031201358AB003120135E3B00304
:1013A30012013511B10312013591B103120135D484
:1013B300B1031201350FB20312013521B203120139
:1013C3003540B20312013549B20312013516B30396
:1013D300120135FD850412013531FB0312013586F7
:1013E300FB03120135F4FB0312013564FC03120104
:1013F3003533F1031201355DF10312013532F20386
:1014030012013526F303120135008004120135D091
:10141300F50312013506F6031201353FF6031201F7
:101423003598F703120135DE8404120135F4840480
:10143300120135FE84041201354885041201350D6D
:101443009703120135CA9703120135059803120158
:10145300352D98031201358F9803120135DB98035C
:101463001201353F9903120135B99903120135BBB6
:101473009A031201356E9C03120135F09C0312018D
:1014830035559D031201356C9D03120135759E037D
:10149300120135B39E0312013584C2031201359D37
:1014A300C2031201353EC3031201357EC303120189
:1014B3003597C303120135CAC30312013517C40399
:1014C3001201354BC4031201358DC4031201359744
:1014D300C6031201359ED90212013527DD0212011E
:1014E30035AFDE0212013506DF0212013525DF02B8
:1014F300120135A3DF0212013541E1021201352544
:10150300E2021201350FE602120135DFE602120193
:1015130035F1D3031201353AD403120135F0D40364
:1015230012013518D5031201359BD5031201350C71
:10153300D603120135F6D60312013531D703120152
:1015430035E57F00120135EE7F00120135D1FF032F
:10155300120135278704E066701008A3E066700A5D
:1015630008A3E066700408A3E06622C3E7960809AF
:10157300E7960809E7960809E79622C3E09608A3C9
:10158300E09608A3E09608A3E09622C008C3E0967D
:10159300F50808A3E096420808A3E096420808A3CA
:1015A300E09645087001D3D00822080808EAC0E095
:1015B300EBC0E086F0E7A4FA180986F0E7A42AFA5C
:1015C300180986F0E7A42AFA180986F0E7A42AFA8C
:1015D3001986F0E7A4FBE5F02AFA190886F0E7A4D8
:1015E3002BFBE5F03AFA190886F0E7A42BFBE5F0AC
:1015F3003AFA18180986F0E7A4C5F02BFBE43AFA87
:101603001908E7C5F0C6A426F6E5F03BFBE43AFA71
:101613001886F0E7A4F6E5F00826F6E43B08F6E4BE
:101623003A08F6D0E0FBD0E0FA22E4CFC0E0E4CE03
:10163300C0E0E4CDC0E0E4CCC0E075F020E626F6DF
:1016430008E633F608E633F608E633F6181818EC1E
:1016530033FCED33FDEE33FEEF33FFC3EC9709EDBF
:101663009709EE9709EF97191919400FFFEC97FCAB
:1016730009ED97FD09EE97FE191906D5F0BFECF7B2
:1016830009EDF709EEF709EFF7191919D0E0FCD0C6
:10169300E0FDD0E0FED0E0FF226016080808C6C3D4
:1016A30013C618C613C618C613C618C613C6D5E084
:1016B300EA227009080808226016181818C6C333EE
:1016C300C608C633C608C633C608C633C6D5E0EA5D
:1016D30022E627F60809E637F60809E637F6080989
:1016E300E637F622E026F608A3E036F608A3E0364E
:1016F300F608A3E036F622E026F008A3E036F00869
:10170300A3E036F008A3E036F022C3E697F6080913
:10171300E697F60809E697F60809E697F622C3E086
:1017230096F008A3E096F008A3E096F008A3E096ED
:10173300F022E657F60809E657F60809E657F608D1
:1017430009E657F622E056F608A3E056F608A3E0AA
:1017530056F608A3E056F622E056F008A3E056F04A
:1017630008A3E056F008A3E056F022E0F608A3E051
:10177300F608A3E0F608A3E0F622E6F008A3E6F0F5
:1017830008A3E6F008A3E6F022E0FAA3E0FBA3E057
:10179300FCA3E0FD22EAF0A3EBF0A3ECF0A3EDF051
:1017A30022E0F8A3E0F9A3E0FAA3E0FB22E8F0A328
:1017B300E9F0A3EAF0A3EBF022CAC0E0E6F0A30845
:1017C300DAFAD0E0FA22CAC0E0E0A3C582CCC5822F
:1017D300C583CDC583F0A3C582CCC582C583CDC5E2
:1017E30083DAE6D0E0CA22C3E498F8E499F9121840
:1017F3002B8026C3E49AFAE49BFBE920E7E912185D
:101803002BE498F8E499F922C3E498F8E499F912DF
:10181300182BE498F8E499F9C3E49AFAE49BFB22C1
:10182300EB20E7CFE920E7E0B90010BB0008E88A26
:10183300F084F8AAF022E4FBC8FA22EB70227B10B2
:10184300C833C8C933C9335007C39AC3DBF2800610
:101853009A50012ADBEAC833F4C8C933F4C9FA221F
:1018630075F008E4C833C8C933C933C99AC99B5052
:1018730004C92AC93BD5F0ECFBC833F4C8E4C9FA60
:1018830022600D08C6A2E713C618C613C6D5E0F337
:1018930022600C08C6C313C618C613C6D5E0F422CB
:1018A300700422600D18C6C333C608C633C6D5E01C
:1018B300F41822251810AF08F518400C15198008E4
:1018C300F51840021519D2AF2200C0D0251810AF69
:1018D30008F518500C05198008F51850020519D29F
:1018E300AFD0D0222518F58210AF08F518400C159B
:1018F300198008F51840021519D2AF8519832225DE
:1019030018F582E43519F583222518F8E43519F919
:10191300222518FAE43519FB222518FCE43519FDB4
:1019230022E4732518C582C0E0E51934FFC583C0DE
:10193300E0E518C3958224F810AF088583198582E2
:10194300188008858319858218D2AFCEF0A3E520CD
:10195300F0A37808E608F0A3DEFAEFF0A3E581240C
:10196300FAF8E608F0A3E608F0A3E608F0A30808EF
:10197300E608F0A3E608F0A315811581D0E0FED0B8
:10198300E0F8158115811581E8C0E0EEC0E022255D
:1019930018C582C0E0E51934FFC583C0E0E518C36C
:1019A300958224F910AF08858319858218800885EC
:1019B3008319858218D2AFCEF0A3E520F0A378086F
:1019C300E608F0A3DEFAEFF0A3E58124FBF8E608CE
:1019D300F0A3E608F0A30808E608F0A3E608F0A3DE
:1019E30015811581D0E0FED0E0F815811581E8C09E
:1019F300E0EEC0E022851983851882E0A3FEE0A310
:101A0300F5207808E0A3F608DFFAE0A3FFE0A3C01F
:101A1300E0E0A3C0E0E0A3C0E0E0A3C0E0E0A3C037
:101A2300E010AF08858218858319800885821885A0
:101A33008319D2AFD083D0820201328519838518EE
:101A430082E0A3FEE0A3F5207808E0A3F608DFFA1E
:101A5300E0A3FFE0A3C0E0E0A3C0E0E0A3C0E0E0B8
:101A6300A3C0E010AF08858218858319800885829A
:101A730018858319D2AFD083D08222C0D02518C550
:101A830082C0E0E51934FFC583C0E0E518C3958241
:101A930024F310AF0885831985821880088583197C
:101AA300858218D2AFC8F0A3E9F0A3EAF0A3EBF064
:101AB300A37908E709F0A3D8FAECF0A3EDF0A3EEBD
:101AC300F0A3EFF0A3D0E0F0A3D0E0F0A3D0E0F0D8
:101AD300A3E520F0A3E5F0F0A322851983851882FE
:101AE300E0C0E0A3E0F9A3E0FAA3E0FBA37808E0F9
:101AF300F608A3DFFAE0FCA3E0FDA3E0FEA3E0FF0A
:101B0300A3E0C0E0A3E0C0E0A3E0F5D0A3E0F520AC
:101B1300A3E0A3F5F010AF08858319858218800828
:101B2300858319858218D2AFD082D083D0E0F8D0D4
:101B3300E03274048006740280027401C0E0F4048D
:101B43001218E7D0E01217BC2274048004740280D8
:101B530000CCC0E0EDC0E0E518C39CCCAD1950014A
:101B63001D10AF068C188D1980068C188D19D2AFF5
:101B73001217C9D0E0FDD0E0FC22D083D082E9C0A7
:101B8300E0E493A3C386F0C5F095F0F908E493A3CA
:101B930086F0C5F095F0700BE493A3C3994005E973
:101BA300048002A3E475F002A42582F582E5F035F2
:101BB30083F583D0E0F9E493A3C0E0E493C0E0228B
:101BC300D083D082ECC0E0EDC0E0E493A3FCE493C7
:101BD300A3FDED4C600D121C0FEC24FFFCED34FF54
:101BE300FD80EFE493A3FCE493A3FDED4C600D12A1
:101BF3001C4EEC24FFFCED34FFFD80EFD0E0FDD064
:101C0300E0FCE493A3C0E0E493C0E022C0E0C3E4BB
:101C13009396087401939618400FE493667008082E
:101C2300740193661870007019A3A3C3E493960814
:101C33007401939618A3A3400DD0E0D0E0D0E00246
:101C43001BFFA3A3A3A3A3A3D0E022C0E0C0F088FB
:101C5300F0E4936670080874019366187000A8F0A6
:101C6300A3A3700BD0F0D0E0D0E0D0E0021BFFA321
:061C7300A3D0F0D0E02236
:101C7C0074F5121992EAFEEBFFEE2434F8EF3400FF
:101C8C00F988088909EE2435F582EF3400F583E0F4
:101C9C00F8EE2437F582EF3400F583E0F50AEC8595
:101CAC000AF0A4FCAAF0850AF0EDA42AFDE82CF8B1
:101CBC00E43DF97A257B0012182BEA850882850908
:101CCC0083F0F8740758F97401B900028004C33327
:101CDC00D9FCFAE8131313541FF8EE28F8EF34006C
:101CEC00F9E8245DF582E93400F583E05A6008EEEA
:101CFC002434F582EF802CEE2434F582EF3400F599
:101D0C0083E0C0E0EE2436F582EF3400F583E0F595
:101D1C00F0D0E084A8F0EE28F8EF3400F9E824388D
:101D2C00F582E93400F583E0F97F04021A3E74F57C
:101D3C00121992EAFEEBFFEE2434F582EF3400F533
:101D4C0083E0C0E0EE2435F582EF3400F583D0E07B
:101D5C00F08E828F83A3A3A3A3A3A3A3C082C0836B
:101D6C008E828F83A3A3A3A3A3E0F8A3E0F9D0836F
:101D7C00D082E0C398F508A3E099F509EE247FF52D
:101D8C0082EF3400F583E064017069EE2480F58203
:101D9C00EF3400F583E0F8A3E0F98E828F83A3A3E0
:101DAC00A3A3A3A3A3E0FCA3E0FD8E828F83A3A334
:101DBC00A3A3A3E0FAA3E0FBC3EA9CEB9D5010C3E2
:101DCC00EC98ED99402EC3EA98EB995027800EC3FE
:101DDC00EA98EB994007C3EC98ED9940177CDB7DB2
:101DEC0005EEFAEFFB120BE7EE247FF582EF3400E1
:101DFC00F583E4F0EE2434F8EF3400F9E8FCE9FD67
:101E0C00EE2435F582EF3400F583E0F8EE2437F557
:101E1C0082EF3400F583E0F50AE508850AF0A4F5B5
:101E2C0008AAF0850AF0E509A42AF509E82508F8BE
:101E3C00E43509F97A257B0012182BEA8C828D8304
:101E4C00F0F8740758F97401B900028004C333D94F
:101E5C00FCFAE8131313541FF8EE28F8EF3400F9CA
:101E6C00E8245DF582E93400F583E05A6008EE243D
:101E7C0034F582EF802CEE2434F582EF3400F583B8
:101E8C00E0C0E0EE2436F582EF3400F583E0F5F0A7
:101E9C00D0E084A8F0EE28F8EF3400F9E82438F507
:101EAC0082E93400F583E0F9122AB7021D35C082AD
:101EBC00C083851882851983E0F8A3E0F9C3EA9CF6
:101ECC00EB9D5010C3EC98ED99401BC3EA98EB992D
:101EDC005014800EC3EA98EB994007C3EC98ED9927
:101EEC004004790180027900D083D08222EAC39C1D
:101EFC00FAEB9DFB2274EF1219929004A1E0640896
:101F0C006005E06407702A9061C8E060249004CFFB
:101F1C00E0F4601DE0F875F003A4C8AAF02AF97487
:101F2C00D128FE740439FF8E828F83A3A3A3E070A3
:101F3C0003022031906060E0C0E0EE2468F582EF8F
:101F4C003400F583D0E0F0750C44750D067508006F
:101F5C00750900E5D914F50AE5D95403F50E601797
:101F6C007403650E605CE50A6010EE2467F582EF81
:101F7C003400F583E0700302201690063FE0640104
:101F8C00602AEE2482F582EF3400F583E060047859
:101F9C000480027800850A08E508C398FA95E0FBEE
:101FAC00120A918A088B09EA45097005120DF18015
:101FBC0074EE2482F582EF3400F583E070048A0C11
:101FCC008B0DE50A6012850C82850D83F50BE5D926
:101FDC00F0A3150BE50B70F6EE2482F582EF3400BE
:101FEC00F583E0604474FC250AF50A780C121B3961
:101FFC00AC0AA90EEEFAEFFB120C8974021218CC83
:10200C00E97026AA08AB091213DF793D8E828F8303
:10201C00A3A3A3A3E0FA7B00120965EEFAEFFB126F
:10202C000BFF120C9B790080747403650E6056854F
:10203C000A107511007810121B39AC0CAD0DAA08E2
:10204C00AB09120C6574021218CCEE2468F582EF01
:10205C003400F583E064807004747F8001E0F50C3B
:10206C00780C121B3DE50EF50C780C121B3DA90AE1
:10207C00AC08AD099004CFE0FA7B00120929740278
:10208C001218CC80139004A1E06408600BAC0CAD6A
:10209C000DEEFAEFFB120CF5120DFD79017F0A0221
:1020AC001A3E74F512199274FC1218B6EAFEEBFF84
:1020BC008908A2AFE433F509C2AF806AEE2463F855
:1020CC00EF3400F97A007B00A2AFE433F50AC2AF1B
:1020DC0088828983E0FCA3E0FDEC4D603A8882891C
:1020EC0083E0FAA3E0FB8A828B83E0FCA3E0FD880B
:1020FC00828983ECF0A3EDF08A828B83E4F0A3F069
:10210C0088828983E0FCA3E0FDEC4D700A8882890B
:10211C0083A3A3E4F0A3F0E50AA2E092AF1213DFCD
:10212C009005E2E004F0EE2463F582EF3400F583D1
:10213C00E0F8A3E0F9E849603DEE2463F582EF3462
:10214C0000F583E02402FAA3E03400FBEA2402F554
:10215C000AEB3400F50B780A121B398A828B83E068
:10216C00FCA3E0F9EEFAEFFB120C2374021218CC6C
:10217C00E970030220C89005E2E060639005E3E09B
:10218C00F89005E2E0C398500C740265087050900A
:10219C0005E4E0604A8E828F83A3A3A3A3E0851895
:1021AC0082851983F0A3E4F09005E2E0F874021242
:1021BC001902E8F0A3E4F09005E2E0F89005E1E004
:1021CC0028F07402121902AC82AD8385188285192D
:1021DC0083AA82AB8379011209359005E2E4F0E51C
:1021EC0009A2E092AF74041218CC021D3500000055
:1021FC008521878522C622C0E0C0D0E8C0E0E9C0B6
:10220C00E0EAC0E0EBC0E0ECC0E0EDC0E0EEC0E026
:10221C00C008C009C00AC00BC082C083C0F0A2AF06
:10222C00E433FEC2AF759B00906182E0A2E05012D5
:10223C00E591A2E0500C7591FE74016521700312BA
:10224C001F01E0A2E55051E591A2E5504B7591DFDD
:10225C009004A1E064076005E064087023740165D4
:10226C0021703579019004CFE0FA75F003A4CAA867
:10227C00F028FB74D12AFA74043BFB1220AE8018B0
:10228C00E0640D70139004C3E004F064287002E461
:10229C00F07A00E0F9120E03906182E0A2E64003AE
:1022AC0002234AE591A2E6400302234A7591BF90AE
:1022BC0004A1E064057008120D2B120D3780031277
:1022CC000D31752100120D91E99004A2F0790012E4
:1022DC000D85120B577A017B009004A0E0F91213C4
:1022EC00A9907803E064427055900643E014F070B6
:1022FC004DC2AF12230200782AD0E0F618D0E0F6D7
:10230C00E59F540770057509FF800375097FC4C0EC
:10231C00E07829E6F50808E65509F509740B780804
:10232C00121894D0E02508F8906270E0A2E740F80B
:10233C00E8C333906272F0906270E0D2E0F090618A
:10234C0081E0A2E35009E5E9A2E3500375E9F7A3A4
:10235C00E0A2E75009E591A2E7500375917FEEA248
:10236C00E092AFD0F0D083D082D00BD00AD009D07D
:10237C0008D0E0FED0E0FDD0E0FCD0E0FBD0E0FAED
:10238C00D0E0F9D0E0F8D0D0D0E032C0E0C0D0C07E
:10239C0082C083906183E0A2E05009E5BFA2E050C7
:1023AC000375BFFEE0A2E15009E5BFA2E150037541
:1023BC00BFFDE0A2E25009E5BFA2E2500375BFFBEE
:1023CC00E0A2E35009E5BFA2E3500375BFF7E0A21A
:1023DC00E45009E5BFA2E4500375BFEFE0A2E5505D
:1023EC0009E5BFA2E5500375BFDFE0A2E65009E5A1
:1023FC00BFA2E6500375BFBFD083D0828088C0E0F7
:10240C00C0D0E8C0E0E9C0E0EAC0E0EBC0E0ECC05E
:10241C00E0EDC0E0C0F0E5A7A2E6500FE5A1A2E612
:10242C00500953A7BF75A1BF12246FE5A7A2E550B1
:10243C000CE5A1A2E5500653A7DF75A1DFE5A7A225
:10244C00E15009E5A1A2E1500375A1FDE5A7A2E2C7
:10245C00500CE5A1A2E2500653A7FB75A1FBD0F0EE
:10246C0002238074F81219927521019004A1E06482
:10247C00067015120CB98A828B83A3A3A3A3A3A302
:10248C00E0FAA3E0FB120D19A2AFE433FED2AF9039
:10249C0004A7E0640170187A207B009004A0E0F996
:1024AC001214BD7A207B009004A0E0F91213AF90B7
:1024BC006182E0D2E6F0900640E0602185C6228081
:1024CC00169004A6E064017008E5C654F84405F5BE
:1024DC00C653BEFC1221FC7401652160E4EEA2E03F
:1024EC0092AF7F01021A3E008E238F2485822885AD
:1024FC008327851882851983E0CEA3E0CF852882B7
:10250C00852783EBC9EAC8EDCBECCA75F010C3E89C
:10251C0033C8E933C9EA33CAEB33CBC3EA9EF52699
:10252C00EB9FF525B35004AB25AA26EC33CCED3349
:10253C00CDD5F0DAAE23AF242274E912199274F8D7
:10254C001218B6851882851983ECF0A3EDF08A0871
:10255C008B099004A1E024F7C3940550067508017B
:10256C000226DC120CB98A0A8B0BAE0AAF0BEE4FAB
:10257C0070030226D9AC08AD097402121902AA82A2
:10258C00AB83120D498E828F83A3A3750CFF750D3F
:10259C00FF750EFF750F00780C1217487402121994
:1025AC00027510FF7511FF7512FF7513007810126C
:1025BC001748780C791012156E502A780C79101275
:1025CC00170D7508017509C8750A00750B00780898
:1025DC00790C12156E5052850C08850D09850E0A62
:1025EC00850F0B80507514017515C875160075177D
:1025FC000085100885110985120A85130B78087956
:10260C000C12170D7814790812156E401C75080001
:10261C00750900750A00750B017808791012170DF1
:10262C007808790C1216D4800C75080175090075A0
:10263C000A00750B00740978081216B5750C19F59B
:10264C000DF50EF50F7808790C12162D8E828F83EE
:10265C00A3A3A3A3A3A3E0F8A3E0F97AD07B03126E
:10266C00182B880C890DE4F50EF50F7808790C12EF
:10267C0016D47406121902E0F8A3E0F97AD07B03A1
:10268C0012182BE8FA8A0CE4F50D7808790C12155F
:10269C006E50077808790C12170D9004A1E06408AD
:1026AC00600AE064066005E06405702D750C0D7819
:1026BC000C790812156E4021750CF4750DFF750E12
:1026CC00FF750FFF7808790C1216D4800C75080072
:1026DC00750900750A00750B00851882851983E051
:1026EC00F8A3E0F5838882780812177D7408121815
:1026FC00CC7F10021A3E74F7121992120D5B9006E1
:10270C003EE064017010906245E4F0A3F053F4F3E2
:10271C0043FE0C5390F3120D07E5C654804449F563
:10272C00C6E59E547F644970F8906185740FF090F3
:10273C00063CE0F47002A3E0604E90063DE06008B9
:10274C0014601B14602E80407508017509009006FA
:10275C003CE078081218A3E508F45280802A75082A
:10276C000175090090063CE078081218A3E508F4FE
:10277C005290801475080175090090063CE07808A9
:10278C001218A3E508F452A079007F02021A3E74D5
:10279C00F7121992E9FEEAFF74016E700C7A807BD5
:1027AC00009004A0E0F91213A9902B64E493F46058
:1027BC0008E493F9120B4B800953C680E59E547FB5
:1027CC0070FA120D0D90063EE064017003120B6955
:1027DC0090063CE0F47002A3E0604B90063DE06094
:1027EC000814601A14602C803D750801750900905E
:1027FC00063CE078081218A3E5084280802875088A
:10280C000175090090063CE078081218A3E508420F
:10281C0090801375080175090090063CE078081249
:10282C0018A3E50842A0120D5B120CB98A088B099B
:10283C00A808A909E8496015E5E170FCE82414F53D
:10284C0082E93400F583E0F46003E0F5E174016F94
:10285C00700A7A019004A0E0F912143302279674DE
:10286C00ED1219928A088B098C0A8D0B74131219AC
:10287C0002780C12176E7808790C12156E7510010F
:10288C007511C875120075130050127808790C1266
:10289C00170D7810790812156E50168010780C7977
:1028AC000812170D7810790C12156E4004790180FE
:1028BC000279007F0C021A3E74ED1219928A088B71
:1028CC00098C0A8D0B7413121902780C12176E787E
:1028DC000C790812156E40117808790C12170DAA94
:1028EC0008AB09AC0AAD0B80227510007511007590
:1028FC0012007513017810790C12170D78107908E5
:10290C001216D4AA10AB11AC12AD1380A68A828B0E
:10291C00837508FF7509FF750AFF750B007808129F
:10292C00175B7F04021A3E74F51219928C828D8308
:10293C00780812176E8A828B837808121721EA2482
:10294C0004F8EB3400F98C828D83A3A3A3A3E0FCE1
:10295C00A3E0FD88828983C3E09CF0A3E09DF0880E
:10296C00828983C3E09420A3E0944E40268A828B14
:10297C00837508FF7509FF750AFF750BFF78081240
:10298C0016FA8A828B83A3A3A3A3E02420F0A3E0EE
:10299C00344EF002291974F5121992E9FE9005F6DD
:1029AC00E0FAA3E0FBEEC333F8E433F9743D28F509
:1029BC0082749439F583E02AF508A3E03BF5097895
:1029CC0008121B397A407B427C0F7D001224F47470
:1029DC00021218CC8A088B098C0A8D0B741078089B
:1029EC0012169CAA08AB097F04021A3E74F1121944
:1029FC00928A0C8B0D8C0E8D0F740F121902E0FA4B
:102A0C00A3E0FB7411121902E0F508A3E0F50978B4
:102A1C0008121B39EA2401F508EB3400F509E4F53A
:102A2C000AF50B780C79081215AD75087175090249
:102A3C00780C79081215ADAA0CAB0DAC0EAD0F12BB
:102A4C0024F474021218CC8B09EA450960047A014B
:102A5C0080027A00EC2AFCED3400FD74131219028A
:102A6C00E0F8A3E0F9E8FEE9FFECF8EDF97A717B08
:102A7C000212182B880889098E828F837808121706
:102A8C007DECF8EDF97A717B0212182B8A088B0910
:102A9C00740578081218A38E828F83A3A3A3A3E5D1
:102AAC0008F0A3E509F07F08021A3EC082C083E952
:102ABC00906000F0D083D08222C0E074F2121A7EB3
:102ACC00A2AFE433FED2AFE589A2E04012E589A2C1
:102ADC00E1400CE589A2E24006E589A2E35003122D
:102AEC001181900305E064017009E589A2E55003AA
:102AFC00121181758900C2C5751A00EEA2E092AF61
:102B0C007F01021ADDC0E074F2121A7EA2AFE43328
:102B1C00FED2AFE58AA2E44006E58AA2E550031294
:102B2C001181758A00C2EB80CFC0E0C0D0E8C0E054
:102B3C00E9C0E0A9A8D2AFC2C7751A00E9A2E7E4C0
:102B4C0033F8E9A2E792AFD0E0F9D0E0F8D0D0D0DA
:102B5C00E032C2AF02000022FFFFFFFFFFFFFFFFCA
:102B6C00C082C08390780E122BAEA3F090780F1217
:102B7C002BAEF0907810122BA7A3A3F09078111223
:102B8C002BA7A3F0907812122BA7F0907813E08A61
:102B9C00828B83F0D083D082020132E08A828B83D5
:102BAC00A322E08A828B83A3A3A3A322AABDA8BCE1
:102BBC0075B437EAFBE8FA02013274F41219268A6A
:102BCC00088B097A107B0012141B8A0A8B0BAE0A35
:102BDC00AF0B12043D8E828F83A3A3A3A3A3A37474
:102BEC0010122C5F7407122C5FA37413122C6B74CD
:102BFC000A122C6BA37432F0EE240BF582E43FF531
:102C0C00837414F0EE240CF582E43FF5837402F027
:102C1C00EE240DF582E43FF5837442F0EE240EF5BC
:102C2C0082E43FF583744AF0EE240FF582E43FF51D
:102C3C00837443F07808121B39EEFCEFFD7A4A7B63
:102C4C000E120AB574021218CCEEFAEFFB12142114
:102C5C0002506C122C63221246E6A3A3A3A32212E9
:102C6C002C63A3A32274F412192674E91218B6EA81
:102C7C00FEEBFF7A107B0012141B8A088B09780874
:102C8C00121B397C777D0E7A4A7B0E120AB57402C0
:102C9C001218CC909231AC18AD1974171217C98553
:102CAC000882850983E08518828519831233BCC09C
:102CBC00E07401121902D0E01233C1C0E0740212A8
:102CCC001902D0E01233C6C0E07403121902D0E02E
:102CDC001233CBC0E07404121902D0E0123415C0C8
:102CEC00E07405121902D0E012341AC0E074061216
:102CFC001902D0E0123426C0E07407121902D0E099
:102D0C0012342BC0E07408121902D0E012343DC00A
:102D1C00E07409121902D0E0123442C0E0740A12B5
:102D2C001902D0E012340CC0E0740B121902D0E07E
:102D3C00123403C0E0740C121902D0E01233F1C04B
:102D4C00E0740D121902D0E01233E8C0E0740E12D8
:102D5C001902D0E01233DFC0E0740F121902D0E078
:102D6C00F0AA08AB09121421750817750900780828
:102D7C00121B39740212191CEEFAEFFB1213557464
:102D8C00021218CC741702506974F712192674EFDA
:102D9C001218B69092FDAC18AD1974111217C99097
:102DAC00030B7430F0A37478F0780D7903EA2406E1
:102DBC00FA50010B7E06EA24FF1AEB34FFFB8A82E1
:102DCC008B83E0C4122DFDF08A828B83E0122DFDE3
:102DDC00A3F0E82402F85001091EEE70D98882890C
:102DEC0083E4F07A0B7B0374111218CC7F01021967
:102DFC00F8540FFC851882851983E5822CF582E442
:102E0C003583F583E0888289832274F6121926743F
:102E1C00F91218B69094F9740112191C7406121751
:102E2C00C99095D8AC18AD19041217C9A2825003D9
:102E3C0002307E7E008036EE603314603F146049B1
:102E4C00147003022F31147003022F5214700302FA
:102E5C002F31147003022F52147003022FE41470DC
:102E6C000302302514700302305F023074790012B3
:102E7C00142D79011212537A2C02306C7900121134
:102E8C00C91212597A2C022F4A79001211C9121543
:102E9C0047798D12103DE9F8740F58F974F05829E0
:102EAC00C0E07406121902D0E0F0798912103DE9E5
:102EBC00F8740F58F974105829C0E07405121902EF
:102ECC00D0E0F0798712103D123093C0E0740412F8
:102EDC001902D0E0F0798512103D123093C0E074E5
:102EEC0003121902D0E0F0798312103D123088C021
:102EFC00E07402121902D0E0F0798112103D123008
:102F0C0088C0E07401121902D0E0F0740112191497
:102F1C001204558A088B09AC08AD097A00790012A5
:102F2C0011CF02307174011219141204558A088BD6
:102F3C0009AC08AD097A0079001211CF7AF47B0143
:102F4C0012119F023074121547798D12103DE9F859
:102F5C00740F58F974F05829C0E07406121902D095
:102F6C00E0F0798912103DE9F8740F58F974105893
:102F7C0029C0E07405121902D0E0F0798712103DD7
:102F8C00123093C0E07404121902D0E0F07985126B
:102F9C00103D123093C0E07403121902D0E0F079A6
:102FAC008312103D123088C0E07402121902D0E076
:102FBC00F0798112103D123088C0E07401121902B0
:102FCC00D0E0F074011219141204558A088B09AC64
:102FDC0008AD097A000230657401121914120455F7
:102FEC008A088B09AC08AD097A0079001211CF7AE6
:102FFC00F47B0112119FA818A9198808890978086F
:10300C00121B397C017D007AF87B1F12116374024C
:10301C001218CC7A327B008049851882851983E49A
:10302C00F0A818A919880889097808121B397C019D
:10303C007D007AF87B1F12115D74021218CC851872
:10304C0082851983E0640A601FC2AF75C9AB75C96C
:10305C005B80FE7C967D947A0279001211CF7AF413
:10306C007B0112119F1215470EEEC3940A500302F6
:10307C002E4374071218CC7F020219F8E9F8740F6A
:10308C0058F97470582922E9F8740F58F9743058AB
:10309C00292274F412192674D71218B6E9FE7A1084
:1030AC007B0012141B8A088B097808121B397C8D43
:1030BC007D0E7A4A7B0E120AB574021218CC9092CD
:1030CC0048740E12191C74171217C98508828509C9
:1030DC0083E0C0E0740E121902D0E01233BCC0E0E1
:1030EC00740F121902D0E01233C1C0E0741012191F
:1030FC0002D0E01233C6C0E07411121902D0E012F3
:10310C0033CBC0E07412121902D0E0123415C0E0B7
:10311C007413121902D0E012341AC0E0741412198C
:10312C0002D0E0123426C0E07415121902D0E0125D
:10313C00342BC0E07416121902D0E012343DC0E0FA
:10314C007417121902D0E0123442C0E0741812192C
:10315C0002D0E012340CC0E07419121902D0E01243
:10316C003403C0E0741A121902D0E01233F1C0E03B
:10317C00741B121902D0E01233E8C0E0741C12194F
:10318C0002D0E01233DFC0E0741D121902D0E0F05F
:10319C00AA08AB09121421EE900301F07C017D000A
:1031AC007A1F7B0012057B8518828519837401F0C8
:1031BC00740C121902E4F0A3F004121902E4F07476
:1031CC000A1219027408F0A3E4F0740812190274BC
:1031DC000AF0A3E4F07406121902E4F0A3F07404EC
:1031EC0012190274E8F0A37403F0AC18AD1979014C
:1031FC007A05FB1214D5740C12191C79027A067B11
:10320C00031214D5740E12191C79177A087B031249
:10321C0014D57C5B7D0E79077A077B031214D57469
:10322C000112191C79017A107B031214D5740A123D
:10323C00191C79027A117B031214D5740812191C0B
:10324C0079027A127B031214D5740612191C7902B6
:10325C007A137B031214D5740412191C79027A1494
:10326C007B031214D57C627D0E7A1579001206F55B
:10327C007CA07D007A067B0012057B7CA07D007A09
:10328C00077B0012057B7CA07D007A087B00120571
:10329C007B7CA07D007A097B0012057B74251219BA
:1032AC0002124EC90412190274011246EF74031271
:1032BC001902E4F074021219027401F07425121947
:1032CC001C79047A087B04121061740112191C79A0
:1032DC00017A007B04121061AC18AD1979017A02E5
:1032EC007B04121061740312191C79017A037B049C
:1032FC00121061740212191C79017A067B041210E7
:10330C006190954912178C1206FB90954912178CF7
:10331C00120803120FFB90954912178C1211F99099
:10332C000301E0F912133D12154112042512042B6E
:10333C0012122312123B12100D121013121019122A
:10334C0012419095D7AC18AD1974011217C9A81871
:10335C00A919880889097808121B397C017D007A23
:10336C00F07B1F12115D74021218CC85188285191E
:10337C0083E064AA600312048B1211C312045B7AFB
:10338C008B7B0E1211FF79011208FF79021208F9DA
:10339C007900120905790112090B7A017B0090035F
:1033AC0001E0F91213A9790112142D742902506944
:1033BC00125B54E022125B4FE0221233D1E0221256
:1033CC0033D1A3E0221233D5221233D922125B5807
:1033DC00A3A322F0E508240F1233FA22F0E5082407
:1033EC000E1233FA22F0E508240D1233FA22F5827C
:1033FC00E43509F583E022F0E508240C1233FA22B7
:10340C00F0E508240B1233FA22123420E022123495
:10341C0020A3E0221233D5A3A322123431E02212CE
:10342C003431A3E022123435221233D9A3A3A3A33F
:10343C0022123448E022123448A3E022123435A37D
:10344C00A32274F112192674FD1218B6890E9095E8
:10345C008AAC18AD1974031217C97A10FB12141B1D
:10346C008A0A8B0BC2AFA818A91988088909780891
:10347C00121B397C017D007AFE7B1F12115D7402D8
:10348C001218CC74011219028582088583097808F8
:10349C00121B397C017D007AFF7B1F12115D7402B7
:1034AC001218CC74021219028582088583097808D7
:1034BC00121B397C017D007AF07B1F12115D7402A6
:1034CC001218CCD2AF1204378A088B091204378A2F
:1034DC000C8B0DAE0CAF0D1204378A0C8B0DA80C97
:1034EC00A90DC3E5089EE5099F5033C3EE98EF99EB
:1034FC004033C3E50898E509994004AA08AB099044
:10350C000B39EAF0A3EBF0851882851983E060266D
:10351C00F8900B39C3E098F0A3E09400802BC3E83B
:10352C009EE99F5006EEFAEFFB80D4C3E89508E9BC
:10353C00950950C780C97401121902E0F8600B900C
:10354C000B39E028F0A3E03400F0900B39E0F8A33D
:10355C00E0F9C3E8948DE994054022E82474F8E975
:10356C0034FAF9E875F064A4F8AAF075F064E9A4EB
:10357C002AF97ACF7B0112182BE8A38002A3E4F07E
:10358C00900302E0640570577401650E7051850A52
:10359C0082850B837431F0E50A2402F8E4350BF9CB
:1035AC00A3AA82AB8375F00A900B3BE084940A8A41
:1035BC00828B83400A7401F088828983E4801AE448
:1035CC00F0900B3BE0FA75F00A84ABF075F00AEA68
:1035DC0084C454F02B88828983125BA0121205AA32
:1035EC000AAB0B121421796474031218CC7F0702F6
:1035FC0019F874F012192674F91218B6740112190C
:10360C0002EAF0A3EBF07401121902A3E0548060FB
:10361C0041900301E0F91213918A088B09AE08AFAF
:10362C0009EE4F60208E828F83E064C07010A3A3DC
:10363C00A3E0FA8E828F83A3A3E0F9120473EEFA4F
:10364C00EFFB12137F7401121902124723648002DC
:10365C0046D77401121902E0A2E050257A877B0E3E
:10366C001214E17A077B0312107F7A407B009003DF
:10367C0001E0F91213A97401121902E06401024469
:10368C00EF54026041909545121B4C7A027B0090DE
:10369C000301E0F91214B174041218CCA285501B6A
:1036AC00900305E06401701312122F900305E4F0EF
:1036BC0012125912123B900B05E4F074011219020C
:1036CC00E064020244EFE0544070030238EF900EC5
:1036DC005AE060030237877401F0790012142D79D7
:1036EC00AF1211B712132B7C917D0A7A6E7980126E
:1036FC00148D900B40E06037C2AF75088175090BD3
:10370C007808121B39124EF412115D74021218CC87
:10371C007508BF75090D7808121B397C8B7D0090DC
:10372C000AFB124EFB12115D74021218CCD2AF12AE
:10373C0010497A027B00900301E0F91213A99095CD
:10374C0041121B4C7A007B01900301E0F91214B179
:10375C0074041218CC7A007B40900301E0F9121328
:10376C00A990953D121B4C7A407B00900301E0F927
:10377C001214B174041218CC0238E4E41246EF129D
:10378C0014E7AC18AD1979017A057B031214D590A6
:10379C000306E4F0F9121253900B40E06036900BE4
:1037AC001AE41246F8E4F0900B3EF0900B3D04F056
:1037BC00900B05E4F0900B3FF0900B42F07C08FD71
:1037CC0079BB7A1C7B0B12151D900AFFE4F0900B51
:1037DC0001F0800312153B12122F12123B12100D26
:1037EC00900B40E06069900B35E07008900B37E06F
:1037FC0064017015C2AF7C917D0A7A6E79801214C7
:10380C0087D2AF900B35E07008900B37E0640270F4
:10381C003EC2AF75088175090B7808121B39124E20
:10382C00F412116374021218CC7A0A7B0012119FE5
:10383C007508BF75090D7808121B397C8B7D0090BB
:10384C000AFB124EFB12116374021218CCD2AF7A1F
:10385C00087B00900301E0F91214BD7A047B009000
:10386C000301E0F91214BD7A007B02900301E0F928
:10387C001214BD7A007B04900301E0F91214BD7A96
:10388C00007B10900301E0F91214BD7A007B0890C4
:10389C000301E0F91214BD7A007B01900301E0F9F9
:1038AC001214BD7A107B00900301E0F91214BD7A5A
:1038BC00007B40900301E0F91214BD7A027B00906A
:1038CC000301E0F91214BD7A407B00900301E0F98A
:1038DC001214BD790112142D7401121902E0644006
:1038EC000244EFA3E0540270030239BD7A007B025C
:1038FC00900301E0F91214BD7A007B04900301E0FF
:10390C00F91214BD900B07E0700474018001E4F00F
:10391C00900303E4F0900B1BF0900B1A1246F8E0A6
:10392C008518828519836024E4F01214E7AC18AD75
:10393C001979017A057B031214D51212657C0F7D5F
:10394C000079FF7A0A7B0B12151D80587401F01256
:10395C0014E7AC18AD1979017A057B031214D57AEA
:10396C001A7B0312044F7C1A7D0379177A087B03A8
:10397C001214D5909545121B4C7A027B00900301D2
:10398C00E0F91214B174041218CC12127790953914
:10399C00121B4C7A007B20900301E0F91214B174D5
:1039AC00041218CC74011219021247236402024645
:1039BC00D77401121902A3E054047003023ECB9099
:1039CC000B1BE4F0FA7B04900301E0F91214BD9098
:1039DC000B1AE06027147003023A6B147003023B5D
:1039EC0081147003023CA0147003023D0014700398
:1039FC00023DAC147003023E37023E807508087518
:103A0C0009007808121B397C0A7D0B7A917B0A120B
:103A1C00151774021218CCE96014121271900B3C39
:103A2C00E0F912130D900B1A7401F0023EAD900BDD
:103A3C001AE4F012126B124ED894065003023E8018
:103A4C001210497A477B08121055900B2F121798B9
:103A5C007A407B00900301E0F91213A9023E80909A
:103A6C000D45124723F8900B3CE024FE601B1460BC
:103A7C006214606B147003023B08147003023B3D2C
:103A8C00147003023B75023E80EAC3940A4005742D
:103A9C00BB6A70568518828519837401F0900B01EE
:103AAC00F01214E7AC18AD1979017A057B031214E6
:103ABC00D57A317B0312044F7C317D0379177A0858
:103ACC007B031214D512128312128F900B1A7402EC
:103ADC00023B7D900B1A7403F01212A1023E80E897
:103AEC00C3940A400B74BB686006121313023E6940
:103AFC00900B1A7404F01212BF023E80790074BB52
:103B0C006A6035900B1A7405F08908750900740306
:103B1C0078081218A3124EA5600BE9900B3DF01219
:103B2C0012D7023E8009E9C3940A4003023E898001
:103B3C00D87A0074BB687006121319023E69900B98
:103B4C001A7406F0EA75F009A4F8A9F0124F08608F
:103B5C000CEA900B3EF0F91212E9023E800AEAC31D
:103B6C00940A4003023E8980DB1212FB900B1A74FC
:103B7C0008F0023E897A107B0012141B8A088B090C
:103B8C00AE08AF09750800900302E06405600302FB
:103B9C003C798002050885080A750B007403780AC5
:103BAC001218A37491250AFA740A350BFBEA24083F
:103BBC00F8E43BF988828983E0F470D8E508900B2F
:103BCC002B700AE04411125B96D2E78008E0442186
:103BDC00125B964441F088828983E508F0750A07E8
:103BEC00750B00780A121B397C257D0BEA2409FA27
:103BFC0050010B12135574021218CC7C0679007A02
:103C0C00257B0B120485E9F509900B3F7401F0A993
:103C1C0008121295909539121B4C7A007B20900358
:103C2C0001E0F91214B174041218CC900D45E06443
:103C3C00BB700474018002E004F08E828F83742FB9
:103C4C00F0A3E508F0900B2BE08E828F83A3A312D8
:103C5C0046E6E5091250711212057C077D007900C9
:103C6C007A257B0B12151D900B1A7401F0851882A6
:103C7C00851983E4F01214E7AC18AD1979017A05B3
:103C8C007B031214D5EEFAEFFB121421900B01E416
:103C9C00F0023E807508087509007808121B397C03
:103CAC001C7D0B7A0A7B0B12151774021218CCE9C7
:103CBC0060217808121B397C1C7D0B7A917B0A12CF
:103CCC00135574021218CC1212AD900B35E044410E
:103CDC00F080031212B3909535121B4C7A007B20A6
:103CEC00900301E0F91214B174041218CC900B3F3C
:103CFC00740180427E007508088E097808121B3901
:103D0C007C1C7D0B7A0A7B0B12151774021218CCD3
:103D1C00E970391212CB909535121B4C7A007B202E
:103D2C00900301E0F91214B174041218CC900B3DFD
:103D3C007401F0900B3FF0900B1AF07C087D007929
:103D4C00BB7A1C7B0B12151D023E800EEE75F00922
:103D5C00A4F8A9F0748128F8740B39F9E8FAE9FB96
:103D6C008A828B83A3E064BB70E1EEF07808121BAF
:103D7C00397C1C7D0BEA2402FA50010B121355748A
:103D8C00021218CCEEF91212C5900D46E064BB700D
:103D9C000474018002E004125B964444F0023D225C
:103DAC00900B3D124EE91218A374912508F8740A71
:103DBC003509F9E8FAE9FB8A828B83A3A3A3A3A3B1
:103DCC00A3A3A374FFF07C077D007900EA2409FA11
:103DDC0050010B12151D900D45E014F07508067579
:103DEC0009007808121B39900B3DE0F50874037834
:103DFC00081218A3749A2508FC740A3509125BCFB3
:103E0C0012135574021218CC900B7F124EDB9409CE
:103E1C004002E4F0900D45E0700374BBF0900B355C
:103E2C00E044421247031212DD80327C097D00907F
:103E3C000B3EE08CF0A4F8A9F0748228FA740B39CC
:103E4C00FB79BB12151D900D46E014F0700374BB8A
:103E5C00F0900B35E044441247031212EF90953565
:103E6C00121B4C7A007B20900301E0F91214B17400
:103E7C00041218CC900B1AE0C394024024900B014E
:103E8C00E0640170059095118003909515121B4C00
:103E9C007A007B10900301E0F91214B1740412182B
:103EAC00CC900B1BE4F07C0FFD79FF7A0A7B0B1294
:103EBC00151D740112190212472364040246D774AB
:103ECC0001121902E05408604B900AFFE064017083
:103EDC0038900302E064057030900B35E0602A9056
:103EEC000B07E07024900B35E0A2E7401CD2E612E1
:103EFC005B387A9D7B0E120485E9900B2CF07C9D2F
:103F0C007D0E7A0379011212057401121902E06414
:103F1C00080244EFA3E0540870030240D37A007BFC
:103F2C0008900301E0F91214BD900B40E0700302FD
:103F3C0040B67E00EE75F009A4F8A9F0748128F55E
:103F4C0008740B39F509E508245DF50AE43509F523
:103F5C000B750C08750D00780C121B397C0A7D0B47
:103F6C00AA0AAB0B12151774021218CCE9602E902A
:103F7C0003057401F0121235900DC07404F0EEA319
:103F8C00F0E508245CF582E43509F583E4F07C1057
:103F9C00FD79BBAA0AAB0B12151D024068750A0805
:103FAC00750B00780A121B397C0A7D0BE50824027C
:103FBC00FAE43509FB12151774021218CCE96011DA
:103FCC009003057401F0121235900DC0740102407B
:103FDC0064780A121B397C0A7D0BE50824B7FAE4D5
:103FEC003509FB12151774021218CCE960109003F6
:103FFC00057401F0121235900DC07405805A780AC0
:10400C00121B397C0A7D0BE5082411FAE5093401F1
:10401C00FB12151774021218CCE96010900305748A
:10402C0001F0121235900DC07406802C780A121B08
:10403C00397C0A7D0BE508246BFAE5093401FB1287
:10404C00151774021218CCE960209003057401F066
:10405C00121235900DC07407F0EEA3F07A107B00AD
:10406C00900301E0F91213A9804374096E702E12AB
:10407C004ED8940640241210497A477B08121055EA
:10408C00EAF8EBF9ECFAEDFB900B2F1217B07A4033
:10409C007B00900301E0F91213A912126B12154761
:1040AC000EEEC3940A5006023F4012126B7C0F7D39
:1040BC000079FF7A0A7B0B12151D7401121902127A
:1040CC00472364080246D77401121902A3E0540175
:1040DC0070030242321210497A477B081210558A3B
:1040EC00088B098C0A8D0B851882851983E4F0E006
:1040FC00FA8A0C750D007402780C1218A3748125C1
:10410C000CF8740B350DF97405121902E8F0A3E9DB
:10411C00F07405121902E024C6F8A3E03401F9E8A2
:10412C00FCE9FDEA75F009A4FAABF074812AF87485
:10413C000B3BF97403121902E8F0A3E9F08C828DA1
:10414C0083780C12176E909519780C1216E7780C70
:10415C00790812156E402C750C00750D00750E004B
:10416C00750F008C828D83780C12177D7C097D0075
:10417C0079BB7403121902E024B6FAA3E03400FBF5
:10418C0012151D7405121902E024EEF8A3E0340197
:10419C00F9E8FAE9FB8A828B83780C12176E9095FA
:1041AC0021780C1216E7780C790812156E40121251
:1041BC00470F121902E02410FAA3E03401FB121588
:1041CC001D7405121902E02416F8A3E03402F9E874
:1041DC00FAE9FB8A828B83780C12176E90953178F2
:1041EC000C1216E7780C790812156E401212470F54
:1041FC00121902E0246AFAA3E03401FB12151D85A2
:10420C001882851983124ED250030240FB7A007B30
:10421C0001900301E0F91214BD7401121902124746
:10422C002364010246D77401121902E05404601A87
:10423C001214E77A047B00900301E0F91214BD74A8
:10424C0001121902E064040244EFE05420700302EE
:10425C00431F7A207B00900301E0F91214BD909566
:10426C00DAAC18AD1974011217C912124712153BAA
:10427C0012152F121535121529C2AF7C917D0A7AB1
:10428C006E798012148775088175090B7808121BDA
:10429C0039124EF412116374021218CC7A0A7B0094
:1042AC0012119F7508BF75090D7808121B397C8B8C
:1042BC007D00900AFB124EFB12116374021218CC93
:1042CC00A818A919880889097808121B397C017D5E
:1042DC00007AF07B1F12116374021218CC7808124A
:1042EC001B397C017D007AFE7B1F12116374021254
:1042FC0018CC7808121B397C017D007AFF7B1F12C9
:10430C00116374021218CCD2AFC2AF75C9AB75C9A8
:10431C005B80FEE0541070030244F5900B05E00442
:10432C00F014601814607214606714606C1460767A
:10433C0014606E14607014607B0244E71212291230
:10434C00131F1212471215477A007B02900301E0EB
:10435C00F91214BD7A007B10900301E0F91214BD20
:10436C007A007B20900301E0F91214BD90953D1268
:10437C001B4C7A407B00900301E0F91214B17404D9
:10438C001218CC7A027B00900301E0F91214BD8064
:10439C0003121247909545801312124D1215478047
:1043AC000812124D8003121247909541121B4C7A41
:1043BC00100244D812124D121049900B35E04450A3
:1043CC00F0900E49E0C39410400A740FF0900DBFAA
:1043DC00F0121511900DBFE0C0E075F009A4F8A91A
:1043EC00F074B928F582740D39F583D0E0F0900D96
:1043FC00C0E0C0E012472874BA28F582740D39F574
:10440C0083D0E0F0900DC1E0C0E012472874BB28C7
:10441C00F582740D39F583D0E0F0900847E0C0E0E8
:10442C0012472874BC28F582740D39F583D0E0F05E
:10443C00900848E0C0E012472874BD28F582740D3E
:10444C0039F583D0E0F0900849E0C0E012472874B9
:10445C00BE28F582740D39F583D0E0F090084AE05F
:10446C00C0E012472874BF28F582740D39F583D04B
:10447C00E0F090084BE0C0E012472874C028F582A9
:10448C00740D39F583D0E0F090084CE0C0E0124791
:10449C002874C128F582740D39F583D0E0F0900EA4
:1044AC0049E004F0900DBFF0900B2EE4F07A10FB75
:1044BC00900301E0F91214BD7A027B00900301E035
:1044CC00F91213A9909529121B4C7A407B0090038A
:1044DC0001E0F91214B174041218CC74011219020F
:1044EC00E06410FAA3E00246D7A3E05410605E85A6
:1044FC001882851983E4F0FA7B10900301E0F9121D
:10450C0014BD900B07E0700B900B1AE070051212A3
:10451C00598029900B1AE0640270101214E7AC1841
:10452C00AD1979017A057B031214D5124EB8121508
:10453C001D121271900B3CE0F912130D900B1BE441
:10454C00F00412190212472364100246D7740112A8
:10455C001902A3E05440700302467F900B38E0042C
:10456C00F0F87401121902E0FEA3E06440FF74FC41
:10457C0028C39406507C7A027B0B121523E9F508AC
:10458C0012042BE508C39406502D900B38E0A2E0E2
:10459C004008121247121325800312124D909551A8
:1045AC00121B4C7A007B40900301E0F91214B17499
:1045BC00041218CC02467A8518828519837401F08E
:1045CC00F91212531214E7AC18AD1979017A057B64
:1045DC00031214D57A487B0312044F7C487D03796F
:1045EC00177A087B031214D5900B38E4F0900B412A
:1045FC008064E8C39404E850276073120431790096
:10460C00120467900B3BE0C0E0900B38E0F87401AB
:10461C0028F582E4340BF583D0E0F090956180802E
:10462C00C3940A40498518828519837401F01214C9
:10463C00E7AC18AD1979017A057B031214D57A48C9
:10464C007B0312044F7C487D0379177A087B031295
:10465C0014D5900B38E4F07C03FDF97A027B0B1235
:10466C00151D7A007B40900301E0F91214BDEEFA9F
:10467C00EF80587401121902A3E054207A00604EA6
:10468C007B20900301E0F91214BD900B07E0700B36
:10469C00900B1AE070051212598026900B3FE4F033
:1046AC00900B1A04F0121271900B3CE0F912130DDE
:1046BC007A007B10900301E0F91214BD900B1BE4FF
:1046CC00F074011219021247236420FB80027B0054
:1046DC0074071218CC7F080219F8F08E828F83A30E
:1046EC00A3A322F0851882851983F022F0900B3C4D
:1046FC007402F0900B0722F0900B3F7401F0900BBA
:10470C001AF0228A828B83E4F0A3F0A3F0A3F07C4E
:10471C0009FD79BB740322E0FAA3E022900DBF12CD
:10472C00472F22E075F009A4F8A9F02274F01219B1
:10473C002674FF1218B6EA851882851983F0900347
:10474C0006E0700474018001E4F0900E5AE06401FC
:10475C006003024E3690953D121B4C7A407B0090C4
:10476C000301E0F91214B174041218CC8518828577
:10477C001983E014601514601924FE602A24FC606F
:10478C001F24F8601424F060258029900303740A18
:10479C0080219003037430801A900303740B8013F0
:1047AC009003037433800C900303743280059003E0
:1047BC00037431F07A007B10900301E0F91214BD00
:1047CC00900B05E06003024E2B900B38E060030267
:1047DC004E2B900303E06012900B07E0700C7A00F4
:1047EC007B20900301E0F91214BD85188285198392
:1047FC00E0A2E45019909539121B4C7A007B029080
:10480C000301E0F91214B174041218CC800C7A0074
:10481C007B02900301E0F91214BD900303E07003D6
:10482C00024EA0900306E06003024EA0900303E04A
:10483C00C0E0900B1BE0F8740A28F582E4340BF509
:10484C0083D0E0F0900B1BE004F0900B07E06003CA
:10485C000248FA909515121B4C7A007B10900301BC
:10486C00E0F91214B174041218CC900B1BE0640123
:10487C007010900303E0640B604279021211C912AC
:10488C00125F900B1BE0F8900303E0640B6027E0D1
:10489C00640A7019900B1BE4F079021211C97C0F99
:1048AC007D0079FF7A0A7B0B12151D802574FF2879
:1048BC00F9121301801CE8C39409500612126B0202
:1048CC00497E900B1BE4F0FA7B08900301E0F9128F
:1048DC0013A9900B1BE0C3940F5003024983E4F01F
:1048EC00FA7B08900301E0F91213A9024983900B9B
:1048FC003FE06003024983900B1BE0F874FF28F93A
:10490C00900B1AE0602F1460751470030249F014B8
:10491C007003024A3A147003024A3A147003024AB2
:10492C00D9147003024B54147003024BF01470032F
:10493C00024DB58042121301900B1BE0FA74092A48
:10494C00F582E4340BF583E0640B7003024A08EA49
:10495C00C3940F4003024A08900303E0640A7017E3
:10496C0079021211C97C0F7D0079FF7A0A7B0B1238
:10497C00151D900B1BE4F0900303E4024E339003DF
:10498C0003E06430700E900B3C124EDB9408401721
:10499C0074028012E06432701D900B3CE014F0C382
:1049AC00940250037407F0900B1BE4F0900B3CE066
:1049BC00F912130D8011E0640B700C7A007B0490DB
:1049CC000301E0F91213A9900B0AE0640A70A8A382
:1049DC00E0640A70A2900B1BE06403709A900B1AAF
:1049EC0074078092900303E0640B7017900302E04D
:1049FC0064057083900D45E0F91212957A007B04E2
:104A0C000248EFE0640A6003024983121271900BB2
:104A1C003CE0F912130D900B1A7401F0A3E4F07C36
:104A2C000FFD79FF7A0A7B0B12151D024983900347
:104A3C0003E0640A701A121271900B3CE0F9121325
:104A4C000D7C087D0079BB7A1C7B0B12151D80C672
:104A5C00E0640B7060E8C39408402D900B23E06475
:104A6C00BB70991212A7900B1BE4F0750808F5099E
:104A7C007808121B397C0A7D0B7A1C7B0B121355A0
:104A8C0074021218CC024983900B1A7401F01212A2
:104A9C00CB909535121B4C7A007B20900301E0F9EA
:104AAC001214B174041218CC7C087D0079BB7A1CEA
:104ABC007B0B02497BE8C394094008900B1B7409DB
:104ACC00024982E024D0FA121307024983900B3D6D
:104ADC00124EE0702EE8851882851983124EB24072
:104AEC000302497E900B3D124ED24002E4F0124E6E
:104AFC00E91218A3124EA57044851882851983E01B
:104B0C000480D9E064326003024BC0E885188285CA
:104B1C0019838008851882851983E004124EB240EF
:104B2C000302497E900B3DE014F0C3940A400374D9
:104B3C0009F0124EE91218A3124EA560D7900B3D46
:104B4C00E0F91212D702497E900B3E124EE070280B
:104B5C00E8851882851983124EB2400302497E9073
:104B6C000B3E124ED24002E4F0124F01703B8518FE
:104B7C0082851983E00480DFE064327037E88518A1
:104B8C00828519838008851882851983E004124E6A
:104B9C00B2400302497E900B3EE014F0C3940A40ED
:104BAC00037409F0124F0160DD900B3EE0F9121214
:104BBC00E902497EE0640B700F7A007B04900301DC
:104BCC00E0F91213A902497EE0640A600302497EEF
:104BDC00121271900B3CE0F912130D900B1A740128
:104BEC00F00249717A107B0012141B8A088B09AEF3
:104BFC0008AF099095DBAC18AD1974011217C99068
:104C0C000303E0640B6003024D88900B0CE0F87416
:104C1C0033687022A3E064316003024D99A3E06411
:104C2C00326003024D99900B1BE4F0F91212537A87
:104C3C00207B000248EF7431686003024D99A3E0B9
:104C4C0064316003024D99A3E064306003024D9916
:104C5C00790012125312153B12152912152F121529
:104C6C0035EEFAEFFB120449750810750900780847
:104C7C00121B39EEFCEFFD7AE97B0A121355740214
:104C8C001218CCEEFAEFFB121421C2AF1204438AB5
:104C9C00088B09E50824CAFEE5093402FFC3EE942B
:104CAC00F1EF941F50E6900AF9E508F0A3E509F03E
:104CBC00120443EA24F4F8E43BF9C3E50898E50947
:104CCC009940EDC3E5089AE5099B5007C3EA9EEBB2
:104CDC009F40DDC3E894F1E9941F50D4900AFBEA9D
:104CEC00F0A3EBF07C917D0A7A6E798012148775B3
:104CFC00088175090B7808121B39124EF4121163D6
:104D0C0074021218CC7A0A7B0012119F7508BF75B9
:104D1C00090D7808121B397C8B7D00900AFB124E12
:104D2C00FB12116374021218CCA818A919880889EF
:104D3C00097808121B397C017D007AF07B1F121157
:104D4C006374021218CC7808121B397C017D007A2E
:104D5C00FE7B1F12116374021218CC7808121B39D7
:104D6C007C017D007AFF7B1F12116374021218CC38
:104D7C00D2AFC2AF75C9AB75C95B80FEE0640A6087
:104D8C000C900B1BE0C394065003024983900B1B41
:104D9C00E4F0900B1A04F0121271900B3CE0F91233
:104DAC00130D7C0F7D00024A2E900AFE124EE0601D
:104DBC0005E064327018E8900AFE700474018001FA
:104DCC00E4F01212FB900B42E004F002497EE06426
:104DDC000B7028E8900AFD600474FF8001E4F090E9
:104DEC000B42E4F0121271900B3CE0F912130D120D
:104DFC004EB812151D900B1BE480CFE0640A6003C3
:104E0C0002497E900B42E0A2E0500CE8900AFE7042
:104E1C000474018001E4F0900B42E4F0024BDC904E
:104E2C000B1BE4F0900303F0806A900B1BE4F090F2
:104E3C000303F0900B2EE0C39406404C1210497AF9
:104E4C00477B081210558A088B098C0A8D0B900B26
:104E5C002F780C12176E909565780C1216E7780C5B
:104E6C00790812156E402D900B2E124EC9A3F0909E
:104E7C009551121B4C7A407B00900301E0F91214FF
:104E8C00B174041218CC800C7A407B00900301E0C2
:104E9C00F91213A974010246DE74992508F582747F
:104EAC000A1233FDF422F0E0C3941422900B1A740E
:104EBC0001F07C0F7D0079FF7A0A7B0B22E4F0A3D2
:104ECC00F0A3F0A3F022124EDB940A22900B2EE0FA
:104EDC0004F0C322E0F8900303E0643022E0F5080C
:104EEC0075090074037808227C3E7D02900AF9E073
:104EFC00FAA3E0FB2212472F124F0822748228F5E6
:104F0C0082740B39F583E064BB2274F41219267495
:104F1C00F11218B68908E9146010147003024FBF1F
:104F2C0024FD7003024FED025061740912191C7AB2
:104F3C00047B031214DB7409121902E0C0E0740143
:104F4C00121902D0E0F0740A121902E0C0E07402E7
:104F5C00121902D0E0F0740B121902E0C0E07403D5
:104F6C00121902D0E0F07405121902E4F074041264
:104F7C001902E4F0740E121902E0C0E07408121960
:104F8C0002D0E0F0740D121902E0C0E0740712199F
:104F9C0002D0E0F0740C121902E0C0E07406121991
:104FAC0002D0E0F0740112191C7A08790012100179
:104FBC00025061851882851983E4F07A04FB900312
:104FCC0001E0F91214BD900E5AE060030250611218
:104FDC0014E7AC18AD1979017A057B031214D5804E
:104FEC0074900B01E06401703B7A107B0012141B6F
:104FFC008A0A8B0BAE0AAF0B8E828F837401F0A3DF
:10500C00744FF08E828F83A3A3744B1250711212C3
:10501C00057A047B00900301E0F91214BDEEFAEF5F
:10502C00FB121421900AFFE0701F900B01E0701925
:10503C00909535121B4C7A047B00900301E0F91219
:10504C0014B174041218CC800C7A047B0090030108
:10505C00E0F91214BDE508900302F0740F1218CC9D
:10506C007F040219F8F0EEFCEFFD7A10790122743E
:10507C00F012192674FE1218B67401121902E9F016
:10508C007A107B0012141B8A088B09740112190206
:10509C00E0600A24FE7003025646025B1F7A6F7BA7
:1050AC0003790012120B750A5F750B03780A121B39
:1050BC00397C6F7D037A4A7B0E120B0F7402121827
:1050CC00CC7C917D0A7A6E798012148D90035FE00E
:1050DC0014601D1470030252521470030253E8241E
:1050EC00FB70030255D624F87003025620025B1F96
:1050FC00750A00AE0A8E0C750D007403780C12182C
:10510C00A37491250CF50E740A350DF50F750C066C
:10511C00750D00780C121B397C607D03E50E24099B
:10512C00FAE4350FFB12151774021218CCE9700350
:10513C000251CF9003047401F0900DC004F0EEA363
:10514C00F07A047B00900301E0F91214BD900B017E
:10515C00E06401702F900B1A7401F0A3E4F01212AA
:10516C0071900B3CE0F912130D851882851983E4BC
:10517C00F01214E7AC18AD1979017A057B031214FF
:10518C00D5025B1F900366E054F064307023850EEB
:10519C0082850F83A3A3A3A3A3A3A3A374FFF07C73
:1051AC00077D007900E50E2409FAE4350FFB121592
:1051BC001D7A107B00900301E0F91213A9900305EE
:1051CC00025488EEC394094023900B01E0640170F3
:1051DC001B750C07780C121B397C607D037A257BC0
:1051EC000B12135574021218CC121289EE75F006BC
:1051FC00A4FEAFF074432EFE740B3FFF750C0678C3
:10520C000C121B397C607D03EEFAEFFB1215177440
:10521C00021218CCE9602085088285098374CCF0D1
:10522C00A3125B4B125B411212057C067D007900C8
:10523C00EEFAEFFB12151D050AE50AC3940A4003AA
:10524C00025B1F0250FF7A107B0012141B7A107B3A
:10525C000012141B7A107B0012141B900B36E014F6
:10526C00601514601E24FE602624FC602E24F86059
:10527C003624F0603E8047900EC17441125B96D28A
:10528C00E0803A900EC17442125B96D2E1802E906F
:10529C000EC17443125B96D2E28022900EC174440C
:1052AC00125B96D2E38016900EC17445125B96D2B7
:1052BC00E4800A900EC17446125B96D2E5F0900B16
:1052CC0035E090037FF0900B2CE0900EA3125BAFB7
:1052DC006003025B1F750A03750B00780A121B39F9
:1052EC007C607D037AA17B0E12151774021218CC08
:1052FC00E97003025389900B2CE4F07E0090037F3D
:10530C00E0A2E05065EE601414601814601C146088
:10531C002014602414602814602C804E900EB174FC
:10532C0041802D900EB174428026900EB174438052
:10533C001F900EB174448018900EB174458011907A
:10534C000EB17446800A900EB17447F0900B24E4B1
:10535C00125B387AB17B0E120485E9900B2CF07C31
:10536C00B17D0E7A10790112120590037FE0C31300
:10537C00F00EEEC394074003025B1F8080900B3647
:10538C00E0F87003025B1F900B2CE4F0E814601142
:10539C0014601524FE601824F4601B24F0601E8039
:1053AC0022900EC17441801A900EC17442801390E9
:1053BC000EC17443800C900EC174458005900EC1D3
:1053CC007446F07CC17D0E7A1079011212057C03B3
:1053DC00900B2CE0F97AC17B0E0255CC750A027544
:1053EC000B00780A121B397C607D037AA17B0E12AC
:1053FC00151774021218CCE97003025B1F900AFF98
:10540C00E064016003025B1F900362E0F8A3E024F8
:10541C00BF60241460731470030254D2147003021E
:10542C00551414700302551414700302555514705E
:10543C000302559B025B1F900B2CE0687043E4F059
:10544C007E017C08900B2CE0F97AA17B0A12048572
:10545C00E9900B2CF08E0A750B007403780A121865
:10546C00A37499250AFC740A350BFD7A1079011284
:10547C0012050EEEC3940A40C9900B367401025B00
:10548C001E125B3274410255B5900B2CE068702EE5
:10549C00900B35E0C2E1F0900B2CE4F07C08F97A2B
:1054AC00917B0A120485E9900B2CF07C917D0A7A91
:1054BC00107901121205900B367402025B1E125BFE
:1054CC003274420255B5900B2CE0687033900B355A
:1054DC00E0C2E0125B6DEE75F009A4F8A9F07482DD
:1054EC0028F50A740B125BC0120485125B9C121215
:1054FC00050EEEC3940A40DE900B367404025B1E5C
:10550C00125B3274430255B5900B2CE068703390EB
:10551C000B35E0C2E3125B6DEE75F009A4F8A9F04F
:10552C0074C228F50A740D125BC0120485125B9CC0
:10553C001212050EEEC3941440DE900B367410025A
:10554C005B1E125B3274458060900B2CE0687038E7
:10555C00900B35E0C2E4125B6DEE75F009A4F8A96E
:10556C00F074DD28F50A740B39F50B7C07125BC55A
:10557C00120485125B9C1212050EEEC3940A40D9DC
:10558C00900B367420025B1E125B327446801A90AC
:10559C000B2CE068700EE4F0900B35F0A3F01215B4
:1055AC0035025B1F125B327447F07CD17D0E7A1092
:1055BC0079011212057C03900B2CE0F97AD17B0E49
:1055CC00120485E9900B2C025B1E121049900360AB
:1055DC00E0900847F0900361E0900848F090036277
:1055EC00E0900849F0900363E090084AF09003645F
:1055FC00E090084BF0900365E090084CF0121043DB
:10560C008508828509837416F0A3744B125B4B7466
:10561C004F025B0CA3E0644F6003025B1FA3E064CA
:10562C00506003025B1F900B067402F0FA7B009033
:10563C000301E0F91213A9025B1F121049900B2D04
:10564C00E4F07A6F7B03790212120B750A5F750B0B
:10565C0003780A121B397C6F7D037A4A7B0E120B7E
:10566C000F74021218CC900360E0FF8F0A750B00C8
:10567C00A3E0FE90035FE014603414700302576ED5
:10568C001470030257D024FE700302584E1470039A
:10569C000258991470030258F1147003025A2E1414
:1056AC007003025B14147003025B1A025B1F740319
:1056BC00780A1218A37491250AF50A740A350BF5A9
:1056CC000B900B2DE0F97C08E50A2CFAE4350BFB6A
:1056DC00120485125BAA707FEE68707B900B377496
:1056EC0001F0750C06750D00780C121B39E50A24B7
:1056FC0009FCE4350B125BCF12135574021218CC53
:10570C00900B7F124EDB94094002E4F07C087D0084
:10571C007900900360E0F50A890B7403780A12187B
:10572C00A37499250AFA740A350BFB12151D900304
:10573C0060E0F50A750B007403780A1218A37499CB
:10574C00125B2D740A350BF58374FFF08508828586
:10575C0009837403025831850882850983745002C9
:10576C005B08900B2DE0F97C087A917B0A1204857A
:10577C00125BAA7044EF687040900B377401F07C98
:10578C00087D0079007A917B0A12151D750A08783C
:10579C000A121B397CE17D0E7A917B0A1213557427
:1057AC00021218CC8508828509837404F0900B2DA5
:1057BC00E0850882850983807A850882850983744F
:1057CC0051025B08EF75F009A4F50AE5F0F50B74CE
:1057DC0081250AF50C740B350BF50D850C82F583C0
:1057EC00A385820A85830B900B2DE0F97C09AA0A0C
:1057FC00AB0B120485125BAA703DEE687039900BEE
:10580C00377402F0850A82850B83E4F07C09FD79FC
:10581C00BBE50C2402FAE4350DFB12151D8508823C
:10582C008509837405F0900360125BB7F0900B2D23
:10583C00125BB7A3025B0C85088285098374520244
:10584C005B08900B2DE0F97C087A607B03120485D1
:10585C00125BAA702D900368E0687026900B377469
:10586C0001125B7E121B397C607D037A917B0A12DC
:10587C00135574021218CC850882850983740702AB
:10588C005AFA8508828509837454025B08900B2DA3
:10589C00E0F97C097A607B03120485125BAA703AEA
:1058AC00900369E0687033900B377402F0750A0945
:1058BC00780A121B397C607D0390036012472B74AD
:1058CC008228FA740B39FB12135574021218CC850A
:1058DC0008828509837408025AFA8508828509832F
:1058EC007455025B08900B2DE0F97C0A7A607B03FF
:1058FC00120485125BAA6003025A2390036AE068C3
:10590C006003025A23900361E0FC75F009A4F8A926
:10591C00F0748128FA740B39FB900360E024CF609B
:10592C000F14603514606C1470030259D8025B1F9D
:10593C00900B377402F0EA245CF582E43B125B7B3B
:10594C00121B397C627D03EA245DFA50010B1213A1
:10595C005574021218CC025A18900B377402F0EAE4
:10596C0024B6F582E43B125B7B121B397C627D030F
:10597C00EA24B7FA50010B12135574021218CC7AA0
:10598C00477B08121055125BF51218A3125B2B748F
:10599C000D8070900B377402F0EA2410125B7612B3
:1059AC001B397C627D03EA2411FAEB3401FB1213E0
:1059BC005574021218CC7A477B08121055125BF5FD
:1059CC001218A3746F125B2D740D8037900B377403
:1059DC0002F0EA246A125B76121B397C627D03EAC0
:1059EC00246BFAEB3401FB12135574021218CC7AA7
:1059FC00477B08121055125BF51218A37497125BB3
:105A0C002D740D350BF583780C12177D8508828566
:105A1C0009837409025AFA8508828509837456022F
:105A2C005B08900AFFE064016003025B1FEE75F0F7
:105A3C0009A4F8A9F0748128F8740B39F9EF24CF74
:105A4C00600C146032146053146073025B1FE82402
:105A5C005CFEE439125BE8120485125B61600302A0
:105A6C005B00900B377402F07C107D0079BBEEFA72
:105A7C00EFFB12151D806FE824B6FEE439125BE8CB
:105A8C00120485125B61706C125B8512151D125B22
:105A9C00FD1218A3125B2B740D8044E82410125BCA
:105AAC00E4120485125B61704B125B8512151D129A
:105ABC005BFD1218A3746F125B2D740D8021E8240A
:105ACC006A125BE4120485125B617028125B85120A
:105ADC00151D125BFD1218A37497125B2D740D35F6
:105AEC000BF583124EC9850882850983740AF0A3CD
:105AFC00744B800C8508828509837457F0A374FF5E
:105B0C00125B41121205800BEF900B338004EF9067
:105B1C000B34F0AA08AB0912142174020246DE748D
:105B2C0047250AF58222E4F0900ED122F07C0390F6
