:020000040000FA
:06000000020107021D7B56
:03002B00021FEEC3
:03003300021FD0D9
:03005300021DEE9D
:03006B00021FAAC7
:10008300021C2FE5C754F84401F5C779012200008B
:100093000080FB120086B900030200F1E4791A78AC
:1000A30002B800028004F709D8FCE4791C7802B88E
:1000B30000028004F709D8FCE49002817822790ECB
:1000C3008002F0A3D8FCD9FA7AA27B0F900137788B
:1000D3000179028015E493A3AD82AE838A828B8378
:1000E300F0A3AA82AB838D828E83D8E9D9E7758288
:1000F300197583C87403120119758291758300748D
:100103000012011975D00075813F751881751902A8
:10011300759F00020096C09FF59FE473D09F22D085
:1001230083D082C09FE493C0E0740193C0E0740263
:1001330093F59F22B103C303ED03B703FF0000B49C
:10014300000028002800283075A000A000A000A00F
:100153000000080008E001F000100010001000107B
:10016300001000100050005000500010001000D08C
:10017300070000000000000F0001000500307507B4
:10018300001000010081FF0000FF0202027B8501D5
:1001930000005F85027585010000F80F0273850179
:1001A3000000B102027585010000F90F026D85019F
:1001B3000000C702FFFF0100FF20027B8501000052
:1001C30062850275850100002710026B850000001F
:1001D3000000026585030000A403250B250B250BF6
:1001E300250B250B250B250B250B250B250B250B8C
:1001F300250B250BF30C110DED0C01E803053F1046
:1002030002FFFFFF000D095049534345532D42544C
:10021300313030090001137799556410000103054B
:1002230007FFFE77881299324114242536FEFF001A
:1002330000014F4B1201225BC00312012271C00364
:100243001201229EC003120122CEC003120122EF2B
:10025300C00312012220C10312012271C103120142
:100263002288C10312012231BA0312012248BA03C0
:1002730012012277BA03120122B0BA03120122D863
:10028300BA0312012206BB031201221DBB03120192
:100293002234BB031201224ABB0312012271BB03A6
:1002A30012012284BB031201229ABB03120122C250
:1002B300BB031201228A7200120122897300120108
:1002C30022B3730012012208740012012229740060
:1002D30012012242740012012244740012012265A9
:1002E30074001201226875001201222576001201A2
:1002F30022F27600120122567700120122ED7700D6
:10030300120122F07700120122767800120122B93D
:1003130078001201220B79001201224279001201A6
:1003230022C87900120122517A001201229A7A001E
:10033300120122A77A00120122AA7A0012012208CE
:100343007B00120122207B001201229A7B00120102
:10035300229D7B00120122C07B00120122C37B007D
:100363001201226A7C001201228D7C00120122A557
:100373007C00120122D57C00120122E27C001201D2
:1003830022E57C00120122517D001201223F7E00F2
:10039300120122F57E00120122CAC102120122A516
:1003A300C202120122D3C20212012253C30212015A
:1003B3002273C302120122B1C30212012204C40236
:1003C3001201226CC402120122FDC402120122C8CE
:1003D300C502120122D7C80212012243CA02120126
:1003E3002266CA0212012227A803120122B8A90316
:1003F30012012209AA0312012268AA03120122761A
:10040300AA031201229FAA03120122B78A0312012F
:1004130022DF8A031201220D8B03120122448B0374
:10042300120122AC8B03120122F58B03120122402D
:100433008C031201227E8C03120122BB8C03120156
:1004430022E98C03120122908D031201229A8D035B
:10045300120122A78D03120122DA8D031201229CBD
:100463008E03120122A88E03120122C08E031201F1
:1004730022CA8E03120122488F03120122A9C40348
:10048300120122B7C403120122CFC403120122E7CF
:10049300C403120122FFC4031201224C8E02120173
:1004A30022EA8E02120122628F0212012277900247
:1004B300120122B190021201225A91021201222F3B
:1004C3009202120122939302120122EA9302120171
:1004D30022719402120122589502120122A595025B
:1004E3001201223396021201225796021201222C84
:1004F30098021201226D98021201228F98021201B2
:10050300225499021201221A9A021201224F9C02CA
:1005130012012256A4031201226CA4031201229297
:10052300A403120122BAA503120122C4A5031201D6
:10053300221DA7031201221DA80312012269FB0237
:100543001201220BFC021201223EFC02120122883C
:10055300FC0212012242FE02120122EDAE0112013F
:10056300226BAF011201227BAF011201225EB001A7
:100573001201228CB00112012297B00112012281D3
:10058300B1011201221DB20112012221B401120193
:1005930022D8B50112012254B60112012231B7014A
:1005A3001201225FBA01120122FDBA011201225A7D
:1005B300BC01120122CDBD0112012276BE0112013E
:1005C30022BFBE01120122F6BE011201229BBF010E
:1005D30012012219C0011201225FD001120122B4BB
:1005E300D001120122F9D10112012209D201120113
:1005F300222CD20112012277D2011201221CD30133
:1006030012012212D401120122DCD401120122545C
:10061300D60112012296D60112012234D70112010A
:10062300225AD70112012248D9011201224DD901C0
:100633001201222EDB0112012282DB01120122E4CC
:10064300DB011201220CDC01120122B0DC011201D8
:100653002272DD01120122A3DD01120122A6DD01B6
:10066300120122EEDD0112012230DE011201229776
:10067300DE0112012221B20312012234B20312015C
:10068300223DB20312012256B203120122A1B20388
:100693001201227CB3031201220BB403120122566E
:1006A300B403120122D55900120122E559001201A7
:1006B30022485A001201228D5A001201223D5B008A
:1006C300120122165C001201223F5C001201226F0C
:1006D3005C00120122835E001201225F600012019E
:1006E300223F6200120122776300120122F06500AB
:1006F300120122DC66001201222268001201222F5D
:100703006900120122716900120122A96900120114
:1007130022C369001201222B6A00120122C56E0056
:10072300120122666F00120122BA6F00120122E148
:100733006F001201221F70001201223E700012018D
:10074300229270001201229A710012012223720078
:10075300120122A5F502120122AFF5021201224B6A
:10076300F60212012216F70212012235F7021201D4
:10077300225BF7021201229AF702120122D2F70238
:10078300120122FBF70212012235F8021201224A5A
:10079300F80212012217F9021201223AF902120198
:1007A300225CF90212012271F902120122FBF90201
:1007B30012012235FA02120122A9FA02120122F2CF
:1007C300FA021201221CFB0212012241FB02120156
:1007D300226AA00312012234A10312012217A203E9
:1007E3001201228DA203120122CFA203120122FCC5
:1007F300A3031201225E9C02120122879C021201B2
:1008030022A09C02120122E59D02120122C39E0234
:10081300120122E29E021201226F9F02120122B2F2
:100823009F02120122EAA00212012256A102120122
:10083300224CA302120122DAA5021201226DA602A2
:1008430012012241A702120122E4A702120122F798
:10085300A8021201228DA9021201229FC1031201D3
:100863002208C2031201225CC2031201228BC203BB
:10087300120122D98F031201224690031201229101
:100883009003120122869103120122829203120124
:10089300226C9303120122D0E20212012217E30217
:1008A300120122F0E302120122EBE402120122CA36
:1008B300E50212012236E60212012252E702120178
:1008C30022B9E702120122BCE702120122E7E70282
:1008D30012012258E802120122FBE802120122103F
:1008E300E90212012258E90212012271E9021201FE
:1008F3002274E902120122B7AB03120122F3AB0304
:1009030012012231AC03120122FBAC031201226E4D
:10091300AD03120122A9AD03120122E7AD031201B7
:100923002217AE031201223EAE03120122A9AE0327
:10093300120122EBAE031201228185011201229FD3
:1009430087011201224E8901120122FE890112013F
:1009530022498A01120122948A01120122A68A01E4
:10096300120122E68A011201221B8B011201226766
:100973008B01120122968B01120122B98B01120104
:1009830022408C011201222C8D011201226A8E0158
:100993001201226C8F011201224891011201226C73
:1009A3009601120122B29601120122F09601120160
:1009B300222599011201223E9B0112012282B603D4
:1009C30012012222B8031201221C2000120122B3B9
:1009D3002000120122F920001201222F220012010D
:1009E30022C623001201223E240012012280240089
:1009F300120122D024001201223B2600120122A65A
:100A03002800120122822900120122A129001201C9
:100A130022C02900120122C32900120122492B00FE
:100A23001201223E2C001201223A2D00120122AAA9
:100A33002D001201221C2E001201229B2E001201F6
:100A430022762F001201227D30001201225C310038
:100A5300120122E73100120122553200120122C98C
:100A63003200120122F23200120122B133001201CC
:100A730022C036001201220937001201224C37002E
:100A8300120122CF3700120122733800120122040F
:100A9300390012012229390012012273390012018F
:100AA300229D3900120122E239001201225D3A002F
:100AB300120122B73A001201220B3C00120122C894
:100AC3003C001201229B3D00120122008002120110
:100AD300225080021201225C80021201223981021B
:100AE300120122698102120122A181021201221B39
:100AF30082021201229D8202120122D58202120178
:100B030022278302120122648302120122898502B1
:100B1300120122B58702120122B089021201228B2F
:100B23008B02120122F67F00120122E0EF02120172
:100B33002212F40212012262F502120122CDC00137
:100B43001201229FC701120122A5C70112012255DA
:100B5300CA011201227A8503120122268603120199
:100B630022F486031201221E87031201226C8903D9
:100B7300120122C93D00120122133E00120122C5B7
:100B83004A00120122464C001201223E4D0012017E
:100B9300229D5300120122985400120122D55400C1
:100BA300120122F854001201223A55001201224484
:100BB300550012012230560012012224570012015F
:100BC30022BD57001201228BFC0112012289FD0173
:100BD300120122DFFD011201221DFE011201227A00
:100BE300FE01120122F7FE0112012200FF01120190
:100BF300220CFF011201221FFF011201225BFF01E0
:100C030012012271FF0112012298E902120122A5A9
:100C1300E902120122BFE902120122FEE9021201D6
:100C2300223CEA02120122A1EA02120122B6EA02DE
:100C3300120122CDEA02120122DBEA02120122EAA8
:100C4300EA02120122FFEA0212012214EB0212014C
:100C5300221FEB021201222BEB0212012238EB02BC
:100C630012012247EB0212012252EB0212012277F8
:100C7300EB0212012220EC0212012235EC021201D6
:100C8300224AEC0212012264EC021201227FEC02DE
:100C93001201229CEC02120122A7EC021201226330
:100CA300ED021201224FEE0212012274EE02120132
:100CB300227EEE0212012292EE02120122B1EE0214
:100CC30012012212EF0212012218EF021201221E58
:100CD300EF0212012224EF0212012230EF0212016D
:100CE3002263EF0212012293B702120122BFB7025D
:100CF300120122A3B8021201223DBB0212012253A8
:100D0300BC0212012270BD0212012213BE021201A3
:100D130022B9BE0212012209AA021201228BAA02DF
:100D230012012234AB021201227CAC021201228A8C
:100D3300AE0212012270AF02120122A5AF0212010C
:100D430022C7AF0212012270B00212012240B20286
:100D530012012269B202120122E1B202120122132C
:100D6300B30212012220B3021201226BB302120159
:100D7300228FB302120122E0B502120122EAB60267
:100D830012012246B7021201220DEE011201221EA8
:100D9300EF0112012202F0011201220CF0011201F3
:100DA300222EF0011201223AF001120122DEF1019A
:100DB3001201220BF20112012221F3011201227608
:100DC300F301120122C5F4011201229AF501120165
:100DD30022F6F50112012261F60112012296F601B3
:100DE300120122D9F601120122A3F901120122BB39
:100DF300F9011201224CFA011201225AFA011201DD
:100E030022A7FA01120122B5FA0112012221FB01E4
:100E13001201229CFB01120122F3FB011201227831
:100E2300B8031201229DB80312012213B903120160
:100E330022E1DB02120122EADB02120122F3DB02CE
:100E4300120122CBDC021201227CDE02120122AC4F
:100E5300DE02120122D7DE0212012207DF02120193
:100E63002232DF0212012266DF0212012292DF0226
:100E7300120122D5DF0212012200E00212012247F1
:100E8300E0021201229CE002120122DEE0021201C2
:100E93002238E10212012263E102120122B2E102CD
:100EA300120122E2E1021201220DE20212012230BA
:100EB300E202120122D5C60312012201C703120165
:100EC300222EC70312012238C70312012248C70387
:100ED3001201220080031201223F8003120122C863
:100EE3008003120122DB80031201222681031201F7
:100EF30022658103120122748103120122248203D9
:100F03001201227D8203120122CC82031201221CD0
:100F130083031201221084031201220585031201A7
:100F230022428503120122BCC703120122739B01D3
:100F33001201226A9D01120122F99E01120122EB84
:100F43009F0112012272A001120122ECA0011201E1
:100F53002215A1011201227DA10112012236A50150
:100F6300120122B2A5011201229EA601120122D66C
:100F7300A60112012219A70112012250A801120190
:100F83002281A801120122D6A8011201220DA90172
:100F93001201227FA901120122A5A901120122BF78
:100FA300A901120122B1AA01120122C1AA0112014F
:100FB3002256AC0112012279AC01120122ABAC0121
:100FC30012012237AE01120122AEAE0112012298A4
:100FD300C503120122A9C5031201226CC803120121
:100FE30022ABC803120122E5FF0212012247C60306
:100FF30012012257C6031201226CC603120122D228
:10100300C603120122ACC20312012230C303120130
:101013002296C3031201225EBD0312012287BD0380
:10102300120122F1BD0312012245BE031201229EC9
:10103300BE031201226B9C03120122909C03120136
:1010430022AD9C03120122CA9C03120122ED9C03D0
:10105300120122199D031201223F9D03120122F561
:101063009D031201226F9E03120122939E0312011C
:10107300229D9E03120122FC9F031201225FC903DA
:10108300120122D4BB03120122FDBB03120122264B
:10109300BC03120122BFBC03120122D7BC031201FD
:1010A3002219BD031201229ECB02120122A8CB02F8
:1010B300120122E8CB0212012231CC021201226B6F
:1010C300CC02120122C5CC02120122E4CC0212018D
:1010D3002286CF021201228FCF02120122E0CF0219
:1010E30012012209D00212012213D0021201227F1F
:1010F300D00212012213D10212012272D102120173
:1011030022A0D10212012220D20212012263D202B2
:101113001201229ED202120122B0D202120122CF68
:10112300D202120122D8D202120122A2D302120148
:1011330022D9BE031201222CBF0312012298BF033E
:1011430012012200C00312012233AF031201225DF8
:10115300AF0312012232B00312012226B10312019E
:1011630022A9B103120122AFC30312012280B403E7
:10117300120122B6B403120122EFB4031201224872
:10118300B60312012252C70312012268C7031201D8
:101193002272C703120122A1FF01120122CED30240
:1011A3001201228BD402120122C6D402120122EEB2
:1011B300D40212012250D5021201229CD50212013F
:1011C3002200D6021201227AD6021201227CD70211
:1011D3001201222FD902120122B1D90212012216C1
:1011E300DA021201222DDA0212012236DB02120187
:1011F3002274DB0212012257980312012270980312
:101203001201221499031201225499031201226D2F
:101213009903120122A09903120122ED99031201ED
:1012230022219A03120122639A0312012261DF0130
:101233001201224FE00112012289E101120122442D
:10124300E2011201225AE3011201220FE501120108
:101253002263E50112012268E901120122BAE901C0
:1012630012012248EA0112012243EC01120122E198
:10127300EC0112012262ED01120122ECC8031201FA
:10128300222E9403120122607F001201228A7F0022
:10129300120122B5C80312012218C9031201224107
:1012A300C903E066701008A3E066700A08A3E0664D
:1012B300700408A3E06622C3E09608A3E09608A39F
:1012C300E09608A3E096A2D265D03322C3E796083E
:1012D30009E7960809E7960809E79622C3E0960806
:1012E300A3E09608A3E09608A3E09622C008C3E013
:1012F30096F50808A3E096420808A3E0964208087A
:10130300A3E09645087001D3D00822080808EAC074
:10131300E0EBC0E086F0E7A4FA180986F0E7A42A18
:10132300FA180986F0E7A42AFA180986F0E7A42A2E
:10133300FA1986F0E7A4FBE5F02AFA190886F0E724
:10134300A42BFBE5F03AFA190886F0E7A42BFBE59A
:10135300F03AFA18180986F0E7A4C5F02BFBE43A33
:10136300FA1908E7C5F0C6A426F6E5F03BFBE43A14
:10137300FA1886F0E7A4F6E5F00826F6E43B08F64B
:10138300E43A08F6D0E0FBD0E0FA22E4CFC0E0E490
:10139300CEC0E0E4CDC0E0E4CCC0E075F020E626AA
:1013A300F608E633F608E633F608E633F6181818B7
:1013B300EC33FCED33FDEE33FEEF33FFC3EC970963
:1013C300ED9709EE9709EF97191919400FFFEC975D
:1013D300FC09ED97FD09EE97FE191906D5F0BFEC50
:1013E300F709EDF709EEF709EFF7191919D0E0FC42
:1013F300D0E0FDD0E0FED0E0FF22E4C396F608E49F
:1014030096F608E496F608E496F6226016080808AD
:10141300C6C313C618C613C618C613C618C613C642
:10142300D5E0EA227009080808226016181818C6C1
:10143300C333C608C633C608C633C608C633C6D5C3
:10144300E0EA22E627F60809E637F60809E637F662
:101453000809E637F622E026F608A3E036F608A3E5
:10146300E036F608A3E036F622E026F008A3E036DD
:10147300F008A3E036F008A3E036F022C3E697F6BF
:101483000809E697F60809E697F60809E697F622AB
:10149300C3E096F008A3E096F008A3E096F008A353
:1014A300E096F022E657F60809E657F60809E657EC
:1014B300F60809E657F622E056F608A3E056F608C2
:1014C300A3E056F608A3E056F622E056F008A3E0A0
:1014D30056F008A3E056F008A3E056F022E066F6C3
:1014E30008A3E066F608A3E066F608A3E066F62222
:1014F300E0F608A3E0F608A3E0F608A3E0F622E688
:10150300F008A3E6F008A3E6F008A3E6F022E0FA69
:10151300A3E0FBA3E0FCA3E0FD22EAF0A3EBF0A32E
:10152300ECF0A3EDF022E0F8A3E0F9A3E0FAA3E0E6
:10153300FB22E8F0A3E9F0A3EAF0A3EBF022CAC090
:10154300E0E6F0A308DAFAD0E0FA22CAC0E0E0A3AA
:10155300C582CCC582C583CDC583F0A3C582CCC566
:1015630082C583CDC583DAE6D0E0CA22C3E498F806
:10157300E499F91215B08026C3E49AFAE49BFBE9D7
:1015830020E7E91215B0E498F8E499F922C3E49846
:10159300F8E499F91215B0E498F8E499F9C3E49AD8
:1015A300FAE49BFB22EB20E7CFE920E7E0B9001048
:1015B300BB0008E88AF084F8AAF022E4FBC8FA2208
:1015C300EB70227B10C833C8C933C9335007C39AA1
:1015D300C3DBF280069A50012ADBEAC833F4C8C998
:1015E30033F4C9FA2275F008E4C833C8C933C933E0
:1015F300C99AC99B5004C92AC93BD5F0ECFBC8332F
:10160300F4C8E4C9FA22600D08C6A2E713C618C6D7
:1016130013C6D5E0F322600C08C6C313C618C6135D
:10162300C6D5E0F422700422600D18C6C333C60881
:10163300C633C6D5E0F41822251810AF08F51840B4
:101643000C15198008F51840021519D2AF2200C0F5
:10165300D0251810AF08F518500C05198008F51897
:1016630050020519D2AFD0D0222518F58210AF0849
:10167300F518400C15198008F51840021519D2AF5A
:10168300851983222518F582E43519F58322251857
:10169300F8E43519F9222518FAE43519FB2225183F
:1016A300FCE43519FD22E4732518C582C0E0E51971
:1016B30034FFC583C0E0E518C3958224F810AF0852
:1016C3008583198582188008858319858218D2AF8E
:1016D300CEF0A3E520F0A37808E608F0A3DEFAEF46
:1016E300F0A3E58124FAF8E608F0A3E608F0A3E600
:1016F30008F0A30808E608F0A3E608F0A31581158F
:1017030081D0E0FED0E0F8158115811581E8C0E0B5
:10171300EEC0E0222518C582C0E0E51934FFC58379
:10172300C0E0E518C3958224F910AF0885831985B5
:1017330082188008858319858218D2AFCEF0A3E57D
:1017430020F0A37808E608F0A3DEFAEFF0A3E58122
:1017530024FBF8E608F0A3E608F0A30808E608F07F
:10176300A3E608F0A315811581D0E0FED0E0F815BB
:10177300811581E8C0E0EEC0E022851983851882D7
:10178300E0A3FEE0A3F5207808E0A3F608DFFAE083
:10179300A3FFE0A3C0E0E0A3C0E0E0A3C0E0E0A3B8
:1017A300C0E0E0A3C0E010AF0885821885831980EC
:1017B30008858218858319D2AFD083D08202011F96
:1017C300851983851882E0A3FEE0A3F5207808E05D
:1017D300A3F608DFFAE0A3FFE0A3C0E0E0A3C0E0C4
:1017E300E0A3C0E0E0A3C0E010AF088582188583C2
:1017F300198008858218858319D2AFD083D08222BD
:10180300C0D02518C582C0E0E51934FFC583C0E008
:10181300E518C3958224F310AF08858319858218D0
:101823008008858319858218D2AFC8F0A3E9F0A395
:10183300EAF0A3EBF0A37908E709F0A3D8FAECF0F8
:10184300A3EDF0A3EEF0A3EFF0A3D0E0F0A3D0E07C
:10185300F0A3D0E0F0A3E520F0A3E5F0F0A3228508
:101863001983851882E0C0E0A3E0F9A3E0FAA3E0BE
:10187300FBA37808E0F608A3DFFAE0FCA3E0FDA3EE
:10188300E0FEA3E0FFA3E0C0E0A3E0C0E0A3E0F537
:10189300D0A3E0F520A3E0A3F5F010AF08858319EA
:1018A3008582188008858319858218D2AFD082D0AB
:1018B30083D0E0F8D0E032740480067402800274AE
:1018C30001C0E0F40412166CD0E012154122740436
:1018D300800474028000CCC0E0EDC0E0E518C39C36
:1018E300CCAD1950011D10AF068C188D1980068CD4
:1018F300188D19D2AF12154ED0E0FDD0E0FC22D0E6
:1019030083D082E9C0E0E493A3C386F0C5F095F0E9
:10191300F908E493A386F0C5F095F0700BE493A364
:10192300C3994005E9048002A3E475F002A425826B
:10193300F582E5F03583F583D0E0F9E493A3C0E0C5
:10194300E493C0E022D083D082ECC0E0EDC0E0E4B9
:1019530093A3FCE493A3FDED4C600D121994EC24C6
:10196300FFFCED34FFFD80EFE493A3FCE493A3FDC0
:10197300ED4C600D1219D3EC24FFFCED34FFFD8018
:10198300EFD0E0FDD0E0FCE493A3C0E0E493C0E03B
:1019930022C0E0C3E49396087401939618400FE4C1
:1019A3009366700808740193661870007019A3A3F6
:1019B300C3E49396087401939618A3A3400DD0E053
:1019C300D0E0D0E0021984A3A3A3A3A3A3D0E02271
:1019D300C0E0C0F088F0E493667008087401936671
:1019E300187000A8F0A3A3700BD0F0D0E0D0E0D023
:0B19F300E0021984A3A3D0F0D0E02292
:101A000074F5121717EAFEEBFFEE2434F8EF3400FA
:101A1000F988088909EE2435F582EF3400F583E072
:101A2000F8EE2437F582EF3400F583E0F50AEC8513
:101A30000AF0A4FCAAF0850AF0EDA42AFDE82CF82F
:101A4000E43DF97A257B001215B0EA850882850904
:101A500083F05407F87401B800028004C333D8FC43
:101A6000C0E0E0131313541FF8EE28F8EF3400F928
:101A7000E8245DF582E93400F583D0E0F8E05860B1
:101A800008EE2434F582EF801EEE2436F582EF3422
:101A900000F583E0F5F0EA84A8F0EE28F8EF3400D2
:101AA000F9E82438F582E93400F583E0F97F04028F
:101AB00017C374F5121717EAFEEBFFEE2434F58214
:101AC000EF3400F583E0C0E0EE2435F582EF34001A
:101AD000F583D0E0F08E828F83A3A3A3A3A3A3A357
:101AE000C082C0838E828F83A3A3A3A3A3E0F8A3A5
:101AF000E0F9D083D082E0C398F508A3E099F50916
:101B0000EE2480F582EF3400F583E064017069EE25
:101B10002481F582EF3400F583E0F8A3E0F98E82AA
:101B20008F83A3A3A3A3A3A3A3E0FCA3E0FD8E82C2
:101B30008F83A3A3A3A3A3E0FAA3E0FBC3EA9CEBD8
:101B40009D5027C3EC98ED99402EC3EA98EB99502D
:101B5000277CE27D07EEFAEFFB120A65EE2480F5A2
:101B600082EF3400F583E4F0800EC3EA98EB9940ED
:101B7000E0C3EC98ED9950D9EE2434F8EF3400F935
:101B8000E8FCE9FDEE2435F582EF3400F583E0F85A
:101B9000EE2437F582EF3400F583E0F50AE5088599
:101BA0000AF0A4F508AAF0850AF0E509A42AF509C7
:101BB000E82508F8E43509F97A257B001215B0EA22
:101BC0008C828D83F05407F87401B800028004C33E
:101BD00033D8FCC0E0E0131313541FF8EE28F8EFDD
:101BE0003400F9E8245DF582E93400F583D0E0F8AB
:101BF000E0586008EE2434F582EF801EEE2436F5BE
:101C000082EF3400F583E0F5F0EA84A8F0EE28F8DE
:101C1000EF3400F9E82438F582E93400F583E0F97F
:101C2000121F9C021AAD0000851A87851BC622C0B0
:101C3000E0C0D0E8C0E0E9C0E0EAC0E0EBC0E0EC22
:101C4000C0E0EDC0E0C008C009C00AC00BC082C03F
:101C500083C0F0759B00906182E0A2E64003021D04
:101C60000DE591A2E64003021D0D7591BF90049908
:101C7000E064057008120BE5120BF18003120BEB08
:101C8000751A00120C4BE990049AF07900120C2D91
:101C90001209D57A017B00900498E0F9121107909F
:101CA0007803E064426003021D56900817E014F0C8
:101CB0006003021D56C2AF121CBA00781DD0E0F6B8
:101CC00018D0E0F6E59F5407F9700590854380032E
:101CD00090853F78081214F3E9C4C0E0781CE655FB
:101CE00008F50808E65509F509740B780812161965
:101CF000D0E02508F8906270E0A2E740F8E8C3332E
:101D0000906272F0906270E0D2E0F08049E0A2E56B
:101D10005024E591A2E5501E7591DF900499E0648E
:101D20000D70139004BBE004F064287002E4F07AB4
:101D300000E0F9120CDB906181E0A2E35009E5E9D3
:101D4000A2E3500375E9F7A3E0A2E75009E591A2E9
:101D5000E7500375917FD0F0D083D082D00BD00AAA
:101D6000D009D008D0E0FDD0E0FCD0E0FBD0E0FA14
:101D7000D0E0F9D0E0F8D0D0D0E032C0E0C0D0C0A0
:101D800082C083906183E0A2E05009E5BFA2E050E9
:101D90000375BFFEE0A2E15009E5BFA2E150037563
:101DA000BFFDE0A2E25009E5BFA2E2500375BFFB10
:101DB000E0A2E35009E5BFA2E3500375BFF7E0A23C
:101DC000E45009E5BFA2E4500375BFEFE0A2E5507F
:101DD00009E5BFA2E5500375BFDFE0A2E65009E5C3
:101DE000BFA2E6500375BFBFD083D0828088C0E019
:101DF000C0D0E8C0E0E9C0E0EAC0E0EBC0E0ECC081
:101E0000E0EDC0E0C0F0E5A7A2E6500FE5A1A2E634
:101E1000500953A7BF75A1BF121E53E5A7A2E550F5
:101E20000CE5A1A2E5500653A7DF75A1DFE5A7A247
:101E3000E15009E5A1A2E1500375A1FDE5A7A2E2E9
:101E4000500CE5A1A2E2500653A7FB75A1FBD0F010
:101E5000021D6474F8121717751A01900499E06452
:101E6000067015120B9D8A828B83A3A3A3A3A3A341
:101E7000E0FAA3E0FB120BD3A2AFE433FED2AF90A3
:101E8000049FE0640170187A207B00900498E0F9C8
:101E900012121B7A207B00900498E0F912110D9029
:101EA0006182E0D2E6F0900816E0602185C61B80D2
:101EB0001690049EE064017008E5C654F84405F5E8
:101EC000C653BEFC121C287401651A60E4EEA2E041
:101ED00092AF7F010217C374F11217178A088B099A
:101EE0008C0A8D0B740F121687780C1214F39085E0
:101EF0001B78081214BA90851B780C1214BA780853
:101F0000790C1212CF50157808790C12147F908535
:101F10001F78081212EF401579018013780C7908A8
:101F200012147F90851F780C1212EF40EB79007F1E
:101F3000080217C374ED1217178A088B098C0A8DD3
:101F40000B7413121687780C1214F390851B780803
:101F50001214BA90851B780C1214BA780C790812F6
:101F600012CF40117808790C12147FAA08AB09AC83
:101F70000AAD0B80227510007511007512007513E3
:101F8000017810790C12147F78107908121446AA7F
:101F900010AB11AC12AD137F0C0217C3C082C0830B
:101FA000E9906000F0D083D08222C0E074F2121871
:101FB00003A2AFE433FED2AFE589A2E150031210D1
:101FC0002F758900C2C5EEA2E092AF7F01021862B0
:101FD000C0E074F2121803A2AFE433FED2AFE58B77
:101FE000A2E0500312102F758B00C2E880D8C0E029
:101FF000C0D0E8C0E0E9C0E0A9A8D2AFC2C7E9A25A
:10200000E7E433F8E9A2E792AFD0E0F9D0E0F8D006
:10201000D0D0E032FFFFFFFFFFFFFFFFC082C08391
:102020009061907404F0A37448F0A37402F090617E
:10203000807440F09061BC7403F09061877419F073
:10204000906265741BF090619C740DF090619A74BD
:1020500033F0A37455F09061A0743AF0900814E046
:1020600064017009C29190049D7467800590049D7D
:102070007461F090201AE493906186F0902014E44B
:1020800093F46027E493540FF8906185E068601240
:10209000E5C654804449F5C6E59E547F644970F80E
:1020A000E8F053C680E59E547F70FA7905120CBDA6
:1020B000022479C082C083E5A8F853A87E9061818C
:1020C000E4F0A3F0A3F0C2BA539AFEC289759B0054
:1020D000C2C275E90075910075BF0075A91175B987
:1020E00005906181F0A374C0F0A3E4F0D2BA439AE2
:1020F0000174805842A8022479C082C08374F81207
:10210000163B90049BE0F8A3E0F9E8497003022233
:102110002790049BE0544060237908851882851934
:1021200083AA82AB83120AD7851882851983AA8273
:10213000AB831207B990049BE054BFF0E054806079
:1021400010790C7A387B08120AD790049BE0547FF0
:10215000F0E0A2E0503190619A7433F0A37455F02E
:102160009061A0743AF0900814E064017009C29183
:1021700090049D7467800590049D7461F01207BF00
:1021800090049BE054FEF0E05402603190619A7438
:102190003FF0A3745AF09061A0747FF0900814E0AF
:1021A00064017009D29190049D7471800590049D22
:1021B000746AF01207BF90049BE054FDF0E05404F1
:1021C0006013902018E493906186F01207C5900484
:1021D0009BE054FBF0E054086013902019E49390C6
:1021E0006186F01207C590049BE054F7F0E05410AC
:1021F000601390201AE493906186F01207C5900452
:102200009BE054EFF0E05420600A1207C590049B55
:10221000E054DFF0A3E05401600D1209E11207CB96
:1022200090049CE054FEF074081216510224797454
:10223000EC1216AB74F412163B851882851983AC28
:1022400082AD83758385758253740412154E902078
:102250001893F460030223BC907808E0C394025002
:102260000302239C7404121687AC82AD83758384A9
:1022700075829A740812154E851882851983858295
:10228000128583137404121687AC82AD83750EFF1A
:10229000750FFF7FFF7E00750C48750D78801574F3
:1022A000086E700302232F74096E700302232F74CB
:1022B0000A6E607B850C82850D8378081214F38C7E
:1022C000828D83A909E50AC9F88810741878081264
:1022D000140EE5104508F8C3E098A3E099850C8238
:1022E000850D8378081214F340188C828D8374183E
:1022F000780812140EE5104508F8E0C398F8A3E03A
:10230000801C7418780812140EE5104508FAE9FBD1
:102310008C828D83E0F8A3E0F9EAC398F8EB99F991
:10232000C3E8950EE9950F5006880E890FEEFF0E53
:10233000E50C2404F50CE50D3400F50DEEC3941303
:10234000500302229F74FF650E700474FF650F60D6
:10235000238F087402780812162874482508F5821D
:1023600074783509F58378081214F3851282851381
:1023700083E508F0EC24020C0CED3400FD8512829C
:10238000851383A3858212858313740C121687E547
:10239000826C7003E5836D600302228D7508017500
:1023A000090078081218BE7402121687AC82AD8339
:1023B0007A067B0812100B7402121651740C121656
:1023C000517F0C02177DC082C0839061AE7468F0AB
:1023D000A3746AF090624574FBF0A304F053F4FD1B
:1023E00043FE029008147401F09061A0E0643A90FA
:1023F000619A70237433F0A37455F09061A0743A1D
:10240000F0740164017009C29190049D7467802882
:1024100090049D74618021743FF0A3745AF0906120
:10242000A0747FF0740164017009D29190049D74CE
:1024300071800590049D746A8000F0022479C08246
:10244000C0839007F2E0640170159007F8E0640122
:102450006009E0700AA3E064017004790C801290B6
:102460000809E06401700890080FE0640160EC79ED
:1024700000022479E0F9121F9CD083D08202011F50
:10248000C082C0839007FC7425F09007FA7401F0B5
:10249000A3E4F07A01FB120C399007E8E02416F867
:1024A000A3E03400F9888289837405F0A3740AF0EC
:1024B0009007F9E0640170169007F8E07010790158
:1024C000120C99120C69120C937900120CA580A9B8
:1024D000C082C08374FA12163B9007F1E064017069
:1024E000081209ED9007F1E4F075E1F19007E8E0DA
:1024F0002415F8A3E03400F9888289837401F090F0
:1025000007F3E0640170769084B1C08285188285FB
:102510001983AC82AD83758384D082740612154E04
:1025200075D90D9007EAE0C4333354C04403F5D99C
:1025300078E8790788828983A3A3A3E0F5D9888204
:102540008983A3A882A983E864EE7003E964077015
:10255000E3851882851983A882A98388828983E00C
:10256000F5D9A3A882A9837406121687E58268703C
:1025700003E5836970E575E19579018002790012C0
:102580000C3F9010487455F0A3740BF0A3745BF0EB
:10259000A3740BF0A37455F0A3740BF0A37455F05F
:1025A000A3740BF0A37425F0A3740BF0A37425F0AF
:1025B000A3740BF0A37461F0A3740BF09010567425
:1025C00025F0A3740BF0A37425F0A3740BF0A3748F
:1025D00025F0A3740BF0A37425F0A3740BF0A3747F
:1025E00025F0A3740BF0A37425F0A3740BF09007EF
:1025F000EAE0F97AEB7B07120C1B9007FCE0F9127A
:102600001F9C7901120C459084F7121511120C5D74
:10261000908557121511120C277900120CB19007F2
:10262000E8E02414F8A3E03400F988828983741662
:10263000F09004997405F00402222974F71216AB85
:102640008908A808E875F006A4C8AAF02AF974C990
:1026500028FE740439FF900801E0F97A027B081221
:102660000C1B90080FE0701A7900120C7B9007DBAE
:10267000E0700B79007ADC7B07120C21800979016C
:1026800080F37901120C7B75E1F175D92390080173
:10269000E0C4333354C04405F5D978FF7907888204
:1026A0008983A3A3A3E0F5D988828983A3A882A9FB
:1026B00083E864057003E9640870E375D90075D98F
:1026C0000075D90075D90075D90075D900EEF8EFFD
:1026D000F9E82404FAE93400FBE82422F582E9341D
:1026E00000F583E0F5D988828983A3A882A983EACB
:1026F000687002EB6970E2EEF8EFF9E824031AE97A
:102700003400FBE82426F582E93400F583E0F5D9AE
:1027100088828983A3A882A983EA687002EB697022
:10272000E2EE242BF582EF3400F583E0F5D9EEF8E4
:10273000EFF9E824021AE93400FBE8242CF582E9D9
:102740003400F583E0F5D988828983A3A882A98320
:10275000EA687002EB6970E2EEF8EFF9E8242EF512
:1027600082E93400F583E0F5D988828983A3A882C1
:10277000A983EA687002EB6970E2EEF8EFF9E824E9
:1027800030F582E93400F583E0F5D988828983A3A6
:10279000A882A983EA687002EB6970E2EEF8EFF9AB
:1027A000E82432F582E93400F583E0F5D98882899E
:1027B00083A3A882A983EA687002EB6970E2EEF84D
:1027C000EFF9E824050A0A0AE93400FBE8245DF57C
:1027D00082E93400F583E0F5D988828983A3A88251
:1027E000A983EA687002EB6970E2EE2437F582EFA4
:1027F0003400F583E0541FF8EE242AF582EF34000C
:10280000F583E0C43354E048F5D975E1959010485C
:10281000742BF0A3740BF0A37431F0A3740BF0A32A
:102820007425F0A3740BF0A37425F0A3740BF0A32C
:102830007425F0A3740BF0A37425F0A3740BF0A31C
:102840007437F0A3740BF09010567425F0A3740B3A
:10285000F0A37425F0A3740BF0A37425F0A3740BFC
:10286000F0A37425F0A3740BF0A37425F0A3740BEC
:10287000F0A37425F0A3740BF090080EE0F9121F7A
:102880009C9084F7121511120C5D9085571215114A
:10289000120C2790600DE4F07901120CB1900499AC
:1028A0007406F0022E9674EC1216AB9007FFE0F857
:1028B000A3E0F5838882A3A378101214F390081084
:1028C000E0FAF875F006A4C8ACF02CF974F728F516
:1028D00082740439F583E0FEA3E0FFEEC333FEEF1C
:1028E00033FF8E0CF50D750E00750F0085100885F1
:1028F000110985120A85130B90854F780812145917
:1029000078081218BA85100885110985120A8513EE
:102910000B7808790C1214467810790C12138EE497
:10292000F50EF50F7808790C12147F8A0C750D00DE
:102930007403780C1216287808790C1214469085C6
:102940001B78081214BAAA08AB09AC0AAD0B121F07
:102950003474041216518A088B09A808A909C3EE19
:1029600098EF995006E82EF8E93FF9E890600EF0EC
:10297000E9A3F0EEA3F0EFA3F090600D74C1F002B4
:1029800023C1C082C0839007E8E0F8A3E0F5838804
:1029900082A3A3A3A3A3A3E4F0A3F09007FC0224C3
:1029A00074C082C0839007FFE0F8A3E0F5838882BB
:1029B000A3A3A3A3A3A3E4F0A3F090080E0224749E
:1029C00002011F74F61216AB9061D0E0F87480C358
:1029D00098FCEA2483F582EB3400F583E060047808
:1029E0000480027800E8240EF8ECC3985003022B10
:1029F000447E0C900818E4F0EA2477F582EB34006A
:102A0000F583E0900819F0EA2478FCEB3400FD78B7
:102A10001A79087F028C828D83E088828983F08C0A
:102A2000828D83A3AC82AD8388828983A3A882A987
:102A3000831FEF70E0EA247AFCEB3400FD7F028C08
:102A4000828D83E088828983F08C828D83A3AC821F
:102A5000AD8388828983A3A882A9831FEF70E0EAEF
:102A6000247CFCEB3400FD7F028C828D83E0888225
:102A70008983F08C828D83A3AC82AD838882898325
:102A8000A3A882A9831FEF70E0EA247EFCEB340048
:102A9000FD7F028C828D83E088828983F08C828D19
:102AA00083A3AC82AD8388828983A3A882A9831F74
:102AB000EF70E0EA2475FCEB3400FD8A828B83A37F
:102AC000A3A3A3A3E0F508A3E0F5098C828D83E01E
:102AD0002508F0A3E03509F07F028C828D83E08821
:102AE000828983F08C828D83A3AC82AD83888289B6
:102AF00083A3A882A9831FEF70E0EA2483F582EB09
:102B00003400F583E0601975081875090878081213
:102B100018BE7C0C7903120B1974021216517E1028
:102B200074012EF5D975D903758218758308EEFFE7
:102B3000E0F5D9A31FEF70F875E1957904120C63E5
:102B400079018002790002307874F61216AB906138
:102B5000D0E0F87480C398FCEA2483F582EB34005B
:102B6000F583E06004780480027800E8240AF8EC39
:102B7000C3985003022C397508089008187401F0A6
:102B80007CE27D07781979087E058C828D83E08848
:102B9000828983F08C828D83A3AC82AD8388828905
:102BA00083A3A882A9831EEE70E0EA2481FCEB34A3
:102BB00000FD8A828B83A3A3A3A3A3E0FEA3E0FF6F
:102BC0008C828D83E02EF0A3E03FF07E028C828D1C
:102BD00083E088828983F08C828D83A3AC82AD836D
:102BE00088828983A3A882A9831EEE70E0EA2483E9
:102BF000F582EB3400F583E0601A75081875090852
:102C000078081218BE7C087903120B197402121688
:102C10005175080C74012508F5D975D9037582180A
:102C2000758308AE08E0F5D9A31EEE70F875E1953E
:102C30007904120C6379018002790002307874F70C
:102C40001216ABEAFEEBFF9061D0E06003022D3577
:102C500075D91875D90375D903EEF8EFF9E824088A
:102C6000FAE93400FBE8249CF582E93400F583E0BE
:102C7000F5D988828983A3A882A983EA687002EBC8
:102C80006970E2EEF8EFF9E82402FAE93400FBE8B3
:102C900024A4F582E93400F583E0F5D9888289839C
:102CA000A3A882A983EA687002EB6970E2EE24941B
:102CB000F582EF3400F583E5822408F8E5833400DB
:102CC000F9E0F5D9A3E865827003E9658370F2EE57
:102CD0002488F582EF3400F583E5822404F8E58347
:102CE0003400F9E0F5D9A3E865827003E9658370E3
:102CF000F275E1957908EE2494FAEF3400FB120A9C
:102D0000CB7904EE2488FAEF3400FB120ACB790465
:102D1000120C63EE2470F582EF3400F583E0F8A323
:102D2000E0F9EE2472F582EF3400F583E8F0A3E9D0
:102D3000F0790180027900022E9674F61216ABEA41
:102D4000FEEBFF9008187406F075081875090878EE
:102D5000081218BE7C017903120B19740212165165
:102D600075D90675D903758218758308E0F5D9A35E
:102D7000E582641D7004E583640870F075E1959048
:102D80000499E06408701EEE2470F582EF3400F5BB
:102D900083E0F8A3E0F9EE2472F582EF3400F583C6
:102DA000E8F0A3E9F0790102307874F61216ABEA84
:102DB000FEEBFF9061D0E0705E900818740AF07529
:102DC000081875090878081218BE7C017903120BDF
:102DD00019740212165175D90675D90375821875C2
:102DE0008308E0F5D9A3E582641D7004E5836408D7
:102DF00070F075E195EE2470F582EF3400F583E014
:102E0000F8A3E0F9EE2472F582EF3400F583E8F0E0
:102E1000A3E9F079018002790002307874F6121685
:102E2000ABEAFEEBFF9061D0E07066780190081885
:102E3000740BF0900499E06407701975081875090F
:102E40000878081218BE7C017903120B197402125B
:102E500016517805740128F5D975D903758218754E
:102E60008308E8FAE0F5D9A31AEA70F875E195EE5F
:102E70002470F582EF3400F583E0F8A3E0F9EE2446
:102E800072F582EF3400F583E8F0A3E9F079018070
:102E90000279000230787F0102177D74F61216ABBA
:102EA000EAFEEBFF9061D0E0F87480C398FAEE245C
:102EB00083F582EF3400F583E060047804800278C3
:102EC00000E8240BF8EAC3985003022F717D0990A3
:102ED00008187408F0EE24E5F8EF3400F97A197B4D
:102EE000087C0888828983E08A828B83F0888289C3
:102EF00083A3A882A9838A828B83A3AA82AB831C23
:102F0000EC70E0EE2483F582EF3400F583E0601D81
:102F100075081875090878081218BE7C097903EE3F
:102F2000FAEFFB120B1974021216517D0D74012D6C
:102F3000F5D975D9037582187583088D08E0F5D920
:102F4000A31508E50870F675E1957904120C63EE97
:102F50002470F582EF3400F583E0F8A3E0F9EE2465
:102F600072F582EF3400F583E8F0A3E9F07901808F
:102F700002790002307874F61216ABEAFEEBFF908D
:102F800061D0E0F87480C398FAEE2483F582EF34C0
:102F900000F583E06004780480027800E82408F8F3
:102FA000EAC39850030230767D06900818740CF03E
:102FB0009004B6E0900819F07AB77B04781A790883
:102FC0007C028A828B83E088828983F08A828B8369
:102FD000A3AA82AB8388828983A3A882A9831CECDD
:102FE00070E07AB97B047C028A828B83E0888289D4
:102FF00083F08A828B83A3AA82AB8388828983A38E
:10300000A882A9831CEC70E0EE2483F582EF3400E3
:10301000F583E0601D75081875090878081218BE58
:103020007C067903EEFAEFFB120B197402121651AB
:103030007D0A74012DF5D975D90375821875830839
:103040008D08E0F5D9A31508E50870F675E19579C6
:1030500004120C63EE2470F582EF3400F583E0F87F
:10306000A3E0F9EE2472F582EF3400F583E8F0A3D3
:10307000E9F07901800279007F0202177D74F6126F
:1030800016ABEAFEEBFF9061D0E0F87480C398FACB
:10309000EE2483F582EF3400F583E0600478048049
:1030A000027800E82404F8EAC39850030231577804
:1030B00002900818E8F0EE24F7F582EF3400F5836B
:1030C000E0900819F0EE2483F582EF3400F583E0F8
:1030D000601B75081875090878081218BE7C0279FB
:1030E00003EEFA120B1974021216517806740128B5
:1030F000F5D975D9037582187583088808E0F5D964
:10310000A31508E50870F675E195EE2474F582EFD5
:103110003400F583E4F0EE2480F582EF3400F5838B
:10312000E4F0EE241DF582EF3400F583E4F0A3F023
:103130007904120C63EE240DF582EF3400F583E080
:10314000F8A3E0F9EE2472F582EF3400F583E8F09D
:10315000A3E9F079018002790002307874F6121642
:10316000AB9061D0E0F87480C398FCEA2483F582C8
:10317000EB3400F583E06004780480027800E824F2
:1031800004F8ECC398405B79029008187407F0EAE1
:1031900024F8F582EB3400F583E0900819F0EA2476
:1031A00083F582EB3400F583E06018750818750923
:1031B0000878081218BE7C0209120B197402121644
:1031C000517906740129F5D975D90375821875836B
:1031D00008E9F8E0F5D9A318E870F875E1957901E8
:1031E0008002790002307874F51216ABE9FCA2AFC8
:1031F000E433F50AC2AF7D0080010DEA246FF58249
:10320000EB3400F583E0F8EDC398501A8D08EA25F9
:1032100008F8EB3400F9E8246BF582E93400F58313
:10322000E06C70D68024EA246FF8EB3400F9E0FEFD
:10323000EA2EFAEB3400FBEA246BF582EB3400F55E
:1032400083ECF088828983E004F0E50AA2E092AF83
:103250007F0302177D74F61216ABA2AFE433FDC2F2
:10326000AFEA246FF582EB3400F583E014F07C00C4
:1032700060368C08EA2508F8EB3400F9E8246CF590
:1032800082E93400F583E0C0E0E8246BF582E9349C
:1032900000F583D0E0F00CEA246FF582EB3400F502
:1032A00083E0F8ECC39840CAEA246EF582EB340060
:1032B000F58374FFF0EA246AF582EB3400F583E4C9
:1032C000F0EDA2E092AF023078C082C083E5A8F8AA
:1032D000C2AFEA246BF582EB3400F583E9F0EA240F
:1032E0006AF582EB3400F583E4F0E8A2E792AF02DE
:1032F000247974F31216ABEAFEEBFFECFAEDFB8ACD
:10330000828B83A3A3A3A3E0541FF0EE2436F5829F
:10331000EF3400F583E4F0F50AEEFCEFFD8A828BD2
:1033200083E0C0E0EC245DF582ED3400F583D0E06D
:10333000F0750B00E50A33333354F8F50C8A828BB1
:1033400083E0F508750900E50B7808121609E50811
:10335000A2E0502FEE2436F8EF3400F988828983FA
:10336000E0F508EE2508F508EF3400F509E5082436
:1033700038F582E5093400F583E50CF0888289830D
:10338000E004F0050B050CE50BC3940840AF050AFB
:103390008A828B83A3AA82AB838C828D83A3AC8227
:1033A000AD83E50AC39405500302331D7F05021760
:1033B0007D74F71216AB9004C5E0640370077A00C1
:1033C0007B00022E967B0078C5790488828983A3CE
:1033D000A3A3A3A3A3E060030236ABEBF875F0064A
:1033E000A4C8AAF02AF974C928F8740439F98882A3
:1033F0008983A3A37401F088828983A3A3A3E4F043
:10340000EB88828983A3A3A3A3F0E82462F582E971
:103410003400F5837401F0E82465F582E93400F5A1
:1034200083E4F0A3F0E82468F582E93400F58374BE
:1034300001F088828983A3A3A3A3A3E4F0A3F08867
:10344000828983A3A3A3A3A3A3A3F0A3F0E8240FDB
:10345000F582E93400F5837401F0E82435F582E95A
:103460003400F583E4F09084FB121511E82418F57C
:1034700082E93400F58312151DE8241CF582E93435
:1034800000F583E4F0E8241DF582E93400F583E4D7
:10349000F0A3F0E82480F582E93400F583E4F0E855
:1034A0002474F582E93400F583E4F0E82469F582B8
:1034B000E93400F5837480F0E8246AF582E9340089
:1034C000F583E4F0E8246FF582E93400F583E4F055
:1034D000E82467F582E93400F583E4F0E824EDF5AB
:1034E00082E93400F583E4F0E824EEF582E9340063
:1034F000F583E4F0E824EFF582E93400F583E4F0A5
:10350000E824F0F582E93400F583E4F0E824F1F5ED
:1035100082E93400F583E4F0A3F0E824F3F582E9CE
:103520003400F583E4F0A3F0E824F6F582E93400F2
:10353000F583E4F0E82483F582E93400F583E4F0D0
:10354000E824D3F582E93400F583E4F0E824D4F5E7
:1035500082E93400F583E4F09084FB121511E8242D
:10356000D5F582E93400F58312151D9084FB121500
:1035700011E824D9F582E93400F58312151DE824F9
:10358000DFF582E93400F583E4F0E824E1F582E92F
:103590003400F583E4F0E824DDF582E93400F583B6
:1035A000E4F0E824E2F582E93400F583E4F0E8246D
:1035B000E3F582E93400F583E4F0E824F9F582E9E3
:1035C0003400F583E4F0A3F0E824FBF582E934004D
:1035D000F583E4F0A3F0E824FDF582E93400F583F7
:1035E000E4F0A3F0E824FFF582E93400F583E4F089
:1035F000A3F0E8FAE9FBEA2404FCEB3400FDEA243A
:103600006BF582EB3400F58374FFF08A828B83A321
:10361000AA82AB83EC6A7002ED6B70E2E8FAE9FB18
:103620007CE27D078C828D83E0C0E0EA245DF58238
:10363000EB3400F583D0E0F08C828D83A3AC82ADB7
:10364000838A828B83A3AA82AB83EC64E77003ED49
:10365000640770D0E8FAE9FB7CAC7D048C828D8332
:10366000A3E0C0E0EA24E5F582EB3400F583D0E086
:10367000F08C828D83A3AC82AD838A828B83A3AAD4
:1036800082AB83EC64B47003ED640470CF9004C526
:10369000E004F06401700D88828983A3A3A3A3E0F2
:1036A0009004C7F0E8FAE9FB0233C20BE82406F8FD
:1036B000E93401F9EBC3940340030233BE0233CB78
:1036C000C082C0838A828B83A3A3A3E0600F8A8217
:1036D0008B83A3A3A3E4F09004C6E014F09004C588
:1036E000E014F070069004C774FFF08A828B83A305
:1036F000A3E4F09007E7E0700D9004C6E064017069
:10370000057900120C2D022479C082C08378C57916
:103710000488828983A3A3A3A3A3A3A3E4F088823C
:103720008983A3A3A3A3A3A3F0E82406F8E93401A3
:10373000F9E864D77003E9640770D69004C5E4F033
:10374000A3F0A374FFF075E1F102247974F312166B
:10375000AB750800750900750C00750AC9750B0476
:10376000AE0AAF0B8E828F83A3A3A3E0603FE50870
:103770004509700AEEF8EFF988088909802F850855
:1037800082850983E0F8A3E0F5838882A3A3121859
:10379000D18E828F83E0F8A3E0F5838882A3A31201
:1037A0001511121ED77404121651E960C7050CEEEC
:1037B0002406F50AEF3401F50BE50CC3940340A091
:1037C000850882850983A3A3A3A3E0F90233AC741F
:1037D000F61216AB78FF79FF7508007EC97F04EEFC
:1037E000FCEFFD8C828D83A3A3A3E0606474FF686B
:1037F000700374FF697025EC2474F582ED3400F5D4
:1038000083E064017011EC247AF582ED3400F583D5
:10381000E0F8A3E0F9803AEC242E80EDEC2474F576
:1038200082ED3400F583E064017014EC247AF582B3
:10383000ED3400F583C3E098A3E099501480C7EC01
:10384000242EF582ED3400F583C3E098A3E099407F
:10385000C60508EE2406FEEF3401FFE508C3940315
:1038600050030237DFC3EA98EB994004E8FAE9FB1A
:1038700002307874F61216ABEAFEEBFF8E828F836D
:10388000A3A3A3E0600F8E828F83A3A3A3E4F09091
:1038900004C6E014F09004C5E014F070069004C76C
:1038A00074FFF08E828F83A3A3E4F09007E7E070AB
:1038B0000D9004C6E0640170057900120C2DEE2411
:1038C00065F582EF3400F583E0F8A3E0F9E849609C
:1038D00029EE2465F8EF3400F9880889098882F513
:1038E00083E0FCA3E0FD9004C7E0FA7B001207EF41
:1038F000850882850983E4F0A3F0EEFAEFFB120B52
:103900009702307874F71216ABEAFEEBFF8E828FC7
:1039100083A3A3A3A3E0FA7B00120837EEFAEFFB20
:10392000120A89120B79022E96C082C0837C007A1B
:10393000C97B04EAF8EBF988828983A3A3A3E0603A
:103940001EE8246FF582E93400F583E06011E82475
:103950006BF582E93400F583E07004790180110C85
:10396000EA2406FAEB3401FBECC3940340C579006A
:10397000022479C082C08378AC790488828983A3C9
:10398000E4F088828983A3A882A983E864B47003E1
:10399000E9640470E69004AD740102243AC082C068
:1039A0008374FC12163B9084FB12151185188285D6
:1039B000198312151D120AD1E9851882851983F021
:1039C000120AD17401121687E9F0120AD174021298
:1039D0001687E9F08518828519831215117404027F
:1039E000222974F61216ABEAFEEBFFEC2403F8ED85
:1039F0003400F988088909EC2407F8ED3400F9E867
:103A0000FCE9FD8C828D83E0F8A3E0F985088285CE
:103A10000983E0FAA3E0FB1215B0EE240DF582EF66
:103A20003400F583E8F0A3E9F08C828D83E0F8A3FD
:103A3000E0F9850882850983E0FAA3E0FB1215B05E
:103A40008B09EA45096013EE240DF582EF3400F589
:103A500083E02401F0A3E03400F002307874F61221
:103A600016ABEAFEEBFFEE242EF582EF3400F58371
:103A7000E0FCA3E0FD780079FAECFAEDFB1215B05A
:103A8000EE2470F582EF3400F583E8F0A3E9F078D6
:103A90000079FAECFAEDFB1215B08B09EA450960E2
:103AA00013EE2470F582EF3400F583E02401F0A3D7
:103AB000E03400F002307874F01216ABEAFEEBFF4F
:103AC000741012168778081214F3120BFD8A0C8BEF
:103AD0000D8C0E8D0F90854B780C12145990851B10
:103AE000780C1214BA780C1218BA8E828F83E0F810
:103AF000A3E0F5838882A3A3121511121ED77404C4
:103B0000121651E96003023C048E828F83E0240286
:103B1000F8A3E03400F9E8FAE9FB8A828B8378089D
:103B200012146C90851B78081214F38A828B8378A8
:103B3000081214CDEE240BF582EF3400F583C08219
:103B4000C0838E828F83A3A3A3A3A3E02401F8A341
:103B5000E03400F9D083D082E0687003A3E069709C
:103B6000057901023C068E828F83A3A3A3A3A3A39E
:103B7000A3E02401F0A3E03400F0EE2474F582EF1A
:103B80003400F583E064017036EE2475F582EF347D
:103B900000F583E0F8A3E0F98E828F83A3A3A3A3AB
:103BA000A3A3A3E0687003A3E0697013EE2475F586
:103BB00082EF3400F583E02401F0A3E03400F0EE5E
:103BC0002480F582EF3400F583E064017036EE2442
:103BD00081F582EF3400F583E0F8A3E0F98E828F5F
:103BE00083A3A3A3A3A3A3A3E0687003A3E06970C6
:103BF00013EE2481F582EF3400F583E02401F0A375
:103C0000E03400F079007F0802177D74F71216ABDC
:103C10009004C7E0F875F006A4C8AAF02AF974C9A0
:103C200028FE740439FF8028EE2465F8EF3400F98B
:103C300088828983E0FCA3E0FD88828983E4F0A385
:103C4000F08E828F83A3A3A3A3E0FA7B001207EF79
:103C5000EE2465F582EF3400F583E0F8A3E0F9E89F
:103C600049604FEE2464F582EF3400F583E0F508F7
:103C700078081218C2EE2463F582EF3400F583E071
:103C8000F9EE2465F582EF3400F583E0FCA3E0FD56
:103C9000EEFAEFFB120ABF7401121651E96089EEC9
:103CA0002465F582EF3400F583E0F8A3E0F9E849F4
:103CB00070137C007D008E828F83A3A3A3A3E0FA00
:103CC0007B001207EF022E9674F21216ABEAFEEB9F
:103CD000FF890A740E121687E0FAEE2462F582EF6D
:103CE0003400F583E064016003023D949061D0E00C
:103CF000F87480C398F50CEE2483F582EF3400F558
:103D000083E060047804800278008908E928F8E4F8
:103D10003400F9E824020808E93400F9E50C98E4D5
:103D200099A2D265D0334068EA7005750B02800312
:103D3000750B01E0603975090078081218BE7A1811
:103D40007B08120AFB7402121651750818750908CF
:103D500078081218BEAC0AA90BEEFAEFFB120B1989
:103D600074021216517404250AF50A7C187D087431
:103D700001250AF5D9850BD9E50A600D8C828D8362
:103D8000F8E0F5D9A318E870F875E1957900800698
:103D90007907800279FF7F0602177DC082C083E920
:103DA00060208C828D83E08A828B83F08C828D836D
:103DB000A3AC82AD838A828B83A3AA82AB8319E9E9
:103DC00070E0ECFAEDFB022479C082C08378697957
:103DD0000888828983A3A3A3A3A3A3E4F08882898C
:103DE00083A3A3A3A3A374FFF0E82418F8E9340085
:103DF000F9E864C97003E9640870D690086B74FF31
:103E0000F090086AE4F0900869F090086CF0A3F074
:103E10000254F174EC1216AB90086CE0F508A3E0C4
:103E2000F509E508450970061209D5024AC085085A
:103E300082850983E014601814601524FE60112443
:103E4000C4700302458224C07003024582024AC046
:103E5000E0F9120B8B8A0A8B0BAE0AAF0B9004C6EB
:103E6000E07003024200120A7DE9F875F006A4C86A
:103E7000AAF02AF974C928F50C740439F50D850CDB
:103E800082F583E0F50AA3E0F50BAC0AFDEEFAEF4C
:103E9000FB120B85E9F50E7402650E70030241BF3B
:103EA0008E828F83E024FE600A24FE70030240B7F6
:103EB000024AC0EE65087003EF650960211209F33C
:103EC0009007F9E0640170169007F8E0701079012E
:103ED000120C99120C69120C937900120C9FE50ECA
:103EE0006021E5082415F582E5093400F583E060DA
:103EF000129007F4E0F8A3E0F9A3E0687003A3E0F0
:103F0000697026120BFD8A0C8B0D8C0E8D0F90851F
:103F100037780C12145990851B780C1214BA8E82C3
:103F20008F83A3A3780C121502E5082415F582E50A
:103F3000093400F583E064016003023FDD850A82F5
:103F4000850B83A3A3780C1214F3908533780C129D
:103F50001459780C1218BA8E828F83A3A3C082C022
:103F6000839007F6E0F508A3E085080CF50DE4F56D
:103F70000EF50FD083D082780C121459AA0CAB0D19
:103F8000AC0EAD0F121ED77404121651E9703C8EA0
:103F9000828F83A3A3C082C0839007F6E0F508A3B5
:103FA000E0F509E4F50AF50BD083D0827808121405
:103FB0005990851B78081214BAEE240EF582EF345E
:103FC00000F58378081215020240AF850A82850B3E
:103FD00083A3A378081214F390853380CFEE240EC8
:103FE000F582EF3400F5831218D18E828F83A3A35C
:103FF000121511121ED77404121651E964016003E0
:104000000240AF850A82850B83A3A3780C1214F3B8
:10401000908533780C121459780C1218BA8E828F4E
:1040200083A3A3C082C0839007F6E0F508A3E085D0
:10403000080CF50DE4F50EF50FD083D082780C1244
:104040001459AA0CAB0DAC0EAD0F121ED77404128E
:104050001651E9701F8E828F83A3A3C082C0839004
:1040600007F6E0F508A3E0F509E4F50AF50BD083BF
:10407000D0828010850A82850B83A3A3780812144E
:10408000F3908533780812145990851B7808121420
:10409000BAEE240EF582EF3400F58378081215028B
:1040A0009007FCE06427700474258002E004F0901F
:1040B000086B7402024AB8EE65087003EF65096088
:1040C00031900810E0F91209F9850882850983E02A
:1040D0006402701E9007F9E0640170169007F8E022
:1040E00070107900120C99120C69120C937901125C
:1040F0000C9FE50E601290080AE0F8A3E0F9A3E037
:10410000687003A3E0697026120BFD8A0C8B0D8C7E
:104110000E8D0F908537780C12145990851B780CF2
:104120001214BA8E828F83A3A3780C121502850A0B
:1041300082850B83A3A3780C1214F3908533780C3B
:10414000121459780C1218BA8E828F83A3A3C082DE
:10415000C08390080CE0F508A3E085080CF50DE499
:10416000F50EF50FD083D082780C121459AA0CAB3F
:104170000DAC0EAD0F121ED77404121651E9701F4C
:104180008E828F83A3A3C082C08390080CE0F508C1
:10419000A3E0F509E4F50AF50BD083D08280108501
:1041A0000A82850B83A3A378081214F390853378D1
:1041B0000812145990851B78081214BA024AA18576
:1041C0000882850983E0640270139007F9E06401B6
:1041D000700B9007F8E070057900120C99E50C243B
:1041E00004FEE50D3400FF8E828F83E0F9120BC1CF
:1041F0008E828F83E09004C7F0AA0AAB0B024ABDFF
:10420000EE65087003EF65098E828F8360030243B9
:10421000E4E024FE600A24FE700302433F024AB930
:10422000EE2415F582EF3400F583E060419007F449
:10423000E0F8A3E0F9A3E0687003A3E069602F123F
:104240000BFD8A088B098C0A8D0B90850778081264
:10425000145978081218BA8E828F83A3A3121511ED
:10426000121ED77404121651E96003024AB9120BE8
:10427000FD8A088B098C0A8D0B90853778081214FB
:104280005990851B78081214BA8E828F83A3A37865
:1042900008121502EE2415F582EF3400F583E06470
:1042A0000170348E828F83A3A3C082C0839007F6EF
:1042B000E0F508A3E0F509E4F50AF50BD083D08218
:1042C0007808121459EE240EF582EF3400F5837845
:1042D00008121502024AB9EE240EF582EF3400F5F9
:1042E000831218D18E828F83A3A3121511121ED7A9
:1042F0007404121651E964016003024AB98E828F78
:1043000083A3A3C082C0839007F6E0F508A3E0F57D
:1043100009E4F50AF50BD083D0827808121459EE1F
:10432000240EF582EF3400F5837808121502900709
:10433000FCE0642770057425024AB8E00480F99017
:10434000080AE0F8A3E0F9A3E0687003A3E069605D
:104350002C120BFD8A088B098C0A8D0B908507782F
:104360000812145978081218BA8E828F83A3A312E8
:104370001511121ED77404121651E97064EE24024E
:10438000F508EF3400F509120BFD8A0C8B0D8C0E2D
:104390008D0F908537780C12145990851B780C126C
:1043A00014BA850882850983780C12150285088263
:1043B000850983C082C08390080CE0F508A3E0F56E
:1043C00009E4F50AF50BD083D0827808121459EE6F
:1043D000240EF582EF3400F58378081215021209D5
:1043E000FF024AB9E024FE600A24FE70030244AAD8
:1043F000024AC01209F39007F9E0640170169007B1
:10440000F8E070107901120C99120C69120C937972
:1044100000120C9F9007F4E0F8A3E0F9A3E06870A5
:1044200003A3E069602F120BFD8A088B098C0A8DAB
:104430000B908507780812145978081218BA8E82E2
:104440008F83A3A3121511121ED77404121651E9FB
:1044500060030240AFEE2402F508EF3400F50912C4
:104460000BFD8A0C8B0D8C0E8D0F908537780C12FE
:10447000145990851B780C1214BA8508828509831B
:10448000780C121502850882850983C082C083904A
:1044900007F6E0F508A3E0F509E4F50AF50BD0838B
:1044A000D0827808121459023FB9900810E0F9122E
:1044B00009F9850882850983E06402701E9007F976
:1044C000E0640170169007F8E070107900120C9902
:1044D000120C69120C937901120C9F90080AE0F8F3
:1044E000A3E0F9A3E0687003A3E069602C120BFD60
:1044F0008A088B098C0A8D0B90850778081214594D
:1045000078081218BA8E828F83A3A3121511121E77
:10451000D77404121651E97066EE2402F8EF3400E5
:10452000F988088909120BFD8A0C8B0D8C0E8D0FF2
:10453000908537780C12145990851B780C1214BA98
:10454000850882850983780C121502850882850901
:1045500083C082C08390080CE0F508A3E0F509E46D
:10456000F50AF50BD083D0827808121459EE240E88
:10457000F582EF3400F58378081215021209FF0264
:104580004AB39004C6E07003024918120A7DE9F8A4
:1045900075F006A4C8AAF02AF974C928F5107404A5
:1045A00039F511851082F583E0F508A3E0F509904F
:1045B00004C7E0F875F006A4C8AAF02AF974C9285F
:1045C000F50C740439F50D90086AE0540770030285
:1045D0004841A3E0F9120B8B8A0A8B0BAE0AAF0B92
:1045E000AC08AD09120B85E9F50E7402650E700377
:1045F000024841850C82850D83A3A3A3A3E0F8752F
:10460000F08AA4C8AAF02AF974CE28F50A740839E9
:10461000F50BAA0AFB120BB5AA0AAB0B120BAF756E
:10462000128075130078121218BE7C007D60E50AB6
:104630002406FAE50B3401FB120AFB740212165130
:10464000A80AA90B906195E0C0E0E82486F582E90C
:104650003401F583D0E0F0906196E0C0E0E8248773
:10466000F582E93401F583D0E0F0906197E0C0E095
:10467000E82488F582E93401F583D0E0F090619870
:10468000E0C0E0E82489F582E93401F583D0E0F068
:104690008E828F83E024FE600A24FE700302477C32
:1046A0000248411209F39007F9E064017011900784
:1046B000F8E0700B120C69120C937900120C9FE554
:1046C0000E60129007F4E0F8A3E0F9A3E06870032D
:1046D000A3E0697026120BFD8A0C8B0D8C0E8D0FDA
:1046E000908537780C12145990851B780C1214BAE7
:1046F0008E828F83A3A3780C121502850882850908
:1047000083A3A3780C1214F3908533780C121459F8
:10471000780C1218BA8E828F83A3A3C082C08390B4
:1047200007F6E0F50CA3E0F50DE4F50EF50FD083E8
:10473000D082780C121459AA0CAB0DAC0EAD0F122E
:104740001ED77404121651E9701F8E828F83A3A3A3
:10475000C082C0839007F6E0F508A3E0F509E4F510
:104760000AF50BD083D0828010850882850983A347
:10477000A378081214F3908533023FAC900810E040
:10478000F91209F9E50E601290080AE0F8A3E0F9C1
:10479000A3E0687003A3E0697026120BFD8A0C8BFE
:1047A0000D8C0E8D0F908537780C12145990851B47
:1047B000780C1214BA8E828F83A3A3780C12150280
:1047C000850882850983A3A3780C1214F39085339E
:1047D000780C121459780C1218BA8E828F83A3A306
:1047E000C082C08390080CE0F50CA3E0F50DE4F561
:1047F0000EF50FD083D082780C121459AA0CAB0D91
:10480000AC0EAD0F121ED77404121651E9701F8E34
:10481000828F83A3A3C082C08390080CE0F508A315
:10482000E0F509E4F50AF50BD083D0828010850805
:1048300082850983A3A378081214F390853302417B
:10484000AFE510650C7004E511650D7003024911A8
:10485000850C82850D83A3A3A3E070030248F58530
:104860000C82850D83A3A3A3A3E0F875F08AA4C8E6
:10487000AAF02AF974CE28FE740839FFEEFAEFFB8D
:10488000120BB5EEFAEFFB120BAF750A80750B0039
:10489000780A1218BE7C007D60EE2406FAEF34011F
:1048A000FB120AFB7402121651906195E0C0E0EE13
:1048B0002486F582EF3401F583D0E0F0906196E034
:1048C000C0E0EE2487F582EF3401F583D0E0F0906C
:1048D0006197E0C0E0EE2488F582EF3401F583D0E3
:1048E000E0F0906198E0C0E0EE2489F582EF3401B9
:1048F000F583D0E0F0E5102404FEE5113400FF8ECE
:10490000828F83E0F9120BC18E828F83E09004C7FF
:10491000F0AA08AB09024ABD90086AE05407700388
:10492000024AC0A3E0F9120B8B8A088B09AE08AFCC
:10493000098E828F83E024FE600A24FE7003024AFF
:1049400007024AC01209F39007F9E064017016905B
:1049500007F8E070107901120C99120C69120C938F
:104960007900120C9F9007F4E0F8A3E0F9A3E06847
:104970007003A3E069602C120BFD8A088B098C0A76
:104980008D0B908507780812145978081218BA8E82
:10499000828F83A3A3121511121ED774041216510D
:1049A000E97061EE2402F508EF3400F509120BFD01
:1049B0008A0C8B0D8C0E8D0F908537780C12145944
:1049C00090851B780C1214BA850882850983780CAF
:1049D000121502850882850983C082C0839007F67C
:1049E000E0F508A3E0F509E4F50AF50BD083D082E1
:1049F0007808121459EE240EF582EF3400F583780E
:104A0000081215020240AF900810E0F91209F9905F
:104A1000080AE0F8A3E0F9A3E0687003A3E0696086
:104A20002C120BFD8A088B098C0A8D0B9085077858
:104A30000812145978081218BA8E828F83A3A31211
:104A40001511121ED77404121651E97063EE240278
:104A5000F8EF3400F988088909120BFD8A0C8B0DD8
:104A60008C0E8D0F908537780C12145990851B7819
:104A70000C1214BA850882850983780C12150285F8
:104A80000882850983C082C08390080CE0F508A3E2
:104A9000E0F509E4F50AF50BD083D082780812140A
:104AA00059EE240EF582EF3400F5837808121502D2
:104AB0001209FF90086B7404F0EEFAEFFB120B7F03
:104AC0007F0C02177D74F01216ABEAFEEBFFEE24AA
:104AD00002F8EF3400F988088909EE2406F8EF346B
:104AE00000F9880A890B8882F5831218D585088217
:104AF000850983121511120BD97402121651850AF9
:104B000082850B831218D5850882850983121511B9
:104B1000120BCD7402121651EE240EF582EF340002
:104B2000F583121511120BDF8E828F83E0644070C3
:104B30001CEE2412F8EF3400F988828983E090603B
:104B400064F088828983A3E0906065800690606449
:104B5000E4F0A3F090086CEEF0A3EFF0EE2416F56D
:104B600082EF3400F583E0F8A3E0F5838882121623
:104B7000A9906054E4F0A3F0A3F0A3F0A3F0A3F095
:104B8000A3F0A3F0A3F0A3F0A3F0A3F0906182E060
:104B9000C2E6F07591BFEE2415F582EF3400F5837F
:104BA000E064017003120C0FE5E170FCEE2414F5D3
:104BB00082EF3400F583E0F46003E0F5E1EE2415C4
:104BC000F582EF3400F5837401F090049FE06401F6
:104BD000706F120BFD8A088B098C0A8D0B780812F6
:104BE00018BA8E828F83A3A3121511121F34740476
:104BF0001216518A088B098C0A8D0B90852F780C20
:104C00001214F37808790C12130E74037808121436
:104C10000EE50824F4F508E5093401F509900816B5
:104C2000E06003121167E4F50AF50B78081218BA70
:104C30007A207B00900498E0F912120F7404121687
:104C4000517F0802177D74EC1216ABEAFEEBFF8C65
:104C5000088D09EE4F70057902024D3B120BFD8A5B
:104C60000C8B0D8C0E8D0F9084DF780C12145990E4
:104C7000851B780C1214BA8E828F83E06402701F39
:104C80009007F4E0F8A3E0F9A3E0687003A3E069FB
:104C900070248E828F83A3A3780C1215028017E0F4
:104CA0006404701290080AE0F8A3E0F9A3E06870C9
:104CB00003A3E06960DC780C1218BA8508828509C4
:104CC00083A3A3121511121F3474041216518A10F3
:104CD0008B118C128D1390852B78101212EF4003DC
:104CE000024C57850882850983A3A378081214F320
:104CF0009084DB780812145978081218BA8E828FC3
:104D000083A3A3121511121ED77404121651E96061
:104D100003024C57908527780C121459780C1218FE
:104D2000BA8E828F83A3A3121511121ED774041298
:104D30001651E97004790080027901024AC074F0CA
:104D40001216AB890874FF65086003024ECA90080A
:104D50006AE0540770030253967A007869790888EC
:104D6000828983A3A3A3A3A3E064047050EA75F02F
:104D700018A4F8A9F0746F28F582740839F583E057
:104D8000640170487A007869790888828983A3A3CE
:104D9000A3A3A3E064046003024E2288828983A354
:104DA000A3A3A3A3A3E064017078EA75F018A4F8A4
:104DB000A9F0746E28FA740839FB02539A0AE824A1
:104DC00018F8E93400F9EAC3940440937A0078694A
:104DD000790888828983A3A3A3A3A3E06401705701
:104DE000EA75F018A4F8A9F0746F28F582740839F0
:104DF000F583E06401704F7A0078697908888289C8
:104E000083A3A3A3A3A3E064016003024EA6888248
:104E10008983A3A3A3A3A3A3E064016003024EA616
:104E200080880AE82418F8E93400F9EAC3940450A9
:104E300003024D8A0253960AE82418F8E93400F96F
:104E4000EAC39404408C7A0078697908888289835F
:104E5000A3A3A3A3A3E064027061EA75F018A4F809
:104E6000A9F0746F28F582740839F583E064017045
:104E7000597A007869790888828983A3A3A3A3A3B8
:104E8000E06402707A88828983A3A3A3A3A3A3E02A
:104E90006401706BEA75F018A4F8A9F0746E28FA32
:104EA000740839FB806F0AE82418F8E93400F9EA3D
:104EB000C394045003024DFD0253960AE82418F8E7
:104EC000E93400F9EAC3940440827A0078697908E9
:104ED00088828983A3A3A3A3A3E06508703D888289
:104EE0008983A3A3A3A3A3A3E06401702EEA75F0B2
:104EF00018A4F8A9F0746E28FE740839FF802F0AF0
:104F0000E82418F8E93400F9EAC394045003024E87
:104F1000777A007B0002539A0253960AE82418F825
:104F2000E93400F9EAC3940440A67E007F007A00C9
:104F30007869790888828983A3A3A3A3A3E065087D
:104F4000701BEA75F018A4F8A9F0746F28F5827444
:104F50000839F583E0640170137A0180110AE824AE
:104F600018F8E93400F9EAC3940440C87A00E50867
:104F700014600F14700302513324FE700302528D2B
:104F800080967B007869790888828983A3A3A3A38C
:104F9000A3E064027055EB75F018A4F8A9F0746FE3
:104FA00028F582740839F583E06401704D7B007840
:104FB00069790888828983A3A3A3A3A3E06402601C
:104FC0000302506988828983A3A3A3A3A3A3E064F7
:104FD000016003025069EB75F018A4F8A9F0746E33
:104FE00028F50A740839F50B0250810BE82418F8EB
:104FF000E93400F9EBC39404408E7B0078697908AA
:1050000088828983A3A3A3A3A3E06404600302505E
:10501000BDEB75F018A4F8A9F0746F28F582740838
:1050200039F583E0640160030250CF7B0078697931
:105030000888828983A3A3A3A3A3E0640460030276
:1050400050DA88828983A3A3A3A3A3A3E0640160A9
:10505000030250DAEB75F018A4F8A9F0746E28F585
:105060000A740839F50B0250F20BE82418F8E934F9
:1050700000F9EBC394045003024FB3750A00750B9B
:1050800000EAA2E04003025125850A82850B83A332
:10509000A3780C1214F3908523780C121459780C11
:1050A0001218BA8E828F83A3A3121511121ED77401
:1050B00004121651E9706EEEFAEF024DB90BE824B6
:1050C00018F8E93400F9EBC394045003025000EAE5
:1050D000A2E05058EEFAEFFB80560BE82418F8E9EE
:1050E0003400F9EBC394045003025031750A007583
:1050F0000B00EAA2E0502E850A82850B83A3A378D9
:105100000C1214F3908523780C121459780C121891
:10511000BA8E828F83A3A3121511121ED7740412A4
:105120001651E96092AA0AAB0B02539A7A007B00EF
:1051300002539A7B007869790888828983A3A3A3A4
:10514000A3A3E064047052EB75F018A4F8A9F074FE
:105150006F28F582740839F583E06401704A7B009A
:105160007869790888828983A3A3A3A3A3E0640450
:10517000600302520188828983A3A3A3A3A3A3E0AF
:105180006401707DEB75F018A4F8A9F0746E28F531
:105190000A740839F50B0252190BE82418F8E9349F
:1051A00000F9EBC3940440917B0078697908888208
:1051B0008983A3A3A3A3A3E064016003025255EB78
:1051C00075F018A4F8A9F0746F28F582740839F501
:1051D00083E0640160030252677B00786979088884
:1051E000828983A3A3A3A3A3E06401600302527294
:1051F00088828983A3A3A3A3A3A3E064017073801F
:10520000830BE82418F8E93400F9EBC39404500345
:10521000025164750A00750B00EAA2E040030251D6
:1052200025850A82850B83A3A3780C1214F390853D
:1052300023780C121459780C1218BA8E828F83A31B
:10524000A3121511121ED77404121651E96003023D
:1052500051250250B70BE82418F8E93400F9EBC3E4
:10526000940450030251AEEAA2E0501AEEFAEFFBAA
:1052700080180BE82418F8E93400F9EBC3940450C3
:10528000030251DF808D7A007B0002539A7B007805
:1052900069790888828983A3A3A3A3A3E06401702A
:1052A00040EB75F018A4F8A9F0746F28F582740823
:1052B00039F583E0640170387B0078697908888269
:1052C0008983A3A3A3A3A3E06401600302535288CC
:1052D000828983A3A3A3A3A3A3E0640170740251F2
:1052E000840BE82418F8E93400F9EBC3940440A3D4
:1052F0007B007869790888828983A3A3A3A3A3E0AC
:1053000064027063EB75F018A4F8A9F0746F28F5C7
:1053100082740839F583E06401705B7B00786979F9
:105320000888828983A3A3A3A3A3E06402704F88A3
:10533000828983A3A3A3A3A3A3E064017040EB75B8
:10534000F018A4F8A9F0746E28F50A740839F50B62
:1053500080410BE82418F8E93400F9EBC3940450B9
:10536000030252BE0252130BE82418F8E93400F984
:10537000EBC394044080EAA2E0501B0250B70BE854
:105380002418F8E93400F9EBC394044094750A003A
:10539000750B000252197A007B00024C4174F61220
:1053A00016AB89097508007869790888828983A312
:1053B000A3A3A3A3A3E06003025479E50875F01842
:1053C000A4F8A9F0746E28FE740839FF8E828F83CA
:1053D000A37401F08E828F83E509F0120BFD8E829B
:1053E0008F83A3A312151D8E828F83A3A3A3A3A3D0
:1053F000A3E4F0A3F0908503121511EE240EF582BC
:10540000EF3400F58312151DEE2414F582EF3400FD
:10541000F5837401F0EE2415F582EF3400F5837402
:1054200001F0EE2416F582EF3400F583E4F0A3F0EA
:1054300090086AE04509F0900869E004F0640160B2
:105440000C748065096006744065097019E508757B
:10545000F018A4F8A9F0746E28F8740839F99008C7
:105460006CE8F0A3E9F0E50875F018A4F8A9F07469
:105470006E28FA740839FB80180508E82418F8E942
:105480003400F9E508C3940450030253AB7A007B5F
:105490000080007F0202177DC082C0838A828B83D6
:1054A000E0F8A3E0F98A828B83E4F0A3F088828994
:1054B00083A3F088828983E0F4F890086AE058F0CA
:1054C000900869E014F0700B90086CE4F0A3F09081
:1054D0000499F0801CC082C083900869E0600A9043
:1054E000086CE0FAA3E0FB80047A007B008002E015
:1054F000F9D083D08202011FC082C083E9FB7A0009
:105500007869790888828983A3A3A3A3A3E06B7039
:1055100016EA75F018A4F8A9F0746F28F5827408DB
:1055200039F583E0F980110AE82418F8E93400F924
:10553000EAC3940440CE790080B7C082C08390084B
:10554000690254EF74F61216ABEAFEEBFF9061D0DD
:10555000E0C0E0EE2400F582EF3401F583D0E0F006
:105560009061D7E0FA9061D5E0C39A547FC0E0EE35
:105570002401F582EF3401F583D0E0F0EE2402F847
:10558000EF3401F99061D6E0C39A547F8882898311
:10559000F0701A9061C5E0A2E45012E0A2E7500D4D
:1055A000EE2402F582EF3401F5837480F0120CC30F
:1055B000EE2401F582EF3401F583E07034EE24022D
:1055C000F582EF3401F583E070279061C5E0A2E435
:1055D000501FE0A2E7501AEE2402F582EF3401F5E5
:1055E000837480F0EE2401F582EF3401F58374803A
:1055F000F075E1957800EE2400F582EF3401F58333
:10560000E060279061D3E0C0E08808EE2508F582CD
:10561000EF3400F583D0E0F008EE2400F582EF349B
:1056200001F583E0F9E8C39940D975E191025493FB
:1056300074F61216ABEAFEEBFF9061C8E0C0E0EE34
:105640002403F582EF3401F583D0E0F09061CFE0E0
:10565000FA9061CDE0C39A547FC0E0EE2404F58255
:10566000EF3401F583D0E0F0EE2405F8EF3401F9D2
:105670009061CEE0C39A547F88828983F0701A903B
:1056800061C5E0A2E05012E0A2E3500DEE2405F562
:1056900082EF3401F5837480F0120CC9EE2404F516
:1056A00082EF3401F583E07034EE2405F582EF34A7
:1056B00001F583E070279061C5E0A2E0501FE0A2F1
:1056C000E3501AEE2405F582EF3401F5837480F07F
:1056D000EE2404F582EF3401F5837480F0120CCFD0
:1056E0007A00EE2403F582EF3401F583E0602F9019
:1056F00061CBE0C0E08A08EE2508F8EF3400F9E855
:105700002480F582E93400F583D0E0F00AEE24032A
:10571000F582EF3401F583E0F8EAC39840D175E1F2
:105720008102549374F41216AB8908A808E875F046
:105730008AA4C8AAF02AF974CE28FE740839FFEEAC
:10574000FAEFFB120BB5EEFAEFFB120BAF750A8006
:10575000750B00780A1218BE7C007D60EE2406FAF4
:10576000EF3401FB120AFB7402121651906195E0AE
:10577000C0E0EE2486F582EF3401F583D0E0F090AE
:105780006196E0C0E0EE2487F582EF3401F583D026
:10579000E0F0906197E0C0E0EE2488F582EF3401FC
:1057A000F583D0E0F0906198E0C0E0EE2489F582C6
:1057B000EF3401F583D0E0F07F0402177D74F2121C
:1057C00016AB8908A808E875F08AA4C8AAF02AF9D7
:1057D00074CE28F8740839F99061C6E0FDE054F001
:1057E000F075E1817C00E82403F582E93401F5835A
:1057F000E0602B8C0AE8250AFAE93400FBEA2480F1
:10580000F582EB3400F583E09061CAF00CE82403E4
:10581000F582E93401F583E0FAECC39A40D5E82437
:1058200005F582E93401F583E060049061CEF0E88B
:105830002404F582E93401F583E060049061CDF041
:10584000ED9061C6F0A808E875F08AA4C8AAF02A0D
:10585000F974CE28F8740839F9E0FCE0540FF075BB
:10586000E1917A00E82400F582E93401F583E060F3
:10587000238A0AE8250AF582E93400F583E090617D
:10588000D2F00AE82400F582E93401F583E0FBEA6E
:10589000C39B40DDE82402F582E93401F583E06032
:1058A000049061D6F0E82401F582E93401F583E043
:1058B00060049061D5F0EC9061C6F0850882AE82FC
:1058C000EEF875F08AA4C8AAF02AF974CE28F50A71
:1058D000740839F50B750C80750D00780C1218BE24
:1058E000E50A2406FCE50B3401FD7A007B60120A10
:1058F000FB7402121651A80AA90BE82486F582E966
:105900003401F583E0906195F0E82487F582E9346D
:1059100001F583E0906196F0E82488F582E934018E
:10592000F583E0906197F0E82489F582E93401F588
:1059300083E0906198F0EE75F006A4CEA8F028FF01
:1059400074C92EF58274043FF583E0F8A3E0F58373
:105950008882E064807041901048743DF0A3740B1D
:10596000F0A37425F0A3740BF0A3743DF0A3740BA3
:10597000F0A3743DF0A3740BF0A37425F0A3740B93
:10598000F0A3743DF0A3740BF0A37443F0A3740B65
:10599000F0900499740880059004997407F09010B1
:1059A000567425F0A3740BF0A37425F0A3740BF0C8
:1059B000A37425F0A3740BF0A37425F0A3740BF06B
:1059C000A37425F0A3740BF0A37425F0A3740BF05B
:1059D0007F0602177DC082C083E9901026F0D08335
:1059E000D08202011F74F61216ABE9900364F07CBA
:1059F000A47D037AFF7BFF12072F7A008A087509BE
:105A0000007402780812162874652508F8740335A6
:105A100009125A34A3F00AEAC3940340DF7905124D
:105A200006BD900364E0F91205E57A477B0712088A
:105A3000FD026FB5F98882898374FF125A41E4F040
:105A400022F0A3126E42A32274F41216AB8A088BC2
:105A500009EB54806030900364E0F91210EF8A0A79
:105A60008B0BAE0AAF0BEE4F60138E828F83E06418
:105A7000B070031206CFEEFAEFFB1210DDAA08E5B4
:105A8000096480FB80047A007B00025C1174F212CE
:105A900016AB74FC12163BEAFEEBFF74121216876B
:105AA000126E8BEE4F7003025B307402121687EE9B
:105AB000F0A3EF125E6CECF0A3ED125E6CAA82AB69
:105AC000831205DFE9F50A706AE508450960648E0E
:105AD000828F83126E6CEE4F60567A067B00121135
:105AE000798A0C8B0DA80CA90DE8497005750A136D
:105AF000804188828983E4125A41EEF0A3EF126E4E
:105B00009CE508F0A3E509F0900372125C0B90038A
:105B1000727005126929801B1269178003EAFCEB79
:105B2000FD8C828D83125C0B70F38C828D8380E3FD
:105B3000750A02A90A740412165102707F74F212D7
