:020000040000FA
:06000000020107021D6F62
:03002B00021FE2CF
:03003300021FC4E5
:03005300021DE2A9
:03006B00021F9ED3
:10008300021C23E5C754F84401F5C7790122000097
:100093000080FB120086B900030200F1E4791A78AC
:1000A30002B800028004F709D8FCE4791C7802B88E
:1000B30000028004F709D8FCE49002817822790ECB
:1000C3008002F0A3D8FCD9FA7AA27B0F900137788B
:1000D3000179028015E493A3AD82AE838A828B8378
:1000E300F0A3AA82AB838D828E83D8E9D9E7758288
:1000F300847583C774031201197582917583007423
:100103000012011975D00075813F751881751902A8
:10011300759F00020096C09FF59FE473D09F22D085
:1001230083D082C09FE493C0E0740193C0E0740263
:1001330093F59F22B103C303ED03B703FF0000B49C
:10014300000028002800283075A000A000A000A00F
:100153000000080008E001F000100010001000107B
:10016300001000100050005000500010001000D08C
:10017300070000000000000F0001000500307507B4
:10018300001000010081FF0000FF020202878501C9
:1001930000007285028185010000F80F027B850152
:1001A3000000B102028185010000F90F0279850187
:1001B3000000C702FFFF0100FF2002878501000046
:1001C3006F850281850100002710027785000000FA
:1001D3000000027D85030000A403190B190B190B02
:1001E300190B190B190B190B190B190B190B190BEC
:1001F300190B190BE70C050DE10C01E803053F1082
:1002030002FFFFFF000D0947656D696E692D4241CD
:10021300313030090001137799556410000103054B
:1002230007FFFE77881299324114242536FEFF001A
:1002330000014F4B120122F5BF031201220BC00331
:1002430012012238C00312012268C003120122895D
:10025300C003120122BAC0031201220BC10312010F
:100263002222C103120122CBB903120122E2B903F4
:1002730012012211BA031201224ABA031201227295
:10028300BA03120122A0BA03120122B7BA03120160
:1002930022CEBA03120122E4BA031201220BBB03DA
:1002A3001201221EBB0312012234BB031201225C82
:1002B300BB031201227E72001201227D7300120120
:1002C30022A77300120122FC73001201221D740085
:1002D30012012236740012012238740012012259CD
:1002E30074001201225C75001201221976001201BA
:1002F30022E676001201224A7700120122E17700FA
:10030300120122E477001201226A7800120122AD61
:100313007800120122FF78001201223679001201BF
:1003230022BC7900120122457A001201228E7A0042
:100333001201229B7A001201229E7A00120122FCF2
:100343007A00120122147B001201228E7B0012011B
:1003530022917B00120122B47B00120122B77B00A1
:100363001201225E7C00120122817C00120122997B
:100373007C00120122C97C00120122D67C001201EA
:1003830022D97C00120122457D00120122337E0016
:10039300120122E97E001201224DC102120122281C
:1003A300C20212012256C202120122D6C202120155
:1003B30022F6C20212012234C30212012287C302AF
:1003C300120122EFC30212012280C4021201224B46
:1003D300C5021201225AC802120122C6C902120121
:1003E30022E9C90212012227A803120122B8A90394
:1003F30012012209AA0312012268AA03120122761A
:10040300AA031201229FAA03120122B78A0312012F
:1004130022DF8A031201220D8B03120122448B0374
:10042300120122AC8B03120122F58B03120122402D
:100433008C031201227E8C03120122BB8C03120156
:1004430022E98C03120122908D031201229A8D035B
:10045300120122A78D03120122DA8D031201229CBD
:100463008E03120122A88E03120122C08E031201F1
:1004730022CA8E03120122488F0312012243C403AE
:1004830012012251C40312012269C4031201228101
:10049300C40312012299C403120122008002120133
:1004A300229E80021201221681021201222B820255
:1004B3001201226582021201220E8302120122E33B
:1004C30083021201224785021201229E8502120134
:1004D300222586021201220C870212012259870269
:1004E300120122E787021201220B8802120122E085
:1004F3008902120122218A02120122438A02120175
:1005030022088B02120122CE8B02120122038E02D9
:1005130012012256A4031201226CA4031201229297
:10052300A403120122BAA503120122C4A5031201D6
:10053300221DA7031201221DA803120122ECFA02B5
:100543001201228EFB02120122C1FB021201220BB5
:10055300FC02120122C5FD02120122C8AE011201E2
:100563002246AF0112012256AF0112012239B00116
:1005730012012267B00112012272B0011201225C42
:10058300B101120122F8B101120122FCB3011201DF
:1005930022B3B5011201222FB6011201220CB701B9
:1005A3001201223ABA01120122D8BA0112012235EC
:1005B300BC01120122A8BD0112012251BE01120188
:1005C300229ABE01120122D1BE0112012276BF017D
:1005D300120122F4BF011201223AD0011201228F2B
:1005E300D001120122D4D101120122E4D10112015E
:1005F3002207D20112012252D201120122F7D201A3
:10060300120122EDD301120122B7D4011201222FCC
:10061300D60112012271D6011201220FD701120154
:100623002235D70112012223D90112012228D9012F
:1006330012012209DB011201225DDB01120122BF3B
:10064300DB01120122E7DB011201228BDC01120123
:10065300224DDD011201227EDD0112012281DD0125
:10066300120122C9DD011201220BDE0112012272E5
:10067300DE01120122BBB103120122CEB10312012A
:1006830022D7B103120122F0B1031201223BB203BC
:1006930012012216B303120122A5B303120122F0A1
:1006A300B303120122C95900120122D959001201C0
:1006B300223C5A00120122815A00120122315B00AE
:1006C3001201220A5C00120122335C001201226330
:1006D3005C00120122775E001201225360001201B6
:1006E300223362001201226B6300120122E46500CF
:1006F300120122D066001201221668001201222381
:1007030069001201226569001201229D690012012C
:1007130022B769001201221F6A00120122B96E007A
:100723001201225A6F00120122AE6F00120122D56C
:100733006F001201221370001201223270001201A5
:10074300228670001201228E71001201221772009C
:1007530012012228F50212012232F502120122CEE1
:10076300F50212012299F602120122B8F6021201D1
:1007730022DEF6021201221DF70212012255F702B0
:100783001201227EF702120122B8F702120122CDD2
:10079300F7021201229AF802120122BDF802120195
:1007A30022DFF802120122F4F8021201227EF9027A
:1007B300120122B8F9021201222CFA021201227547
:1007C300FA021201229FFA02120122C4FA02120152
:1007D300226AA00312012234A10312012217A203E9
:1007E3001201228DA203120122CFA203120122FCC5
:1007F300A303120122E19B021201220A9C021201AD
:1008030022239C02120122689D02120122469E02AB
:10081300120122659E02120122F29E02120122356A
:100823009F021201226DA002120122D9A00212011D
:1008330022CFA2021201225DA502120122F0A5021B
:10084300120122C4A60212012267A7021201227A10
:10085300A80212012210A90212012239C1031201B6
:1008630022A2C103120122F6C10312012225C203EF
:10087300120122D98F031201224690031201229101
:100883009003120122869103120122829203120124
:10089300226C930312012253E2021201229AE20212
:1008A30012012273E3021201226EE4021201224DAD
:1008B300E502120122B9E502120122D5E602120174
:1008C300223CE7021201223FE7021201226AE702F9
:1008D300120122DBE7021201227EE80212012293B7
:1008E300E802120122DBE802120122F4E8021201FB
:1008F30022F7E8021201227DFC01120122B9FC0158
:10090300120122F7FC01120122C1FD01120122345E
:10091300FE011201226FFE01120122ADFE0112013E
:1009230022DDFE0112012204FF011201226FFF01E9
:10093300120122B1FF01120122918501120122AF9E
:1009430087011201225E89011201220E8A0112011E
:1009530022598A01120122A48A01120122B68A01B4
:10096300120122F68A011201222B8B011201227736
:100973008B01120122A68B01120122C98B011201E4
:1009830022508C011201223C8D011201227A8E0128
:100993001201227C8F011201225891011201227C43
:1009A3009601120122C2960112012200970112013F
:1009B300223599011201221CB603120122BCB7038E
:1009C300120122102000120122A72000120122EDA1
:1009D3002000120122232200120122BA2300120155
:1009E30022322400120122742400120122C42400A2
:1009F3001201222F26001201229A280012012276C8
:100A03002900120122952900120122B429001201A2
:100A130022B729001201223D2B00120122322C00A1
:100A23001201222E2D001201229E2D0012012210EE
:100A33002E001201228F2E001201226A2F001201B2
:100A430022713000120122503100120122DB3100E9
:100A5300120122493200120122BD3200120122E6A4
:100A63003200120122A53300120122B43600120112
:100A730022FD3600120122403700120122C3370043
:100A8300120122673800120122F838001201221DD8
:100A93003900120122673900120122913900120133
:100AA30022D63900120122513A00120122AB3A0038
:100AB300120122FF3B00120122BC3C001201228FD3
:100AC3003D00120122128E02120122628E021201D5
:100AD300226E8E021201224B8F021201227B8F02A1
:100AE300120122B38F021201223290021201226AF2
:100AF3009002120122BC9002120122F9900212010B
:100B0300221E93021201224A9502120122459702E4
:100B1300120122209902120122FB7F00120122639B
:100B2300EF0212012295F302120122E5F4021201EF
:100B330022A8C0011201227AC70112012280C70133
:100B430012012230CA011201227A850312012226E0
:100B53008603120122F486031201221E8703120167
:100B6300226C8903120122BD3D00120122073E00BF
:100B7300120122B94A001201223A4C001201223218
:100B83004D001201229153001201228C54001201D4
:100B930022C95400120122EC54001201222E5500E6
:100BA3001201223855001201222456001201221884
:100BB3005700120122B15700120122B7AB031201F1
:100BC30022B5AC031201220BAD0312012249AD037E
:100BD300120122A6AD0312012223AE031201222C1D
:100BE300AE0312012238AE031201224BAE031201EF
:100BF3002287AE031201229DAE031201221BE902DA
:100C030012012228E90212012242E9021201228181
:100C1300E902120122BFE90212012224EA021201AF
:100C23002239EA0212012250EA021201225EEA028A
:100C33001201226DEA0212012282EA0212012297B4
:100C4300EA02120122A2EA02120122AEEA02120110
:100C530022BBEA02120122CAEA02120122D5EA02E7
:100C6300120122FAEA02120122A3EB02120122B8B4
:100C7300EB02120122CDEB02120122E7EB02120179
:100C83002202EC021201221FEC021201222AEC02C0
:100C9300120122E6EC02120122D2ED02120122F726
:100CA300ED0212012201EE0212012215EE021201DF
:100CB3002234EE0212012295EE021201229BEE0271
:100CC300120122A1EE02120122A7EE02120122B3A7
:100CD300EE02120122E6EE0212012216B7021201FF
:100CE3002242B70212012226B802120122C0BA021E
:100CF300120122D6BB02120122F3BC021201229678
:100D0300BD021201223CBE021201228CA902120171
:100D1300220EAA02120122B7AA02120122FFAB027B
:100D23001201220DAE02120122F3AE021201222899
:100D3300AF021201224AAF02120122F3AF021201E3
:100D430022C3B102120122ECB10212012264B202E7
:100D530012012296B202120122A3B202120122EE62
:100D6300B20212012212B30212012263B50212016E
:100D7300226DB602120122C9B602120122FFED0151
:100D830012012210EF01120122F4EF01120122FEDF
:100D9300EF0112012220F0011201222CF0011201B5
:100DA30022D0F101120122FDF10112012213F301FC
:100DB30012012268F301120122B7F4011201228CFD
:100DC300F501120122E8F50112012253F601120185
:100DD3002288F601120122CBF60112012295F901B4
:100DE300120122ADF9011201223EFA011201224C35
:100DF300FA0112012299FA01120122A7FA01120142
:100E03002213FB011201228EFB01120122E5FB01D9
:100E130012012212B80312012237B803120122ADC4
:100E2300B80312012264DB021201226DDB021201FC
:100E33002276DB021201224EDC02120122FFDD02C6
:100E43001201222FDE021201225ADE021201228A2D
:100E5300DE02120122B5DE02120122E9DE021201D4
:100E63002215DF0212012258DF0212012283DF0260
:100E7300120122CADF021201221FE00212012261C3
:100E8300E002120122BBE002120122E6E00212019B
:100E93002235E10212012265E10212012290E102F0
:100EA300120122B3E102120122E1C5031201220D54
:100EB300C6031201223AC60312012244C6031201D9
:100EC3002254C6031201220080031201223F800331
:100ED300120122C88003120122DB800312012226A1
:100EE300810312012265810312012274810312011D
:100EF300222482031201227D8203120122CC820367
:100F03001201221C83031201221084031201220501
:100F1300850312012242850312012227C70312010E
:100F2300224E9B01120122459D01120122D49E01F2
:100F3300120122C69F011201224DA001120122C7F4
:100F4300A001120122F0A00112012258A1011201F5
:100F53002211A5011201228DA50112012279A601F8
:100F6300120122B1A601120122F4A6011201222BC1
:100F7300A8011201225CA801120122B1A8011201E9
:100F830022E8A8011201225AA90112012280A90113
:100F93001201229AA9011201228CAA011201229C98
:100FA300AA0112012231AC0112012254AC01120137
:100FB3002286AC0112012212AE0112012289AE0176
:100FC30012012232C50312012243C503120122D7A3
:100FD300C70312012216C803120122EA7F0012017D
:100FE3002268FF0212012278FF021201228DFF0202
:100FF300120122F3FF0212012246C203120122CA86
:10100300C20312012230C303120122F8BC031201EE
:101013002221BD031201228BBD03120122DFBD0376
:1010230012012238BE031201226B9C03120122908B
:101033009C03120122AD9C03120122CA9C031201DC
:1010430022ED9C03120122199D031201223F9D03ED
:10105300120122F59D031201226F9E0312012293B6
:101063009E031201229D9E03120122FC9F03120183
:1010730022CAC8031201226EBB0312012297BB03CB
:10108300120122C0BB0312012259BC0312012271B7
:10109300BC03120122B3BC0312012221CB021201B1
:1010A300222BCB021201226BCB02120122B4CB0200
:1010B300120122EECB0212012248CC021201226756
:1010C300CC0212012209CF0212012212CF02120115
:1010D3002263CF021201228CCF0212012296CF0289
:1010E30012012202D00212012296D002120122F52D
:1010F300D00212012223D102120122A3D102120132
:1011030022E6D10212012221D20212012233D2029B
:1011130012012252D2021201225BD20212012225B3
:10112300D30212012273BE03120122C6BE031201AF
:101133002232BF031201229ABF03120122CDAE0352
:10114300120122F7AE03120122CCAF03120122C017
:10115300B00312012243B10312012249C303120156
:10116300221AB40312012250B40312012289B403D8
:10117300120122E2B5031201225EC6031201227498
:10118300C6031201227EC603120122C8C60312013E
:101193002251D3021201220ED40212012249D40297
:1011A30012012271D402120122D3D4021201221F8E
:1011B300D50212012283D502120122FDD5021201AA
:1011C30022FFD602120122B2D80212012234D9021E
:1011D30012012299D902120122B0D902120122B9B5
:1011E300DA02120122F7DA021201225798031201DE
:1011F30022709803120122149903120122549903B5
:101203001201226D9903120122A09903120122ED0A
:101213009903120122219A03120122639A031201F4
:10122300223CDF011201222AE00112012264E101C2
:101233001201221FE20112012235E301120122FDF4
:10124300E40112012251E5011201225AE9011201BE
:1012530022ACE9011201223AEA0112012235EC0122
:10126300120122D3EC0112012254ED011201225783
:10127300C8031201222E9403120122547F0012018B
:10128300227E7F0012012220C80312012283C80399
:10129300120122ACC803E066701008A3E066700A6E
:1012A30008A3E066700408A3E06622C3E09608A3DF
:1012B300E09608A3E09608A3E096A2D265D0332275
:1012C300C3E7960809E7960809E7960809E796220F
:1012D300C3E09608A3E09608A3E09608A3E096224D
:1012E300C008C3E096F50808A3E096420808A3E007
:1012F30096420808A3E09645087001D3D008220857
:101303000808EAC0E0EBC0E086F0E7A4FA18098613
:10131300F0E7A42AFA180986F0E7A42AFA1809863E
:10132300F0E7A42AFA1986F0E7A4FBE5F02AFA19F4
:101333000886F0E7A42BFBE5F03AFA190886F0E7F4
:10134300A42BFBE5F03AFA18180986F0E7A4C5F0D8
:101353002BFBE43AFA1908E7C5F0C6A426F6E5F034
:101363003BFBE43AFA1886F0E7A4F6E5F00826F624
:10137300E43B08F6E43A08F6D0E0FBD0E0FA22E4D6
:10138300CFC0E0E4CEC0E0E4CDC0E0E4CCC0E07583
:10139300F020E626F608E633F608E633F608E633E9
:1013A300F6181818EC33FCED33FDEE33FEEF33FF84
:1013B300C3EC9709ED9709EE9709EF9719191940AF
:1013C3000FFFEC97FC09ED97FD09EE97FE1919063F
:1013D300D5F0BFECF709EDF709EEF709EFF71919A7
:1013E30019D0E0FCD0E0FDD0E0FED0E0FF22E4C362
:1013F30096F608E496F608E496F608E496F6226074
:1014030016080808C6C313C618C613C618C613C6DB
:1014130018C613C6D5E0EA22700908080822601628
:10142300181818C6C333C608C633C608C633C60859
:10143300C633C6D5E0EA22E627F60809E637F608FA
:1014430009E637F60809E637F622E026F608A3E0B0
:1014530036F608A3E036F608A3E036F622E026F0D7
:1014630008A3E036F008A3E036F008A3E036F02244
:10147300C3E697F60809E697F60809E697F608091A
:10148300E697F622C3E096F008A3E096F008A3E0FF
:1014930096F008A3E096F022E657F60809E657F619
:1014A3000809E657F60809E657F622E056F608A3B8
:1014B300E056F608A3E056F608A3E056F622E056F7
:1014C300F008A3E056F008A3E056F008A3E056F0B6
:1014D30022E066F608A3E066F608A3E066F608A332
:1014E300E066F622E0F608A3E0F608A3E0F608A318
:1014F300E0F622E6F008A3E6F008A3E6F008A3E688
:10150300F022E0FAA3E0FBA3E0FCA3E0FD22EAF073
:10151300A3EBF0A3ECF0A3EDF022E0F8A3E0F9A332
:10152300E0FAA3E0FB22E8F0A3E9F0A3EAF0A3EBDF
:10153300F022CAC0E0E6F0A308DAFAD0E0FA22CA41
:10154300C0E0E0A3C582CCC582C583CDC583F0A32B
:10155300C582CCC582C583CDC583DAE6D0E0CA2275
:10156300C3E498F8E499F91215A48026C3E49AFA1F
:10157300E49BFBE920E7E91215A4E498F8E499F960
:1015830022C3E498F8E499F91215A4E498F8E499CD
:10159300F9C3E49AFAE49BFB22EB20E7CFE920E7C7
:1015A300E0B90010BB0008E88AF084F8AAF022E44E
:1015B300FBC8FA22EB70227B10C833C8C933C93386
:1015C3005007C39AC3DBF280069A50012ADBEAC8AC
:1015D30033F4C8C933F4C9FA2275F008E4C833C830
:1015E300C933C933C99AC99B5004C92AC93BD5F029
:1015F300ECFBC833F4C8E4C9FA22600D08C6A2E7BD
:1016030013C618C613C6D5E0F322600C08C6C3136D
:10161300C618C613C6D5E0F422700422600D18C69E
:10162300C333C608C633C6D5E0F41822251810AF55
:1016330008F518400C15198008F51840021519D241
:10164300AF2200C0D0251810AF08F518500C0519AB
:101653008008F51850020519D2AFD0D0222518F50D
:101663008210AF08F518400C15198008F5184002D0
:101673001519D2AF851983222518F582E43519F59A
:1016830083222518F8E43519F9222518FAE43519C7
:10169300FB222518FCE43519FD22E4732518C582C5
:1016A300C0E0E51934FFC583C0E0E518C395822483
:1016B300F810AF08858319858218800885831985FA
:1016C3008218D2AFCEF0A3E520F0A37808E608F0A5
:1016D300A3DEFAEFF0A3E58124FAF8E608F0A3E627
:1016E30008F0A3E608F0A30808E608F0A3E608F06C
:1016F300A315811581D0E0FED0E0F8158115811581
:1017030081E8C0E0EEC0E0222518C582C0E0E519FB
:1017130034FFC583C0E0E518C3958224F910AF08F0
:101723008583198582188008858319858218D2AF2D
:10173300CEF0A3E520F0A37808E608F0A3DEFAEFE5
:10174300F0A3E58124FBF8E608F0A3E608F0A3087C
:1017530008E608F0A3E608F0A315811581D0E0FEA2
:10176300D0E0F815811581E8C0E0EEC0E0228519CC
:1017730083851882E0A3FEE0A3F5207808E0A3F6B2
:1017830008DFFAE0A3FFE0A3C0E0E0A3C0E0E0A32A
:10179300C0E0E0A3C0E0E0A3C0E010AF088582187A
:1017A3008583198008858218858319D2AFD083D0A9
:1017B3008202011F851983851882E0A3FEE0A3F549
:1017C300207808E0A3F608DFFAE0A3FFE0A3C0E077
:1017D300E0A3C0E0E0A3C0E0E0A3C0E010AF088551
:1017E30082188583198008858218858319D2AFD022
:1017F30083D08222C0D02518C582C0E0E51934FF0A
:10180300C583C0E0E518C3958224F310AF08858330
:10181300198582188008858319858218D2AFC8F08C
:10182300A3E9F0A3EAF0A3EBF0A37908E709F0A397
:10183300D8FAECF0A3EDF0A3EEF0A3EFF0A3D0E021
:10184300F0A3D0E0F0A3D0E0F0A3E520F0A3E5F00F
:10185300F0A322851983851882E0C0E0A3E0F9A3F1
:10186300E0FAA3E0FBA37808E0F608A3DFFAE0FCC4
:10187300A3E0FDA3E0FEA3E0FFA3E0C0E0A3E0C07C
:10188300E0A3E0F5D0A3E0F520A3E0A3F5F010AFCB
:10189300088583198582188008858319858218D263
:1018A300AFD082D083D0E0F8D0E0327404800674E5
:1018B3000280027401C0E0F404121660D0E0121535
:1018C30035227404800474028000CCC0E0EDC0E0D3
:1018D300E518C39CCCAD1950011D10AF068C188DB3
:1018E3001980068C188D19D2AF121542D0E0FDD0A5
:1018F300E0FC22D083D082E9C0E0E493A3C386F066
:10190300C5F095F0F908E493A386F0C5F095F0705F
:101913000BE493A3C3994005E9048002A3E475F0A3
:1019230002A42582F582E5F03583F583D0E0F9E45E
:1019330093A3C0E0E493C0E022D083D082ECC0E064
:10194300EDC0E0E493A3FCE493A3FDED4C600D1222
:101953001988EC24FFFCED34FFFD80EFE493A3FC36
:10196300E493A3FDED4C600D1219C7EC24FFFCEDCD
:1019730034FFFD80EFD0E0FDD0E0FCE493A3C0E0B2
:10198300E493C0E022C0E0C3E49396087401939605
:1019930018400FE49366700808740193661870008A
:1019A3007019A3A3C3E49396087401939618A3A391
:1019B300400DD0E0D0E0D0E0021978A3A3A3A3A305
:1019C300A3D0E022C0E0C0F088F0E493667008087A
:1019D30074019366187000A8F0A3A3700BD0F0D025
:0F19E300E0D0E0D0E0021978A3A3D0F0D0E0224A
:1019F40074F512170BEAFEEBFFEE2434F8EF340013
:101A0400F988088909EE2435F582EF3400F583E07E
:101A1400F8EE2437F582EF3400F583E0F50AEC851F
:101A24000AF0A4FCAAF0850AF0EDA42AFDE82CF83B
:101A3400E43DF97A257B001215A4EA85088285091C
:101A440083F05407F87401B800028004C333D8FC4F
:101A5400C0E0E0131313541FF8EE28F8EF3400F934
:101A6400E8245DF582E93400F583D0E0F8E05860BD
:101A740008EE2434F582EF801EEE2436F582EF342E
:101A840000F583E0F5F0EA84A8F0EE28F8EF3400DE
:101A9400F9E82438F582E93400F583E0F97F04029B
:101AA40017B774F512170BEAFEEBFFEE2434F58238
:101AB400EF3400F583E0C0E0EE2435F582EF340026
:101AC400F583D0E0F08E828F83A3A3A3A3A3A3A363
:101AD400C082C0838E828F83A3A3A3A3A3E0F8A3B1
:101AE400E0F9D083D082E0C398F508A3E099F50922
:101AF400EE2480F582EF3400F583E064017069EE32
:101B04002481F582EF3400F583E0F8A3E0F98E82B6
:101B14008F83A3A3A3A3A3A3A3E0FCA3E0FD8E82CE
:101B24008F83A3A3A3A3A3E0FAA3E0FBC3EA9CEBE4
:101B34009D5027C3EC98ED99402EC3EA98EB995039
:101B4400277CE27D07EEFAEFFB120A5FEE2480F5B4
:101B540082EF3400F583E4F0800EC3EA98EB9940F9
:101B6400E0C3EC98ED9950D9EE2434F8EF3400F941
:101B7400E8FCE9FDEE2435F582EF3400F583E0F866
:101B8400EE2437F582EF3400F583E0F50AE50885A5
:101B94000AF0A4F508AAF0850AF0E509A42AF509D3
:101BA400E82508F8E43509F97A257B001215A4EA3A
:101BB4008C828D83F05407F87401B800028004C34A
:101BC40033D8FCC0E0E0131313541FF8EE28F8EFE9
:101BD4003400F9E8245DF582E93400F583D0E0F8B7
:101BE400E0586008EE2434F582EF801EEE2436F5CA
:101BF40082EF3400F583E0F5F0EA84A8F0EE28F8EB
:101C0400EF3400F9E82438F582E93400F583E0F98B
:101C1400121F90021AA10000851A87851BC622C0D4
:101C2400E0C0D0E8C0E0E9C0E0EAC0E0EBC0E0EC2E
:101C3400C0E0EDC0E0C008C009C00AC00BC082C04B
:101C440083C0F0759B00906182E0A2E64003021D10
:101C540001E591A2E64003021D017591BF9004992C
:101C6400E064057008120BD9120BE58003120BDF38
:101C7400751A00120C3FE990049AF07900120C21B5
:101C84001209CF7A017B00900498E0F91210FB90BE
:101C94007803E064426003021D4A900817E014F0E0
:101CA4006003021D4AC2AF121CAE00781DD0E0F6DC
:101CB40018D0E0F6E59F5407F9700590855F80031E
:101CC40090855B78081214E7E9C4C0E0781CE655F7
:101CD40008F50808E65509F509740B780812160D7D
:101CE400D0E02508F8906270E0A2E740F8E8C3333A
:101CF400906272F0906270E0D2E0F08049E0A2E578
:101D04005024E591A2E5501E7591DF900499E0649A
:101D14000D70139004BBE004F064287002E4F07AC0
:101D240000E0F9120CCF906181E0A2E35009E5E9EB
:101D3400A2E3500375E9F7A3E0A2E75009E591A2F5
:101D4400E7500375917FD0F0D083D082D00BD00AB6
:101D5400D009D008D0E0FDD0E0FCD0E0FBD0E0FA20
:101D6400D0E0F9D0E0F8D0D0D0E032C0E0C0D0C0AC
:101D740082C083906183E0A2E05009E5BFA2E050F5
:101D84000375BFFEE0A2E15009E5BFA2E15003756F
:101D9400BFFDE0A2E25009E5BFA2E2500375BFFB1C
:101DA400E0A2E35009E5BFA2E3500375BFF7E0A248
:101DB400E45009E5BFA2E4500375BFEFE0A2E5508B
:101DC40009E5BFA2E5500375BFDFE0A2E65009E5CF
:101DD400BFA2E6500375BFBFD083D0828088C0E025
:101DE400C0D0E8C0E0E9C0E0EAC0E0EBC0E0ECC08D
:101DF400E0EDC0E0C0F0E5A7A2E6500FE5A1A2E641
:101E0400500953A7BF75A1BF121E47E5A7A2E5500D
:101E14000CE5A1A2E5500653A7DF75A1DFE5A7A253
:101E2400E15009E5A1A2E1500375A1FDE5A7A2E2F5
:101E3400500CE5A1A2E2500653A7FB75A1FBD0F01C
:101E4400021D5874F812170B751A01900499E06476
:101E5400067015120B918A828B83A3A3A3A3A3A359
:101E6400E0FAA3E0FB120BC7A2AFE433FED2AF90BB
:101E7400049FE0640170187A207B00900498E0F9D4
:101E840012120F7A207B00900498E0F9121101904D
:101E94006182E0D2E6F0900816E0602185C61B80DE
:101EA4001690049EE064017008E5C654F84405F5F4
:101EB400C653BEFC121C1C7401651A60E4EEA2E059
:101EC40092AF7F010217B774F112170B8A088B09BE
:101ED4008C0A8D0B740F12167B780C1214E7908405
:101EE400F378081214AE9084F3780C1214AE7808C8
:101EF400790C1212C350157808790C12147390855A
:101F04000778081212E3401579018013780C7908D8
:101F1400121473908507780C1212E340EB79007F5A
:101F2400080217B774ED12170B8A088B098C0A8DF7
:101F34000B741312167B780C1214E79084F3780850
:101F44001214AE9084F3780C1214AE780C79081243
:101F540012C340117808790C121473AA08AB09ACA7
:101F64000AAD0B80227510007511007512007513EF
:101F7400017810790C1214737810790812143AAAA3
:101F840010AB11AC12AD137F0C0217B7C082C08323
:101F9400E9906000F0D083D08222C0E074F212177E
:101FA400F7A2AFE433FED2AFE589A2E150031210E9
:101FB40023758900C2C5EEA2E092AF7F01021856D4
:101FC400C0E074F21217F7A2AFE433FED2AFE58B90
:101FD400A2E05003121023758B00C2E880D8C0E041
:101FE400C0D0E8C0E0E9C0E0A9A8D2AFC2C7E9A266
:101FF400E7E433F8E9A2E792AFD0E0F9D0E0F8D013
:10200400D0D0E032FFFFFFFFFFFFFFFFC082C0839D
:102014009061907404F0A37448F0A37402F090618A
:10202400807440F09061BC7403F09061877419F07F
:10203400906265741BF090619C740DF090619A74C9
:1020440033F0A37455F09061A0743AF0900814E052
:1020540064017009C29190049D7467800590049D89
:102064007461F090200EE493906186F0902008E46F
:1020740093F46027E493540FF8906185E06860124C
:10208400E5C654804449F5C6E59E547F644970F81A
:10209400E8F053C680E59E547F70FA7905120CB1BE
:1020A40002246DC082C083E5A8F853A87E906181A4
:1020B400E4F0A3F0A3F0C2BA539AFEC289759B0060
:1020C400C2C275E90075910075BF0075A91175B993
:1020D40005906181F0A374C0F0A3E4F0D2BA439AEE
:1020E4000174805842A802246DC082C08374F8121F
:1020F400162F90049BE0F8A3E0F9E849700302224C
:102104001B90049BE054406023790885188285194C
:1021140083AA82AB83120AD1851882851983AA8285
:10212400AB831207B990049BE054BFF0E054806085
:1021340010790C7A387B08120AD190049BE0547F02
:10214400F0E0A2E0503190619A7433F0A37455F03A
:102154009061A0743AF0900814E064017009C2918F
:1021640090049D7467800590049D7461F01207BF0C
:1021740090049BE054FEF0E05402603190619A7444
:102184003FF0A3745AF09061A0747FF0900814E0BB
:1021940064017009D29190049D7471800590049D2E
:1021A400746AF01207BF90049BE054FDF0E05404FD
:1021B400601390200CE493906186F01207C590049C
:1021C4009BE054FBF0E05408601390200DE49390DE
:1021D4006186F01207C590049BE054F7F0E05410B8
:1021E400601390200EE493906186F01207C590046A
:1021F4009BE054EFF0E05420600A1207C590049B62
:10220400E054DFF0A3E05401600D1209DB1207CBA8
:1022140090049CE054FEF0740812164502246D7478
:10222400EC12169F74F412162F851882851983AC4C
:1022340082AD8375838575822F74041215429020B4
:102244000C93F460030223B0907808E0C394025026
:1022540003022390740412167BAC82AD83758384CD
:102264007582AA740812154285188285198385829D
:1022740012858313740412167BAC82AD83750EFF32
:10228400750FFF7FFF7E00750C48750D78801574FF
:10229400086E700302232374096E700302232374EF
:1022A4000A6E607B850C82850D8378081214E78C96
:1022B400828D83A909E50AC9F88810741878081270
:1022C4001402E5104508F8C3E098A3E099850C8250
:1022D400850D8378081214E740188C828D83741856
:1022E4007808121402E5104508F8E0C398F8A3E052
:1022F400801C74187808121402E5104508FAE9FBEA
:102304008C828D83E0F8A3E0F9EAC398F8EB99F99D
:10231400C3E8950EE9950F5006880E890FEEFF0E5F
:10232400E50C2404F50CE50D3400F50DEEC394130F
:10233400500302229374FF650E700474FF650F60EE
:10234400238F087402780812161C74482508F58235
:1023540074783509F58378081214E7851282851399
:1023640083E508F0EC24020C0CED3400FD851282A8
:10237400851383A3858212858313740C12167BE55F
:10238400826C7003E5836D60030222817508017518
:10239400090078081218B2740212167BAC82AD835D
:1023A4007A037B08120FFF7402121645740C12167E
:1023B400457F0C021771C082C0839061AE7468F0CF
:1023C400A3746AF090624574FBF0A304F053F4FD27
:1023D40043FE029008147401F09061A0E0643A9006
:1023E400619A70237433F0A37455F09061A0743A29
:1023F400F0740164017009C29190049D746780288F
:1024040090049D74618021743FF0A3745AF090612C
:10241400A0747FF0740164017009D29190049D74DA
:1024240071800590049D746A8000F002246DC0825E
:10243400C0839007F2E0640170159007F8E064012E
:102444006009E0700AA3E064017004790C801290C2
:102454000809E06401700890080FE0640160EC79F9
:102464000002246DE0F9121F90D083D08202011F74
:10247400C082C0839007FC7425F09007FA7401F0C1
:10248400A3E4F07A01FB120C2D9007E8E02416F87F
:10249400A3E03400F98882898374FFF0A37409F0FF
:1024A4009007F9E0640170169007F8E07010790164
:1024B400120C8D120C5D120C877900120C9980A9F4
:1024C400C082C08374FA12162F9007F1E064017081
:1024D400081209E79007F1E4F075E1F19007E8E0EC
:1024E4002415F8A3E03400F9888289837401F090FC
:1024F40007F3E0640170769084CDC08285188285EC
:102504001983AC82AD83758384D08274061215421C
:1025140075D90D9007EAE0C4333354C04403F5D9A8
:1025240078E8790788828983A3A3A3E0F5D9888210
:102534008983A3A882A983E864EE7003E964077021
:10254400E3851882851983A882A98388828983E018
:10255400F5D9A3A882A983740612167BE582687054
:1025640003E5836970E575E19579018002790012CC
:102574000C339010487449F0A3740BF0A3744FF01B
:10258400A3740BF0A37449F0A3740BF0A37449F083
:10259400A3740BF0A37419F0A3740BF0A37419F0D3
:1025A400A3740BF0A37455F0A3740BF0901056743D
:1025B40019F0A3740BF0A37419F0A3740BF0A374B3
:1025C40019F0A3740BF0A37419F0A3740BF0A374A3
:1025D40019F0A3740BF0A37419F0A3740BF0900713
:1025E400EAE0F97AEB7B07120C0F9007FCE0F91292
:1025F4001F907901120C399084F7121505120C51B1
:102604009084E3121505120C1B7900120CA5900797
:10261400E8E02414F8A3E03400F98882898374166E
:10262400F09004997405F00402221D74F712169FA9
:102634008908A808E875F006A4C8AAF02AF974C99C
:1026440028FE740439FF900801E0F97A027B08122D
:102654000C0F90080FE0701A7900120C6F9007DBD2
:10266400E0700B79007ADC7B07120C158009790184
:1026740080F37901120C6F75E1F175D9239008018B
:10268400E0C4333354C04405F5D978FF7907888210
:102694008983A3A3A3E0F5D988828983A3A882A907
:1026A40083E864057003E9640870E375D90075D99B
:1026B4000075D90075D90075D90075D900EEF8EF09
:1026C400F9E82404FAE93400FBE82422F582E93429
:1026D40000F583E0F5D988828983A3A882A983EAD7
:1026E400687002EB6970E2EEF8EFF9E824031AE986
:1026F4003400FBE82426F582E93400F583E0F5D9BB
:1027040088828983A3A882A983EA687002EB69702E
:10271400E2EE242BF582EF3400F583E0F5D9EEF8F0
:10272400EFF9E824021AE93400FBE8242CF582E9E5
:102734003400F583E0F5D988828983A3A882A9832C
:10274400EA687002EB6970E2EEF8EFF9E8242EF51E
:1027540082E93400F583E0F5D988828983A3A882CD
:10276400A983EA687002EB6970E2EEF8EFF9E824F5
:1027740030F582E93400F583E0F5D988828983A3B2
:10278400A882A983EA687002EB6970E2EEF8EFF9B7
:10279400E82432F582E93400F583E0F5D9888289AA
:1027A40083A3A882A983EA687002EB6970E2EEF859
:1027B400EFF9E824050A0A0AE93400FBE8245DF588
:1027C40082E93400F583E0F5D988828983A3A8825D
:1027D400A983EA687002EB6970E2EE2437F582EFB0
:1027E4003400F583E0541FF8EE242AF582EF340018
:1027F400F583E0C43354E048F5D975E19590104869
:10280400741FF0A3740BF0A37425F0A3740BF0A34E
:102814007419F0A3740BF0A37419F0A3740BF0A350
:102824007419F0A3740BF0A37419F0A3740BF0A340
:10283400742BF0A3740BF09010567419F0A3740B5E
:10284400F0A37419F0A3740BF0A37419F0A3740B20
:10285400F0A37419F0A3740BF0A37419F0A3740B10
:10286400F0A37419F0A3740BF090080EE0F9121F92
:10287400909084F7121505120C519084E3121505FB
:10288400120C1B90600DE4F07901120CA5900499D0
:102894007406F0022E8A74EC12169F9007FFE0F87B
:1028A400A3E0F5838882A3A378101214E79008109C
:1028B400E0FAF875F006A4C8ACF02CF974F728F522
:1028C40082740439F583E0FEA3E0FFEEC333FEEF28
:1028D40033FF8E0CF50D750E00750F0085100885FD
:1028E400110985120A85130B908563780812144D1B
:1028F40078081218AE85100885110985120A851307
:102904000B7808790C12143A7810790C121382E4BB
:10291400F50EF50F7808790C1214738A0C750D00F6
:102924007403780C12161C7808790C12143A9084EB
:10293400F378081214AEAA08AB09AC0AAD0B121F47
:102944002874041216458A088B09A808A909C3EE3D
:1029540098EF995006E82EF8E93FF9E890600EF0F8
:10296400E9A3F0EEA3F0EFA3F090600D74C1F002C0
:1029740023B5C082C0839007E8E0F8A3E0F583881C
:1029840082A3A3A3A3A3A3E4F0A3F09007FC0224CF
:1029940068C082C0839007FFE0F8A3E0F5838882D3
:1029A400A3A3A3A3A3A3E4F0A3F090080E022468B6
:1029B40002011F74F612169F9061D0E0F87480C370
:1029C40098FCEA2483F582EB3400F583E060047814
:1029D4000480027800E8240EF8ECC3985003022B1C
:1029E400387E0C900818E4F0EA2477F582EB340082
:1029F400F583E0900819F0EA2478FCEB3400FD78C4
:102A04001A79087F028C828D83E088828983F08C16
:102A1400828D83A3AC82AD8388828983A3A882A993
:102A2400831FEF70E0EA247AFCEB3400FD7F028C14
:102A3400828D83E088828983F08C828D83A3AC822B
:102A4400AD8388828983A3A882A9831FEF70E0EAFB
:102A5400247CFCEB3400FD7F028C828D83E0888231
:102A64008983F08C828D83A3AC82AD838882898331
:102A7400A3A882A9831FEF70E0EA247EFCEB340054
:102A8400FD7F028C828D83E088828983F08C828D25
:102A940083A3AC82AD8388828983A3A882A9831F80
:102AA400EF70E0EA2475FCEB3400FD8A828B83A38B
:102AB400A3A3A3A3E0F508A3E0F5098C828D83E02A
:102AC4002508F0A3E03509F07F028C828D83E0882D
:102AD400828983F08C828D83A3AC82AD83888289C2
:102AE40083A3A882A9831FEF70E0EA2483F582EB15
:102AF4003400F583E0601975081875090878081220
:102B040018B27C0C7903120B0D74021216457E1058
:102B140074012EF5D975D903758218758308EEFFF3
:102B2400E0F5D9A31FEF70F875E1957904120C57FD
:102B340079018002790002306C74F612169F90615C
:102B4400D0E0F87480C398FCEA2483F582EB340067
:102B5400F583E06004780480027800E8240AF8EC45
:102B6400C3985003022C2D7508089008187401F0BE
:102B74007CE27D07781979087E058C828D83E08854
:102B8400828983F08C828D83A3AC82AD8388828911
:102B940083A3A882A9831EEE70E0EA2481FCEB34AF
:102BA40000FD8A828B83A3A3A3A3A3E0FEA3E0FF7B
:102BB4008C828D83E02EF0A3E03FF07E028C828D28
:102BC40083E088828983F08C828D83A3AC82AD8379
:102BD40088828983A3A882A9831EEE70E0EA2483F5
:102BE400F582EB3400F583E0601A7508187509085E
:102BF40078081218B27C087903120B0D74021216AD
:102C04004575080C74012508F5D975D90375821822
:102C1400758308AE08E0F5D9A31EEE70F875E1954A
:102C24007904120C5779018002790002306C74F730
:102C340012169FEAFEEBFF9061D0E06003022D299B
:102C440075D91875D90375D903EEF8EFF9E8240896
:102C5400FAE93400FBE8249CF582E93400F583E0CA
:102C6400F5D988828983A3A882A983EA687002EBD4
:102C74006970E2EEF8EFF9E82402FAE93400FBE8BF
:102C840024A4F582E93400F583E0F5D988828983A8
:102C9400A3A882A983EA687002EB6970E2EE249427
:102CA400F582EF3400F583E5822408F8E5833400E7
:102CB400F9E0F5D9A3E865827003E9658370F2EE63
:102CC4002488F582EF3400F583E5822404F8E58353
:102CD4003400F9E0F5D9A3E865827003E9658370EF
:102CE400F275E1957908EE2494FAEF3400FB120AA8
:102CF400C57904EE2488FAEF3400FB120AC579047E
:102D0400120C57EE2470F582EF3400F583E0F8A33B
:102D1400E0F9EE2472F582EF3400F583E8F0A3E9DC
:102D2400F0790180027900022E8A74F612169FEA65
:102D3400FEEBFF9008187406F075081875090878FA
:102D4400081218B27C017903120B0D740212164595
:102D540075D90675D903758218758308E0F5D9A36A
:102D6400E582641D7004E583640870F075E1959054
:102D74000499E06408701EEE2470F582EF3400F5C7
:102D840083E0F8A3E0F9EE2472F582EF3400F583D2
:102D9400E8F0A3E9F0790102306C74F612169FEAA8
:102DA400FEEBFF9061D0E0705E900818740AF07535
:102DB400081875090878081218B27C017903120BF7
:102DC4000D740212164575D90675D90375821875E6
:102DD4008308E0F5D9A3E582641D7004E5836408E3
:102DE40070F075E195EE2470F582EF3400F583E020
:102DF400F8A3E0F9EE2472F582EF3400F583E8F0ED
:102E0400A3E9F079018002790002306C74F612169D
:102E14009FEAFEEBFF9061D0E0706678019008189D
:102E2400740BF0900499E06407701975081875091B
:102E34000878081218B27C017903120B0D7402127F
:102E440016457805740128F5D975D9037582187566
:102E54008308E8FAE0F5D9A31AEA70F875E195EE6B
:102E64002470F582EF3400F583E0F8A3E0F9EE2452
:102E740072F582EF3400F583E8F0A3E9F07901807C
:102E840002790002306C7F0102177174F612169FEA
:102E9400EAFEEBFF9061D0E0F87480C398FAEE2468
:102EA40083F582EF3400F583E060047804800278CF
:102EB40000E8240BF8EAC3985003022F657D0990BB
:102EC40008187408F0EE24E5F8EF3400F97A197B59
:102ED400087C0888828983E08A828B83F0888289CF
:102EE40083A3A882A9838A828B83A3AA82AB831C2F
:102EF400EC70E0EE2483F582EF3400F583E0601D8E
:102F040075081875090878081218B27C097903EE57
:102F1400FAEFFB120B0D74021216457D0D74012D90
:102F2400F5D975D9037582187583088D08E0F5D92C
:102F3400A31508E50870F675E1957904120C57EEAF
:102F44002470F582EF3400F583E0F8A3E0F9EE2471
:102F540072F582EF3400F583E8F0A3E9F07901809B
:102F640002790002306C74F612169FEAFEEBFF90B1
:102F740061D0E0F87480C398FAEE2483F582EF34CC
:102F840000F583E06004780480027800E82408F8FF
:102F9400EAC398500302306A7D06900818740CF056
:102FA4009004B6E0900819F07AB77B04781A79088F
:102FB4007C028A828B83E088828983F08A828B8375
:102FC400A3AA82AB8388828983A3A882A9831CECE9
:102FD40070E07AB97B047C028A828B83E0888289E0
:102FE40083F08A828B83A3AA82AB8388828983A39A
:102FF400A882A9831CEC70E0EE2483F582EF3400F0
:10300400F583E0601D75081875090878081218B270
:103014007C067903EEFAEFFB120B0D7402121645CF
:103024007D0A74012DF5D975D90375821875830845
:103034008D08E0F5D9A31508E50870F675E19579D2
:1030440004120C57EE2470F582EF3400F583E0F897
:10305400A3E0F9EE2472F582EF3400F583E8F0A3DF
:10306400E9F07901800279007F0202177174F61287
:10307400169FEAFEEBFF9061D0E0F87480C398FAE3
:10308400EE2483F582EF3400F583E0600478048055
:10309400027800E82404F8EAC398500302314B781C
:1030A40002900818E8F0EE24F7F582EF3400F58377
:1030B400E0900819F0EE2483F582EF3400F583E004
:1030C400601B75081875090878081218B27C027913
:1030D40003EEFA120B0D74021216457806740128D9
:1030E400F5D975D9037582187583088808E0F5D970
:1030F400A31508E50870F675E195EE2474F582EFE2
:103104003400F583E4F0EE2480F582EF3400F58397
:10311400E4F0EE241DF582EF3400F583E4F0A3F02F
:103124007904120C57EE240DF582EF3400F583E098
:10313400F8A3E0F9EE2472F582EF3400F583E8F0A9
:10314400A3E9F079018002790002306C74F612165A
:103154009F9061D0E0F87480C398FCEA2483F582E0
:10316400EB3400F583E06004780480027800E824FE
:1031740004F8ECC398405B79029008187407F0EAED
:1031840024F8F582EB3400F583E0900819F0EA2482
:1031940083F582EB3400F583E0601875081875092F
:1031A4000878081218B27C0209120B0D7402121668
:1031B400457906740129F5D975D903758218758383
:1031C40008E9F8E0F5D9A318E870F875E1957901F4
:1031D4008002790002306C74F512169FE9FCA2AFEC
:1031E400E433F50AC2AF7D0080010DEA246FF58255
:1031F400EB3400F583E0F8EDC398501A8D08EA2506
:1032040008F8EB3400F9E8246BF582E93400F5831F
:10321400E06C70D68024EA246FF8EB3400F9E0FE09
:10322400EA2EFAEB3400FBEA246BF582EB3400F56A
:1032340083ECF088828983E004F0E50AA2E092AF8F
:103244007F0302177174F612169FA2AFE433FDC216
:10325400AFEA246FF582EB3400F583E014F07C00D0
:1032640060368C08EA2508F8EB3400F9E8246CF59C
:1032740082E93400F583E0C0E0E8246BF582E934A8
:1032840000F583D0E0F00CEA246FF582EB3400F50E
:1032940083E0F8ECC39840CAEA246EF582EB34006C
:1032A400F58374FFF0EA246AF582EB3400F583E4D5
:1032B400F0EDA2E092AF02306CC082C083E5A8F8C2
:1032C400C2AFEA246BF582EB3400F583E9F0EA241B
:1032D4006AF582EB3400F583E4F0E8A2E792AF02EA
:1032E400246D74F312169FEAFEEBFFECFAEDFB8AF1
:1032F400828B83A3A3A3A3E0541FF0EE2436F582AC
:10330400EF3400F583E4F0F50AEEFCEFFD8A828BDE
:1033140083E0C0E0EC245DF582ED3400F583D0E079
:10332400F0750B00E50A33333354F8F50C8A828BBD
:1033340083E0F508750900E50B78081215FDE5082A
:10334400A2E0502FEE2436F8EF3400F98882898306
:10335400E0F508EE2508F508EF3400F509E5082442
:1033640038F582E5093400F583E50CF08882898319
:10337400E004F0050B050CE50BC3940840AF050A07
:103384008A828B83A3AA82AB838C828D83A3AC8233
:10339400AD83E50AC3940550030233117F05021778
:1033A4007174F712169F9004C5E0640370077A00E5
:1033B4007B00022E8A7B0078C5790488828983A3E6
:1033C400A3A3A3A3A3E0600302369FEBF875F00662
:1033D400A4C8AAF02AF974C928F8740439F98882AF
:1033E4008983A3A37401F088828983A3A3A3E4F04F
:1033F400EB88828983A3A3A3A3F0E82462F582E97E
:103404003400F5837401F0E82465F582E93400F5AD
:1034140083E4F0A3F0E82468F582E93400F58374CA
:1034240001F088828983A3A3A3A3A3E4F0A3F08873
:10343400828983A3A3A3A3A3A3A3F0A3F0E8240FE7
:10344400F582E93400F5837401F0E82435F582E966
:103454003400F583E4F0908537121505E82418F557
:1034640082E93400F583121511E8241CF582E9344D
:1034740000F583E4F0E8241DF582E93400F583E4E3
:10348400F0A3F0E82480F582E93400F583E4F0E861
:103494002474F582E93400F583E4F0E82469F582C4
:1034A400E93400F5837480F0E8246AF582E9340095
:1034B400F583E4F0E8246FF582E93400F583E4F061
:1034C400E82467F582E93400F583E4F0E824EDF5B7
:1034D40082E93400F583E4F0E824EEF582E934006F
:1034E400F583E4F0E824EFF582E93400F583E4F0B1
:1034F400E824F0F582E93400F583E4F0E824F1F5FA
:1035040082E93400F583E4F0A3F0E824F3F582E9DA
:103514003400F583E4F0A3F0E824F6F582E93400FE
:10352400F583E4F0E82483F582E93400F583E4F0DC
:10353400E824D3F582E93400F583E4F0E824D4F5F3
:1035440082E93400F583E4F0908537121505E82408
:10355400D5F582E93400F5831215119085371215DB
:1035640005E824D9F582E93400F583121511E8241D
:10357400DFF582E93400F583E4F0E824E1F582E93B
:103584003400F583E4F0E824DDF582E93400F583C2
:10359400E4F0E824E2F582E93400F583E4F0E82479
:1035A400E3F582E93400F583E4F0E824F9F582E9EF
:1035B4003400F583E4F0A3F0E824FBF582E9340059
:1035C400F583E4F0A3F0E824FDF582E93400F58303
:1035D400E4F0A3F0E824FFF582E93400F583E4F095
:1035E400A3F0E8FAE9FBEA2404FCEB3400FDEA2446
:1035F4006BF582EB3400F58374FFF08A828B83A32E
:10360400AA82AB83EC6A7002ED6B70E2E8FAE9FB24
:103614007CE27D078C828D83E0C0E0EA245DF58244
:10362400EB3400F583D0E0F08C828D83A3AC82ADC3
:10363400838A828B83A3AA82AB83EC64E77003ED55
:10364400640770D0E8FAE9FB7CAC7D048C828D833E
:10365400A3E0C0E0EA24E5F582EB3400F583D0E092
:10366400F08C828D83A3AC82AD838A828B83A3AAE0
:1036740082AB83EC64B47003ED640470CF9004C532
:10368400E004F06401700D88828983A3A3A3A3E0FE
:103694009004C7F0E8FAE9FB0233B60BE82406F815
:1036A400E93401F9EBC3940340030233B20233BF9C
:1036B400C082C0838A828B83A3A3A3E0600F8A8223
:1036C4008B83A3A3A3E4F09004C6E014F09004C594
:1036D400E014F070069004C774FFF08A828B83A311
:1036E400A3E4F09007E7E0700D9004C6E064017075
:1036F400057900120C2102246DC082C08378C5793B
:103704000488828983A3A3A3A3A3A3A3E4F0888248
:103714008983A3A3A3A3A3A3F0E82406F8E93401AF
:10372400F9E864D77003E9640770D69004C5E4F03F
:10373400A3F0A374FFF075E1F102246D74F3121683
:103744009F750800750900750C00750AC9750B048E
:10375400AE0AAF0B8E828F83A3A3A3E0603FE5087C
:103764004509700AEEF8EFF988088909802F850861
:1037740082850983E0F8A3E0F5838882A3A3121865
:10378400C58E828F83E0F8A3E0F5838882A3A31219
:103794001505121ECB7404121645E960C7050CEE1C
:1037A4002406F50AEF3401F50BE50CC3940340A09D
:1037B400850882850983A3A3A3A3E0F90233A07437
:1037C400F612169F78FF79FF7508007EC97F04EE14
:1037D400FCEFFD8C828D83A3A3A3E0606474FF6877
:1037E400700374FF697025EC2474F582ED3400F5E0
:1037F40083E064017011EC247AF582ED3400F583E2
:10380400E0F8A3E0F9803AEC242E80EDEC2474F582
:1038140082ED3400F583E064017014EC247AF582BF
:10382400ED3400F583C3E098A3E099501480C7EC0D
:10383400242EF582ED3400F583C3E098A3E099408B
:10384400C60508EE2406FEEF3401FFE508C3940321
:1038540050030237D3C3EA98EB994004E8FAE9FB32
:1038640002306C74F612169FEAFEEBFF8E828F8391
:10387400A3A3A3E0600F8E828F83A3A3A3E4F0909D
:1038840004C6E014F09004C5E014F070069004C778
:1038940074FFF08E828F83A3A3E4F09007E7E070B7
:1038A4000D9004C6E0640170057900120C21EE2429
:1038B40065F582EF3400F583E0F8A3E0F9E84960A8
:1038C40029EE2465F8EF3400F9880889098882F51F
:1038D40083E0FCA3E0FD9004C7E0FA7B001207EF4D
:1038E400850882850983E4F0A3F0EEFAEFFB120B5E
:1038F4008B02306C74F712169FEAFEEBFF8E828FF8
:1039040083A3A3A3A3E0FA7B00120837EEFAEFFB2C
:10391400120A83120B6D022E8AC082C0837C007A45
:10392400C97B04EAF8EBF988828983A3A3A3E06046
:103934001EE8246FF582E93400F583E06011E82481
:103944006BF582E93400F583E07004790180110C91
:10395400EA2406FAEB3401FBECC3940340C5790076
:1039640002246DC082C08378AC790488828983A3E1
:10397400E4F088828983A3A882A983E864B47003ED
:10398400E9640470E69004AD740102242EC082C080
:103994008374FC12162F90853712150585188285BD
:1039A4001983121511120ACBE9851882851983F03F
:1039B400120ACB740112167BE9F0120ACB740212BC
:1039C400167BE9F0851882851983121505740402A3
:1039D400221D74F612169FEAFEEBFFEC2403F8EDA9
:1039E4003400F988088909EC2407F8ED3400F9E873
:1039F400FCE9FD8C828D83E0F8A3E0F985088285DB
:103A04000983E0FAA3E0FB1215A4EE240DF582EF7E
:103A14003400F583E8F0A3E9F08C828D83E0F8A309
:103A2400E0F9850882850983E0FAA3E0FB1215A476
:103A34008B09EA45096013EE240DF582EF3400F595
:103A440083E02401F0A3E03400F002306C74F61239
:103A5400169FEAFEEBFFEE242EF582EF3400F58389
:103A6400E0FCA3E0FD780079FAECFAEDFB1215A472
:103A7400EE2470F582EF3400F583E8F0A3E9F078E2
:103A84000079FAECFAEDFB1215A48B09EA450960FA
:103A940013EE2470F582EF3400F583E02401F0A3E3
:103AA400E03400F002306C74F012169FEAFEEBFF73
:103AB400741012167B78081214E7120BF18A0C8B1F
:103AC4000D8C0E8D0F908567780C12144D9084F335
:103AD400780C1214AE780C1218AE8E828F83E0F834
:103AE400A3E0F5838882A3A3121505121ECB7404E8
:103AF400121645E96003023BF88E828F83E02402AC
:103B0400F8A3E03400F9E8FAE9FB8A828B837808A9
:103B14001214609084F378081214E78A828B8378F5
:103B2400081214C1EE240BF582EF3400F583C08231
:103B3400C0838E828F83A3A3A3A3A3E02401F8A34D
:103B4400E03400F9D083D082E0687003A3E06970A8
:103B5400057901023BFA8E828F83A3A3A3A3A3A3B7
:103B6400A3E02401F0A3E03400F0EE2474F582EF26
:103B74003400F583E064017036EE2475F582EF3489
:103B840000F583E0F8A3E0F98E828F83A3A3A3A3B7
:103B9400A3A3A3E0687003A3E0697013EE2475F592
:103BA40082EF3400F583E02401F0A3E03400F0EE6A
:103BB4002480F582EF3400F583E064017036EE244E
:103BC40081F582EF3400F583E0F8A3E0F98E828F6B
:103BD40083A3A3A3A3A3A3A3E0687003A3E06970D2
:103BE40013EE2481F582EF3400F583E02401F0A381
:103BF400E03400F079007F0802177174F712169F01
:103C04009004C7E0F875F006A4C8AAF02AF974C9AC
:103C140028FE740439FF8028EE2465F8EF3400F997
:103C240088828983E0FCA3E0FD88828983E4F0A391
:103C3400F08E828F83A3A3A3A3E0FA7B001207EF85
:103C4400EE2465F582EF3400F583E0F8A3E0F9E8AB
:103C540049604FEE2464F582EF3400F583E0F50803
:103C640078081218B6EE2463F582EF3400F583E089
:103C7400F9EE2465F582EF3400F583E0FCA3E0FD62
:103C8400EEFAEFFB120AB97401121645E96089EEE7
:103C94002465F582EF3400F583E0F8A3E0F9E84900
:103CA40070137C007D008E828F83A3A3A3A3E0FA0C
:103CB4007B001207EF022E8A74F212169FEAFEEBC3
:103CC400FF890A740E12167BE0FAEE2462F582EF85
:103CD4003400F583E064016003023D889061D0E024
:103CE400F87480C398F50CEE2483F582EF3400F564
:103CF40083E060047804800278008908E928F8E405
:103D04003400F9E824020808E93400F9E50C98E4E1
:103D140099A2D265D0334068EA7005750B0280031E
:103D2400750B01E0603975090078081218B27A1829
:103D34007B08120AEF7402121645750818750908F3
:103D440078081218B2AC0AA90BEEFAEFFB120B0DAD
:103D540074021216457404250AF50A7C187D087449
:103D640001250AF5D9850BD9E50A600D8C828D836E
:103D7400F8E0F5D9A318E870F875E19579008006A4
:103D84007907800279FF7F06021771C082C083E938
:103D940060208C828D83E08A828B83F08C828D8379
:103DA400A3AC82AD838A828B83A3AA82AB8319E9F5
:103DB40070E0ECFAEDFB02246DC082C0837869796F
:103DC4000888828983A3A3A3A3A3A3E4F088828998
:103DD40083A3A3A3A3A374FFF0E82418F8E9340091
:103DE400F9E864C97003E9640870D690086B74FF3D
:103DF400F090086AE4F0900869F090086CF0A3F081
:103E04000254E574EC12169F90086CE0F508A3E0E8
:103E1400F509E508450970061209CF024AB4850878
:103E240082850983E014601814601524FE6011244F
:103E3400C4700302457624C07003024576024AB476
:103E4400E0F9120B7F8A0A8B0BAE0AAF0B9004C603
:103E5400E070030241F4120A77E9F875F006A4C889
:103E6400AAF02AF974C928F50C740439F50D850CE7
:103E740082F583E0F50AA3E0F50BAC0AFDEEFAEF58
:103E8400FB120B79E9F50E7402650E70030241B35F
:103E94008E828F83E024FE600A24FE70030240AB0E
:103EA400024AB4EE65087003EF650960211209ED5A
:103EB4009007F9E0640170169007F8E0701079013A
:103EC400120C8D120C5D120C877900120C93E50E06
:103ED4006021E5082415F582E5093400F583E060E6
:103EE400129007F4E0F8A3E0F9A3E0687003A3E0FC
:103EF400697026120BF18A0C8B0D8C0E8D0F908538
:103F040053780C12144D9084F3780C1214AE8E82F4
:103F14008F83A3A3780C1214F6E5082415F582E523
:103F2400093400F583E064016003023FD1850A820D
:103F3400850B83A3A3780C1214E7908547780C12A1
:103F4400144D780C1218AE8E828F83A3A3C082C046
:103F5400839007F6E0F508A3E085080CF50DE4F579
:103F64000EF50FD083D082780C12144DAA0CAB0D31
:103F7400AC0EAD0F121ECB7404121645E9703C8EC4
:103F8400828F83A3A3C082C0839007F6E0F508A3C1
:103F9400E0F509E4F50AF50BD083D0827808121411
:103FA4004D9084F378081214AEEE240EF582EF34AB
:103FB40000F58378081214F60240A3850A82850B63
:103FC40083A3A378081214E790854780CFEE240ECC
:103FD400F582EF3400F5831218C58E828F83A3A374
:103FE400121505121ECB7404121645E96401600310
:103FF4000240A3850A82850B83A3A3780C1214E7DD
:10400400908547780C12144D780C1218AE8E828F5E
:1040140083A3A3C082C0839007F6E0F508A3E085DC
:10402400080CF50DE4F50EF50FD083D082780C1250
:10403400144DAA0CAB0DAC0EAD0F121ECB740412B2
:104044001645E9701F8E828F83A3A3C082C083901C
:1040540007F6E0F508A3E0F509E4F50AF50BD083CB
:10406400D0828010850A82850B83A3A3780812145A
:10407400E7908547780812144D9084F37808121459
:10408400AEEE240EF582EF3400F58378081214F6B0
:104094009007FCE06427700474258002E004F0902B
:1040A400086B7402024AACEE65087003EF650960A0
:1040B40031900810E0F91209F3850882850983E03C
:1040C4006402701E9007F9E0640170169007F8E02E
:1040D40070107900120C8D120C5D120C877901128C
:1040E4000C93E50E601290080AE0F8A3E0F9A3E04F
:1040F400687003A3E0697026120BF18A0C8B0D8C97
:104104000E8D0F908553780C12144D9084F3780C17
:104114001214AE8E828F83A3A3780C1214F6850A30
:1041240082850B83A3A3780C1214E7908547780C3F
:1041340012144D780C1218AE8E828F83A3A3C08202
:10414400C08390080CE0F508A3E085080CF50DE4A5
:10415400F50EF50FD083D082780C12144DAA0CAB57
:104164000DAC0EAD0F121ECB7404121645E9701F70
:104174008E828F83A3A3C082C08390080CE0F508CD
:10418400A3E0F509E4F50AF50BD083D0828010850D
:104194000A82850B83A3A378081214E790854778D5
:1041A4000812144D9084F378081214AE024A9585CF
:1041B4000882850983E0640270139007F9E06401C2
:1041C400700B9007F8E070057900120C8DE50C2453
:1041D40004FEE50D3400FF8E828F83E0F9120BB5E7
:1041E4008E828F83E09004C7F0AA0AAB0B024AB117
:1041F400EE65087003EF65098E828F8360030243C6
:10420400D8E024FE600A24FE7003024333024AAD60
:10421400EE2415F582EF3400F583E060419007F455
:10422400E0F8A3E0F9A3E0687003A3E069602F124B
:104234000BF18A088B098C0A8D0B90853378081250
:10424400144D78081218AE8E828F83A3A31215051D
:10425400121ECB7404121645E96003024AAD120B18
:10426400F18A088B098C0A8D0B90855378081214F7
:104274004D9084F378081214AE8E828F83A3A378B2
:10428400081214F6EE2415F582EF3400F583E06489
:104294000170348E828F83A3A3C082C0839007F6FB
:1042A400E0F508A3E0F509E4F50AF50BD083D08224
:1042B400780812144DEE240EF582EF3400F583785D
:1042C400081214F6024AADEE240EF582EF3400F51E
:1042D400831218C58E828F83A3A3121505121ECBD9
:1042E4007404121645E964016003024AAD8E828F9C
:1042F40083A3A3C082C0839007F6E0F508A3E0F58A
:1043040009E4F50AF50BD083D082780812144DEE37
:10431400240EF582EF3400F58378081214F6900722
:10432400FCE0642770057425024AACE00480F9902F
:10433400080AE0F8A3E0F9A3E0687003A3E0696069
:104344002C120BF18A088B098C0A8D0B908533781B
:104354000812144D78081218AE8E828F83A3A3120C
:104364001505121ECB7404121645E97064EE24027E
:10437400F508EF3400F509120BF18A0C8B0D8C0E45
:104384008D0F908553780C12144D9084F3780C1291
:1043940014AE850882850983780C1214F685088288
:1043A400850983C082C08390080CE0F508A3E0F57A
:1043B40009E4F50AF50BD083D082780812144DEE87
:1043C400240EF582EF3400F58378081214F61209EE
:1043D400F9024AADE024FE600A24FE700302449E02
:1043E400024AB41209ED9007F9E0640170169007CF
:1043F400F8E070107901120C8D120C5D120C8779A3
:1044040000120C939007F4E0F8A3E0F9A3E06870BD
:1044140003A3E069602F120BF18A088B098C0A8DC3
:104424000B908533780812144D78081218AE8E82DA
:104434008F83A3A3121505121ECB7404121645E92B
:1044440060030240A3EE2402F508EF3400F50912DC
:104454000BF18A0C8B0D8C0E8D0F908553780C12FA
:10446400144D9084F3780C1214AE85088285098368
:10447400780C1214F6850882850983C082C0839063
:1044840007F6E0F508A3E0F509E4F50AF50BD08397
:10449400D082780812144D023FAD900810E0F91252
:1044A40009F3850882850983E06402701E9007F988
:1044B400E0640170169007F8E070107900120C8D1A
:1044C400120C5D120C877901120C9390080AE0F823
:1044D400A3E0F9A3E0687003A3E069602C120BF178
:1044E4008A088B098C0A8D0B908533780812144D39
:1044F40078081218AE8E828F83A3A3121505121E9C
:10450400CB7404121645E97066EE2402F8EF340009
:10451400F988088909120BF18A0C8B0D8C0E8D0F0A
:10452400908553780C12144D9084F3780C1214AEC9
:10453400850882850983780C1214F685088285091A
:1045440083C082C08390080CE0F508A3E0F509E479
:10455400F50AF50BD083D082780812144DEE240EA0
:10456400F582EF3400F58378081214F61209F90283
:104574004AA79004C6E0700302490C120A77E9F8CE
:1045840075F006A4C8AAF02AF974C928F5107404B1
:1045940039F511851082F583E0F508A3E0F509905B
:1045A40004C7E0F875F006A4C8AAF02AF974C9286B
:1045B400F50C740439F50D90086AE0540770030291
:1045C4004835A3E0F9120B7F8A0A8B0BAE0AAF0BB6
:1045D400AC08AD09120B79E9F50E7402650E70038F
:1045E400024835850C82850D83A3A3A3A3E0F87547
:1045F400F08AA4C8AAF02AF974CE28F50A740839F6
:10460400F50BAA0AFB120BA9AA0AAB0B120BA37592
:10461400128075130078121218B27C007D60E50ACE
:104624002406FAE50B3401FB120AEF740212164554
:10463400A80AA90B906195E0C0E0E82486F582E918
:104644003401F583D0E0F0906196E0C0E0E824877F
:10465400F582E93401F583D0E0F0906197E0C0E0A1
:10466400E82488F582E93401F583D0E0F09061987C
:10467400E0C0E0E82489F582E93401F583D0E0F074
:104684008E828F83E024FE600A24FE70030247704A
:104694000248351209ED9007F9E0640170119007A2
:1046A400F8E0700B120C5D120C877900120C93E584
:1046B4000E60129007F4E0F8A3E0F9A3E068700339
:1046C400A3E0697026120BF18A0C8B0D8C0E8D0FF2
:1046D400908553780C12144D9084F3780C1214AE18
:1046E4008E828F83A3A3780C1214F6850882850921
:1046F40083A3A3780C1214E7908547780C12144D09
:10470400780C1218AE8E828F83A3A3C082C08390CC
:1047140007F6E0F50CA3E0F50DE4F50EF50FD083F4
:10472400D082780C12144DAA0CAB0DAC0EAD0F1246
:104734001ECB7404121645E9701F8E828F83A3A3C7
:10474400C082C0839007F6E0F508A3E0F509E4F51C
:104754000AF50BD083D0828010850882850983A353
:10476400A378081214E7908547023FA0900810E050
:10477400F91209F3E50E601290080AE0F8A3E0F9D3
:10478400A3E0687003A3E0697026120BF18A0C8B16
:104794000D8C0E8D0F908553780C12144D9084F36C
:1047A400780C1214AE8E828F83A3A3780C1214F6A5
:1047B400850882850983A3A3780C1214E7908547A2
:1047C400780C12144D780C1218AE8E828F83A3A32A
:1047D400C082C08390080CE0F50CA3E0F50DE4F56D
:1047E4000EF50FD083D082780C12144DAA0CAB0DA9
:1047F400AC0EAD0F121ECB7404121645E9701F8E59
:10480400828F83A3A3C082C08390080CE0F508A321
:10481400E0F509E4F50AF50BD083D0828010850811
:1048240082850983A3A378081214E790854702417F
:10483400A3E510650C7004E511650D7003024905CC
:10484400850C82850D83A3A3A3E070030248E98548
:104854000C82850D83A3A3A3A3E0F875F08AA4C8F2
:10486400AAF02AF974CE28FE740839FFEEFAEFFB99
:10487400120BA9EEFAEFFB120BA3750A80750B005D
:10488400780A1218B27C007D60EE2406FAEF340137
:10489400FB120AEF7402121645906195E0C0E0EE37
:1048A4002486F582EF3401F583D0E0F0906196E040
:1048B400C0E0EE2487F582EF3401F583D0E0F09078
:1048C4006197E0C0E0EE2488F582EF3401F583D0EF
:1048D400E0F0906198E0C0E0EE2489F582EF3401C5
:1048E400F583D0E0F0E5102404FEE5113400FF8EDA
:1048F400828F83E0F9120BB58E828F83E09004C718
:10490400F0AA08AB09024AB190086AE054077003A0
:10491400024AB4A3E0F9120B7F8A088B09AE08AFF0
:10492400098E828F83E024FE600A24FE700302490C
:10493400FB024AB41209ED9007F9E0640170169085
:1049440007F8E070107901120C8D120C5D120C87BF
:104954007900120C939007F4E0F8A3E0F9A3E0685F
:104964007003A3E069602C120BF18A088B098C0A8E
:104974008D0B908533780812144D78081218AE8E7A
:10498400828F83A3A3121505121ECB74041216453D
:10499400E97061EE2402F508EF3400F509120BF119
:1049A4008A0C8B0D8C0E8D0F908553780C12144D40
:1049B4009084F3780C1214AE850882850983780CF0
:1049C4001214F6850882850983C082C0839007F695
:1049D400E0F508A3E0F509E4F50AF50BD083D082ED
:1049E400780812144DEE240EF582EF3400F5837826
:1049F400081214F60240A3900810E0F91209F3908B
:104A0400080AE0F8A3E0F9A3E0687003A3E0696092
:104A14002C120BF18A088B098C0A8D0B9085337844
:104A24000812144D78081218AE8E828F83A3A31235
:104A34001505121ECB7404121645E97063EE2402A8
:104A4400F8EF3400F988088909120BF18A0C8B0DF0
:104A54008C0E8D0F908553780C12144D9084F3783E
:104A64000C1214AE850882850983780C1214F6851D
:104A74000882850983C082C08390080CE0F508A3EE
:104A8400E0F509E4F50AF50BD083D0827808121416
:104A94004DEE240EF582EF3400F58378081214F6F7
:104AA4001209F990086B7404F0EEFAEFFB120B7321
:104AB4007F0C02177174F012169FEAFEEBFFEE24CE
:104AC40002F8EF3400F988088909EE2406F8EF3477
:104AD40000F9880A890B8882F5831218C98508822F
:104AE400850983121505120BCD7402121645850A29
:104AF40082850B831218C9850882850983121505DE
:104B0400120BC17402121645EE240EF582EF340026
:104B1400F583121505120BD38E828F83E0644070E7
:104B24001CEE2412F8EF3400F988828983E0906047
:104B340064F088828983A3E0906065800690606455
:104B4400E4F0A3F090086CEEF0A3EFF0EE2416F579
:104B540082EF3400F583E0F8A3E0F583888212162F
:104B64009D906054E4F0A3F0A3F0A3F0A3F0A3F0AD
:104B7400A3F0A3F0A3F0A3F0A3F0A3F0906182E06C
:104B8400C2E6F07591BFEE2415F582EF3400F5838B
:104B9400E064017003120C03E5E170FCEE2414F5EB
:104BA40082EF3400F583E0F46003E0F5E1EE2415D0
:104BB400F582EF3400F5837401F090049FE0640102
:104BC400706F120BF18A088B098C0A8D0B7808120E
:104BD40018AE8E828F83A3A3121505121F287404A6
:104BE4001216458A088B098C0A8D0B908543780C24
:104BF4001214E77808790C1213027403780812145B
:104C040002E50824F4F508E5093401F509900816CD
:104C1400E0600312115BE4F50AF50B78081218AE94
:104C24007A207B00900498E0F9121203740412169F
:104C3400457F0802177174EC12169FEAFEEBFF8C95
:104C4400088D09EE4F70057902024D2F120BF18A7F
:104C54000C8B0D8C0E8D0F90854B780C12144D908F
:104C640084F3780C1214AE8E828F83E06402701F7A
:104C74009007F4E0F8A3E0F9A3E0687003A3E06907
:104C840070248E828F83A3A3780C1214F68017E00D
:104C94006404701290080AE0F8A3E0F9A3E06870D5
:104CA40003A3E06960DC780C1218AE8508828509DC
:104CB40083A3A3121505121F2874041216458A1023
:104CC4008B118C128D1390853F78101212E34003E0
:104CD400024C4B850882850983A3A378081214E744
:104CE400908503780812144D78081218AE8E828FBE
:104CF40083A3A3121505121ECB7404121645E96092
:104D040003024C4B90853B780C12144D780C12180E
:104D1400AE8E828F83A3A3121505121ECB740412C8
:104D24001645E97004790080027901024AB474F0EE
:104D340012169F890874FF65086003024EBE90082E
:104D44006AE05407700302538A7A00786979088804
:104D5400828983A3A3A3A3A3E064047050EA75F03B
:104D640018A4F8A9F0746F28F582740839F583E063
:104D7400640170487A007869790888828983A3A3DA
:104D8400A3A3A3E064046003024E1688828983A36C
:104D9400A3A3A3A3A3E064017078EA75F018A4F8B0
:104DA400A9F0746E28FA740839FB02538E0AE824B9
:104DB40018F8E93400F9EAC3940440937A00786956
:104DC400790888828983A3A3A3A3A3E0640170570D
:104DD400EA75F018A4F8A9F0746F28F582740839FC
:104DE400F583E06401704F7A0078697908888289D4
:104DF40083A3A3A3A3A3E064016003024E9A888261
:104E04008983A3A3A3A3A3A3E064016003024E9A2E
:104E140080880AE82418F8E93400F9EAC3940450B5
:104E240003024D7E02538A0AE82418F8E93400F993
:104E3400EAC39404408C7A0078697908888289836B
:104E4400A3A3A3A3A3E064027061EA75F018A4F815
:104E5400A9F0746F28F582740839F583E064017051
:104E6400597A007869790888828983A3A3A3A3A3C4
:104E7400E06402707A88828983A3A3A3A3A3A3E036
:104E84006401706BEA75F018A4F8A9F0746E28FA3E
:104E9400740839FB806F0AE82418F8E93400F9EA49
:104EA400C394045003024DF102538A0AE82418F80B
:104EB400E93400F9EAC3940440827A0078697908F5
:104EC40088828983A3A3A3A3A3E06508703D888295
:104ED4008983A3A3A3A3A3A3E06401702EEA75F0BE
:104EE40018A4F8A9F0746E28FE740839FF802F0AFC
:104EF400E82418F8E93400F9EAC394045003024E94
:104F04006B7A007B0002538E02538A0AE82418F855
:104F1400E93400F9EAC3940440A67E007F007A00D5
:104F24007869790888828983A3A3A3A3A3E0650889
:104F3400701BEA75F018A4F8A9F0746F28F5827450
:104F44000839F583E0640170137A0180110AE824BA
:104F540018F8E93400F9EAC3940440C87A00E50873
:104F640014600F14700302512724FE70030252814F
:104F740080967B007869790888828983A3A3A3A398
:104F8400A3E064027055EB75F018A4F8A9F0746FEF
:104F940028F582740839F583E06401704D7B00784C
:104FA40069790888828983A3A3A3A3A3E064026028
:104FB4000302505D88828983A3A3A3A3A3A3E0640F
:104FC40001600302505DEB75F018A4F8A9F0746E4B
:104FD40028F50A740839F50B0250750BE82418F803
:104FE400E93400F9EBC39404408E7B0078697908B6
:104FF40088828983A3A3A3A3A3E06404600302506B
:10500400B1EB75F018A4F8A9F0746F28F582740850
:1050140039F583E0640160030250C37B0078697949
:105024000888828983A3A3A3A3A3E0640460030282
:1050340050CE88828983A3A3A3A3A3A3E0640160C1
:10504400030250CEEB75F018A4F8A9F0746E28F59D
:105054000A740839F50B0250E60BE82418F8E93411
:1050640000F9EBC394045003024FA7750A00750BB3
:1050740000EAA2E04003025119850A82850B83A34A
:10508400A3780C1214E7908527780C12144D780C31
:105094001218AE8E828F83A3A3121505121ECB7431
:1050A40004121645E9706EEEFAEF024DAD0BE824DA
:1050B40018F8E93400F9EBC394045003024FF4EAFE
:1050C400A2E05058EEFAEFFB80560BE82418F8E9FA
:1050D4003400F9EBC394045003025025750A00759B
:1050E4000B00EAA2E0502E850A82850B83A3A378E5
:1050F4000C1214E7908527780C12144D780C1218B2
:10510400AE8E828F83A3A3121505121ECB740412D4
:105114001645E96092AA0AAB0B02538E7A007B0013
:1051240002538E7B007869790888828983A3A3A3BC
:10513400A3A3E064047052EB75F018A4F8A9F0740A
:105144006F28F582740839F583E06401704A7B00A6
:105154007869790888828983A3A3A3A3A3E064045C
:1051640060030251F588828983A3A3A3A3A3A3E0C8
:105174006401707DEB75F018A4F8A9F0746E28F53D
:105184000A740839F50B02520D0BE82418F8E934B7
:1051940000F9EBC3940440917B0078697908888214
:1051A4008983A3A3A3A3A3E064016003025249EB90
:1051B40075F018A4F8A9F0746F28F582740839F50D
:1051C40083E06401600302525B7B0078697908889C
:1051D400828983A3A3A3A3A3E064016003025266AC
:1051E40088828983A3A3A3A3A3A3E064017073802B
:1051F400830BE82418F8E93400F9EBC39404500352
:10520400025158750A00750B00EAA2E040030251EE
:1052140019850A82850B83A3A3780C1214E7908561
:1052240027780C12144D780C1218AE8E828F83A33B
:10523400A3121505121ECB7404121645E96003026D
:1052440051190250AB0BE82418F8E93400F9EBC308
:10525400940450030251A2EAA2E0501AEEFAEFFBC2
:1052640080180BE82418F8E93400F9EBC3940450CF
:10527400030251D3808D7A007B0002538E7B007829
:1052840069790888828983A3A3A3A3A3E064017036
:1052940040EB75F018A4F8A9F0746F28F58274082F
:1052A40039F583E0640170387B0078697908888275
:1052B4008983A3A3A3A3A3E06401600302534688E4
:1052C400828983A3A3A3A3A3A3E0640170740251FE
:1052D400780BE82418F8E93400F9EBC3940440A3EC
:1052E4007B007869790888828983A3A3A3A3A3E0B8
:1052F40064027063EB75F018A4F8A9F0746F28F5D4
:1053040082740839F583E06401705B7B0078697905
:105314000888828983A3A3A3A3A3E06402704F88AF
:10532400828983A3A3A3A3A3A3E064017040EB75C4
:10533400F018A4F8A9F0746E28F50A740839F50B6E
:1053440080410BE82418F8E93400F9EBC3940450C5
:10535400030252B20252070BE82418F8E93400F9A8
:10536400EBC394044080EAA2E0501B0250AB0BE86C
:105374002418F8E93400F9EBC394044094750A0046
:10538400750B0002520D7A007B00024C3574F61244
:10539400169F89097508007869790888828983A32A
:1053A400A3A3A3A3A3E0600302546DE50875F0185A
:1053B400A4F8A9F0746E28FE740839FF8E828F83D6
:1053C400A37401F08E828F83E509F0120BF18E82B3
:1053D4008F83A3A31215118E828F83A3A3A3A3A3E8
:1053E400A3E4F0A3F090850F121505EE240EF582C8
:1053F400EF3400F583121511EE2414F582EF340016
:10540400F5837401F0EE2415F582EF3400F583740E
:1054140001F0EE2416F582EF3400F583E4F0A3F0F6
:1054240090086AE04509F0900869E004F0640160BE
:105434000C748065096006744065097019E5087587
:10544400F018A4F8A9F0746E28F8740839F99008D3
:105454006CE8F0A3E9F0E50875F018A4F8A9F07475
:105464006E28FA740839FB80180508E82418F8E94E
:105474003400F9E508C39404500302539F7A007B77
:105484000080007F02021771C082C0838A828B83EE
:10549400E0F8A3E0F98A828B83E4F0A3F0888289A0
:1054A40083A3F088828983E0F4F890086AE058F0D6
:1054B400900869E014F0700B90086CE4F0A3F0908D
:1054C4000499F0801CC082C083900869E0600A904F
:1054D400086CE0FAA3E0FB80047A007B008002E021
:1054E400F9D083D08202011FC082C083E9FB7A0015
:1054F4007869790888828983A3A3A3A3A3E06B7046
:1055040016EA75F018A4F8A9F0746F28F5827408E7
:1055140039F583E0F980110AE82418F8E93400F930
:10552400EAC3940440CE790080B7C082C083900857
:10553400690254E374F612169FEAFEEBFF9061D001
:10554400E0C0E0EE2400F582EF3401F583D0E0F012
:105554009061D7E0FA9061D5E0C39A547FC0E0EE41
:105564002401F582EF3401F583D0E0F0EE2402F853
:10557400EF3401F99061D6E0C39A547F888289831D
:10558400F0701A9061C5E0A2E45012E0A2E7500D59
:10559400EE2402F582EF3401F5837480F0120CB727
:1055A400EE2401F582EF3401F583E07034EE240239
:1055B400F582EF3401F583E070279061C5E0A2E441
:1055C400501FE0A2E7501AEE2402F582EF3401F5F1
:1055D400837480F0EE2401F582EF3401F583748046
:1055E400F075E1957800EE2400F582EF3401F5833F
:1055F400E060279061D3E0C0E08808EE2508F582DA
:10560400EF3400F583D0E0F008EE2400F582EF34A7
:1056140001F583E0F9E8C39940D975E19102548713
:1056240074F612169FEAFEEBFF9061C8E0C0E0EE4C
:105634002403F582EF3401F583D0E0F09061CFE0EC
:10564400FA9061CDE0C39A547FC0E0EE2404F58261
:10565400EF3401F583D0E0F0EE2405F8EF3401F9DE
:105664009061CEE0C39A547F88828983F0701A9047
:1056740061C5E0A2E05012E0A2E3500DEE2405F56E
:1056840082EF3401F5837480F0120CBDEE2404F52E
:1056940082EF3401F583E07034EE2405F582EF34B3
:1056A40001F583E070279061C5E0A2E0501FE0A2FD
:1056B400E3501AEE2405F582EF3401F5837480F08B
:1056C400EE2404F582EF3401F5837480F0120CC3E8
:1056D4007A00EE2403F582EF3401F583E0602F9025
:1056E40061CBE0C0E08A08EE2508F8EF3400F9E861
:1056F4002480F582E93400F583D0E0F00AEE240337
:10570400F582EF3401F583E0F8EAC39840D175E1FE
:105714008102548774F412169F8908A808E875F06A
:105724008AA4C8AAF02AF974CE28FE740839FFEEB8
:10573400FAEFFB120BA9EEFAEFFB120BA3750A802A
:10574400750B00780A1218B27C007D60EE2406FA0C
:10575400EF3401FB120AEF7402121645906195E0D2
:10576400C0E0EE2486F582EF3401F583D0E0F090BA
:105774006196E0C0E0EE2487F582EF3401F583D032
:10578400E0F0906197E0C0E0EE2488F582EF340108
:10579400F583D0E0F0906198E0C0E0EE2489F582D2
:1057A400EF3401F583D0E0F07F0402177174F21234
:1057B400169F8908A808E875F08AA4C8AAF02AF9EF
:1057C40074CE28F8740839F99061C6E0FDE054F00D
:1057D400F075E1817C00E82403F582E93401F58366
:1057E400E0602B8C0AE8250AFAE93400FBEA2480FD
:1057F400F582EB3400F583E09061CAF00CE82403F1
:10580400F582E93401F583E0FAECC39A40D5E82443
:1058140005F582E93401F583E060049061CEF0E897
:105824002404F582E93401F583E060049061CDF04D
:10583400ED9061C6F0A808E875F08AA4C8AAF02A19
:10584400F974CE28F8740839F9E0FCE0540FF075C7
:10585400E1917A00E82400F582E93401F583E060FF
:10586400238A0AE8250AF582E93400F583E0906189
:10587400D2F00AE82400F582E93401F583E0FBEA7A
:10588400C39B40DDE82402F582E93401F583E0603E
:10589400049061D6F0E82401F582E93401F583E04F
:1058A40060049061D5F0EC9061C6F0850882AE8208
:1058B400EEF875F08AA4C8AAF02AF974CE28F50A7D
:1058C400740839F50B750C80750D00780C1218B23C
:1058D400E50A2406FCE50B3401FD7A007B60120A1C
:1058E400EF7402121645A80AA90BE82486F582E98A
:1058F4003401F583E0906195F0E82487F582E9347A
:1059040001F583E0906196F0E82488F582E934019A
:10591400F583E0906197F0E82489F582E93401F594
:1059240083E0906198F0EE75F006A4CEA8F028FF0D
:1059340074C92EF58274043FF583E0F8A3E0F5837F
:105944008882E0648070419010487431F0A3740B35
:10595400F0A37419F0A3740BF0A37431F0A3740BC7
:10596400F0A37431F0A3740BF0A37419F0A3740BB7
:10597400F0A37431F0A3740BF0A37437F0A3740B89
:10598400F0900499740880059004997407F09010BD
:10599400567419F0A3740BF0A37419F0A3740BF0EC
:1059A400A37419F0A3740BF0A37419F0A3740BF08F
:1059B400A37419F0A3740BF0A37419F0A3740BF07F
:1059C4007F06021771C082C083E9901026F0D0834D
:1059D400D08202011F74F612169FE9900364F07CD2
:1059E400A47D037AFF7BFF12072F7A008A087509CA
:1059F400007402780812161C74652508F8740335BF
:105A040009125A28A3F00AEAC3940340DF79051265
:105A140006BD900364E0F91205E57A477B07120896
:105A2400FD026FA9F98882898374FF125A35E4F064
:105A340022F0A3126E36A32274F412169F8A088BE6
:105A440009EB54806030900364E0F91210E38A0A91
:105A54008B0BAE0AAF0BEE4F60138E828F83E06424
:105A6400B070031206CFEEFAEFFB1210D1AA08E5CC
:105A7400096480FB80047A007B00025C0574F212E6
:105A8400169F74FC12162FEAFEEBFF741212167B9B
:105A9400126E7FEE4F7003025B24740212167BEECB
:105AA400F0A3EF125E60ECF0A3ED125E60AA82AB8D
:105AB400831205DFE9F50A706AE508450960648E1A
:105AC400828F83126E60EE4F60567A067B0012114D
:105AD4006D8A0C8B0DA80CA90DE8497005750A1385
:105AE400804188828983E4125A35EEF0A3EF126E66
:105AF40090E508F0A3E509F0900372125BFF9003B0
:105B040072700512691D801B12690B8003EAFCEB9D
:105B1400FD8C828D83125BFF70F38C828D8380E316
:105B2400750A02A90A740412164502707374F212FB
:105B3400169F890AE975F045A4FEAFF0900371E45D
