:020000040000FA
:0600000002011A02238F29
:03002B00022B2D78
:0300530002240282
:03006B00022ABDA9
:03007B00022B094C
:100083000221FBE5C754F84401F5C77901220000BA
:100093000080FB120086B90003020104E479217891
:1000A30008B800028004F709D8FCE479297802B87B
:1000B30000028004F709D8FCE4900301784A790C24
:1000C3008002F0A3D8FCD9FA781A90014A7A01BACF
:1000D30000028007E493A3F608DAF97A4A7B0E90CC
:1000E300014B78DB79038015E493A3AD82AE838A59
:1000F300828B83F0A3AA82AB838D828E83D8E9D9C6
:10010300E77582AA7583FE740312012C75829175BB
:100113008300740012012C75D00075817F7518015E
:10012300751903759F00020096C09FF59FE473D075
:100133009F22D083D082C09FE493C0E0740193C018
:10014300E0740293F59F220101030507FFFE778800
:100153001299324114242536010201060302E0FFFD
:100163002A2A5049534345532D42543130302A2AC9
:1001730000000000000D095049534345532D4254DC
:100183003130300512790400007F040D09504953C2
:100193004345532D4254313030051202534A004F28
:1001A3004B00000000000000000000000000000001
:1001B300534A00000000000000000000000000009F
:1001C3004357000000000000000000000000000092
:1001D3004357000000000000000000000000003052
:1001E30030303030303030FF0000B40000280028B9
:1001F30000283075A000A000A000A000000800089F
:10020300E001F000100010001000100010001000BA
:1002130050005000500010001000D00700000000F4
:1002230000000F00010005003075070010000100F9
:1002330081FF00000000FF8F06AD069506FF020256
:100243000208025000A0000000E80302B695010076
:1002530000969502B295010000400F02AE95010091
:1002630000B20302B295010000410F02AC950100F8
:1002730000C80302B295010000420F02AA950100D3
:1002830000CA0302B295010000430F02A8950800BB
:1002930000CB0302B295010000440F02D895010080
:1002A30000450FFF0100FF2002B69501000099955C
:1002B30002B295010000A90F02DA950000000000C8
:1002C30002B09503000018048F0C8F0C8F0C8F0C59
:1002D3008F0C8F0C8F0C8F0C8F0C8F0C8F0C8F0C43
:1002E3008F0C230F3B0F1D0F0202020202020202B8
:1002F30002010D000000100102B6950100009C955B
:1003030002B295010000EA0F02D0950100003F08F8
:1003130002B295010000EB0F02CE95010000AF94ED
:1003230002B295010000EC0F02CC95010000A194EC
:1003330002B295010000ED0F02CA950100005F9221
:1003430002B295010000EE0F02C895010000A792CA
:1003530002B295010000EF0F02C6950100007192F1
:1003630002B295010000F00F02C4950100008392D0
:1003730002B295010000F10F02C2950100009394AF
:1003830002B295010000F20F02C095010000F30FC5
:1003930001E803053F100A0A160A0A02B69501008E
:1003A30000A59502B295010000991002D4950300AF
:1003B30000570902B2950100009A1002BE9503008E
:1003C30000670902B095030000780902B2950100A5
:1003D300009B1002BC950300007E0902B295010048
:1003E300009C1002BA950300008E09FFFFFF000175
:1003F3003075030201060000000000000000000049
:1004030000000000000000000000000000000000E9
:100413000000FFFF0600800CE8033030303030303E
:1004230030301201358F8504120135A38504120182
:1004330035A58504120135AA8504120135642B0004
:10044300120135B02B00120135BE2B0012013569A4
:100453002C00120135932D00120135142E001201C8
:10046300359C30001201355134001201350136003C
:10047300120135C84600120135A64E001201359906
:100483004F00120135265B00120135675B00120134
:10049300354DF60312013564F60312013595F60363
:1004A300120135D0F603120135FAF6031201352491
:1004B300F7031201353BF70312013552F70312011B
:1004C3003569F70312013592F703120135A5F703D6
:1004D300120135BBF703120135CEF703120135F5CF
:1004E300F7031201353F75001201354376001201FF
:1004F300357B76001201359E7600120135A9760010
:10050300120135CC7600120135DB7700120135B0CC
:1005130078001201352B7900120135B379001201ED
:1005230035EE7900120135257A00120135B37A00D0
:100533001201358C7B00120135EC7B00120135F77B
:100543007B00120135767C00120135797C001201A3
:10055300357C7C001201350B7D001201350E7D00C8
:100563001201353E7D00120135687D0012013556BA
:100573007E00120135087F00120135F6BB0312011C
:10058300351EBC031201354CBC0312013583BC0379
:10059300120135E1BC031201352CBD03120135777D
:1005A300BD03120135B7BD03120135FDBD031201B1
:1005B300352BBE03120135E8BE03120135F2BE032B
:1005C300120135FFBE0312013532BF03120135FE9E
:1005D300BF031201350AC00312013522C003120101
:1005E300352CC003120135DA8104120135E8810488
:1005F30012013500820412013518820412013545B7
:100603009F02120135F19F021201356CA002120103
:10061300358DA102120135C9A10212013572A20260
:1006230012013559A302120135BDA402120135147A
:10063300A50212013595A50212013585A602120104
:1006430035D2A60212013558A7021201358AA70234
:100653001201359EA902120135E0A902120135FEED
:10066300A90212013581AA0212013555AB0212010A
:10067300351DAC02120135C9A4031201359CA50333
:1006830012013545A60312013598A6031201354818
:10069300A703120135D4A703120135C0A803120121
:1006A30035EFA80312013502AA031201354AAA0342
:1006B3001201351FAB031201355BAB031201357712
:1006C300AB03120135CE840412013518DA0312018B
:1006D300352EDA0312013554DA0312013570DB03C8
:1006E3001201357ADB03120135AFDC03120135A7A2
:1006F300DD03120135CFB603120135FFB703120133
:100703003532B8031201357CB80312013543BA03FD
:100713001201350080021201356A8002120135C9C7
:100723008102120135D981021201350682021201BA
:10073300355D82021201350683021201350D8402F2
:10074300120135D784021201353786021201357A38
:1007530086021201351F87021201356C87021201CE
:1007630035928702120135A08902120135A589024B
:10077300120135AA8B02120135F78B021201356A79
:100783008C021201359D8C021201353F8D0212013C
:1007930035E88D02120135208E02120135238E02B7
:1007A3001201356B8E02120135AB8E021201350236
:1007B3008F0212013563EA031201357BEA0312014A
:1007C30035C3EA03120135D9EA0312013520EB03DD
:1007D30012013534EC03120135C1EC031201350C5F
:1007E300ED03120135A35C00120135AF5C00120169
:1007F30035EA5C001201352F5D00120135EF5D0013
:10080300120135755E00120135A15E00120135DA61
:100813005E00120135186100120135FC62001201FD
:1008230035E2640012013525660012013573680054
:10083300120135856900120135D06A00120135E0D5
:100843006B00120135FD6B00120135386C0012018B
:10085300355A6C00120135BD6C001201357E7100F2
:100863001201351372001201356472001201358BC7
:100873007200120135DD7200120135FB72001201A4
:1008830035557300120135547400120135D87400C4
:1008930012013571B1031201357BB103120135BE6B
:1008A300B103120135D9B10312013569B203120143
:1008B3003591B203120135CEB20312013505B303EC
:1008C3001201352EB303120135A3B303120135B858
:1008D300B303120135CDB303120135FEB303120185
:1008E3003512B40312013537B40312013571B40361
:1008F3001201359DB403120135D5B4031201353409
:10090300B503120135B3B503120135DEB503120188
:100913003509B60312013552B6031201357CB6030D
:10092300120135A7B6031201358EFC0312013500FF
:1009330080031201352E80031201357C81031201DD
:10094300355C82031201357B8203120135F8820381
:100953001201353B83031201359184031201355291
:100963008503120135D987031201357A88031201F1
:10097300357089031201356D8A03120135C78B0364
:10098300120135528C0312013533FB031201359CDE
:10099300FB03120135F0FB0312013517FC031201AF
:1009A3003548FC0312013530C5031201359DC503DB
:1009B300120135E4C503120135FCC603120135F8F3
:1009C300C703120135DBC803120135D38C031201AF
:1009D30035158D03120135E78D03120135C08E03E2
:1009E300120135BA8F031201359C900312013505AC
:1009F3009103120135BB91031201352F92031201AA
:100A0300359B9203120135C492031201353E9303C1
:100A1300120135D793031201353C9403120135516A
:100A23009403120135979403120135B09403120114
:100A3300351595031201351895031201356AE7033D
:100A430012013592E703120135D0E7031201358E07
:100A5300E803120135F5E80312013511E903120128
:100A63003539E90312013569E90312013578E903E0
:100A7300120135F5E9031201351BEA031201352092
:100A8300EB01120135FEEC0112013530EF011201C9
:100A9300356CEF0112013599EF0112013583F00135
:100AA300120135CEF00112013519F1011201352B76
:100AB300F1011201356BF101120135A0F1011201AF
:100AC30035EEF1011201351DF20112013540F2013B
:100AD3001201358DF20112013512F3011201352C89
:100AE300F5011201356BF701120135ACF701120163
:100AF300354EF9011201358FF90112013502FA0160
:100B030012013553FA011201352EFB01120135583A
:100B1300FB011201358DFB01120135B8FB011201F6
:100B23003507E70212013505E8021201359EEE0290
:100B3300120135BFF0021201358AF202120135F2B9
:100B4300F302120135E79501120135969601120160
:100B530035C396011201350997011201353F9801FA
:100B63001201356D9801120135039A011201357D89
:100B73009A01120135989A01120135139B01120152
:100B8300356D9C01120135CD9D01120135D39E01B6
:100B930012013534A0011201354DA001120135AB0C
:100BA300A00112013599A101120135CCA101120155
:100BB300353CA201120135B6A20112013500A30191
:100BC300120135CAA3011201359FA4011201357E1A
:100BD300A50112013509A60112013577A6011201FB
:100BE30035EBA60112013516A701120135D5A70170
:100BF3001201353AA90112013557A90112013576BF
:100C0300A90112013567AA011201358CAA0112014B
:100C130035B6AA0112013531AB011201358BAB0197
:100C2300120135F4AC01120135A2AD01120135E315
:100C3300AD01120135A2BC02120135F0BC02120152
:100C430035FCBC02120135DABD021201350BBE02BE
:100C53001201353CBE02120135BCBE021201353A07
:100C6300BF0212013572BF02120135C4BF02120165
:100C73003501C0021201351EC20212013544C402FD
:100C83001201352FC60212013519C802120135FDB2
:100C9300FF0112013522C30112013552C3011201B2
:100CA300352BCA01120135B0CB01120135ADD1018B
:100CB30012013595D201120135D2D201120135F557
:100CC300D20112013526D3011201352FD3011201AE
:100CD3003539D30112013527D4011201351DD50150
:100CE30012013513AE0112013512B201120135188A
:100CF300B20112013553B9011201356CBE01120163
:100D0300354AD603120135E0D603120135F6D60370
:100D13001201356CD703120135E0D7031201351EDA
:100D2300D80312013592D8031201350BD9031201EE
:100D33003514D90312013520D90312013535D903EE
:100D430012013573D90312013589D903120135E82C
:100D5300D9031201359DC903120135AAC903120132
:100D630035C4C90312013503CA0312013541CA034D
:100D7300120135A6CA03120135BBCA03120135C6D7
:100D8300CA03120135D3CA03120135EACA03120199
:100D930035F8CA0312013503CB031201350FCB0318
:100DA3001201351ECB0312013529CB031201354C39
:100DB300CB03120135F3CB0312013503CC0312012C
:100DC300351DCC031201353ACC0312013556CC0341
:100DD3001201357BCC0312013586CC031201359BFE
:100DE300CC03120135AFCC0312013510CD03120130
:100DF3003516CD031201351CCD0312013522CD0367
:100E03001201353ACD031201356DCD03120135F9C7
:100E1300CA021201357DCB021201352CCC0212011C
:100E2300358BCD02120135ACCF0212013598D002B9
:100E3300120135CDD002120135EFD0021201359ED9
:100E4300D10212013596D302120135BFD30212012A
:100E53003551D40212013583D40212013590D402E4
:100E6300120135E7D4021201350DD5021201357A8C
:100E7300D7021201357DD802120135D5D8021201ED
:100E83003536AE0212013540AF0212013527B002EA
:100E930012013531B00212013553B0021201355F30
:100EA300B002120135F8B10212013527B202120164
:100EB3003543B3021201359CB30212013502B50268
:100EC300120135E1B5021201353DB602120135AA10
:100ED300B602120135E5B60212013524B70212013A
:100EE30035DDB902120135F7B90212013583BA02B1
:100EF30012013591BA02120135EABA02120135F82C
:100F0300BA021201356BBB02120135CFBB021201CB
:100F13003519BC021201351CF4021201353EF402EC
:100F230012013564F60212013579F9021201359185
:100F3300FA0212013544FB0212013526FC021201AA
:100F43003507F8031201352CF8031201359EF80317
:100F53001201354F9D03120135589D03120135616E
:100F63009D03120135389E03120135E99F031201D7
:100F7300351FA00312013559A0031201358FA003B9
:100F8300120135C9A003120135FDA0031201352951
:100F9300A10312013572A103120135ACA1031201A1
:100FA30035F5A1031201354DA20312013582A203C7
:100FB300120135DDA20312013517A30312013568AF
:100FC300A3031201359EA303120135D8A303120113
:100FD3003506A40312013529A4031201354AFF0281
:100FE30012013576FF02120135D1FF02120135DB02
:100FF300FF02120135EBFF0212013556E403120121
:10100300357BE403120135A5E40312013510E10336
:101013001201352BE1031201355AE1031201356F39
:10102300E10312013575E1031201357BE10312017E
:1010330035A8E103120135CDE103120135E4E103E3
:10104300120135F9E1031201354DE203120135C6F0
:10105300E203120135E6E203120135B8FF01120182
:101063003535D7011201358DD90112013549DB011F
:1010730012013536DC01120135C4DC01120135449D
:10108300DD0112013569DD011201357AE00112013A
:1010930035F6E001120135E5E1011201351DE201EA
:1010A30012013560E2011201350CE40112013561D0
:1010B300E401120135AEE40112013520E50112010C
:1010C3003546E50112013560E50112013575E6018A
:1010D30012013585E601120135ACE701120135CE67
:1010E300E70112013504E80112013590E90112010B
:1010F30035CFE901120135FBEA0112013590830472
:10110300120135288404120135A7FF03120135E6C5
:10111300FF03120135FF8504120135B18204120168
:1011230035C18204120135D0820412013582830451
:10113300120135A7FD031201352BFE031201359170
:10114300FE0312013520D20312013557D2031201D7
:101153003561D20312013569D203120135D5D203A9
:1011630012013537D40312013536ED0312013585EB
:10117300ED031201355AEE03120135A1EE031201FC
:101183003528EF03120135A1EF03120135A4EF0354
:10119300120135F5FF02120135F8FF02120135B1D4
:1011A300DD0312013504DE0312013553DE031201A0
:1011B3003560DE0312013575DE03120135B4DE033B
:1011C300120135F3DE031201357DDF03120135CA47
:1011D300DF031201358BE003120135F87F001201A2
:1011E3003519F203120135A1F30312013502F40399
:1011F30012013548F403120135EACD031201352FEC
:10120300CE031201354CCE031201351FCF03120159
:101213003585CF031201355ED003120135E7D103C3
:1012230012013552850412013565850412013569B1
:1012330085041201356B850412013574850412018E
:10124300357D85041201358885041201358D8504A9
:10125300120135EF8F021201350E9002120135E5AE
:101263009002120135399102120135C19102120126
:1012730035499202120135AA9202120135259302D1
:10128300120135AD93021201351B94021201355040
:101293009402120135859402120135179502120149
:1012A300359F950212013527960212013595960254
:1012B3001201351D9702120135A797021201352F2E
:1012C30098021201358398021201350D9902120119
:1012D30035959902120135109A02120135A79A0227
:1012E300120135FB9A02120135769B021201350871
:1012F3009C021201355C9C02120135B09C02120162
:1013030035539D02120135729D02120135949D02DF
:10131300120135CE9D02120135229E021201358340
:101323009E02120135F19E02120135FA8004120168
:10133300351C81041201354581041201355D810498
:101343001201359F8104120135ECAB03120135F60E
:10135300AB0312013536AC031201357FAC03120126
:1013630035B9AC0312013513AD0312013532AD03A8
:101373001201353BAD031201358CAD03120135B5B6
:10138300AD03120135BFAD031201352BAE031201BC
:1013930035B9AE0312013512AF0312013540AF0365
:1013A300120135C0AF0312013503B0031201353EFC
:1013B300B00312013550B0031201356FB0031201AF
:1013C3003578B00312013545B103120135797F0039
:1013D300120135ACF90312013501FA031201356F1D
:1013E300FA03120135DFFA03120135AEEF031201DE
:1013F30035D8EF03120135ADF003120135A1F10326
:101403001201350080041201354BF40312013581BA
:10141300F403120135BAF40312013513F603120172
:10142300353384041201354984041201355384048D
:101433001201359D84041201353C9503120135F9DF
:1014430095031201353496031201355C960312019C
:1014530035BE96031201350A97031201356E9703C1
:10146300120135E89703120135EA98031201359DFD
:101473009A031201351F9B03120135849B0312014A
:10148300359B9B03120135A49C03120135E29C0397
:10149300120135B3C003120135CCC0031201356DFF
:1014A300C103120135ADC103120135C6C1031201D7
:1014B30035F9C10312013546C2031201357AC2035D
:1014C300120135BCC203120135C6C4031201352310
:1014D300D902120135ACDC0212013534DE021201ED
:1014E300358BDE02120135AADE0212013528DF0236
:1014F300120135C6E002120135AAE1021201359448
:10150300E50212013564E602120135DAFB0112012C
:101513003523FC01120135D9FC0112013501FD010E
:1015230012013584FD01120135F5FD01120135DF8C
:10153300FE011201351AFF01120135ED8504120176
:1015430035F68504120135C18504120135D87F00B3
:10155300E066701008A3E066700A08A3E0667004F2
:1015630008A3E06622C3E7960809E7960809E79609
:101573000809E79622C3E09608A3E09608A3E0963D
:1015830008A3E09622C008C3E096F50808A3E096F6
:10159300420808A3E096420808A3E09645087001B4
:1015A300D3D00822080808EAC0E0EBC0E086F0E7E1
:1015B300A4FA180986F0E7A42AFA180986F0E7A422
:1015C3002AFA180986F0E7A42AFA1986F0E7A4FB99
:1015D300E5F02AFA190886F0E7A42BFBE5F03AFABE
:1015E300190886F0E7A42BFBE5F03AFA18180986E8
:1015F300F0E7A4C5F02BFBE43AFA1908E7C5F0C6F7
:10160300A426F6E5F03BFBE43AFA1886F0E7A4F6E5
:10161300E5F00826F6E43B08F6E43A08F6D0E0FBEA
:10162300D0E0FA22E4CFC0E0E4CEC0E0E4CDC0E0F5
:10163300E4CCC0E075F020E626F608E633F608E6CB
:1016430033F608E633F6181818EC33FCED33FDEEE9
:1016530033FEEF33FFC3EC9709ED9709EE9709EFDC
:1016630097191919400FFFEC97FC09ED97FD09EE47
:1016730097FE191906D5F0BFECF709EDF709EEF758
:1016830009EFF7191919D0E0FCD0E0FDD0E0FED046
:10169300E0FF226016080808C6C313C618C613C69F
:1016A30018C613C618C613C6D5E0EA22700908087F
:1016B30008226016181818C6C333C608C633C608EE
:1016C300C633C608C633C6D5E0EA22E627F60809BC
:1016D300E637F60809E637F60809E637F622E02684
:1016E300F608A3E036F608A3E036F608A3E036F6DC
:1016F30022E026F008A3E036F008A3E036F008A3C2
:10170300E036F022C3E697F60809E697F60809E6FD
:1017130097F60809E697F622C3E096F008A3E09649
:10172300F008A3E096F008A3E096F022E657F60847
:1017330009E657F60809E657F60809E657F622E0E0
:1017430056F608A3E056F608A3E056F608A3E056BB
:10175300F622E056F008A3E056F008A3E056F0089E
:10176300A3E056F022E0F608A3E0F608A3E0F608AB
:10177300A3E0F622E6F008A3E6F008A3E6F008A348
:10178300E6F022E0FAA3E0FBA3E0FCA3E0FD22EAFB
:10179300F0A3EBF0A3ECF0A3EDF022E0F8A3E0F963
:1017A300A3E0FAA3E0FB22E8F0A3E9F0A3EAF0A3A5
:1017B300EBF022CAC0E0E6F0A308DAFAD0E0FA229E
:1017C300CAC0E0E0A3C582CCC582C583CDC583F082
:1017D300A3C582CCC582C583CDC583DAE6D0E0CA72
:1017E30022C3E498F8E499F91218258026C3E49AF1
:1017F300FAE49BFBE920E7E9121825E498F8E49959
:10180300F922C3E498F8E499F9121825E498F8E466
:1018130099F9C3E49AFAE49BFB22EB20E7CFE92092
:10182300E7E0B90010BB0008E88AF084F8AAF022C8
:10183300E4FBC8FA22EB70227B10C833C8C933C952
:10184300335007C39AC3DBF280069A50012ADBEABE
:10185300C833F4C8C933F4C9FA2275F008E4C833AD
:10186300C8C933C933C99AC99B5004C92AC93BD5CE
:10187300F0ECFBC833F4C8E4C9FA22600D08C6A231
:10188300E713C618C613C6D5E0F322600C08C6C317
:1018930013C618C613C6D5E0F422700422600D18CF
:1018A300C6C333C608C633C6D5E0F41822251810BC
:1018B300AF08F518400C15198008F51840021519E2
:1018C300D2AF2200C0D0251810AF08F518500C0570
:1018D300198008F51850020519D2AFD0D022251867
:1018E300F58210AF08F518400C15198008F518405B
:1018F300021519D2AF851983222518F582E435190B
:10190300F583222518F8E43519F9222518FAE43568
:1019130019FB222518FCE43519FD22E4732518C5AB
:1019230082C0E0E51934FFC583C0E0E518C39582A2
:1019330024F810AF088583198582188008858319D8
:10194300858218D2AFCEF0A3E520F0A37808E6088D
:10195300F0A3DEFAEFF0A3E58124FAF8E608F0A39A
:10196300E608F0A3E608F0A30808E608F0A3E608F3
:10197300F0A315811581D0E0FED0E0F81581158123
:101983001581E8C0E0EEC0E0222518C582C0E0E57D
:101993001934FFC583C0E0E518C3958224F910AF5D
:1019A300088583198582188008858319858218D252
:1019B300AFCEF0A3E520F0A37808E608F0A3DEFAA3
:1019C300EFF0A3E58124FBF8E608F0A3E608F0A313
:1019D3000808E608F0A3E608F0A315811581D0E016
:1019E300FED0E0F815811581E8C0E0EEC0E0228565
:1019F3001983851882E0A3FEE0A3F5207808E0A30D
:101A0300F608DFFAE0A3FFE0A3C0E0E0A3C0E0E054
:101A1300A3C0E0E0A3C0E0E0A3C0E010AF0885826C
:101A2300188583198008858218858319D2AFD083DE
:101A3300D082020132851983851882E0A3FEE0A3D8
:101A4300F5207808E0A3F608DFFAE0A3FFE0A3C0DF
:101A5300E0E0A3C0E0E0A3C0E0E0A3C0E010AF0873
:101A63008582188583198008858218858319D2AFEA
:101A7300D083D08222C0D02518C582C0E0E51934B6
:101A8300FFC583C0E0E518C3958224F310AF088532
:101A930083198582188008858319858218D2AFC877
:101AA300F0A3E9F0A3EAF0A3EBF0A37908E709F0C8
:101AB300A3D8FAECF0A3EDF0A3EEF0A3EFF0A3D0DC
:101AC300E0F0A3D0E0F0A3D0E0F0A3E520F0A3E59D
:101AD300F0F0A322851983851882E0C0E0A3E0F922
:101AE300A3E0FAA3E0FBA37808E0F608A3DFFAE09B
:101AF300FCA3E0FDA3E0FEA3E0FFA3E0C0E0A3E0BE
:101B0300C0E0A3E0F5D0A3E0F520A3E0A3F5F01037
:101B1300AF08858319858218800885831985821803
:101B2300D2AFD082D083D0E0F8D0E0327404800604
:101B3300740280027401C0E0F4041218E1D0E012D0
:101B430017B6227404800474028000CCC0E0EDC098
:101B5300E0E518C39CCCAD1950011D10AF068C18DD
:101B63008D1980068C188D19D2AF1217C3D0E0FDE2
:101B7300D0E0FC22D083D082E9C0E0E493A3C38603
:101B8300F0C5F095F0F908E493A386F0C5F095F05D
:101B9300700BE493A3C3994005E9048002A3E475A1
:101BA300F002A42582F582E5F03583F583D0E0F9D0
:101BB300E493A3C0E0E493C0E022D083D082ECC0DE
:101BC300E0EDC0E0E493A3FCE493A3FDED4C600DD2
:101BD300121C09EC24FFFCED34FFFD80EFE493A31A
:101BE300FCE493A3FDED4C600D121C48EC24FFFCB8
:101BF300ED34FFFD80EFD0E0FDD0E0FCE493A3C023
:101C0300E0E493C0E022C0E0C3E493960874019338
:101C13009618400FE4936670080874019366187071
:101C2300007019A3A3C3E49396087401939618A3B1
:101C3300A3400DD0E0D0E0D0E0021BF9A3A3A3A3FF
:101C4300A3A3D0E022C0E0C0F088F0E4936670085C
:101C53000874019366187000A8F0A3A3700BD0F06A
:101C6300D0E0D0E0D0E0021BF9A3A3D0F0D0E02273
:101C740074F512198CEAFEEBFFEE2434F8EF34000D
:101C8400F988088909EE2435F582EF3400F583E0FC
:101C9400F8EE2437F582EF3400F583E0F50AEC859D
:101CA4000AF0A4FCAAF0850AF0EDA42AFDE82CF8B9
:101CB400E43DF97A257B00121825EA850882850916
:101CC40083F0F8740758F97401B900028004C3332F
:101CD400D9FCFAE8131313541FF8EE28F8EF340074
:101CE400F9E8245DF582E93400F583E05A6008EEF2
:101CF4002434F582EF802CEE2434F582EF3400F5A1
:101D040083E0C0E0EE2436F582EF3400F583E0F59D
:101D1400F0D0E084A8F0EE28F8EF3400F9E8243895
:101D2400F582E93400F583E0F97F04021A3874F58A
:101D340012198CEAFEEBFFEE2434F582EF3400F541
:101D440083E0C0E0EE2435F582EF3400F583D0E083
:101D5400F08E828F83A3A3A3A3A3A3A3C082C08373
:101D64008E828F83A3A3A3A3A3E0F8A3E0F9D08377
:101D7400D082E0C398F508A3E099F509EE247FF535
:101D840082EF3400F583E064017069EE2480F5820B
:101D9400EF3400F583E0F8A3E0F98E828F83A3A3E8
:101DA400A3A3A3A3A3E0FCA3E0FD8E828F83A3A33C
:101DB400A3A3A3E0FAA3E0FBC3EA9CEB9D5010C3EA
:101DC400EC98ED99402EC3EA98EB995027800EC306
:101DD400EA98EB994007C3EC98ED9940177CDB7DBA
:101DE40005EEFAEFFB120BE7EE247FF582EF3400E9
:101DF400F583E4F0EE2434F8EF3400F9E8FCE9FD6F
:101E0400EE2435F582EF3400F583E0F8EE2437F55F
:101E140082EF3400F583E0F50AE508850AF0A4F5BD
:101E240008AAF0850AF0E509A42AF509E82508F8C6
:101E3400E43509F97A257B00121825EA8C828D8312
:101E4400F0F8740758F97401B900028004C333D957
:101E5400FCFAE8131313541FF8EE28F8EF3400F9D2
:101E6400E8245DF582E93400F583E05A6008EE2445
:101E740034F582EF802CEE2434F582EF3400F583C0
:101E8400E0C0E0EE2436F582EF3400F583E0F5F0AF
:101E9400D0E084A8F0EE28F8EF3400F9E82438F50F
:101EA40082E93400F583E0F9122AAF021D2DC082C5
:101EB400C083851882851983E0F8A3E0F9C3EA9CFE
:101EC400EB9D5010C3EC98ED99401BC3EA98EB9935
:101ED4005014800EC3EA98EB994007C3EC98ED992F
:101EE4004004790180027900D083D08222EAC39C25
:101EF400FAEB9DFB2274EF12198C9004A1E06408A4
:101F04006005E06407702A9061C8E060249004CF03
:101F1400E0F4601DE0F875F003A4C8AAF02AF9748F
:101F2400D128FE740439FF8E828F83A3A3A3E070AB
:101F340003022029906060E0C0E0EE2468F582EF9F
:101F44003400F583D0E0F0750C44750D0675080077
:101F5400750900E5D914F50AE5D95403F50E60179F
:101F64007403650E605CE50A6010EE2467F582EF89
:101F74003400F583E0700302200E90063FE0640114
:101F8400602AEE2482F582EF3400F583E060047861
:101F94000480027800850A08E508C398FA95E0FBF6
:101FA400120A918A088B09EA45097005120DF1801D
:101FB40074EE2482F582EF3400F583E070048A0C19
:101FC4008B0DE50A6012850C82850D83F50BE5D92E
:101FD400F0A3150BE50B70F6EE2482F582EF3400C6
:101FE400F583E0604474FC250AF50A780C121B336F
:101FF400AC0AA90EEEFAEFFB120C8974021218C691
:10200400E97026AA08AB091213D9793D8E828F8311
:10201400A3A3A3A3E0FA7B00120965EEFAEFFB1277
:102024000BFF120C9B790080747403650E60568557
:102034000A107511007810121B33AC0CAD0DAA08F0
:10204400AB09120C6574021218C6EE2468F582EF0F
:102054003400F583E064807004747F8001E0F50C43
:10206400780C121B37E50EF50C780C121B37A90AF5
:10207400AC08AD099004CFE0FA7B00120929740280
:102084001218C680139004A1E06408600BAC0CAD78
:102094000DEEFAEFFB120CF5120DFD79017F0A0229
:1020A4001A3874F512198C74FC1218B0EAFEEBFF9E
:1020B4008908A2AFE433F509C2AF806AEE2463F85D
:1020C400EF3400F97A007B00A2AFE433F50AC2AF23
:1020D40088828983E0FCA3E0FDEC4D603A88828924
:1020E40083E0FAA3E0FB8A828B83E0FCA3E0FD8813
:1020F400828983ECF0A3EDF08A828B83E4F0A3F071
:1021040088828983E0FCA3E0FDEC4D700A88828913
:1021140083A3A3E4F0A3F0E50AA2E092AF1213D9DB
:102124009005E2E004F0EE2463F582EF3400F583D9
:10213400E0F8A3E0F9E849603DEE2463F582EF346A
:1021440000F583E02402FAA3E03400FBEA2402F55C
:102154000AEB3400F50B780A121B338A828B83E076
:10216400FCA3E0F9EEFAEFFB120C2374021218C67A
:10217400E970030220C09005E2E060639005E3E0AB
:10218400F89005E2E0C398500C7402650870509012
:1021940005E4E0604A8E828F83A3A3A3A3E085189D
:1021A40082851983F0A3E4F09005E2E0F87402124A
:1021B40018FCE8F0A3E4F09005E2E0F89005E1E013
:1021C40028F074021218FCAC82AD8385188285193C
:1021D40083AA82AB8379011209359005E2E4F0E524
:1021E40009A2E092AF74041218C6021D2D0000006B
:1021F4008521878522C622C0E0C0D0E8C0E0E9C0BE
:10220400E0EAC0E0EBC0E0ECC0E0EDC0E0EEC0E02E
:10221400C008C009C00AC00BC082C083C0F0A2AF0E
:10222400E433FEC2AF759B00906182E0A2E05012DD
:10223400E591A2E0500C7591FE74016521700312C2
:102244001EF9E0A2E55051E591A2E5504B7591DFEE
:102254009004A1E064076005E064087023740165DC
:1022640021703579019004CFE0FA75F003A4CAA86F
:10227400F028FB74D12AFA74043BFB1220A68018C0
:10228400E0640D70139004C3E004F064287002E469
:10229400F07A00E0F9120E03906182E0A2E64003B6
:1022A400022342E591A2E640030223427591BF90C6
:1022B40004A1E064057008120D2B120D378003127F
:1022C4000D31752100120D91E99004A2F0790012EC
:1022D4000D85120B577A017B009004A0E0F91213CC
:1022E400A3907803E064427055900643E014F070C4
:1022F4004DC2AF1222FA00782AD0E0F618D0E0F6E8
:10230400E59F540770057509FF800375097FC4C0F4
:10231400E07829E6F50808E65509F509740B78080C
:1023240012188ED0E02508F8906270E0A2E740F819
:10233400E8C333906272F0906270E0D2E0F0906192
:1023440081E0A2E35009E5E9A2E3500375E9F7A3AC
:10235400E0A2E75009E591A2E7500375917FEEA250
:10236400E092AFD0F0D083D082D00BD00AD009D085
:1023740008D0E0FED0E0FDD0E0FCD0E0FBD0E0FAF5
:10238400D0E0F9D0E0F8D0D0D0E032C0E0C0D0C086
:1023940082C083906183E0A2E05009E5BFA2E050CF
:1023A4000375BFFEE0A2E15009E5BFA2E150037549
:1023B400BFFDE0A2E25009E5BFA2E2500375BFFBF6
:1023C400E0A2E35009E5BFA2E3500375BFF7E0A222
:1023D400E45009E5BFA2E4500375BFEFE0A2E55065
:1023E40009E5BFA2E5500375BFDFE0A2E65009E5A9
:1023F400BFA2E6500375BFBFD083D0828088C0E0FF
:10240400C0D0E8C0E0E9C0E0EAC0E0EBC0E0ECC066
:10241400E0EDC0E0C0F0E5A7A2E6500FE5A1A2E61A
:10242400500953A7BF75A1BF122467E5A7A2E550C1
:102434000CE5A1A2E5500653A7DF75A1DFE5A7A22D
:10244400E15009E5A1A2E1500375A1FDE5A7A2E2CF
:10245400500CE5A1A2E2500653A7FB75A1FBD0F0F6
:1024640002237874F812198C7521019004A1E06498
:10247400067015120CB98A828B83A3A3A3A3A3A30A
:10248400E0FAA3E0FB120D19A2AFE433FED2AF9041
:1024940004A7E0640170187A207B009004A0E0F99E
:1024A4001214B77A207B009004A0E0F91213A990CB
:1024B4006182E0D2E6F0900640E0602185C6228089
:1024C400169004A6E064017008E5C654F84405F5C6
:1024D400C653BEFC1221F47401652160E4EEA2E04F
:1024E40092AF7F01021A38008E238F2485822885BB
:1024F4008327851882851983E0CEA3E0CF852882BF
:10250400852783EBC9EAC8EDCBECCA75F010C3E8A4
:1025140033C8E933C9EA33CAEB33CBC3EA9EF526A1
:10252400EB9FF525B35004AB25AA26EC33CCED3351
:10253400CDD5F0DAAE23AF242274E912198C74F8E5
:102544001218B0851882851983ECF0A3EDF08A087F
:102554008B099004A1E024F7C39405500675080183
:102564000226D4120CB98A0A8B0BAE0AAF0BEE4FBB
:1025740070030226D1AC08AD0974021218FCAA82B9
:10258400AB83120D498E828F83A3A3750CFF750D47
:10259400FF750EFF750F00780C12174274021218A3
:1025A400FC7510FF7511FF7512FF7513007810127A
:1025B4001742780C7910121568502A780C79101289
:1025C40017077508017509C8750A00750B007808A6
:1025D400790C1215685052850C08850D09850E0A70
:1025E400850F0B80507514017515C8751600751785
:1025F4000085100885110985120A85130B7808795E
:102604000C12170778147908121568401C75080015
:10261400750900750A00750B0178087910121707FF
:102624007808790C1216CE800C75080175090075AE
:102634000A00750B00740978081216AF750C19F5A9
:102644000DF50EF50F7808790C1216278E828F83FC
:10265400A3A3A3A3A3A3E0F8A3E0F97AD07B031276
:102664001825880C890DE4F50EF50F7808790C12FD
:1026740016CE74061218FCE0F8A3E0F97AD07B03B6
:10268400121825E8FA8A0CE4F50D7808790C12156D
:102694006850077808790C1217079004A1E06408C1
:1026A400600AE064066005E06405702D750C0D7821
:1026B4000C79081215684021750CF4750DFF750E20
:1026C400FF750FFF7808790C1216CE800C75080080
:1026D400750900750A00750B00851882851983E059
:1026E400F8A3E0F583888278081217777408121823
:1026F400C67F10021A3874F712198C120D5B9006FB
:102704003EE064017010906245E4F0A3F053F4F3EA
:1027140043FE0C5390F3120D07E5C654804449F56B
:10272400C6E59E547F644970F8906185740FF090FB
:10273400063CE0F47002A3E0604E90063DE06008C1
:1027440014601B14602E8040750801750900900602
:102754003CE0780812189DE508F45280802A750838
:102764000175090090063CE0780812189DE508F40C
:102774005290801475080175090090063CE07808B1
:1027840012189DE508F452A079007F02021A3874E9
:10279400F712198CE9FEEAFF74016E700C7A807BE3
:1027A400009004A0E0F91213A3902B5CE493F4606E
:1027B40008E493F9120B4B800953C680E59E547FBD
:1027C40070FA120D0D90063EE064017003120B695D
:1027D40090063CE0F47002A3E0604B90063DE0609C
:1027E4000814601A14602C803D7508017509009066
:1027F400063CE0780812189DE50842808028750898
:102804000175090090063CE0780812189DE508421D
:1028140090801375080175090090063CE078081251
:10282400189DE50842A0120D5B120CB98A088B09A9
:10283400A808A909E8496015E5E170FCE82414F545
:1028440082E93400F583E0F46003E0F5E174016F9C
:10285400700A7A019004A0E0F912142D02278E74F4
:10286400ED12198C8A088B098C0A8D0B74131218BB
:10287400FC780C1217687808790C12156875100129
:102884007511C875120075130050127808790C126E
:1028940017077810790812156850168010780C798B
:1028A400081217077810790C121568400479018012
:1028B4000279007F0C021A3874ED12198C8A088B85
:1028C400098C0A8D0B74131218FC780C1217687893
:1028D4000C790812156840117808790C121707AAA8
:1028E40008AB09AC0AAD0B80227510007511007598
:1028F40012007513017810790C12170778107908F3
:102904001216CEAA10AB11AC12AD1380A68A828B1C
:10291400837508FF7509FF750AFF750B00780812A7
:1029240017557F04021A3874F512198C8C828D8322
:1029340078081217688A828B83780812171BEA2496
:1029440004F8EB3400F98C828D83A3A3A3A3E0FCE9
:10295400A3E0FD88828983C3E09CF0A3E09DF08816
:10296400828983C3E09420A3E0944E40268A828B1C
:10297400837508FF7509FF750AFF750BFF78081248
:1029840016F48A828B83A3A3A3A3E02420F0A3E0FC
:10299400344EF002291174F512198CE9FE9005F6F3
:1029A400E0FAA3E0FBEEC333F8E433F9741C28F532
:1029B40082749439F583E02AF508A3E03BF509789D
:1029C40008121B337A407B427C0F7D001224EC7486
:1029D400021218C68A088B098C0A8D0B74107808A9
:1029E400121696AA08AB097F04021A3874F1121958
:1029F4008C8A0C8B0D8C0E8D0F740F1218FCE0FA60
:102A0400A3E0FB74111218FCE0F508A3E0F50978C3
:102A140008121B33EA2401F508EB3400F509E4F548
:102A24000AF50B780C79081215A775087175090257
:102A3400780C79081215A7AA0CAB0DAC0EAD0F12C9
:102A440024EC74021218C68B09EA450960047A0161
:102A540080027A00EC2AFCED3400FD74131218FC99
:102A6400E0F8A3E0F9E8FEE9FFECF8EDF97A717B10
:102A740002121825880889098E828F837808121714
:102A840077ECF8EDF97A717B021218258A088B0924
:102A94007405780812189D8E828F83A3A3A3A3E5DF
:102AA40008F0A3E509F07F08021A38C082C083E960
:102AB400906000F0D083D08222C0E074F2121A78C1
:102AC400A2AFE433FED2AFE589A2E04012E589A2C9
:102AD400E1400CE589A2E24006E589A2E350031235
:102AE4001181900305E064017009E589A2E55003B2
:102AF400121181758900C2C5751A00EEA2E092AF69
:102B04007F01021AD7C0E074F2121A78A2AFE4333C
:102B1400FED2AFE58AA2E44006E58AA2E55003129C
:102B24001181758A00C2EB80CFC0E0C0D0E8C0E05C
:102B3400E9C0E0A9A8D2AFC2C7751A00E9A2E7E4C8
:102B440033F8E9A2E792AFD0E0F9D0E0F8D0D0D0E2
:102B5400E032C2AF02000022FFFFFFFFFFFFFFFFD2
:102B6400C082C08390780E122BA6A3F090780F1227
:102B74002BA6F0907810122B9FA3A3F0907811123B
:102B84002B9FA3F0907812122B9FF0907813E08A79
:102B9400828B83F0D083D082020132E08A828B83DD
:102BA400A322E08A828B83A3A3A3A322AABDA8BCE9
:102BB40075B437EAFBE8FA02013274F41219208A78
:102BC400088B097A107B001214158A0A8B0BAE0A43
:102BD400AF0B12043D8E828F83A3A3A3A3A3A3747C
:102BE40010122C577407122C57A37413122C6374ED
:102BF4000A122C63A37432F0EE240BF582E43FF541
:102C0400837414F0EE240CF582E43FF5837402F02F
:102C1400EE240DF582E43FF5837442F0EE240EF5C4
:102C240082E43FF583744AF0EE240FF582E43FF525
:102C3400837443F07808121B33EEFCEFFD7A4A7B71
:102C44000E120AB574021218C6EEFAEFFB12141B28
:102C5400022D8E122C5B2212467FA3A3A3A3221261
:102C64002C5BA3A32274F412192074E91218B0EA9D
:102C7400FEEBFF7A107B001214158A088B09780882
:102C8400121B337C777D0E7A4A7B0E120AB57402CE
:102C94001218C6909231AC18AD1974171217C38567
:102CA4000882850983124F90850882850983A3E0F1
:102CB400C0E074011218FCD0E01233B9C0E0740211
:102CC4001218FCD0E01233BEC0E074031218FCD01A
:102CD400E01233C3C0E074041218FCD0E0123418BC
:102CE400C0E074051218FCD0E012341DC0E0740674
:102CF4001218FCD0E0123429C0E074071218FCD07A
:102D0400E012342EC0E074081218FCD0E0123440F3
:102D1400C0E074091218FCD0E0123445C0E0740A13
:102D24001218FCD0E012340FC0E0740B1218FCD05F
:102D3400E0123406C0E0740C1218FCD0E01233F434
:102D4400C0E0740D1218FCD0E01233EBC0E0740E36
:102D54001218FCD0E01233E2C0E0740F1218FCD059
:102D6400E0F0AA08AB0912141B750817750900785E
:102D740008121B337402121916EEFAEFFB12134FEA
:102D840074021218C674171218C67F040219F2745A
:102D9400F712192074EF1218B09092B9AC18AD194B
:102DA40074111217C390030B7430F0A37478F07885
:102DB4000D7903EA2406FA50010B7E06EA24FF1A71
:102DC400EB34FFFB8A828B83E0C4122DFBF08A82F2
:102DD4008B83E0122DFBA3F0E82402F85001091EB6
:102DE400EE70D988828983E4F07A0B7B0374111224
:102DF40018C67F010219F2540FFC851882851983C5
:102E0400E5822CF582E43583F583E0888289832288
:102E140074F612192074F91218B090950B740112FB
:102E2400191674061217C39095E3AC18AD19041261
:102E340017C3A282500302307C7E008036EE6033DA
:102E440014603F146049147003022F2F147003029E
:102E54002F50147003022F2F147003022F5014707C
:102E640003022FE214700302302314700302305D56
:102E7400023072790012142779011212537A2C024B
:102E8400306A79001211C91212597A2C022F48792A
:102E9400001211C9121541798D12103DE9F8740F11
:102EA40058F974F05829C0E074061218FCD0E0F008
:102EB400798912103DE9F8740F58F974105829C033
:102EC400E074051218FCD0E0F0798712103D12303E
:102ED40091C0E074041218FCD0E0F0798512103D22
:102EE400123091C0E074031218FCD0E0F079831220
:102EF400103D123086C0E074021218FCD0E0F07964
:102F04008112103D123086C0E074011218FCD0E02A
:102F1400F0740112190E1204558A088B09AC08AD1D
:102F2400097A0079001211CF02306F740112190E60
:102F34001204558A088B09AC08AD097A007900128D
:102F440011CF7AF47B0112119F023072121541796C
:102F54008D12103DE9F8740F58F974F05829C0E047
:102F640074061218FCD0E0F0798912103DE9F87467
:102F74000F58F974105829C0E074051218FCD0E0F9
:102F8400F0798712103D123091C0E074041218FCDD
:102F9400D0E0F0798512103D123091C0E074031234
:102FA40018FCD0E0F0798312103D123086C0E07432
:102FB400021218FCD0E0F0798112103D123086C064
:102FC400E074011218FCD0E0F0740112190E12041E
:102FD400558A088B09AC08AD097A00023063740184
:102FE40012190E1204558A088B09AC08AD097A002F
:102FF40079001211CF7AF47B0112119FA818A91934
:10300400880889097808121B337C017D007AF87BD3
:103014001F12116374021218C67A327B008049852C
:103024001882851983E4F0A818A9198808890978F1
:1030340008121B337C017D007AF87B1F12115D742A
:10304400021218C6851882851983E0640A601FC2BB
:10305400AF75C9AB75C95B80FE7C857D947A0279B6
:10306400001211CF7AF47B0112119F1215410EEE5A
:10307400C3940A5003022E4174071218C67F020239
:1030840019F2E9F8740F58F97470582922E9F874A0
:103094000F58F9743058292274F412192074D71275
:1030A40018B0E9FE7A107B001214158A088B09788F
:1030B40008121B337C8D7D0E7A4A7B0E120AB5747E
:1030C400021218C6909248740E1219167417121729
:1030D400C3850882850983E0C0E0740E1218FCD011
:1030E400E0125A72E0C0E0740F1218FCD0E0123300
:1030F400B9C0E074101218FCD0E01233BEC0E07402
:10310400111218FCD0E01233C3C0E074121218FC80
:10311400D0E0123418C0E074131218FCD0E012345A
:103124001DC0E074141218FCD0E0123429C0E074FD
:10313400151218FCD0E012342EC0E074161218FCDC
:10314400D0E0123440C0E074171218FCD0E01234FE
:1031540045C0E074181218FCD0E012340FC0E074BB
:10316400191218FCD0E0123406C0E0741A1218FCCC
:10317400D0E01233F4C0E0741B1218FCD0E0123318
:10318400EBC0E0741C1218FCD0E01233E2C0E0740F
:103194001D1218FCD0E0F0AA08AB0912141BEE9023
:1031A4000301F07C017D007A1F7B0012057B8518EA
:1031B400828519837401F0740C1218FCE4F0A3F0F6
:1031C400041218FCE4F0740A1218FC7408F0A3E466
:1031D400F074081218FC740AF0A3E4F074061218D0
:1031E400FCE4F0A3F074041218FC74E8F0A3740374
:1031F400F0AC18AD1979017A05FB1214CF740C12D6
:10320400191679027A067B031214CF740E1219165A
:1032140079177A087B031214CF7C5B7D0E79077AC9
:10322400077B031214CF740112191679017A107BEB
:10323400031214CF740A12191679027A117B03123D
:1032440014CF740812191679027A127B031214CF60
:10325400740612191679027A137B031214CF7404BC
:1032640012191679027A147B031214CF7C627D0E34
:103274007A1579001206F57CA07D007A067B00128F
:10328400057B7CA07D007A077B0012057B7CA07DFA
:10329400007A087B0012057B7CA07D007A097B0004
:1032A40012057B74251218FC124E59041218FC12D4
:1032B40033D774031218FCE4F074021218FC74017E
:1032C400F0742512191679047A087B0412106174BB
:1032D4000112191679017A007B04121061AC18AD41
:1032E4001979017A027B0412106174031219167998
:1032F400017A037B04121061740212191679017A9F
:10330400067B041210619095711217861206FB90C9
:103314009571121786120803120FFB9095711217FC
:10332400861211F9900301E0F912133712153B12BA
:10333400042512042B12122312123B12100D121028
:10334400131210191212419095E2AC18AD197401C0
:103354001217C3A818A919880889097808121B33F9
:103364007C017D007AF07B1F12115D74021218C675
:10337400851882851983E064AA600312048B1211F4
:10338400C312045B7A8B7B0E1211FF79011208FFC2
:1033940079021208F97900120905790112090B7AE8
:1033A400017B00900301E0F91213A37901121427A1
:1033B4007429022D8B125A6DE0221233C9E02212B5
:1033C40033C9A3E0221233CD221233D122125A760A
:1033D400A3A3227401F0851882851983F022F0E5F5
:1033E40008240F1233FD22F0E508240E1233FD22C7
:1033F400F0E508240D1233FD22F582E43509F58346
:10340400E022F0E508240C1233FD22F0E508240B39
:103414001233FD22123423E022123423A3E02212B9
:1034240033CDA3A322123434E022123434A3E02295
:10343400123438221233D1A3A3A3A32212344BE0B3
:103444002212344BA3E022123438A3A32274F112C3
:10345400192074FD1218B0890E909593AC18AD190B
:1034640074031217C37A10FB1214158A0A8B0BC249
:10347400AFA818A919880889097808121B337C0198
:103484007D007AFE7B1F12115D74021218C674014E
:103494001218FC8582088583097808121B337C0185
:1034A4007D007AFF7B1F12115D74021218C674022C
:1034B4001218FC8582088583097808121B337C0165
:1034C4007D007AF07B1F12115D74021218C6D2AF10
:1034D4001204378A088B091204378A0C8B0DAE0C40
:1034E400AF0D1204378A0C8B0DA80CA90DC3E50887
:1034F4009EE5099F5033C3EE98EF994033C3E50826
:1035040098E509994004AA08AB09900B39EAF0A39D
:10351400EBF0851882851983E06026F8900B39C397
:10352400E098F0A3E09400802BC3E89EE99F500646
:10353400EEFAEFFB80D4C3E89508E9950950C780FB
:10354400C974011218FCE0F8600B900B39E028F004
:10355400A3E03400F0900B39E0F8A3E0F9C3E89459
:10356400ABE994054022E82456F8E934FAF9E87501
:10357400F064A4F8AAF075F064E9A42AF97ABB7B94
:1035840001121825E8A38002A3E4F0900302E0648A
:103594000570577401650E7051850A82850B83741A
:1035A40031F0E50A2402F8E4350BF9A3AA82AB83CF
:1035B40075F00A900B3BE084940A8A828B83400A5C
:1035C4007401F088828983E4801AE4F0900B3BE074
:1035D400FA75F00A84ABF075F00AEA84C454F02B4F
:1035E40088828983125ABE121205AA0AAB0B1214DE
:1035F4001B796474031218C67F070219F274F0125F
:10360400192074F91218B074011218FCEAF0A3EB33
:10361400F074011218FCA3E054806041900301E0AF
:10362400F912138B8A088B09AE08AF09EE4F60209C
:103634008E828F83E064C07010A3A3A3E0FA8E820D
:103644008F83A3A3E0F9120473EEFAEFFB1213794C
:1036540074011218FC1246B364800246707401129D
:1036640018FCE0A2E050257A877B0E1214DB7A075F
:103674007B0312107F7A407B00900301E0F9121360
:10368400A374011218FCE0640102448854026041EE
:10369400909559121B467A027B00900301E0F912BF
:1036A40014AB74041218C6A285501B900305E06481
:1036B40001701312122F900305E4F0121259121222
:1036C4003B900B05E4F074011218FCE06402024420
:1036D40088E054407003023882900E5AE07037122A
:1036E40033D7790012142779011212531214E1AC62
:1036F40018AD1979017A057B031214CF90955512F0
:103704001B467A407B00900301E0F91214AB740469
:103714001218C6023877E41233D91214E1AC18AD8A
:103724001979017A057B031214CF900306E4F0F9AA
:10373400121253900B40E06036900B1AE412468844
:10374400E4F0900B3EF0900B3D04F0900B05E4F098
:10375400900B3FF0900B42F07C08FD79BB7A1C7B08
:103764000B121517900AFFE4F0900B01F08003127E
:10377400153512122F12123B12100D900B40E060FF
:1037840069900B35E07008900B37E064017015C246
:10379400AF7C917D0A7A6E7980121481D2AF900B3E
:1037A40035E07008900B37E06402703EC2AF7508D4
:1037B4008175090B7808121B33124E701211637451
:1037C400021218C67A0A7B0012119F7508BF750988
:1037D4000D7808121B337C8B7D00900AFB124E7708
:1037E40012116374021218C6D2AF7A087B009003D8
:1037F40001E0F91214B77A047B00900301E0F91296
:1038040014B77A007B02900301E0F91214B77A002E
:103814007B04900301E0F91214B77A007B10900343
:1038240001E0F91214B77A007B08900301E0F91261
:1038340014B77A007B01900301E0F91214B77A10EF
:103844007B00900301E0F91214B77A007B409003E7
:1038540001E0F91214B77A027B00900301E0F91237
:1038640014B77A407B00900301E0F91214B7790190
:1038740012142774011218FCE06440024488A3E087
:10388400540270030239507A007B02900301E0F97C
:103894001214B77A007B04900301E0F91214B79074
:1038A4000B07E0700474018001E4F0900303E4F07A
:1038B400900B1BF0900B1A124688E085188285192C
:1038C400836024E4F01214E1AC18AD1979017A058F
:1038D4007B031214CF1212657C0F7D0079FF7A0AE4
:1038E4007B0B12151780587401F01214E1AC18AD5B
:1038F4001979017A057B031214CF7A1A7B03120417
:103904004F7C1A7D0379177A087B031214CF9095A4
:1039140059121B467A027B00900301E0F91214ABA2
:1039240074041218C6121277909551121B467A002D
:103934007B20900301E0F91214AB74041218C674CE
:10394400011218FC1246B364020246707401121884
:10395400FCA3E054047003023E64900B1BE4F0FAF1
:103964007B04900301E0F91214B7900B1AE060276E
:103974001470030239FE147003023B141470030222
:103984003C39147003023C99147003023D451470D1
:1039940003023DD0023E1975080875090078081223
:1039A4001B337C0A7D0B7A917B0A12151174021267
:1039B40018C6E96014121271900B3CE0F912130D51
:1039C400900B1A7401F0023E46900B1AE4F01212A6
:1039D4006B124E6894065003023E191210497A473E
:1039E4007B08121055900B2F1217927A407B00908F
:1039F4000301E0F91213A3023E19900D451246B3D8
:103A0400F8900B3CE024FE601B14606214606B149D
:103A14007003023A9B147003023AD0147003023B01
:103A240008023E19EAC3940A400574BB6A705685BD
:103A340018828519837401F0900B01F01214E1AC23
:103A440018AD1979017A057B031214CF7A317B03FF
:103A540012044F7C317D0379177A087B031214CF4B
:103A640012128312128F900B1A7402023B10900BE5
:103A74001A7403F01212A1023E19E8C3940A400B0F
:103A840074BB686006121313023E02900B1A74048E
:103A9400F01212BF023E19790074BB6A6035900BB4
:103AA4001A7405F089087509007403780812189DC2
:103AB400124E35600BE9900B3DF01212D7023E19FD
:103AC40009E9C3940A4003023E2280D87A0074BBF9
:103AD400687006121319023E02900B1A7406F0EA7B
:103AE40075F009A4F8A9F0124E98600CEA900B3E08
:103AF400F0F91212E9023E190AEAC3940A400302D9
:103B04003E2280DB1212FB900B1A7408F0023E2254
:103B14007A107B001214158A088B09AE08AF097558
:103B24000800900302E064056003023C1280020571
:103B34000885080A750B007403780A12189D74919D
:103B4400250AFA740A350BFBEA2408F8E43BF988E1
:103B5400828983E0F470D8E508900B2B700AE04466
:103B640011125AB4D2E78008E04421125AB44441F5
:103B7400F088828983E508F0750A07750B00780AD6
:103B8400121B337C257D0BEA2409FA50010B121316
:103B94004F74021218C67C0679007A257B0B120436
:103BA40085E9F509900B3F7401F0A908121295906C
:103BB4009551121B467A007B20900301E0F9121400
:103BC400AB74041218C6900D45E064BB7004740114
:103BD4008002E004F08E828F83742FF0A3E508F056
:103BE400900B2BE08E828F83A3A312467FE509F00E
:103BF400EEFCEFFD7A1079011212057C077D007945
:103C0400007A257B0B121517900B1A7401F0851896
:103C140082851983E4F01214E1AC18AD1979017AA4
:103C2400057B031214CFEEFAEFFB12141B900B0169
:103C3400E4F0023E197508087509007808121B3370
:103C44007C1C7D0B7A0A7B0B12151174021218C6A8
:103C5400E960217808121B337C1C7D0B7A917B0A66
:103C640012134F74021218C61212AD900B35E044B1
:103C740041F080031212B390954D121B467A007BDB
:103C840020900301E0F91214AB74041218C6900BCF
:103C94003F740180427E007508088E097808121B63
:103CA400337C1C7D0B7A0A7B0B12151174021218DB
:103CB400C6E970391212CB90954D121B467A007BDF
:103CC40020900301E0F91214AB74041218C6900B8F
:103CD4003D7401F0900B3FF0900B1AF07C087D00CE
:103CE40079BB7A1C7B0B121517023E190EEE75F088
:103CF40009A4F8A9F0748128F8740B39F9E8FAE9F1
:103D0400FB8A828B83A3E064BB70E1EEF078081237
:103D14001B337C1C7D0BEA2402FA50010B12134F57
:103D240074021218C6EEF91212C5900D46E064BB77
:103D3400700474018002E004125AB44444F0023C5A
:103D4400BB900B3D124E8612189D74912508F87491
:103D54000A3509F9E8FAE9FB8A828B83A3A3A3A3B2
:103D6400A3A3A3A374FFF07C077D007900EA2409D0
:103D7400FA50010B121517900D45E014F075080662
:103D84007509007808121B33900B3DE0F5087403A5
:103D9400780812189D749A2508FC740A3509125A79
:103DA400ED12134F74021218C6900B7F124E6B94CF
:103DB400094002E4F0900D45E0700374BBF0900BF1
:103DC40035E044421246931212DD80327C097D00B4
:103DD400900B3EE08CF0A4F8A9F0748228FA740BDE
:103DE40039FB79BB121517900D46E014F07003747B
:103DF400BBF0900B35E044441246931212EF9095B9
:103E04004D121B467A007B20900301E0F91214AB9B
:103E140074041218C6900B1AE0C394024024900B49
:103E240001E0640170059095498003909545121B4B
:103E3400467A007B10900301E0F91214AB7404126B
:103E440018C6900B1BE4F07C0FFD79FF7A0A7B0BFC
:103E540012151774011218FC1246B364040246705A
:103E640074011218FCE05408604B900AFFE06401EE
:103E74007038900302E064057030900B35E0602ADE
:103E8400900B07E07024900B35E0A2E7401CD2E6CB
:103E9400125A567A9D7B0E120485E9900B2CF07C05
:103EA4009D7D0E7A03790112120574011218FCE04B
:103EB4006408024488A3E05408700302406C7A004A
:103EC4007B08900301E0F91214B7900B40E07003F3
:103ED40002404F7E00EE75F009A4F8A9F074812821
:103EE400F508740B39F509E508245DF50AE435098C
:103EF400F50B750C08750D00780C121B337C0A7DCC
:103F04000BAA0AAB0B12151174021218C6E9602E23
:103F14009003057401F0121235900DC07404F0EE94
:103F2400A3F0E508245CF582E43509F583E4F07C2C
:103F340010FD79BBAA0AAB0B121517024001750AD2
:103F440008750B00780A121B337C0A7D0BE50824E4
:103F540002FAE43509FB12151174021218C6E9605D
:103F6400119003057401F0121235900DC074010212
:103F74003FFD780A121B337C0A7D0BE50824B7FA4F
:103F8400E43509FB12151174021218C6E960109089
:103F940003057401F0121235900DC07405805A782F
:103FA4000A121B337C0A7D0BE5082411FAE5093457
:103FB40001FB12151174021218C6E9601090030572
:103FC4007401F0121235900DC07406802C780A1218
:103FD4001B337C0A7D0BE508246BFAE5093401FBED
:103FE40012151174021218C6E960209003057401B9
:103FF400F0121235900DC07407F0EEA3F07A107B26
:1040040000900301E0F91213A3804374096E702E2B
:10401400124E68940640241210497A477B08121005
:1040240055EAF8EBF9ECFAEDFB900B2F1217AA7A8C
:10403400407B00900301E0F91213A312126B1215D6
:10404400410EEEC3940A5006023ED912126B7C0F45
:104054007D0079FF7A0A7B0B12151774011218FC84
:104064001246B3640802467074011218FCA3E054AB
:104074000170030241CB1210497A477B0812105594
:104084008A088B098C0A8D0B851882851983E4F0C4
:10409400E0FA8A0C750D007402780C12189D748174
:1040A400250CF8740B350DF974051218FCE8F0A30F
:1040B400E9F074051218FCE024C6F8A3E03401F911
:1040C400E8FCE9FDEA75F009A4FAABF074812AF87A
:1040D400740B3BF974031218FCE8F0A3E9F08C822A
:1040E4008D83780C121768909541780C1216E1783C
:1040F4000C7908121568402C750C00750D00750EAE
:1041040000750F008C828D83780C1217777C097DE3
:104114000079BB74031218FCE024B6FAA3E034005F
:10412400FB12151774051218FCE024EEF8A3E03412
:1041340001F9E8FAE9FB8A828B83780C12176890FC
:10414400953D780C1216E1780C7908121568401226
:1041540012469F1218FCE02410FAA3E03401FB126B
:10416400151774051218FCE02416F8A3E03402F9BC
:10417400E8FAE9FB8A828B83780C12176890956DB4
:10418400780C1216E1780C79081215684012124660
:104194009F1218FCE0246AFAA3E03401FB121517FD
:1041A400851882851983124E6250030240947A0066
:1041B4007B01900301E0F91214B774011218FC1288
:1041C40046B3640102467074011218FCE0540460A2
:1041D4001A1214E17A047B00900301E0F91214B777
:1041E40074011218FCE06404024488E05420700353
:1041F4000242B87A207B00900301E0F91214B790D0
:1042040095E5AC18AD1974011217C31212471215B3
:104214003512152912152F121523C2AF7C917D0A70
:104224007A6E798012148175088175090B780812E9
:104234001B33124E7012116374021218C67A0A7B71
:104244000012119F7508BF75090D7808121B337C85
:104254008B7D00900AFB124E7712116374021218C0
:10426400C6A818A919880889097808121B337C0183
:104274007D007AF07B1F12116374021218C678084D
:10428400121B337C017D007AFE7B1F1211637402C2
:104294001218C67808121B337C017D007AFF7B1F3D
:1042A40012116374021218C6D2AFC2AF75C9AB75CE
:1042B400C95B80FEE05410700302448E900B05E04D
:1042C40004F014601814607214606714606C146055
:1042D4007614606E14607014607B0244801212299C
:1042E40012131F1212471215417A007B0290030128
:1042F400E0F91214B77A007B10900301E0F912146C
:10430400B77A007B20900301E0F91214B790955519
:10431400121B467A407B00900301E0F91214AB743F
:10432400041218C67A027B00900301E0F91214B754
:104334008003121247909559801312124D121541A1
:10434400800812124D8003121247909525121B46C5
:104354007A1002447112124D121049900B35E04448
:1043640050F0900E49E0C39410400A740FF0900D81
:10437400BFF012150B900DBFE0C0E075F009A4F872
:10438400A9F074B928F582740D39F583D0E0F09062
:104394000DC0E0C0E01246B874BA28F582740D3935
:1043A400F583D0E0F0900DC1E0C0E01246B874BBD4
:1043B40028F582740D39F583D0E0F0900847E0C009
:1043C400E01246B874BC28F582740D39F583D0E048
:1043D400F0900848E0C0E01246B874BD28F5827435
:1043E4000D39F583D0E0F0900849E0C0E01246B8FA
:1043F40074BE28F582740D39F583D0E0F090084A34
:10440400E0C0E01246B874BF28F582740D39F58314
:10441400D0E0F090084BE0C0E01246B874C028F534
:1044240082740D39F583D0E0F090084CE0C0E012BE
:1044340046B874C128F582740D39F583D0E0F09044
:104444000E49E004F0900DBFF0900B2EE4F07A10CA
:10445400FB900301E0F91214B77A027B0090030188
:10446400E0F91213A3909521121B467A407B009029
:104474000301E0F91214AB74041218C67401121883
:10448400FCE06410FAA3E0024670A3E05410605EFE
:10449400851882851983E4F0FA7B10900301E0F912
:1044A4001214B7900B07E0700B900B1AE070051212
:1044B40012598029900B1AE0640270101214E1ACB6
:1044C40018AD1979017A057B031214CF124E4812E4
:1044D4001517121271900B3CE0F912130D900B1B7F
:1044E400E4F0041218FC1246B3641002467074011E
:1044F4001218FCA3E054407003024618900B38E0F5
:1045040004F0F874011218FCE0FEA3E06440FF74A8
:10451400FC28C39406507C7A027B0B12151DE9F526
:104524000812042BE508C39402502D900B38E0A226
:10453400E04008121247121325800312124D909581
:104544001D121B467A007B40900301E0F91214AB64
:1045540074041218C60246138518828519837401DF
:10456400F0F91212531214E1AC18AD1979017A055D
:104574007B031214CF7A487B0312044F7C487D03DB
:1045840079177A087B031214CF900B38E4F0900B60
:10459400418064E8C39404E85027607312043179BD
:1045A40000120467900B3BE0C0E0900B38E0F87415
:1045B4000128F582E4340BF583D0E0F0909529804E
:1045C40080C3940A40498518828519837401F012C6
:1045D40014E1AC18AD1979017A057B031214CF7A72
:1045E400487B0312044F7C487D0379177A087B03C8
:1045F4001214CF900B38E4F07C03FDF97A027B0BA4
:104604001215177A007B40900301E0F91214B7EEFB
:10461400FAEF805874011218FCA3E054207A006069
:104624004E7B20900301E0F91214B7900B07E07061
:104634000B900B1AE070051212598026900B3FE480
:10464400F0900B1A04F0121271900B3CE0F9121363
:104654000D7A007B10900301E0F91214B7900B1B44
:10466400E4F074011218FC1246B36420FB80027B50
:104674000074071218C67F080219F2F08E828F8325
:10468400A3A3A322F0900B3C7402F0900B0722F03A
:10469400900B3F7401F0900B1AF0228A828B83E412
:1046A400F0A3F0A3F0A3F07C09FD79BB740322E02E
:1046B400FAA3E022900DBF1246BF22E075F009A4D0
:1046C400F8A9F02274F012192074FF1218B0EA85C8
:1046D4001882851983F0900306E070047401800148
:1046E400E4F0900E5AE064016003024DC6909555C3
:1046F400121B467A407B00900301E0F91214AB745C
:10470400041218C6851882851983E0146015146094
:104714001924FE602A24FC601F24F8601424F0602D
:10472400258029900303740A802190030374308048
:104734001A900303740B80139003037433800C905A
:104744000303743280059003037431F07A007B1004
:10475400900301E0F91214B7900B05E06003024DD9
:10476400BB900B38E06003024DBB900303E0601282
:10477400900B07E0700C7A007B20900301E0F912A3
:1047840014B7851882851983E0A2E45019909551D5
:10479400121B467A007B02900301E0F91214AB74F9
:1047A400041218C6800C7A007B02900301E0F9120F
:1047B40014B7900303E07003024E30900306E060E8
:1047C40003024E30900303E0C0E0900B1BE0F8744A
:1047D4000A28F582E4340BF583D0E0F0900B1BE05B
:1047E40004F0900B07E0600302488A909545121B81
:1047F400467A007B10900301E0F91214AB740412A2
:1048040018C6900B1BE064017010900303E0640B66
:10481400604279021211C912125F900B1BE0F890EA
:104824000303E0640B6027E0640A7019900B1BE437
:10483400F079021211C97C0F7D0079FF7A0A7B0B93
:10484400121517802574FF28F9121301801CE8C380
:104854009409500612126B02490E900B1BE4F0FAF5
:104864007B08900301E0F91213A3900B1BE0C3949F
:104874000F5003024913E4F0FA7B08900301E0F9B6
:104884001213A3024913900B3FE0600302491390F3
:104894000B1BE0F874FF28F9900B1AE0602F1460EA
:1048A400751470030249801470030249CA1470031A
:1048B4000249CA147003024A69147003024AE414D8
:1048C4007003024B80147003024D458042121301A1
:1048D400900B1BE0FA74092AF582E4340BF583E0AB
:1048E400640B7003024998EAC3940F400302499889
:1048F400900303E0640A701779021211C97C0F7DDA
:104904000079FF7A0A7B0B121517900B1BE4F090C9
:104914000303E4024DC3900303E06430700E900B74
:104924003C124E6B9408401774028012E06432709B
:104934001D900B3CE014F0C3940250037407F090F4
:104944000B1BE4F0900B3CE0F912130D8011E064B2
:104954000B700C7A007B04900301E0F91213A3900E
:104964000B0AE0640A70A8A3E0640A70A2900B1B0F
:10497400E06403709A900B1A74078092900303E02A
:10498400640B7017900302E064057083900D45E09A
:10499400F91212957A007B0402487FE0640A6003EE
:1049A400024913121271900B3CE0F912130D900B93
:1049B4001A7401F0A3E4F07C0FFD79FF7A0A7B0BF3
:1049C400121517024913900303E0640A701A1212B5
:1049D40071900B3CE0F912130D7C087D0079BB7AD1
:1049E4001C7B0B12151780C6E0640B7060E8C3943F
:1049F40008402D900B23E064BB70991212A7900B12
:104A04001BE4F0750808F5097808121B337C0A7D4D
:104A14000B7A1C7B0B12134F74021218C602491333
:104A2400900B1A7401F01212CB90954D121B467A1A
:104A3400007B20900301E0F91214AB74041218C631
:104A44007C087D0079BB7A1C7B0B02490BE8C3947C
:104A5400094008900B1B7409024912E024D0FA1291
:104A64001307024913900B3D124E7D702EE88518F2
:104A740082851983124E42400302490E900B3D1267
:104A84004E624002E4F0124E8612189D124E3570AA
:104A940044851882851983E00480D9E06432600378
:104AA400024B50E885188285198380088518828511
:104AB4001983E004124E42400302490E900B3DE07C
:104AC40014F0C3940A40037409F0124E8612189D20
:104AD400124E3560D7900B3DE0F91212D702490E01
:104AE400900B3E124E7D7028E8851882851983123A
:104AF4004E42400302490E900B3E124E624002E4C5
:104B0400F0124E91703B851882851983E00480DF92
:104B1400E064327037E88518828519838008851827
:104B240082851983E004124E42400302490E900B21
:104B34003EE014F0C3940A40037409F0124E9160ED
:104B4400DD900B3EE0F91212E902490EE0640B70AD
:104B54000F7A007B04900301E0F91213A302490EBB
:104B6400E0640A600302490E121271900B3CE0F9F2
:104B740012130D900B1A7401F00249017A107B0094
:104B84001214158A088B09AE08AF099095E6AC1883
:104B9400AD1974011217C3900303E0640B600302A0
:104BA4004D18900B0CE0F87433687022A3E0643164
:104BB4006003024D29A3E064326003024D29900B87
:104BC4001BE4F0F91212537A207B0002487F7431FF
:104BD400686003024D29A3E064316003024D29A3F8
:104BE400E064306003024D29790012125312153526
:104BF40012152312152912152FEEFAEFFB12044990
:104C04007508107509007808121B33EEFCEFFD7A65
:104C1400E97B0A12134F74021218C6EEFAEFFB1264
:104C2400141BC2AF1204438A088B09E50824CAFE88
:104C3400E5093402FFC3EE94F1EF941F50E6900AA5
:104C4400F9E508F0A3E509F0120443EA24F4F8E4D2
:104C54003BF9C3E50898E5099940EDC3E5089AE5F1
:104C6400099B5007C3EA9EEB9F40DDC3E894F1E93A
:104C7400941F50D4900AFBEAF0A3EBF07C917D0AD8
:104C84007A6E798012148175088175090B7808127F
:104C94001B33124E7012116374021218C67A0A7B07
:104CA4000012119F7508BF75090D7808121B337C1B
:104CB4008B7D00900AFB124E771211637402121856
:104CC400C6A818A919880889097808121B337C0119
:104CD4007D007AF07B1F12116374021218C67808E3
:104CE400121B337C017D007AFE7B1F121163740258
:104CF4001218C67808121B337C017D007AFF7B1FD3
:104D040012116374021218C6D2AFC2AF75C9AB7563
:104D1400C95B80FEE0640A600C900B1BE0C3940640
:104D24005003024913900B1BE4F0900B1A04F01289
:104D34001271900B3CE0F912130D7C0F7D000249B7
:104D4400BE900AFE124E7D6005E064327018E89051
:104D54000AFE700474018001E4F01212FB900B420D
:104D6400E004F002490EE0640B7028E8900AFD604C
:104D74000474FF8001E4F0900B42E4F0121271908D
:104D84000B3CE0F912130D124E48121517900B1B31
:104D9400E480CFE0640A600302490E900B42E0A273
:104DA400E0500CE8900AFE700474018001E4F09075
:104DB4000B42E4F0024B6C900B1BE4F0900303F005
:104DC400806A900B1BE4F0900303F0900B2EE0C379
:104DD4009406404C1210497A477B081210558A08F1
:104DE4008B098C0A8D0B900B2F780C1217689095F9
:104DF40031780C1216E1780C7908121568402D9060
:104E04000B2E124E59A3F090951D121B467A407B2F
:104E140000900301E0F91214AB74041218C6800C5C
:104E24007A407B00900301E0F91213A37401024657
:104E34007774992508F582740A123400F422F0E09C
:104E4400C3941422900B1A7401F07C0F7D0079FF37
:104E54007A0A7B0B22E4F0A3F0A3F0A3F022124E13
:104E64006B940A22900B2EE004F0C3227C3E7D0258
:104E7400900AF9E0FAA3E0FB22E0F8900303E0646F
:104E84003022E0F50875090074037808221246BF41
:104E9400124E9822748228F582740B39F583E064EB
:104EA400BB2274F712192074F21218B0E9FE1460D0
:104EB40016147003024F81147003024F8124FE7094
:104EC40003024F4A024F8674081219167A047B03B0
:104ED4001214D574081218FC124F9074091218FC9D
:104EE400E0C0E074011218FCD0E0F0740A1218FC5F
:104EF400E0C0E074021218FCD0E0F074041218FC54
:104F0400E4F074031218FCE4F0740D1218FCE0C011
:104F1400E074071218FCD0E0F0740C1218FCE0C026
:104F2400E074061218FCD0E0F0740B1218FCE0C018
:104F3400E074051218FCD0E0F0AC18AD197A0879C9
:104F440000121001803C1214E179001211C97C692D
:104F54007D947A0079001211CF7C777D947A02795E
:104F6400001211CF909551121B467A407B0090039A
:104F740001E0F91214AB74041218C68005900AFFFC
:104F8400E4F0EE900302F0740E022DF3E085188233
:104F9400851983F02274F012192074FE1218B0746B
:104FA400011218FCE9F07A107B001214158A088BA0
:104FB4000974011218FCE0600A24FE7003025564AF
:104FC400025A3D7A6F7B03790012120B750A5F75E2
:104FD4000B03780A121B337C6F7D037A4A7B0E1213
:104FE4000B0F74021218C67C917D0A7A6E798012B6
:104FF400148790035FE014601D1470030251701451
:10500400700302530624FB70030254F424F8700363
:1050140002553E025A3D750A00AE0A8E0C750D000B
:105024007403780C12189D7491250CF50E740A35CE
:105034000DF50F750C06750D00780C121B337C6092
:105044007D03E50E2409FAE4350FFB1215117402F1
:105054001218C6E970030250ED9003047401F09035
:105064000DC004F0EEA3F07A047B00900301E0F994
:105074001214B7900B01E06401702F900B1A7401A5
:10508400F0A3E4F0121271900B3CE0F912130D85B9
:105094001882851983E4F01214E1AC18AD19790172
:1050A4007A057B031214CF025A3D900366E054F054
:1050B40064307023850E82850F83A3A3A3A3A3A3C7
:1050C400A3A374FFF07C077D007900E50E2409FAA0
:1050D400E4350FFB1215177A107B00900301E0F9F9
:1050E4001213A39003050253A6EEC3940940239020
:1050F4000B01E06401701B750C07780C121B337CE8
:10510400607D037A257B0B12134F74021218C612AA
:105114001289EE75F006A4FEAFF074432EFE740BF4
:105124003FFF750C06780C121B337C607D03EEFA8E
:10513400EFFB12151174021218C6E960208508826B
:1051440085098374CCF0A3125A69125A5F121205AE
:105154007C067D007900EEFAEFFB121517050AE5CF
:105164000AC3940A4003025A3D02501D7A107B0080
:105174001214157A107B001214157A107B00121485
:1051840015900B36E014601514601E24FE6026246E
:10519400FC602E24F8603624F0603E8047900EC1F7
:1051A4007441125AB4D2E0803A900EC17442125A39
:1051B400B4D2E1802E900EC17443125AB4D2E2806C
:1051C40022900EC17444125AB4D2E38016900EC1D8
:1051D4007445125AB4D2E4800A900EC17446125A2D
:1051E400B4D2E5F0900B35E090037FF0900B2CE007
:1051F400900EA3125ACD6003025A3D750A03750B33
:1052040000780A121B337C607D037AA17B0E121591
:105214001174021218C6E970030252A7900B2CE411
:10522400F07E0090037FE0A2E05065EE601414600D
:105234001814601C14602014602414602814602C5A
:10524400804E900EB17441802D900EB17442802630
:10525400900EB17443801F900EB174448018900E68
:10526400B174458011900EB17446800A900EB174E9
:1052740047F0900B24E4125A567AB17B0E1204853F
:10528400E9900B2CF07CB17D0E7A10790112120595
:1052940090037FE0C313F00EEEC394074003025A59
:1052A4003D8080900B36E0F87003025A3D900B2C41
:1052B400E4F0E814601114601524FE601824F4600E
:1052C4001B24F0601E8022900EC17441801A900E3F
:1052D400C174428013900EC17443800C900EC1744B
:1052E400458005900EC17446F07CC17D0E7A10791C
:1052F400011212057C03900B2CE0F97AC17B0E029B
:1053040054EA750A02750B00780A121B337C607D1F
:10531400037AA17B0E12151174021218C6E97003E8
:10532400025A3D900AFFE064016003025A3D900373
:1053340062E0F8A3E024BF602414607314700302D5
:1053440053F0147003025432147003025432147074
:10535400030254731470030254B9025A3D900B2C87
:10536400E0687043E4F07E017C08900B2CE0F97A4D
:10537400A17B0A120485E9900B2CF08E0A750B00B0
:105384007403780A12189D7499250AFC740A350B63
:10539400FD7A1079011212050EEEC3940A40C990E9
:1053A4000B367401025A3C125A5074410254D39081
:1053B4000B2CE068702E900B35E0C2E1F0900B2CC2
:1053C400E4F07C08F97A917B0A120485E9900B2CAD
:1053D400F07C917D0A7A107901121205900B3674D3
:1053E40002025A3C125A5074420254D3900B2CE0DD
:1053F400687033900B35E0C2E0125A8BEE75F009F9
:10540400A4F8A9F0748228F50A740B125ADE120467
:1054140085125ABA1212050EEEC3940A40DE900B9E
:10542400367404025A3C125A5074430254D3900BFB
:105434002CE0687033900B35E0C2E3125A8BEE75A2
:10544400F009A4F8A9F074C228F50A740D125ADE02
:10545400120485125ABA1212050EEEC3941440DED9
:10546400900B367410025A3C125A50744580609066
:105474000B2CE0687038900B35E0C2E4125A8BEEC6
:1054840075F009A4F8A9F074DD28F50A740B39F550
:105494000B7C07125AE3120485125ABA1212050E33
:1054A400EEC3940A40D9900B367420025A3C125A27
:1054B400507446801A900B2CE068700EE4F0900B48
:1054C40035F0A3F012152F025A3D125A507447F0CA
:1054D4007CD17D0E7A1079011212057C03900B2C7D
:1054E400E0F97AD17B0E120485E9900B2C025A3C28
:1054F400121049900360E0900847F0900361E09037
:105504000848F0900362E0900849F0900363E0904B
:10551400084AF0900364E090084BF0900365E09033
:10552400084CF01210438508828509837416F0A391
:10553400744B125A69744F025A2AA3E0644F6003F1
:10554400025A3DA3E064506003025A3D900B067476
:1055540002F0FA7B00900301E0F91213A3025A3D12
:10556400121049900B2DE4F07A6F7B03790212122A
:105574000B750A5F750B03780A121B337C6F7D036E
:105584007A4A7B0E120B0F74021218C6900360E065
:10559400FF8F0A750B00A3E0FE90035FE0146034F4
:1055A40014700302568C1470030256EE24FE70032A
:1055B40002576C1470030257B714700302580F1487
:1055C400700302594C147003025A32147003025AC5
:1055D40038025A3D7403780A12189D7491250AF50D
:1055E4000A740A350BF50B900B2DE0F97C08E50ADB
:1055F4002CFAE4350BFB120485125AC8707FEE684E
:10560400707B900B377401F0750C06750D00780CE7
:10561400121B33E50A2409FCE4350B125AED12136C
:105624004F74021218C6900B7F124E6B94094002FD
:10563400E4F07C087D007900900360E0F50A890BB2
:105644007403780A12189D7499250AFA740A350BA2
:10565400FB121517900360E0F50A750B00740378CC
:105664000A12189D7499125A4B740A350BF58374F7
:10567400FFF0850882850983740302574F850882E9
:105684008509837450025A26900B2DE0F97C087A20
:10569400917B0A120485125AC87044EF68704090D6
:1056A4000B377401F07C087D0079007A917B0A1233
:1056B4001517750A08780A121B337CE17D0E7A915E
:1056C4007B0A12134F74021218C685088285098357
:1056D4007404F0900B2DE0850882850983807A8517
:1056E40008828509837451025A26EF75F009A4F5DE
:1056F4000AE5F0F50B7481250AF50C740B350BF5EE
:105704000D850C82F583A385820A85830B900B2D6E
:10571400E0F97C09AA0AAB0B120485125AC8703D41
:10572400EE687039900B377402F0850A82850B831A
:10573400E4F07C09FD79BBE50C2402FAE4350DFBA9
:105744001215178508828509837405F09003601289
:105754005AD5F0900B2D125AD5A3025A2A850882E5
:105764008509837452025A26900B2DE0F97C087A3D
:10577400607B03120485125AC8702D900368E06898
:105784007026900B377401125A9C121B337C607D77
:10579400037A917B0A12134F74021218C685088289
:1057A4008509837407025A1885088285098374540D
:1057B400025A26900B2DE0F97C097A607B031204CF
:1057C40085125AC8703A900369E0687033900B37B9
:1057D4007402F0750A09780A121B337C607D039009
:1057E40003601246BB748228FA740B39FB12134F00
:1057F40074021218C68508828509837408025A182F
:105804008508828509837455025A26900B2DE0F988
:105814007C0A7A607B03120485125AC86003025919
:105824004190036AE0686003025941900361E0FC1F
:1058340075F009A4F8A9F0748128FA740B39FB9067
:105844000360E024CF600F14603514606C1470039F
:105854000258F6025A3D900B377402F0EA245CF5C4
:1058640082E43B125A99121B337C627D03EA245D65
:10587400FA50010B12134F74021218C602593690D3
:105884000B377402F0EA24B6F582E43B125A9912FB
:105894001B337C627D03EA24B7FA50010B12134FC9
:1058A40074021218C67A477B08121055125B131241
:1058B400189D125A49740D8070900B377402F0EAE7
:1058C4002410125A94121B337C627D03EA2411FAC9
:1058D400EB3401FB12134F74021218C67A477B088B
:1058E400121055125B1312189D746F125A4B740DDB
:1058F4008037900B377402F0EA246A125A94121B10
:10590400337C627D03EA246BFAEB3401FB12134F00
:1059140074021218C67A477B08121055125B1312D0
:10592400189D7497125A4B740D350BF583780C122D
:1059340017778508828509837409025A18850882B5
:105944008509837456025A26900AFFE064016003B5
:10595400025A3DEE75F009A4F8A9F0748128F87490
:105964000B39F9EF24CF600C1460321460531460C7
:1059740073025A3DE8245CFEE439125B0612048586
:10598400125A7F6003025A1E900B377402F07C1087
:105994007D0079BBEEFAEFFB121517806FE824B691
:1059A400FEE439125B06120485125A7F706C125A97
:1059B400A3121517125B1B12189D125A49740D80FD
:1059C40044E82410125B02120485125A7F704B12B1
:1059D4005AA3121517125B1B12189D746F125A4B9F
:1059E400740D8021E8246A125B02120485125A7F26
:1059F4007028125AA3121517125B1B12189D749764
:105A0400125A4B740D350BF583124E598508828555
:105A14000983740AF0A3744B800C8508828509837A
:105A24007457F0A374FF125A5F121205800BEF90A3
:105A34000B338004EF900B34F0AA08AB0912141B4B
:105A440074020246777447250AF58222E4F0900E28
:105A5400D122F07C03900B2CE0F922F0AC08AD09C4
:105A64007A10790122125A6D22125A72A322125A02
:105A74007622F0850882850983A322E9F8900B2D0C
:105A8400F0900362E06822F0900B2CE4F07E002298
:105A9400F582EB3401F583ECF0750A08780A22905C
:105AA4000B377402F07C097D0079BBEEFAEFFB2220
:105AB400F0900B35E022E9900B2CF0AC0AAD0B7A98
:105AC40010790122E9F8900B2DF0900AFFE06401AF
:105AD40022E0850882850983A32239F50B7C09908D
:105AE4000B2CE0F9AA0AAB0B22FD900B7FE075F0BA
:105AF40006A4F8A9F0744328FA740B39FB22FEE9D2
:105B04003401FF900B2DE0F97C09EEFAEFFB228AB9
:105B14000C8B0D8C0E8D0F900361E0F50A740278E6
:105B24000A2274F71219207D00800BEFF9E8C313E1
:105B3400F81EEE70140DEDC39C5025EDFEEA2EF513
