:020000040000FA
:0600000002011A021D734B
:03002B000222B0FE
:03004B000222D9B5
:03005300021DE6A5
:03007B00022287D7
:10008300021C27E5C754F84401F5C7790122000093
:100093000080FB120086B90003020104E4791B7897
:1000A30002B800028004F709D8FCE4791D7802B88D
:1000B30000028004F709D8FCE4900281782D790EC0
:1000C3008002F0A3D8FCD9FA781A90014A7A01BACF
:1000D30000028007E493A3F608DAF97AAD7B0F9068
:1000E300014B781179028015E493A3AD82AE838A24
:1000F300828B83F0A3AA82AB838D828E83D8E9D9C6
:10010300E775826D7583BC740312012C758291753A
:100113008300740012012C75D00075817F751881DE
:10012300751902759F00020096C09FF59FE473D076
:100133009F22D083D082C09FE493C0E0740193C018
:10014300E0740293F59F2201D503E7031104DB0357
:10015300FF0000B4000028002800283075A000A08C
:1001630000A000A00000080008E001F0001000104B
:10017300001000100010001000500050005000103C
:10018300001000D0070000000000000F0001000570
:1001930000307507001000010081FF0000FF02021C
:1001A30002F481010000E18102EC810100000310EF
:1001B30002EE81010000B10202EC81010000041093
:1001C30002E481010000C702FFFF0100FF2002F4E7
:1001D30081010000DE8102EC81010000321002E6A1
:1001E30081000000000002EA81030000A4034F0B1A
:1001F3004F0B4F0B4F0B4F0B4F0B4F0B4F0B4F0B2C
:100203004F0B4F0B4F0B4F0B2F0D4D0D290D01E8CE
:1002130003053F1002FFFFFF0001504953434553BD
:100223002D425431303047656D696E692D4241313D
:10023300303001030507FFFE7788129932411424F9
:100243002536FEFF0000014F4BCCCCCC0100000053
:100253006D4EC64139300000120135CCB403120192
:1002630035E2B4031201350FB5031201353FB5036F
:1002730012013560B50312013591B503120135E260
:10028300B503120135F9B503120135A7B103120104
:1002930035BEB103120135EDB10312013526B203A8
:1002A3001201354EB2031201357CB20312013593AC
:1002B300B203120135AAB203120135C0B20312010F
:1002C30035E7B203120135FAB20312013510B30355
:1002D30012013538B30312013593B7021201359277
:1002E300B802120135BCB80212013511B90212016C
:1002F3003532B9021201354BB9021201354DB9023B
:100303001201356EB90212013571BA021201352E8E
:10031300BB02120135FBBB021201355FBC021201A5
:1003230035F6BC02120135F9BC021201357FBD025C
:10033300120135C2BD0212013514BE021201354B42
:10034300BE02120135D1BE021201355ABF0212019B
:1003530035A3BF02120135B0BF02120135B3BF028C
:1003630012013511C00212013529C002120135A351
:10037300C002120135A6C002120135C9C002120122
:1003830035CCC00212013573C10212013596C10288
:10039300120135AEC102120135DEC102120135EB85
:1003A300C102120135EEC1021201355AC202120115
:1003B3003548C302120135FEC30212013569C40276
:1003C30012013544C50212013572C502120135F21C
:1003D300C50212013512C60212013550C6021201BE
:1003E30035A3C6021201350BC7021201359CC702A1
:1003F30012013567C80212013576CB02120135E2CC
:10040300CC0212013505CD02120135729D03120192
:1004130035039F03120135549F03120135B39F0324
:10042300120135C19F03120135EA9F03120135D230
:10043300F902120135FAF90212013528FA02120102
:10044300355FFA02120135C7FA0212013510FB02B9
:100453001201355BFB0212013599FB02120135D6FD
:10046300FB0212013504FC02120135ABFC0212013E
:1004730035B5FC02120135C2FC02120135F5FC024E
:10048300120135B7FD02120135C3FD02120135DB3E
:10049300FD02120135E5FD0212013563FE02120170
:1004A3003509BA0312013517BA031201352FBA03FE
:1004B30012013547BA031201355FBA031201354CF5
:1004C3008E02120135EA8E02120135628F02120189
:1004D30035779002120135B190021201355A91021B
:1004E3001201352F9202120135939302120135EA5C
:1004F30093021201357194021201355895021201CB
:1005030035A595021201353396021201355796022D
:100513001201352C98021201356D98021201358FA4
:1005230098021201355499021201351A9A021201E6
:10053300354F9C021201350496031201351A9603B6
:100543001201354096031201356897031201357283
:100553009703120135CB9803120135CB990312018E
:1005630035478903120135E989031201351C8A03D2
:10057300120135668A03120135208C0312013507F7
:10058300AB0112013585AB0112013595AB011201A7
:100593003578AC01120135A6AC01120135B1AC01BD
:1005A3001201359BAD0112013537AE011201353B06
:1005B300B001120135F2B1011201356EB20112011F
:1005C300354BB30112013579B60112013517B70165
:1005D30012013574B801120135E7B90112013590E2
:1005E300BA01120135D9BA0112013510BB0112014A
:1005F30035B5BB0112013533BC01120135A1DB0155
:10060300120135F6DB011201353BDD011201354BD9
:10061300DD011201356EDD01120135B9DD01120173
:10062300355EDE0112013554DF011201351EE00192
:1006330012013596E101120135D8E1011201357637
:10064300E2011201359CE2011201358AE401120133
:10065300358FE40112013570E601120135C4E6015C
:1006630012013526E7011201354EE701120135F279
:10067300E701120135B4E801120135E5E801120181
:1006830035E8E80112013530E90112013572E9015B
:10069300120135D9E9011201356CA7031201357F27
:1006A300A70312013588A703120135A1A70312017D
:1006B30035ECA703120135C7A80312013556A90368
:1006C300120135A1A903120135E65C00120135F6CA
:1006D3005C00120135595D001201359E5D00120167
:1006E300354E5E00120135275F00120135505F0061
:1006F300120135805F0012013594610012013570DB
:10070300630012013550650012013588660012013D
:1007130035016900120135ED6900120135336B00B3
:10072300120135406C00120135826C00120135BA9A
:100733006C00120135D46C001201353C6D001201BE
:1007430035D67100120135777200120135CB720074
:10075300120135F272001201353073001201354F68
:100763007300120135A37300120135AB740012013B
:10077300353475001201354CE90212013556E90290
:10078300120135F2E902120135BDEA02120135DC2C
:10079300EA0212013502EB0212013541EB021201AA
:1007A3003579EB02120135A2EB02120135DCEB02C3
:1007B300120135F1EB02120135BEEC02120135E1F3
:1007C300EC0212013503ED0212013518ED0212019C
:1007D30035A2ED02120135DCED0212013550EE02B5
:1007E30012013599EE02120135C3EE02120135E80A
:1007F300EE02120135189203120135E2920312013F
:1008030035C593031201353B94031201357D9403DF
:10081300120135AA95031201355E9C021201358738
:100823009C02120135A09C02120135E59D021201C2
:1008330035C39E02120135E29E021201356F9F02FB
:10084300120135B29F02120135EAA0021201355698
:10085300A1021201354CA302120135DAA5021201DD
:10086300356DA60212013541A702120135E4A70234
:10087300120135F7A8021201358DA90212013510B4
:10088300B60312013579B603120135CDB603120151
:1008930035FCB603120135C38D03120135308E03C7
:1008A3001201357B8E03120135708F031201356CF3
:1008B300900312013556910312013521F9011201FA
:1008C3003568F90112013541FA011201353CFB018A
:1008D3001201351BFC0112013587FC01120135A3FE
:1008E300FD011201350AFE011201350DFE0112014F
:1008F3003538FE01120135A9FE011201354CFF0105
:1009030012013561FF01120135A9FF01120135C240
:10091300FF01120135C5FF0112013502A1031201C6
:10092300353EA1031201357CA10312013546A20312
:10093300120135B9A203120135F4A20312013532B3
:10094300A30312013562A30312013589A303120124
:1009530035F4A30312013536A403120135FB8101DB
:10096300120135198401120135C885011201357848
:100973008601120135C386011201350E870112016A
:1009830035208701120135608701120135958701F2
:10099300120135E187011201351088011201353347
:1009A3008801120135BA8801120135A689011201A5
:1009B30035E48A01120135E68B01120135C28D013E
:1009C300120135E692011201352C93011201356AA9
:1009D30093011201359F9501120135B89701120158
:1009E30035F8AD0312013598AF031201350023002A
:1009F300120135972300120135C423001201350A71
:100A03002400120135402500120135D726001201BA
:100A1300354F2700120135912700120135E12700D8
:100A23001201354C2900120135B72B001201359301
:100A33002C00120135B22C00120135D12C00120109
:100A430035D42C001201355A2E001201354F2F00D8
:100A53001201354B3000120135BB30001201352D28
:100A63003100120135AC3100120135873200120119
:100A7300358E33001201356D3400120135F8340020
:100A8300120135663500120135DA350012013503DE
:100A93003600120135C23600120135D13900120178
:100AA300351A3A001201355D3A00120135E03A0079
:100AB300120135843B00120135153C001201353A11
:100AC3003C00120135843C00120135AE3C0012019A
:100AD30035F33C001201356E3D00120135C83D006F
:100AE3001201351C3F00120135D93F00120135AC0C
:100AF30040001201350080021201355080021201BC
:100B0300355C800212013539810212013569810297
:100B1300120135A181021201351B82021201359D9A
:100B23008202120135D58202120135278302120196
:100B330035648302120135898502120135B58702B6
:100B4300120135B089021201358B8B02120135F582
:100B5300220012013587E302120135B9E7021201BF
:100B63003509E902120135E7BC01120135B9C301A8
:100B7300120135BFC3011201356FC601120135954C
:100B8300F40212013541F5021201350FF60212018A
:100B93003539F60212013587F802120135DA4000C1
:100BA300120135244100120135D64D00120135578B
:100BB3004F001201354F5000120135AE560012019D
:100BC30035A95700120135E65700120135095800BF
:100BD3001201354B580012013555580012013541A9
:100BE3005900120135355A00120135CE5A0012014F
:100BF30035D599031201356B9A03120135819A0396
:100C0300120135FB9A03120135519B031201358FF3
:100C13009B03120135EC9B03120135699C031201FE
:100C230035729C031201357E9C03120135919C039E
:100C3300120135CD9C03120135E39C0312013542A9
:100C43009D031201353FDD021201354CDD02120115
:100C53003566DD02120135A5DD02120135E3DD0241
:100C630012013548DE021201355DDE0212013574D0
:100C7300DE0212013582DE0212013591DE0212011B
:100C830035A6DE02120135BBDE02120135C6DE02D5
:100C9300120135D2DE02120135DFDE02120135EE1A
:100CA300DE02120135F9DE021201351EDF021201E6
:100CB30035C7DF02120135DCDF02120135F1DF0235
:100CC3001201350BE00212013526E0021201354311
:100CD300E0021201354EE0021201350AE10212016F
:100CE30035F6E1021201351BE20212013525E2025B
:100CF30012013539E20212013558E202120135B907
:100D0300E202120135BFE202120135C5E20212010D
:100D130035CBE202120135D7E2021201350AE302B2
:100D23001201359B7500120135C77500120135ABF1
:100D330076001201354579001201355B7A00120104
:100D430035787B001201351B7C00120135C17C0014
:100D530012013509AA021201358BAA021201353498
:100D6300AB021201357CAC021201358AAE021201CC
:100D73003570AF02120135A5AF02120135C7AF02BC
:100D830012013570B00212013540B2021201356909
:100D9300B202120135E1B20212013513B30212019C
:100DA3003520B3021201356BB3021201358FB30242
:100DB300120135E0B502120135EAB60212013546D9
:100DC300B702120135A3EA01120135B4EB01120196
:100DD3003598EC01120135A2EC01120135C4EC0186
:100DE300120135D0EC0112013574EE01120135A167
:100DF300EE01120135B7EF011201350CF0011201BA
:100E0300355BF10112013530F2011201358CF2012B
:100E1300120135F7F2011201352CF3011201356F7E
:100E2300F30112013539F60112013551F6011201B0
:100E330035E2F601120135F0F6011201353DF701F5
:100E43001201354BF701120135B7F70112013532A3
:100E5300F80112013589F801120135EEAF031201D1
:100E63003513B00312013589B00312013550D60290
:100E730012013559D60212013562D6021201353AF2
:100E8300D702120135EBD8021201351BD902120128
:100E93003546D90212013576D902120135A1D9029C
:100EA300120135D5D90212013501DA021201354496
:100EB300DA021201356FDA02120135B6DA021201D3
:100EC300350BDB021201354DDB02120135A7DB02C4
:100ED300120135D2DB0212013521DC021201355138
:100EE300DC021201357CDC021201359FDC021201A7
:100EF30035EDBC0312013519BD0312013546BD039F
:100F030012013550BD0312013560BD0312013500D6
:100F130080031201353F8003120135C8800312019B
:100F230035DB800312013526810312013565810308
:100F3300120135748103120135CD81031201351C71
:100F430082031201356C820312013560830312019F
:100F530035558403120135928403120135C9BD034B
:100F6300120135ED9701120135E499011201357330
:100F73009B01120135659C01120135EC9C011201A4
:100F830035669D01120135979D0112013550A1016E
:100F9300120135CCA101120135B8A201120135F0BD
:100FA300A20112013533A3011201356AA401120112
:100FB300359BA401120135F0A40112013527A501C7
:100FC30012013599A501120135BFA501120135D9C9
:100FD300A501120135CBA601120135DBA6011201D1
:100FE3003570A80112013593A801120135C5A80176
:100FF30012013551AA01120135C8AA011201355354
:10100300BF0312013526BE0312013565BE0312016B
:101013003564BF03120135F8BA0312013508BB0367
:101023001201351ABB03120135CCBB03120135F48F
:10103300FE0212013578FF02120135DEFF021201B2
:10104300351DB70312013539B70312013592B703C2
:101053001201359DB703120135E7B70312013512AB
:10106300B80312013515B803120135E9FF01120166
:1010730035F9FF01120135FCFF01120135F87F003C
:10108300120135CBA9031201354CAB03120135AD67
:10109300AB03120135F3AB0312013541BF03120158
:1010A300354CBF0312013551BF0312013518B90383
:1010B30012013541B9031201356AB90312013582B0
:1010C300B903120135C4B90312013510EF0212013D
:1010D300351AEF021201355AEF02120135A3EF025E
:1010E300120135DDEF0212013537F00212013556D8
:1010F300F0021201355FF002120135B0F002120165
:1011030035D9F002120135E3F0021201354FF10235
:10111300120135DDF10212013536F2021201356496
:10112300F202120135E4F20212013527F302120131
:101133003562F30212013574F30212013593F3029F
:101143001201359CF30212013569F4021201354A8A
:10115300B3031201359DB30312013509B403120120
:101163003571B4031201357EA403120135A8A4031B
:101173001201357DA50312013571A603120135F461
:10118300A6031201351EB803120135F6AB03120193
:10119300352CAC0312013565AC03120135BEAD032A
:1011A300120135D2BB03120135E8BB03120135F23C
:1011B300BB031201353CBC031201356ABD031201A6
:1011C300353DCE02120135FACE0212013535CF027A
:1011D3001201355DCF02120135BFCF021201350B6B
:1011E300D0021201356FD002120135E9D00212018B
:1011F30035EBD1021201359ED30212013520D40200
:1012030012013585D4021201359CD402120135A591
:10121300D502120135E3D502120135CA8403120146
:1012230035E38403120135848503120135C4850334
:10123300120135DD85031201351086031201355D78
:101243008603120135918603120135D386031201F9
:1012530035DD8803120135B6BE03120135C1BE0365
:10126300120135E8BE0312013579CC01120135C5EF
:10127300CC011201355ACD01120135B9CD0112014C
:1012830035D8CE0112013591D2011201352DD50188
:10129300120135B0D80112013586DA011201352663
:1012A300DB01120135F7FF02120135FDBE03120106
:1012B300356FBE0312013529BF03120135D27F00FA
:1012C300E066701008A3E066700A08A3E066700485
:1012D30008A3E06622C3E7960809E7960809E7969C
:1012E3000809E79622C3E09608A3E09608A3E096D0
:1012F30008A3E09622C008C3E096F50808A3E09689
:10130300420808A3E096420808A3E0964508700146
:10131300D3D00822080808EAC0E0EBC0E086F0E773
:10132300A4FA180986F0E7A42AFA180986F0E7A4B4
:101333002AFA180986F0E7A42AFA1986F0E7A4FB2B
:10134300E5F02AFA190886F0E7A42BFBE5F03AFA50
:10135300190886F0E7A42BFBE5F03AFA181809867A
:10136300F0E7A4C5F02BFBE43AFA1908E7C5F0C689
:10137300A426F6E5F03BFBE43AFA1886F0E7A4F678
:10138300E5F00826F6E43B08F6E43A08F6D0E0FB7D
:10139300D0E0FA22E4CFC0E0E4CEC0E0E4CDC0E088
:1013A300E4CCC0E075F020E626F608E633F608E65E
:1013B30033F608E633F6181818EC33FCED33FDEE7C
:1013C30033FEEF33FFC3EC9709ED9709EE9709EF6F
:1013D30097191919400FFFEC97FC09ED97FD09EEDA
:1013E30097FE191906D5F0BFECF709EDF709EEF7EB
:1013F30009EFF7191919D0E0FCD0E0FDD0E0FED0D9
:10140300E0FF226016080808C6C313C618C613C631
:1014130018C613C618C613C6D5E0EA227009080811
:1014230008226016181818C6C333C608C633C60880
:10143300C633C608C633C6D5E0EA22E627F608094E
:10144300E637F60809E637F60809E637F622E02616
:10145300F608A3E036F608A3E036F608A3E036F66E
:1014630022E026F008A3E036F008A3E036F008A354
:10147300E036F022C3E697F60809E697F60809E690
:1014830097F60809E697F622C3E096F008A3E096DC
:10149300F008A3E096F008A3E096F022E657F608DA
:1014A30009E657F60809E657F60809E657F622E073
:1014B30056F608A3E056F608A3E056F608A3E0564E
:1014C300F622E056F008A3E056F008A3E056F00831
:1014D300A3E056F022E066F608A3E066F608A3E070
:1014E30066F608A3E066F622E0F608A3E0F608A392
:1014F300E0F608A3E0F622E6F008A3E6F008A3E688
:10150300F008A3E6F022E0FAA3E0FBA3E0FCA3E0EB
:10151300FD22EAF0A3EBF0A3ECF0A3EDF022E0F858
:10152300A3E0F9A3E0FAA3E0FB22E8F0A3E9F0A328
:10153300EAF0A3EBF022CAC0E0E6F0A308DAFAD09F
:10154300E0FA22CAC0E0E0A3C582CCC582C583CD40
:10155300C583F0A3C582CCC582C583CDC583DAE636
:10156300D0E0CA22C3E498F8E499F91215A88026BA
:10157300C3E49AFAE49BFBE920E7E91215A8E4988F
:10158300F8E499F922C3E498F8E499F91215A8E468
:1015930098F8E499F9C3E49AFAE49BFB22EB20E779
:1015A300CFE920E7E0B90010BB0008E88AF084F82F
:1015B300AAF022E4FBC8FA22EB70227B10C833C8DE
:1015C300C933C9335007C39AC3DBF280069A50016B
:1015D3002ADBEAC833F4C8C933F4C9FA2275F00820
:1015E300E4C833C8C933C933C99AC99B5004C92A4B
:1015F300C93BD5F0ECFBC833F4C8E4C9FA22600D4B
:1016030008C6A2E713C618C613C6D5E0F322600CBA
:1016130008C6C313C618C613C6D5E0F42270042245
:10162300600D18C6C333C608C633C6D5E0F4182206
:10163300251810AF08F518400C15198008F5184047
:10164300021519D2AF2200C0D0251810AF08F51823
:10165300500C05198008F51850020519D2AFD0D0E7
:10166300222518F58210AF08F518400C15198008CB
:10167300F51840021519D2AF851983222518F58272
:10168300E43519F583222518F8E43519F9222518CC
:10169300FAE43519FB222518FCE43519FD22E4731D
:1016A3002518C582C0E0E51934FFC583C0E0E518FD
:1016B300C3958224F810AF088583198582188008A2
:1016C300858319858218D2AFCEF0A3E520F0A378E5
:1016D30008E608F0A3DEFAEFF0A3E58124FAF8E6C2
:1016E30008F0A3E608F0A3E608F0A30808E608F06C
:1016F300A3E608F0A315811581D0E0FED0E0F8152C
:101703008115811581E8C0E0EEC0E0222518C5826D
:10171300C0E0E51934FFC583C0E0E518C395822412
:10172300F910AF0885831985821880088583198588
:101733008218D2AFCEF0A3E520F0A37808E608F034
:10174300A3DEFAEFF0A3E58124FBF8E608F0A3E6B5
:1017530008F0A30808E608F0A3E608F0A31581152E
:1017630081D0E0FED0E0F815811581E8C0E0EEC03D
:10177300E022851983851882E0A3FEE0A3F5207893
:1017830008E0A3F608DFFAE0A3FFE0A3C0E0E0A3CC
:10179300C0E0E0A3C0E0E0A3C0E0E0A3C0E010AF7E
:1017A300088582188583198008858218858319D254
:1017B300AFD083D082020132851983851882E0A3DA
:1017C300FEE0A3F5207808E0A3F608DFFAE0A3FF24
:1017D300E0A3C0E0E0A3C0E0E0A3C0E0E0A3C0E07A
:1017E30010AF088582188583198008858218858340
:1017F30019D2AFD083D08222C0D02518C582C0E0D1
:10180300E51934FFC583C0E0E518C3958224F310BE
:10181300AF08858319858218800885831985821806
:10182300D2AFC8F0A3E9F0A3EAF0A3EBF0A37908E1
:10183300E709F0A3D8FAECF0A3EDF0A3EEF0A3EFE1
:10184300F0A3D0E0F0A3D0E0F0A3D0E0F0A3E52034
:10185300F0A3E5F0F0A322851983851882E0C0E0A8
:10186300A3E0F9A3E0FAA3E0FBA37808E0F608A35A
:10187300DFFAE0FCA3E0FDA3E0FEA3E0FFA3E0C0EA
:10188300E0A3E0C0E0A3E0F5D0A3E0F520A3E0A34C
:10189300F5F010AF088583198582188008858319B0
:1018A300858218D2AFD082D083D0E0F8D0E03274F2
:1018B300048006740280027401C0E0F4041216640A
:1018C300D0E0121539227404800474028000CCC065
:1018D300E0EDC0E0E518C39CCCAD1950011D10AF7D
:1018E300068C188D1980068C188D19D2AF121546E7
:1018F300D0E0FDD0E0FC22D083D082E9C0E0E493C5
:10190300A3C386F0C5F095F0F908E493A386F0C568
:10191300F095F0700BE493A3C3994005E9048002AA
:10192300A3E475F002A42582F582E5F03583F583FF
:10193300D0E0F9E493A3C0E0E493C0E022D083D0E5
:1019430082ECC0E0EDC0E0E493A3FCE493A3FDEDDF
:101953004C600D12198CEC24FFFCED34FFFD80EF7D
:10196300E493A3FCE493A3FDED4C600D1219CBECBF
:1019730024FFFCED34FFFD80EFD0E0FDD0E0FCE47C
:1019830093A3C0E0E493C0E022C0E0C3E4939608CD
:101993007401939618400FE49366700808740193DA
:1019A300661870007019A3A3C3E493960874019397
:1019B3009618A3A3400DD0E0D0E0D0E002197CA399
:1019C300A3A3A3A3A3D0E022C0E0C0F088F0E493D4
:1019D3006670080874019366187000A8F0A3A370DA
:1019E3000BD0F0D0E0D0E0D0E002197CA3A3D0F07C
:0319F300D0E0221F
:1019F80074F512170FEAFEEBFFEE2434F8EF34000B
:101A0800F988088909EE2435F582EF3400F583E07A
:101A1800F8EE2437F582EF3400F583E0F50AEC851B
:101A28000AF0A4FCAAF0850AF0EDA42AFDE82CF837
:101A3800E43DF97A257B001215A8EA850882850914
:101A480083F05407F87401B800028004C333D8FC4B
:101A5800C0E0E0131313541FF8EE28F8EF3400F930
:101A6800E8245DF582E93400F583D0E0F8E05860B9
:101A780008EE2434F582EF801EEE2436F582EF342A
:101A880000F583E0F5F0EA84A8F0EE28F8EF3400DA
:101A9800F9E82438F582E93400F583E0F97F040297
:101AA80017BB74F512170FEAFEEBFFEE2434F5822C
:101AB800EF3400F583E0C0E0EE2435F582EF340022
:101AC800F583D0E0F08E828F83A3A3A3A3A3A3A35F
:101AD800C082C0838E828F83A3A3A3A3A3E0F8A3AD
:101AE800E0F9D083D082E0C398F508A3E099F5091E
:101AF800EE2480F582EF3400F583E064017069EE2E
:101B08002481F582EF3400F583E0F8A3E0F98E82B2
:101B18008F83A3A3A3A3A3A3A3E0FCA3E0FD8E82CA
:101B28008F83A3A3A3A3A3E0FAA3E0FBC3EA9CEBE0
:101B38009D5027C3EC98ED99402EC3EA98EB995035
:101B4800277CE27D07EEFAEFFB120A8FEE2480F580
:101B580082EF3400F583E4F0800EC3EA98EB9940F5
:101B6800E0C3EC98ED9950D9EE2434F8EF3400F93D
:101B7800E8FCE9FDEE2435F582EF3400F583E0F862
:101B8800EE2437F582EF3400F583E0F50AE50885A1
:101B98000AF0A4F508AAF0850AF0E509A42AF509CF
:101BA800E82508F8E43509F97A257B001215A8EA32
:101BB8008C828D83F05407F87401B800028004C346
:101BC80033D8FCC0E0E0131313541FF8EE28F8EFE5
:101BD8003400F9E8245DF582E93400F583D0E0F8B3
:101BE800E0586008EE2434F582EF801EEE2436F5C6
:101BF80082EF3400F583E0F5F0EA84A8F0EE28F8E7
:101C0800EF3400F9E82438F582E93400F583E0F987
:101C1800122279021AA50000851B87851CC622C0DE
:101C2800E0C0D0E8C0E0E9C0E0EAC0E0EBC0E0EC2A
:101C3800C0E0EDC0E0C008C009C00AC00BC082C047
:101C480083C0F0759B00906182E0A2E64003021D0C
:101C580005E591A2E64003021D057591BF90049920
:101C6800E064057008120C1B120C278003120C216B
:101C7800751B00120C87E990049AF07900120C6920
:101C88001209FF7A017B00900498E0F9121125905F
:101C98007803E064426003021D4E900817E014F0D8
:101CA8006003021D4EC2AF121CB200781ED0E0F6CF
:101CB80018D0E0F6E59F5407F9700590813E80033F
:101CC80090814278081214EBE9C4C0E0781DE6550B
:101CD80008F50808E65509F509740B780812161175
:101CE800D0E02508F8906270E0A2E740F8E8C33336
:101CF800906272F0906270E0D2E0F08049E0A2E574
:101D08005024E591A2E5501E7591DF900499E06496
:101D18000D70139004BBE004F064287002E4F07ABC
:101D280000E0F9120D17906181E0A2E35009E5E99E
:101D3800A2E3500375E9F7A3E0A2E75009E591A2F1
:101D4800E7500375917FD0F0D083D082D00BD00AB2
:101D5800D009D008D0E0FDD0E0FCD0E0FBD0E0FA1C
:101D6800D0E0F9D0E0F8D0D0D0E032C0E0C0D0C0A8
:101D780082C083906183E0A2E05009E5BFA2E050F1
:101D88000375BFFEE0A2E15009E5BFA2E15003756B
:101D9800BFFDE0A2E25009E5BFA2E2500375BFFB18
:101DA800E0A2E35009E5BFA2E3500375BFF7E0A244
:101DB800E45009E5BFA2E4500375BFEFE0A2E55087
:101DC80009E5BFA2E5500375BFDFE0A2E65009E5CB
:101DD800BFA2E6500375BFBFD083D0828088C0E021
:101DE800C0D0E8C0E0E9C0E0EAC0E0EBC0E0ECC089
:101DF800E0EDC0E0C0F0E5A7A2E6500FE5A1A2E63D
:101E0800500953A7BF75A1BF121E4BE5A7A2E55005
:101E18000CE5A1A2E5500653A7DF75A1DFE5A7A24F
:101E2800E15009E5A1A2E1500375A1FDE5A7A2E2F1
:101E3800500CE5A1A2E2500653A7FB75A1FBD0F018
:101E4800021D5C74F812170F751B01900499E06469
:101E5800067015120BC78A828B83A3A3A3A3A3A31F
:101E6800E0FAA3E0FB120C09A2AFE433FED2AF9074
:101E7800049FE0640170187A207B00900498E0F9D0
:101E880012123F7A207B00900498E0F912112B90EF
:101E98006182E0D2E6F0900816E0602185C61C80D9
:101EA8001690049EE064017008E5C654F84405F5F0
:101EB800C653BEFC121C207401651B60E4EEA2E050
:101EC80092AF7F010217BB74EB12170F74FA121648
:101ED800338A088B098C148D15900499E024F7C374
:101EE80094055006908196022031120BC78A0A8BFE
:101EF8000BAE0AAF0BEE4F700302202EAC08AD09F3
:101F0800851882851983AA82AB83120C398E828F39
:101F180083A3A378081214EB90817A78081214B27C
:101F2800851882851983780C1214EB90817A780CC5
:101F38001214B27808790C1212D8501F7808790C4C
:101F480012147790816278081212F84047850810B9
:101F5800850911850A12850B138041850C10850DA2
:101F680011850E12850F1378107908121477908155
:101F78006278101212F8501C751000751100751255
:101F8800007513017810790C1214777810790812FB
:101F9800143E800890819678101214EB740978101A
:101FA80012141F9081B278081214EB781079081275
:101FB80013978E828F83A3A3A3A3A3A3E0F8A3E020
:101FC800F97AD07B031215A888088909E4F50AF57F
:101FD8000B7810790812143E740412167FE0F8A3E7
:101FE800E0F97AD07B031215A8E8FA8A08E4F50923
:101FF800781079081212D8500778107908121477D7
:10200800900499E06408600AE064066005E06405ED
:10201800701C90816678101212F8501290816A78BC
:1020280010121451800890819A78101214EB8514BC
:102038008285158378101214FA74061216497F0ED9
:102048000217BB74F712170F120C4B900814E064B8
:10205800017010906245E4F0A3F053F4F343FE0CD2
:102068005390F3120BF7E5C654804449F5C6E59E34
:10207800547F644970F8906185740FF0900812E0FD
:10208800F47002A3E0604E900813E0600814601B2F
:1020980014602E8040750801750900900812E078D8
:1020A80008121620E508F45280802A75080175097F
:1020B80000900812E07808121620E508F452908083
:1020C80014750801750900900812E07808121620A6
:1020D800E508F452A079007F020217BB74F71217C3
:1020E8000FE9FEEAFF74016E700C7A807B009004A1
:1020F80098E0F91211259022F8E493F46008E4932B
:10210800F91209F3800953C680E59E547F70FA12CC
:102118000BFD900814E064017003120A0B9008127A
:10212800E0F47002A3E0604B900813E060081460CC
:102138001A14602C803D750801750900900812E09A
:102148007808121620E5084280802875080175096C
:1021580000900812E07808121620E50842908013D3
:10216800750801750900900812E07808121620E534
:102178000842A0120C4B120BC78A088B09A808A9A1
:1021880009E8496015E5E170FCE82414F582E934B2
:1021980000F583E0F46003E0F5E174016F700A7AFA
:1021A80001900498E0F91211AF0220DF74F11217C0
:1021B8000F8A088B098C0A8D0B740F12167F780C06
:1021C8001214EB90817A78081214B290817A780C04
:1021D8001214B27808790C1212D850157808790CB4
:1021E80012147790816278081212F84015790180EC
:1021F80013780C7908121477908162780C1212F80F
:1022080040EB79007F080217BB74ED12170F8A089C
:102218008B098C0A8D0B741312167F780C1214EB31
:1022280090817A78081214B290817A780C1214B2DC
:10223800780C79081212D840117808790C121477A2
:10224800AA08AB09AC0AAD0B802275100075110005
:102258007512007513017810790C121477781079BB
:102268000812143EAA10AB11AC12AD137F0C021762
:10227800BBC082C083E9906000F0D083D08222C0C6
:10228800E074F21217FBA2AFE433FED2AFE58AA2E4
:10229800E45003121059758A00C2EB751A00EEA2B9
:1022A800E092AF7F0102185AC0E0C0D0E8C0E0E970
:1022B800C0E0A9A8D2AFC2C7751A00E9A2E7E43303
:1022C800F8E9A2E792AFD0E0F9D0E0F8D0D0D0E0BA
:1022D80032C0E0C0D0E8C0E0A8AFE8A2E050037583
:1022E800E200F4F5AFD0E0F8D0D0D0E0320201320D
:1022F800FFFFFFFFFFFFFFFFC082C0839061907464
:1023080004F0A37448F0A37402F09061807440F064
:102318009061BC7403F09061877419F090626574E1
:102328001BF090619C740DF090619A7433F0A37463
:1023380055F09061A0743AF0900814E064017009B7
:10234800C29190049D7467800590049D7461F0901B
:1023580022FEE493906186F09022F8E493F46027DB
:10236800E493540FF8906185E0686012E5C65480E4
:102378004449F5C6E59E547F644970F8E8F053C6B1
:1023880080E59E547F70FA7905120CF902278AC0FD
:1023980082C083E9540FF9906185E0696012E5C64F
:1023A80054804449F5C6E59E547F644970F8E9F0C5
:1023B80053C680E59E547F70FA02278AC082C08384
:1023C800E5A8F853A87E906181E4F0A3F0A3F0C2D9
:1023D800BA539AFEC289759B00C2C275E90075910D
:1023E8000075BF0075A91175B905906181F0A374D6
:1023F800C0F0A3E4F0D2BA439A0174805842A8020C
:10240800278AC082C08374F812163390049BE0F8C0
:10241800A3E0F9E849700302253890049BE0544092
:1024280060237908851882851983AA82AB83120BE9
:1024380001851882851983AA82AB831207DD90046F
:102448009BE054BFF0E054806010790C7A387B0828
:10245800120B0190049BE0547FF0E0A2E050319011
:10246800619A7433F0A37455F09061A0743AF090B7
:102478000814E064017009C29190049D7467800596
:1024880090049D7461F01207E390049BE054FEF001
:10249800E05402603190619A743FF0A3745AF0904E
:1024A80061A0747FF0900814E064017009D29190E3
:1024B800049D7471800590049D746AF01207E3907E
:1024C800049BE054FDF0E0540460139022FCE49374
:1024D800906186F01207E990049BE054FBF0E05409
:1024E8000860139022FDE493906186F01207E9904A
:1024F800049BE054F7F0E0541060139022FEE4933C
:10250800906186F01207E990049BE054EFF0E054E4
:1025180020600A1207E990049BE054DFF0A3E0541E
:1025280001600D120A0B1207EF90049CE054FEF0B4
:10253800740812164902278A74EC1216A374F4124E
:102548001633851882851983AC82AD8375838175AE
:10255800823A74041215469022FC93F46003022612
:10256800CD907808E0C3940250030226AD7404129B
:10257800167FAC82AD837583817582067408121547
:1025880046851882851983858212858313740412FF
:10259800167FAC82AD83750EFF750FFF7FFF7E003F
:1025A800750C48750D78801574086E700302264006
:1025B80074096E7003022640740A6E607B850C8273
:1025C800850D8378081214EB8C828D83A909E50A9E
:1025D800C9F8881074187808121406E5104508F828
:1025E800C3E098A3E099850C82850D8378081214BE
:1025F800EB40188C828D8374187808121406E51045
:102608004508F8E0C398F8A3E0801C74187808120D
:102618001406E5104508FAE9FB8C828D83E0F8A3DF
:10262800E0F9EAC398F8EB99F9C3E8950EE9950F34
:102638005006880E890FEEFF0EE50C2404F50CE514
:102648000D3400F50DEEC3941350030225B074FF4A
:10265800650E700474FF650F60238F087402780894
:1026680012162074482508F58274783509F58378A0
:10267800081214EB851282851383E508F0EC240216
:102688000C0CED3400FD851282851383A38582121C
:10269800858313740C12167FE5826C7003E5836DD5
:1026A800600302259E75080175090078081218B69E
:1026B800740212167FAC82AD837ABF7B0812103584
:1026C8007402121649740C1216497F0C021775C051
:1026D80082C0839061AE7468F0A3746AF09062451A
:1026E80074FBF0A304F053F4FD43FE029008147445
:1026F80001F09061A0E0643A90619A70237433F01D
:10270800A37455F09061A0743AF0740164017009E3
:10271800C29190049D7467802890049D7461802103
:10272800743FF0A3745AF09061A0747FF074016450
:10273800017009D29190049D7471800590049D7474
:102748006A8000F002278AC082C0839007F2E064A2
:102758000170159007F8E064016009E0700AA3E0D1
:1027680064017004790C8012900809E06401700813
:1027780090080FE0640160EC790002278AE0F91202
:102788002279D083D082020132C082C0839007FCB4
:102798007425F09007FA7401F0A3E4F07A01FB12B3
:1027A8000C759007E8E02416F8A3E03400F9888255
:1027B8008983742FF0A3740AF09007F9E06401701C
:1027C800169007F8E070107901120CD5120CA512BA
:1027D8000CCF7900120CE180A9C082C08374FA1270
:1027E80016339007F1E064017008120A179007F198
:1027F800E4F075E1F19007E8E02415F8A3E034006F
:10280800F9888289837401F09007F3E06401707697
:1028180090812CC082851882851983AC82AD83751E
:102828008381D082740612154675D90D9007EAE0A7
:10283800C4333354C04403F5D978E87907888289CA
:1028480083A3A3A3E0F5D988828983A3A882A98357
:10285800E864EE7003E9640770E3851882851983DC
:10286800A882A98388828983E0F5D9A3A882A9834D
:10287800740612167FE582687003E5836970E57552
:10288800E195790180027900120C7B901053747FD6
:10289800F0A3740BF0A37485F0A3740BF0A3747FFA
:1028A800F0A3740BF0A3747FF0A3740BF0A3744F20
:1028B800F0A3740BF0A3744FF0A3740BF0A3748B04
:1028C800F0A3740BF0901061744FF0A3740BF0A395
:1028D800744FF0A3740BF0A3744FF0A3740BF0A320
:1028E800744FF0A3740BF0A3744FF0A3740BF0A310
:1028F800744FF0A3740BF09007EAE0F97AEB7B07CA
:10290800120C579007FCE0F91222797901120C8118
:10291800908172121509120C999081CE1215091224
:102928000C637900120CED9007E8E02414F8A3E09A
:102938003400F9888289837416F09004997405F03C
:102948000402253A74F71216A38908A808E875F056
:1029580006A4C8AAF02AF974C928FE740439FF909D
:102968000801E0F97A027B08120C5790080FE07012
:102978001A7900120CB79007DBE0700B79007ADC4B
:102988007B07120C5D8009790180F37901120CB77D
:1029980075E1F175D923900801E0C4333354C0447C
:1029A80005F5D978FF790788828983A3A3A3E0F581
:1029B800D988828983A3A882A983E864057003E97A
:1029C800640870E375D90075D90075D90075D90008
:1029D80075D90075D900EEF8EFF9E82404FAE9345E
:1029E80000FBE82422F582E93400F583E0F5D98874
:1029F800828983A3A882A983EA687002EB6970E2DE
:102A0800EEF8EFF9E824031AE93400FBE82426F588
:102A180082E93400F583E0F5D988828983A3A88206
:102A2800A983EA687002EB6970E2EE242BF582EF65
:102A38003400F583E0F5D9EEF8EFF9E824021AE955
:102A48003400FBE8242CF582E93400F583E0F5D95D
:102A580088828983A3A882A983EA687002EB6970D7
:102A6800E2EEF8EFF9E8242EF582E93400F583E088
:102A7800F5D988828983A3A882A983EA687002EBC2
:102A88006970E2EEF8EFF9E82430F582E93400F5F0
:102A980083E0F5D988828983A3A882A983EA68702C
:102AA80002EB6970E2EEF8EFF9E82432F582E934D6
:102AB80000F583E0F5D988828983A3A882A983EAEF
:102AC800687002EB6970E2EEF8EFF9E824050A0A8B
:102AD8000AE93400FBE8245DF582E93400F583E077
:102AE800F5D988828983A3A882A983EA687002EB52
:102AF8006970E2EE2437F582EF3400F583E0541F65
:102B0800F8EE242AF582EF3400F583E0C43354E06C
:102B180048F5D975E1959010537455F0A3740BF0EE
:102B2800A3745BF0A3740BF0A3744FF0A3740BF0C1
:102B3800A3744FF0A3740BF0A3744FF0A3740BF0BD
:102B4800A3744FF0A3740BF0A37461F0A3740BF09B
:102B5800901061744FF0A3740BF0A3744FF0A3743A
:102B68000BF0A3744FF0A3740BF0A3744FF0A3748D
:102B78000BF0A3744FF0A3740BF0A3744FF0A3747D
:102B88000BF090080EE0F912227990817212150963
:102B9800120C999081CE121509120C6390600DE405
:102BA800F07901120CED9004997406F00231A774C3
:102BB800EC1216A39007FFE0F8A3E0F5838882A340
:102BC800A378101214EB900810E0FAF875F006A438
:102BD800C8ACF02CF974F728F582740439F583E051
:102BE800FEA3E0FFEEC333FEEF33FF8E0CF50D7549
:102BF8000E00750F0085100885110985120A8513C6
:102C08000B908132780812145178081218B2851086
:102C18000885110985120A85130B7808790C121496
:102C28003E7810790C121397E4F50EF50F780879B1
:102C38000C1214778A0C750D007403780C12162088
:102C48007808790C12143E90817A78081214B2AA86
:102C580008AB09AC0AAD0B12221174041216498A8A
:102C6800088B09A808A909C3EE98EF995006E82E21
:102C7800F8E93FF9E890600EF0E9A3F0EEA3F0EF71
:102C8800A3F090600D74C1F00226D2C082C0839078
:102C980007E8E0F8A3E0F5838882A3A3A3A3A3A38E
:102CA800E4F0A3F09007FC022785C082C083900758
:102CB800FFE0F8A3E0F5838882A3A3A3A3A3A3E47A
:102CC800F0A3F090080E02278502013274F612165E
:102CD800A39061D0E0F87480C398FCEA2483F5825D
:102CE800EB3400F583E06004780480027800E8247F
:102CF8000EF8ECC3985003022E557E0C900818E489
:102D0800F0EA2477F582EB3400F583E0900819F0B7
:102D1800EA2478FCEB3400FD781A79087F028C826B
:102D28008D83E088828983F08C828D83A3AC82AD09
:102D38008388828983A3A882A9831FEF70E0EA248D
:102D48007AFCEB3400FD7F028C828D83E0888289D7
:102D580083F08C828D83A3AC82AD8388828983A320
:102D6800A882A9831FEF70E0EA247CFCEB3400FD05
:102D78007F028C828D83E088828983F08C828D83A8
:102D8800A3AC82AD8388828983A3A882A9831FEF1D
:102D980070E0EA247EFCEB3400FD7F028C828D8398
:102DA800E088828983F08C828D83A3AC82AD83888E
:102DB800828983A3A882A9831FEF70E0EA2475FCA7
:102DC800EB3400FD8A828B83A3A3A3A3A3E0F508B9
:102DD800A3E0F5098C828D83E02508F0A3E035098E
:102DE800F07F028C828D83E088828983F08C828DCB
:102DF80083A3AC82AD8388828983A3A882A9831F19
:102E0800EF70E0EA2483F582EB3400F583E0601983
:102E180075081875090878081218B67C0C79031219
:102E28000B4374021216497E1074012EF5D975D918
:102E380003758218758308EEFFE0F5D9A31FEF70BC
:102E4800F875E1957904120C9F79018002790002E6
:102E5800338974F61216A39061D0E0F87480C39891
:102E6800FCEA2483F582EB3400F583E060047804FF
:102E780080027800E8240AF8ECC3985003022F4A2D
:102E88007508089008187401F07CE27D07781979B4
:102E9800087E058C828D83E088828983F08C828D00
:102EA80083A3AC82AD8388828983A3A882A9831E69
:102EB800EE70E0EA2481FCEB3400FD8A828B83A368
:102EC800A3A3A3A3E0FEA3E0FF8C828D83E02EF0F2
:102ED800A3E03FF07E028C828D83E088828983F0B4
:102EE8008C828D83A3AC82AD8388828983A3A882D8
:102EF800A9831EEE70E0EA2483F582EB3400F583A3
:102F0800E0601A75081875090878081218B67C0860
:102F18007903120B43740212164975080C740125C3
:102F280008F5D975D903758218758308AE08E0F5D8
:102F3800D9A31EEE70F875E1957904120C9F7901FA
:102F48008002790002338974F71216A3EAFEEBFFB8
:102F58009061D0E0600302304675D91875D90375C1
:102F6800D903EEF8EFF9E82408FAE93400FBE8247D
:102F78009CF582E93400F583E0F5D988828983A33A
:102F8800A882A983EA687002EB6970E2EEF8EFF9AB
:102F9800E82402FAE93400FBE824A4F582E93400C5
:102FA800F583E0F5D988828983A3A882A983EA6892
:102FB8007002EB6970E2EE2494F582EF3400F58339
:102FC800E5822408F8E5833400F9E0F5D9A3E8653B
:102FD800827003E9658370F2EE2488F582EF34008D
:102FE800F583E5822404F8E5833400F9E0F5D9A3F4
:102FF800E865827003E9658370F275E1957908EEFA
:103008002494FAEF3400FB120AF57904EE2488FAC6
:10301800EF3400FB120AF57904120C9FEE2470F5C8
:1030280082EF3400F583E0F8A3E0F9EE2472F5822C
:10303800EF3400F583E8F0A3E9F079018002790024
:103048000231A774F61216A3EAFEEBFF9008187473
:1030580006F075081875090878081218B67C017901
:1030680003120B43740212164975D90675D90375F4
:103078008218758308E0F5D9A3E582641D7004E51C
:1030880083640870F075E195900499E06408701EF7
:10309800EE2470F582EF3400F583E0F8A3E0F9EE52
:1030A8002472F582EF3400F583E8F0A3E9F07901A2
:1030B80002338974F61216A3EAFEEBFF9061D0E0A2
:1030C800705E900818740AF0750818750908780871
:1030D8001218B67C017903120B4374021216497553
:1030E800D90675D903758218758308E0F5D9A3E563
:1030F80082641D7004E583640870F075E195EE2420
:1031080070F582EF3400F583E0F8A3E0F9EE24725D
:10311800F582EF3400F583E8F0A3E9F07901800245
:10312800790002338974F61216A3EAFEEBFF906168
:10313800D0E070667801900818740BF0900499E05C
:103148006407701975081875090878081218B67C8C
:10315800017903120B437402121649780574012889
:10316800F5D975D903758218758308E8FAE0F5D999
:10317800A31AEA70F875E195EE2470F582EF340031
:10318800F583E0F8A3E0F9EE2472F582EF3400F558
:1031980083E8F0A3E9F07901800279000233897F9E
:1031A8000102177574F61216A3EAFEEBFF9061D0C0
:1031B800E0F87480C398FAEE2483F582EF3400F5C2
:1031C80083E06004780480027800E8240BF8EAC3FE
:1031D8009850030232827D099008187408F0EE2492
:1031E800E5F8EF3400F97A197B087C08888289832E
:1031F800E08A828B83F088828983A3A882A9838A44
:10320800828B83A3AA82AB831CEC70E0EE2483F547
:1032180082EF3400F583E0601D7508187509087899
:10322800081218B67C097903EEFAEFFB120B437407
:10323800021216497D0D74012DF5D975D9037582D1
:10324800187583088D08E0F5D9A31508E50870F608
:1032580075E1957904120C9FEE2470F582EF340025
:10326800F583E0F8A3E0F9EE2472F582EF3400F577
:1032780083E8F0A3E9F079018002790002338974C8
:10328800F61216A3EAFEEBFF9061D0E0F87480C353
:1032980098FAEE2483F582EF3400F583E060047831
:1032A8000480027800E82408F8EAC398500302333F
:1032B800877D06900818740CF09004B6E090081901
:1032C800F07AB77B04781A79087C028A828B83E0CB
:1032D80088828983F08A828B83A3AA82AB838882BF
:1032E8008983A3A882A9831CEC70E07AB97B047C4B
:1032F800028A828B83E088828983F08A828B83A307
:10330800AA82AB8388828983A3A882A9831CEC70D4
:10331800E0EE2483F582EF3400F583E0601D750844
:103328001875090878081218B67C067903EEFAEFC2
:10333800FB120B4374021216497D0A74012DF5D94C
:1033480075D9037582187583088D08E0F5D9A3151A
:1033580008E50870F675E1957904120C9FEE247063
:10336800F582EF3400F583E0F8A3E0F9EE2472F576
:1033780082EF3400F583E8F0A3E9F079018002795F
:10338800007F0202177574F61216A3EAFEEBFF908F
:1033980061D0E0F87480C398FAEE2483F582EF34A4
:1033A80000F583E06004780480027800E82404F8DB
:1033B800EAC39850030234687802900818E8F0EEDF
:1033C80024F7F582EF3400F583E0900819F0EE2435
:1033D80083F582EF3400F583E0601B7508187509E2
:1033E8000878081218B67C027903EEFA120B4374B7
:1033F800021216497806740128F5D975D903758221
:10340800187583088808E0F5D9A31508E50870F64B
:1034180075E195EE2474F582EF3400F583E4F0EE5F
:103428002480F582EF3400F583E4F0EE241DF58264
:10343800EF3400F583E4F0A3F07904120C9FEE2436
:103448000DF582EF3400F583E0F8A3E0F9EE24727D
:10345800F582EF3400F583E8F0A3E9F07901800202
:10346800790002338974F61216A39061D0E0F874DB
:1034780080C398FCEA2483F582EB3400F583E0608E
:1034880004780480027800E82404F8ECC398405BD0
:1034980079029008187407F0EA24F8F582EB3400F2
:1034A800F583E0900819F0EA2483F582EB3400F5FF
:1034B80083E0601875081875090878081218B67C32
:1034C8000209120B4374021216497906740129F590
:1034D800D975D903758218758308E9F8E0F5D9A379
:1034E80018E870F875E1957901800279000233894E
:1034F80074F51216A3E9FCA2AFE433F50AC2AF7D56
:103508000080010DEA246FF582EB3400F583E0F8C2
:10351800EDC398501A8D08EA2508F8EB3400F9E84D
:10352800246BF582E93400F583E06C70D68024EAD8
:10353800246FF8EB3400F9E0FEEA2EFAEB3400FBD6
:10354800EA246BF582EB3400F583ECF088828983FA
:10355800E004F0E50AA2E092AF7F0302177574F663
:103568001216A3A2AFE433FDC2AFEA246FF582EBD3
:103578003400F583E014F07C0060368C08EA2508F6
:10358800F8EB3400F9E8246CF582E93400F583E0BF
:10359800C0E0E8246BF582E93400F583D0E0F00C54
:1035A800EA246FF582EB3400F583E0F8ECC3984029
:1035B800CAEA246EF582EB3400F58374FFF0EA243E
:1035C8006AF582EB3400F583E4F0EDA2E092AF02F5
:1035D8003389C082C083E5A8F8C2AFEA246BF582BC
:1035E800EB3400F583E9F0EA246AF582EB3400F560
:1035F80083E4F0E8A2E792AF02278A74F31216A3D5
:10360800EAFEEBFFECFAEDFB8A828B83A3A3A3A36C
:10361800E0541FF0EE2436F582EF3400F583E4F031
:10362800F50AEEFCEFFD8A828B83E0C0E0EC245DB6
:10363800F582ED3400F583D0E0F0750B00E50A3330
:10364800333354F8F50C8A828B83E0F5087509004A
:10365800E50B7808121601E508A2E0502FEE243693
:10366800F8EF3400F988828983E0F508EE2508F53B
:1036780008EF3400F509E5082438F582E509340037
:10368800F583E50CF088828983E004F0050B050CCE
:10369800E50BC3940840AF050A8A828B83A3AA82EC
:1036A800AB838C828D83A3AC82AD83E50AC394057A
:1036B800500302362E7F0502177574F71216A39071
:1036C80004C5E0640370077A007B000231A77B0021
:1036D80078C5790488828983A3A3A3A3A3A3E06000
:1036E800030239BCEBF875F006A4C8AAF02AF974ED
:1036F800C928F8740439F988828983A3A37401F06E
:1037080088828983A3A3A3E4F0EB88828983A3A397
:10371800A3A3F0E82462F582E93400F5837401F08C
:10372800E82465F582E93400F583E4F0A3F0E824A1
:1037380068F582E93400F5837401F088828983A3EF
:10374800A3A3A3A3E4F0A3F088828983A3A3A3A3DC
:10375800A3A3A3F0A3F0E8240FF582E93400F583CE
:103768007401F0E82435F582E93400F583E4F0903B
:10377800819A121509E82418F582E93400F58312B4
:103788001515E8241CF582E93400F583E4F0E824F3
:103798001DF582E93400F583E4F0A3F0E82480F510
:1037A80082E93400F583E4F0E82474F582E9340012
:1037B800F583E4F0E82469F582E93400F583748040
:1037C800F0E8246AF582E93400F583E4F0E8246F30
:1037D800F582E93400F583E4F0E82467F582E934FA
:1037E80000F583E4F0E824EDF582E93400F583E49C
:1037F800F0E824EEF582E93400F583E4F0E824EFFC
:10380800F582E93400F583E4F0E824F0F582E93440
:1038180000F583E4F0E824F1F582E93400F583E467
:10382800F0A3F0E824F3F582E93400F583E4F0A38B
:10383800F0E824F6F582E93400F583E4F0E824831F
:10384800F582E93400F583E4F0E824D3F582E9341D
:1038580000F583E4F0E824D4F582E93400F583E444
:10386800F090819A121509E824D5F582E93400F51B
:103878008312151590819A121509E824D9F582E961
:103888003400F583121515E824DFF582E93400F5D4
:1038980083E4F0E824E1F582E93400F583E4F0E814
:1038A80024DDF582E93400F583E4F0E824E2F582CA
:1038B800E93400F583E4F0E824E3F582E93400F51F
:1038C80083E4F0E824F9F582E93400F583E4F0A311
:1038D800F0E824FBF582E93400F583E4F0A3F0E88E
:1038E80024FDF582E93400F583E4F0A3F0E824FF31
:1038F800F582E93400F583E4F0A3F0E8FAE9FBEA9D
:103908002404FCEB3400FDEA246BF582EB3400F56B
:103918008374FFF08A828B83A3AA82AB83EC6A70DC
:1039280002ED6B70E2E8FAE9FB7CE27D078C828DA0
:1039380083E0C0E0EA245DF582EB3400F583D0E053
:10394800F08C828D83A3AC82AD838A828B83A3AAF9
:1039580082AB83EC64E77003ED640770D0E8FAE9A2
:10396800FB7CAC7D048C828D83A3E0C0E0EA24E577
:10397800F582EB3400F583D0E0F08C828D83A3AC24
:1039880082AD838A828B83A3AA82AB83EC64B470F2
:1039980003ED640470CF9004C5E004F06401700D79
:1039A80088828983A3A3A3A3E09004C7F0E8FAE977
:1039B800FB0236D30BE82406F8E93401F9EBC3948B
:1039C8000340030236CF0236DCC082C0838A828B72
:1039D80083A3A3A3E0600F8A828B83A3A3A3E4F04D
:1039E8009004C6E014F09004C5E014F0700690044A
:1039F800C774FFF08A828B83A3A3E4F09007E7E003
:103A0800700D9004C6E0640170057900120C69021B
:103A1800278AC082C08378C5790488828983A3A352
:103A2800A3A3A3A3A3E4F088828983A3A3A3A3A346
:103A3800A3F0E82406F8E93401F9E864D77003E94B
:103A4800640770D69004C5E4F0A3F0A374FFF07582
:103A5800E1F102278A74F31216A3750800750900AC
:103A6800750C00750AC9750B04AE0AAF0B8E828FF0
:103A780083A3A3A3E0603FE5084509700AEEF8EFC9
:103A8800F988088909802F850882850983E0F8A3C9
:103A9800E0F5838882A3A31218C98E828F83E0F889
:103AA800A3E0F5838882A3A31215091221B4740434
:103AB800121649E960C7050CEE2406F50AEF340131
:103AC800F50BE50CC3940340A0850882850983A300
:103AD800A3A3A3E0F90236BD74F61216A378FF7902
:103AE800FF7508007EC97F04EEFCEFFD8C828D8394
:103AF800A3A3A3E0606474FF68700374FF69702572
:103B0800EC2474F582ED3400F583E064017011EC67
:103B1800247AF582ED3400F583E0F8A3E0F9803AE1
:103B2800EC242E80EDEC2474F582ED3400F583E06E
:103B380064017014EC247AF582ED3400F583C3E057
:103B480098A3E099501480C7EC242EF582ED340038
:103B5800F583C3E098A3E09940C60508EE2406FE65
:103B6800EF3401FFE508C394035003023AF0C3EAB7
:103B780098EB994004E8FAE9FB02338974F61216C7
:103B8800A3EAFEEBFF8E828F83A3A3A3E0600F8ED0
:103B9800828F83A3A3A3E4F09004C6E014F09004FA
:103BA800C5E014F070069004C774FFF08E828F830E
:103BB800A3A3E4F09007E7E0700D9004C6E0640169
:103BC80070057900120C69EE2465F582EF3400F572
:103BD80083E0F8A3E0F9E8496029EE2465F8EF34BA
:103BE80000F9880889098882F583E0FCA3E0FD9044
:103BF80004C7E0FA7B00120813850882850983E46C
:103C0800F0A3F0EEFAEFFB120BC102338974F7123E
:103C180016A3EAFEEBFF8E828F83A3A3A3A3E0FA89
:103C28007B0012085BEEFAEFFB120AB3120BA30239
:103C380031A7C082C0837C007AC97B04EAF8EBF91B
:103C480088828983A3A3A3E0601EE8246FF582E934
:103C58003400F583E06011E8246BF582E93400F55F
:103C680083E07004790180110CEA2406FAEB340130
:103C7800FBECC3940340C5790002278AC082C08345
:103C880078AC790488828983A3E4F088828983A345
:103C9800A882A983E864B47003E9640470E6900418
:103CA800AD740102274BC082C08374FC1216339096
:103CB800819A121509851882851983121515120A19
:103CC800FBE9851882851983F0120AFB7401121624
:103CD8007FE9F0120AFB740212167FE9F085188258
:103CE800851983121509740402253A74F61216A36D
:103CF800EAFEEBFFEC2403F8ED3400F988088909A3
:103D0800EC2407F8ED3400F9E8FCE9FD8C828D839A
:103D1800E0F8A3E0F9850882850983E0FAA3E0FBCF
:103D28001215A8EE240DF582EF3400F583E8F0A310
:103D3800E9F08C828D83E0F8A3E0F9850882850993
:103D480083E0FAA3E0FB1215A88B09EA4509601382
:103D5800EE240DF582EF3400F583E02401F0A3E0B2
:103D68003400F002338974F61216A3EAFEEBFFEE74
:103D7800242EF582EF3400F583E0FCA3E0FD780003
:103D880079FAECFAEDFB1215A8EE2470F582EF34FF
:103D980000F583E8F0A3E9F0780079FAECFAEDFB96
:103DA8001215A88B09EA45096013EE2470F582EF15
:103DB8003400F583E02401F0A3E03400F0023389F5
:103DC80074F01216A3EAFEEBFF741012167F78083F
:103DD8001214EB120C338A0C8B0D8C0E8D0F908104
:103DE80036780C12145190817A780C1214B2780C2F
:103DF8001218B28E828F83E0F8A3E0F5838882A33D
:103E0800A31215091221B47404121649E9600302B9
:103E18003F158E828F83E02402F8A3E03400F9E88E
:103E2800FAE9FB8A828B83780812146490817A7885
:103E3800081214EB8A828B8378081214C5EE240BBF
:103E4800F582EF3400F583C082C0838E828F83A30E
:103E5800A3A3A3A3E02401F8A3E03400F9D083D0FE
:103E680082E0687003A3E06970057901023F178E4C
:103E7800828F83A3A3A3A3A3A3A3E02401F0A3E0B9
:103E88003400F0EE2474F582EF3400F583E0640129
:103E98007036EE2475F582EF3400F583E0F8A3E080
:103EA800F98E828F83A3A3A3A3A3A3A3E0687003BF
:103EB800A3E0697013EE2475F582EF3400F583E012
:103EC8002401F0A3E03400F0EE2480F582EF340002
:103ED800F583E064017036EE2481F582EF3400F555
:103EE80083E0F8A3E0F98E828F83A3A3A3A3A3A3FF
:103EF800A3E0687003A3E0697013EE2481F582EFF4
:103F08003400F583E02401F0A3E03400F079007F69
:103F18000802177574F71216A39004C7E0F875F035
:103F280006A4C8AAF02AF974C928FE740439FF80C7
:103F380028EE2465F8EF3400F988828983E0FCA331
:103F4800E0FD88828983E4F0A3F08E828F83A3A3A7
:103F5800A3A3E0FA7B00120813EE2465F582EF3480
:103F680000F583E0F8A3E0F9E849604FEE2464F532
:103F780082EF3400F583E0F50878081218BAEE24C9
:103F880063F582EF3400F583E0F9EE2465F582EFFE
:103F98003400F583E0FCA3E0FDEEFAEFFB120AE93A
:103FA8007401121649E96089EE2465F582EF340040
:103FB800F583E0F8A3E0F9E84970137C007D008EF2
:103FC800828F83A3A3A3A3E0FA7B00120813023114
:103FD800A774F21216A3EAFEEBFF890A740E1216F2
:103FE8007FE0FAEE2462F582EF3400F583E06401A5
:103FF80060030240A59061D0E0F87480C398F50C86
:10400800EE2483F582EF3400F583E06004780480C1
:104018000278008908E928F8E43400F9E82402085D
:1040280008E93400F9E50C98E499A2D265D0334048
:1040380068EA7005750B028003750B01E06039753D
:10404800090078081218B67A187B08120B25740232
:1040580012164975081875090878081218B6AC0AB6
:10406800A90BEEFAEFFB120B437402121649740403
:10407800250AF50A7C187D087401250AF5D9850BEF
:10408800D9E50A600D8C828D83F8E0F5D9A318E88C
:1040980070F875E195790080067907800279FF7FCD
:1040A80006021775C082C083E960208C828D83E088
:1040B8008A828B83F08C828D83A3AC82AD838A82C3
:1040C8008B83A3AA82AB8319E970E0ECFAEDFB02BB
:1040D800278AC082C0837869790888828983A3A3E4
:1040E800A3A3A3A3E4F088828983A3A3A3A3A374AF
:1040F800FFF0E82418F8E93400F9E864C97003E926
:10410800640870D690086B74FFF090086AE4F09029
:104118000869F090086CF0A3F002580274EC1216CB
:10412800A390086CE0F508A3E0F509E508450970D7
:10413800061209FF024DD1850882850983E01460C3
:104148001814601524FE601124C4700302489324D7
:10415800C07003024893024DD1E0F9120BB58A0AE8
:104168008B0BAE0AAF0B9004C6E070030245111228
:104178000AA7E9F875F006A4C8AAF02AF974C928AC
:10418800F50C740439F50D850C82F583E0F50AA366
:10419800E0F50BAC0AFDEEFAEFFB120BAFE9F50EFA
:1041A8007402650E70030244D08E828F83E024FE71
:1041B800600A24FE70030243C8024DD1EE65087000
:1041C80003EF65096021120A1D9007F9E064017088
:1041D800169007F8E070107901120CD5120CA51290
:1041E8000CCF7900120CDBE50E6021E5082415F5EB
:1041F80082E5093400F583E060129007F4E0F8A343
:10420800E0F9A3E0687003A3E0697026120C338A12
:104218000C8B0D8C0E8D0F90814A780C12145190D6
:10422800817A780C1214B28E828F83A3A3780C1231
:1042380014FAE5082415F582E5093400F583E064ED
:104248000160030242EE850A82850B83A3A3780CE2
:104258001214EB90814E780C121451780C1218B28B
:104268008E828F83A3A3C082C0839007F6E0F508EF
:10427800A3E085080CF50DE4F50EF50FD083D08288
:10428800780C121451AA0CAB0DAC0EAD0F1221B460
:104298007404121649E9703C8E828F83A3A3C082EE
:1042A800C0839007F6E0F508A3E0F509E4F50AF500
:1042B8000BD083D082780812145190817A78081232
:1042C80014B2EE240EF582EF3400F5837808121448
:1042D800FA0243C0850A82850B83A3A378081214C7
:1042E800EB90814E80CFEE240EF582EF3400F583FB
:1042F8001218C98E828F83A3A31215091221B474D0
:1043080004121649E9640160030243C0850A8285E4
:104318000B83A3A3780C1214EB90814E780C121423
:1043280051780C1218B28E828F83A3A3C082C083E7
:104338009007F6E0F508A3E085080CF50DE4F50E06
:10434800F50FD083D082780C121451AA0CAB0DACA7
:104358000EAD0F1221B47404121649E9701F8E8233
:104368008F83A3A3C082C0839007F6E0F508A3E07B
:10437800F509E4F50AF50BD083D0828010850A820E
:10438800850B83A3A378081214EB90814E7808124A
:10439800145190817A78081214B2EE240EF582EF47
:1043A8003400F58378081214FA9007FCE06427704B
:1043B8000474258002E004F090086B7402024DC971
:1043C800EE65087003EF65096031900810E0F91296
:1043D8000A23850882850983E06402701E9007F924
:1043E800E0640170169007F8E070107900120CD59F
:1043F800120CA5120CCF7901120CDBE50E6012909D
:10440800080AE0F8A3E0F9A3E0687003A3E0697084
:1044180026120C338A0C8B0D8C0E8D0F90814A78E6
:104428000C12145190817A780C1214B28E828F83F8
:10443800A3A3780C1214FA850A82850B83A3A378A8
:104448000C1214EB90814E780C121451780C12183F
:10445800B28E828F83A3A3C082C08390080CE0F53C
:1044680008A3E085080CF50DE4F50EF50FD083D010
:1044780082780C121451AA0CAB0DAC0EAD0F1221A0
:10448800B47404121649E9701F8E828F83A3A3C0E7
:1044980082C08390080CE0F508A3E0F509E4F50A6A
:1044A800F50BD083D0828010850A82850B83A3A365
:1044B80078081214EB90814E780812145190817A82
:1044C80078081214B2024DB2850882850983E06427
:1044D8000270139007F9E06401700B9007F8E07020
:1044E800057900120CD5E50C2404FEE50D3400FF17
:1044F8008E828F83E0F9120BEB8E828F83E090041B
:10450800C7F0AA0AAB0B024DCEEE65087003EF6543
:10451800098E828F8360030246F5E024FE600A2438
:10452800FE7003024650024DCAEE2415F582EF34A0
:1045380000F583E060419007F4E0F8A3E0F9A3E018
:10454800687003A3E069602F120C338A088B098C0A
:104558000A8D0B90819E780812145178081218B2AF
:104568008E828F83A3A31215091221B47404121624
:1045780049E96003024DCA120C338A088B098C0A78
:104588008D0B90814A780812145190817A7808121C
:1045980014B28E828F83A3A378081214FAEE24151E
:1045A800F582EF3400F583E0640170348E828F83E6
:1045B800A3A3C082C0839007F6E0F508A3E0F5093D
:1045C800E4F50AF50BD083D0827808121451EE2452
:1045D8000EF582EF3400F58378081214FA024DCAFA
:1045E800EE240EF582EF3400F5831218C98E828FFF
:1045F80083A3A31215091221B47404121649E9649D
:10460800016003024DCA8E828F83A3A3C082C08338
:104618009007F6E0F508A3E0F509E4F50AF50BD0F4
:1046280083D0827808121451EE240EF582EF3400FC
:10463800F58378081214FA9007FCE0642770057473
:1046480025024DC9E00480F990080AE0F8A3E0F9D2
:10465800A3E0687003A3E069602C120C338A088B0E
:10466800098C0A8D0B90819E7808121451780812D3
:1046780018B28E828F83A3A31215091221B4740471
:10468800121649E97064EE2402F508EF3400F509C2
:10469800120C338A0C8B0D8C0E8D0F90814A780C7E
:1046A80012145190817A780C1214B2850882850907
:1046B80083780C1214FA850882850983C082C08326
:1046C80090080CE0F508A3E0F509E4F50AF50BD02D
:1046D80083D0827808121451EE240EF582EF34004C
:1046E800F58378081214FA120A29024DCAE024FE4A
:1046F800600A24FE70030247BB024DD1120A1D90C6
:1047080007F9E0640170169007F8E070107901125B
:104718000CD5120CA5120CCF7900120CDB9007F403
:10472800E0F8A3E0F9A3E0687003A3E069602F1242
:104738000C338A088B098C0A8D0B90819E7808129D
:10474800145178081218B28E828F83A3A312150908
:104758001221B47404121649E960030243C0EE241E
:1047680002F508EF3400F509120C338A0C8B0D8C16
:104778000E8D0F90814A780C12145190817A780C22
:104788001214B2850882850983780C1214FA8508F8
:1047980082850983C082C0839007F6E0F508A3E00C
:1047A800F509E4F50AF50BD083D082780812145184
:1047B8000242CA900810E0F9120A23850882850986
:1047C80083E06402701E9007F9E064017016900798
:1047D800F8E070107900120CD5120CA5120CCF79E4
:1047E80001120CDB90080AE0F8A3E0F9A3E0687076
:1047F80003A3E069602C120C338A088B098C0A8D9C
:104808000B90819E780812145178081218B28E8283
:104818008F83A3A31215091221B47404121649E94F
:104828007066EE2402F8EF3400F988088909120C42
:10483800338A0C8B0D8C0E8D0F90814A780C1214D4
:104848005190817A780C1214B28508828509837890
:104858000C1214FA850882850983C082C0839008E7
:104868000CE0F508A3E0F509E4F50AF50BD083D0D0
:10487800827808121451EE240EF582EF3400F58385
:1048880078081214FA120A29024DC49004C6E0707E
:1048980003024C29120AA7E9F875F006A4C8AAF081
:1048A8002AF974C928F510740439F511851082F5B0
:1048B80083E0F508A3E0F5099004C7E0F875F00671
:1048C800A4C8AAF02AF974C928F50C740439F50D9E
:1048D80090086AE054077003024B52A3E0F9120BE8
:1048E800B58A0A8B0BAE0AAF0BAC08AD09120BAF39
:1048F800E9F50E7402650E7003024B52850C828531
:104908000D83A3A3A3A3E0F875F08AA4C8AAF02A8C
:10491800F974CE28F50A740839F50BAA0AFB120BAC
:10492800DFAA0AAB0B120BD9751280751300781227
:104938001218B67C007D60E50A2406FAE50B3401FE
:10494800FB120B257402121649A80AA90B9061954F
:10495800E0C0E0E82486F582E93401F583D0E0F090
:10496800906196E0C0E0E82487F582E93401F58398
:10497800D0E0F0906197E0C0E0E82488F582E9345F
:1049880001F583D0E0F0906198E0C0E0E82489F573
:1049980082E93401F583D0E0F08E828F83E024FE33
:1049A800600A24FE7003024A8D024B52120A1D90BF
:1049B80007F9E0640170119007F8E0700B120CA57C
:1049C800120CCF7900120CDBE50E60129007F4E0B0
:1049D800F8A3E0F9A3E0687003A3E0697026120C5D
:1049E800338A0C8B0D8C0E8D0F90814A780C121423
:1049F8005190817A780C1214B28E828F83A3A37897
:104A08000C1214FA850882850983A3A3780C121462
:104A1800EB90814E780C121451780C1218B28E82D9
:104A28008F83A3A3C082C0839007F6E0F50CA3E0B0
:104A3800F50DE4F50EF50FD083D082780C121451E1
:104A4800AA0CAB0DAC0EAD0F1221B47404121649AA
:104A5800E9701F8E828F83A3A3C082C0839007F65C
:104A6800E0F508A3E0F509E4F50AF50BD083D08258
:104A78008010850882850983A3A378081214EB9017
:104A8800814E0242BD900810E0F9120A23E50E603B
:104A98001290080AE0F8A3E0F9A3E0687003A3E025
:104AA800697026120C338A0C8B0D8C0E8D0F908139
:104AB8004A780C12145190817A780C1214B28E82B2
:104AC8008F83A3A3780C1214FA850882850983A31F
:104AD800A3780C1214EB90814E780C121451780CB8
:104AE8001218B28E828F83A3A3C082C08390080C51
:104AF800E0F50CA3E0F50DE4F50EF50FD083D082B8
:104B0800780C121451AA0CAB0DAC0EAD0F1221B4D7
:104B18007404121649E9701F8E828F83A3A3C08282
:104B2800C08390080CE0F508A3E0F509E4F50AF560
:104B38000BD083D0828010850882850983A3A3784F
:104B4800081214EB90814E0244C0E510650C700405
:104B5800E511650D7003024C22850C82850D83A337
:104B6800A3A3E07003024C06850C82850D83A3A3E2
:104B7800A3A3E0F875F08AA4C8AAF02AF974CE288D
:104B8800FE740839FFEEFAEFFB120BDFEEFAEFFBCB
:104B9800120BD9750A80750B00780A1218B67C00BA
:104BA8007D60EE2406FAEF3401FB120B2574021225
:104BB8001649906195E0C0E0EE2486F582EF340155
:104BC800F583D0E0F0906196E0C0E0EE2487F582AE
:104BD800EF3401F583D0E0F0906197E0C0E0EE2477
:104BE80088F582EF3401F583D0E0F0906198E0C059
:104BF800E0EE2489F582EF3401F583D0E0F0E5108A
:104C08002404FEE5113400FF8E828F83E0F9120B35
:104C1800EB8E828F83E09004C7F0AA08AB09024D9F
:104C2800CE90086AE054077003024DD1A3E0F91250
:104C38000BB58A088B09AE08AF098E828F83E024F2
:104C4800FE600A24FE7003024D18024DD1120A1D9F
:104C58009007F9E0640170169007F8E07010790188
:104C6800120CD5120CA5120CCF7900120CDB900790
:104C7800F4E0F8A3E0F9A3E0687003A3E069602C0E
:104C8800120C338A088B098C0A8D0B90819E780848
:104C980012145178081218B28E828F83A3A31215AA
:104CA800091221B47404121649E97061EE2402F560
:104CB80008EF3400F509120C338A0C8B0D8C0E8D1D
:104CC8000F90814A780C12145190817A780C121442
:104CD800B2850882850983780C1214FA85088285C2
:104CE8000983C082C0839007F6E0F508A3E0F509C0
:104CF800E4F50AF50BD083D0827808121451EE241B
:104D08000EF582EF3400F58378081214FA0243C0D6
:104D1800900810E0F9120A2390080AE0F8A3E0F9D5
:104D2800A3E0687003A3E069602C120C338A088B37
:104D3800098C0A8D0B90819E7808121451780812FC
:104D480018B28E828F83A3A31215091221B474049A
:104D5800121649E97063EE2402F8EF3400F9880866
:104D68008909120C338A0C8B0D8C0E8D0F90814A99
:104D7800780C12145190817A780C1214B28508823A
:104D8800850983780C1214FA850882850983C08204
:104D9800C08390080CE0F508A3E0F509E4F50AF5EE
:104DA8000BD083D0827808121451EE240EF582EFCE
:104DB8003400F58378081214FA120A2990086B74E3
:104DC80004F0EEFAEFFB120BA97F0C02177574F0D2
:104DD8001216A3EAFEEBFFEE2402F8EF3400F9887E
:104DE800088909EE2406F8EF3400F9880A890B8847
:104DF80082F5831218CD8508828509831215091258
:104E08000C0F7402121649850A82850B831218CD7D
:104E1800850882850983121509120C03740212167B
:104E280049EE240EF582EF3400F583121509120CB1
:104E3800158E828F83E06440701CEE2412F8EF34E4
:104E480000F988828983E0906064F088828983A36E
:104E5800E09060658006906064E4F0A3F090086CD0
:104E6800EEF0A3EFF0EE2416F582EF3400F583E0C0
:104E7800F8A3E0F58388821216A1906054E4F0A3A9
:104E8800F0A3F0A3F0A3F0A3F0A3F0A3F0A3F0A382
:104E9800F0A3F0A3F0906182E0C2E6F07591BFEE56
:104EA8002415F582EF3400F583E064017003120CD9
:104EB8004BE5E170FCEE2414F582EF3400F583E055
:104EC800F46003E0F5E1EE2415F582EF3400F58394
:104ED8007401F090049FE06401706F120C338A082B
:104EE8008B098C0A8D0B78081218B28E828F83A3D7
:104EF800A312150912221174041216498A088B0983
:104F08008C0A8D0B908152780C1214EB7808790C6E
:104F180012131774037808121406E50824F4F50828
:104F2800E5093401F509900816E06003121185E4DB
:104F3800F50AF50B78081218B27A207B00900498CD
:104F4800E0F912123374041216497F0802177574B7
:104F5800EC1216A3EAFEEBFF8C088D09EE4F7005E4
:104F6800790202504C120C338A0C8B0D8C0E8D0F6B
:104F7800908196780C12145190817A780C1214B2A0
:104F88008E828F83E06402701F9007F4E0F8A3E03C
:104F9800F9A3E0687003A3E06970248E828F83A36D
:104FA800A3780C1214FA8017E06404701290080AAF
:104FB800E0F8A3E0F9A3E0687003A3E06960DC7897
:104FC8000C1218B2850882850983A3A31215091249
:104FD800221174041216498A108B118C128D1390A9
:104FE800815678101212F84003024F6885088285AE
:104FF8000983A3A378081214EB9081CA78081214C5
:105008005178081218B28E828F83A3A31215091241
:1050180021B47404121649E96003024F6890815A5A
:10502800780C121451780C1218B28E828F83A3A3B5
:105038001215091221B47404121649E97004790092
:1050480080027901024DD174F01216A3890874FF09
:10505800650860030251DB90086AE0540770030298
:1050680056A77A007869790888828983A3A3A3A3BD
:10507800A3E064047050EA75F018A4F8A9F0746FFE
:1050880028F582740839F583E0640170487A00785D
:1050980069790888828983A3A3A3A3A3E064046031
:1050A8000302513388828983A3A3A3A3A3A3E06443
:1050B800017078EA75F018A4F8A9F0746E28FA74EB
:1050C8000839FB0256AB0AE82418F8E93400F9EA73
:1050D800C3940440937A007869790888828983A305
:1050E800A3A3A3A3E064017057EA75F018A4F8A974
:1050F800F0746F28F582740839F583E06401704F05
:105108007A007869790888828983A3A3A3A3A3E096
:10511800640160030251B788828983A3A3A3A3A370
:10512800A3E0640160030251B780880AE82418F8F4
:10513800E93400F9EAC39404500302509B0256A7CD
:105148000AE82418F8E93400F9EAC39404408C7A90
:10515800007869790888828983A3A3A3A3A3E0645C
:10516800027061EA75F018A4F8A9F0746F28F58246
:10517800740839F583E0640170597A007869790810
:1051880088828983A3A3A3A3A3E06402707A888298
:105198008983A3A3A3A3A3A3E06401706BEA75F0BA
:1051A80018A4F8A9F0746E28FA740839FB806F0AFD
:1051B800E82418F8E93400F9EAC3940450030251CA
:1051C8000E0256A70AE82418F8E93400F9EAC3944D
:1051D8000440827A007869790888828983A3A3A326
:1051E800A3A3E06508703D88828983A3A3A3A3A332
:1051F800A3E06401702EEA75F018A4F8A9F0746EA3
:1052080028FE740839FF802F0AE82418F8E93400CA
:10521800F9EAC3940450030251887A007B000256CD
:10522800AB0256A70AE82418F8E93400F9EAC3944F
:105238000440A67E007F007A007869790888828910
:1052480083A3A3A3A3A3E06508701BEA75F018A4C1
:10525800F8A9F0746F28F582740839F583E06401C1
:1052680070137A0180110AE82418F8E93400F9EA81
:10527800C3940440C87A00E50814600F1470030250
:10528800544424FE700302559E80967B0078697909
:105298000888828983A3A3A3A3A3E064027055EBC3
:1052A80075F018A4F8A9F0746F28F582740839F518
:1052B80083E06401704D7B0078697908888289836E
:1052C800A3A3A3A3A3E06402600302537A8882899C
:1052D80083A3A3A3A3A3A3E06401600302537AEB0F
:1052E80075F018A4F8A9F0746E28F50A740839F551
:1052F8000B0253920BE82418F8E93400F9EBC39435
:1053080004408E7B007869790888828983A3A3A3E7
:10531800A3A3E0640460030253CEEB75F018A4F86D
:10532800A9F0746F28F582740839F583E064016088
:10533800030253E07B007869790888828983A3A3F4
:10534800A3A3A3E0640460030253EB88828983A3C8
:10535800A3A3A3A3A3E0640160030253EBEB75F0DE
:1053680018A4F8A9F0746E28F50A740839F50B0228
:1053780054030BE82418F8E93400F9EBC3940450FB
:10538800030252C4750A00750B00EAA2E04003024A
:105398005436850A82850B83A3A3780C1214EB90EC
:1053A800815E780C121451780C1218B28E828F8399
:1053B800A3A31215091221B47404121649E9706ED8
:1053C800EEFAEF0250CA0BE82418F8E93400F9EBBA
:1053D800C394045003025311EAA2E05058EEFAEFC6
:1053E800FB80560BE82418F8E93400F9EBC3940461
:1053F8005003025342750A00750B00EAA2E0502ED2
:10540800850A82850B83A3A3780C1214EB90815E26
:10541800780C121451780C1218B28E828F83A3A3C1
:105428001215091221B47404121649E96092AA0AE5
:10543800AB0B0256AB7A007B000256AB7B00786957
:10544800790888828983A3A3A3A3A3E06404705284
:10545800EB75F018A4F8A9F0746F28F58274083970
:10546800F583E06401704A7B00786979088882894D
:1054780083A3A3A3A3A3E064046003025512888254
:105488008983A3A3A3A3A3A3E06401707DEB75F0B4
:1054980018A4F8A9F0746E28F50A740839F50B02F7
:1054A800552A0BE82418F8E93400F9EBC3940440B2
:1054B800917B007869790888828983A3A3A3A3A331
:1054C800E064016003025566EB75F018A4F8A9F0D2
:1054D800746F28F582740839F583E064016003026B
:1054E80055787B007869790888828983A3A3A3A368
:1054F800A3E06401600302558388828983A3A3A380
:10550800A3A3A3E06401707380830BE82418F8E96F
:105518003400F9EBC394045003025475750A0075FE
:105528000B00EAA2E04003025436850A82850B8309
:10553800A3A3780C1214EB90815E780C12145178A6
:105548000C1218B28E828F83A3A31215091221B4EC
:105558007404121649E960030254360253C80BE872
:105568002418F8E93400F9EBC3940450030254BF3B
:10557800EAA2E0501AEEFAEFFB80180BE82418F8BC
:10558800E93400F9EBC3940450030254F0808D7A97
:10559800007B000256AB7B00786979088882898392
:1055A800A3A3A3A3A3E064017040EB75F018A4F8CB
:1055B800A9F0746F28F582740839F583E0640170E6
:1055C800387B007869790888828983A3A3A3A3A379
:1055D800E06401600302566388828983A3A3A3A3BE
:1055E800A3A3E0640170740254950BE82418F8E949
:1055F8003400F9EBC3940440A37B007869790888E8
:10560800828983A3A3A3A3A3E064027063EB75F06C
:1056180018A4F8A9F0746F28F582740839F583E0A6
:105628006401705B7B007869790888828983A3A309
:10563800A3A3A3E06402704F88828983A3A3A3A3D2
:10564800A3A3E064017040EB75F018A4F8A9F07406
:105658006E28F50A740839F50B80410BE82418F810
:10566800E93400F9EBC3940450030255CF025524E2
:105678000BE82418F8E93400F9EBC394044080EAF5
:10568800A2E0501B0253C80BE82418F8E93400F9CB
:10569800EBC394044094750A00750B0002552A7AEE
:1056A800007B00024F5274F61216A3890975080090
:1056B8007869790888828983A3A3A3A3A3A3E06058
:1056C8000302578AE50875F018A4F8A9F0746E2843
:1056D800FE740839FF8E828F83A37401F08E828F47
:1056E80083E509F0120C338E828F83A3A31215155C
:1056F8008E828F83A3A3A3A3A3A3E4F0A3F0908136
:10570800DA121509EE240EF582EF3400F58312152E
:1057180015EE2414F582EF3400F5837401F0EE24BD
:1057280015F582EF3400F5837401F0EE2416F58246
:10573800EF3400F583E4F0A3F090086AE04509F03F
:10574800900869E004F06401600C748065096006E3
:10575800744065097019E50875F018A4F8A9F07483
:105768006E28F8740839F990086CE8F0A3E9F0E5B8
:105778000875F018A4F8A9F0746E28FA740839FBB3
:1057880080180508E82418F8E93400F9E508C394F6
:105798000450030256BC7A007B0080007F02021787
:1057A80075C082C0838A828B83E0F8A3E0F98A827D
:1057B8008B83E4F0A3F088828983A3F088828983AD
:1057C800E0F4F890086AE058F0900869E014F07086
:1057D8000B90086CE4F0A3F0900499F0801CC08250
:1057E800C083900869E0600A90086CE0FAA3E0FBC7
:1057F80080047A007B008002E0F9D083D082020125
:1058080032C082C083E9FB7A007869790888828986
:1058180083A3A3A3A3A3E06B7016EA75F018A4F8FA
:10582800A9F0746F28F582740839F583E0F98011BE
:105838000AE82418F8E93400F9EAC3940440CE7958
:105848000080B7C082C08390086902580074F612BD
:1058580016A3EAFEEBFF9061D0E0C0E0EE2400F56D
:1058680082EF3401F583D0E0F09061D7E0FA9061DF
:10587800D5E0C39A547FC0E0EE2401F582EF3401ED
:10588800F583D0E0F0EE2402F8EF3401F99061D608
:10589800E0C39A547F88828983F0701A9061C5E0CA
:1058A800A2E45012E0A2E7500DEE2402F582EF3494
:1058B80001F5837480F0120CFFEE2401F582EF34B9
:1058C80001F583E07034EE2402F582EF3401F583AC
:1058D800E070279061C5E0A2E4501FE0A2E7501AEB
:1058E800EE2402F582EF3401F5837480F0EE240192
:1058F800F582EF3401F5837480F075E1957800EE58
:105908002400F582EF3401F583E060279061D3E04D
:10591800C0E08808EE2508F582EF3400F583D0E072
:10592800F008EE2400F582EF3401F583E0F9E8C3CE
:105938009940D975E1910257A474F61216A3EAFEAC
:10594800EBFF9061C8E0C0E0EE2403F582EF34017C
:10595800F583D0E0F09061CFE0FA9061CDE0C39A92
:10596800547FC0E0EE2404F582EF3401F583D0E0E3
:10597800F0EE2405F8EF3401F99061CEE0C39A54B3
:105988007F88828983F0701A9061C5E0A2E0501286
:10599800E0A2E3500DEE2405F582EF3401F583749F
:1059A80080F0120D05EE2404F582EF3401F583E052
:1059B8007034EE2405F582EF3401F583E07027900A
:1059C80061C5E0A2E0501FE0A2E3501AEE2405F5FD
:1059D80082EF3401F5837480F0EE2404F582EF340D
:1059E80001F5837480F0120D0B7A00EE2403F58222
:1059F800EF3401F583E0602F9061CBE0C0E08A08C6
:105A0800EE2508F8EF3400F9E82480F582E934003F
:105A1800F583D0E0F00AEE2403F582EF3401F58334
:105A2800E0F8EAC39840D175E1810257A474F412F2
:105A380016A38908A808E875F08AA4C8AAF02AF964
:105A480074CE28FE740839FFEEFAEFFB120BDFEE76
:105A5800FAEFFB120BD9750A80750B00780A121839
:105A6800B67C007D60EE2406FAEF3401FB120B25AC
:105A78007402121649906195E0C0E0EE2486F58222
:105A8800EF3401F583D0E0F0906196E0C0E0EE24B9
:105A980087F582EF3401F583D0E0F0906197E0C09C
:105AA800E0EE2488F582EF3401F583D0E0F09061D0
:105AB80098E0C0E0EE2489F582EF3401F583D0E068
:105AC800F07F0402177574F21216A38908A808E873
:105AD80075F08AA4C8AAF02AF974CE28F87408398F
:105AE800F99061C6E0FDE054F0F075E1817C00E8D2
:105AF8002403F582E93401F583E0602B8C0AE8255C
:105B08000AFAE93400FBEA2480F582EB3400F583D5
:105B1800E09061CAF00CE82403F582E93401F583CA
:105B2800E0FAECC39A40D5E82405F582E93401F59A
